:020000040800F2
:2000000030D50220C10100084D7C0008C55D000819750008E90A0008F9C50008000000009D
:2000200000000000000000000000000079AC0008B11F000800000000597D0008D9B000084C
:20004000DB010008DB010008DB010008DB010008DB010008DB01000891330008DB01000898
:20006000DB010008DB010008DB010008DB010008DB010008DB010008DB010008DB01000860
:20008000DB010008DB010008DB010008DB010008DB010008DB010008DB010008C533000824
:2000A000DB010008DB010008DB010008DB010008DB010008DB010008DB010008DB01000820
:2000C000DB010008DB010008DB010008DB010008DB010008DB010008C5C10008DB01000856
:2000E000A9330008A9840008DB010008DB010008DB010008DB010008DB010008DB0100088F
:20010000DB010008358F0008DB010008DB010008DB010008DB010008DB010008DB010008D7
:20012000DB010008E91D00081D1E0008511E0008591E0008DB010008DB010008DB010008E8
:20014000DB010008DB010008DB010008DB010008DB010008DB010008DB010008FDC100089D
:20016000DB010008DB010008DB010008DB010008DB010008DB010008DB010008DB0100085F
:20018000DB010008DB010008DB010008DB010008DB010008DB010008DB010008DB0100083F
:2001A000156F0008DB010008911D0008DFF80CD000F0A4FB00480047BD3E010830D502201D
:2001C0000648804706480047FEE7FEE7FEE7FEE7FEE7FEE7FEE7FEE7FEE7FEE73DB100088D
:2001E000AD01000810B5431A934209D28318881803E010F8011D03F8011D521EF9D210BD12
:2002000040EA01039B0703D009E008C9121F08C0042AFAD203E011F8013B00F8013B521EC2
:20022000F9D210BDD2B201E000F8012B491EFBD270470022F6E710B513460A46044619469C
:20024000FFF7F0FF204610BD30B505462A460B4612F8010B13F8014B08B1A042F8D01CB1F8
:20026000002802D06D1CF1E7284630BDCAB2401E10F8011F8A4202D00029F9D1002070475E
:20028000421C10F8011B0029FBD1801A704710B5002200E0521C835C8C5CA34201D1002BB8
:2002A000F8D1D8B2E1B2401A10BD30B504460020034600E05B1C934203D2E05CCD5C401BD8
:2002C000F8D030BD034611F8012B00F8012B002AF9D11846704730B505460020034600E045
:2002E0005B1C934205D2EC5CC85C201A01D1002CF6D130BD70B506462BF092F904680546B5
:200300000A220021304600F053F92C6070BD2DE9FE4F804681EA0300C00F0C46009021F0CC
:20032000004123F00045B8EB0200A94105D24046214690461C460B46024623F0004010435A
:2003400047D0270DC7F30A00C3F30A510290401A019040286BDAC3F3130040F4801B009823
:20036000924620B10023D2EB030A63EB0B0B01985946C0F14002504600F0E9F806460D4652
:2003800050465946019A00F001F910EB08006141002487EA115284EAE7731A4340D0009A37
:2003A00062B3019A012A4FEA075215DC001B61EB02014FF0004202EA0752CDE90042001C9B
:2003C00041F5801132462B4600F039F903B0BDE8F08F40462146F9E7001B61EB0201001C21
:2003E00041F5801300185B412018A2F5001747EB030140EAD570B6196D4111E06D084FEAD9
:20040000360645EAC0754FEA0752001B61EB0201001C41F5801149084FEA300000195141F8
:2004200032462B4603B0BDE8F04F00F0F9B80098012240000023D0EB020263EBE073009885
:2004400021464FEAE074B8EB000061EB0401E9E783F000435BE781F0004158E770B5C1F322
:200460000A5201F000450024C1F3130140F2FF3341F480119A4201DA002070BD40F2334328
:200480009A42A2F2334203DC524200F06FF800E090402C43F1D0404270BD00F0004230F0CC
:2004A00000400AD0C10D01F56071C0F3160042EA0151C2084007114370470020014670470C
:2004C00030B50B46014600202022012409E021FA02F59D4205D303FA02F5491B04FA02F519
:2004E0002844151EA2F10102F1DC30BD2DE9F05F0546002092469B4688460646814640243F
:200500001BE0284641464746224600F02FF853465A46C01A914110D311461846224600F00A
:2005200016F82D1A67EB01084F4622460120002100F00DF817EB00094E41201EA4F1010465
:20054000DFDC484631462A464346BDE8F09F202A04DB203A00FA02F1002070479140C2F1E3
:20056000200320FA03F3194390407047202A04DB203A21FA02F00021704721FA02F3D040DD
:20058000C2F120029140084319467047202A06DBCB17203A41FA02F043EAE07306E041FA1F
:2005A00002F3D040C2F1200291400843194670472DE9F04791460F4680460446002614F874
:2005C000015B2DB100F0ACF90068405DC007F6D12B2D02D02D2D18D0641E4A463946204656
:2005E00000F0A2F927B13968A14201D1C7F8008071054FF002040BD54042002803DD2BF0C3
:200600000FF80460A007BDE8F08746F48066E4E70028F8DA2BF004F804606FF00040F2E7D4
:2006200010B5141E73F1000408DA401C41F1000192185B411A4301D120F0010010BD2DE981
:20064000F04D92469B4611B1B1FA81F202E0B0FA80F220329046FFF77AFF04460F4640EA66
:200660000A0041EA0B0153465A46084313D0114653EA010019D0C8F140025046FFF776FF58
:2006800005460E46504659464246FFF760FF084305D0012004E020463946BDE8F08D00205D
:2006A000054346EAE0762C4337430A986305E40AA0EB08000022FD0A44EA47540A3002D5F5
:2006C00000200146E9E7010510196941DDE9084500196941BDE8F04DA2E72DE9FE4F81EAFB
:2006E000030404F0004421F0004100944FF0000B23F0004350EA01045ED052EA03045BD05A
:20070000C3F30A54C1F30A552C44A4F2F3340194A0FB0254C1F3130141F48011C3F31303A5
:2007200043F4801301FB024400FB034E840A970A44EA815447EA8357A4FB076802958D0AE8
:2007400005FB07854FEA932C04FB0C542705029D4FEA065847EA1637B5EB08056EEB070CBD
:20076000870E920E47EA811742EA8312A7FB0201B6EB0B0164EB00042B0D43EA0C335E18FB
:2007800044EB1C50DA465146E7FB0201C5F313044FEA0B3343EA14534FEA0432019C43EA0F
:2007A0000603A4F10C040294009CCDE900B4FFF746FF03B0BDE8F08F00200146F9E72DE980
:2007C000F04D81EA030404F0004B21F0004514464FF0000A23F0004150EA050220D054EA6F
:2007E00001021DD0C5F30A570246C5F31303C1F31300C1F30A5640F4801543F48013A7EBDA
:200800000608101BD64608F2FD3873EB050002D308F1010801E092185B41B8F1000F03DA5E
:2008200000200146BDE8F08D00204FF48011064684460EE0171B73EB050705D3121B63EB48
:20084000050306434CEA010C49084FEA300092185B4150EA0107EDD152EA030012D082EA77
:20086000040083EA0501084305D0101BAB4106D20122002306E000224FF0004302E06FF0E1
:20088000010253101AEB06004CEB085110EB0A0041EB0B01BDE8F04DFFF7C2BEC1F30A52B2
:2008A000C1F3130140F2FF3341F480119A4202DA00200146704740F233439A42A2F23342E3
:2008C00002DC5242FFF752BEFFF741BE30B5041E71F1000404DB4FF00044404264EB010109
:2008E000141E73F1000405DB1C464FF00043524263EB0403994208BF904230BD064C074DAA
:2009000006E0E06840F0010394E8070098471034AC42F6D3FFF74EFCCCEC0308FCEC030822
:2009200000487047747A03082DE9F05F82460078002715468B460AF10104B946302801D09F
:200940009DB113E014F8010B0127782803D0582801D045B10AE00DB1102D07D10027102543
:2009600014F8010B02E0082500E00A250026B0460EE005FB080005FB06F1012701EB1046CE
:200980001FFA80F8B6F5803F00D3B94614F8010B294600F018F80028EBDABBF1000F05D086
:2009A0000FB1641E00E05446CBF80040B9F1000F06D02AF035FE02210160C81EBDE8F09FFE
:2009C00048EA0640FAE73A2800D2303820F02002412A01D3A2F13700884201D34FF0FF30DB
:2009E000704770B58C1810F8015B15F0070301D110F8013B2A1106D110F8012B03E010F8BD
:200A0000016B01F8016B5B1EF9D12B0705D40023521E0DD401F8013BFAE710F8013BCB1A04
:200A2000921C03E013F8015B01F8015B521EF9D5A142D8D3002070BD80B58AB009900891AF
:200A40000792069309980490049806990EF03CFE0499079A40F6A003C2F200030DF1140CD0
:200A6000039008461946029363460FF0F7F90899029A0A600599019008460AB080BD0000EE
:200A800080B586B0082001210390029107F0E8F902988DF8140000218DF816108DF8170008
:200AA00002218DF815100399049140F60042C4F2020204A91046019203F09CFB01980399B1
:200AC00003F070FC06B080BD81B001468DF803009DF80300020902EB820200F00F0000EBC6
:200AE0004200C0B201B0704780B5AE20992102F043FD80BD80B584B000208DF80E004FF44F
:200B000080300290FFE7029800210028019108D0FFE7802008F0C2F9B0FA80F04009019033
:200B2000FFE70198C007002804D0FFE7029801380290E8E70298002808D1FFE703208DF830
:200B40000E009DF80E008DF80F0008E040F2FF5008F030F99DF80E008DF80F00FFE79DF814
:200B60000F0004B080BD000080B584B001468DF80E0000208DF80D0042F63440C4F201001D
:200B800000680290FFE79DF8080010F0450F07D1FFE742F63440C4F2010000680290F2E790
:200BA0009DF80800400700280BD5FFE703208DF80D00042008F0FEF89DF80D008DF80F0066
:200BC000F7E09DF80800C00700280AD0FFE701208DF80D0008F0EEF89DF80D008DF80F002B
:200BE000E7E0FFE708F052F99DF80E10884208D0FFE710208DF80D009DF80D008DF80F00D2
:200C0000D7E040F2FF5008F0D5F8002008F082F9019001984EF20801CFF6FF51084205D19C
:200C2000FFE79DF80D008DF80F00C2E09DF807000006002804D5FFE71C208DF80F00B8E005
:200C40009DF807004006002804D5FFE709208DF80F00AEE09DF807008006002804D5FFE777
:200C60000A208DF80F00A4E09DF80700C006002804D5FFE70B208DF80F009AE09DF8070014
:200C80000007002804D5FFE70C208DF80F0090E09DF807004007002804D5FFE70D208DF8BA
:200CA0000F0086E09DF80700C007002804D0FFE70E208DF80F007CE09DF806000006002893
:200CC00004D5FFE70F208DF80F0072E09DF806004006002804D5FFE710208DF80F0068E06C
:200CE0009DF806008006002804D5FFE711208DF80F005EE09DF80600C006002804D5FFE7A1
:200D000012208DF80F0054E09DF806000007002804D5FFE713208DF80F004AE09DF80600C4
:200D20004007002804D5FFE714208DF80F0040E09DF806008007002804D5FFE715208DF8DA
:200D40000F0036E09DF80600C007002804D0FFE716208DF80F002CE09DF80500000600288C
:200D600004D5FFE717208DF80F0022E09DF805004006002804D5FFE718208DF80F0018E05C
:200D80009DF805008006002804D5FFE719208DF80F000EE09DF804000007002804D5FFE70A
:200DA0001A208DF80F0004E09DF80D008DF80F00FFE79DF80F0004B080BD000080B582B069
:200DC00000208DF8060042F63440C4F2010000680090FFE79DF8000010F0450F07D1FFE780
:200DE00042F63440C4F2010000680090F2E79DF80000400700280BD5FFE703208DF8060047
:200E0000042007F0D7FF9DF806008DF8070019E09DF80000C00700280AD0FFE701208DF8D7
:200E2000060007F0C7FF9DF806008DF8070009E0FFE740F2FF5007F0BDFF9DF806008DF8A5
:200E40000700FFE79DF8070002B080BD80B582B000208DF8060042F63440C4F2010000683D
:200E60000090FFE79DF8000010F0450F07D1FFE742F63440C4F2010000680090F2E79DF88C
:200E80000000400700280BD5FFE703208DF80600042007F08FFF9DF806008DF8070008E0B7
:200EA00040F2FF5007F086FF9DF806008DF80700FFE79DF8070002B080BD000080B586B032
:200EC00002468DF81600049100208DF80F0042F63440C4F2010000680290FFE79DF8080006
:200EE00010F0450F07D1FFE742F63440C4F2010000680290F2E79DF80800400700280BD5BE
:200F0000FFE703208DF80F00042007F053FF9DF80F008DF8170059E09DF80800C0070028C2
:200F20000AD0FFE701208DF80F0007F043FF9DF80F008DF8170049E0FFE707F0A7FF9DF882
:200F40001610884208D0FFE710208DF80F009DF80F008DF8170039E040F2FF5007F02AFF25
:200F6000002007F0D7FF01909DF8050010F0E00F09D1FFE7BDF80600049908809DF80F0026
:200F80008DF8170022E09DF805008006002804D5FFE713208DF8170018E09DF80500400605
:200FA000002804D5FFE710208DF817000EE09DF805000006002804D5FFE70F208DF817003E
:200FC00004E09DF80F008DF81700FFE79DF8170006B080BD80B584B000208DF80E004FF409
:200FE0008030019042F63440C4F2010000680290FFE700209DF8081011F0450F009006D1E4
:20100000FFE70198002818BF01200090FFE70098C00700280AD0FFE701980138019042F6D9
:201020003440C4F2010000680290E2E70198002806D0FFE79DF80800400700280BD5FFE773
:2010400003208DF80E00042007F0B4FE9DF80E008DF80F0015E09DF80800400600280BD5F6
:20106000FFE700208DF80E00402007F0A3FE9DF80E008DF80F0004E09DF80E008DF80F008D
:20108000FFE79DF80F0004B080BD000080B58AB001200790079906F0E3FE102006900799D1
:2010A00006F0DEFE08200590079906F0D9FE00208DF824008DF82700069808900021C4F2B2
:2010C000020108AA084604911146039203F092F820200890049902900846039903F08AF8A9
:2010E0000420089041F20000C4F202000190039903F080F8059808900198039903F07AF8E2
:20110000069808900198039903F074F8029808900198039903F06EF8402008900199009023
:201120000846039903F066F80098089040F60040C4F20200039903F05DF80AB080BD00003B
:2011400080B586B001468DF81700782000224FF4F0734FF0320C0491114603921A466346DA
:201160001CF078FC03981DF037FE0221029008461DF03CFE40F2F401C0F603010190084608
:201180001DF0DAFD6FF07F41009008461DF0D0FD7D2014211DF040F89DF81710B12907D10F
:2011A000FFE74EF68730C0F603001CF04FFD67E09DF81700B22807D1FFE74EF66830C0F620
:2011C00003001CF043FD5AE09DF81700B32807D1FFE74EF6A630C0F603001CF037FD4DE001
:2011E0009DF81700132807D1FFE74EF60130C0F603001CF02BFD40E09DF81700142807D108
:20120000FFE74EF6D530C0F603001CF01FFD33E09DF81700D12807D1FFE74EF6EE30C0F630
:2012200003001CF013FD26E09DF81700472807D1FFE74EF6C030C0F603001CF007FD19E0BA
:201240009DF81700482807D1FFE74EF62230C0F603001CF0FBFC0CE09DF81700152807D1B5
:20126000FFE74EF64630C0F603001CF0EFFCFFE7FFE7FFE7FFE7FFE7FFE7FFE7FFE7FFE708
:201280001CF09EFE06B080BD80B5A2B01CF0CEFF00212190084620911DF030FD1F901CF08D
:2012A000CBFB4BF2E060C2F200004EF2DD51C0F60301209A0EF056FB002845D1FFE74BF2A5
:2012C0007040C2F200004EF2DB51C0F603010EF055FD00282ED1FFE74BF63C30C2F20000C6
:2012E0004EF61631C0F6030101220EF08FFB002816D1FFE740F63920C0F600004BF63C3116
:20130000C2F2000100221E921E9B1CF097FA4BF2D041C2F200010A6842F010020A6008E0E5
:201320004BF2D040C2F20000016821F010010160FFE708E04BF2D040C2F20000016821F077
:2013400010010160FFE708E04BF2D040C2F20000016821F010010160FFE74EF2DD51C0F656
:20136000030100201D901D9A0EF0FCFA01211C9008461B911DF0C2FC4FF07F411A90084667
:201380001DF0D4FC1CF058FB4EF65C50C0F602001DF0D2FC6FF07F411990084618911DF0C2
:2013A000C7FC022017901DF021FD69464FF40472CA601D9A8A60179B4B600A6078214FF0A4
:2013C000320C4FF4AA721923169008461591614620F040F94BF69061C2F2000108600868EB
:2013E00064221D9B14911946139220F0FCF9149800681B99189A20F083FA149800684DF2A7
:20140000D332C0F2D3021B9920F0CAF914980068179920F065FA149800684CF6F011C0F679
:201420000201129120F0D0F9149800684EF6D721C0F6030120F002FA1498006841F21D7142
:20144000C0F6020120F0E8F91498006821F09EFC6846402101611D99C16040F604028260BD
:20146000179A426001608C206E234FF0280C119013991A4610936346CDF83CC020F05AFCE8
:201480004BF69461C2F2000108600868179920F077FD6846102101611B99C16040F6030204
:2014A0008260179A42601D9B0360A020DDF844C00E9060460E99109A0F9B20F03BFC4BF67C
:2014C0009861C2F2000108600868179920F058FD6846179941604FF4006202604FF4A57013
:2014E0000D901399109A0F9B1BF0D0F94BF68861C2F20001086008684EF6D401C0F60301F1
:201500001BF045FB6946179A4A6040F601030B600D990C9008460E99109A0F9B1BF0B6F98C
:201520004BF68461C2F20001086008684EF65101C0F603011BF02BFB6946179A4A6040F637
:2015400002030B60DC210D9B0B901846109A0F9B1BF09CF94BF68C61C2F2000108600868CE
:201560004EF6DA21C0F603011BF011FB18990A9008461DF0DDFB12981DF0DEFB0C21099087
:2015800008461DF029FCFF2108900846159A079111461CF041FE4EF67511C0F603010690C2
:2015A00008461CF053FBB42107981CF035FE4EF6F421C0F60301059008461CF047FB22B0BA
:2015C00080BD000080B584B001468DF80F009DF80F0002460028029204D0FFE70298012865
:2015E0000FD01EE04BF69060C2F20000006821F0CDFB782032214FF4F07250231CF02AFAB5
:2016000019E04BF69060C2F200000168002201900846114620F088F90198006821F0BBFECF
:2016200009E04BF69060C2F2000000689DF80F1020F07AF9FFE71CF0C3FC04B080BD00009B
:2016400080B592B000200D9002F050FF41F63411C2F200010968401A0A280AD3FFE702F032
:2016600045FF41F63411C2F2000108601DF0AAFFFFE702F03BFF41F63011C2F20001096827
:20168000401A642831D3FFE702F030FF41F63011C2F2000108604BF2D040C2F2000040780B
:2016A000C007002803D0FFE700F0FCF91AE041F62C10C2F200000068002808D0FFE741F6F7
:2016C0002C10C2F2000001680139016009E041F62C10C2F200004FF41671016000F0E2F910
:2016E000FFE7FFE71CF06CFCFFE74BF68860C2F2000000681BF034FA002829D0FFE741F608
:201700002910C2F200000078002821D1FFE74BF69460C2F20000006820F022FC4BF69861AB
:20172000C2F2000109680C90084620F019FC0C99CAB281B2012000230B9010460B9A06F050
:20174000A5F941F62910C2F200000B99017019E04BF68860C2F2000000681BF001FA002846
:201760000FD1FFE741F62910C2F200000078002807D0FFE741F62910C2F20000002101706C
:20178000FFE7FFE74BF68460C2F2000000681BF0E7F9002829D0FFE741F62810C2F2000027
:2017A0000078002821D1FFE74BF69460C2F20000006820F0D5FB4BF69861C2F20001096820
:2017C0000A90084620F0CCFB0A99CAB281B20220002309901046099A06F058F941F628106B
:2017E000C2F200000121017019E04BF68460C2F2000000681BF0B4F900280FD1FFE741F68B
:201800002810C2F200000078002807D0FFE741F62810C2F2000000210170FFE7FFE74BF6BD
:201820008C60C2F2000000681BF09AF9002800F01D81FFE741F62A10C2F2000000780028A1
:2018400040F01481FFE740F63650C2F201000021017040F63640C2F201004FF480720891AB
:2018600012F082FD4BF69460C2F20000006820F077FB8DF83E0003208DF83F0008988DF845
:2018800040004BF69861C2F20001086820F068FB8DF8410008988DF8420001218DF843100F
:2018A0000DF13E02062310460791194606920FF023FAADF844000821069805F0E9FD41F6FE
:2018C0002A10C2F200000799017002F00FFE0E90FFE70D98002873D1FFE702F007FE0E99F1
:2018E000401AB0F57A7F03D3FFE701200D90FFE740F63650C2F20100007807285FDBFFE758
:2019000001200D9040F63640C2F20100052105900FF0F2F9ADF83C00059801784BF69462D5
:20192000C2F200021068049120F01AFB0499814244D1FFE740F63640C2F201004078032820
:201940003CD1FFE740F63640C2F201008078022834D1FFE740F63640C2F20100C078002865
:201960002CD1FFE740F63640C2F2010040799DF83C10884222D1FFE740F63640C2F2010085
:2019800080799DF83D10884218D1FFE740F63640C2F201000079012803D1FFE702200D9057
:2019A0000BE040F63640C2F201000079002803D1FFE703200D90FFE7FFE7FFE7FFE788E7B9
:2019C00040F63650C2F201000021017040F63640C2F201004FF48072039112F0C5FC78207F
:2019E000D2214FF4A0724FF4F0731CF033F803981DF0F2F94FF07F41029008461DF096F9B4
:201A00004DF6D040C0F602001DF096F96FF07F41019008461DF08CF90D98012809D1FFE701
:201A20004EF6DF20C0F603007D21E6221CF08EF91BE00D98022809D1FFE74EF6F920C0F6D4
:201A400003007D21E6221CF081F90DE00D98032809D1FFE74EF6EB20C0F603007D21E6222C
:201A60001CF074F9FFE7FFE7FFE719E04BF68C60C2F2000000681BF073F800280FD1FFE795
:201A800041F62A10C2F200000078002807D0FFE741F62A10C2F2000000210170FFE7FFE741
:201AA00012B080BD80B5A8B044F6C051C2F2010101201F9006F086FE44F6BC51C2F2010152
:201AC0001F9806F01FFE41F6A400C2F200000078002801D0FFE759E140F2C040C2F2000036
:201AE000007844F6C051C2F20101497888420AD1FFE74BF2D040C2F200004078C007002879
:201B000000F04381FFE74BF2D040C2F20000016821F48071016044F6C050C2F20100014614
:201B200011F8012F40F2C043C2F200031A70052241234FF0730C4FF0C80E1E9010461D91E6
:201B400019461C9262461B937346CDF868C0CDF864E01BF07FFF4FF0C4401DF0E9F81C9805
:201B60001B991A9A199B1CF04DFA00201DF03EF924A90222189008461E9B17911946169243
:201B800004F026F93A208DF89200179803301D99169A04F01DF93C2064211CF03DFBFF212A
:201BA000159008461DF0C4F842F2A400C0F603001DF0C2F80E21149008461DF00DF917992D
:201BC000139008461CF042F844F6BC50C2F201000078002808D1FFE744F6BC50C2F2010079
:201BE000017801310170FFE73C2082211CF014FB6FF07F41129008461DF09AF840F2F400F5
:201C0000C0F603001DF098F80E21119008461DF0E3F844F6BC51C2F201010A7840F2005364
:201C2000C2F2000353F82220109010460F911CF00DF80F98811C24AA022310460E921A462C
:201C400004F0C6F82E208DF892000E9803300F994A780D901046FEF737FF40F23851C2F29D
:201C6000000151F820100D98FEF72CFB0E990C900846FEF705FB239023980B2807D3FFE742
:201C80004DF6D040C0F602001DF056F806E04EF65C50C0F602001DF04FF8FFE7FF200B905C
:201CA0001DF046F83C20A0210A901CF0B5FA0E210990084608911DF08FF824A90790084672
:201CC00006911BF0C3FF00208DF8940043F23200C2F2200024900698023044F6BC51C2F2AD
:201CE0000101CA1C0223059111461A4604F070F84EF65C50C0F602001DF01EF86FF07F4144
:201D0000049008461DF014F8BE210A981CF084FA0899039008461DF05FF806990290084658
:201D20001BF094FF1CF04CF9D5218DF883100B998DF88410059A13788DF8853093788DF8F5
:201D4000863053788DF88730D3788DF8883044F6C053C2F2010393F800C08DF889C093F895
:201D600001C08DF88AC09B788DF88B3044F61C63C2F2010317210DF183024FF0090C01906F
:201D8000184663460AF086F8FFE7FFE728B080BD80B500F001F880BD4BF20800C4F202008B
:201DA000022101607047000082B00A4601908DF803109DF80300002809D0FFE701984BF2E8
:201DC0000001C4F202010A681043086009E001984BF20001C4F202010A6822EA00000860BD
:201DE000FFE702B07047000080B546F22840C4F2020048F60001C1F2000100F035FA0028CD
:201E00000BD0FFE746F22840C4F2020048F60001C1F2000100F06CF8FFE780BD80B546F2D2
:201E20004040C4F2020048F20001C1F2200100F01BFA00280BD0FFE746F24040C4F20200FD
:201E400048F20001C1F2200100F052F8FFE780BD80B508F0B3F980BD80B546F27040C4F22D
:201E6000020048F22001C2F2000100F0FDF900280BD0FFE746F27040C4F2020048F2200186
:201E8000C2F2000100F034F8FFE780BD83B002900191029846F20F41C4F20201884206D874
:201EA000FFE746F20000C4F20200009005E046F20040C4F202000090FFE79DF8070080060F
:201EC000002809D5FFE7019840F67D71C0F67D7108400099C86008E0019840F67D71C0F651
:201EE0007D71084000998860FFE703B07047000083B002900191029846F20F41C4F20201A9
:201F0000884206D8FFE746F20000C4F20200009005E046F20040C4F202000090FFE79DF893
:201F200007008006002809D5FFE7019840F67D71C0F67D7108400099C86008E0019840F607
:201F40007D71C0F67D71084000998860FFE703B07047000082B00A4601908DF803109DF896
:201F60000300002806D0FFE70198016841F00101016005E00198016821F001010160FFE7A3
:201F800002B0704782B0019000910098002806D0FFE70198016841F02001016005E00198D5
:201FA000016821F020010160FFE702B0704700007047000080B582B0019002F097FA009014
:201FC000FFE7019800280CD0FFE702F08FFA0099401A0199884203D3FFE700200190FFE773
:201FE000EFE702B080BD000080B500F0ADFB00F03DFF80BD7047000070470000704770470A
:020000040800F2
:202000000000000000000000170420110000010881B000900098016821F00101016000989D
:202020000021016000984160009881600098C16000980161009821214161009846F210015C
:20204000C4F20201884207D1FFE746F20800C4F202003D21016005E1009846F22801C4F2F3
:202060000201884208D1FFE746F20800C4F202004FF474610160F4E0009846F24001C4F2C8
:202080000201884208D1FFE746F20800C4F202004FF474110160E3E0009846F25801C4F2F1
:2020A0000201884208D1FFE746F20800C4F202004FF074610160D2E0009846F27001C4F27E
:2020C0000201884209D1FFE746F20C00C4F202003D21C2F200010160C0E0009846F288010A
:2020E000C4F2020188420AD1FFE746F20C00C4F2020040F64071C2F200010160ADE000987E
:2021000046F2A001C4F20201884209D1FFE746F20C00C4F202000021C2F23D0101609BE0B8
:20212000009846F2B801C4F20201884208D1FFE746F20C00C4F202004FF03D5101608AE040
:20214000009846F21041C4F20201884207D1FFE746F20840C4F202003D2101607AE0009834
:2021600046F22841C4F20201884208D1FFE746F20840C4F202004FF47461016069E00098EA
:2021800046F24041C4F20201884208D1FFE746F20840C4F202004FF47411016058E0009813
:2021A00046F25841C4F20201884208D1FFE746F20840C4F202004FF07461016047E00098A0
:2021C00046F27041C4F20201884209D1FFE746F20C40C4F202003D21C2F20001016035E00E
:2021E000009846F28841C4F2020188420AD1FFE746F20C40C4F2020040F64071C2F200012A
:20220000016022E0009846F2A041C4F20201884209D1FFE746F20C40C4F202000021C2F256
:202220003D01016010E0009846F2B841C4F20201884208D1FFE746F20C40C4F202004FF089
:202240003D510160FFE7FFE7FFE7FFE7FFE7FFE7FFE7FFE7FFE7FFE7FFE7FFE7FFE7FFE7FB
:20226000FFE7FFE701B0704786B00590049100208DF80F0001900090059846F20F41C4F21A
:202280000201884206D8FFE746F20000C4F20200029005E046F20040C4F202000290FFE79E
:2022A000049840F63C71C0F63C7108420BD0FFE704981E2101EAD02001900598006801994B
:2022C0000840009005E00598406900F080000090FFE79DF813008006002804D5FFE7029866
:2022E0004068019003E0029800680190FFE7019840F67D71C0F67D710840019001980499D9
:20230000084208D0FFE70098002804D0FFE701208DF80F0003E000208DF80F00FFE79DF874
:202320000F0006B07047000083B01346029001918DF803209DF804000006002812D5FFE735
:202340009DF80300002806D0FFE70298416941F08001416105E00298416921F0800141610C
:20236000FFE7FFE70198802818D0FFE79DF80300002808D0FFE7019800F01E0002990A6850
:202380001043086009E001986FF01E0161EA000002990A6810400860FFE7FFE703B070473C
:2023A00083B00290019100200090029800680090009848F23F01CFF21C0108400090019823
:2023C0000168C2684369D0F818C01143194341EA0C01C2691143026A1143426A1143826A0B
:2023E0001143426B1143806B0843009908430090009802990860029840690090009820F0C8
:20240000070000900198C16A006B0843009908430090009802994861019800690299486016
:202420000198406802998860019880680299C86003B0704781B041F63C10C2F2000000685A
:202440000068C00F00281CD1FFE741F63C10C2F2000000680068C005002812D5FFE741F652
:202460003C10C2F20000006841F68421C2F200010A68506008688168013181600120009024
:2024800065E041F63C10C2F2000000680068C00F002829D1FFE741F63C10C2F2000000687A
:2024A0000068800500281FD5FFE741F63C10C2F2000000680068C005002815D4FFE741F633
:2024C0003C10C2F20000016841F68422C2F2000213681960116800234B60116801228A603F
:2024E0000168C96801602EE041F63C10C2F2000000680068C00F002824D1FFE741F63C1077
:20250000C2F2000000680068800500281AD4FFE741F63C10C2F2000000680068C0050028C2
:2025200010D4FFE741F68420C2F20000006881680131816041F63C10C2F200000168C9680D
:202540000160FFE7FFE7FFE700200090FFE7009801B0704781B001468DF803009DF803003A
:20256000002809D0FFE749F21800C4F20200016841F00201016008E049F21800C4F2020078
:20258000016821F002010160FFE701B07047000085B004900391029200200190049941F699
:2025A0003C12C2F2000211600190FFE70198029988422CD2FFE70498019900EB411000904B
:2025C00000984FF000410160009844F2F45141600398019940F2F45201FB020000998860A2
:2025E000019802990139884208D2FFE70498019900EB411020300099C86003E00498009948
:20260000C860FFE7FFE7019801300190CEE7049849F20C01C4F20201086041F68420C2F222
:20262000000041F69C21C2F20001016005B0704781B001468DF803009DF80300002809D08B
:20264000FFE749F21800C4F20200016841F40051016008E049F21800C4F20200016821F4C8
:2026600000510160FFE701B07047000085B004900391029200200190049941F6E012C2F23E
:20268000000211600190FFE701980299884228D2FFE70498019900EB4110009000984FF495
:2026A000801101600398019940F2F45201FB020000998860019802990139884208D2FFE704
:2026C0000498019900EB411020300099C86003E004980099C860FFE7FFE701980130019010
:2026E000D2E7049849F21001C4F20201086005B07047000080B582B04FF0007001210190E3
:2027000005F0CEFB0021019805F0CAFB02B080BD82B001900020009001980090FFE700987E
:20272000002805D0FFE7FFE7009801380090F6E702B0704749F21800C4F20200016841F480
:20274000801101607047000080B58EB0D72001210A9105F085FB4FF480400A9905F020FC7D
:202760000A9808F08BFA86200B9003208DF8310002208DF8300000218DF832108DF8331099
:202780000022C4F202020BAB09901046089119460792069301F02EFD0B20079905900846C4
:2027A0000A99059A01F0A4FD07980999059A01F09FFD07210798059A01F09AFD4FF4006047
:2027C0000B9040F20040C4F202000490069901F011FD04980599059A01F08AFD4FF4C0406E
:2027E0000B9041F60000C4F202000390069901F001FD0D210398059A01F07AFD0E21039894
:20280000059A01F075FD32200B9040F60000C4F202000290069901F0EDFC02980A99059AF4
:2028200001F066FD04210298059A01F061FD05210298059A01F05CFD08200B900A998DF803
:202840003010089A8DF832208DF83310099B8DF8313041F6004CC4F2020C01906046069950
:20286000CDF800C001F0C6FC0098019901F09AFD08980D90FFE70D9840F63F51C0F2030122
:20288000884205D8FFE7FFE70D9801300D90F2E741F60040C4F20200082101F08FFD002084
:2028A0000D90FFE70D9840F63F51C0F20301884205D8FFE7FFE70D9801300D90F2E70EB0F7
:2028C00080BD000081B000208DF8030049F20000C4F202000068C007002804D0FFE70120BD
:2028E0008DF8030003E000208DF80300FFE79DF8030001B07047000082B000210191816019
:202900004160016041F63C11C2F20001096809680022C3F6FF7211406FF0030202EB11415A
:2029200001910199016041F68421C2F2000109688968022900900AD3FFE741F68420C2F20A
:2029400000000068006880680099486008E041F63C10C2F200000068806800994860FFE7E8
:2029600041F63C10C2F200000168009A91600168C968016002B0704780B592B00A46109061
:20298000ADF83E1000200E900D900C9048F20071C0F293310791069048F21000C4F20200FC
:2029A00000680D900D9820F01C000D9008A8059205F04EFB09980790079842F60051C0F20D
:2029C000311188420DD3FFE7079840F6BF61C0F21621884205D8FFE70D9840F008000D9040
:2029E00042E0079840F6C061C0F2162188420DD3FFE7079848F2FF61C0F29331884205D8F0
:202A0000FFE70D9840F00C000D902CE0079848F20071C0F29331884209D3FFE707984EF21B
:202A2000FF01C0F2F551884201D8FFE71AE007984EF20011C0F2F55188420DD3FFE7079804
:202A40004DF27F11C0F6F001884205D8FFE70D9840F004000D9004E00D9840F010000D9097
:202A6000FFE7FFE7FFE7FFE70D9848F21001C4F202010860BDF83E0000214FF4004200F024
:202A80001BFC002803D1FFE70020119095E14FF6FF70C0F20F00FFF73BFE1098006800282A
:202AA00000F0A480FFE7FFE7069801300690FFE7BDF83E00012100F0EFFA0021400700286D
:202AC00004910BD4FFE706984FF6FF71C0F204010022884238BF01220492FFE70498C007AD
:202AE0000028E1D1FFE706984FF6FF71C0F20401884203D1FFE7002011905EE100200690D2
:202B0000BDF83E104FF4805203900846039900F0D3FB002803D1FFE7002011904DE1FFE7AB
:202B2000069801300690FFE7BDF83E00012100F0B3FA00218006002802910BD4FFE70698D3
:202B40004FF6FF71C0F204010022884238BF01220292FFE70298C0070028E1D1FFE70698CA
:202B60004FF6FF71C0F20401884203D1FFE70020119022E100200690BDF83E001F2100F0C8
:202B80008BFA0E900E9800F01C00043801460E28019129D80199DFE801F0212727271127F4
:202BA0002727272719272727080010984FF40061016210984FF48041416116E01098002127
:202BC000016210984FF4804141610EE010984FF40061016210980021416106E0109800218D
:202BE00001621098416100E0FFE716E0BDF83E0010994A69096AC90841EA52018AB20021FE
:202C000000F05AFB002803D1FFE700201190D4E06FF07F40FFF77CFDFFE748F20000C4F2B5
:202C2000020001680D910D9948F20F12CFF6207211400D9110994A688B68D1F80CC0D1F898
:202C400010E01A4342EA0C0242EA0E024B691A438B691A43CB691A430B6A1A434B6A1A43DA
:202C60008B6A1A43CB6A1A430B6B1A43496B11430D9A11430D910D9901601098816BC26B34
:202C8000036CD0F844C01143194341EA0C01826C1143C26C1143026D1143406D084348F258
:202CA0000401C4F2020108601098806D48F20801C4F2020108601098C06D48F20C01C4F223
:202CC0000201086048F21800C4F2020001680D910D994FF6417211400D9110990A6E4B6E11
:202CE000D1F868C0D1F86CE043EA024242EA0C0242EA0E020B6F1A43496F11430D9A114309
:202D00000D910D9901601098816FC06F084348F21C01C4F20201086049F21800C4F2020079
:202D200001680D910D9943F62372CFF6DE0211400D911099D1F88020D1F88430D1F888C0E4
:202D4000D1F88CE01A4342EA0C0242EA0E02D1F890301A43D1F894301A43D1F898301A43AD
:202D6000D1F89C301A43D1F8A01011430D9A11430D910D9901601098D0F8A410D0F8A82040
:202D8000D0F8AC30D0F8B0C01143194341EA0C01D0F8B42041EA8201D0F8B800084340F426
:202DA000000049F20001C4F202010860086840F08000086001201190FFE7119812B080BDDE
:202DC00083B0029001910198808800900098029948F24002C4F20202885001980068009099
:202DE0000098029948F24402C4F20202885003B07047000081B001468DF803009DF803008C
:202E0000002809D0FFE748F20000C4F20200016841F00401016008E048F20000C4F20200FF
:202E2000016821F004010160FFE701B07047000081B001468DF803009DF80300002809D0CB
:202E4000FFE748F20000C4F20200016841F00801016008E048F20000C4F20200016821F042
:202E600008010160FFE701B07047000080B5B2B04FF06060012104F0F3FFFFF73BFC00F0DF
:202E800077F9FFE7FFF71EFD012801D1FFE7F9E703A8029000F08AF90120039000210A91EA
:202EA0004FF400720D920E911191149116911791189123914FF0007224924FF400132693B6
:202EC0002891299104212B912C924FF480312D914FF480012E914FF400512F914FF4804153
:202EE00031910299019008460199FFF745FD002805D1FFE7A420952100F03EFBFFE732B075
:202F000080BD000086B00146ADF81200002003900290019041F6E010C2F2000000680068BF
:202F2000C00F002803D0FFE700200590B0E041F6E010C2F2000000680090BDF8120040F2D0
:202F4000F551884223DBFFE7BDF812004BF20B01CAF60241A0FB0101890A0391BDF81210CF
:202F600040F25812C0F2560243F6D573C4F6F57301FB03214FEAB101AD22C0F22B0291427C
:202F800004D3FFE7039801300390FFE702E001200390FFE70398012818D1FFE741F6E010F9
:202FA000C2F2000001680A6842F040520A60BDF812106FF35F310268516001680A6842F063
:202FC00000420A600168C968016048E000200190FFE70198039988423AD2FFE701980028D9
:202FE0000AD1FFE741F6E010C2F200000068016841F080510160FFE7009840F2F45141606B
:20300000019803990139884215D1FFE70098016841F000510160BDF81200039940F2F452EC
:2030200001FB120000F2F450029002986FF35F3000994860FFE70098016841F00041016034
:203040000098C0680090FFE7019801300190C0E7009841F6E011C2F200010860FFE749F23A
:203060001400C4F202000068400700280DD5FFE749F21400C4F202000421016049F2040019
:20308000C4F2020000210160FFE701200590FFE7059806B07047000085B00A460346ADF8F7
:2030A0001000ADF80E1000200290019048F21000C4F2020001680291029901F01C010291C0
:2030C000BDF81010C90289B2DDF808C041EA0C010291BDF80E1001F01F01DDF808C04CEAF6
:2030E00081110291029921F002010291029941F00101029102990160FFE7019801300190CB
:2031000048F21000C4F2020000680290FFE700209DF80810C907002900900BD0FFE701981D
:203120004FF6FF71C0F204010022884238BF01220092FFE70098C0070028DED1FFE70198F0
:203140004FF6FF71C0F20401884204D1FFE70020ADF8120007E048F21400C4F20200006852
:20316000ADF81200FFE7BDF8120005B07047000049F20000C4F20200016841F0010101608F
:203180007047000080B582B001200190FFF750FEFFF7D0FA0198FFF72DFE0198FFF748FAD0
:2031A0000198FFF7D7F902B080BD000081B000900098012101600098002141600098816012
:2031C0000098C1600098016100984FF480424261009881610098C16100984FF40062026227
:2031E00000984162009881620098C1620098016300984163009881630098C16300984022F4
:203200000264009820224264009881640098C1640098016500984165009881650098C16516
:2032200000980166009880224266009881660098C166009801670098416700988167009817
:20324000C16700984FF08062C0F8802000984FF00072C0F884200098C0F8881000984FF4CD
:203260000013C0F88C300098C0F890100098C0F894100098C0F898100098C0F89C10009857
:20328000C0F8A0100098C0F8A42000984FF48032C0F8A82000984FF48002C0F8AC2000982C
:2032A0004FF40052C0F8B0200098C0F8B4100098C0F8B81001B0704780B586B013468C46C7
:2032C0008646ADF81200ADF81010ADF80E2000200290019048F21000C4F202000168029192
:2032E000029901F01C010291BDF81210C90289B2029A11430291BDF8101001F01F01029AB0
:2033000042EA81110291029941F002010291029941F001010291BDF80E1048F21402C4F2C0
:203320000202116002990160FFE701980130019048F21000C4F2020000680290FFE70020D9
:203340009DF80810C907002900900BD0FFE701984FF6FF71C0F204010022884238BF01226B
:203360000092FFE70098C0070028DED1FFE701984FF6FF71C0F20401884203D1FFE7002010
:20338000059002E001200590FFE7059806B080BD80B5012000F05CF8002804D0FFE70120ED
:2033A00000F04CF8FFE780BD80B54FF4006000F04FF8002805D0FFE74FF4006000F03EF8FB
:2033C000FFE780BD80B5202000F042F8002804D0FFE7202000F032F82FE0402000F038F860
:2033E000002804D0FFE7402000F028F824E0802000F02EF8002804D0FFE7802000F01EF839
:2034000019E04FF4807000F023F8002805D0FFE74FF4807000F012F80CE04FF4007000F0D6
:2034200017F8002805D0FFE74FF4007000F006F8FFE7FFE7FFE7FFE7FFE780BD81B000907D
:20344000009843F61441C4F20101086001B0704782B0019000208DF8030043F61440C4F210
:20346000010000680199084204D0FFE701208DF8030003E000208DF80300FFE79DF8030093
:2034800002B0704782B001900020009043F60040C4F2010000900198807900285DD0FFE7C3
:2034A0000198006843F60041C4F201010A6822EA000008600198006843F60441C4F20101BC
:2034C0000A6822EA00000860019800790099084400900198006800990A681043086001981F
:2034E000006843F60841C4F201010A6822EA000008600198006843F60C41C4F201010A6893
:2035000022EA0000086001984079102813D1FFE70198006843F60841C4F201010A681043E3
:2035200008600198006843F60C41C4F201010A681043086010E043F60040C4F20100009007
:20354000019840790099084400900198006800990A6810430860FFE70CE001980079009960
:20356000084400900198006800990A6822EA00000860FFE702B0704784B00A4603468DF84E
:203580000F008DF80E10029201930AF09BF9000084B00390029100208DF807000090039892
:2035A000102806D1FFE76420CAF20000006800901EE00398B0F5807F06D1FFE78420CAF284
:2035C00000000068009012E00398B0F5805F06D1FFE7A420CAF200000068009006E040F295
:2035E0005810CAF2000000680090FFE7FFE7FFE7009802990840884204D0FFE700208DF859
:20360000070003E001208DF80700FFE79DF8070004B0704782B001900020009001980168B1
:2036200042688368C06811436FF01F0202EB4312114341EA40200090009840F25011CAF261
:203640000001086002B0704710B585B00490002003900290019000900498006840F240111D
:20366000CAF2000151F820000390039847F6FF7188430390049841688268C368D0F810C0F9
:203680001143194341EA0C014269114382691143C2691143026A1143406A084303990843E9
:2036A00003900498006800280AD1FFE703980499096840F24012CAF2000242F821001BE049
:2036C00040F24010CAF2000001680191019947F6FF72914301910499CA690B6A496A1A43AE
:2036E0001143019A11430191019901600399049A126840F82210FFE704980068002844D1B5
:20370000FFE70498006840F24811CAF2000151F820000290029800F0704002900498806A2A
:2037200002684368D0F808C0D0F80CE0013A6FF00F0404EB03131A436FF0FF0303EB0C23A3
:203740001A434FF20003CFF6FF7303EB0E331A43036940F2000CCFF6FF7C0CEB03431A4381
:20376000436940F2000CCFF6F07C0CEB03531A438069013842EA0060029A104302900298BB
:20378000049A126841F8220048E00498006840F24811CAF2000151F820000290029800F0BD
:2037A000704002900498806A02684368D0F808C00069013A6FF00F0E0EEB03131A436FF0B1
:2037C000FF0303EB0C231A430023CFF6FF7303EB00401043029A1043029008680090009879
:2037E00000F0704000900498806AC26840694FF20003CFF6FF7303EB02320023CFF6F07358
:2038000003EB00501043009A10430090009808600298049A126841F82200FFE705B010BD25
:2038200081B00090009840F25411CAF200010A6842EA4000086001B07047000080B58CB0BC
:203840004FF400100121059104F06AFB02200490059904F005FBC0200A9004988DF82C00F5
:203860008DF82D0005998DF82E1000228DF82F2040F20043C4F202030AA9184603920293D4
:2038800000F0B8FC06210420029A01901046019A00F02EFD07210298019A00F029FD48F253
:2038A000A060C0F2010006900398ADF81C004BF6FF71ADF81E10ADF82000ADF822004FF410
:2038C0008041ADF8241045F20041C4F2000106AA08460091114602F00BFE0098059902F016
:2038E0002BFD4FF47A70FEF765FB70200399039A00F034FA002802D0FFE709F0CFFF00F0A0
:203900007FF90CB080BD000010B588B09C468E4604468DF81E008DF81D1006928DF8173080
:203920009DF81700002804D1FFE701208DF81F0062E145F20040C4F20000012102F076FD3C
:203940004FF440500490FFE745F20040C4F200000121C1F2000102F099FD00280DD1FFE7A3
:203960000498002804D0FFE704980138049003E001208DF81F003FE1E6E79DF817000128F6
:2039800008D1FFE745F20040C4F20000002102F0BBFC07E045F20040C4F20000012102F049
:2039A000B3FCFFE79DF81E1045F20040C4F20000002202F07DFE4FF440500490FFE745F26F
:2039C0000040C4F200000221C1F2000102F05EFD00280DD1FFE70498002804D0FFE70498C7
:2039E0000138049003E001208DF81F0004E1E6E745F21840C4F2000000884FF4405104916A
:203A0000FFE745F20040C4F200008021C1F2000102F03CFD00280DD1FFE70498002804D08F
:203A2000FFE704980138049003E001208DF81F00E2E0E6E79DF81D1045F20040C4F2000011
:203A400002F058FE4FF440500490FFE745F20040C4F200008021C1F2000102F017FD012127
:203A6000002802910ED0FFE745F20040C4F200000421C1F2000102F009FDB0FA80F0400966
:203A80000290FFE70298C00700280DD0FFE70498002804D0FFE704980138049003E0012077
:203AA0008DF81F00A8E0D1E745F20040C4F20000012102F0BBFC4FF440500490FFE745F2A6
:203AC0000040C4F200000121C1F2000102F0DEFC00280DD1FFE70498002804D0FFE7049848
:203AE0000138049003E001208DF81F0084E0E6E79DF81E1045F20040C4F20000012202F01B
:203B0000D7FD4FF440500490FFE745F20040C4F200000221C1F2000102F0B8FC00280DD1D4
:203B2000FFE70498002804D0FFE704980138049003E001208DF81F005EE0E6E745F2184076
:203B4000C4F20000008800218DF80F10FFE79DF80F009DF81710884243DAFFE79DF80F00AB
:203B600001309DF8171088420DDBFFE745F20040C4F200000021019002F0C6FB0121019873
:203B800002F06CFCFFE74FF440500490FFE745F20040C4F200004021C1F2000102F076FCF2
:203BA00000280DD1FFE70498002804D0FFE704980138049003E001208DF81F001CE0E6E7C1
:203BC00045F20040C4F2000002F06AFD06999DF80F208854FFE79DF80F0001308DF80F00D1
:203BE000B5E745F20040C4F20000012102F08CFB00208DF81F00FFE79DF81F0008B010BD7E
:203C000080B58CB000200A9009900890079006900590049003908DF80B00712103AA1F234E
:203C2000019008460199FFF76FFE9DF80E1001F00F0145F21452C2F201021175117D8DF807
:203C40000B10117D01390A460429009200F279800099DFE801F05F48311A03009DF81F008D
:203C60009DF8201000F00F0041EA002045F21451C2F2010108829DF821009DF8222000F0DC
:203C80000F0042EA00204882FFE79DF81B009DF81C1000F00F0041EA002045F21451C2F20E
:203CA000010188819DF81D009DF81E2000F00F0042EA0020C881FFE79DF817009DF8181091
:203CC00000F00F0041EA002045F21451C2F2010108819DF819009DF81A2000F00F0042EA17
:203CE00000204881FFE79DF813009DF8141000F00F0041EA002045F21451C2F201018880F0
:203D00009DF815009DF8162000F00F0042EA0020C880FFE79DF80F009DF8101000F00F005D
:203D200041EA002045F21451C2F2010108809DF811009DF8122000F00F0042EA00204880DE
:203D400003E000208DF82F0004E09DF80B008DF82F00FFE79DF82F000CB080BD80B584B068
:203D600013468C4686468DF80E008DF80D108DF80C204FF440500290FFE745F20040C4F2EE
:203D800000004FF4003102F081FB002801D0FFE7F3E745F20040C4F20000012102F046FB06
:203DA000FFE745F20040C4F200000121C1F2000102F06CFB00280DD1FFE70298002804D03F
:203DC000FFE702980138029003E001208DF80F00B2E0E6E79DF80E1045F20040C4F20000C1
:203DE000002202F065FC4FF440500290FFE745F20040C4F200000221C1F2000102F046FBCC
:203E000000280DD1FFE70298002804D0FFE702980138029003E001208DF80F008CE0E6E704
:203E200045F21840C4F2000000884FF440510291FFE745F20040C4F200008021C1F20001E6
:203E400002F024FB00280DD1FFE70298002804D0FFE702980138029003E001208DF80F00EC
:203E60006AE0E6E79DF80D1045F20040C4F2000002F040FC4FF440500290FFE745F200405C
:203E8000C4F200008021C1F2000102F0FFFA00280DD1FFE70298002804D0FFE702980138F1
:203EA000029003E001208DF80F0045E0E6E79DF80C1045F20040C4F2000002F01BFC4FF4BC
:203EC00040500290FFE745F20040C4F200008021C1F2000102F0DAFA0121002801910ED0D8
:203EE000FFE745F20040C4F200000421C1F2000102F0CCFAB0FA80F040090190FFE70198AB
:203F0000C00700280DD0FFE70298002804D0FFE702980138029003E001208DF80F000BE08B
:203F2000D1E745F20040C4F20000012102F096FA00208DF80F00FFE79DF80F0004B080BDC9
:203F400080B58CB00246ADF82C000A91002009908DF823000790069043F6C801C2F20001F7
:203F600008230B6010234B604FF0400CC1F808C0C8604FF48060086108460592049305F09C
:203F80002BF80498FCF7F0FD8DF823009DF82300002805D0FFE79DF823008DF82F00E6E00D
:203FA00041F69420C2F200000068000443F6C801C2F2000108603720486040228A6000226A
:203FC000CA604FF480620A610390084605F004F80398FCF7C9FD8DF823009DF82300002879
:203FE00005D0FFE79DF823008DF82F00BFE043F6DC00C2F200004FF0FF3101600821416098
:020000040800F2
:20400000302181600221C1600021016101224261029104F0FFFE43F6C800C2F2000002990D
:2040200001603322426040238360C1604FF480630361019204F0D0FF0198FCF795FD8DF83E
:2040400023009DF82300002805D0FFE79DF823008DF82F008BE0FFE742F63440C4F2010082
:20406000006840F22A61084212D1FFE74FF4001004F014FF00280AD0FFE704F0A7FF09998A
:2040800006AA42F82100099801300990FFE7E3E7082004F003FF00280BD0FFE7082004F0D7
:2040A00089FE04208DF823009DF823008DF82F005DE0022004F0F2FE00280CD0FFE70220F2
:2040C000009004F077FE00988DF823009DF823108DF82F104BE0202004F0E0FE00280BD0DB
:2040E000FFE7202004F066FE06208DF823009DF823008DF82F003AE04FF4007004F0CEFE7B
:2041000000280CD0FFE74FF4007004F053FE07208DF823009DF823008DF82F0027E0FFE795
:20412000FFE7FFE740F2FF5004F044FE0698010600F47F4241EA022100F47F0241EA122181
:2041400041EA10600A9948600798010600F47F4241EA022100F47F0241EA122141EA106062
:204160000A9908609DF823008DF82F00FFE79DF82F000CB080BD000010B5A6B025902491A0
:204180002498037841788278B0F808C0C9074EF2FC7EC0F6030E47F67824C0F603040029B5
:2041A00018BF74464068604410F8010C694688604C60C1F800C04EF67921C0F6030104A80D
:2041C00027F01AFA249949680978DD2906D0FFE7249840680078DE2809D1FFE724984168FC
:2041E000007A03900846039903F048FBFFE7012026B010BD85B00490039100200290019048
:2042000000900290FFE702980F286ED8FFE70298012101FA00F0019003980068019908407C
:2042200000900098019988425AD1FFE702984000032101FA00F004990A6822EA0000086075
:204240000398007902994900884004990A681043086003980079012805D0FFE703980079C8
:20426000022828D1FFE702984000032101FA00F004998A6822EA00008860039840790299DA
:204280004900884004998A6810438860BDF80800012101FA00F004994A6822EA0000486076
:2042A00003988079BDF80810884080B204994A6810434860FFE7BDF808004000032101FA57
:2042C00000F00499CA6822EA0000C8600398C0790299490088400499CA681043C860FFE73B
:2042E000FFE70298013002908DE705B07047000080B584B013468C460390ADF80A108DF830
:2043000009200020019000909DF80900BDF80A1001F00701890088400190BDF80A0000F03C
:20432000070189000F2202FA01F1039A6FF0030E0EEA50001044026A22EA010101620398AC
:20434000BDF80A1047F6FC7202EA51010844006A01990843009000980399BDF80AE002EABB
:204360005E021144086204B080BD000082B00A460190ADF8021000208DF8010001980069BB
:20438000BDF80210084204D0FFE701208DF8010003E000208DF80100FFE79DF8010002B0F4
:2043A0007047000082B00A460190ADF80210BDF802000199488302B07047000082B00A4675
:2043C0000190ADF80210BDF802000199088302B07047000082B013468C460190ADF80210AB
:2043E0008DF801209DF80100002805D0FFE7BDF802000199088304E0BDF8020001994883C2
:20440000FFE702B07047000080B584B0FFF7F8FB012817DBFFE745F21450C2F201004188E1
:2044200043F61012C2F20002116000885060012050721072104602921BF018F90298016854
:2044400003910DE043F61010C2F20000012141720021017201911BF009F901980390FFE7B4
:20446000039804B080BD000080B584B0FFF7C8FB012817DBFFE745F21450C2F20100418874
:2044800043F61012C2F20002116000885060012050721072104602921BF0E8F802984168E5
:2044A00003910DE043F61010C2F20000012141720021017201911BF0D9F801980390FFE785
:2044C000039804B080BD000080B540F20000CDF260004FF4001119F011F880BD41F6902040
:2044E000C2F20000006870477047000044F6E450C2F201000068704780B50DF02BFF0DF097
:2045000017FF4EF25050C0F6030000F001F880BD80B584B0039013F09DFA0290FFE702981E
:20452000002801D1FFE7FFE7FFE70298012116F0B7F802980399502212F006F88DF807002A
:20454000FFE79DF90700002801D0FFE7FFE7FFE70298FF2113F0CEF90290FFE7029800286F
:2045600001D1FFE7FFE7FFE702980090009911F0E3FF029841F27101C0F6010111F030FFEA
:2045800004B080BD80B5ADF51A7D989097919692959300208DF853008DF852001390129008
:2045A00011900221ADF842108DF8570044F6B851C2F2010108609898002840F0BC87FFE752
:2045C000969800684EF6C111C0F60301FBF75FFE002840F08B80FFE7959800680078302878
:2045E0007BDBFFE7959800680078392875DCFFE7969840684EF62301C0F60301FBF747FEAB
:20460000002862D1FFE7959840680078302854DBFFE795984068007839284EDCFFE79598B4
:204620000068FBF767FE8DF8540095984068FBF761FE8DF855006846C821416046F23D71C4
:20464000C0F60001016044F61C60C2F20100032115AA022307F0BCFA44F6A051C2F2010141
:2046600064220A60FFE744F6A050C2F201000168013901600120FDF79DFCFFE744F6A050C3
:20468000C2F2010000680028EDDCFFE744F6A050C2F201000068002807D1FFE744F6B850B7
:2046A000C2F20100C521016006E044F6B850C2F20100B0210160FFE706E044F6B850C2F22D
:2046C0000100BF210160FFE706E044F6B850C2F20100C0210160FFE706E044F6B850C2F2D1
:2046E0000100BF210160FFE700F024BF969800684EF6D701C0F60301FBF7C9FD002840F043
:204700008B80FFE795980068007830287BDBFFE7959800680078392875DCFFE7969840688C
:204720004EF62301C0F60301FBF7B1FD002862D1FFE7959840680078302854DBFFE795988F
:204740004068007839284EDCFFE795980068FBF7D1FD8DF8540095984068FBF7CBFD8DF886
:2047600055006846C821416046F23D71C0F60001016044F61C60C2F20100042115AA02233A
:2047800007F026FA44F6A051C2F2010164220A60FFE744F6A050C2F2010001680139016068
:2047A0000120FDF707FCFFE744F6A050C2F2010000680028EDDCFFE744F6A050C2F20100FE
:2047C0000068002807D1FFE744F6B850C2F20100C521016006E044F6B850C2F20100B0219F
:2047E0000160FFE706E044F6B850C2F20100BF210160FFE706E044F6B850C2F20100C021B0
:204800000160FFE706E044F6B850C2F20100BF210160FFE700F08DBE969800684EF6060131
:20482000C0F60301FBF733FD002840F0C380FFE79598006800783028C0F2B380FFE79598BE
:2048400000680078392800F3AC80FFE7969840684EF2EB71C0F60301FBF719FD002840F086
:204860009880FFE79598406800783028C0F28980FFE7959840680078392800F38280FFE76B
:2048800095980068007830388DF8380044F6BC50C2F201000078002804D1FFE707208DF8E4
:2048A0003800FFE79598006801300EA98A1C02230D9111461A460C9306F0E2FA9598006837
:2048C00003300D9901310C9A06F0DAFA9598006805300D9903310C9A06F0D2FA959840687C
:2048E0000FA90B910C9A06F0CBFA9598406802300B9901310C9A06F0C3FA959840680430C4
:204900000B9902310C9A06F0BBFA01200A9003F017FA0A980B9904F041F844F6A051C2F25E
:20492000010108600A980D9A0991114603F09CFF09990A6810440860002003F001FA41F630
:204940009820C2F200000A9901704BF2D040C2F20000026842F48072026009980268002AAD
:2049600007D1FFE744F6B850C2F20100C621016006E044F6B850C2F20100B0210160FFE745
:2049800006E044F6B850C2F20100BF210160FFE706E044F6B850C2F20100C0210160FFE70E
:2049A00006E044F6B850C2F20100BF210160FFE700F0BEBD969800684EF27F71C0F6030108
:2049C000FBF765FC002840F02883FFE7969840684EF67511C0F60301FBF759FC002840F0A2
:2049E0001483FFE79598406800783028C0F20583FFE7959840680078392800F3FE82FFE76E
:204A000000208DF8540095984068FBF773FC8DF85500959800684EF69211C0F60301FBF765
:204A200036FC002804D1FFE7C0208DF854008BE2959800684EF60B01C0F60301FBF727FC87
:204A4000002807D1FFE744F6B850C2F20100CE21016078E2959800684EF68111C0F60301AA
:204A6000FBF715FC002804D1FFE7BA208DF8540068E2959800684EF67B01C0F60301FBF752
:204A800006FC002804D1FFE7B9208DF8540058E2959800684EF61401C0F60301FBF7F7FBB9
:204AA000002804D1FFE7A1208DF8540048E2959800684EF2F071C0F60301FBF7E8FB002862
:204AC00004D1FFE7AC208DF8540038E2959800684EF66B01C0F60301FBF7D9FB002804D19A
:204AE000FFE7DD208DF8540028E2959800684EF67301C0F60301FBF7CAFB002804D1FFE74F
:204B0000DC208DF8540018E2959800684EF6CE01C0F60301FBF7BBFB002804D1FFE7B42005
:204B20008DF8540008E2959800684EF64B01C0F60301FBF7ACFB002804D1FFE7DE208DF8D4
:204B40005400F8E1959800684EF2AE71C0F60301FBF79DFB002804D1FFE7B5208DF854005F
:204B6000E8E1959800684EF2A171C0F60301FBF78EFB002804D1FFE7B6208DF85400D8E105
:204B8000959800684EF6C111C0F60301FBF75CFB002848D0FFE7AD208DF854009598006806
:204BA0004EF6C111C0F60301FBF74EFB0630FBF7A1FB8DF856000420ADF8420095980068AB
:204BC0004EF69401C0F60301FBF73EFB002804D0FFE7AE208DF857001FE0959800684EF2B7
:204BE0007B71C0F60301FBF72FFB002804D0FFE7AF208DF857000FE0959800684EF6A711E6
:204C0000C0F60301FBF720FB002804D0FFE7B0208DF85700FFE7FFE7FFE7BDF84200013065
:204C2000ADF8420084E1959800684EF67011C0F60301FBF709FB00284BD0FFE7B1208DF89F
:204C400054000320ADF84200959800684EF66411C0F60301FBF7F8FA002804D0FFE7B22056
:204C60008DF8560034E0959800684EF6C701C0F60301FBF7E9FA002829D0FFE7FE208DF86B
:204C80005600959800684EF66D11C0F60301FBF7DBFA0830FBF72EFBBDF842104A1CADF881
:204CA000422015AA5054959800684EF62301C0F603010892FBF7C8FA0630FBF71BFBBDF837
:204CC00042104A1CADF84220089A5054FFE7FFE72DE1959800684EF67D11C0F60301FBF7E2
:204CE000D6FA00280AD1FFE7B7208DF8540000208DF856000320ADF8420017E195980068B9
:204D00004EF6AB11C0F60301FBF7C1FA002804D1FFE7B8208DF8540007E1959800684EF6D7
:204D2000B611C0F60301FBF78FFA00280ED0FFE7BE208DF85400959800681130FBF7DAFA38
:204D40008DF856000320ADF84200EDE0959800684EF6B101C0F60301FBF799FA002804D1DA
:204D6000FFE7C2208DF85400DDE0959800684EF6BC01C0F60301FBF767FA00280ED0FFE746
:204D8000C3208DF85400959800681130FBF7B2FA8DF856000320ADF84200C3E095980068C6
:204DA0004EF2C171C0F60301FBF74EFA00280ED0FFE7C4208DF85400959800681330FBF71A
:204DC00099FA8DF856000320ADF84200A9E0959800684EF29271C0F60301FBF735FA0028F7
:204DE0000ED0FFE7C5208DF85400959800680F30FBF780FA8DF856000320ADF842008FE09D
:204E0000959800684EF28371C0F60301FBF71CFA00280ED0FFE7C6208DF8540095980068C7
:204E20000F30FBF767FA8DF856000320ADF8420075E0959800684EF2D471C0F60301FBF7E0
:204E400003FA002804D0FFE7C7208DF8540065E0959800684EF62901C0F60301FBF7F4F9D2
:204E6000002804D0FFE7C6208DF8540055E0959800684EF25971C0F60301FBF7E5F900280B
:204E800004D0FFE7C6208DF8540045E0959800684EF6C621C0F60301FBF7D6F9002813D02E
:204EA000FFE7CA208DF8540095988068FBF722FA8DF856009598C068FBF71CFA8DF8570012
:204EC0000420ADF8420026E0959800684EF65501C0F60301FBF7B8F9002814D0FFE7959816
:204EE0004068FBF707FA9599896807900846FBF701FA07998AB2C1B2002006901046069A2B
:204F000002F004FE06E044F6B850C2F20100BF210160FFE7FFE7FFE7FFE7FFE7FFE7FFE735
:204F2000FFE7FFE7FFE7FFE7FFE7FFE7FFE7FFE7FFE7FFE7FFE7FFE7FFE7FFE7FFE7FFE711
:204F4000FFE7FFE7FFE7FFE79DF85400002843D0FFE7BDF842306846C821416046F23D716A
:204F6000C0F60001016044F61C60C2F20100172115AA06F02DFE44F6A051C2F2010164222F
:204F80000A60FFE744F6A050C2F201000168013901600120FDF70EF8FFE744F6A050C2F2FF
:204FA000010000680028EDDCFFE744F6A050C2F201000068002807D1FFE744F6B850C2F28E
:204FC0000100C521016006E044F6B850C2F20100B0210160FFE70FE044F6B850C2F20100AE
:204FE0000068CE2807D0FFE744F6B850C2F20100BF210160FFE7FFE706E044F6B850C2F2B6
:205000000100BF210160FFE706E044F6B850C2F20100C0210160FFE789E2969800684EF61E
:205020008911C0F60301FBF732F9002840F08D80FFE795980068007830287EDBFFE79598E3
:2050400000680078392878DCFFE7969840684EF67511C0F60301FBF71AF9002865D1FFE732
:20506000959840680078302857DBFFE7959840680078392851DCFFE7D6208DF854009598B6
:205080004068FBF737F98DF8550095980068FBF731F98DF856006846C821416046F23D71C2
:2050A000C0F60001016044F61C60C2F20100062115AA032306F08CFD44F6A051C2F2010101
:2050C00064220A60FFE744F6A050C2F201000168013901600120FCF76DFFFFE744F6A05087
:2050E000C2F2010000680028EDDCFFE744F6A050C2F201000068002807D1FFE744F6B8504D
:20510000C2F20100C521016006E044F6B850C2F20100B0210160FFE706E044F6B850C2F2C2
:205120000100BF210160FFE706E044F6B850C2F20100C0210160FFE706E044F6B850C2F266
:205140000100BF210160FFE7F0E1969800684EF2E671C0F60301FBF79AF8002840F0E5812D
:20516000FFE74BF2E060C2F200004EF2DD51C0F6030100220AF0F6FB002840F0EB80FFE73A
:205180004BF27040C2F200004EF2DB51C0F603010AF0F4FD002840F0D580FFE79598016834
:2051A0004BF63C30C2F2000001220AF02FFC002840F0C080FFE7969840684EF61D01C0F6DA
:2051C0000301FBF764F8002822D1FFE7969880684EF67511C0F60301FBF759F800280FD197
:2051E000FFE7959840680021059105F0FBFE129095988068059905F0F5FE8DF8520006E055
:2052000044F6B850C2F20100C0210160FFE766E0959800684EF69901C0F60301FBF737F8DB
:2052200000280BD0FFE7959800684EF6A001C0F60301FBF72CF800281FD1FFE79698406867
:205240004EF67511C0F60301FBF721F800280CD1FFE70020C9F2F000129095984068002171
:2052600005F0C0FE8DF8520006E044F6B850C2F20100C0210160FFE730E0959800684EF6B6
:20528000A901C0F60301FBF702F800281ED1FFE7969840684EF67511C0F60301FAF7F7FF80
:2052A00000280BD1FFE74FF01040129095984068002105F097FE8DF8520006E044F6B85054
:2052C000C2F20100C0210160FFE706E044F6B850C2F20100BF210160FFE7FFE7FFE7129877
:2052E000B0F1006F1ED9FFE79DF84B00902819D8FFE79DF8520001280CDBFFE79DF852008E
:20530000FE2807DCFFE744F6B850C2F20100B021016006E044F6B850C2F20100C121016055
:20532000FFE706E044F6B850C2F20100BE210160FFE706E044F6B850C2F20100B321016072
:20534000FFE706E044F6B850C2F20100B2210160FFE706E044F6B850C2F20100B121016060
:20536000FFE744F6B850C2F201000068B02840F0CB80FFE79DF84B008DF85400BDF84A00F7
:205380008DF855001298000A8DF8560012988DF857004BF63C30C2F20000C17B8DF8581094
:2053A000C1898DF85910C168090A8DF85A10C1688DF85B109DF852108DF85C1002218DF8E1
:2053C0005D10C068119001200491FCF7FBF81320FBF7B6FE684647F23051416046F23D7133
:2053E000C0F60001016044F61C60C2F2010015AA0A23049906F0ECFB44F6A051C2F20101E3
:2054000047F248120A60FFE744F6A050C2F20100016801390160012904DBFFE70120FCF7C3
:20542000C9FDF1E7FFE71198002869D0FFE74BF63C30C2F2000015A94FF4007213AB0390D3
:205440000AF00CFD1399119A511A1191119964225143039AD368B1FBF3F1C1F164018DF81D
:2054600053109DF85310022905DBFFE79DF85300FCF7A8F8FFE7BDF84C306846C821416016
:2054800046F23D71C0F60001016044F61C60C2F20100022115AA06F09BFB44F6A051C2F256
:2054A000010164220A60FFE744F6A050C2F201000168013901600120FCF77CFDFFE744F684
:2054C000A050C2F2010000680028EDDCFFE744F6A050C2F201000068002810D1FFE744F678
:2054E000B850C2F20100C42101600020FCF76AF840F29C50C2F200000068999031E092E747
:205500000020FCF75FF809E04EF2DD51C0F6030100200290029A0AF025FAFFE740F29C50A5
:20552000C2F20000006899901BE0FFE7FFE7FFE7FFE7FFE7FFE744F6B850C2F20100006868
:20554000002807D0FFE740F29C50C2F200000068999006E040F29850C2F2000000689990BE
:20556000FFE799980DF51A7D80BD00002DE9F04796B01590149113921598002840F0118422
:20558000FFE744F6B850C2F201000068B12809D1FFE714984EF61111C0F60301FAF792FEE0
:2055A00000F0F7BB44F6B850C2F201000068B22809D1FFE714984EF63F11C0F60301FAF765
:2055C00081FE00F0E5BB44F6B850C2F201000068B32808D1FFE714984EF6F501C0F6030123
:2055E000FAF770FED3E344F6B850C2F201000068B02840F01782FFE744F6AD50C2F20100C4
:205600000078AC3801461B280B9100F2FC810B99DFE811F01C00C900F901F901F901F60064
:20562000F901F901F90159007C005001A601F901F901F901F901F901F901F901F901F901E5
:20564000C901F901F901F901F901EC0144F6AD50C2F201004078092808DCFFE744F6AD50D5
:20566000C2F2010080780A2810DBFFE744F6AD50C2F2010040780A2816DBFFE744F6AD5096
:20568000C2F2010040780A280EDBFFE7149844F6AD51C2F201014A788B784EF69E21C0F684
:2056A000030125F0A9FF0DE0149844F6AD51C2F201014A788B784EF69E21C0F6030125F00B
:2056C0009BFFFFE7A7E144F6AD50C2F20100407809280DDCFFE7149844F6AD51C2F2010184
:2056E0004A784EF61121C0F6030125F085FF0CE0149844F6AD51C2F201014A784EF6CB11B7
:20570000C0F6030125F078FFFFE784E144F6AD50C2F201004078092808DCFFE744F6AD5022
:20572000C2F2010080780A2820DBFFE744F6AD50C2F2010040780A2826DBFFE744F6AD50B5
:20574000C2F20100407863281EDCFFE744F6AD50C2F2010080780A2816DBFFE744F6AD504D
:20576000C2F20100807863280EDCFFE7149844F6AD51C2F201014A788B784EF6F811C0F6BF
:20578000030125F039FF0DE0149844F6AD51C2F201014A788B784EF6DE11C0F6030125F06A
:2057A0002BFFFFE737E144F6B450C2F201000088042816DBFFE7149844F6AD51C2F20101A9
:2057C0004A788B7891F803C00979EE46CEF80410CEF800C04EF65D21C0F6030125F00CFF06
:2057E0000DE0149844F6AD51C2F201014A788B784EF66E21C0F6030125F0FEFEFFE70AE1EE
:2058000044F6AD50C2F2010040780146B2280A9104D0FFE70A98FE2843D04AE000201190A8
:2058200010900120ADF83E00FFE7BDF83E00082816DCFFE744F6AD50C2F20100817801F00D
:205840000101BDF83E2010AB9A1A1172817849088170FFE7BDF83E000130ADF83E00E4E74E
:2058600014989DF840209DF841309DF842109DF843C09DF844E09DF845409DF846509DF86F
:2058800047606F467E613D61FC60C7F808E0C7F804C039604EF6A921C0F6030125F0ACFE89
:2058A00007E014984EF23E71C0F6030125F0A4FEFFE7B0E000200E900D900120ADF832002C
:2058C000FFE7BDF83200082816DCFFE744F6AD50C2F20100417801F00101BDF832200DAB9C
:2058E0009A1A1172417849084170FFE7BDF832000130ADF83200E4E714989DF834209DF8EC
:2059000035309DF836109DF837C09DF838E09DF839409DF83A509DF83B6044F6AD57C2F2BF
:20592000010797F8028097F803903F79EA46CAF82070CAF81C90CAF81880CAF81460CAF832
:205940001050CAF80C40CAF808E0CAF804C0CAF800104EF62321C0F6030125F04DFE5AE0FB
:2059600044F6AD50C2F20100407809280DDCFFE7149844F6AD51C2F201014A784EF6C7110B
:20598000C0F6030125F038FE0CE0149844F6AD51C2F201014A784EF6C321C0F6030125F0C3
:2059A0002BFEFFE737E044F6AD50C2F20100407809280DDCFFE7149844F6AD51C2F2010183
:2059C0004A784EF6C711C0F6030125F015FE0CE0149844F6AD51C2F201014A784EF6C32197
:2059E000C0F6030125F008FEFFE714E0149844F6AD51C2F201014A784EF6C711C0F60301C6
:205A000025F0FAFD07E014984EF68401C0F60301FAF758FCFFE744F6B450C2F20100002125
:205A20000180B3E144F6B850C2F201000068BE2808D1FFE714984EF63111C0F60301FAF770
:205A400041FCA2E144F6B850C2F201000068BF2808D1FFE714984EF60011C0F60301FAF7D5
:205A600031FC91E144F6B850C2F201000068C02808D1FFE714984EF61D11C0F60301FAF7B8
:205A800021FC80E144F6B850C2F201000068C12808D1FFE714984EF6DE01C0F60301FAF707
:205AA00011FC6FE144F6B850C2F201000068C42808D1FFE714984EF64F11C0F60301FAF784
:205AC00001FC5EE144F6B850C2F201000068C52808D1FFE714984EF69A11C0F60301FAF739
:205AE000F1FB4DE144F6B850C2F201000068C62808D1FFE714984EF68701C0F60301FAF75D
:205B0000E1FB3CE144F6B850C2F201000068CE2840F03481FFE70020C4F202001021FEF76E
:205B200025FC012808D1FFE714984EF25771C0F60301FAF7C7FB11E00020C4F20200102141
:205B4000FEF714FC002808D1FFE714984EF25571C0F60301FAF7B6FBFFE7FFE70020C4F2A9
:205B600002002021FEF702FC012809D1FFE7149801304EF25771C0F60301FAF7A3FB12E0E6
:205B80000020C4F202002021FEF7F0FB002809D1FFE7149801304EF25571C0F60301FAF796
:205BA00091FBFFE7FFE741F20000C4F202000421FEF7DCFB012809D1FFE7149802304EF2AA
:205BC0005771C0F60301FAF77DFB13E041F20000C4F202000421FEF7C9FB002809D1FFE736
:205BE000149802304EF25571C0F60301FAF76AFBFFE7FFE741F20000C4F202000821FEF7DC
:205C0000B5FB012809D1FFE7149803304EF25771C0F60301FAF756FB13E041F20000C4F22C
:205C200002000821FEF7A2FB002809D1FFE7149803304EF25571C0F60301FAF743FBFFE70B
:205C4000FFE741F20000C4F202001021FEF78EFB012809D1FFE7149804304EF25771C0F63D
:205C60000301FAF72FFB13E041F20000C4F202001021FEF77BFB002809D1FFE714980430C3
:205C80004EF25571C0F60301FAF71CFBFFE7FFE741F20000C4F202002021FEF767FB0128C4
:205CA00009D1FFE7149805304EF25771C0F60301FAF708FB13E041F20000C4F2020020216E
:205CC000FEF754FB002809D1FFE7149805304EF25571C0F60301FAF7F5FAFFE7FFE741F218
:205CE0000000C4F202004021FEF740FB012809D1FFE7149806304EF25771C0F60301FAF7DD
:205D0000E1FA13E041F20000C4F202004021FEF72DFB002809D1FFE7149806304EF255717C
:205D2000C0F60301FAF7CEFAFFE7FFE740F60040C4F202004021FEF719FB012809D1FFE7A3
:205D4000149807304EF25771C0F60301FAF7BAFA13E040F60040C4F202004021FEF706FB81
:205D6000002809D1FFE7149807304EF25571C0F60301FAF7A7FAFFE7FFE7FFE7FFE7FFE788
:205D8000FFE7FFE7FFE7FFE7FFE7FFE7FFE7FFE7FFE744F6B850C2F201000078FBF7D0F9C3
:205DA000FFE71498FAF76CFA12901298002803D1FFE713981290FFE7BDF8480016B0BDE831
:205DC000F087000080B5AE209921FDF7D5FB80BD86B0134605900491ADF80E200020029050
:205DE000FFE7BDF80E0000283FD0FFE70298002816D1FFE7049800780009019001980A28D5
:205E000005D3FFE7019837300599087004E00198303005990870FFE702980130029018E080
:205E20000498007800F00F00009000980A2805D3FFE7009837300599087004E00098303046
:205E400005990870FFE700200290049801300490FFE7059801300590059800210170BDF806
:205E60000E000138ADF80E00BBE706B07047000080B586B00020ADF80C004BF6FF71ADF887
:205E80000E10ADF810004FF48060ADF812004FF48040ADF8140041F68020C0F20600029078
:205EA00045F60000C4F200000121019000F044FA02A9019800F01CFB06B080BD80B588B065
:205EC0004FF4800001210590049102F029F840F2C440C2F20000816803900846049901F05E
:205EE000BFFF03988069049901F0BAFF0598049902F036F80020059902900846029902F094
:205F00002FF8039800680399097B04220192FEF7EFF9039800690399097F019AFEF7E8F908
:205F200002208DF81C008DF81D0004988DF81E0002998DF81F10039A93880693106806ABF4
:205F400019460093FEF756F90398818A069100690099FEF74FF9FFF78BFF08B080BD00001A
:205F600010B588B09C468E4604468DF81E00ADF81C100692ADF816304FF440500490BDF811
:205F80001600002804D1FFE701208DF81F00B6E1BDF81600B0F5007F04D9FFE701208DF854
:205FA0001F00ACE1FFE7BDF81C008DF80F009DF81D008DF80E0045F60000C4F20000012192
:205FC00000F034FA4FF440500490FFE745F60000C4F200000121C1F2000100F057FA002826
:205FE0000FD1FFE70498002804D0FFE704980138049005E0012000F0F7F98DF81F007EE10B
:020000040800F2
:20600000E4E7BDF81600012808D1FFE745F60000C4F20000002100F077F907E045F600006E
:20602000C4F20000012100F06FF9FFE79DF81E1045F60000C4F20000002200F039FB4FF40D
:2060400040500490FFE745F60000C4F200000221C1F2000100F01AFA00280FD1FFE70498E0
:20606000002804D0FFE704980138049005E0012000F0BAF98DF81F0041E1E4E745F6180048
:20608000C4F2000000884FF440510491FFE745F60000C4F200008021C1F2000100F0F6F94E
:2060A00000280FD1FFE70498002804D0FFE704980138049005E0012000F096F98DF81F00E2
:2060C0001DE1E4E79DF80E1045F60000C4F2000000F010FB4FF440500490FFE745F60000D0
:2060E000C4F200008021C1F2000100F0CFF90121002802910ED0FFE745F60000C4F200004B
:206100000421C1F2000100F0C1F9B0FA80F040090290FFE70298C00700280FD0FFE7049837
:20612000002804D0FFE704980138049005E0012000F05AF98DF81F00E1E0CFE79DF80F10FC
:2061400045F60000C4F2000000F0D4FA4FF440500490FFE745F60000C4F200008021C1F2FE
:20616000000100F093F90121002801910ED0FFE745F60000C4F200000421C1F2000100F048
:2061800085F9B0FA80F040090190FFE70198C00700280FD0FFE70498002804D0FFE7049840
:2061A0000138049005E0012000F01EF98DF81F00A5E0CFE745F60000C4F20000012100F023
:2061C00035F94FF440500490FFE745F60000C4F200000121C1F2000100F058F900280FD134
:2061E000FFE70498002804D0FFE704980138049005E0012000F0F8F88DF81F007FE0E4E71E
:206200009DF81E1045F60000C4F20000012200F04FFA4FF440500490FFE745F60000C4F230
:2062200000000221C1F2000100F030F900280FD1FFE70498002804D0FFE704980138049099
:2062400005E0012000F0D0F88DF81F0057E0E4E745F61800C4F200000088FFE7BDF8160098
:20626000002841D0FFE7BDF8160001280DD1FFE745F60000C4F200000021009000F044F879
:206280000121009800F0EAF8FFE74FF440500490FFE745F60000C4F200004021C1F2000139
:2062A00000F0F4F800280FD1FFE70498002804D0FFE704980138049005E0012000F094F8AB
:2062C0008DF81F001BE0E4E745F60000C4F2000000F0E6F906994A1C06920870BDF81600B4
:2062E0000138ADF81600B9E745F60000C4F20000012100F009F800208DF81F00FFE79DF8C7
:206300001F0008B010BD000082B00A4601908DF803109DF80300002806D0FFE70198018890
:2063200041F48061018005E00198018821F480610180FFE702B0704782B00A4601908DF861
:2063400003109DF80300002806D0FFE70198018841F00101018005E00198018821F00101BE
:206360000180FFE702B0704780B584B00390039845F20041C4F2000188420BD1FFE74FF4B8
:2063800000100121029001F0EBFD0021029801F0E7FD27E0039845F60001C4F20001884271
:2063A0000BD1FFE74FF480000121019001F0D8FD0021019801F0D4FD13E0039845F6004159
:2063C000C4F2000188420BD1FFE74FF400000121009001F0C5FD0021009801F0C1FDFFE784
:2063E000FFE7FFE704B080BD80B584B001468DF80F0045F60000C4F2000001220290019164
:206400001146009200F02AF80298009900F07EF90021029800F07AF90298FFF7A5FFFFF79F
:2064200027FD9DF80F0004B080BD000082B00A4601908DF803109DF80300002806D0FFE77C
:206440000198018841F48071018005E00198018821F480710180FFE702B0704782B00A4614
:2064600001908DF803109DF80300002806D0FFE70198018841F40071018005E00198018827
:2064800021F400710180FFE702B0704785B00490039100208DF80B0001900090049800904C
:2064A0000398000F0190039820F07F4003900198002804D0FFE700981430009006E0BDF822
:2064C0000E000390009818300090FFE7009800680399084204D0FFE701208DF80B0003E091
:2064E00000208DF80B00FFE79DF80B0005B0704780B58AB0099008910020ADF81E00ADF8D1
:206500001C000421ADF81A1041F20021C0F27A01059109998988ADF81E10BDF81E1021F0DA
:206520003F01ADF81E1001A90090084601F090FD0398059005984DF68361C4F21B31A0FBB1
:206540000101890CADF81C10BDF81C10BDF81E201143ADF81E10BDF81E10099A918009999F
:206560000A8822F001020A800099ADF81E10089A126848F2A063C0F201039A421ED8FFE7B7
:206580000598089909684900B0FBF1F0ADF81A00BDF81A00032804DCFFE70420ADF81A0015
:2065A000FFE7BDF81A00BDF81E100843ADF81E00BDF81C0001300999088447E00898C088F6
:2065C0004BF6FF7188420AD1FFE705980899096801EB4101B0FBF1F0ADF81A000FE00598CB
:2065E0000899096819225143B0FBF1F0ADF81A00BDF81A0040F48040ADF81A00FFE7BDF852
:206600001A000005002807D1FFE7BDF81A0040F00100ADF81A00FFE7BDF81A00BDF81E101E
:20662000084340F40040ADF81E00BDF81C004FF49671484344F6D351C1F26201A0FB010121
:20664000012202EB9111099A1184FFE7BDF81E00099988830998018841F00101018009986B
:206660000088ADF81E00BDF81E004FF6F5310840ADF81E000898818840890843BDF81E10E6
:206680000843ADF81E00BDF81E00099908800898818900890843099908810AB080BD00004F
:2066A00081B000900098008AC0B201B07047000082B013468C4601908DF803108DF80220F0
:2066C0009DF80200002807D0FFE79DF8030040F001008DF8030006E09DF8030000F0FE0081
:2066E0008DF80300FFE79DF803000199088202B07047000082B00A4601908DF803109DF8C7
:2067000003000199088202B07047000082B00A4601908DF803109DF80300002806D0FFE7C2
:206720000198018841F40041018005E0019801886FF3DF310180FFE702B0704783B0029032
:2067400001910198008944F6B451C2F2010108800020ADF80200FFE7BDF902000199098977
:20676000884211DAFFE701984068BDF90210405C44F6AD52C2F201025054FFE7BDF80200A8
:206780000130ADF80200E7E744F6A050C2F201004FF0FF310160032003B0704780B588B0AA
:2067A00001200290029901F05BFB4FF48040029901F0F6FB4FF4A06001F0B4FA00208DF83D
:2067C0001C008DF81F00029906910022C4F2020206A901901046FDF70DFD0198019904F030
:2067E00057FA0298049001998DF8141008228DF815208DF8160004A8FCF744FE06208DF8CC
:206800000C0001988DF80D0003218DF80E1002998DF80F1003A801F01BFA08B080BD000095
:2068200080B594B040F2E3100121119101F018FB02208DF84C008DF84D0000218DF84E1029
:206840008DF84F1040F20042C4F20202092310901046DDF844C00F9161460E921A460D9344
:20686000FDF746FD1098129012A90E980C91FDF7C1FC0E200E990B9008460F990B9AFDF7E9
:2068800037FD119812900E980C99FDF7B3FC0020C4F2020003210A900B9AFDF729FD0C200A
:2068A0000A990990084609990B9AFDF721FD0B200A990890084608990B9AFDF719FD41F6BA
:2068C000080012900A980C99FDF794FC41F20040C4F202000A21079006910B9AFDF708FD21
:2068E0004FF48060129007980C99FDF783FC41F60000C4F202000621059004910B9AFDF743
:20690000F7FC072005990390084603990B9AFDF7EFFC059806990B9AFDF7EAFC05980899C5
