:020000040801F1
:200000000CD0FFE7FCF7D4FA0399401A032804D3FFE703208DF81700E5E1E7E7FFE7FFE760
:20002000FFE7049800780007002850D5FFE704984069002825D0FFE743F67400C4F20200DF
:20004000016841F001010160FCF7B2FA0390FFE743F67400C4F20200006800F002000021AB
:20006000B1EB500F0CD1FFE7FCF7A2FA0399401A032804D3FFE703208DF81700B3E1E7E734
:2000800024E043F67400C4F20200016821F001010160FCF78DFA0390FFE743F67400C4F2C4
:2000A0000200006800F002000021B1EB500F0CD0FFE7FCF77DFA0399401A032804D3FFE7BE
:2000C00003208DF817008EE1E7E7FFE7FFE7049800784007002840F1DD80FFE743F64000E8
:2000E000C4F202000068C000002813D4FFE7FFE743F64000C4F20200016841F08051016048
:20010000006800F0805001900198FFE701208DF80B00FFE747F20000C4F200000068C005F4
:20012000002822D4FFE747F20000C4F20000016841F480710160FCF73BFA0390FFE747F202
:200140000000C4F200000068C00500280CD4FFE7FCF72EFA0399401A652804D3FFE7032050
:200160008DF817003FE1EAE7FFE7FFE704988068012809D1FFE743F67000C4F202000168EF
:2001800041F00101016032E00498806800280DD1FFE743F67000C4F20200016821F001016C
:2001A0000160016821F0040101601FE00498806805280DD1FFE743F67000C4F202000168C0
:2001C00041F004010160016841F0010101600CE043F67000C4F20200016821F00101016061
:2001E000016821F004010160FFE7FFE7FFE7FFE70498806800281FD0FFE7FCF7D9F90390AE
:20020000FFE743F67000C4F20200006800F002000021B1EB500F0ED1FFE7FCF7C9F903990B
:20022000401A41F28931884204D3FFE703208DF81700D8E0E5E71EE0FCF7BAF90390FFE790
:2002400043F67000C4F20200006800F002000021B1EB500F0ED0FFE7FCF7AAF90399401A77
:2002600041F28931884204D3FFE703208DF81700B9E0E5E7FFE79DF80B00012809D1FFE777
:2002800043F64000C4F20200016821F080510160FFE7FFE704988069002800F0A080FFE712
:2002A00043F60800C4F20200006800F00C00082800F09080FFE704988069022864D1FFE701
:2002C00043F60000C4F20200016821F080710160FCF76EF90390FFE743F60000C4F202009D
:2002E000006800F000700021B1EB506F0CD0FFE7FCF75EF90399401A032804D3FFE70320AD
:200300008DF817006FE0E7E70498C169026A436AD0F828C0114341EA83114FEACC324FF606
:20032000FF739A43A2F580321143C06A41EA006040F0005043F60401C4F20201086043F604
:200340000000C4F20200016841F080710160FCF72FF90390FFE743F60000C4F2020000680C
:2003600000F000700021B1EB506F0CD1FFE7FCF71FF90399401A032804D3FFE703208DF84D
:20038000170030E0E7E724E043F60000C4F20200016821F080710160FCF70AF90390FFE738
:2003A00043F60000C4F20200006800F000700021B1EB506F0CD0FFE7FCF7FAF80399401A6B
:2003C000032804D3FFE703208DF817000BE0E7E7FFE703E001208DF8170004E0FFE700204D
:2003E0008DF81700FFE79DF8170006B080BD000080B586B004900391029201930020009071
:200400000498002804D1FFE701208DF8170058E0049890F86900002808D1FFE70498002137
:2004200080F86810049800F0CFFFFFE70498242180F8691004980068016821F001010160D9
:20044000049809F04DFC012804D1FFE701208DF8170036E00498406A002804D0FFE7049843
:2004600009F0B6FAFFE704980068816841F48041816004980068806820F400400399084302
:200480000499096888600298400500900198009941EA004000900498006800686FF31940A3
:2004A0000099084304990968086004980068016841F001010160049809F032FB8DF8170083
:2004C000FFE79DF8170006B080BD00000000000083B002900191002000900298006850300E
:2004E00000900198009901EB800000900098006803B070470000000084B0039002910192E7
:200500000020009003980068503000900298009901EB8000009001980099086004B07047E4
:2005200080B584B0029000200190029802214177FFE702980068CA214162029800685321AE
:200540004162FFE7029806F00FFC00280DD0FFE7FFE702980068FF214162FFE7029804213C
:20056000417701208DF80F008AE002980068002101600298006842F2011141600298006835
:20058000816801F007018160FCF712F80190FFE702980068C0684007002815D4FFE7FCF7C9
:2005A00007F80199401AB0F57A7F0CD9FFE7FFE702980068FF214162FFE7029803214177D8
:2005C0008DF80F105CE0E3E702980068816800228260029800684FF6FF7343610298006823
:2005E000FF23C0F27F03036102980068C26102980068026202980068C26202980068C26369
:2006000002980068426402980068826402980068C26002980068026402980068C2640298FC
:20062000006880688006002814D4FFE7029800F0EBFA00280DD0FFE7FFE702980068FF218C
:200640004162FFE702980421417701208DF80F0016E0FFE7FFE7FFE702980068FF21416278
:20066000FFE7029800F014F9029800214177FFE7029800210177FFE700208DF80F00FFE7F1
:200680009DF80F0004B080BD80B584B0039002910192002000900398006840684FF63F7153
:2006A000C0F2FF0108400090BDF802000299C8700098C0F3042002994870009800F03F009D
:2006C00002998870BDF80000400B029908700198002813D1FFE70298C07806F00DFB02997E
:2006E000C8700298407806F007FB029948700298807806F001FB02998870FFE7002004B054
:2007000080BD00000000000080B584B00390029101920020009003980068806A029948609A
:200720000398006800696FF3DF300299886003980068006847F67F71C0F27F0108400090B7
:200740000098C0F30540029908700098C0F3062002994870009800F07F0002998870009800
:2007600000F48000000C029908730198002813D1FFE70298007806F0BFFA029908700298EA
:20078000407806F0B9FA029948700298807806F0B3FA02998870FFE7002004B080BD0000E6
:2007A00080B582B000900098002804D1FFE701208DF8070068E00098407F002807D1FFE795
:2007C000009800210177009800F06EF8FFE7009802214177FFE700980068CA214162009895
:2007E000006853214162FFE7009806F0BDFA00280DD0FFE7FFE700980068FF214162FFE7D5
:2008000000980421417701208DF807003CE00098006881684FF6BF72CFF68F721140816043
:20082000009801684268036940691A4310438A681043886000980168C06808610098016888
:2008400080680A6942EA0040086100980068C16821F08001C16000980068C16C21F0080145
:20086000C164009801688069CA6C1043C864FFE700980068FF214162FFE7009801214177B3
:2008800000208DF80700FFE79DF8070002B080BD81B0009043F67000C4F20200016821F49B
:2008A0000041016001B0704781B0009043F67000C4F20200016841F40041016001B0704764
:2008C00080B588B006900591049200200390FFE70698007F012804D1FFE702208DF81F0089
:2008E000B2E0069801210177FFE7FFE7069802214177049800280DD1FFE705984078C00646
:20090000002807D5FFE70598417801F0EF010A314170FFE7049800281CD1FFE70598C07878
:2009200006F002FA0004059949780290084606F0FBF9029941EA0020059989780190084634
:2009400006F0F2F9019908440599097840EA4130039016E00598407806F0CEF9039005984B
:20096000807806F0C9F903900598017842788378C078000440EA0220184440EA4130039057
:20098000FFE7FFE706980068CA2141620698006853214162FFE7069806F0E6F9002812D077
:2009A000FFE7FFE706980068FF214162FFE7069804214177FFE7069800210177FFE701201D
:2009C0008DF81F0040E003984FF63F71C0F2FF01084006990968486006980068C16821F0D1
:2009E0008001C1600698006880688006002819D4FFE7069800F008F9002812D0FFE7FFE781
:200A000006980068FF214162FFE7069804214177FFE7069800210177FFE701208DF81F00E4
:200A200012E0FFE7FFE706980068FF214162FFE7069801214177FFE7069800210177FFE7CE
:200A400000208DF81F00FFE79DF81F0008B080BD80B588B006900591049200200390FFE77B
:200A60000698007F012804D1FFE702208DF81F00C3E0069801210177FFE7FFE70698022147
:200A800041770498002828D1FFE70698006880684006002801D5FFE703E0059800210173CE
:200AA000FFE70598007806F03FF90004059949780290084606F038F9029941EA002005991F
:200AC00089780190084606F02FF9019908440599097B40EA014003901DE006980068806827
:200AE0004006002806D5FFE70598007806F004F9039003E0059800210173FFE7059801781B
:200B000042788378007B090441EA0221194441EA00400390FFE7FFE706980068CA2141628F
:200B20000698006853214162FFE7069806F01CF9002812D0FFE7FFE706980068FF2141626A
:200B4000FFE7069804214177FFE7069800210177FFE701208DF81F004FE0039847F67F7175
:200B6000C0F27F01084006990968086006980068816821F480218160059801694069084302
:200B8000069909688A681043886006980068C16821F08001C160069800688068800600289A
:200BA00019D4FFE7069800F02FF8002812D0FFE7FFE706980068FF214162FFE70698042165
:200BC0004177FFE7069800210177FFE701208DF81F0012E0FFE7FFE706980068FF2141620E
:200BE000FFE7069801214177FFE7069800210177FFE700208DF81F00FFE79DF81F0008B07E
:200C000080BD00000000000080B584B002900020019002980068C16821F0A001C160FBF7FB
:200C2000C7FC0190FFE702980068C068800600280DD4FFE7FBF7BCFC0199401AB0F57A7F9F
:200C400004D9FFE703208DF80F0004E0EBE700208DF80F00FFE79DF80F0004B080BD000035
:200C600080B586B0049003910498002804D1FFE701208DF817002CE0049890F82C00002821
:200C800008D1FFE70498002180F82D10049800F027F8FFE70498022180F82C10049850F83B
:200CA000041B029008460299F9F7EEFC0499039A0B6849680190184600911146009AF9F701
:200CC00097FD0499012281F82C2000218DF81710FFE79DF8170006B080BD000000000000A9
:200CE00081B0009001B0704780B584B002900191029890F82C00022804D1FFE702208DF864
:200D00000F0010E00298022180F82C10029800680199F9F71DFD0299012281F82C20002119
:200D20008DF80F10FFE79DF80F0004B080BD000080B584B0029001910092029890F82C0027
:200D4000022804D1FFE702208DF80F001CE00298022180F82C10029800680199009AF9F765
:200D600003FD01990968022905D1FFE70298052180F82C1004E00298012180F82C10FFE7D3
:200D800000208DF80F00FFE79DF80F0004B080BD81B000900098042809D1FFE74EF210008F
:200DA000CEF20000016841F00401016008E04EF21000CEF20000016821F004010160FFE7B5
:200DC00001B070470000000080B582B00190019806F08AFE02B080BD80B586B0049003911A
:200DE0000292FFE7049890F83C00012804D1FFE702208DF81700C4E00498012180F83C1051
:200E0000FFE7FFE70498022180F83D1002981428019000F2A7800199DFE801F00BA4A4A4B9
:200E200024A4A4A43EA4A4A457A4A4A471A4A4A48A0004980068039908F056F90498006863
:200E4000816941F00801816104980068816921F00401816103980069049909688A6910434E
:200E6000886180E004980068039908F0B5F904980068816941F4006181610498006881698F
:200E800021F48061816103980069049909688A6942EA0020886166E004980068039908F062
:200EA00017FA04980068C16941F00801C16104980068C16921F00401C16103980069049990
:200EC0000968CA691043C8614DE004980068039908F07AFA04980068C16941F40061C161D3
:200EE00004980068C16921F48061C1610398006904990968CA6942EA0020C86133E0049843
:200F00000068039908F0C4FA04980068416D41F00801416504980068416D21F00401416517
:200F200003980069049909684A6D104348651AE004980068039908F0FFFA04980068416DAB
:200F400041F40061416504980068416D21F48061416503980069049909684A6D42EA0020F2
:200F6000486500E0FFE70498012180F83D10FFE70498002180F83C10FFE700208DF8170072
:200F8000FFE79DF8170006B080BD00000000000080B582B001900198022180F83D10FFE76D
:200FA00001980068006A41F21111084210D1FFE701980068006A40F24441084207D1FFE736
:200FC00001980068016821F001010160FFE7FFE7FFE7019800F044F80198002180F83D103D
:200FE000FFE70198002180F83C10FFE7002002B080BD00000000000080B584B00290029803
:20100000002804D1FFE701208DF80F0021E0029890F83D00002808D1FFE70298002180F8BE
:201020003C10029800F020F8FFE70298022180F83D10029850F8041B01900846019907F0E9
:201040002BFF0298012180F83D1000208DF80F00FFE79DF80F0004B080BD000000000000B6
:2010600081B0009001B0704781B0009001B0704780B584B0039002910398006802990122CE
:20108000019208F015F80398006801990022C4F20102904200910CD0FFE7039800684FF6D3
:2010A0000041CBF6FE710844B0FA80F040090090FFE70098C007002807D0FFE70398006853
:2010C000416C41F400414164FFE703980068016841F001010160002004B080BD0000000051
:2010E00080B584B002900298002804D1FFE701208DF80F002AE00298242180F8691002984F
:201100000068016821F00101016002980068002101600298006841600298006881600298E6
:20112000019100F04DF902980199C166029880F86910029880F86A10FFE70298002180F85C
:201140006810FFE700208DF80F00FFE79DF80F0004B080BD0000000080B582B00190019871
:20116000006841F20001C4F20101884203D1FFE705F04AF80AE00198006844F20041C4F248
:201180000001884201D1FFE7FFE7FFE702B080BD80B586B0059005980068C06904900598B2
:2011A0000068006803900598006880680290049800F00F0001900198002811D1FFE79DF803
:2011C0001000800600280AD5FFE79DF80C008006002804D5FFE7059808F01AFDEEE0FFE71E
:2011E0000198002800F0CA80FFE79DF80800C007002807D1FFE7BDF80C0010F4907F00F000
:20120000BD80FFE79DF81000C007002810D0FFE79DF80D00C00700280AD0FFE705980068FB
:20122000012101620598C16E41F00101C166FFE79DF810008007002810D5FFE79DF8080061
:20124000C00700280AD0FFE705980068022101620598C16E41F00401C166FFE79DF81000A0
:201260004007002810D5FFE79DF80800C00700280AD0FFE705980068042101620598C16E8F
:2012800041F00201C166FFE79DF810000007002816D5FFE79DF80C008006002806D4FFE759
:2012A0009DF80800C00700280AD0FFE705980068082101620598C16E41F00801C166FFE73E
:2012C0000598C06E002858D0FFE79DF81000800600280AD5FFE79DF80C008006002804D5CD
:2012E000FFE7059808F094FCFFE70598C06E0007002807D4FFE705980068806840060028E7
:2013000033D5FFE7059808F05BFC0598006880684006002824D5FFE705980068816821F0BA
:20132000400181600598406E002814D0FFE70598406E49F69931C0F6010101650598406E91
:20134000FAF74AFC002805D0FFE70598406E016D8847FFE703E00598FFF7FEFEFFE703E0CA
:201360000598FFF7F9FEFFE706E00598FFF7F4FE05980021C166FFE7FFE71FE09DF810003D
:20138000000600280AD5FFE79DF80C000006002804D5FFE7059808F04FFF0FE09DF8100055
:2013A000400600280AD5FFE79DF80C004006002804D5FFE7059808F017FCFFE706B080BDAB
:2013C00081B0009001B0704781B0009001B0704784B0134602900191ADF80220029890F821
:2013E0006A00202840F08F80FFE70198002805D0FFE7BDF80200002804D1FFE701208DF85A
:201400000F0084E0FFE7029890F86800012804D1FFE702208DF80F0079E00298012180F8C2
:201420006810FFE7FFE7019802994865BDF802000299A1F85800BDF802000299A1F85A00FF
:20144000FFE702988068B0F5805F11D1FFE702980069002806D1FFE7029840F2FF11A0F87C
:201460005C1004E00298FF21A0F85C10FFE72CE002988068002810D1FFE7029800690028D0
:2014800005D1FFE70298FF21A0F85C1004E002987F21A0F85C10FFE716E002988068B0F1B1
:2014A000805F10D1FFE702980069002805D1FFE702987F21A0F85C1004E002983F21A0F8EB
:2014C0005C10FFE7FFE7FFE7FFE7FFE702980021C1660298222180F86A10FFE702980021D0
:2014E00080F86810FFE702980068816841F00101816002980068016841F4907101600020F5
:201500008DF80F0003E002208DF80F00FFE79DF80F0004B07047000080B582B00190019818
:20152000006841F20001C4F20101884203D1FFE704F0D2FE0AE00198006844F20041C4F2F7
:201540000001884201D1FFE7FFE7FFE702B080BD80B588B0944606900591ADF8122003936D
:2015600000200190069890F86900202840F08F80FFE70598002805D0FFE7BDF8120000284F
:2015800004D1FFE701208DF81F0084E0FFE7069890F86800012804D1FFE702208DF81F0049
:2015A00079E00698012180F86810FFE7FFE706980021C1660698212180F86910FAF7F8FFB7
:2015C0000190BDF812000699A1F85000BDF812000699A1F85200FFE70698B0F85200002834
:2015E00037D0FFE70698B0F852100139A0F852100698019B03996A4611608021002208F070
:201600006FFE002804D0FFE703208DF81F0042E006988068B0F5805F12D1FFE706980069B8
:2016200000280DD1FFE705980290029800886FF35F2006990968886205980230059007E047
:201640000598411C05910078069909688862FFE7C2E70698019B03996A461160402100227F
:2016600008F03EFE002804D0FFE703208DF81F0011E00698202180F86910FFE70698002127
:2016800080F86810FFE700208DF81F0003E002208DF81F00FFE79DF81F0008B080BD000078
:2016A00080B582B001900198006841F20001C4F20101884203D1FFE705F01AFB0AE0019834
:2016C000006844F20041C4F20001884201D1FFE7FFE7FFE702B080BD80B505F099FC80BD3B
:2016E00086B0134605900491ADF80E2000200290FFE7BDF80E0000283FD0FFE70298002824
:2017000016D1FFE7049800780009019001980A2805D3FFE7019837300599087004E0019832
:20172000303005990870FFE702980130029018E00498007800F00F00009000980A2805D3B3
:20174000FFE7009837300599087004E00098303005990870FFE700200290049801300490A3
:20176000FFE7059801300590059800210170BDF80E000138ADF80E00BBE706B07047000033
:2017800081B0009000980068806900F002000021B1EB500F05D0FFE70098006800218162D2
:2017A000FFE7009800688069C007002807D1FFE700980068816941F001018161FFE701B017
:2017C000704700000000000080B586B004900391029204980068806900F010000121B1EB80
:2017E000101F5AD1FFE7FFE704980068806900F020000021B1EB501F25D1FFE703980130F2
:2018000000281FD0FFE70398002808D0FFE7FAF7CFFE0299401A0399884212D9FFE70498C4
:20182000202180F841100498002180F84210FFE70498002180F84010FFE703208DF8170007
:201840002FE0FFE7D0E7049800681021C161049800682021C16104980191FFF791FF0498CE
:20186000006841684EF60002CFF60062114041600498042141640498019980F841100498F7
:20188000002280F84220FFE70498002180F84010FFE701208DF8170003E000208DF817009F
:2018A000FFE79DF8170006B080BD000000000000F0B58BB0DDF844C0DDF840E01C46154638
:2018C0000E460990ADF82210ADF82020ADF81E300998BDF822109DF81E206B464FF40057C6
:2018E0001F600023CDF818C0CDF814E004940395029600F0D5F809981099119A00F090F9FD
:2019000000280DD0FFE70998406C042804D1FFE701208DF82B0042E003208DF82B003EE0C4
:20192000BDF81E00012806D1FFE79DF820000999096888621FE09DF821000999096888628A
:2019400009981099119A00F06BF900280DD0FFE70998406C042804D1FFE701208DF82B004E
:201960001DE003208DF82B0019E09DF82000099909688862FFE70998109B11996A461160EF
:201980004021002200F0BCF8002804D0FFE703208DF82B0003E000208DF82B00FFE79DF83D
:2019A0002B000BB0F0BD0000F0B58BB0DDF844C0DDF840E01C4615460E460990ADF8221065
:2019C000ADF82020ADF81E300998BDF822109DF81E206B464FF400571F604FF08073CDF813
:2019E00018C0CDF814E004940395029600F058F809981099119A00F013F900280DD0FFE772
:201A00000998406C042804D1FFE701208DF82B0042E003208DF82B003EE0BDF81E000128B2
:201A200006D1FFE79DF820000999096888621FE09DF8210009990968886209981099119A90
:201A400000F0EEF800280DD0FFE70998406C042804D1FFE701208DF82B001DE003208DF81B
:201A60002B0019E09DF82000099909688862FFE70998109B11996A4611608021002200F0E0
:201A80003FF8002804D0FFE703208DF82B0003E000208DF82B00FFE79DF82B000BB0F0BD99
:201AA00010B584B0DDF818C096460C460390ADF80A108DF80920019300200090039800680B
:201AC00040680090009849F60001CFF6004108400090BDF80A006FF39F209DF8091040EA60
:201AE00001400199084306990843009908430090009803990968486004B010BD0000000094
:201B000080B586B0DDF820C09646049003918DF80B200193FFE704980068806903990840A6
:201B2000401AB0FA80F040099DF80B10884225D1FFE70198013000281FD0FFE7019800280A
:201B400008D0FFE7FAF734FD0899401A0199884212D9FFE70498202180F841100498002112
:201B600080F84210FFE70498002180F84010FFE703208DF8170005E0FFE7CCE700208DF868
:201B80001700FFE79DF8170006B080BD0000000080B584B0029001910092FFE702980068A2
:201BA000806900F020000021B1EB501F30D1FFE702980199009AFFF707FE002804D0FFE76E
:201BC00001208DF80F0027E00198002808D0FFE7FAF7EEFC0099401A0199884217D9FFE7C2
:201BE0000298416C41F0200141640298202180F841100298002180F84210FFE702980021DD
:201C000080F84010FFE703208DF80F0004E0C5E700208DF80F00FFE79DF80F0004B080BDA0
:201C200080B584B0029001910092FFE702980068806900F002000021B1EB500F36D1FFE7B9
:201C400002980199009AFFF7BFFD002804D0FFE701208DF80F002DE001980130002824D07A
:201C6000FFE70198002808D0FFE7FAF7A1FC0099401A0199884217D9FFE70298416C41F0CC
:201C8000200141640298202180F841100298002180F84210FFE70298002180F84010FFE706
:201CA00003208DF80F0005E0FFE7BFE700208DF80F00FFE79DF80F0004B080BD00000000CD
:201CC00080B582B046F69470C2F201000190FAF78FFC01990090084600F002F802B080BD4A
:201CE00080B582B0019046F69470C2F20100FAF7B3FC00281DD1FFE746F69470C2F2010066
:201D000046F20001C4F20001016042F23271C4F291014160002181600122C2600161416167
:201D2000C1610162009000F01BF80098FAF79CFCFFE702B080BD000080B584B00B46039048
:201D4000ADF80A1001920398BDF80A10019A4FF47A7C00936346FAF70BFD04B080BD0000CD
:201D600080B590B00F90FFE743F63000C4F20200016841F008010160006800F0080009904B
:201D80000998FFE7FFE743F63000C4F20200016841F040010160006800F0400008900898A9
:201DA000FFE74FF480500A9012200B9000210C9103220D9204230E9340F6004CC4F2020C33
:201DC0000DF1280E069060460591714604920393CDF808C0CDF804E0FAF7AEF94FF40050B9
:201DE0000A9006980B9005990C91049A0D92039B0E9302980199FAF79FF941F60000C4F2AF
:201E0000020000900399059AFAF7AEFB03980A9001210B9105990C91049A0D9200980199BE
:201E2000FAF78AF9FFE743F64000C4F20200016841F080710160006800F0807007900798AD
:201E4000FFE743F62000C4F20200016841F080710160016821F08071016010B080BD0000D6
:201E60002DE9F0438DB0DDF854C0DDF850E01C4615460E460C908DF82F10ADF82C20ADF8E7
:201E80002A30ADF828C000208DF827000C989DF82F10BDF82C20BDF82A30DDF850C0BDF86D
:201EA0002870E8464FF47A79C8F80890C8F80470C8F800C0CDF820E0079406950596FAF793
:201EC0009FFE8DF827009DF82700002838D0FFE70C98006846F20001C4F20001884203D14D
:201EE000FFE7FFF7EDFE2AE00C98006845F60041C4F20001884221D1FFE743F64000C4F201
:201F00000200016821F4000101600020C4F202004FF48071F9F7D0FF40F60000C4F2020026
:201F20004FF40071F9F7C8FF46F64870C2F20100FAF75EFB049007F05FFBFFE7FFE7FFE7AC
:201F40009DF827000DB0BDE8F0830000000000002DE9F0438DB0DDF854C0DDF850E01C461A
:201F600015460E460C908DF82F10ADF82C20ADF82A30ADF828C000208DF827000C989DF8D0
:201F80002F10BDF82C20BDF82A30DDF850C0BDF82870E8464FF47A79C8F80890C8F80470D0
:201FA000C8F800C0CDF820E0079406950596FAF78BFF8DF827009DF82700002838D0FFE712
:201FC0000C98006846F20001C4F20001884203D1FFE7FFF775FE2AE00C98006845F6004186
:201FE000C4F20001884221D1FFE743F64000C4F20200016821F4000101600020C4F202009F
:20200000845F0400F645F98A40F60000C4F202004FF40071F9F750FF46F64870C2F2010091
:20202000FAF7E6FA049007F0E7FAFFE7FFE7FFE79DF827000DB0BDE8F08300000000000020
:2020400082B001900091032002B070470000000080B5ACB046F6E470C2F201002A90FBF71E
:20206000FBF946F60001C4F201012A9A1160002151609160D160116182F8361082F835105D
:20208000802382F83430012353614FF0090CC2F818C04FF02B0CC2F81CC04FF0150CC2F8DB
:2020A00020C040F20B2CC2F824C040F2251CC2F828C040F2132CC2F82CC040F2291CC2F8DC
:2020C00030C02990104628912793FBF76DFB2A99269008462899FBF7BBFD2A99259008463C
:2020E000FBF77AFA58210E222490084623911146289B22921A46FBF79BFF2398FBF78CFF29
:202100005A2021902299289AFBF792FF2198FBF783FF41F20000C4F202000421279AFAF7A5
:2021200023FA28982B90FFE72B98012809DCFFE72B9803210EF040F8FFE72B9801302B90B8
:20214000F2E744F24430C0F6030044F20831C0F6030100222092209B0CF02AFF20991F90FE
:20216000084610F07DF9002812D0FFE700204FF488714FF4F0721E901D911C9210F086FC1E
:202180001E991B9008461D991C9A10F0A9FC11E000204FF4F0714FF488721A90199118928E
:2021A00010F074FC1A99179008461999189A10F097FCFFE7002001211690159110F0A6FCFA
:2021C00044F27831C0F6030143F24852C0F60302149008461146169A159B0CF0E9FE1599A2
:2021E0001390084610F03CF9002812D0FFE701204FF488714FF4F07212901191109210F0E1
:2022000045FC12990F9008461199109A10F068FC11E001204FF4F0714FF488720E900D91FE
:202220000C9210F033FC0E990B9008460D990C9A10F056FCFFE701200A900A9910F066FCFD
:2022400000212B91FFE72B9801281BDCFFE72B984AF68041C0F6040151F8201010F02CFCD2
:202260002B990990084610F045F8C0102B9946F60442C2F2010242F82100FFE72B98013074
:202280002B90E0E72B984AF67152C0F60102212110F088FB2B994AF6F152C0F60102232332
:2022A00008900846194610F07DFB2B994BF22912C0F60102192307900846194610F072FB7F
:2022C0002B994AF6B972C0F60102282306900846194610F067FB2B994AF60972C0F60102EE
:2022E000242305900846194610F05CFB2B994BF27102C0F60102252304900846194610F048
:2023000051FB4AF20941C0F601014AF6F932C0F601020390084611460CF082F84AF269407C
:20232000C0F601004AF65941C0F601010CF084F84AF23940C0F601004AF62941C0F601010E
:202340000CF074F84AF2C940C0F601004AF6B941C0F601010CF07CF84AF29940C0F60100EB
:202360004AF68941C0F601010CF06CF84AF2F940C0F601000EF0B4F94BF21121C0F601013D
:20238000029008460EF0B4F94AF63110C0F601000EF0B4F94BF26131C0F601010190084669
:2023A0000EF0B4F92CB080BD80B596B0159014911392002012901498013801460D28069135
:2023C00000F2A3800699DFE801F007A00B232F32493D3584A08C9417159808F06DFF98E0BC
:2023E00013981190159811990A68496805911146059A09F0B1F88CE0139810901098006822
:20240000159940F20472C2F2010242F8210080E013980F9015980F990A6809790491114675
:20242000049A09F03DF874E008F05AFD71E008F043FD6EE013980E9015980E99096809F04F
:20244000B7F866E013980D9015980D990A68496803911146039A09F05FF85AE015980CA955
:202460000BAA0DF05FFA13990A911599029008460FF0F6FF002813D0FFE70A98406815999F
:2024800046F60C42C2F2010242F821000A980068159946F61442C2F2010242F8210012E052
:2024A0000A980068159946F60C42C2F2010242F821000A984068159946F61442C2F2010287
:2024C00042F82100FFE715980C990B9A09F034F81FE01398099015980999096809F00CF89F
:2024E00017E01398089015980899096808F0BCFF0FE013980790159807990A6849680191FD
:202500001146019A08F094FF03E04FF0FF301290FFE7129816B080BD80B546F6E470C2F23F
:202520000100FBF791F880BD86B0059004910392002002900190009004994968059A1268B3
:20254000D2680023C0F6FF731A4001EB12410904029105990968039A01EBC211D1F88820E1
:2025600002F47042C1F8882004990968059A1268D2681A4001EB12410131029A1143059A97
:202580001268039B02EBC312C2F888100499C968059A1268D2686FF3DF2211440904029196
:2025A00005990968039A01EBC211D1F88C2002F47042C1F88C2004998968059A1268D2684D
:2025C0006FF3DF2211440131029A1143059A1268039B02EBC312C2F88C1005990968039AA6
:2025E00001EBC211D1F8942022F00702C1F8942004990969059A1268039B02EBC312C2F8D5
:202600009410049991F8311009020291049991F8321009040191049989690906009105993D
:202620000968039A01EBC211D1F89C20C1F89C00049991F83010029B1943019B1943009B01
:202640001943059B1B68DDF80CC003EBCC13C3F89C1005990968039B01EBC311D1F8983028
:2026600023F0FF03C1F8983004994969059B1B68DDF80CC003EBCC13C3F898100599096872
:20268000039B01EBC311D1F8A03040F2077C23EA0C03C1F8A0300499CB69096A1943059BA9
:2026A0001B68DDF80CC003EBCC13C3F8A01005990968039B01EBC311D1F8AC30C1F8AC0047
:2026C0000498406A05990968DDF80CC001EBCC11C1F8AC0004980069002803D1FFE70420CB
:2026E000029023E004980069012803D1FFE7032002901AE00498006904280FD0FFE704981C
:20270000006902280AD0FFE704980069032805D0FFE704980069072803D1FFE702200290D9
:2027200002E001200290FFE7FFE7FFE705980068039900EBC110D0F8B01001F0E021C0F8C3
:20274000B010049801684268806A029B5843511A5943033141EA004005990968039A01EBAA
:20276000C211C1F8B00005980068039900EBC110D0F8B41040F2FF729143C0F8B4100498A5
:20278000C06A05990968039A01EBC211C1F8B40005980068039900EBC110D0F8841041F04D
:2027A0000101C0F8841006B0704700000000000080B582B00190019800F072FB002804D074
:2027C000FFE7019800F018F903E0019800F04CF9FFE702B080BD000081B000900098807F9B
:2027E00001B070470000000081B000900098006801B070470000000080B582B001900198B7
:20280000017D009100F070FB009940EA410040F2E071C2F2010151F8200002B080BD0000B9
:2028200081B000900098807D01B070470000000081B000900098406801B070470000000071
:2028400081B000900098C07D01B070470000000081B000900098806801B0704700000000D1
:2028600081B000900098808901B070470000000080B582B001468DF806009DF80600009129
:2028800000F01AFB00280DD0FFE79DF8060047F29031C2F2010101EB401000F025FB8DF82C
:2028A000070003E0FE208DF80700FFE79DF8070002B080BD0000000080B590B00A460F90AF
:2028C000ADF83A100F98002181740F98C1740F980C30BDF83A1002230D921A460C93F7F7DD
:2028E000CBFC0F991531BDF83A20023292B201230B90084611461A460A93F7F7BDFC0F99EC
:202900001631BDF83A20033292B20990084611460A9AF7F7B1FC0F991431BDF83A20043239
:2029200092B20890084611460A9AF7F7A5FC0F991031BDF83A20053292B207900846114634
:202940000C9AF7F799FC0F991731BDF83A20073292B20690084611460A9AF7F78DFC0F99D4
:202960001831BDF83A20083292B20590084611460A9AF7F781FC0F991931BDF83A200932FC
:2029800092B20490084611460A9AF7F775FC0F991A31BDF83A200A3292B2039008461146FD
:2029A0000A9AF7F769FC0F991B31BDF83A200B3292B20290084611460A9AF7F75DFC0F99D2
:2029C0001C31BDF83A200C3292B20190084611460A9AF7F751FC0F991D31BDF83A200D32C0
:2029E00092B20090084611460A9AF7F745FC10B080BD00000000000080B582B001900198FD
:202A0000002181740198C07E042806DCFFE70198C07E002104F04CFE05E00198C07E0021C2
:202A200001F0C2F9FFE7019800F002F802B080BD81B0009000980021416001B0704700000F
:202A400080B582B001900198C07D002804D0FFE701980021816003E00198FFF7CDFFFFE707
:202A600002B080BD0000000080B582B001900198012181740198C07E042806DCFFE701985B
:202A8000C07E012104F014FE05E00198C07EFF2101F08AF9FFE7019800F032FA00280FD0DE
:202AA000FFE7F9F785FD00900098002803D1FFE701200090FFE70198009900F019F9FFE703
:202AC00002B080BD0000000081B0009000980021816001B07047000080B582B001900198B3
:202AE000C07D00280FD0FFE7F9F762FD0199886001988068002805D1FFE7019881680139BA
:202B00008160FFE703E00198FFF7AEFFFFE702B080BD00000000000081B000900098002180
:202B2000817701B07047000080B582B001900198817CC1740198FFF7EFFF019800F004F870
:202B400002B080BD0000000081B0009000980021016001B07047000080B590B00A460F90DF
:202B6000ADF83A100F980C30BDF83A1002230D921A460C93F7F7C8FB0F991531BDF83A2013
:202B8000023292B201230B90084611461A460A93F7F7BAFB0F991631BDF83A20033292B242
:202BA0000990084611460A9AF7F7AEFB0F991431BDF83A20043292B20890084611460A9A45
:202BC000F7F7A2FB0F991031BDF83A20053292B20790084611460C9AF7F796FB0F991731A6
:202BE000BDF83A20073292B20690084611460A9AF7F78AFB0F991831BDF83A20083292B279
:202C00000590084611460A9AF7F77EFB0F991931BDF83A20093292B20490084611460A9A12
:202C2000F7F772FB0F991A31BDF83A200A3292B20390084611460A9AF7F766FB0F991B3198
:202C4000BDF83A200B3292B20290084611460A9AF7F75AFB0F991C31BDF83A200C3292B240
:202C60000190084611460A9AF7F74EFB0F991D31BDF83A200D3292B20090084611460A9AE2
:202C8000F7F742FB10B080BD82B00A4601908DF803109DF80300652804DBFFE70198642159
:202CA00081770FE09DF80300B0F1FF3F04DCFFE701980021817704E09DF803000199887729
:202CC000FFE7FFE702B0704782B00190009100980199086002B0704782B00A4601908DF8D0
:202CE00003109DF803000199887502B07047000082B00190009100980199486002B0704792
:202D000082B00A4601908DF803109DF803000199C87502B07047000082B00A460190ADF878
:202D20000210BDF802000199888102B07047000080B584B00A4603468DF80F008DF80E1085
:202D40009DF80F000292019300F0B6F800281CD0FFE79DF80E0000280BD0FFE79DF80F00DF
:202D600047F29031C2F2010101EB4010FFF77CFE0AE09DF80F0047F29031C2F2010101EBCD
:202D80004010FFF739FEFFE7FFE79DF80F0047F29031C2F2010101EB401000F0A5F804B019
:202DA00080BD00000000000081B0009000980121417501B07047000081B0009000980021C3
:202DC000417501B07047000082B00A4601908DF803109DF803000199C8749DF8030001998A
:202DE000887402B07047000080B582B001900198FFF7F2FC002818BF012002B080BD0000EA
:202E000080B582B001900198FFF7EEFC002818BF012002B080BD000080B582B00190F9F74A
:202E2000C7FB01994A68801A00900846FFF7F8FC4EF6602148430021009A824228BF01214A
:202E4000084602B080BD000080B582B00190F9F7AFFB01998A68801A00900846FFF7F0FCBD
:202E60004EF6602148430021009A824228BF0121084602B080BD000080B582B001900198AC
:202E800000F056F801990090084600F02DF80099081A18BF012002B080BD000000000000C5
:202EA00081B000900098C07C002818BF012001B0704700000000000082B001468DF80700F0
:202EC0009DF8070000220028009208D4FFE79DF8070000210628B8BF01210091FFE7009825
:202EE00000F0010002B0704781B000900098807C002818BF012001B070470000000000009B
:202F000080B582B001900198FFF78AFC002818BF012002B080BD000080B582B00190019804
:202F2000FFF786FC002818BF012002B080BD000081B000900098C07C002818BF012001B0A4
:202F4000704700000000000080B582B001900198FFF77EFC002818BF012002B080BD0000AA
:202F600081B000900098407D002818BF012001B0704700000000000082B001900198007ED9
:202F800000211728009108DCFFE70198407E00213C28B8BF01210091FFE7009800F0010001
:202FA00002B070470000000080B584B003900398007E47F2F851C2F20101097802900846FA
:202FC000EEF792FA0021029A8242019112D1FFE70398407E47F2F851C2F2010149780090C2
:202FE0000846EEF781FA0099081AB0FA80F040090190FFE7019800F0010004B080BD000013
:2030000080B582B001900198407F00281ED1FFE70198407F012804D1FFE70198FFF724FD77
:2030200013E00198407F022804D1FFE70198FFF7E3FC09E00198407F032804D1FFE7019832
:20304000FFF7B6FBFFE7FFE7FFE7FFE702B080BD80B500F005F800F05BF880BD00000000A0
:2030600080B582B047F28C30C2F20100002101708DF80710FFE79DF8070005281DDCFFE783
:203080009DF8070047F29031C2F2010101EB4010FFF7E6FB002808D0FFE747F28C30C2F242
:2030A000010001780131017000E006E0FFE79DF8070001308DF80700DDE702B080BD00003B
:2030C00080B582B000208DF80700FFE79DF80700052818DCFFE79DF8070047F29031C2F20A
:2030E000010101EB4011CF220D2310FB0320009008460099FFF7E0FBFFE79DF80700013047
:203100008DF80700E2E7FFF7A3FF02B080BD000080B500F039F8012101EB900047F2504115
:20312000C2F20101087080BD47F25040C2F20100007870470000000080B582B000208DF86B
:203140000700FFE79DF80700052818DCFFE79DF8070047F29031C2F2010101EB4011CF2265
:203160000D2310FB0320009008460099FFF7F4FCFFE79DF8070001308DF80700E2E7FFF796
:2031800067FF02B080BD000047F28C30C2F20100007870470000000080B58CB0FAF7FCFEA5
:2031A00001208DF820000021C2F20101099111218DF8281003218DF82B1000228DF82F200F
:2031C0008DF82E008DF82D008DF821208DF82A208DF829208DF82C2008AB07901846069117
:2031E00005920493FAF790FE07988DF8200002218DF821104FF0104109911B228DF82820D1
:20320000059A8DF829208DF82A208DF82B208DF82C008DF82D008DF82E208DF82F200498FC
:203220000391FAF771FE07988DF8200006998DF82110039A099217238DF82830059B8DF88D
:2032400029308DF82A308DF82B108DF82C008DF82D008DF82E008DF82F300498FAF754FE9D
:2032600007988DF8200004218DF821104FF0404209921C238DF82830059B8DF829308DF8B4
:203280002A308DF82B308DF82C008DF82D008DF82E308DF82F30049802910192FAF734FEE5
:2032A00007988DF8200005218DF821100199099116228DF82820059A8DF829208DF82A2079
:2032C000069B8DF82B308DF82C208DF82D008DF82E008DF82F200498FAF716FE0298FAF737
:2032E0006FFE4FF0204043F2D20101600CB080BD80B543F64400C4F20200016821F4806197
:20330000016040F60000C4F202000E21F8F7D4FD46F69C60C2F20100F7F7D6FF80BD000082
:2033200080B58EB0FFE743F64400C4F20200016841F480610160006800F4806004900498B3
:20334000FFE7FFE743F63000C4F20200016841F004010160006800F0040003900398FFE710
:203360000E200590032006900021079140F60002C4F2020205AB0290104601911946F8F7AE
:20338000DBFE46F69C60C2F2010042F20021C4F2010101604FF48031416001998160016187
:2033A000816101624162C162C160029AC261016301234361F7F7C8FF002805D0FFE7A4209A
:2033C0009721F7F751F9FFE70B200A9001200B900C9000200D9046F69C60C2F201000AA99D
:2033E000F7F74AFE0EB080BD80B543F63000C4F20200016821F48051016046F6E460C2F262
:203400000100F8F7A9F980BD80B582B046F6E460C2F2010043F20001C4F2020101600021D0
:20342000017141714161816101210162FFE743F63000C4F20200016841F480510160006820
:2034400000F4805001900198FFE746F6E460C2F20100F8F7B9F9002805D0FFE7A420962164
:20346000F7F702F9FFE702B080BD00000000000080B540F20040C4F202004FF48051F8F72C
:203480001BFD40F60000C4F202004FF48851F8F713FD40F60040C4F2020040F69401F8F723
:2034A0000BFD41F60000C4F2020046F20801F8F703FD80BD0000000080B594B0FFE743F610
:2034C0003000C4F20200016841F002010160006800F002000E900E98FFE7FFE743F6300033
:2034E000C4F20200016841F004010160006800F004000D900D98FFE7FFE743F63000C4F28B
:203500000200016841F008010160006800F008000C900C98FFE7FFE743F63000C4F2020018
:20352000016841F040010160006800F040000B900B98FFE740F20040C4F202004FF4805155
:2035400001220A9009910892F9F70EF840F60000C4F202004FF48071002207900692F9F721
:2035600003F807980999069AF8F7FEFF40F60040C4F2020004210590069AF8F7F5FF1021E7
:203580000598069AF8F7F0FF80210598069AF8F7EBFF4FF400610598089AF8F7E5FF41F66C
:2035A0000000C4F20200082104900391069AF8F7DBFF09980F9008991091069A1192129230
:2035C0000FAB0A9819460293F8F7B6FD4FF4E8500F90089810900699119112910798029981
:2035E000F8F7AAFD0A200F90069810901190022112910798029A01911146F8F79DFD40F6E4
:2036000094000F900898109006991191129105980299F8F791FD03980F9008991091069A82
:203620001192129204980299F8F786FD4FF4C0400F90069810901190019912910498029965
:20364000F8F77AFD14B080BD80B543F64000C4F20200016821F4000101600020C4F20200E5
:203660004FF48071F8F728FC40F60000C4F202004FF40071F8F720FC46F64870C2F20100AD
:20368000F8F7B6FF80BD000080B543F64000C4F20200016821F08071016040F60040C4F2EB
:2036A00002004FF44051F8F707FC41F60000C4F202000421F8F700FC46F69470C2F201004E
:2036C000F8F796FF80BD000080B584B040F6B950C2F201000021017047F28C00C2F20100C0
:2036E0004C22039002911146ECF7B2FD47F21460C2F201003821ECF7ABFD47F24C60C2F26E
:203700000100029941610161C16081604160016041F20000CAF20000039A10601046FAF7C2
:2037200013FF0221039A5160042191601021D160172111614FF480715161029991611162FE
:20374000D16101901046FBF7EBF8009002F058F941F2883001F024FE04B080BD00000000B9
:2037600080B547F2D800C2F20100FCF7D9FE80BD80B588B0002007900690059004900390D1
:203780000290019047F2D801C2F2010142F60002C4F200020A6048607F228A60FF22CA6064
:2037A0000861486188610846FCF7FAFF002805D0FFE7A4209321F6F757FFFFE747F2D8003F
:2037C000C2F201000121FCF783FE43F2F22188422DD0FFE700208DF808008DF809008DF8E9
:2037E0000A000690079047F2D800C2F2010002A90122FDF72DF9002805D0FFE7A420932189
:20380000F6F732FFFFE703208DF8040001208DF805008DF8060014208DF8070046F6105066
:20382000C2F20100016821F40041016024E047F2D800C2F2010002210090FCF749FE8DF877
:20384000060003210098FCF743FE8DF8050004210098FCF73DFE8DF8040005210098FCF7C3
:2038600037FE8DF8070046F61050C2F20100016841F400410160FFE747F2D800C2F201004A
:2038800001A90122FDF71CF8002805D0FFE7A4209321F6F7E9FEFFE7FFE747F2D800C2F293
:2038A00001000168CA224A62006853214162FFE747F2D800C2F20100FDF7A6F9002805D04B
:2038C000FFE7A4209321F6F7CFFEFFE747F2D800C2F20100012143F2F222FCF70DFE08B003
:2038E00080BD00000000000080B543F64400C4F20200016821F48031016041F20000C4F2A8
:2039000002002021F8F7D8FA47F2F800C2F20100FDF73EFB80BD000080B590B0FFE743F6BF
:203920004400C4F20200016841F480310160006800F4803003900398FFE7FFE743F630006C
:20394000C4F20200016841F010010160006800F0100002900298FFE747F2F800C2F2010043
:2039600044F20001C4F201010160C8214160002181604FF47A72C26001618161FDF73CFBAB
:20398000002805D0FFE7A4209421F6F76DFEFFE76020099050200A9000200B900D9047F2D9
:2039A000F801C2F2010109AA019008461146019AFDF712FA002805D0FFE7A4209421F6F78B
:2039C00053FEFFE720200490022005900020069007900321089141F20001C4F2020104AA80
:2039E000009008461146F8F7A7FB47F2F800C2F201000099FDF73CFB10B080BD000000005A
:203A000080B582B043F64400C4F20200016821F01001016043F64000C4F20200016821F46F
:203A2000003101600020C4F202004FF4B051F8F743FA40F60040C4F202006021F8F73CFAD8
:203A40002520FAF7DDFA2620FAF7DAFA47F23810C2F20100FDF744FB47F2A811C2F201013D
:203A600001900846FDF73CFB02B080BD0000000080B58AB0FFE743F64400C4F2020001685A
:203A800041F010010160006800F0100004900498FFE7FFE743F63000C4F20200016841F064
:203AA00001010160006800F0010003900398FFE74FF4B050059002200690002007900321CB
:203AC0000891072109910021C4F2020105AA029008461146F8F730FB47F23810C2F201007B
:203AE00041F20001C4F2010101604FF4E13141600C21416102990161C16081608161C161B1
:203B000001624162029A029BFCF772FC002805D0FFE7A4209221F6F7A7FDFFE725200121CD
:203B200000220190FAF784FA0198FAF775FA0AB080BD00000000000080B503F069FA80BDAB
:203B4000704700000000000088B0079006910592079800F0070004900498C0F10700052806
:203B600003D3FFE70420019004E00498C0F107000190FFE70198039004980430062803D820
:203B8000FFE70020009003E0049803380090FFE70098029006980399012202FA01F10139B0
:203BA000084002998840059B02FA01F101391940084308B07047000080B582B000208DF873
:203BC00006008DF8070068460F21016046F69470C2F2010090210DF106020223F8F7E8FE6E
:203BE000002807D0FFE740F2F270C2F2010000210170FFE70520F8F74BF901208DF806001B
:203C000068460F21016046F69470C2F2010090210DF106020223F8F7CBFE002807D0FFE7F7
:203C200040F2F270C2F2010000210170FFE70220F8F72EF902B080BD80B596B006208DF876
:203C4000540000208DF85500FFE79DF855000F281CDCFFE79DF8540047F25A41C2F20101BE
:203C600000220A549DF8540001308DF854009DF854000A549DF8540003308DF85400FFE7AF
:203C80009DF8550001308DF85500DEE708208DF8540000208DF85500FFE79DF855000F2868
:203CA00034DCFFE79DF8550047F25A51C2F20101085C0001ADF85600BDF85600B0F57A6F91
:203CC00005DDFFE740F6FF70ADF85600FFE7BDF856009DF8541047F25A42C2F20102505462
:203CE0009DF8540001308DF854009DF857009DF8541050549DF8540003308DF85400FFE76D
:203D00009DF8550001308DF85500C6E706208DF80E000DF10E00411C47F25A42C2F2010253
:203D2000063240230290084611461A46ECF768FA4FF4967101900846F8F7AAF868460C2177
:203D4000016046F69470C2F2010090214123029AF8F72EFE002803D0FFE703F059F9FFE735
:203D600016B080BD0000000080B582B006208DF8070068460F21016046F69470C2F20100F3
:203D800000210DF107020123F8F712FE002807D0FFE740F2F270C2F2010000210170FFE732
:203DA00002B080BD0000000080B584B00A4603468DF80F008DF80E109DF80E009DF80F1084
:203DC00047F25A5CC2F2010C614401F8010C02920193FFF731FF04B080BD00000000000049
:203DE00080B584B00146ADF80E0000208DF80C0010208DF80D0068460F22026046F694706C
:203E0000C2F20100902203AB4FF0020C029111461A466346F8F7CCFD002803D0FFE703F0C1
:203E2000F7F8FFE7BDF80E00000347F64001C0F27D11B1FBF0F0013847F25A41C2F20101DA
:203E400081F8FE00FE208DF80C0091F8FE008DF80D0068460F21016046F69470C2F20100EF
:203E6000902103AA0223F8F7A3FD002803D0FFE703F0CEF8FFE700208DF80C00A0208DF8BA
:203E80000D0068460F21016046F69470C2F20100902103AA0223F8F78BFD002803D0FFE706
:203EA00003F0B6F8FFE70520F7F7F2FF01208DF80C0004208DF80D0068460F21016046F694
:203EC0009470C2F20100902103AA0223F8F770FD002803D0FFE703F09BF8FFE704B080BD0C
:203EE00080B58AB0099000208DF823000998007A012840F0BE85FFE709980121417209983E
:203F000040683D2869DBFFE709984068C72864DCFFE747F26460C2F201000078032810D0D7
:203F2000FFE747F26460C2F201000078042808D0FFE747F26460C2F20100007805284CD113
:203F4000FFE701208DF8230046F62E40C2F201000021017046F62F40C2F20100017046F6B4
:203F60003040C2F2010001700998006801280CDBFFE7099800689F2807DCFFE746F62E4069
:203F8000C2F201000121017026E009980068A1280DDBFFE709980068B0F5A07F07DAFFE79F
:203FA00046F62F40C2F201000121017013E009980068B0F5A07F0DDDFFE709980068B0F5D0
:203FC000F07F07DAFFE746F63040C2F2010001210170FFE7FFE7FFE7FFE709980068B0F571
:203FE000C87F61DDFFE7099840683B285CDCFFE747F26460C2F201000078032818DBFFE75E
:2040000047F26460C2F201000078062810D0FFE747F26460C2F2010000780F2844DBFFE71C
:2040200047F26460C2F20100007811283CD0FFE701208DF8230047F26460C2F20100007838
:20404000012807DCFFE747F26460C2F201000221017027E047F26460C2F2010000780228CD
:2040600018D0FFE747F26460C2F201000078062810D0FFE747F26460C2F2010000780F28F3
:204080000FDBFFE747F26460C2F201000078112807D0FFE747F26460C2F2010007210170E5
:2040A000FFE7FFE700F0BEBC47F26460C2F201000078022875D1FFE709980068B0F5C87F55
:2040C00048DAFFE70998406887281ADCFFE709980068BD280DDCFFE747F26460C2F2010095
:2040E0000F21017040F2F370C2F201000121017006E047F26460C2F2010006210170FFE72C
:2041000027E009980068BD280FDCFFE747F26460C2F2010010210170EDF7EAFB40F2F37027
:20412000C2F201000121017012E047F26460C2F201001321017047F27A50C2F20100022113
:20414000017040F2F370C2F2010001210170FFE7FFE718E009984068A02813DBFFE740F236
:20416000F370C2F201000121017047F25440C2F201000021017047F26460C2F2010012219B
:204180000170FFE7FFE747F26460C2F201000078022804D0FFE701208DF82300FFE700F035
:2041A00040BC0998006801282BDBFFE709980068772826DCFFE709984068C92821DBFFE739
:2041C00009984068B0F5887F1BDAFFE747F26460C2F201000078042808D0FFE747F26460FE
:2041E000C2F20100007805280BD1FFE701208DF8230047F26460C2F201000321017000F0A3
:204200000FBC0998006879282ADBFFE709980068EF2825DCFFE709984068C92820DBFFE71C
:2042200009984068B0F5887F1ADAFFE747F26460C2F201000078032808D0FFE747F264609F
:20424000C2F20100007805280AD1FFE701208DF8230047F26460C2F2010004210170DEE371
:2042600009980068F1282BDBFFE709984068C92826DBFFE709980068B0F5B47F20DAFFE74E
:2042800009984068B0F5887F1ADAFFE747F26460C2F201000078032808D0FFE747F264603F
:2042A000C2F20100007804280AD1FFE701208DF8230047F26460C2F2010005210170ADE342
:2042C00009980068B0F5B47F33DDFFE709984068C9282EDBFFE709980068B0F5F07F28DABF
:2042E000FFE709984068B0F5887F22DAFFE747F26460C2F201000078032810D0FFE747F2AD
:204300006460C2F201000078042808D0FFE747F26460C2F20100007805280AD1FFE7012089
:204320008DF8230047F26460C2F201000721017073E347F26460C2F201000078062866D1A5
:20434000FFE709980068C9281ADBFFE7099840685B2815DBFFE709980068B0F5A07F0FDA4A
:20436000FFE709984068B0F5867F09DCFFE701208DF8230046F62541C2F20101087045E0DB
:2043800009980068012819DBFFE7099840685B2814DBFFE70998006877280FDCFFE7099856
:2043A0004068B0F5867F09DCFFE701208DF8230046F62441C2F20101087026E00998006839
:2043C000B0F5C87F20DDFFE70998406897281BDBFFE709984068BD2816DCFFE701208DF87E
:2043E0002300F8F7E5F847F61861C2F2010108600868002807D1FFE747F61860C2F201003A
:2044000001210160FFE7FFE7FFE7FFE704E347F26460C2F2010000780F2840F0BC80FFE7E7
:2044200040F2F070C2F2010006210170FEF77CFE56210128C8BF0A2107914FF000008DF880
:204440001B008DF81A00FFE79DF81A000290FEF76BFE0299814280F29D80FFE7FEF794FEC3
:204460008DF81900FEF790FE04281DDBFFE7FEF78BFE042804D1FFE702208DF8190012E0FA
:20448000FEF782FE052809D1FFE79DF81A0003210028C8BF02218DF8191003E003208DF8DC
:2044A0001900FFE7FFE7FFE79DF8190000EB80014FF4C872A2EB0111013091FBF0F08DF8D9
:2044C000180000208DF81700FFE79DF817009DF8191088424DDAFFE79DF818009DF8171078
:2044E0009DF81920B1FBF2F303FB12114A1C504301EB810100EB011004900998006804999F
:2045000088422FDDFFE70998006804995031884228DAFFE7099840680799884222DDFFE76E
:20452000099840680799783188421BDAFFE701208DF823009DF81B009DF81710084440F291
:20454000F071C2F201010870F8F732F847F26421C2F20101086040F6B450C2F201000021C7
:20456000016006E0FFE79DF8170001308DF81700ABE79DF819009DF81B1008448DF81B00A9
:20458000079882300790FFE79DF81A0001308DF81A0059E73FE247F26460C2F20100007843
:2045A000102840F09180FFE709980068B0F5C87F80F28980FFE70998006840F2B171C2F235
:2045C00001010978C822A2EB5101884234DDFFE70998006840F2B171C2F201010978C82250
:2045E00002EB5101884227DAFFE7EDF7EDF900280AD0FFE70998406802218828B8BF012164
:204600000846EDF75DFB13E0EDF7F2F900EB400046F63841C2F2010101EB800009994968F9
:2046200002228829B8BF01221146EDF705F9FFE701208DF8230045E009984068C12840DBB1
:20464000FFE709980068B0F5A07F19DDFFE7EDF7BBF9002804D0FFE70020EDF775F906E0F9
:20466000EDF7C6F90130C0B2EDF76EF9FFE740F2F370C2F20100012101708DF823101FE02F
:20468000099800684F281ADCFFE7EDF7B1F9002805D1FFE7EDF7D8FBEDF756F906E0EDF798
:2046A000A7F90138C0B2EDF74FF9FFE740F2F370C2F20100012101708DF82310FFE7FFE73C
:2046C000FFE7FFE7FFE7A5E147F26460C2F20100007812284AD1FFE709980068B0F5C87F48
:2046E0002ADAFFE709984068752824DBFFE709984068D7281FDCFFE709980068BD2812DC00
:20470000FFE747F26460C2F201001321017047F27A50C2F201000121017040F2F370C2F2C8
:204720000100017006E047F26460C2F201000B210170FFE7FFE718E009984068A02813DB0F
:20474000FFE747F26460C2F201000221017047F25440C2F201000021017040F2F370C2F2D0
:20476000010001210170FFE7FFE752E147F26460C2F20100007814284DD1FFE709984068F3
:20478000B32819DCFFE740F2F070C2F20100007847F29031C2F2010101EB401009990A68A4
:2047A0004968019010460DF00DFE0199009008460099FEF789FA27E040F2F070C2F2010082
:2047C000007847F29031C2F2010101EB401009990968143900EE101AB8EEC00A41F23C110D
:2047E000C0F60501098801EE101AB8EE411A80EE010A9FEDCF1A20EE010ABDEEC00A10EED8
:20480000101AFEF741FAFFE740F2F370C2F2010001210170FCE0099800686528C0F2F780E0
:20482000FFE7099840686528C0F2F180FFE709980068B0F5C87F80F2EA80FFE709984068B3
:20484000B0F5887F80F2E380FFE747F26460C2F201000078002840F0DA80FFE746F61E4095
:20486000C2F201000078002813D0FFE746F61E40C2F201000078002800F0C880FFE746F6D1
:204880001050C2F2010080788007002800F1BE80FFE700208DF80F0001218DF8231047F280
:2048A0006462C2F2010211708DF80E00FFE79DF80E00052825DCFFE79DF80E0047F290312D
:2048C000C2F2010101EB4010FEF74AFB002811D0FFE79DF80E0047F29031C2F2010101EB7E
:2048E0004010FEF7DDFA002804D0FFE701208DF80F0006E0FFE79DF80E0001308DF80E00D2
:20490000D5E79DF80F00002837D0FFE740F6B850C2F20100007800282FD0FFE740F6B45070
:20492000C2F201000068002827D1FFE747F2F850C2F201000078ECF7D7FD07280ADBFFE7F5
:2049400047F2F850C2F201000078ECF7CDFD142813DBFFE7F7F72CFE40F6B451C2F20101E3
:2049600008600868002807D1FFE740F6B450C2F2010001210160FFE747E040F6B450C2F20C
:204980000100002101609DF80F00002803D0FFE705F016FDFFE700208DF80D00FFE79DF8F4
:2049A0000D00052830DCFFE79DF80D0047F29031C2F2010101EB4010FEF7D2FA00281CD068
:2049C000FFE79DF80F0000280BD0FFE79DF80D0047F29031C2F2010101EB4010FEF70CF8DD
:2049E0000AE09DF80D0047F29031C2F2010101EB4010FEF739F8FFE7FFE7FFE79DF80D00C5
:204A000001308DF80D00CAE7FFE7FFE7FFE7FFE7FFE7FFE7FFE7FFE7FFE7FFE7FFE7FFE75A
:204A2000FFE7FFE709980068B0F5BE7F17DDFFE709984068062812DBFFE709980068B0F5ED
:204A4000ED7F0CDCFFE709984068632807DCFFE746F62640C2F2010001210170FFE79DF81A
:204A60002300002804D0FFE70120F7F711FAFFE759E047F26460C2F201000078012807D1CD
:204A8000FFE747F26460C2F201000021017025E047F26460C2F2010000780F281DD1FFE7B2
:204AA00047F26420C2F201000068002814D0FFE747F26420C2F201000021016040F2F070A4
:204AC000C2F20100007847F29031C2F2010101EB4010FDF76DFEFFE7FFE7FFE746F626400A
:204AE000C2F201000021017046F62440C2F20100017046F62540C2F20100017046F62E4038
:204B0000C2F20100017046F62F40C2F20100017046F63040C2F20100017047F61860C2F263
:204B200001000160FFE7EDF71FFA0AB080BD00BF0000C8420000000080B5ADF5027D4FF2D9
:204B40004240C1F6F07000886B90FFE743F64400C4F20200016841F480710160006800F4D2
:204B6000807066906698FFE746F65460C2F2010042F20001C4F2010101604FF480314160E3
:204B8000002181600161816101624162C162C1600122C26101634261F6F7D6FB002805D07D
:204BA000FFE7A4209721F5F75FFDFFE71220C1F200006790012068900721699146F654625C
:204BC000C2F2010267AB659010466491194663926293F6F751FA42F20431C4F201010A68B8
:204BE00042F400020A6063990A68936843F00103936061900846F6F797FC0A21639A6090A9
:204C000010465F91F6F700FC63995E900846F6F793FB71904FF24E40C1F6F07000884FF202
:204C20004C41C1F6F0710A88801A5D91EBF7C0FC41EC100B51EC100B9FED950B53EC102BD1
:204C4000EBF747FC41EC100B51EC100BEBF700FD6E909DED711AB8EEC11A40F23C70C2F28A
:204C6000010090ED002A5D98018803EE101AB8EEC33A11EE023A9DED6E1A83EE011AB3EED6
:204C80000E2A31EE021A8DED6D1A1121679165996891649A699263986299F6F7EDF96399C1
:204CA0005C900846F6F740FC63995B9008465F99F6F7AAFB63995A900846F6F73DFBADF8D4
:204CC000BE016398F6F700FBBDF8BE1101EE101AB8EE411A9FED702A82EE011A8DED6C1AE3
:204CE0005990F7F76DFC7090FFE7709842F2117188420CDBFFE7709846F26761C6F26661B2
:204D000050FB01F0811001EBD0707090EDE77098F7F7BEF8002058900BF0B0FC5899579093
:204D200008460BF0C5FC0AF0CAF801200BF0A6FC4FF07F41569008460BF0B8FC0AF0BFF85C
:204D40000AF0CEFC41F6C011C0F6050172AA559010465492EBF79BFA549953900846EBF717
:204D600082FA82B247F23810C2F201002D215290549B51911946519BFCF7EAFB45F2D461BD
:204D8000C0F60301509008460BF0A0FC6FF07F414F9008460BF08CFC02200BF0F7FC0C2188
:204DA0004E9008464D910BF0E7FC41F6C511C0F60501549A4C9010464B91EBF768FA2821B9
:204DC0000A224A900846499111460AF0FBFD5499489008460AF0D0F95498EBF744FA82B246
:204DE00052985499519BFCF7B3FB41F63131C0F60501549A47901046EBF749FA1921499A9D
:204E0000469010460AF0DEFD4D99459008460BF0B3FC5499449008460AF0AEF95498EBF760
:204E200022FA82B252985499519BFCF791FB5499439008464B99EBF72AFA499942900846E6
:204E40000AF0C0FD4D99419008460BF095FC5499409008460AF090F95498EBF704FA82B27C
:204E600052985499519BFCF773FB6B99B1F5806F14D3FFE76B98800A6B906B9A41F61421AF
:204E8000C0F6050172A81CF0AFFE10E000BF00BF0000000000005440002A93456B9A41F643
:204EA0000021C0F6050172A81CF09EFEFFE7282037213F900AF086FD0C213E9008463D916A
:204EC0000BF05AFC72A93C9008463B910AF054F93B98EBF7C8F982B247F23810C2F2010059
:204EE0002D213A903B9B39911946399BFCF730FB3890FAF7B5FE4DF68361C4F21B31A0FB79
:204F000001018A0C41F65231C0F605013B9B379018461CF069FE46213F9A369010460AF0BF
:204F200051FD3D99359008460BF026FC3B99349008460AF021F93B98EBF795F982B23A98DA
:204F40003B99399BFCF704FB6C9933900846EBF76CFB41EC100B53EC102B41F64421C0F644
:204F600005013B981CF040FE55213F9A329010460AF028FD3D99319008460BF0FDFB3B99DC
:204F8000309008460AF0F8F83B98EBF76CF982B23A983B99399BFCF7DBFA6D992F90084676
:204FA000EBF743FB41EC100B53EC102B41F62821C0F605013B981CF017FE64213F9A2E90C3
:204FC00010460AF0FFFC3D992D9008460BF0D4FB3B992C9008460AF0CFF83B98EBF743F94B
:204FE00082B23A983B99399BFCF7B2FA2B90F7F7D7FA41F69921C0F605013B9A2A90104658
:205000002A9A1CF0F1FD73213F9A299010460AF0D9FC3D99289008460BF0AEFB3B9927907C
:2050200008460AF0A9F83B98EBF71DF982B23A983B99399BFCF78CFA2690F7F7C1FA259081
:20504000F7F7C6FA2490F7F7CBFA6946086041F61B31C0F605013B98259A249B1CF0C4FDC7
:2050600082213F9A239010460AF0ACFC3D99229008460BF081FB3B99219008460AF07CF87B
:205080003B98EBF7F0F882B23A983B99399BFCF75FFA42F20801C0F60001096821F07F4242
:2050A00041F67C21C0F605013B9B209018461CF09BFD91213F9A1F9010460AF083FC3D99F9
:2050C0001E9008460BF058FB3B991D9008460AF053F83B98EBF7C7F882B23A983B99399B50
:2050E000FCF736FA42F20801C0F60101096821F07F4241F66321C0F605013B9B1C901846FE
:205100001CF072FDA0213F9A1B9010460AF05AFC3D991A9008460BF02FFB3B99199008466B
:205120000AF02AF83B98EBF79EF882B23A983B99399BFCF70DFA47F61761C2F201010A7873
:2051400041F6A921C0F605013B9B189018461CF04BFDAF213F9A179010460AF033FC3D99BD
:20516000169008460BF008FB3B99159008460AF003F83B98EBF777F882B23A983B99399BAF
:20518000FCF7E6F947F61561C2F201010A7841F6C721C0F605013B9B149018461CF024FD72
:2051A000BE213F9A139010460AF00CFC3D99129008460BF0E1FA3B991190084609F0DCFF09
:2051C0003B98EBF750F882B23A983B99399BFCF7BFF947F61461C2F201010A7841F6E12156
:2051E000C0F605013B9B109018461CF0FDFCCD213F9A0F9010460AF0E5FB3D990E900846C2
:205200000BF0BAFA3B990D90084609F0B5FF3B98EBF729F882B23A983B99399BFCF798F96B
:2052200047F61661C2F201010A7841F6FF21C0F605013B9B0C9018461CF0D6FCDC213F9AEB
:205240000B9010460AF0BEFB3D990A9008460BF093FA3B990990084609F08EFF3B98EBF76E
:2052600002F882B23A983B99399BFCF771F941F68811C0F605013B9A08901046EBF707F8F9
:20528000EB213F9A079010460AF09CFB3D99069008460BF071FA3B990590084609F06CFF70
:2052A0000AF01EFA3B9904900846EAF7DCFF82B23A983B99399BFCF74BF947F2DF51C2F268
:2052C000010101223A9B03901846FCF781F80290ECF74AFE00207090FFE77098092809DC96
:2052E000FFE74FF47A70F6F7D3FDFFE7709801307090F2E70DF5027D80BD00000000000028
:2053000081B001468DF803009DF8030047F27B52C2F20102322310FB0320323801B07047E3
:2053200080B584B002468DF80F0002910298019200F02AF8002812D0FFE79DF80F0047F289
:205340007B51C2F20101322210FB02103238029A41F66F11C0F605011CF046FCFFE704B0F9
:2053600080BD00000000000081B001468DF803009DF8030000223228B8BF0122104601B03B
:20538000704700000000000080B582B001900198EAF769FFC0B2FFF7E7FF02B080BD00003F
:2053A00080B584B0029047F21460C2F201004FF480718161052101600021C16101624FF00E
:2053C000807242624161C1620163416347F24C62C2F201021160012353601161D3601021AE
:2053E00091604FF480015161029B47F28C01C2F20101019008460199F8F772FF002804D058
:20540000FFE701208DF80F0003E000208DF80F00FFE79DF80F0004B080BD000000000000DF
:2054200080B583B00290019100920198406A00280CD0FFE70098B0F1406F07D0FFE70198E3
:20544000806A0138029909680861FFE701988069002800F0AB80FFE70198006A002856D0D2
:20546000FFE70198806802990968C8610198C06900282DD0FFE70198C16A026B1143426B91
:205480001143426A11430268C368D0F810C0D0F814E041EA8E4141EA0C01D0F820C041EACA
:2054A0000C011943C3691943806908431043009908430299096848610098B0F1406F06D01D
:2054C000FFE701984068029909688861FFE71DE00198C16A026B1143426B1143426A114347
:2054E00002680369D0F814C0D0F818E041EA8C411943036A1943C069084340EA0E0010435E
:2055000000990843029909684861FFE74DE00198C06900282BD0FFE70198C16A026B11438F
:20552000426B1143426A11430268C368D0F814C0D0F818E041EA8C41D0F820C041EA0C01A1
:205540001943C069084340EA0E001043009908430299096848610098B0F1406F06D0FFE7B3
:2055600001984068029909688861FFE71CE00198C16A026B1143426B1143426A1143026823
:205580004369D0F818C0D0F81CE041EA8341006A084340EA0E0040EA0C00104300990843B2
:2055A000029909684861FFE7FFE7A3E00198006A002851D0FFE70198806802990968C861FF
:2055C0000198C069002829D0FFE70198C16A026B1143426B1143426A1143C2680369D0F81E
:2055E00014C0D0F818E041EA8C411943036A19431143C069084340EA0E000099084302997B
:20560000096848610098B0F1406F06D0FFE701984068029909688861FFE71CE00198C16AF0
:20562000026B1143426B1143426A114302694369D0F818C0D0F81CE041EA83411143006A80
:20564000084340EA0E0040EA0C0000990843029909684861FFE74CE00198C069002828D004
:20566000FFE70198C16A026B1143426B1143426A1143C2684369D0F818C0D0F81CE041EA59
:205680008341006A0843104340EA0E0040EA0C00009908430299096848610098B0F1406F4F
:2056A00006D0FFE701984068029909688861FFE71EE00198406A002819D0FFE70198C16A16
:2056C000026B1143426B1143426A114342698369D0F81CC0006A41EA8241084340EA0C00F4
:2056E000184300990843029909684861FFE7FFE7FFE7FFE703B080BD80B582B0019001989D
:20570000806B00900098002181630098C162009890F84100082811D1FFE70098006802213A
:20572000C16000980068016841F40031016000980068016841F00201016007E00098012179
:2057400080F841100098F8F73BFFFFE702B080BD80B588B047F21460C2F201004FF48071E7
:205760008161852101600021C16101624FF0807242624161C162016341630121816247F2BA
:205780008C01C2F2010141F28832029008460299F8F74EFE002804D0FFE701208DF8170084
:2057A0006AE047F28C00C2F201000DF10F0141F28832F9F701FB002804D0FFE701208DF8B6
:2057C000170059E000F00CFB002804D0FFE701208DF8170050E09DF80F00049047F21460CE
:2057E000C2F2010081210160049820F0F0004FF07061069106990029019004D1FFE720205A
:205800008DF81F0005E00698B0FA80F08DF81F00FFE79DF81F000A2101FA00F0019908430E
:20582000049004988DF80F0047F28C00C2F2010047F21461C2F2010141F28832F8F7F8FDF5
:20584000002804D0FFE701208DF8170014E047F28C00C2F201000DF10F0141F28832F9F750
:2058600077FB002804D0FFE701208DF8170003E000208DF81700FFE79DF8170008B080BDF1
:2058800080B584B002900191BDF80A0000040090FFE70098019988420FD8FFE7009800F0F1
:2058A00017F8002804D0FFE701208DF80F0008E0009800F580300090EBE700208DF80F0007
:2058C000FFE79DF80F0004B080BD00000000000080B590B00E904FF480700690D8200090E9
:2058E0004FF4806007904FF4005003900E9820F07040019000200890099005900B900C90B4
:205900000D9000F06DFA002804D0FFE701208DF83F001EE047F28C00C2F20100694641F272
:205920008832F8F785FD002804D0FFE701208DF83F000EE040F6B830FFF732FD002804D048
:20594000FFE701208DF83F0003E000208DF83F00FFE79DF83F0010B080BD000000000000FE
:2059600080B584B040F6B950C2F20100007800283ED1FFE7FFF7ECFE002804D0FFE7012052
:205980008DF80F0038E047F21460C2F201004FF4807181614FF40051C16000210162016148
:2059A000C162016341634FF44062C26141604FF0407242628162EB2202600A2242610291CA
:2059C00047F28C01C2F2010101AA009008460099F9F746F8002804D0FFE701208DF80F0064
:2059E0000AE040F6B950C2F2010001210170FFE700208DF80F00FFE79DF80F0004B080BD21
:205A0000FFE747F28C00C2F20100006880688006002801D5FFE7F4E747F28C00C2F2010017
:205A2000016842F266124A61016800228A610168CA6100680261BFF34F8FFFE747F28C0096
:205A4000C2F20100006880688006002801D5FFE7F4E747F28C00C2F20100016842F299123A
:205A60004A61016800228A610168CA6100680261BFF34F8FFFE747F28C00C2F2010000684E
:205A800080688006002801D5FFE7F4E747F28C00C2F20100016842F266224A610168002204
:205AA0008A610168CA6100680261BFF34F8FFFE747F28C00C2F201000068806880060028AE
:205AC00001D5FFE7F4E747F28C00C2F20100016842F299224A61016800228A610168CA61A8
:205AE00000680261BFF34F8FFFE747F28C00C2F20100006880688006002801D5FFE7F4E756
:205B000047F28C00C2F20100016842F266324A61016800228A610168CA6100680261BFF3A4
:205B20004F8FFFE747F28C00C2F20100006880688006002801D5FFE7F4E747F28C00C2F219
:205B40000100016842F299324A61016800228A610168CA6100680261BFF34F8F7047000015
:205B600080B586B0DDF820C09646049003918DF80B200193FFE70498006880680399084007
:205B8000002818BF01209DF80B10884220D0FFE70898013000281AD0FFE70898002808D02C
:205BA000FFE7F6F705FD0199401A089988420DD9FFE70498042180F841100498416C41F0E1
:205BC0000101416401208DF8170005E0FFE7D2E700208DF81700FFE79DF8170006B080BD9C
:205BE00080B58CB00A900991089200200790069005900490039002909DF8240005900598E0
:205C0000C0F5807004900898000A07909DF8200006900598002847D1FFE7079800280FD155
:205C2000FFE708980290099802990A9A00F034F9002804D0FFE701208DF82F00CBE032E0DB
:205C4000FFE70798411E0791002818D0FFE74FF480700290099802990A9A00F01DF90028FF
:205C600004D0FFE701208DF82F00B4E0099800F5807009900A9800F580700A90E1E706985B
:205C80000290029800280DD0FFE7099802990A9A00F002F9002804D0FFE701208DF82F006B
:205CA00099E0FFE7FFE792E0079800283BD1FFE706980499884226D9FFE706980499401AF5
:205CC000039004980290099802990A9A00F0E4F80499099A1144099104990A9A11440A91F7
:205CE000039902910999029A0A9B0190084611461A4600F0D1F8002804D0FFE701208DF8BB
:205D00002F0068E00EE008980290099802990A9A00F0C2F8002804D0FFE701208DF82F00AB
:205D200059E0FFE752E004980899081A08900898000A07909DF820000690049802900998C0
:205D400002990A9A00F0A8F8002804D0FFE701208DF82F003FE004980999084409900498DF
:205D60000A9908440A90FFE70798411E0791002818D0FFE74FF480700290099802990A9A83
:205D800000F08AF8002804D0FFE701208DF82F0021E0099800F5807009900A9800F5807033
:205DA0000A90E1E7069800280FD0FFE706980290099802990A9A00F06FF8002804D0FFE7AD
:205DC00001208DF82F0006E0FFE7FFE7FFE700208DF82F00FFE79DF82F000CB080BD0000DF
:205DE00080B584B047F21460C2F201004FF480718161062101600021C1610162416241614F
:205E0000C1620163416347F28C01C2F2010141F28832029008460299F8F70AFB002804D083
:205E2000FFE701208DF80F0030E047F24C60C2F20100022101604160002101610121C16032
:205E4000102282604FF48002426147F21462C2F20102052313604FF080735362916247F2B2
:205E60008C01C2F2010141F28833019008461146019AF8F735FA002804D0FFE701208DF87A
:205E80000F0003E000208DF80F00FFE79DF80F0004B080BD0000000080B592B010900F912A
:205EA0000E924FF480700690122000904FF4406007904FF400500390109820F0704001901E
:205EC000002008904FF04071099105900F990A910B900C900D90FFF783FF002804D0FFE77A
:205EE00001208DF847002EE047F28C00C2F20100694641F28832F8F79BFA002804D0FFE72B
:205F000001208DF847001EE00E9947F28C00C2F2010041F28832F9F71BF8002804D0FFE7A3
:205F200001208DF847000EE041F28830FFF738FA002804D0FFE701208DF8470003E00020A1
:205F40008DF84700FFE79DF8470012B080BD000080B547F28C00C2F20100F8F739FB80BDA5
:205F600080B5A6B00DF1020000219222F4F784F99DF80C1047F25142C2F2010211709DF80F
:205F80000D1046F6E072C2F2010211709DF80E1047F26C62C2F2010211709DF80F1047F23F
:205FA0006762C2F2010211709DF8101047F26662C2F2010211709DF8111047F26562C2F288
:205FC000010211709DF81210012909D1FFE746F61050C2F20100016841F48021016008E0C3
:205FE00046F61050C2F20100016821F480210160FFE79DF8130047F2EC61C2F2010108708E
:206000009DF8220047F61761C2F2010108709DF8230047F61561C2F2010108709DF8240094
:2060200047F61461C2F2010108709DF8250047F61661C2F201010870DDF8260000BA47F6F2
:206040001061C2F2010108609DF82A009DF82B1041EA002047F2EE61C2F20101088046F6D5
:20606000E070C2F201000078002807D1FFE746F6E070C2F2010001210170FFE747F2514039
:20608000C2F20100007846F6E071C2F20101097888420BDBFFE746F6E070C2F201000078C0
:2060A00047F25141C2F201010870FFE747F26C60C2F201000078002807D1FFE747F26C60E4
:2060C000C2F2010001210170FFE747F26760C2F201000078182807DBFFE747F26760C2F2A9
:2060E000010000210170FFE747F26660C2F201000078182807DBFFE747F26660C2F201003F
:2061000000210170FFE747F26560C2F2010000781C2807D3FFE747F26560C2F20100002104
:206120000170FFE726B080BD80B584B00146ADF80E00BDF80E0000EE100AB8EEC00A9FEDCB
:20614000301A31EE400A81EE000ABFEE001A30EE010A9FED2C1A20EE010A8DED010A9DED29
:20616000010A80EE010A10EE100A0091EAF75DFA41EC100B1BF0C8FD51EC100B9FED180B9B
:2061800053EC102BEAF733F941EC100B51EC100B9FED150B53EC102BEAF782F841EC100B0F
:2061A00053EC102B9FED120B51EC100BEAF791F941EC100B51EC100B9FED0F0B53EC102B39
:2061C000EAF76EF841EC100B51EC100BEAF740FA02909DED020A04B080BD00BF00BF00BF67
:2061E000000000A099A17240000000000012AF40000000C007173241000000A0991171C046
:2062000000F07F4500401C4680B547F23810C2F20100016801220A62016802220A62016863
:2062200004220A62016810220A62006808210162FFE747F23810C2F2010001688A6942F027
:2062400008028A610068816941F010018161FFE747F23810C2F201000021C16647F2DF5106
:20626000C2F201010122FBF7B3F880BD0000000080B582B047F2A460C2F201000021416050
:20628000018147F21820C2F201000078C007002815D1FFE747F22070C2F2010000210190F3
:2062A00002F042FA47F21821C2F2010108704AF6A911C0F60001019801F0A6FEFFE747F212
:2062C0003810C2F2010047F2DF51C2F201010122FBF77EF802B080BD80B582B047F2DF5059
:2062E000C2F20100017847F22072C2F201020190104601F025FD47F23810C2F2010001229B
:206300000199FBF765F802B080BD00000000000080B59AB047F2E850C2F201000078C007C1
:2063200000282AD0FFE7F6F743F947F2EC51C2F20101096841F28832114488421BD9FFE7A9
:2063400047F22070C2F20100022102F061FA47F2E851C2F201010A6822F001020A6047F6F9
:206360006061C2F2010100220A6046F62041C2F201010A60FFE700F0A5BCF6F719F946F6EB
:206380001451C2F201010968401A3228C0F09984FFE746F62D40C2F201000078002800F01C
:2063A0007280FFE746F62D40C2F201000078A13801463528159100F25E801599DFE801F0D6
:2063C000395B5B5B5B5B5B5B5B5B5B475B5B5B5B5B5B5B5B5B5B5B5B2B1B5B5B5B5B5B2836
:2063E0005B5B5B5B5B5B5B5B5B5B5B5B5B5B5B5B5B5B5B5B5B5A01208DF867000DF1670159
:206400009022149008461146149AF3F77DFFFFE700F0FEFD2FE0FDF757F94FF010406FF05B
:20642000DE41FFF72DFA1390FDF74EF9FFF798FA21E0FEF781FB47F23810C2F2010047F2D9
:20644000DF51C2F201010122FAF7C2FF13E047F61C60C2F20100C17847F2F162C2F20102A4
:2064600011704088507047F21170C2F201000221017000E0FFE746F62D40C2F201000021CB
:20648000017000F01DBC05F0D7FB002808D0FFE747F2A460C2F201004068002845D0FFE758
:2064A00047F2A460C2F201004068002810D0FFE747F22070C2F2010047F2A461C2F20101E2
:2064C00042F24102C0F60102322302F059F918E047F2EA60C2F201000378684632214160A6
:2064E00042F24101C0F60101016047F22070C2F2010047F2B862C2F20102172102F054F90E
:20650000FFE747F2A460C2F2010000214160018147F2EA60C2F20100017047F2B860C2F2B1
:206520000100322206F008F9C9E347F21170C2F201000078002828D0FFE747F21170C2F208
:2065400001000378694632224A6042F24102C0F601020A6047F22071C2F2010147F2F1626C
:20656000C2F201024FF0060C12900846614602F01BF91190F6F71CF846F61451C2F201017D
:20658000086000201299087098E347F26220C2F201000078002828D0FFE747F26220C2F278
:2065A00001000378694632224A6042F24102C0F601020A6047F22071C2F2010147F24222FB
:2065C000C2F201024FF0030C10900846614602F0EBF80F90F5F7ECFF46F61451C2F201017F
:2065E000086000201099087067E346F60E50C2F201000078002828D0FFE746F60E50C2F28D
:2066000001000378694632224A6042F24102C0F601020A6047F22071C2F2010146F6EE42CB
:20662000C2F201024FF0040C0E900846614602F0BBF80D90F5F7BCFF46F61451C2F2010181
:20664000086000200E99087036E347F61C60C2F2010090F82800002800F0DB80FFE747F2CA
:20666000EA60C2F2010001784A1C027047F2B860C2F20100DF22425447F61C60C2F20100BF
:2066800090F82800C007002829D0FFE747F61C60C2F2010090F8281001F0FE0180F82810AE
:2066A000C17D47F2EA62C2F20102137847F2B86CC2F2010C0CF80310C18A1378634459705A
:2066C000117802311170C07B0221002818BF0121107800F1010313700CF80010FFE747F6C7
:2066E0001C60C2F2010090F828008007002829D5FFE747F61C60C2F2010090F8281001F007
:20670000FD0180F82810417E47F2EA62C2F20102137847F2B86CC2F2010C0CF80310018B84
:20672000137863445970117802311170C07B0221002818BF0121107800F1010313700CF89E
:206740000010FFE747F61C60C2F2010090F828004007002829D5FFE747F61C60C2F2010064
:2067600090F8281001F0FB0180F82810C17E47F2EA62C2F20102137847F2B86CC2F2010C98
:206780000CF80310418B137863445970117802311170C07B0221002818BF0121107800F1E6
:2067A000010313700CF80010FFE747F61C60C2F2010090F828000007002829D5FFE747F6EA
:2067C0001C60C2F2010090F8281001F0F70180F82810417F47F2EA62C2F20102137847F26F
:2067E000B86CC2F2010C0CF80310818B137863445970117802311170C07B0221002818BFFC
:206800000121107800F1010313700CF80010FFE751E200208DF86600FFE79DF866000E2807
:2068200000F39D80FFE79DF8660000EB400046F63841C2F2010101EB800018901898EBF72B
:2068400003F9002801D1FFE783E01898EBF7E4F8002804D0FFE71898EBF7AEF8FFE71898DB
:20686000EBF7CEF8002873D0FFE70020ADF85E001898EBF741F900280CD1FFE71898EBF7B3
:206880002FF900280BD0FFE71898EBF711F9002805D0FFE71898EAF727FF0C9004E0189881
:2068A000EAF71AFF0C90FFE70C98ADF85E009DF85F0047F2EA61C2F201010A7847F2B863B1
:2068C000C2F201039854BDF85E000A781A4450700878023008701898EBF702F9002803D0AF
:2068E000FFE700200B9008E01898EBF705F90221002818BF01210B91FFE70B9847F2EA6192
:20690000C2F201010A78531C0B7047F2B861C2F20101885447F26460C2F20100007810280F
