:020000040800F2
:20000000A0210020DD0100080D1F0008411D0008091F000889020008D525000800000000BA
:20002000000000000000000000000000EF010008E903000800000000F3010008971F00081A
:20004000F7010008F7010008F7010008F7010008F7010008F7010008F7010008F7010008A0
:20006000F7010008F7010008F7010008F7010008F7010008F7010008F7010008F701000880
:20008000F7010008F7010008F7010008F7010008F7010008F7010008F7010008F701000860
:2000A000F7010008F7010008F7010008F7010008F7010008F7010008F7010008F701000840
:2000C000F7010008F7010008F7010008F7010008F7010008F7010008F7010008F701000820
:2000E000F7010008F7010008F7010008F7010008F7010008F7010008F7010008F701000800
:20010000F7010008F7010008F7010008F7010008F7010008F7010008F7010008F7010008DF
:20012000F7010008F7010008F7010008F7010008F7010008F7010008F7010008F7010008BF
:20014000F7010008F7010008F7010008F7010008F7010008F7010008F7010008F70100089F
:20016000F7010008F7010008F7010008F7010008F7010008F7010008F7010008000000007F
:20018000F7010008F7010008F7010008F7010008F7010008F7010008F7010008F70100085F
:2001A000F7010008F7010008F7010008F7010008851F0008F7010008F7010008F701000893
:2001C000F7010008F7010008DFF80CD000F04AF80048004721260008A02100200648804766
:2001E00006480047FEE7FEE7FEE7FEE7FEE7FEE7FEE7FEE7FEE7FEE789250008C9010008F0
:2002000040EA01039B0703D009E008C9121F08C0042AFAD203E011F8013B00F8013B521EC2
:20022000F9D27047D2B201E000F8012B491EFBD270470022F6E710B513460A4604461946B2
:20024000FFF7F0FF204610BD30B504460020034600E05B1C934203D2E05CCD5C401BF8D065
:2002600030BD0000064C074D06E0E06840F0010394E8070098471034AC42F6D3FFF7A8FF8F
:20028000382700085827000801F0B2BEF0B521480168890312D4BFF34F8F0021BFF36F8FC5
:2002A000C0F83C12BFF34F8FBFF36F8F016841F400310160BFF34F8FBFF36F8F0168C90353
:2002C00026D40021016743F6E07CBFF34F8FC26EC2F34E31C2F3C9039A0701330CEA411570
:2002E00016461F4646EA050406F14046013FC0F84C42F7D14C1E00292146EFD1BFF34F8FEF
:20030000016841F480310160BFF34F8FBFF36F8FF0BD00BF14ED00E070B58B1C54084CB17B
:2003200033F8025C1E880433013C46EA054506683560F4E7D30701D1006805E022F00102B4
:20034000006831F812100180006870BD70B54B1C94083CB153F8016C05680433013C36BA36
:200360002E60F6E702F00303032B09D0022B14D0012B1BD122F00302895C0268117015E00E
:2003800022F00302541C8B5C02320C5D44EA032304682380895C217008E022F003028B5C93
:2003A0000132895C026841EA032111800068006870BD000010B501686FF00F02182308A459
:2003C00052FA81F2B2FBF3F35F2AE35C40F2FF3421EA040188BF0431C0E91613084610BD25
:2003E000000610160006101670472DE9F04FC1B091468A468046541801F006FD504621465E
:2004000001F0CEFE08B1012027E00DF1040B4F4646465546AFB13C46B7F5807F58463146D3
:2004200028BF4FF480742246FFF7EAFE58462946224601F096FF0028E5D13F1B2644254452
:20044000E8E701F0E1FC01F0F5FE404651464A46FFF7FAFE002818BF012041B0BDE8F08F4B
:20046000524A0329136823F4407313604FF4407338BF0B02116819431160116821F0F80139
:200480001160116841EAC00040F002001060106840F480301060BFF34F8F704700F1784128
:2004A000B1F5003F02D2C1F3C73070470E4A02F5003100EA01030D498B4201D1042011E0A9
:2004C00002400B48824204D00A48824203D1062008E0052006E001F520214FF0FF308A427B
:2004E00008BF0720C0B270470000FCFF0000020800000408000008082C490A6822F4407215
:200500000A600A6842F004020A600A6842EA002040F480300860BFF34F8F7047234A136824
:2005200023F44073136013681360136843F0010313600170BFF34F8F704700BF10B51B49CB
:200540000C6824F440740C600C6844F440740C600C6844F001040C6002604360BFF34F8F75
:2005600010BD00BF114A136823F440731360136843F480731360136843F00103136001801E
:20058000BFF34F8F704700BF084A136823F440731360136843F400731360136843F0010301
:2005A00013600160BFF34F8F704700BF103C024029480168890704D526498A6942F02002DA
:2005C0008A610168C90604D522498A6942F010028A610168890604D51E498A6942F008022B
:2005E0008A610168490604D51A498A6942F004028A610168090604D516498A6942F002022D
:200600008A61F22101607047F8B5044611480021114E816100F0ECFB0546671C3068C00312
:2006200009D5002FFAD024B100F0E2FB401BA042F4D90320F8BD306810F0F20F03D0FFF7FD
:20064000B7FF0120F8BD3068C00701D0012030600020F8BD800100200C3C0240FEB5016910
:20066000044601F17840B0F1094F01D9012245E04FF4005042F2040242F20C0300270858D4
:2006800020608D5842F208026560461E8A58A260B7EB165FCB58E36001D002222EE00135F4
:2006A000022D01D2032229E00132022A01D2042224E00522B3F1006F20D300F10165AB423D
:2006C0001CD84FF0FF320E4DCDE9010228464FF4006200F065F801A92846022200F039F8E5
:2006E000206842F208022169801A11448208284600F02FF86168421A18BF0622D0B2FEBD4B
:200700001001002010B51F2321FA03F4E40704D1013B5C1CF8D14FF0FF330124B4EBF20F1C
:2007200009D04FEAF204022C10D0032C05D1062B03D9012010BD0F2BFBD8006841618168A3
:2007400021F0180111438160002010BD072BF0D8F3E710B5037F04460220012B1FD06077D4
:2007600001202077206A012809D002280BD003280DD172B1236801C9013A1860F9E72046B6
:20078000FFF7E4FD07E02046FFF7C6FD03E0002001E020680068002121770121617710BD28
:2007A000B0B5037F04460220012B22D06077012020772068236A012B856845F001058560EB
:2007C00008D0022B0AD0032B0CD16AB108C90360013AFAE72046FFF7B9FD06E02046FFF770
:2007E0009BFD02E0002000E000680021217701216177B0BDB0B598B10446407F02250228EF
:200800000FD0657700252068816841F00101816001790571204600F03FF82577657700E09E
:2008200001252846B0BD000010B588B10446407F20B900202077204600F02FF802206077AA
:20084000207938B1D4E902122046FFF75BFF40B1012010BD20680F494161816821F018011B
:200860008160607908B1206901E04FF0FF302168D4E905230861886820F0600010438860BB
:20088000886820F080001843886001206077002010BD00BFB71DC1047047704770B504467B
:2008A000866D00F0A5FA054694F8350002281ED12068216C026822F016020260426922F0C9
:2008C0008002426109B9A16C19B1016821F008010160016821F0010101600068C0070DD08D
:2008E00000F086FA401B052814D82068F5E7002084F8340080206065012070BDE06D3F2180
:2009000001FA00F0B0600121002084F8340084F8351070BD20206065002084F83400032004
:2009200084F8350070BD90F83510022909D1052180F835100068016821F0010101600020BF
:2009400070478021416501207047B0B530B1054690F83500022803D102241BE0012419E036
:2009600028680024016821F001010160046044608460C4600461212141612846FFF71AFD12
:20098000E96D3F2202FA01F181606C6585F8344085F835402046B0BD80B509484FF0FF3155
:2009A0000022016102614161426101600260416042608160826000F07BFA002080BD00BFC1
:2009C00010380240F8B5204800F0F1FB01F0D2F900F0D0FFFFF7E0FFBFF34F8F1B4843F620
:2009E000E07CBFF36F8F016821F4003101600021C0F83C12BFF34F8FBFF36F8F0167BFF35A
:200A00004F8F016821F480310160BFF34F8FC26EC2F34E31C2F3C9039A0701330CEA4115D2
:200A200016461F4646EA050406F14046013FC0F86042F7D14C1E00292146EFD1BFF34F8F93
:200A4000BFF36F8FF8BD00BF3401002014ED00E02DE9F041DFF81481054698F81400012871
:200A600002D10220BDE8F081012088F814000C464CF25030FFF7C8FD58BB4FF0FF302060EA
:200A80003B4F286801280BD1287BFFF735FD4CF25030FFF7B9FD396821F00401396018E0BA
:200AA00068680646A968084486420FD2297B3046FFF7D6FC4CF25030FFF7A6FD396821F029
:200AC0007A01396020B968680136EBE7002000E02660002188F81410BDE8F081244801681A
:200AE00041F0004101600020704700BF2DE9F041DFF87880074698F81400012802D1022068
:200B0000BDE8F081012088F814001E4614460D464CF25030FFF778FD10BB032F17D8DFE81D
:200B200007F002070C11E1B22846FFF7F7FC0EE0A1B22846FFF716FD09E028462146FFF742
:200B400023FD04E0284622463346FFF7F7FC4CF25030FFF759FD06490A6822F001020A600F
:200B6000002188F81410BDE8F08100BF80010020103C02400648C168B1F1FF3FC4BF0120B1
:200B8000704704490160044901600020704700BF043C024023016745AB89EFCD2DE9F04F15
:200BA0008D4A4FF00A0A4FF0000E01264FF00F094FF0000800259042884A08BF4FF0090A17
:200BC00002444FEAB223092B38BF4FEAB22A844AA2F57E7B102D47D006FA05F20A423DD07F
:200BE0000323076803FA0EF46FF0030303EA550CA743076000EB0C0308F01C0709FA07F747
:200C00001E6ABE431E628368A3438360436893434360C368A343AC08C36008F00C0309FA01
:200C200003F75BF824600AFA03F33E409E424FF0010613D15BF82430D243BB434BF8243010
:200C4000674C236813402360636813406360A3681340A360634C23681A4022600EF1020E19
:200C600008F104080135B5E7BDE8F08F2DE9F84F594A4FF00A094FF0000E4FF0010A4FF051
:200C80000F084FF0000B9042544A08BF4FF0090902444FEAB223092B38BF4FEAB2290022B6
:200CA000102A00F096800AFA02F60C68344200F08A804F6847F01004122C11D16FF003038D
:200CC0000BF01C0403EA520508FA04F70544D5F820C00B692CEA0707A3403B432B624F6885
:200CE000032407F003030568122F04FA0EF403FA0EF325EA04056FEA040443EA0503036013
:200D000011D80AFA07F313F0061F0CD08368CD68234005FA0EF52B4383603B09456893404E
:200D2000B5432B434360C36823408C6804FA0EF42343C360FB0046D52B4C294F22F0030580
:200D4000BC463D44236843F480432360236803F480430093009F0BF00C03244F08FA03F41B
:200D600009FA03F3B846EF5927EA0404234345F808304FF00F08DCF800304D6843EA0604FA
:200D8000EF0358BF23EA0604CCF80040AF03DCF8043043EA060458BF23EA0604CCF8044008
:200DA000EF02DCF808300F4F43EA060458BF23EA0604CCF80840AD023B6843EA060458BFC7
:200DC00023EA06043C600EF1020E0BF1040B013266E7BDE8F88F00BF002402400000FEBFB8
:200DE000003C01400C3C01404438024008FCFFFF1B480068704700BFB0B5C0B10446006864
:200E00004CF6CC43D4E90112036045F25553036041608260FFF7ECFF05462068C16841B1BA
:200E2000FFF7E6FF401B3028F7D90320B0BD0120B0BDE16802698A4206BF4AF6AA21016085
:200E400001610020B0BD00684AF6AA2101600020704700000248016801310160704700BF3C
:200E60009C01002080B50748016841F400710160032000F05BF80F2000F006F800F019F83D
:200E8000002080BD003C024010B5044607484FF47A710068B0FBF1F000F03EFF4FF0FF305C
:200EA0002146002200F026F8002010BD000000207047704700280CD400F01F01012240099C
:200EC00002FA01F1034A42F82010BFF34F8FBFF36F8F704780E100E0002808D400F01F0121
:200EE0000122400902FA01F1014A42F82010704700E100E070B5134B4FF0FF351B68C3F33C
:200F00000223DC1E83F0070338BF0024042B28BF042305FA04F605FA03F3B2439943A1403D
:200F20001143BDE8704001F057BB00BF05494FF6FF030A681A4060F30A2203481043086060
:200F4000704700BF0CED00E00000FA05BCB51848184D016841F080510160006800F0805019
:200F600001900198286840F480302860FFF740FF04466868C00306D4FFF73AFF001BB0F570
:200F80007A7FF6D90FE0286840F400302860FFF72FFF04466868800307D4FFF729FF001B49
:200FA000B0F57A7FF6D90320BCBD0020BCBD00BF40380240007000407CB50446FFF718FFDE
:200FC000054694F8410080074FF0000020D584F840002068016849070BD5016821F00401E2
:200FE0000160E06BFFF75AFC18B1606C40F0040060642068A16C2B460226026842F002029E
:201000000260009120460221012201F081F900B17CBD2068A16C00222B46C6600091204697
:20102000202101F075F90028F2D1012084F8410000207CBD7047000080B590F84110890799
:2010400021D5002180F84010082180F8411001680A6822F4F8120A600A6852070AD402208F
:20106000C860086840F400300860086840F00200086008E0C06BD94A02650A6822F00402DB
:201080000A60FFF750FC002080BD00BF2DE9FC411D46174688460446FFF7AAFE064694F8E7
:2010A0004000012802D10220BDE8FC81012084F8400094F84100012832D1002060642021B5
:2010C00000223346422084F841000095204601F01FF930BB206897E80E1081624262C36296
:2010E000C8F828C03969026822F4400211434FF0006241F4800101602046414600F088FF74
:20110000204608210122334600950825012701F0FFF830B92068C560002084F8417000E00F
:201120000220002184F84010BDE8FC817047F8B515460F460446FFF75BFE064694F84000B9
:20114000012801D10220F8BD012084F8400094F841100220012921D10021616484F8410022
:201160002046002233460095202101F0D1F8A8B920463946002200F04BFF786A20B1012068
:2011800084F84100002009E0204602210122334600950225012701F0BBF818B1002184F876
:2011A0004010F8BD2068C56084F84170EAE710B50446006828B194F84010012903D1022033
:2011C00010BD012010BD012184F84010016821F00101016000F0A6F90020606484F8410059
:2011E00084F8400010BD70477047000010B5016804468A680868530718D510F4802315D04B
:2012000094F84100122838D108468268520763D5E26A002A5CD0606A421C6262007881F876
:2012200020002068E26A013AE262EEE7930739D510F4003336D00220C860086820F4E020B3
:20124000086094F8410012284BD10868400709D5086820F004000860E06B0068016821F055
:20126000010101602046FFF7E7FE012084F841002046BDE8104000F0F1BA94F841002228DF
:201280002AD108468268520726D5A26B02B391F82000226B531C236310702068A26B013A8A
:2012A000A263EFE7130725D510F4002322D00820C8600868400206D5086820F4102008602D
:2012C000012084F841002046BDE8104000F066BA016821F4802101602046BDE81040FFF7F4
:2012E00083BF94F84100222815D1086840072ED4084650E0D30718BF10F4803317D1D20650
:201300003ED510F480103BD01020C8602046BDE8104000F044BA94F84100022822D101206F
:2013200084F841002046BDE81040FFF7FFBE0120C8600A6822F470220A60626C42F0020211
:2013400062640A68520738D484F8410013E0086820F004000860E06B0068016821F0010125
:2013600001601FE094F84100082809D1012084F84100606C60B32046BDE81040FFF733BF36
:2013800010BD91F82000226B531C236310702068A26B013AA263806810F4F85F1CBFA06BD7
:2013A0000028EED12046FFF747FE012084F841002046BDE8104000F0F0B9E06B074A0265D0
:2013C0000A6822F004020A60BDE81040FFF7ABBA2046BDE81040FFF72DBE00BF6F21000836
:2013E0002DE9FC410446FFF703FD3CB1054694F84000012805D10220BDE8FC810120BDE84D
:20140000FC81012084F8400094F8410008B1A06C08E0002084F84000204600F0BDF841F2DE
:201420008830A0642168A2686FF0FF034FF0000803EB02220B6823F4F8531A430A60009077
:20144000204620212B46002200F062FF08BBD4E90012D4E90335114E0F683E40334343EA83
:201460000262E3691A43236A1A430A600C4B4A681A4063691A43A36942EA05421A434A60F9
:201480000A6842F001020A60C4F84480012184F8411084F84080BDE8FC8100BF2FFFFF0082
:2014A000FEF8E0FF7CB516460D460446FFF7A0FC034694F84000012801D102207CBD01200F
:2014C00084F8400094F84100012826D10020606420210022822084F84100A06C00902046BB
:2014E00000F016FFD0B9206871680829026822F0080242EA0102026007D1316801631021AF
:20150000C160016841F480110160204629464FF0406200F07DFD002000E00220002184F83B
:2015200040107CBD70B54620FFF7C4FC5C20FFF7C1FC154815490160FFF707FA644C144E8D
:201540004021A4F580552846B04728460421B04720464FF48071B04720464FF40071B0472B
:2015600020468021B04720464021B0470948016841F002010160016821F002010160016A17
:2015800021F00201016270BDAC000020B86402409D0B0008183802402DE9F04786B04B4825
:2015A0004B4C01AD4B4F4FF00A094FF04008A4F58056816841F002018160816801F0020129
:2015C0000191019950F8181C41F0020140F8181C50F8181C21F0020140F8181C016841F02D
:2015E00002010160016801F0020101910199016841F002010160016801F002010191019977
:20160000016841F020010160016801F0200101910199016841F020010160016801F0200170
:2016200001910199016841F020010160016801F0200101910199016841F020010160006837
:20164000294600F0200001900198CDF81490CDF8048003200490012003900220029030469A
:20166000B8470020039029464FF0090ACDF814A0042001903046B8474FF480700190294621
:20168000CDF814902046B8474FF4007001902946CDF814902046B847802001902946CDF896
:2016A00014A02046B84720462946CDF814A0CDF80480B8475C200F210022FFF71BFC5C2024
:2016C000FFF70AFC06B0BDE8F08700BF30380240001402406D0C00082DE9FC411546884680
:2016E0000446FFF785FB27680646B86994F84010012902D10220BDE8FC81012184F8401023
:2017000094F8411001292AD1B8F1000F4FF00001616426D0222184F841100122396901310D
:20172000A163396901316163796962F39B617961C4F83080B861A06BC8B120460621012247
:201740003346009500F0E4FDF8B997F82000216B4A1C22630870A06B0138A063EBE7022020
:2017600016E0606C40F008006064012010E020460221012233460095022500F0C9FD20B92A
:201780002068C5602046FFF717FC012184F84110002184F84010BDE8FC817047704770470A
:2017A0002DE9FC41154688460446FFF721FB0646276894F84000012802D10220BDE8FC816A
:2017C000012084F8400094F84100012828D1B8F1000F4FF00000606424D0122084F841009F
:2017E00038690130E06238690130A062C4F82480786920F040607861E06AC8B120460421E9
:2018000001223346009500F083FDF8B9606A411C6162007887F82000E06A0138E062EBE7DE
:20182000022016E0606C40F008006064012010E020460221012233460095022500F068FD81
:2018400020B92068C5602046FFF7B6FB012184F84110002184F84010BDE8FC817047000040
:201860002DE9F04100285CD0534B04460D46D3F8000400F00F0088420CD2D3F8000420F03D
:201880000F002843C3F80004D3F8000400F00F00A84246D12068810705D5A1689A6822F039
:2018A000F00211439960C00735D1D3F8000400F00F00A8420CD9D3F8000420F00F00284326
:2018C000C3F80004D3F8000400F00F00A84228D12068410705D5E1689A6822F4E052114307
:2018E0009960000706D52069996821F4604141EAC00098601C4600F069F8A1681C4AC1F314
:201900000311515CC840304908600F20FFF7BCFA0020BDE8F0816068012805D11968890338
:201920000AD40120BDE8F0811968022802D18901F7D501E08907F4D59968984621F0030190
:2019400008439860FFF754FA064641F288376068D8F80810434601F00C01B1EB800FA4D0EC
:20196000FFF746FA801BB842F1D90320BDE8F08128270008E648114B016841F0810101603B
:201980000021816002681A40026041600C4B42681A434260C0F884100A4BD0F884201A4314
:2019A000C0F88420026822F480220260C160064818490160704700BF00380240FFFFF6FA38
:2019C0001030002400300020000000201049486800F00C020F48082A03D0042A17D10E4864
:2019E00070470A680B685B020B4B58BF034602F03F000A68B3FBF0F0C2F3881209685043B4
:201A00000222C1F3014102EB4101B0FBF1F07047043802400024F40000127A002DE9FC41C5
:201A2000002854D004460078B94EC00724D0B06800F00C0004281AD0B06800F00C00082868
:201A400002D17068400212D46068002800F0F080B0F5803F07D03168B0F5A02F40F01C814E
:201A600041F480203060306840F480301AE13068800301D5606850B32078800718D5B068AA
:201A800010F00C0F07D0B06800F00C00082842D1706840023FD43068800702D5E068012869
:201AA00015D12069316821F0F80141EAC0003060207800070ED4207840071DD4A769002F09
:201AC00000F02381B06800F00C00082869D10120BDE8FC81706F616981B340F001007067CC
:201AE000FFF786F90546706F8007E4D4FFF780F9401B0228F7D9E2E0306CC0002DD4306C89
:201B00004FF0010840F080503064306C00F080500190019823E03068E168002960D040F0F6
:201B200001003060FFF764F9054630688007B8D4FFF75EF9401B0228F7D9C0E020F0010078
:201B40007067FFF755F90546706F8007B3D5FFF74FF9401B0228F7D9B1E04FF000086D4F0A
:201B60003868C0050FD4386840F480703860FFF73FF905463868C00505D4FFF739F9401B87
:201B80006428F7D99BE0A068D8B3012805D0316F052863D141F004003067306F40F0010040
:201BA00062E0306820F080703060FFF721F90546022F0AD13068800140F18480FFF718F9FF
:201BC000411B03200229F5D99DE03068800140F19C80FFF70DF9411B03200329F5D392E0C9
:201BE00020F001003060FFF703F90546306880077FF55EAFFFF7FCF8411B03200229F5D905
:201C000081E0306F20F001003067306F20F004003067FFF7EDF8054641F28837306F800794
:201C200031D5FFF7E5F8411B0320B942F6D96AE0306820F480303060306820F48020306070
:201C4000FFF7D6F80546306880037FF515AFFFF7CFF8411B03206429F5D954E021F0010045
:201C60003067306F20F004003067FFF7C1F8054641F28837306F800705D4FFF7B9F8401B96
:201C8000B842F7D91BE0B8F1000F3FF417AF306C20F08050306411E721F4803030603068D9
:201CA00020F480203060FFF7A3F80546306880033FF5E2AEFFF79CF8401B6428F6D90320C2
:201CC000BDE8FC811C341FCC0843D90340EA82104FF6FF72914340EA0460A1F5803108431A
:201CE00040F000507060306840F080703060FFF77FF804463068800107D4FFF779F8011B1E
:201D000003200229F6D9BDE8FC810020BDE8FC810038024000700040411E0020B0EB116F7E
:201D200001D001207047044AF023516003490B70906007211160704710E000E023ED00E021
:201D400000F056B980688968002381EA0002B3EB126F01D00120704721F07F4120F07F40B3
:201D6000884201D1022070474FF0000088BF03207047000010B5084C206A20F48050206285
:201D80001548FEF737FD206840F480502060206820F48050206010BD10380240E0B50D4983
:201DA0000322086840F4805008600B4802620022C0E905228280A1F503620260096801F4B4
:201DC000805101910199FEF72FFD00B98CBD00F00FF900BF303802401001002080B50848CC
:201DE0000849042240F8041F40F6FF71C0E90121C160FFF701F800B980BD00F0F9F800BFFA
:201E00005C00002000300040F8B5774F774C482100263D46201D05F81C6BFEF70AFA284666
:201E20003821FEF706FA381D1821FEF702FA354820602046FFF7BBF94FF48070172110222B
:201E400004230225C4E90153C4E90321C4E90506C4E907662046FFF7C3FA20688168890677
:201E6000FCD442F26611416100218161C1610161BFF34F8F206881688906FCD442F2991180
:201E8000416100218161C1610161BFF34F8F206881688906FCD442F2662141610021816159
:201EA000C1610161BFF34F8F206881688906FCD442F29921416100218161C1610161BFF375
:201EC0004F8F206881688906FCD442F26631416100218161C1610161BFF34F8F206881685F
:201EE0008906FCD442F29931416100218161C161016141F28830BFF34F8FBDE8F84000F014
:201F00004DB800BF001000A000F072B87047F0B585B00D4606460020049000900221144642
:201F200003912846FEF7BAFA074601906019FEF7B5FAC01B01300290FEF71CFE684604A9F3
:201F4000FEF786FD08B1049818E00027A7420AD2F259E91902200023FEF7C8FD0437002821
:201F6000F4D001200AE0FEF7B9FD304629462246FEF76AF90490002818BF0120C0B205B067
:201F8000F0BD0000E148FFF731B900BF80B51421FEF74FF980BDFEF75DBF7047B0B5DA4A97
:201FA000034600204FF080714FF48074102542F8040FC2E91100D064C2E90B04C2E90D006D
:201FC000D1630121C2E90115C2E9031005204FF480045461114641F8180FCC48FFF756F87C
:201FE000002818BF0120B0BD0800002034010020FEF7E8FC8E480430FEF725FF00F0FEFAF3
:2020000060270000BD39344001072235000000082DE9F0414B6AB2F1406F18BF002B03D045
:2020200004688D6A013D25618C690D6A7CB3002D49D0D0F800C0CE698F68D1E904E82B43CE
:20204000002ECCF81C70D1E90B57486B43EA050343EA070340EA030040EA884040EA0E036D
:202060004BD044EA0200CC68B2F1406F40EA060040EA03000B6840EA040040EA0300CCF8A0
:20208000140072D04868CCF81800BDE8F081EDB3006801F12C07CC698E68D1E904CE2B43F6
:2020A000002CC661E0CF43EA050343EA060343EA070343EA8E4343EA0C0341D01443234374
:2020C000CC68234334E0D1E90B76D1F814C04D6BD1F81CE03B43BEF1000F43EA060343EA5E
:2020E000050343EA8C432ED01443CD6844EA0E0423430C682B43234319E044EA02000968CA
:2021000018430843CCF81400BDE8F081CC69FCB11343D1E90B674D69D1F80CC023434C6B5F
:2021200033433B43234343EA854343EA0C030068B2F1406F436118D049688161BDE8F08125
:2021400043EA020110E0224309681A4311430AE05BB11A43D1E90B454B69496B22432A4341
:20216000114341EA834100684161BDE8F081806B00218163C16290F8411008290BD100689B
:202180000221C160016841F400310160016841F0020101607047012180F84110FFF723B85A
:2021A0002DE9F04F8FB00C464FF6FF714FF400594FF0000A1C4DDFF83CB301AEDFF86C80FE
:2021C00020EA0107A7422AD84FF480600890CDF81090D8200190CDE909AACDF838A0CDE99D
:2021E0000CAA4FF48070CDE906A007EA0500029000F00EF988B95846314641F28832FEF7E3
:2022000096FF50B940F6B830FFF7C8FE28B94046FEF719FE07F58037D4E7012000E0002044
:202220000FB0BDE8F08F00BF0000FF0F600000205C000020FEB5924C0020217800295DD151
:20224000214685224FF08073012541F81C2F4FF480724863C1E90502C1E90700C1E909356A
:20226000C1E90B00A34841F28832FEF760FF002843D1A0480DF10B0141F28832FFF72CFA46
:20228000D8BB00F0C5F8C0BB9DF80B100A2041F2883260F31F118DF80B108120214641F858
:2022A0001C0F9448FEF743FF38BB92480DF10B0141F28832FFF774FAF8B92146EB204FF452
:2022C00000524FF480734FF440654FF040760A2741F81C0F00200190C1E90B00486348604B
:2022E000C1E90320C1E90573C1E90750C1E9096080486A46FFF7D6F808B10120FEBD0120E9
:2023000020700020FEBD00BF08000020340100202DE9F843DDF82090984616460F46044667
:2023200009F1010520688068384018BF0120B04214D0002DF6D0B9F1000F05D0FEF758FD1C
:20234000A0EB08004845EDD9042084F84100606C40F0010060640120BDE8F8830020BDE8EF
:20236000F8832DE9F8430446C8B217460D465FFA82F8160AE0B1C0F5807946B328464946F5
:20238000224600F07FF8E8BBA7EB09004C444D44C7B2060A7EB328464FF48071224600F05B
:2023A00071F878BB013E04F5807405F58075F1E716B3D6B128464FF48071224600F062F8EA
:2023C00000BB013E04F5807405F58075F1E7C84512D928464946224600F054F809EB0500BD
:2023E000A8EB090104EB090209E0B8F1000F0CD02846414602E047B128463946224600F0B5
:2024000041F810B10120BDE8F8830020BDE8F883B0B51B4C0620002541F28832214641F89D
:202420001C0F4FF48070C1E90B554D63C1E905503048C1E907554D62FEF779FE0146012084
:2024400001B1B0BD052144F81C1F4FF080721023C4E909204FF48002022144E9051344E92C
:20246000030544F8042C234841F28833224642F8181D2146FEF70AFE002818BF0120B0BDC7
:202480000800002010B58EB014464FF44062079220F07040122200924FF4807206924FF4A3
:2024A000005203924FF04072099200220892CDE90C22CDE90A1205920190FFF7A9FF68B950
:2024C0000C48694641F28832FEF731FE30B90948214641F28832FFF763F910B101200EB068
:2024E00010BD41F28830FFF759FD002818BF0120F5E700BF340100201CB5044600680949F3
:202500000840B0F1005F0BD1FEF75CFA60680190054801990160216881F3088800688047EF
:202520001CBD00BF0000FC2F0C01002080B592B0C8210220CDE90B000A91042109914FF4CB
:202540008001CDE907014FF4803002900120019001A8FFF763FAA8B9FEF7F8FC90B94FF433
:202560008050119006214FF4A050109000200F9002200E900F200D900DA8FFF771F908B9CF
:2025800012B080BDFFF734FD10B50E480F4CD0F8801041F47001C0F880100B490A6842F061
:2025A00001020A6000228A600B6823400B60084B4B600B6823F480230B60CA604FF0006101
:2025C000016010BD08ED00E000380240FFFFF6FE10300024FFF70CBD10B500F00F03064C50
:2025E000044AB0F1FF3F2344C8BF83180801187010BD00BF00E400E014ED00E00648BFF363
:202600004F8F064A016801F4E06111430160BFF34F8F00BFFDE700BF0CED00E00400FA056A
:20262000FDF734FEFEF71EFCFFF780FFFFF7D6FBFFF7B4FBFFF7E8FBFFF7FCFD304C04F14B
:2026400014063046FFF7A2FC04F128073846FFF79DFC2C4D05F56020A0632B486062804634
:202660003046FDF7FBFF20703846FDF7F7FF607030463946FFF766FBE07090B1207898B36E
:2026800004F13C063046FFF781FC3046E564FDF7E5FFA07008B3607820BBA26AD4E90D101F
:2026A0001EE06269606A2946FDF79FFE30BBFFF7ABFBFFF7BFFD251D2846FEF7C4FBA26ADE
:2026C000D4E90D10FFF723FCC0B9FFF79DFBFFF7B1FD2846FEF7B7FB04E0E26BD4E912103B
:2026E000FFF715FC207810B9206AFFF705FF4046FFF702FF201DFEF7A6FBFEE7FFF778FC4F
:202700005C0000200000E2900000010802E008C8121F08C1002AFAD17047002001E001C1A7
:20272000121F002AFBD17047000000000000000001020304060708095827000800000020EC
:20274000080000000C2700086027000808000020982100001A2700080024F4000000000065
:020000040801F1
:2000000002980068C2640298006880688006002814D4FFE7029800F0EBFA00280DD0FFE7F8
:20002000FFE702980068FF214162FFE702980421417701208DF80F0016E0FFE7FFE7FFE75B
:2000400002980068FF214162FFE7029800F014F9029800214177FFE7029800210177FFE7EC
:2000600000208DF80F00FFE79DF80F0004B080BD80B584B0039002910192002000900398E4
:20008000006840684FF63F71C0F2FF0108400090BDF802000299C8700098C0F3042002993D
:2000A0004870009800F03F0002998870BDF80000400B029908700198002813D1FFE70298F6
:2000C000C07806F079FB0299C8700298407806F073FB029948700298807806F06DFB029917
:2000E0008870FFE7002004B080BD00000000000080B584B0039002910192002000900398A4
:200100000068806A029948600398006800696FF3DF300299886003980068006847F67F7152
:20012000C0F27F01084000900098C0F30540029908700098C0F3062002994870009800F0C6
:200140007F0002998870009800F48000000C029908730198002813D1FFE70298007806F0CC
:200160002BFB029908700298407806F025FB029948700298807806F01FFB02998870FFE770
:20018000002004B080BD000080B582B000900098002804D1FFE701208DF8070068E000984F
:2001A000407F002807D1FFE7009800210177009800F06EF8FFE7009802214177FFE70098A4
:2001C0000068CA2141620098006853214162FFE7009806F029FB00280DD0FFE7FFE7009811
:2001E0000068FF214162FFE700980421417701208DF807003CE00098006881684FF6BF7251
:20020000CFF68F7211408160009801684268036940691A4310438A68104388600098016848
:20022000C06808610098016880680A6942EA0040086100980068C16821F08001C160009888
:200240000068C16C21F00801C164009801688069CA6C1043C864FFE700980068FF21416282
:20026000FFE700980121417700208DF80700FFE79DF8070002B080BD81B0009043F670009F
:20028000C4F20200016821F40041016001B0704781B0009043F67000C4F20200016841F45E
:2002A0000041016001B0704780B588B006900591049200200390FFE70698007F012804D151
:2002C000FFE702208DF81F00B2E0069801210177FFE7FFE7069802214177049800280DD1C1
:2002E000FFE705984078C006002807D5FFE70598417801F0EF010A314170FFE70498002846
:200300001CD1FFE70598C07806F06EFA0004059949780290084606F067FA029941EA002057
:20032000059989780190084606F05EFA019908440599097840EA4130039016E00598407873
:2003400006F03AFA03900598807806F035FA03900598017842788378C078000440EA022040
:20036000184440EA41300390FFE7FFE706980068CA2141620698006853214162FFE70698F2
:2003800006F052FA002812D0FFE7FFE706980068FF214162FFE7069804214177FFE7069897
:2003A00000210177FFE701208DF81F0040E003984FF63F71C0F2FF01084006990968486097
:2003C00006980068C16821F08001C1600698006880688006002819D4FFE7069800F008F93D
:2003E000002812D0FFE7FFE706980068FF214162FFE7069804214177FFE7069800210177E0
:20040000FFE701208DF81F0012E0FFE7FFE706980068FF214162FFE7069801214177FFE766
:20042000069800210177FFE700208DF81F00FFE79DF81F0008B080BD80B588B006900591B3
:20044000049200200390FFE70698007F012804D1FFE702208DF81F00C3E0069801210177CB
:20046000FFE7FFE70698022141770498002828D1FFE70698006880684006002801D5FFE77C
:2004800003E0059800210173FFE70598007806F0ABF90004059949780290084606F0A4F9DC
:2004A000029941EA0020059989780190084606F09BF9019908440599097B40EA0140039048
:2004C0001DE00698006880684006002806D5FFE70598007806F070F9039003E0059800215A
:2004E0000173FFE70598017842788378007B090441EA0221194441EA00400390FFE7FFE7DA
:2005000006980068CA2141620698006853214162FFE7069806F088F9002812D0FFE7FFE759
:2005200006980068FF214162FFE7069804214177FFE7069800210177FFE701208DF81F00C9
:200540004FE0039847F67F71C0F27F01084006990968086006980068816821F4802181602C
:200560000598016940690843069909688A681043886006980068C16821F08001C1600698C3
:20058000006880688006002819D4FFE7069800F02FF8002812D0FFE7FFE706980068FF21D9
:2005A0004162FFE7069804214177FFE7069800210177FFE701208DF81F0012E0FFE7FFE7B1
:2005C00006980068FF214162FFE7069801214177FFE7069800210177FFE700208DF81F002D
:2005E000FFE79DF81F0008B080BD00000000000080B584B002900020019002980068C16895
:2006000021F0A001C160FBF7C7FC0190FFE702980068C068800600280DD4FFE7FBF7BCFC92
:200620000199401AB0F57A7F04D9FFE703208DF80F0004E0EBE700208DF80F00FFE79DF8C9
:200640000F0004B080BD000080B586B0049003910498002804D1FFE701208DF817002CE0BF
:20066000049890F82C00002808D1FFE70498002180F82D10049800F027F8FFE70498022181
:2006800080F82C10049850F8041B029008460299F9F7EEFC0499039A0B6849680190184601
:2006A00000911146009AF9F797FD0499012281F82C2000218DF81710FFE79DF8170006B09A
:2006C00080BD00000000000081B0009001B0704780B584B002900191029890F82C000228AF
:2006E00004D1FFE702208DF80F0010E00298022180F82C10029800680199F9F71DFD0299E7
:20070000012281F82C2000218DF80F10FFE79DF80F0004B080BD000080B584B00290019124
:200720000092029890F82C00022804D1FFE702208DF80F001CE00298022180F82C10029837
:2007400000680199009AF9F703FD01990968022905D1FFE70298052180F82C1004E0029829
:20076000012180F82C10FFE700208DF80F00FFE79DF80F0004B080BD81B000900098042809
:2007800009D1FFE74EF21000CEF20000016841F00401016008E04EF21000CEF20000016828
:2007A00021F004010160FFE701B070470000000080B582B00190019806F0BAFE02B080BD46
:2007C00080B586B0049003910292FFE7049890F83C00012804D1FFE702208DF81700C4E066
:2007E0000498012180F83C10FFE7FFE70498022180F83D1002981428019000F2A78001990D
:20080000DFE801F00BA4A4A424A4A4A43EA4A4A457A4A4A471A4A4A48A0004980068039925
:2008200008F0E6FA04980068816941F00801816104980068816921F00401816103980069EC
:20084000049909688A691043886180E004980068039908F045FB04980068816941F400619F
:20086000816104980068816921F48061816103980069049909688A6942EA0020886166E050
:2008800004980068039908F0A7FB04980068C16941F00801C16104980068C16921F0040150
:2008A000C1610398006904990968CA691043C8614DE004980068039908F00AFC0498006886
:2008C000C16941F40061C16104980068C16921F48061C1610398006904990968CA6942EA7F
:2008E0000020C86133E004980068039908F054FC04980068416D41F008014165049800681E
:20090000416D21F00401416503980069049909684A6D104348651AE004980068039908F012
:200920008FFC04980068416D41F40061416504980068416D21F4806141650398006904994F
:2009400009684A6D42EA0020486500E0FFE70498012180F83D10FFE70498002180F83C10C6
:20096000FFE700208DF81700FFE79DF8170006B080BD00000000000080B582B001900198BF
:20098000022180F83D10FFE701980068006A41F21111084210D1FFE701980068006A40F21B
:2009A0004441084207D1FFE701980068016821F001010160FFE7FFE7FFE7019800F044F855
:2009C0000198002180F83D10FFE70198002180F83C10FFE7002002B080BD0000000000003F
:2009E00080B584B002900298002804D1FFE701208DF80F0021E0029890F83D00002808D169
:200A0000FFE70298002180F83C10029800F020F8FFE70298022180F83D10029850F8041B66
:200A200001900846019908F0BBF80298012180F83D1000208DF80F00FFE79DF80F0004B01F
:200A400080BD00000000000081B0009001B0704781B0009001B0704780B584B00390029178
:200A60000398006802990122019208F0A5F90398006801990022C4F20102904200910CD0D5
:200A8000FFE7039800684FF60041CBF6FE710844B0FA80F040090090FFE70098C00700280B
:200AA00007D0FFE703980068416C41F400414164FFE703980068016841F0010101600020A8
:200AC00004B080BD0000000080B584B002900298002804D1FFE701208DF80F002AE0029854
:200AE000242180F8691002980068016821F0010101600298006800210160029800684160BA
:200B00000298006881600298019100F04DF902980199C166029880F86910029880F86A101E
:200B2000FFE70298002180F86810FFE700208DF80F00FFE79DF80F0004B080BD000000000F
:200B400080B582B001900198006841F20001C4F20101884203D1FFE705F03EF80AE001987E
:200B6000006844F20041C4F20001884201D1FFE7FFE7FFE702B080BD80B586B00590059805
:200B80000068C069049005980068006803900598006880680290049800F00F0001900198EC
:200BA000002811D1FFE79DF81000800600280AD5FFE79DF80C008006002804D5FFE7059882
:200BC00008F092FFEEE0FFE70198002800F0CA80FFE79DF80800C007002807D1FFE7BDF8F8
:200BE0000C0010F4907F00F0BD80FFE79DF81000C007002810D0FFE79DF80D00C0070028D8
:200C00000AD0FFE705980068012101620598C16E41F00101C166FFE79DF81000800700282A
:200C200010D5FFE79DF80800C00700280AD0FFE705980068022101620598C16E41F0040110
:200C4000C166FFE79DF810004007002810D5FFE79DF80800C00700280AD0FFE70598006857
:200C6000042101620598C16E41F00201C166FFE79DF810000007002816D5FFE79DF80C0099
:200C80008006002806D4FFE79DF80800C00700280AD0FFE705980068082101620598C16E3D
:200CA00041F00801C166FFE70598C06E002858D0FFE79DF81000800600280AD5FFE79DF83F
:200CC0000C008006002804D5FFE7059808F00CFFFFE70598C06E0007002807D4FFE70598BD
:200CE000006880684006002833D5FFE7059808F0D3FE0598006880684006002824D5FFE7A8
:200D000005980068816821F0400181600598406E002814D0FFE70598406E49F67121C0F6A3
:200D2000010101650598406EFAF74AFC002805D0FFE70598406E016D8847FFE703E00598F8
:200D4000FFF7FEFEFFE703E00598FFF7F9FEFFE706E00598FFF7F4FE05980021C166FFE732
:200D6000FFE71FE09DF81000000600280AD5FFE79DF80C000006002804D5FFE7059809F0D2
:200D8000C7F90FE09DF81000400600280AD5FFE79DF80C004006002804D5FFE7059808F069
:200DA0008FFEFFE706B080BD81B0009001B0704781B0009001B0704784B0134602900191CA
:200DC000ADF80220029890F86A00202840F08F80FFE70198002805D0FFE7BDF802000028F8
:200DE00004D1FFE701208DF80F0084E0FFE7029890F86800012804D1FFE702208DF80F0015
:200E000079E00298012180F86810FFE7FFE7019802994865BDF802000299A1F85800BDF828
:200E200002000299A1F85A00FFE702988068B0F5805F11D1FFE702980069002806D1FFE786
:200E4000029840F2FF11A0F85C1004E00298FF21A0F85C10FFE72CE002988068002810D193
:200E6000FFE702980069002805D1FFE70298FF21A0F85C1004E002987F21A0F85C10FFE7DF
:200E800016E002988068B0F1805F10D1FFE702980069002805D1FFE702987F21A0F85C106E
:200EA00004E002983F21A0F85C10FFE7FFE7FFE7FFE7FFE702980021C1660298222180F89B
:200EC0006A10FFE70298002180F86810FFE702980068816841F001018160029800680168B7
:200EE00041F49071016000208DF80F0003E002208DF80F00FFE79DF80F0004B07047000019
:200F000080B582B001900198006841F20001C4F20101884203D1FFE704F0DAFE0AE0019819
:200F2000006844F20041C4F20001884201D1FFE7FFE7FFE702B080BD80B588B09446069001
:200F40000591ADF81220039300200190069890F86900202840F08F80FFE70598002805D047
:200F6000FFE7BDF81200002804D1FFE701208DF81F0084E0FFE7069890F86800012804D146
:200F8000FFE702208DF81F0079E00698012180F86810FFE7FFE706980021C166069821210A
:200FA00080F86910FAF7F8FF0190BDF812000699A1F85000BDF812000699A1F85200FFE741
:200FC0000698B0F85200002837D0FFE70698B0F852100139A0F852100698019B03996A4602
:200FE00011608021002209F0E7F8002804D0FFE703208DF81F0042E006988068B0F5805F10
:2010000012D1FFE70698006900280DD1FFE705980290029800886FF35F20069909688862E8
:2010200005980230059007E00598411C05910078069909688862FFE7C2E70698019B0399FE
:201040006A4611604021002209F0B6F8002804D0FFE703208DF81F0011E00698202180F854
:201060006910FFE70698002180F86810FFE700208DF81F0003E002208DF81F00FFE79DF894
:201080001F0008B080BD000080B582B001900198006841F20001C4F20101884203D1FFE7D3
:2010A00005F086FB0AE00198006844F20041C4F20001884201D1FFE7FFE7FFE702B080BD64
:2010C00080B505F0E9FC80BD86B0134605900491ADF80E2000200290FFE7BDF80E000028B5
:2010E0003FD0FFE70298002816D1FFE7049800780009019001980A2805D3FFE70198373035
:201100000599087004E00198303005990870FFE702980130029018E00498007800F00F0078
:20112000009000980A2805D3FFE7009837300599087004E00098303005990870FFE700208A
:201140000290049801300490FFE7059801300590059800210170BDF80E000138ADF80E0075
:20116000BBE706B07047000081B0009000980068806900F002000021B1EB500F05D0FFE7ED
:201180000098006800218162FFE7009800688069C007002807D1FFE700980068816941F0B4
:2011A00001018161FFE701B0704700000000000080B586B0049003910292049800688069E9
:2011C00000F010000121B1EB101F5AD1FFE7FFE704980068806900F020000021B1EB501F02
:2011E00025D1FFE70398013000281FD0FFE70398002808D0FFE7FAF7CFFE0299401A03997A
:20120000884212D9FFE70498202180F841100498002180F84210FFE70498002180F840109B
:20122000FFE703208DF817002FE0FFE7D0E7049800681021C161049800682021C161049803
:201240000191FFF791FF0498006841684EF60002CFF6006211404160049804214164049868
:20126000019980F841100498002280F84220FFE70498002180F84010FFE701208DF8170065
:2012800003E000208DF81700FFE79DF8170006B080BD000000000000F0B58BB0DDF844C071
:2012A000DDF840E01C4615460E460990ADF82210ADF82020ADF81E300998BDF822109DF8C3
:2012C0001E206B464FF400571F600023CDF818C0CDF814E004940395029600F0D5F8099867
:2012E0001099119A00F090F900280DD0FFE70998406C042804D1FFE701208DF82B0042E00F
:2013000003208DF82B003EE0BDF81E00012806D1FFE79DF820000999096888621FE09DF8DD
:20132000210009990968886209981099119A00F06BF900280DD0FFE70998406C042804D10D
:20134000FFE701208DF82B001DE003208DF82B0019E09DF82000099909688862FFE70998D4
:20136000109B11996A4611604021002200F0BCF8002804D0FFE703208DF82B0003E0002018
:201380008DF82B00FFE79DF82B000BB0F0BD0000F0B58BB0DDF844C0DDF840E01C46154624
:2013A0000E460990ADF82210ADF82020ADF81E300998BDF822109DF81E206B464FF40057EB
:2013C0001F604FF08073CDF818C0CDF814E004940395029600F058F809981099119A00F019
:2013E00013F900280DD0FFE70998406C042804D1FFE701208DF82B0042E003208DF82B00FC
:201400003EE0BDF81E00012806D1FFE79DF820000999096888621FE09DF82100099909687B
:20142000886209981099119A00F0EEF800280DD0FFE70998406C042804D1FFE701208DF832
:201440002B001DE003208DF82B0019E09DF82000099909688862FFE70998109B11996A465A
:2014600011608021002200F03FF8002804D0FFE703208DF82B0003E000208DF82B00FFE7C3
:201480009DF82B000BB0F0BD10B584B0DDF818C096460C460390ADF80A108DF809200193BC
:2014A000002000900398006840680090009849F60001CFF6004108400090BDF80A006FF36A
:2014C0009F209DF8091040EA014001990843069908430099084300900098039909684860A4
:2014E00004B010BD0000000080B586B0DDF820C09646049003918DF80B200193FFE7049881
:201500000068806903990840401AB0FA80F040099DF80B10884225D1FFE701980130002891
:201520001FD0FFE70198002808D0FFE7FAF734FD0899401A0199884212D9FFE70498202128
:2015400080F841100498002180F84210FFE70498002180F84010FFE703208DF8170005E046
:20156000FFE7CCE700208DF81700FFE79DF8170006B080BD0000000080B584B00290019104
:201580000092FFE702980068806900F020000021B1EB501F30D1FFE702980199009AFFF701
:2015A00007FE002804D0FFE701208DF80F0027E00198002808D0FFE7FAF7EEFC0099401A3B
:2015C0000199884217D9FFE70298416C41F0200141640298202180F841100298002180F8BC
:2015E0004210FFE70298002180F84010FFE703208DF80F0004E0C5E700208DF80F00FFE769
:201600009DF80F0004B080BD80B584B0029001910092FFE702980068806900F00200002132
:20162000B1EB500F36D1FFE702980199009AFFF7BFFD002804D0FFE701208DF80F002DE09E
:2016400001980130002824D0FFE70198002808D0FFE7FAF7A1FC0099401A0199884217D96A
:20166000FFE70298416C41F0200141640298202180F841100298002180F84210FFE702989D
:20168000002180F84010FFE703208DF80F0005E0FFE7BFE700208DF80F00FFE79DF80F0015
:2016A00004B080BD0000000080B582B047F20000C2F201000190FAF78FFC0199009008465F
:2016C00000F002F802B080BD80B582B0019047F20000C2F20100FAF7B3FC00281DD1FFE7AF
:2016E00047F20000C2F2010046F20001C4F20001016042F23271C4F29101416000218160E9
:201700000122C26001614161C1610162009000F01BF80098FAF79CFCFFE702B080BD000072
:2017200080B584B00B460390ADF80A1001920398BDF80A10019A4FF47A7C00936346FAF79F
:201740000BFD04B080BD000080B590B00F90FFE743F63000C4F20200016841F00801016071
:20176000006800F0080009900998FFE7FFE743F63000C4F20200016841F04001016000683E
:2017800000F0400008900898FFE74FF480500A9012200B9000210C9103220D9204230E9337
:2017A00040F6004CC4F2020C0DF1280E069060460591714604920393CDF808C0CDF804E0C4
:2017C000FAF7AEF94FF400500A9006980B9005990C91049A0D92039B0E9302980199FAF72F
:2017E0009FF941F60000C4F2020000900399059AFAF7AEFB03980A9001210B9105990C91CF
:20180000049A0D9200980199FAF78AF9FFE743F64000C4F20200016841F08071016000687A
:2018200000F0807007900798FFE743F62000C4F20200016841F080710160016821F0807144
:20184000016010B080BD00002DE9F0438DB0DDF854C0DDF850E01C4615460E460C908DF884
:201860002F10ADF82C20ADF82A30ADF828C000208DF827000C989DF82F10BDF82C20BDF8B2
:201880002A30DDF850C0BDF82870E8464FF47A79C8F80890C8F80470C8F800C0CDF820E087
:2018A000079406950596FAF79FFE8DF827009DF82700002838D0FFE70C98006846F2000106
:2018C000C4F20001884203D1FFE7FFF7EDFE2AE00C98006845F60041C4F20001884221D1E7
:2018E000FFE743F64000C4F20200016821F4000101600020C4F202004FF48071F9F7D0FF26
:2019000040F60000C4F202004FF40071F9F7C8FF46F6B470C2F20100FAF75EFB049007F084
:20192000EFFCFFE7FFE7FFE79DF827000DB0BDE8F0830000000000002DE9F0438DB0DDF81E
:2019400054C0DDF850E01C4615460E460C908DF82F10ADF82C20ADF82A30ADF828C0002060
:201960008DF827000C989DF82F10BDF82C20BDF82A30DDF850C0BDF82870E8464FF47A799D
:20198000C8F80890C8F80470C8F800C0CDF820E0079406950596FAF78BFF8DF827009DF8E9
:2019A0002700002838D0FFE70C98006846F20001C4F20001884203D1FFE7FFF775FE2AE0F7
:2019C0000C98006845F60041C4F20001884221D1FFE743F64000C4F20200016821F4000176
:2019E00001600020C4F202004FF48071F9F758FF40F60000C4F202004FF40071F9F750FF52
:201A000046F6B470C2F20100FAF7E6FA049007F077FCFFE7FFE7FFE79DF827000DB0BDE812
:201A2000F08300000000000082B001900091032002B070470000000080B5ACB047F2500039
:201A4000C2F201002A90FBF7FBF946F60001C4F201012A9A1160002151609160D1601161A1
:201A600082F8361082F83510802382F83430012353614FF0090CC2F818C04FF02B0CC2F878
:201A80001CC04FF0150CC2F820C040F20B2CC2F824C040F2251CC2F828C040F2132CC2F829
:201AA0002CC040F2291CC2F830C02990104628912793FBF76DFB2A99269008462899FBF7C3
:201AC000BBFD2A9925900846FBF77AFA58210E222490084623911146289B22921A46FBF7A3
:201AE0009BFF2398FBF78CFF5A2021902299289AFBF792FF2198FBF783FF41F20000C4F2D3
:201B000002000421279AFAF723FA28982B90FFE72B98012809DCFFE72B9803210EF01CFBBB
:201B2000FFE72B9801302B90F2E744F67C40C0F6030044F64041C0F6030100222092209B84
:201B40000DF0F4F920991F90084610F08BFC002812D0FFE700204FF488714FF4F0721E90BF
:201B60001D911C9210F094FF1E991B9008461D991C9A10F0B7FF11E000204FF4F0714FF4AC
:201B800088721A901991189210F082FF1A99179008461999189A10F0A5FFFFE700200121F4
:201BA0001690159110F0B4FF44F6B041C0F6030143F68062C0F60302149008461146169A72
:201BC000159B0DF0B3F915991390084610F04AFC002812D0FFE701204FF488714FF4F072D5
:201BE00012901191109210F053FF12990F9008461199109A10F076FF11E001204FF4F07196
:201C00004FF488720E900D910C9210F041FF0E990B9008460D990C9A10F064FFFFE7012027
:201C20000A900A9910F074FF00212B91FFE72B9801281BDCFFE72B984BF26861C0F60401E4
:201C400051F8201010F03AFF2B990990084610F053FBC0102B9946F66C42C2F2010242F86A
:201C60002100FFE72B9801302B90E0E72B984AF64942C0F60102212110F096FE2B994AF6C6
:201C8000C942C0F60102232308900846194610F08BFE2B994BF20102C0F6010219230790DC
:201CA0000846194610F080FE2B994AF69162C0F60102282306900846194610F075FE2B9984
:201CC0004AF6E152C0F60102242305900846194610F06AFE2B994AF64972C0F60102252327
:201CE00004900846194610F05FFE4AF2E121C0F601014AF6D122C0F601020390084611462C
:201D00000CF002FB4AF24130C0F601004AF63131C0F601010CF004FB4AF21130C0F60100DD
:201D20004AF60131C0F601010CF0F4FA4AF2A130C0F601004AF69131C0F601010CF0FCFA1F
:201D40004AF27130C0F601004AF66131C0F601010CF0ECFA4AF2D130C0F601000EF090FC05
:201D60004BF2E901C0F60101029008460EF090FC4AF60900C0F601000EF090FC4BF23921F9
:201D8000C0F60101019008460EF090FC2CB080BD80B596B015901491139200201290149831
:201DA000013801460D28069100F2A3800699DFE801F007A00B232F32493D3584A08C94171F
:201DC000159809F0E5F998E013981190159811990A68496805911146059A09F029FB8CE02C
:201DE0001398109010980068159940F26C72C2F2010242F8210080E013980F9015980F99B9
:201E00000A68097904911146049A09F0B5FA74E008F0D2FF71E008F0BBFF6EE013980E90E5
:201E200015980E99096809F02FFB66E013980D9015980D990A68496803911146039A09F035
:201E4000D7FA5AE015980CA90BAA0DF03BFD13990A9115990290084610F004FB002813D04C
:201E6000FFE70A984068159946F67442C2F2010242F821000A980068159946F67C42C2F21A
:201E8000010242F8210012E00A980068159946F67442C2F2010242F821000A98406815993E
:201EA00046F67C42C2F2010242F82100FFE715980C990B9A09F0ACFA1FE0139809901598AA
:201EC0000999096809F084FA17E01398089015980899096809F034FA0FE01398079015987A
:201EE00007990A68496801911146019A09F00CFA03E04FF0FF301290FFE7129816B080BD16
:201F000080B547F25000C2F20100FBF791F880BD86B00590049103920020029001900090CE
:201F200004994968059A1268D2680023C0F6FF731A4001EB12410904029105990968039AD0
:201F400001EBC211D1F8882002F47042C1F8882004990968059A1268D2681A4001EB12414E
:201F60000131029A1143059A1268039B02EBC312C2F888100499C968059A1268D2686FF3F1
:201F8000DF2211440904029105990968039A01EBC211D1F88C2002F47042C1F88C200499C1
:201FA0008968059A1268D2686FF3DF2211440131029A1143059A1268039B02EBC312C2F8D0
:201FC0008C1005990968039A01EBC211D1F8942022F00702C1F8942004990969059A1268CD
:201FE000039B02EBC312C2F89410049991F8311009020291049991F832100904019104997A
:20200000F4690400767FDB700968039A01EBC211D1F89C20C1F89C00049991F83010029B75
:202020001943019B1943009B1943059B1B68DDF80CC003EBCC13C3F89C1005990968039BB0
:2020400001EBC311D1F8983023F0FF03C1F8983004994969059B1B68DDF80CC003EBCC13B9
:20206000C3F8981005990968039B01EBC311D1F8A03040F2077C23EA0C03C1F8A030049900
:20208000CB69096A1943059B1B68DDF80CC003EBCC13C3F8A01005990968039B01EBC311D4
:2020A000D1F8AC30C1F8AC000498406A05990968DDF80CC001EBCC11C1F8AC0004980069ED
:2020C000002803D1FFE70420029023E004980069012803D1FFE7032002901AE004980069C9
:2020E00004280FD0FFE70498006902280AD0FFE704980069032805D0FFE7049800690728E1
:2021000003D1FFE70220029002E001200290FFE7FFE7FFE705980068039900EBC110D0F8E5
:20212000B01001F0E021C0F8B010049801684268806A029B5843511A5943033141EA0040FE
:2021400005990968039A01EBC211C1F8B00005980068039900EBC110D0F8B41040F2FF721F
:202160009143C0F8B4100498C06A05990968039A01EBC211C1F8B40005980068039900EBE5
:20218000C110D0F8841041F00101C0F8841006B0704700000000000080B582B00190019895
:2021A00000F06AFB002804D0FFE7019800F018F903E0019800F04CF9FFE702B080BD0000C8
:2021C00081B000900098807F01B070470000000081B000900098006801B070470000000016
:2021E00080B582B001900198017D009100F080FB009940EA410040F64801C2F2010151F852
:20220000200002B080BD000081B000900098807D01B070470000000081B0009000984068F0
:2022200001B070470000000081B000900098C07D01B070470000000081B0009000988068F7
:2022400001B070470000000081B000900098808901B070470000000080B582B001468DF819
:2022600006009DF80600009100F02AFB00280DD0FFE79DF8060047F2FC31C2F2010101EB89
:20228000401000F035FB8DF8070003E0FE208DF80700FFE79DF8070002B080BD0000000044
:2022A00080B590B00A460F90ADF83A100F98002181740F98C1740F980C30BDF83A1002232B
:2022C0000D921A460C93F7F7CBFC0F991531BDF83A20023292B201230B90084611461A4672
:2022E0000A93F7F7BDFC0F991631BDF83A20033292B20990084611460A9AF7F7B1FC0F99FE
:202300001431BDF83A20043292B20890084611460A9AF7F7A5FC0F991031BDF83A20053250
:2023200092B20790084611460C9AF7F799FC0F991731BDF83A20073292B20690084611463D
:202340000A9AF7F78DFC0F991831BDF83A20083292B20590084611460A9AF7F781FC0F99F3
:202360001931BDF83A20093292B20490084611460A9AF7F775FC0F991A31BDF83A200A320B
:2023800092B20390084611460A9AF7F769FC0F991B31BDF83A200B3292B20290084611460F
:2023A0000A9AF7F75DFC0F991C31BDF83A200C3292B20190084611460A9AF7F751FC0F99EF
:2023C0001D31BDF83A200D3292B20090084611460A9AF7F745FC10B080BD00000000000018
:2023E00080B582B001900198002181740198C07E042806DCFFE70198C07E002104F07CFE05
:2024000005E00198C07E002101F0B6F9FFE7019800F002F802B080BD81B00090009800216D
:20242000416001B07047000080B582B001900198C07D002804D0FFE701980021816003E065
:202440000198FFF7CDFFFFE702B080BD0000000080B582B001900198012181740198C07ECD
:20246000042806DCFFE70198C07E012104F044FE05E00198C07EFF2101F07EF9FFE7019876
:2024800000F042FA00280FD0FFE7F9F785FD00900098002803D1FFE701200090FFE7019877
:2024A000009900F011F9FFE702B080BD0000000081B0009000980021816001B070470000F1
:2024C00080B582B001900198C07D00280FD0FFE7F9F762FD0199886001988068002805D1F1
:2024E000FFE70198816801398160FFE703E00198FFF7AEFFFFE702B080BD0000000000007F
:2025000081B0009000980021817701B07047000081B0009000980021016001B0704700009E
:2025200081B000900098817CC17401B07047000080B590B00A460F90ADF83A100F980C3072
:20254000BDF83A1002230D921A460C93F7F7D0FB0F991531BDF83A20023292B201230B90CC
:20256000084611461A460A93F7F7C2FB0F991631BDF83A20033292B20990084611460A9AB5
:20258000F7F7B6FB0F991431BDF83A20043292B20890084611460A9AF7F7AAFB0F991031C9
:2025A000BDF83A20053292B20790084611460C9AF7F79EFB0F991731BDF83A20073292B2AC
:2025C0000690084611460A9AF7F792FB0F991831BDF83A20083292B20590084611460A9A45
:2025E000F7F786FB0F991931BDF83A20093292B20490084611460A9AF7F77AFB0F991A31B9
:20260000BDF83A200A3292B20390084611460A9AF7F76EFB0F991B31BDF83A200B3292B274
:202620000290084611460A9AF7F762FB0F991C31BDF83A200C3292B20190084611460A9A14
:20264000F7F756FB0F991D31BDF83A200D3292B20090084611460A9AF7F74AFB10B080BDAA
:2026600082B00A4601908DF803109DF80300652804DBFFE70198642181770FE09DF8030028
:20268000B0F1FF3F04DCFFE701980021817704E09DF8030001998877FFE7FFE702B0704799
:2026A00082B00190009100980199086002B0704782B00A4601908DF803109DF803000199E6
:2026C000887502B07047000082B00190009100980199486002B0704782B00A4601908DF865
:2026E00003109DF803000199C87502B07047000082B00A460190ADF80210BDF802000199D4
:20270000888102B07047000080B584B00A4603468DF80F008DF80E109DF80F000292019342
:2027200000F0CEF800281CD0FFE79DF80E0000280BD0FFE79DF80F0047F2FC31C2F201019D
:2027400001EB4010FFF784FE0AE09DF80F0047F2FC31C2F2010101EB4010FFF741FEFFE7C4
:20276000FFE79DF80F0047F2FC31C2F2010101EB401000F0BDF804B080BD000000000000E1
:2027800081B0009000980121417501B07047000081B0009000980021417501B07047000008
:2027A00082B00A4601908DF803109DF803000199C8749DF803000199887402B07047000069
:2027C00080B582B001900198FFF7FAFC002818BF012002B080BD000080B582B001900198DC
:2027E000FFF7F6FC002818BF012002B080BD000080B582B00190F9F7CFFB01994A68801A4A
:2028000000900846FFF700FD4EF6602148430021009A824228BF0121084602B080BD0000D2
:2028200080B582B00190F9F7B7FB01998A68801A00900846FFF7F8FC4EF66021484300219F
:20284000009A824228BF0121084602B080BD000080B582B00190019800F06EF801990090C3
:20286000084600F045F80099081A18BF012002B080BD00000000000081B000900098C07CA6
:20288000002818BF012001B0704700000000000081B000900098807EB0FA80F0400901B045
:2028A000704700000000000081B000900098807E0138B0FA80F0400901B070470000000006
:2028C00082B001468DF807009DF8070000220028009208D4FFE79DF8070000210628B8BF57
:2028E00001210091FFE7009800F0010002B0704781B000900098807C002818BF012001B027
:20290000704700000000000080B582B001900198FFF77AFC002818BF012002B080BD0000F4
:2029200080B582B001900198FFF776FC002818BF012002B080BD000081B000900098C07CFA
:20294000002818BF012001B0704700000000000080B582B001900198FFF76EFC002818BFFF
:20296000012002B080BD000081B000900098807E0238B0FA80F0400901B0704700000000EB
:2029800081B000900098407D002818BF012001B0704700000000000082B001900198007EBF
:2029A00000211728009108DCFFE70198407E00213C28B8BF01210091FFE7009800F00100E7
:2029C00002B070470000000080B584B003900398007E47F26461C2F2010109780290084664
:2029E000EEF782FD0021029A8242019112D1FFE70398407E47F26461C2F201014978009039
:202A00000846EEF771FD0099081AB0FA80F040090190FFE7019800F0010004B080BD000005
:202A200080B500F005F800F05BF880BD0000000080B582B047F2F830C2F2010000210170E5
:202A40008DF80710FFE79DF8070005281DDCFFE79DF8070047F2FC31C2F2010101EB401058
:202A6000FFF7F2FB002808D0FFE747F2F830C2F2010001780131017000E006E0FFE79DF81A
:202A8000070001308DF80700DDE702B080BD000080B582B000208DF80700FFE79DF807002A
:202AA000052819DCFFE79DF8070047F2FC31C2F2010101EB4011C0EBC000CF2202EB400090
:202AC000009008460099FFF7EBFBFFE79DF8070001308DF80700E1E7FFF7A2FF02B080BD16
:202AE00080B500F039F8012101EB900047F2BC41C2F20101087080BD47F2BC40C2F2010057
:202B0000007870470000000080B582B000208DF80700FFE79DF80700052819DCFFE79DF854
:202B2000070047F2FC31C2F2010101EB4011C0EBC000CF2202EB4000009008460099FFF73F
:202B4000F7FCFFE79DF8070001308DF80700E1E7FFF766FF02B080BD47F2F830C2F201001B
:202B6000007870470000000080B58CB0FAF708FF01208DF820000021C2F201010991112154
:202B80008DF8281003218DF82B1000228DF82F208DF82E008DF82D008DF821208DF82A20A4
:202BA0008DF829208DF82C2008AB07901846069105920493FAF79CFE07988DF82000022117
:202BC0008DF821104FF0104109911B228DF82820059A8DF829208DF82A208DF82B208DF87A
:202BE0002C008DF82D008DF82E208DF82F2004980391FAF77DFE07988DF8200006998DF84C
:202C00002110039A099217238DF82830059B8DF829308DF82A308DF82B108DF82C008DF8E1
:202C20002D008DF82E008DF82F300498FAF760FE07988DF8200004218DF821104FF0404205
:202C400009921C238DF82830059B8DF829308DF82A308DF82B308DF82C008DF82D008DF898
:202C60002E308DF82F30049802910192FAF740FE07988DF8200005218DF8211001990991CD
:202C800016228DF82820059A8DF829208DF82A20069B8DF82B308DF82C208DF82D008DF86A
:202CA0002E008DF82F200498FAF722FE0298FAF77BFE4FF0204043F2D20101600CB080BD60
:202CC00080B543F64400C4F20200016821F48061016040F60000C4F202000E21F8F7E0FDE1
:202CE00046F60870C2F20100F7F7E2FF80BD000080B58EB0FFE743F64400C4F20200016868
:202D000041F480610160006800F4806004900498FFE7FFE743F63000C4F20200016841F049
:202D200004010160006800F0040003900398FFE70E200590032006900021079140F6000250
:202D4000C4F2020205AB0290104601911946F8F7E7FE46F60870C2F2010042F20021C4F2E8
:202D6000010101604FF480314160019981600161816101624162C162C160029AC26101632F
:202D800001234361F7F7D4FF002805D0FFE7A4209721F7F75DF9FFE70B200A9001200B90A0
:202DA0000C9000200D9046F60870C2F201000AA9F7F756FE0EB080BD80B543F63000C4F20D
:202DC0000200016821F48051016046F65070C2F20100F8F7B5F980BD80B582B046F6507053
:202DE000C2F2010043F20001C4F2020101600021017141714161816101210162FFE743F661
:202E00003000C4F20200016841F480510160006800F4805001900198FFE746F65070C2F20E
:202E20000100F8F7C5F9002805D0FFE7A4209621F7F70EF9FFE702B080BD000000000000BC
:202E400080B540F20040C4F202004FF48051F8F727FD40F60000C4F202004FF48851F8F7F3
:202E60001FFD40F60040C4F2020040F69401F8F717FD41F60000C4F2020046F20801F8F71B
:202E80000FFD80BD0000000080B594B0FFE743F63000C4F20200016841F002010160006803
:202EA00000F002000E900E98FFE7FFE743F63000C4F20200016841F004010160006800F097
:202EC00004000D900D98FFE7FFE743F63000C4F20200016841F008010160006800F008005B
:202EE0000C900C98FFE7FFE743F63000C4F20200016841F040010160006800F040000B9036
:202F00000B98FFE740F20040C4F202004FF4805101220A9009910892F9F71AF840F60000C1
:202F2000C4F202004FF48071002207900692F9F70FF807980999069AF9F70AF840F6004014
:202F4000C4F2020004210590069AF9F701F810210598069AF8F7FCFF80210598069AF8F751
:202F6000F7FF4FF400610598089AF8F7F1FF41F60000C4F20200082104900391069AF8F7CA
:202F8000E7FF09980F9008991091069A119212920FAB0A9819460293F8F7C2FD4FF4E85069
:202FA0000F900898109006991191129107980299F8F7B6FD0A200F900698109011900221A7
:202FC00012910798029A01911146F8F7A9FD40F694000F900898109006991191129105986B
:202FE0000299F8F79DFD03980F9008991091069A1192129204980299F8F792FD4FF4C04052
:203000000F900698109011900199129104980299F8F786FD14B080BD80B543F64000C4F2E7
:203020000200016821F4000101600020C4F202004FF48071F8F734FC40F60000C4F2020095
:203040004FF40071F8F72CFC46F6B470C2F20100F8F7C2FF80BD000080B543F64000C4F23F
:203060000200016821F08071016040F60040C4F202004FF44051F8F713FC41F60000C4F295
:2030800002000421F8F70CFC47F20000C2F20100F8F7A2FF80BD000080B584B040F6216037
:2030A000C2F201000021017047F2F800C2F201004C22039002911146EDF7CAF847F2806039
:2030C000C2F201003821EDF7C3F847F2B860C2F20100029941610161C1608160416001609A
:2030E00041F20000CAF20000039A10601046FAF71FFF0221039A5160042191601021D16086
:20310000172111614FF480715161029991611162D16101901046FBF7F7F8009002F058F952
:2031200041F2883001F024FE04B080BD0000000080B547F24410C2F20100FCF7E5FE80BD16
:2031400080B588B00020079006900590049003900290019047F24411C2F2010142F6000258
:20316000C4F200020A6048607F228A60FF22CA600861486188610846FDF706F8002805D077
:20318000FFE7A4209321F6F763FFFFE747F24410C2F201000121FCF78FFE43F2F2218842A6
:2031A0002DD0FFE700208DF808008DF809008DF80A000690079047F24410C2F2010002A948
:2031C0000122FDF739F9002805D0FFE7A4209321F6F73EFFFFE703208DF8040001208DF8E9
:2031E00005008DF8060014208DF8070046F67850C2F20100016821F40041016024E047F269
:203200004410C2F2010002210090FCF755FE8DF8060003210098FCF74FFE8DF80500042176
:203220000098FCF749FE8DF8040005210098FCF743FE8DF8070046F67850C2F20100016893
:2032400041F400410160FFE747F24410C2F2010001A90122FDF728F8002805D0FFE7A420E7
:203260009321F6F7F5FEFFE7FFE747F24410C2F201000168CA224A62006853214162FFE746
:2032800047F24410C2F20100FDF7B2F9002805D0FFE7A4209321F6F7DBFEFFE747F24410B9
:2032A000C2F20100012143F2F222FCF719FE08B080BD00000000000080B543F64400C4F287
:2032C0000200016821F48031016041F20000C4F202002021F8F7E4FA47F26410C2F2010001
:2032E000FDF74AFB80BD000080B590B0FFE743F64400C4F20200016841F4803101600068B0
:2033000000F4803003900398FFE7FFE743F63000C4F20200016841F010010160006800F08A
:20332000100002900298FFE747F26410C2F2010044F20001C4F201010160C821416000210E
:2033400081604FF47A72C26001618161FDF748FB002805D0FFE7A4209421F6F779FEFFE71A
:203360006020099050200A9000200B900D9047F26411C2F2010109AA019008461146019AEA
:20338000FDF71EFA002805D0FFE7A4209421F6F75FFEFFE720200490022005900020069054
:2033A00007900321089141F20001C4F2020104AA009008461146F8F7B3FB47F26410C2F2EB
:2033C00001000099FDF748FB10B080BD0000000080B582B043F64400C4F20200016821F009
:2033E0001001016043F64000C4F20200016821F4003101600020C4F202004FF4B051F8F70F
:203400004FFA40F60040C4F202006021F8F748FA2520FAF7E9FA2620FAF7E6FA47F2A41066
:20342000C2F20100FDF750FB47F21421C2F2010101900846FDF748FB02B080BD000000006F
:2034400080B58AB0FFE743F64400C4F20200016841F010010160006800F01000049004983E
:20346000FFE7FFE743F63000C4F20200016841F001010160006800F0010003900398FFE7F5
:203480004FF4B0500590022006900020079003210891072109910021C4F2020105AA02904B
:2034A00008461146F8F73CFB47F2A410C2F2010041F20001C4F2010101604FF4E13141605C
:2034C0000C21416102990161C16081608161C16101624162029A029BFCF77EFC002805D071
:2034E000FFE7A4209221F6F7B3FDFFE72520012100220190FAF790FA0198FAF781FA0AB098
:2035000080BD00000000000080B503F0C5FA80BD704700000000000088B007900691059296
:20352000079800F0070004900498C0F10700052803D3FFE70420019004E00498C0F1070037
:203540000190FFE70198039004980430062803D8FFE70020009003E0049803380090FFE729
:203560000098029006980399012202FA01F10139084002998840059B02FA01F101391940D0
:20358000084308B07047000080B582B000208DF806008DF8070068460F21016047F200005B
:2035A000C2F2010090210DF106020223F8F7F4FE002807D0FFE740F65A00C2F2010000214E
:2035C0000170FFE70520F8F757F901208DF8060068460F21016047F20000C2F201009021A6
:2035E0000DF106020223F8F7D7FE002807D0FFE740F65A00C2F2010000210170FFE7022018
:20360000F8F73AF902B080BD80B596B006208DF8540000208DF85500FFE79DF855000F281E
:203620001CDCFFE79DF8540047F2C641C2F2010100220A549DF8540001308DF854009DF8C5
:2036400054000A549DF8540003308DF85400FFE79DF8550001308DF85500DEE708208DF876
:20366000540000208DF85500FFE79DF855000F2834DCFFE79DF8550047F2C651C2F201010F
:20368000085C0001ADF85600BDF85600B0F57A6F05DDFFE740F6FF70ADF85600FFE7BDF82E
:2036A00056009DF8541047F2C642C2F2010250549DF8540001308DF854009DF857009DF8AB
:2036C000541050549DF8540003308DF85400FFE79DF8550001308DF85500C6E706208DF8BA
:2036E0000E000DF10E00411C47F2C642C2F20102063240230290084611461A46ECF780FDC9
:203700004FF4967101900846F8F7B6F868460C21016047F20000C2F2010090214123029A08
:20372000F8F73AFE002803D0FFE703F0B5F9FFE716B080BD0000000080B582B006208DF8E5
:20374000070068460F21016047F20000C2F2010000210DF107020123F8F71EFE002807D0DF
:20376000FFE740F65A00C2F2010000210170FFE702B080BD0000000080B584B00A460346B5
:203780008DF80F008DF80E109DF80E009DF80F1047F2C65CC2F2010C614401F8010C029240
:2037A0000193FFF731FF04B080BD00000000000080B584B00146ADF80E0000208DF80C004A
:2037C00010208DF80D0068460F22026047F20000C2F20100902203AB4FF0020C0291114661
:2037E0001A466346F8F7D8FD002803D0FFE703F053F9FFE7BDF80E00000347F64001C0F200
:203800007D11B1FBF0F0013847F2C641C2F2010181F8FE00FE208DF80C0091F8FE008DF82D
:203820000D0068460F21016047F20000C2F20100902103AA0223F8F7AFFD002803D0FFE74F
:2038400003F02AF9FFE700208DF80C00A0208DF80D0068460F21016047F20000C2F201003C
:20386000902103AA0223F8F797FD002803D0FFE703F012F9FFE70520F7F7FEFF01208DF8C7
:203880000C0004208DF80D0068460F21016047F20000C2F20100902103AA0223F8F77CFD4E
:2038A000002803D0FFE703F0F7F8FFE704B080BD80B58AB0099000208DF823000998007A83
:2038C000012840F0BE85FFE7099801214172099840683D2869DBFFE709984068C72864DCA0
:2038E000FFE747F2D060C2F201000078032810D0FFE747F2D060C2F201000078042808D0C1
:20390000FFE747F2D060C2F20100007805284CD1FFE701208DF8230046F69640C2F201006B
:203920000021017046F69740C2F20100017046F69840C2F2010001700998006801280CDB69
:20394000FFE7099800689F2807DCFFE746F69640C2F201000121017026E009980068A128B6
:203960000DDBFFE709980068B0F5A07F07DAFFE746F69740C2F201000121017013E00998F6
:203980000068B0F5A07F0DDDFFE709980068B0F5F07F07DAFFE746F69840C2F2010001215C
:2039A0000170FFE7FFE7FFE7FFE709980068B0F5C87F61DDFFE7099840683B285CDCFFE71B
:2039C00047F2D060C2F201000078032818DBFFE747F2D060C2F201000078062810D0FFE7C3
:2039E00047F2D060C2F2010000780F2844DBFFE747F2D060C2F20100007811283CD0FFE734
:203A000001208DF8230047F2D060C2F201000078012807DCFFE747F2D060C2F20100022114
:203A2000017027E047F2D060C2F201000078022818D0FFE747F2D060C2F2010000780628BC
:203A400010D0FFE747F2D060C2F2010000780F280FDBFFE747F2D060C2F201000078112834
:203A600007D0FFE747F2D060C2F2010007210170FFE7FFE700F0BEBC47F2D060C2F201007E
:203A80000078022875D1FFE709980068B0F5C87F48DAFFE70998406887281ADCFFE70998E6
:203AA0000068BD280DDCFFE747F2D060C2F201000F21017040F65B00C2F201000121017052
:203AC00006E047F2D060C2F2010006210170FFE727E009980068BD280FDCFFE747F2D06035
:203AE000C2F2010010210170EDF702FF40F65B00C2F201000121017012E047F2D060C2F2A2
:203B000001001321017047F2E650C2F201000221017040F65B00C2F2010001210170FFE788
:203B2000FFE718E009984068A02813DBFFE740F65B00C2F201000121017047F2C040C2F2FC
:203B400001000021017047F2D060C2F2010012210170FFE7FFE747F2D060C2F201000078AE
:203B6000022804D0FFE701208DF82300FFE700F040BC0998006801282BDBFFE7099800689F
:203B8000772826DCFFE709984068C92821DBFFE709984068B0F5887F1BDAFFE747F2D06049
:203BA000C2F201000078042808D0FFE747F2D060C2F20100007805280BD1FFE701208DF8C3
:203BC000230047F2D060C2F201000321017000F00FBC0998006879282ADBFFE709980068B6
:203BE000EF2825DCFFE709984068C92820DBFFE709984068B0F5887F1ADAFFE747F2D06074
:203C0000C2F201000078032808D0FFE747F2D060C2F20100007805280AD1FFE701208DF864
:203C2000230047F2D060C2F2010004210170DEE309980068F1282BDBFFE709984068C928A4
:203C400026DBFFE709980068B0F5B47F20DAFFE709984068B0F5887F1ADAFFE747F2D06084
:203C6000C2F201000078032808D0FFE747F2D060C2F20100007804280AD1FFE701208DF805
:203C8000230047F2D060C2F2010005210170ADE309980068B0F5B47F33DDFFE7099840689C
:203CA000C9282EDBFFE709980068B0F5F07F28DAFFE709984068B0F5887F22DAFFE747F20F
:203CC000D060C2F201000078032810D0FFE747F2D060C2F201000078042808D0FFE747F2DD
:203CE000D060C2F20100007805280AD1FFE701208DF8230047F2D060C2F2010007210170F9
:203D000073E347F2D060C2F201000078062866D1FFE709980068C9281ADBFFE7099840684E
:203D20005B2815DBFFE709980068B0F5A07F0FDAFFE709984068B0F5867F09DCFFE70120AF
:203D40008DF8230046F68D41C2F20101087045E009980068012819DBFFE7099840685B2886
:203D600014DBFFE70998006877280FDCFFE709984068B0F5867F09DCFFE701208DF823006E
:203D800046F68C41C2F20101087026E009980068B0F5C87F20DDFFE70998406897281BDB10
:203DA000FFE709984068BD2816DCFFE701208DF82300F8F7F1F847F68461C2F20101086036
:203DC0000868002807D1FFE747F68460C2F2010001210160FFE7FFE7FFE7FFE704E347F27C
:203DE000D060C2F2010000780F2840F0BC80FFE740F65800C2F2010006210170FEF77CFE93
:203E000056210128C8BF0A2107914FF000008DF81B008DF81A00FFE79DF81A000290FEF71E
:203E20006BFE0299814280F29D80FFE7FEF794FE8DF81900FEF790FE04281DDBFFE7FEF79F
:203E40008BFE042804D1FFE702208DF8190012E0FEF782FE052809D1FFE79DF81A0003210B
:203E60000028C8BF02218DF8191003E003208DF81900FFE7FFE7FFE79DF8190000EB800152
:203E80004FF4C872A2EB0111013091FBF0F08DF8180000208DF81700FFE79DF817009DF8E9
:203EA000191088424DDAFFE79DF818009DF817109DF81920B1FBF2F303FB12114A1C504320
:203EC00001EB810100EB0110049009980068049988422FDDFFE70998006804995031884291
:203EE00028DAFFE7099840680799884222DDFFE7099840680799783188421BDAFFE70120EA
:203F00008DF823009DF81B009DF81710084440F65801C2F201010870F8F73EF847F2D02135
:203F2000C2F20101086040F61C60C2F201000021016006E0FFE79DF8170001308DF8170035
:203F4000ABE79DF819009DF81B1008448DF81B00079882300790FFE79DF81A0001308DF842
:203F60001A0059E73FE247F2D060C2F201000078102840F09180FFE709980068B0F5C87FDC
:203F800080F28980FFE70998006840F61901C2F201010978C822A2EB5101884234DDFFE7A6
:203FA0000998006840F61901C2F201010978C82202EB5101884227DAFFE7EDF705FD002889
:203FC0000AD0FFE70998406802218828B8BF01210846EDF775FE13E0EDF70AFD00EB4000BE
:203FE00046F6A041C2F2010101EB80000999496802228829B8BF01221146EDF71DFCFFE786
:2040000001208DF8230045E009984068C12840DBFFE709980068B0F5A07F19DDFFE7EDF7F2
:20402000D3FC002804D0FFE70020EDF78DFC06E0EDF7DEFC0130C0B2EDF786FCFFE740F679
:204040005B00C2F20100012101708DF823101FE0099800684F281ADCFFE7EDF7C9FC0028D9
:2040600005D1FFE7EDF7F0FEEDF76EFC06E0EDF7BFFC0138C0B2EDF767FCFFE740F65B0076
:20408000C2F20100012101708DF82310FFE7FFE7FFE7FFE7FFE7A5E147F2D060C2F20100FE
:2040A000007812284AD1FFE709980068B0F5C87F2ADAFFE709984068752824DBFFE7099802
:2040C0004068D7281FDCFFE709980068BD2812DCFFE747F2D060C2F201001321017047F29A
:2040E000E650C2F201000121017040F65B00C2F20100017006E047F2D060C2F201000B215B
:204100000170FFE7FFE718E009984068A02813DBFFE747F2D060C2F201000221017047F29A
:20412000C040C2F201000021017040F65B00C2F2010001210170FFE7FFE752E147F2D060F7
:20414000C2F20100007814284DD1FFE709984068B32819DCFFE740F65800C2F20100007838
:2041600047F2FC31C2F2010101EB401009990A684968019010460EF027F9019900900846A5
:204180000099FEF78DFA27E040F65800C2F20100007847F2FC31C2F2010101EB401009994E
:2041A0000968143900EE101AB8EEC00A41F62431C0F60501098801EE101AB8EE411A80EE58
