:020000040800F2
:10000000107D0320DD010008692701083906010879
:100010006127010809150008818901080000000016
:10002000000000000000000000000000EF010008D8
:10003000E11F000800000000F30100084161010811
:10004000F7010008F7010008F7010008F7010008B0
:10005000F7010008F7010008F7010008F7010008A0
:10006000F7010008F7010008F7010008F701000890
:10007000F7010008F7010008F7010008F701000880
:10008000F7010008F7010008F7010008F701000870
:10009000F7010008F7010008F7010008F701000860
:1000A000F7010008F7010008F7010008F701000850
:1000B000F7010008F7010008F7010008F701000840
:1000C000F7010008F7010008F7010008F701000830
:1000D000F70100086189010871890108F70100082A
:1000E000F7010008F7010008F7010008F701000810
:1000F000F7010008F7010008F7010008F701000800
:10010000F7010008F7010008F7010008F7010008EF
:10011000F7010008F7010008F7010008F7010008DF
:10012000F7010008F7010008F7010008F7010008CF
:10013000F7010008F7010008F7010008F7010008BF
:10014000F7010008F7010008F7010008F7010008AF
:10015000F7010008F7010008F7010008F70100089F
:10016000F7010008F7010008F7010008F70100088F
:10017000F7010008F7010008F7010008000000007F
:10018000F7010008F7010008F7010008F70100086F
:10019000F7010008F7010008F7010008F70100085F
:1001A00079140108F7010008C11F0008F7010008D1
:1001B00011480108F7010008F7010008F7010008DD
:1001C000F7010008F7010008DFF80CD000F0B0FBE1
:1001D0000048004761AC0108107D032006488047B5
:1001E00006480047FEE7FEE7FEE7FEE7FEE7FEE71C
:1001F000FEE7FEE7FEE7FEE7D1620108C90100085D
:1002000010B5441A0346944209D28318114403E0FE
:1002100011F8014D03F8014D521EF9D210BD40EA0C
:100220000104A40703D009E010C9121F10C3042A57
:10023000FAD203E011F8014B03F8014B521EF9D238
:1002400010BDD2B201E000F8012B491EFBD270476D
:100250000022F6E710B513460A4604461946FFF792
:10026000F0FF204610BD421C10F8011B0029FBD1F5
:10027000801A704730B504460020034600E05B1C3E
:10028000934203D2E05CCD5C401BF8D030BD034606
:1002900011F8012B00F8012B002AF9D118467047FC
:1002A0002DE9FE4F804681EA0300C00F0C46009006
:1002B00021F0004123F00045B8EB0200A94105D22E
:1002C0004046214690461C460B46024623F000401D
:1002D000104347D0270DC7F30A00C3F30A51029019
:1002E000401A019040286BDAC3F3130040F4801BDE
:1002F0000098924620B10023D2EB030A63EB0B0B6C
:1003000001985946C0F14002504600F004FA0646F2
:100310000D4650465946019A00F01CFA10EB0800B1
:100320006141002487EA115284EAE7731A4340D0FE
:10033000009A62B3019A012A4FEA075215DC001BAA
:1003400061EB02014FF0004202EA0752CDE90042A0
:10035000001C41F5801132462B4600F053FA03B0E1
:10036000BDE8F08F40462146F9E7001B61EB020132
:10037000001C41F5801300185B412018A2F50017FE
:1003800047EB030140EAD570B6196D4111E06D08E5
:100390004FEA360645EAC0754FEA0752001B61EB8B
:1003A0000201001C41F5801149084FEA3000001994
:1003B000514132462B4603B0BDE8F04F00F013BA6E
:1003C0000098012240000023D0EB020263EBE073AF
:1003D000009821464FEAE074B8EB000061EB04019D
:1003E000E9E783F000435BE781F0004158E72DE93E
:1003F000FE4F81EA030404F0004421F00041009420
:100400004FF0000B23F0004350EA01045ED052EAA3
:1004100003045BD0C3F30A54C1F30A552C44A4F27D
:10042000F3340194A0FB0254C1F3130141F4801191
:10043000C3F3130343F4801301FB024400FB034E98
:10044000840A970A44EA815447EA8357A4FB076861
:1004500002958D0A05FB07854FEA932C04FB0C548B
:100460002705029D4FEA065847EA1637B5EB0805FF
:100470006EEB070C870E920E47EA811742EA831251
:10048000A7FB0201B6EB0B0164EB00042B0D43EA62
:100490000C335E1844EB1C50DA465146E7FB020170
:1004A000C5F313044FEA0B3343EA14534FEA043203
:1004B000019C43EA0603A4F10C040294009CCDE9DC
:1004C00000B400F09FF903B0BDE8F08F00200146B2
:1004D000F9E72DE9F04D81EA030404F0004B21F027
:1004E000004514464FF0000A23F0004150EA05028F
:1004F00020D054EA01021DD0C5F30A570246C5F3C5
:100500001303C1F31300C1F30A5640F4801543F4FA
:100510008013A7EB0608101BD64608F2FD3873EBD4
:10052000050002D308F1010801E092185B41B8F11F
:10053000000F03DA00200146BDE8F08D00204FF4E3
:100540008011064684460EE0171B73EB050705D3A2
:10055000121B63EB050306434CEA010C49084FEA02
:10056000300092185B4150EA0107EDD152EA0300D6
:1005700012D082EA040083EA0501084305D0101B6B
:10058000AB4106D20122002306E000224FF00043D7
:1005900002E06FF0010253101AEB06004CEB085119
:1005A00010EB0A0041EB0B01BDE8F04D00F01BB968
:1005B0000EB5C10F80EAE0700844CA07002140F27E
:1005C00033438DE80E000A460B4600F01BF903B0DA
:1005D00000BD0EB540F2334102910021CDE900117A
:1005E0000A460B4600F00EF903B000BD70B5C1F32A
:1005F0000A5201F000450024C1F3130140F2FF3319
:1006000041F480119A4201DA002070BD40F2334378
:100610009A42A2F2334203DC524200F08BF800E02F
:1006200090402C43F1D0404270BD00F0004230F0C9
:1006300000400AD0C10D01F56071C0F3160042EA16
:100640000151C2084007114370470020014670471E
:1006500001F0004330B421F0004150EA010206D01D
:100660000A0DA2F56072C1F31301002A02DC30BC4E
:1006700000207047440F44EAC104C100E01830BCB8
:1006800000EBC25000F078B830B50B4601460020B0
:100690002022012409E021FA02F59D4205D303FA44
:1006A00002F5491B04FA02F52844151EA2F10102C5
:1006B000F1DC30BD2DE9F05F0546002092469B46F7
:1006C00088460646814640241BE028464146474668
:1006D000224600F02FF853465A46C01A914110D3D3
:1006E00011461846224600F016F82D1A67EB01084D
:1006F0004F4622460120002100F00DF817EB0009BB
:100700004E41201EA4F10104DFDC484631462A4652
:100710004346BDE8F09F202A04DB203A00FA02F1AC
:10072000002070479140C2F1200320FA03F31943DF
:1007300090407047202A04DB203A21FA02F0002181
:10074000704721FA02F3D040C2F1200291400843E1
:1007500019467047202A06DBCB17203A41FA02F0EF
:1007600043EAE07306E041FA02F3D040C2F120020E
:1007700091400843194670470029A8BF7047401CA4
:10078000490008BF20F00100704710B4B0FA80FCA7
:1007900000FA0CF050EA010404BF10BC704749B1E4
:1007A000CCF1200421FA04F411FA0CF118BF012154
:1007B00021430843A3EB0C01CB1D4FEA00614FEA34
:1007C000102042BF002010BC704700EBC350104403
:1007D0000029A4BF10BC7047401C490008BF20F08E
:1007E000010010BC704710B5141E73F1000408DA44
:1007F000401C41F1000192185B411A4301D120F0E5
:10080000010010BD2DE9F04D92469B4611B1B1FAA1
:1008100081F202E0B0FA80F220329046FFF77BFFCF
:1008200004460F4640EA0A0041EA0B0153465A4685
:10083000084313D0114653EA010019D0C8F1400211
:100840005046FFF777FF05460E465046594642464A
:10085000FFF761FF084305D0012004E02046394638
:10086000BDE8F08D0020054346EAE0762C4337438F
:100870000A986305E40AA0EB08000022FD0A44EA96
:1008800047540A3002D500200146E9E70105101956
:100890006941DDE9084500196941BDE8F04DA2E76D
:1008A000C1F30A52C1F3130140F2FF3341F4801146
:1008B0009A4202DA00200146704740F233439A42DE
:1008C000A2F2334202DC5242FFF734BFFFF723BFEC
:1008D00030B5041E71F1000404DB4FF000444042C7
:1008E00064EB0101141E73F1000405DB1C464FF09C
:1008F0000043524263EB04038B4208BF824230BD87
:1009000030B5041E71F1000404DB4FF00044404296
:1009100064EB0101141E73F1000405DB1C464FF06B
:100920000043524263EB0403994208BF904230BD3A
:10093000064C074D06E0E06840F0010394E807002C
:1009400098471034AC42F6D3FFF742FCA4000508E8
:10095000D400050870B58C1810F8015B15F007037A
:1009600001D110F8013B2A1106D110F8012B03E048
:1009700010F8016B01F8016B5B1EF9D12B0705D450
:100980000023521E0DD401F8013BFAE710F8013B99
:10099000CB1A921C03E013F8015B01F8015B521EB5
:1009A000F9D5A142D8D3002070BD0000000000009E
:1009B00080B58AB00AF0D4FE40F6C831C2F2010117
:1009C0000968401A0C28C0F0BD81FFE70AF0C8FE94
:1009D00040F6C831C2F2010108600120079008907A
:1009E00040F6C430C2F201000078002803D1FFE7CE
:1009F0000B20069017E040F6C430C2F201000078E8
:100A0000012803D1FFE70C2006900BE040F6C4302C
:100A1000C2F201000078022803D1FFE70D20069002
:100A2000FFE7FFE7FFE746F67860C2F2010006A99C
:100A3000029009F011FC02990190084609F064FE49
:100A40000A21029A0090104609F0CEFD40F6C4310A
:100A5000C2F201010978002940F03881FFE746F62B
:100A60007860C2F2010009F057FD40F6CC31C2F2C5
:100A700001010A6840F6D033C2F2010323F81200E4
:100A80000868013008600A2807D3FFE740F6CC3039
:100A9000C2F2010000210160FFE7002004900390F2
:100AA000FFE7039809280FD8FFE7039840F6D031F5
:100AB000C2F2010131F81000049908440490FFE7E4
:100AC000039801300390ECE704984CF6CD41CCF646
:100AD000CC41A0FB0101C90804910499642905D304
:100AE000FFE70498B0F57A6F18D9FFE740F6CC30ED
:100AF000C2F201000068002809D1FFE747F2C550A3
:100B0000C2F20100017801F0FE010170FFE747F633
:100B1000C440C2F2010000214180D6E040F6CC3052
:100B2000C2F201000068002809D1FFE747F2C55072
:100B3000C2F20100017841F001010170FFE7BDF848
:100B4000100013F051FF40F6C030C2F2010080EDFA
:100B5000000A90ED000AB2EE041A20EE010ABDEE82
:100B6000C00A10EE100AADF8160047F6C440C2F2F3
:100B70000100B0F9020046F26761C6F2666150FBFF
:100B800001F0821002EBD070BDF9162052FB01F18A
:100B90008A1002EBD171884200F08180FFE70AF0F1
:100BA000DFFD47F2C051C2F201010968401A40F668
:100BB000B83188425DD8FFE70AF0D2FD47F2BC5158
:100BC000C2F201010968401AFA2851D3FFE70AF07E
:100BD000C7FD47F2BC51C2F20101086047F2344040
:100BE000C2F20100B0F9000046F26761C6F2666128
:100BF00050FB01F0821002EBD070BDF9162052FBC1
:100C000001F18A1002EBD17188420ED0FFE7BDF8E6
:100C1000160047F23441C2F20101088047F2C45085
:100C2000C2F201000021017021E047F2C450C2F27B
:100C3000010001780131017000780A2816D1FFE720
:100C400047F2C450C2F2010000210170BDF8160045
:100C500047F6C441C2F20101488046F6F040C2F2B4
:100C60000100016841F480110160FFE7FFE7FFE741
:100C700014E00AF075FD47F2C051C2F201010860AC
:100C80000AF06EFD47F2BC51C2F20101086047F262
:100C9000C450C2F2010000210170FFE714E00AF025
:100CA0005FFD47F2C051C2F2010108600AF058FD31
:100CB00047F2BC51C2F20101086047F2C450C2F2CF
:100CC000010000210170FFE7FFE728E040F6C43093
:100CD000C2F201000078012808D1FFE746F67860EB
:100CE000C2F2010009F018FC049017E040F6C4308D
:100CF000C2F20100007802280FD1FFE746F67860C3
:100D0000C2F2010009F008FCFF21A1EB101047F22C
:100D10003E21C2F201010870FFE7FFE7FFE740F65E
:100D2000C430C2F2010001780131CAB20170032A55
:100D300007D3FFE740F6C430C2F201000021017082
:100D4000FFE7FFE70AB080BD81B0009042F20430B7
:100D5000C4F20100016821F4403101600099496842
:100D600002681143016000980068416821F48071B5
:100D700041600098016800694A6842EA00204860C2
:100D800000980068416821F0407141600098016856
:100D900080684A681043486000980068816821F4C0
:100DA0000061816000980168C0688A6810438860AB
:100DB0000098806A0121C0F60071884219D0FFE7CF
:100DC00000980068816821F0706181600098016876
:100DD000806A8A681043886000980068816821F002
:100DE0004051816000980168C06A8A681043886039
:100DF0000CE000980068816821F0706181600098C3
:100E00000068816821F040518160FFE70098006828
:100E1000816821F0020181600098016880698A6818
:100E200042EA400088600098006A002819D0FFE775
:100E300000980068416841F40061416000980068D2
:100E4000416821F46041416000980168406A4EF2B7
:100E50000002CFF6FF7202EB40304A681043486050
:100E600006E000980068416821F400614160FFE7F6
:100E700000980068C16A21F47001C162009801689D
:100E8000C0690022CFF6F07202EB0050CA6A10432C
:100E9000C86200980068816821F400718160009840
:100EA0000168006B8A6842EA402088600098006808
:100EB000816821F4806181600098016840698A68D6
:100EC00042EA8020886001B0704700000000000006
:100ED00081B00090009847F29C41C2F2010141604C
:100EE00047F2A240C2F2010000780099088101B0E7
:100EF000704700000000000080B58CB00B9000200F
:100F00000A9040F66C41C2F2010101220A601023EE
:100F10004B608A60C86047F22C5CC2F2010C4FF64D
:100F2000FF7E099060460891079272460693CDF8BD
:100F300014C0CDF810E00EF0ABFE07990390084600
:100F40000AF096F802200899086006984860079A07
:100F50008A60099BCB600598049A0EF099FE0321E4
:100F6000089A11600699516008239360099BD36029
:100F7000DDF814C0029060461146049A0EF088FE17
:100F80004FF408710A910421089A11600699516082
:100F9000079B9360DDF828C0C2F80CC0DDF814C0D0
:100FA000019060461146049A0EF072FE0B99059A64
:100FB000009010460EF048FE0CB080BD000000000E
:100FC00080B59AB019901891FFE743F63800C4F243
:100FD0000200016841F001010160006800F00100B9
:100FE00012901298FFE7FFE743F63000C4F20200C8
:100FF000016841F480010160006800F480001190F4
:101000001198FFE7FFE743F63000C4F202000168E1
:1010100041F001010160006800F00100109010989B
:10102000FFE7FFE743F63000C4F20200016841F039
:1010300004010160006800F004000F900F98FFE7C2
:10104000FFE743F63000C4F20200016841F00801F6
:101050000160006800F008000E900E98FFE7FFE7BF
:1010600043F63000C4F20200016841F01001016053
:10107000006800F010000D900D98FFE7FFE743F6C1
:101080003000C4F20200016841F0200101600068F4
:1010900000F020000C900C98FFE7FFE743F63000CB
:1010A000C4F20200016841F040010160006800F0F4
:1010B00040000B900B98FFE74FF63F001390022083
:1010C000149000211591032216920C23179341F2DC
:1010D000004CC4F2020C0DF14C0E0A9060460991CE
:1010E000714608920793CDF818E00AF015F98020B0
:1010F00013900A991491099A1592089B1693DDF89A
:101100001CC0CDF85CC040F2000EC4F2020E059087
:10111000704606990AF000F9302013900A9814904E
:1011200009991591089A1692079B179340F60000AB
:10113000C4F2020006990AF0EFF848F23310139057
:101140000A98149009991591089A1692079B17937B
:1011500041F60000C4F2020006990AF0DDF84FF6ED
:10116000837013900A98149009991591089A169211
:10117000079B179341F20000C4F2020006990AF09F
:10118000CBF84CF2037013900A98149009991591BA
:10119000089A1692079B179340F60040C4F202008B
:1011A00006990AF0B9F840F6E430C2F20100099954
:1011B0004160059A82604FF40073C3604FF480630E
:1011C00003614FF4805343614FF480438361C161F5
:1011D0004FF4003303624162089B8362C162016382
:1011E00046F2104CC4F2020CC0F800C0FFE7199898
:1011F00040F6E431C2F20101016319988863FFE708
:1012000040F6E430C2F20100049009F0F9FD0499BF
:101210000390084609F044FE38210F220023029073
:101220000846019111461A460BF0B2FE01980BF0E8
:10123000A3FE1AB080BD000080B592B011900020CE
:101240008DF8430047F6F040C2F2010000680069E3
:1012500040F61851C2F2010109780390084603993B
:1012600088471199087011980078002800F038819B
:10127000FFE700200490FFE704981199097888425D
:1012800080F02D81FFE747F6F040C2F201000068D0
:10129000406940F61851C2F201010978049A09AB7D
:1012A00003EB42030DF11A0C0CEB420202900846CC
:1012B0001946029B984747F6F440C2F201000078B5
:1012C000012811D1FFE7049809A931F810100EAADE
:1012D00022F8101004980DF11A0131F810100DF1D8
:1012E0002E0222F81010FFE747F6F440C2F2010088
:1012F0000078800700280AD5FFE7049809A931F88B
:101300001010C1F580510EAA22F81010FFE747F621
:10131000F440C2F201000078400700280CD5FFE736
:1013200004980DF11A0131F81010C1F580510DF13A
:101330002E0222F81010FFE747F6F440C2F2010037
:1013400000780007002811D5FFE7049809A931F8B3
:1013500010100DF12E0222F8101004980DF11A0150
:1013600031F810100EAA22F81010FFE704980EA909
:1013700031F8101040F64442C2F2010252F8200047
:1013800081420DD9FFE704980EA931F8101040F6FC
:101390004442C2F2010252F82000081A01900CE007
:1013A000049840F64441C2F2010151F820100EAAFF
:1013B00032F81000081A0190FFE70198ADF8180004
:1013C00004980DF12E0131F8101040F65842C2F287
:1013D000010252F8200081420ED9FFE704980DF176
:1013E0002E0131F8101040F65842C2F2010252F8B4
:1013F0002000081A00900DE0049840F65841C2F20F
:10140000010151F820100DF12E0232F81000081AD7
:101410000090FFE70098ADF81600BDF81800BDF881
:1014200016100844062816DBFFE704980EA931F8C9
:10143000101040F64442C2F2010242F82010049813
:101440000DF12E0131F8101040F65842C2F201029F
:1014500042F82010FFE740F61850C2F20100007871
:10146000702812D1FFE704980EA931F81010119AD4
:1014700002EB4000418004980DF12E0131F810106C
:10148000119A02EB4000818124E047F6F640C2F257
:1014900001000088049940F64442C2F2010252F869
:1014A00021205043000B119A02EB4101488047F67E
:1014B000F840C2F201000088049940F65842C2F296
:1014C000010252F821205043000B119A02EB410116
:1014D0008881FFE7FFE7049801300490CCE6FFE73E
:1014E0009DF8430012B080BD81B001468DF8030025
:1014F0009DF80300020902EB820200F00F0000EBEE
:101500004200C0B201B0704780B514F049F980BD07
:1015100086B04EF69450CEF20000016821F005012D
:1015200001604EF69851CEF2000100220A604EF69C
:101530009C51CEF200011023C2F201030B604EF663
:10154000A051CEF200013D23C0F202330B60052111
:101550000160BFF34F8FBFF36F8F4EF65070CEF226
:1015600000000260BFF34F8FBFF36F8F4EF6145031
:10157000CEF20000016841F480210160BFF34F8F7B
:1015800000688003002801D5FFE71AE0BFF34F8F02
:10159000BFF36F8F4EF65070CEF200000021016055
:1015A000BFF34F8FBFF36F8F4EF61450CEF2000093
:1015B000016841F400310160BFF34F8FBFF36F8FBB
:1015C000FFE74EF68450CEF2000000210160BFF329
:1015D0004F8F4EF68050CEF20000006805900598BF
:1015E000C0F34E300490FFE70598C0F3C9000390A4
:1015F000FFE704980399890760F34D114EF6607078
:10160000CEF2000001600398411E03910028F0D142
:10161000FFE70498411E04910028E5D1FFE7BFF3DE
:101620004F8FBFF36F8F4EF61450CEF2000000685C
:10163000C003002801D5FFE73CE04EF68450CEF20F
:10164000000000210160BFF34F8F4EF68050CEF2B4
:101650000000006802900298C0F34E300190FFE74E
:101660000298C0F3C9000090FFE70198009989072C
:1016700060F34D114EF66070CEF2000001600098EC
:10168000411E00910028F0D1FFE70198411E019111
:101690000028E5D1FFE7BFF34F8F4EF61450CEF28E
:1016A0000000016841F480310160BFF34F8FBFF348
:1016B0006F8FFFE706B0704781B000900098017A05
:1016C000417201B07047000047F6FC40C2F20100D1
:1016D000007870470000000081B000900098C0883A
:1016E00001B070470000000081B000900098808831
:1016F00001B070470000000080B582B001900AF090
:101700002FF801990968401A800800217C2888BFB9
:101710000121084602B080BD80B586B00A4605901A
:10172000ADF8121005980021016005980172059826
:1017300041720598817205980430BDF81210022399
:1017400003921A46029307F013FF05990631BDF87C
:101750001220023292B2019008461146029A07F016
:1017600007FF06B080BD000080B582B001468DF84D
:1017700006009DF8060000EB400046F61842C2F253
:10178000010202EB8000009100F0D6F9002804D09D
:10179000FFE700208DF8070016E09DF8060000EB3B
:1017A000400046F61841C2F2010101EB800000F052
:1017B000CFF9002804D0FFE701208DF8070003E0EF
:1017C00002208DF80700FFE79DF8070002B080BDFA
:1017D00082B001468DF807009DF80700002200281E
:1017E000009208D4FFE79DF8070000210F28B8BF3A
:1017F00001210091FFE7009800F0010002B070475E
:1018000080B584B00A4603908DF80B1003980192BE
:1018100000F046F900281CD0FFE7039800F0A4F977
:10182000002804D0FFE7039800214172FFE79DF8EC
:101830000B000399087209F093FF0399086003985D
:101840000068002804D1FFE7039801210160FFE749
:10185000FFE704B080BD000080B584B00A46039065
:101860008DF80B100398019200F032F9002812D085
:10187000FFE70398007A9DF80B1088420BD1FFE731
:101880000398407A9DF80B10884204D1FFE7039833
:1018900000F0BEF805E003989DF80B10FFF7B0FFCD
:1018A000FFE704B080BD000080B584B00A4603465F
:1018B0008DF80F008DF80E109DF80F0000EB400022
:1018C00046F61841C2F2010101EB80009DF80E10AE
:1018D00002920193FFF7C0FF04B080BD000000003A
:1018E00081B0009000980121817201B07047000022
:1018F00081B0009000980021817201B07047000013
:1019000080B582B001900198002101720198417266
:10191000019801600198FFF7EBFF02B080BD000065
:1019200080B500F0BDFA46F61441C2F2010108701C
:1019300080BD00000000000080B582B0019009F079
:101940000FFF0199086001980068002804D1FFE7A3
:10195000019801210160FFE702B080BD0000000096
:1019600080B586B00A460590ADF81210059804308F
:10197000BDF81210022303921A46029307F040FEAC
:1019800005990631BDF81220023292B20190084644
:101990001146029A07F034FE06B080BD0000000038
:1019A00081B001468DF803009DF8030046F614420D
:1019B000C2F20102107001B0704700000000000088
:1019C00081B001468DF803009DF8030047F6FC4204
:1019D000C2F20102107001B0704700000000000068
:1019E00082B00A460190ADF80210BDF802000199DC
:1019F000C88002B07047000082B00A460190ADF87E
:101A00000210BDF802000199888002B07047000002
:101A100081B0009000980021017201B07047000071
:101A200080B582B046F61440C2F201000078019001
:101A300000F036FA0199081AB0FA80F0400902B0B5
:101A400080BD00000000000046F61440C2F2010014
:101A5000007870470000000081B000900098017A83
:101A6000407A081A18BF012001B07047000000003A
:101A700080B582B0019009F073FE01990968401A9F
:101A80000090FFF721FE4FF47A7148430021009A3D
:101A9000824228BF0121084602B080BD000000003C
:101AA00082B001900198808800210028009107D021
:101AB000FFE70198C088002818BF01200090FFE7C9
:101AC000009800F0010002B0704700000000000024
:101AD00080B582B001900198FFF7E2FF002807D09F
:101AE000FFE70198407A002818BF0120009002E02B
:101AF00000200090FFE70098002818BF012002B0E6
:101B000080BD00000000000081B000900098407A85
:101B10000138B0FA80F0400901B0704700000000C1
:101B200081B000900098007A0238B0FA80F0400945
:101B300001B070470000000081B000900098007A6A
:101B4000B0FA80F0400901B07047000000000000CA
:101B500081B000900098007A0138B0FA80F0400916
:101B600001B070470000000081B000900098807ABA
:101B7000002818BF012001B07047000000000000DD
:101B800080B582B046F6CC40C2F20100002101705F
:101B90008DF80710FFE79DF807000E281FDCFFE710
:101BA0009DF8070000EB400046F61841C2F2010123
:101BB00001EB8000FFF774FF002808D0FFE746F62E
:101BC000CC40C2F2010001780131017000E006E072
:101BD000FFE79DF8070001308DF80700DBE702B052
:101BE00080BD00000000000080B582B047F6FC40D8
:101BF000C2F201004FF4D871012207F0B9FC0021B4
:101C00008DF80710FFE79DF807000E2819DCFFE7A5
:101C10009DF8070000EB400146F61842C2F20102AF
:101C200002EB8101932202EB8000009008460099AC
:101C3000FFF772FDFFE79DF8070001308DF8070000
:101C4000E1E7FFF79DFF02B080BD0000000000004B
:101C500080B582B001468DF8070046F6CD40C2F24D
:101C6000010001220270009100F022F9002832D018
:101C7000FFE700208DF80600FFE79DF806000E281C
:101C800028DCFFE79DF8060000EB400046F618410F
:101C9000C2F2010101EB8000FFF702FF002812D021
:101CA000FFE79DF807000121012808BF02219DF8E8
:101CB000060000EB400046F61842C2F2010202EBB9
:101CC00080004172FFE7FFE79DF8060001308DF8C4
:101CD0000600D2E7FFE700208DF80500FFE79DF83A
:101CE00005000E2815DCFFE79DF8050000EB40001D
:101CF00046F61841C2F2010101EB80009DF8071081
:101D0000FFF77EFDFFE79DF8050001308DF8050027
:101D1000E5E702B080BD000080B582B001468DF8D5
:101D2000070001208DF806009DF80700002853D019
:101D3000FFE700208DF80500FFE79DF805000E285D
:101D400049DCFFE79DF8050000EB400046F618412E
:101D5000C2F2010101EB8000FFF7A2FE002833D0A0
:101D6000FFE79DF8050000EB400046F61841C2F27F
:101D7000010101EB8000FFF7ABFE002820D0FFE758
:101D80009DF8050000EB400046F61841C2F2010143
:101D900001EB8000007A9DF80710884210D1FFE720
:101DA0009DF8050000EB400046F61841C2F2010123
:101DB00001EB8000407A9DF80710884204D0FFE7CD
:101DC00000208DF80600FFE7FFE79DF805000130D1
:101DD0008DF80500B1E7FFE79DF80600002803D065
:101DE000FFE700F03DF804E09DF80700FFF730FF43
:101DF000FFE702B080BD000080B582B047F6FC402E
:101E0000C2F201004FF4D871012207F0F9FB002162
:101E10008DF80710FFE79DF807000E2819DCFFE793
:101E20009DF8070000EB400146F61842C2F201029D
:101E300002EB8101932202EB80000090084600999A
:101E4000FFF78EFDFFE79DF8070001308DF80700D2
:101E5000E1E7FFF795FE02B080BD00000000000042
:101E600080B582B000208DF80700FFE79DF80700DD
:101E70000E2813DCFFE79DF8070000EB400046F654
:101E80001841C2F2010101EB8000FFF7C1FDFFE73D
:101E90009DF8070001308DF80700E7E702B080BD2C
:101EA00046F6CC40C2F20100007870470000000006
:101EB00080B582B000208DF80600FFE79DF806008F
:101EC0000E281ADCFFE79DF8060000EB400046F6FE
:101ED0001841C2F2010101EB8000FFF7F9FD002873
:101EE00004D0FFE701208DF807000AE0FFE79DF826
:101EF000060001308DF80600E0E700208DF80700AD
:101F0000FFE79DF8070002B080BD00000000000060
:101F100080B582B000208DF806008DF80500FFE73F
:101F20009DF805000E283CDCFFE79DF8050000EB5E
:101F3000400046F61841C2F2010101EB8000FFF7B4
:101F4000AFFD002813D0FFE79DF8050000EB40002F
:101F500046F61841C2F2010101EB8000FFF7E0FDF7
:101F6000002804D1FFE700208DF8070021E09DF84C
:101F7000050000EB400046F61841C2F2010101EBFA
:101F80008000FFF78DFD002804D0FFE701208DF8C9
:101F90000600FFE7FFE79DF8050001308DF805001A
:101FA000BEE79DF80600002818BF01208DF8070045
:101FB000FFE79DF8070002B080BD000000000000B0
:101FC00080B546F6E460C2F2010008F065FD4BF210
:101FD0000800C4F202000221016080BD0000000080
:101FE000704700000000000080B546F67070C2F235
:101FF00001000EF025FE80BD7047C06B1BF053B88A
:10200000000000000000000004441031000001083E
:1020100080B582B000208DF806008DF80500FFE73E
:102020009DF805000E283CDCFFE79DF8050000EB5D
:10203000400046F61841C2F2010101EB8000FFF7B3
:102040002FFD002813D0FFE79DF8050000EB4000AE
:1020500046F61841C2F2010101EB8000FFF778FD5E
:10206000002804D1FFE700208DF8070021E09DF84B
:10207000050000EB400046F61841C2F2010101EBF9
:102080008000FFF70DFD002804D0FFE701208DF848
:102090000600FFE7FFE79DF8050001308DF8050019
:1020A000BEE79DF80600002818BF01208DF8070044
:1020B000FFE79DF8070002B080BD000000000000AF
:1020C00080B5A6B046F6F040C2F2010040780006A6
:1020D000002802D4FFE700F041BC47F2B400C2F28E
:1020E000010047F2B441C2F2010101221D901C928D
:1020F0000DF0BAFA47F2B041C2F201011D9A1B90ED
:1021000010461C9A0DF070FA47F22351C2F20101F9
:10211000097847F22252C2F20102127891424BDB57
:10212000FFE747F2B440C2F201000078FFF7DCF9A4
:1021300047F22351C2F201010978884209DBFFE727
:1021400046F6F040C2F20100016841F4001101605E
:1021500031E047F2B440C2F201000078FFF7C4F961
:1021600047F22251C2F201010978884209DAFFE7F9
:1021700046F6F040C2F20100016841F4001101602E
:1021800018E046F6F040C2F2010080788006002890
:102190000FD5FFE746F6F040C2F20100016821F4D6
:1021A0000011016047F22050C2F2010007210170C6
:1021B000FFE7FFE7FFE753E047F22350C2F20100D9
:1021C000007847F22251C2F201010978884246DACA
:1021D000FFE747F2B440C2F20100007847F2225113
:1021E000C2F20101097800228842B8BF01221046DC
:1021F000FFF77AF9002818D0FFE747F2B440C2F29F
:1022000001000078FFF770F947F22351C2F2010193
:102210000978884209DBFFE746F6F040C2F2010088
:10222000016841F40011016018E046F6F040C2F286
:1022300001008078800600280FD5FFE746F6F040C1
:10224000C2F20100016821F40011016047F2205040
:10225000C2F2010007210170FFE7FFE7FFE7FFE798
:1022600046F6F040C2F2010080788007002840F175
:10227000DE82FFE746F6F040C2F201008078800679
:10228000002840F1D482FFE746F6F040C2F2010098
:1022900080784007002840F1CA82FFE746F6F04008
:1022A000C2F201008078400600280DD5FFE740F615
:1022B0007C40C2F20100007847F2B041C2F2010155
:1022C0000978884241D0FFE746F6F040C2F20100AB
:1022D000016841F48001016000201A901CF0FEF9B1
:1022E0001A981CF09DFC19901BF0B9F81A981CF074
:1022F00067FA012018901CF0F1F918981CF090FC76
:102300004FF07F41179008461CF0A2FC1BF0A7F885
:1023100040F2DD70C2F201003C21017047F2B04092
:10232000C2F20100007840F67C41C2F2010108705F
:1023300009201CF0EBFC4FF47F41169008461CF07E
:1023400089FC18981CF03CFAFFE747F2B440C2F24F
:1023500001001EA902221590084615990EF070F989
:1023600015988178C907002904D0FFE73A208DF835
:102370007A0003E020208DF87A00FFE71EA8C11C38
:1023800047F2B442C2F2010201320223149008461D
:1023900011461A460EF054F9F02088211BF0E4FD96
:1023A00047F22151C2F20101097840F24072C2F2B3
:1023B000010252F82110139008461CF04BFC40F229
:1023C0005800C0F604001CF053FC0E211290084681
:1023D0001CF0A4FC0121119008461CF07FF900209C
:1023E00050214FF4F072C02310901BF047F8DC210D
:1023F00064224FF4877310981BF040F814981BF078
:102400008DF947F2B040C2F201000078002807D1F0
:10241000FFE747F2B040C2F2010007210170FFE779
:1024200047F2B040C2F20100007801280FD1FFE767
:1024300042F22000ADF8800046F26E40C7F661100F
:102440001F9042F22000C6F64D701E908FE047F2BA
:10245000B040C2F20100007802280FD1FFE742F23B
:102460007900ADF8800047F27340C6F264101F9007
:1024700045F22040C6F275501E9077E047F2B0401A
:10248000C2F20100007803280FD1FFE742F2790081
:10249000ADF8800047F26530C6F264101F9046F236
:1024A0005750C6F664601E905FE047F2B040C2F23B
:1024B0000100007804280FD1FFE742F27900ADF85F
:1024C000800047F27340C6F264101F9046F6540035
:1024D000C7F275201E9047E047F2B040C2F20100FB
:1024E000007805280FD1FFE742F22000ADF8800008
:1024F00046F26940C7F661101F9042F22000C7F211
:1025000046201E902FE047F2B040C2F20100007852
:1025100006280FD1FFE742F27900ADF8800047F2BC
:102520007520C6F264101F9045F22030C7F261405A
:102530001E9017E047F2B040C2F201000078072871
:102540000FD1FFE742F22000ADF8800046F26E4066
:10255000C7F661101F9042F22000C7F253501E9040
:10256000FFE7FFE7FFE7FFE7FFE7FFE7FFE71EA85B
:102570000A3047F2B041C2F201018A1C02230F91D6
:1025800011461A460EF05CF80F98417801290FD1D8
:10259000FFE742F27900ADF88C0047F26E50C7F2C7
:1025A0006120229042F22E00C6F24A10219007E1EB
:1025B00047F2B040C2F20100407802280FD1FFE795
:1025C00047F67210ADF88C0047F26220C6F2751023
:1025D000229042F22E00C6F246502190EFE047F2E0
:1025E000B040C2F20100407803280FD1FFE742F269
:1025F0002000ADF88C0047F26120C6F663002290FF
:1026000042F22E00C4F620502190D7E047F2B040AD
:10261000C2F20100407804280FD1FFE742F2200007
:10262000ADF88C0047F27020C6F66940229042F265
:102630002E00C4F220102190BFE047F2B040C2F259
:102640000100407805280FD1FFE742F22000ADF8E5
:102650008C0046F24D10C2F27900229042F22E0018
:10266000C2F220002190A7E047F2B040C2F2010080
:10267000407806280FD1FFE742F22000ADF88C0029
:1026800047F24A50C6F26E50229042F22E00C2F239
:10269000200021908FE047F2B040C2F20100407864
:1026A00007280FD1FFE742F22000ADF88C0047F277
:1026B0004A50C7F66C10229042F22E00C2F220005F
:1026C000219077E047F2B040C2F20100407808283C
:1026D0000FD1FFE742F22000ADF88C0047F26750BF
:1026E000C7F27340229042F22E00C7F2415021906F
:1026F0005FE047F2B040C2F20100407809280FD1F4
:10270000FFE747F26520ADF88C0046F27450C6F240
:102710006D20229045F22E30C7F26500219047E0EF
:1027200047F2B040C2F20100407810280FD1FFE715
:1027300042F27200ADF88C0046F67470C6F2625038
:10274000229042F22E00C6F24F3021902FE047F245
:10275000B040C2F20100407811280FD1FFE747F2E4
:102760006520ADF88C0046F27650C6F26D202290BE
:1027700042F22E00C6F64E70219017E047F2B040AC
:10278000C2F20100407812280FD1FFE747F265201E
:10279000ADF88C0046F26350C6F26D20229042F2F2
:1027A0002E00C6F244502190FFE7FFE7FFE7FFE766
:1027B000FFE7FFE7FFE7FFE7FFE7FFE7FFE7FFE7E9
:1027C00030208DF8900043F22020ADF88E001EA836
:1027D00000F1190147F2B042C2F2010203320223B2
:1027E0000E90084611461A460DF02AFF2E208DF84D
:1027F000930000208DF8940047F23840C0F60300A3
:102800001CF036FAF021CE220D90084611461BF03E
:10281000ABFB0E210C9008461CF080FA0E990B9031
:1028200008461AF07BFF01201BF0CAFF60E040F26F
:10283000DD70C2F20100007847F2B441C2F201013A
:102840004978884253D0FFE747F2B440C2F2010012
:10285000014611F8012F40F2DD73C2F201031A7034
:102860001EAA02230A901046DDF828C0099161468D
:1028700008921A4607930DF0E3FE3A208DF87A008D
:10288000089803300999079A0DF0DAFE49F268209A
:10289000C0F603001CF0ECF96FF07F41069008468B
:1028A0001CF0D8F907981CF043FA0C210590084653
:1028B0001CF034FA01210490084603911BF00EFF2E
:1028C0000520F5211BF050FB0021DC2264234FF48E
:1028D000877C0290084611461A4663461AF0CEFDE0
:1028E00008981AF01BFF03981BF06AFFFFE7FFE749
:1028F00040F67C40C2F20100007847F2B041C2F2DB
:1029000001010978884229D0FFE747F2B040C2F2BE
:102910000100017840F67C42C2F201021170827817
:1029200047F2B401C2F2010102230190084600916E
:1029300019460CF091FD01984278032100980CF0A3
:102940008BFD01980278042100980CF085FD019818
:10295000C278052100980CF07FFDFFE726B080BD0E
:1029600080B582B001468DF806009DF8060001286A
:1029700016D1FFE740F67D40C2F201000078002842
:102980000ED1FFE740F67D40C2F201000121017047
:1029900008F0E6FE40F68041C2F20101086039E02D
:1029A0009DF8060001281FD1FFE740F67D40C2F2E6
:1029B00001000078012817D1FFE708F0D1FE40F6AA
:1029C0008041C2F201010968401AB0F5586F0AD37C
:1029D000FFE740F67D40C2F20100002101700120B6
:1029E0008DF807001AE014E09DF8060000280FD1CA
:1029F000FFE740F67D40C2F201000078012807D1D0
:102A0000FFE740F67D40C2F2010000210170FFE7C0
:102A1000FFE7FFE700208DF80700FFE79DF80700BC
:102A200002B080BD0000000080B546F6F040C2F262
:102A3000010080788007002810D5FFE746F6F040B7
:102A4000C2F2010080788006002807D5FFE747F230
:102A50002050C2F2010007210170FFE746F6F04066
:102A6000C2F20100016821F400310160016821F423
:102A70008001016008F074FE47F22451C2F20101A6
:102A8000086047F22850C2F201001E21017046F68C
:102A9000BC70C2F20100007800F002F880BD0000B6
:102AA00081B001468DF803009DF80300042804DC82
:102AB000FFE705208DF8030009E09DF80300512889
:102AC00004DBFFE750208DF80300FFE7FFE79DF8E8
:102AD000030000EB8000400047F2D401C2F2010184
:102AE0000968486301B0704780B586B00120059041
:102AF0001BF0F4FDC32091214FF4A072EB231AF0D8
:102B0000BDFC6FF07F401CF0A5F84CF2C860C0F629
:102B100003001CF0ADF80021049008461CF008F9F1
:102B20000599039008461CF0F9F8C82196220290F6
:102B3000084611461BF018FA47F6C441C2F20101DB
:102B4000897A02220190084611461AF0A7FD0598DD
:102B50001BF036FE06B080BD80B588B01BF00CFAC5
:102B600042F2E171C0F60101079008461BF0C6FE73
:102B70000120069021F00AF805901CF021FA0020AF
:102B80001CF04EF804901AF06AFC06981CF048F805
:102B90004FF07F41039008461CF05AF81AF05FFC92
:102BA00040F61C50C2F20100302112F0D9FC40F670
:102BB0005850C2F20100502112F0D2FC0FF0A0F8E0
:102BC00046F6FE30C2F201004FF4E371069A06F0B9
:102BD000CFFC40F69851C2F2010140F2C7120290B8
:102BE00008461146069A06F0C3FC01901BF04AF80D
:102BF00008B080BD0000000080B5ADF5AB6D08F0F9
:102C0000AFFD40F69041C2F201010968401A642804
:102C10000AD3FFE708F0A4FD40F69041C2F201019B
:102C200008601BF02FF8FFE747F2A440C2F2010052
:102C30000078C007002845D0FFE740F2FC60C2F2F0
:102C40000100007800283BD1FFE740F2FC60C2F2AF
:102C50000100012101700846CDF824151BF03EFD4E
:102C60001AF0FDFB47F23840C0F603001CF000F8F4
:102C70004AF2FF51CDF8200508461BF0EBFF022079
:102C80001CF056F80E21CDF81C0508461CF046F83D
:102C9000F0218722CDF81805084611461BF064F98B
:102CA0004FF61061C0F60401CDF8140508461AF07D
:102CB00035FDDDF824051BF083FDFFF7B5FEFFE7CA
:102CC00004F09CB840F2FC60C2F2010000780128D8
:102CD0000CD1FFE740F2FC60C2F20100002101705C
:102CE00047F22450C2F2010001605BE040F2FC6058
:102CF000C2F201000078022853D1FFE740F2FC60E5
:102D0000C2F20100002101700120CDF810051BF076
:102D1000E5FC1AF0A4FB09201BF0F8FFFF21CDF819
:102D20000C0508461BF096FFF02088213222CDF8D2
:102D30000825DDF808351AF0C9FD4FF4C8704FF4C6
:102D4000E1711422CDF80405CDF800151146DDF827
:102D50000035CDF8FC241A46DDF8FC341AF0DCFE10
:102D60002820DDF80415CDF8F8040846DDF8F8143D
:102D7000DDF80025DDF8F8341AF0CEFE3C20DDF851
:102D80000415CDF8F4040846DDF8F414DDF8002548
:102D9000DDF8F4341AF0C0FEDDF810051BF010FD6C
:102DA000FFE7FFE7FFE747F22050C2F2010000789B
:102DB00001461428CDF8F01403F2D785DDF8F0149D
:102DC000DFE811F0671D15005602A7035908410AF4
:102DD0006D0B030E680ED90FDC125C1522165C1603
:102DE0005217A118D519191BE51BA41C161D40F676
:102DF0009440C2F2010000680028CDF8EC040CD029
:102E0000FFE7DDF8EC04012800F02381FFE7DDF89F
:102E1000EC04022800F03981FCE147F29850C2F23C
:102E200001000121017000208DF84705FFE79DF8A2
:102E3000470505283BDCFFE79DF84705C0EBC000D0
:102E400047F28431C2F2010101EB80000EF010FF65
:102E5000002825D0FFE79DF84705C0EBC00047F2EA
:102E60008431C2F2010101EB80000EF0E9FE00287E
:102E700016D1FFE79DF84705C0EBC00047F284314B
:102E8000C2F2010101EB80000EF0CEFE002807D057
:102E9000FFE747F29850C2F201000021017006E0FE
:102EA000FFE79DF8470501308DF84705BFE747F27A
:102EB0009850C2F20100007801460028CDF8E814CD
:102EC00005D0FFE7DDF8E80401285BD05BE040F6C1
:102ED0009440C2F20100012101600846CDF8E414DB
:102EE0001BF0FCFB1AF0BBFA09201BF00FFF4FF49C
:102EF0007F41CDF8E00408461BF0ACFEF0208821AD
:102F00003222CDF8DC24DDF8DC341AF0DFFC4FF49B
:102F1000C8704FF4E1711422CDF8D804CDF8D41460
:102F20001146DDF8D434CDF8D0241A46DDF8D0347B
:102F30001AF0F2FD2820DDF8D814CDF8CC040846AC
:102F4000DDF8CC14DDF8D424DDF8CC341AF0E4FD3F
:102F50003C20DDF8D814CDF8C8040846DDF8C814C4
:102F6000DDF8D424DDF8C8341AF0D6FDDDF8E40429
:102F70001BF026FC08F0F4FB40F69C41C2F2010174
:102F800008605AE0FFE740F69440C2F201000421D5
:102F900001600120CDF8C4041BF0A0FB1AF05FFA19
:102FA00009201BF0B3FEFF21CDF8C00408461BF03A
:102FB00051FEF02088213222CDF8BC24DDF8BC344B
:102FC0001AF084FC4FF4C8704FF4E1711422CDF86C
:102FD000B804CDF8B4141146DDF8B434CDF8B024FB
:102FE0001A46DDF8B0341AF097FD2820DDF8B81441
:102FF000CDF8AC040846DDF8AC14DDF8B424DDF8F7
:10300000AC341AF089FD3C20DDF8B814CDF8A804E2
:103010000846DDF8A814DDF8B424DDF8A8341AF069
:103020007BFDDDF8C4041BF0CBFB08F099FB40F6F8
:103030009C41C2F201010860FFE740F69440C2F2F1
:1030400001000021016047F22050C2F2010001702E
:10305000E0E008F085FB40F69C41C2F201010968FE
:10306000401AB0F5FA7F0FD3FFE740F69440C2F262
:10307000010001680131016008F072FB40F6B441C3
:10308000C2F201010860FFE7C4E008F069FB40F606
:10309000B441C2F201010968401A0F28C0F0B9809A
:1030A000FFE708F05DFB40F6B441C2F201010860A1
:1030B00040F6AC40C2F2010000680028CDF8A4043C
:1030C00005D0FFE7DDF8A404012850D050E040F619
:1030D0001C50C2F20100807DFE2808DCFFE740F6AC
:1030E0001C50C2F20100817D01318175FFE740F67D
:1030F0001C50C2F20100807EFE2808DCFFE740F68B
:103100001C50C2F20100817E01318176FFE740F65A
:103110001C50C2F20100807FFE2808DCFFE740F669
:103120001C50C2F20100817F01318177FFE740F638
:103130001C50C2F20100807DFF2817D1FFE740F646
:103140001C50C2F20100807EFF280FD1FFE740F63D
:103150001C50C2F20100807FFF2807D1FFE740F634
:10316000AC40C2F2010001210160FFE750E0FFE73F
:1031700040F61C50C2F20100807D002808D0FFE715
:1031800040F61C50C2F20100817D01398175FFE7D4
:1031900040F61C50C2F20100807E002808D0FFE7F4
:1031A00040F61C50C2F20100817E01398176FFE7B2
:1031B00040F61C50C2F20100807F002808D0FFE7D3
:1031C00040F61C50C2F20100817F01398177FFE790
:1031D00040F61C50C2F20100807D002817D1FFE7A5
:1031E00040F61C50C2F20100807E00280FD1FFE79C
:1031F00040F61C50C2F20100807F002807D1FFE793
:1032000040F6AC40C2F2010000210160FFE7FFE799
:10321000FFE7FFE708F0A4FA47F22451C2F20101E8
:10322000086047F23340C2F201000021017047F20A
:103230002F40C2F20100017047F23240C2F2010099
:10324000017047F23140C2F20100017047F2304094
:10325000C2F20100017040F2DD70C2F201003C22B6
:10326000027047F2CC40C2F20100016003F09DBB46
:1032700047F23040C2F201000078002840F0478158
:10328000FFE747F23040C2F20100017801310170DE
:103290000120CDF8A0041BF021FA0020CDF89C04F9
:1032A0001BF0BEFCCDF898041AF0D9F8DDF8A004A4
:1032B0001BF0B6FC4FF07F41CDF8940408461BF09C
:1032C000C7FC1AF0CCF809201BF020FDFF21CDF837
:1032D000900408461BF0BEFC4FF4C8704FF4E17137
:1032E0001422CDF88C04CDF888141146DDF888340A
:1032F000CDF884241A46DDF884341AF00DFC282019
:10330000DDF88C14CDF880040846DDF88014DDF873
:103310008824DDF880341AF0FFFB3C20DDF88C14A3
:10332000CDF87C040846DDF87C14DDF88824DDF84F
:103330007C341AF0F1FB0A204FF4BE714FF4837312
:10334000CDF878040846DDF87824CDF874141146D9
:10335000DDF874241AF0E0FB1E204FF4AF728821D0
:10336000CDF87014DDF870341AF0D6FBBE20FC23C3
:10337000CDF86C04DDF88414DDF86C241AF0CCFB75
:103380004FF20C70C0F6040040F281119F221AF037
:1033900077FA4FF25860C0F604003721CDF8681470
:1033A000DDF878241AF06CFA4FF2A860C0F6040039
:1033B000F5210F221AF064FA4FF2E460C0F604001F
:1033C0009622DDF868141AF05BFA4FF23470C0F6FA
:1033D0000400F021A0221AF053FA47F23840C0F658
:1033E00003001BF045FC4AF2FF51CDF86404084687
:1033F0001BF030FC0220CDF860041BF099FC0E217C
:10340000CDF85C040846CDF858141BF087FC5F210A
:103410006E22CDF854040846CDF850141146CDF86C
:103420004C241AF0A1FDDDF88414CDF848040846B8
:1034300016F006FF47F2F510C2F20100CDF8440481
:103440001AF06CF9DDF858041BF068FC40F21D110D
:10345000CDF840040846DDF84C24CDF83C14114664
:103460001AF082FDDDF86014CDF83804084616F035
:10347000E7FEDDF844041AF051F9DDF858041BF0BA
:103480004DFCFA21DDF85024CDF834041046CDF877
:1034900030141AF069FD1521CDF82C04084616F0F9
:1034A000CFFEDDF844041AF039F9DDF858041BF0BA
:1034B00035FCDDF83C14CDF828040846DDF830145E
:1034C0001AF052FD3321CDF82404084616F0B8FE58
:1034D000DDF844041AF022F9DDF8A0041BF070F9BD
:1034E00047F23340C2F20100DDF89C14017047F24C
:1034F0002F40C2F20100017047F23240C2F20100D7
:10350000017047F23140C2F201000170FFE703F0A1
:103510004CBA47F22F40C2F201000078014603285E
:10352000CDF8201400F2A584DDF82014DFE811F0B6
:1035300004007B01C001AB0247F22F40C2F2010040
:1035400001780131017001201BF0C8F819F087FFE4
:1035500005201BF0DBFBFF21CDF81C0408461BF007
:1035600079FBDC2078214FF48872CDF818040846E6
:10357000DDF81834CDF814141946DDF814C4CDF86C
:1035800010246246DDF810341AF0C6FAF020CDF8A7
:103590000C04DDF81814DDF80C24DDF810341AF0F2
:1035A000BBFA4FF4B470CDF80804DDF81814DDF858
:1035B0000824DDF810341AF0AFFA4FF29460C0F628
:1035C00004004121D722CDF804241AF059F94FF212
:1035D0008060C0F60400B921CDF80004DDF80424B1
:1035E0001AF04EF940F23111DDF80004DDF8042440
:1035F0001AF046F94FF24460C0F604004FF4C87167
:10360000BE221AF03DF940F61C50C2F20100807D46
:1036100000280AD0FFE74FF26C60C0F604003C219E
:10362000FF91FF9A1AF02CF909E04FF25860C0F6AA
:1036300004003C21FE91FE9A1AF022F9FFE740F6C1
:103640001C50C2F20100807E002809D0FFE74FF233
:103650006C60C0F60400C8213C221AF011F908E0A1
:103660004FF25860C0F60400C8213C221AF008F955
:10367000FFE740F61C50C2F20100807F00280AD00C
:10368000FFE74FF26C60C0F604004FF4AA713C22D1
:103690001AF0F6F809E04FF25860C0F604004FF453
:1036A000AA713C221AF0ECF8FFE747F23840C0F666
:1036B00003001BF0DDFA4AF2FF51FD9008461BF0B3
:1036C000C9FA02201BF034FB0C21FC9008461BF0C9
:1036D00025FB0521FA22FB9008461146FA921AF0C2
:1036E00043FC4FF60461C0F60401F99008461AF055
:1036F00015F88720FA991AF037FC4FF68631C0F694
:103700000401F89008461AF009F8FF20FA991AF017
:103710002BFC4FF63D61C0F60401F790084619F006
:10372000FDFF0F201BF0FAFA64212822F6900846CC
:1037300011461AF019FC40F61C51C2F20101897DB4
:10374000002913D0FFE740F61C50C2F20100807D33
:103750006421484348F28101C8F28001A0FB0101C5
:10376000C909F590084619F0ADFFFFE7F0202821C0
:103770001AF0FAFB40F61C51C2F20101897E0029C1
:1037800013D0FFE740F61C50C2F20100807E642196
:10379000484348F28101C8F28001A0FB0101C90938
:1037A000F490084619F08EFFFFE74FF4BE70282111
:1037B0001AF0DAFB40F61C51C2F20101897F0029A0
:1037C00013D0FFE740F61C50C2F20100807F642155
:1037D000484348F28101C8F28001A0FB0101C909F8
:1037E000F390084619F06EFFFFE701201AF0E8FF9A
:1037F00047F23340C2F201000021017047F232402B
:10380000C2F20100017047F23140C2F201000170C2
:1038100047F23040C2F20100017040F68440C2F22B
:103820000100017025E346F60E40C2F20100007867
:10383000002810D1FFE746F60F40C2F201000078E1
:10384000002808D1FFE746F61040C2F201000078D8
:1038500000282CD0FFE746F60E40C2F201000078A7
:1038600040F68441C2F20101087046F60F40C2F2F0
:103870000100007840F68541C2F20101087046F669
:103880001040C2F20100007840F68641C2F2010108
:10389000087047F22F40C2F201000221017007F0C8
:1038A0005FFF40F68841C2F201010860FFE7E0E2F5
:1038B00007F056FF40F68841C2F201010968401A3C
:1038C000B0F57A7F1FD3FFE707F04AFF40F6B44117
:1038D000C2F20101086047F22F40C2F201000178F4
:1038E0000131017040F68440C2F2010000210170F4
:1038F00040F68540C2F20100017040F68640C2F2F7
:1039000001000170BEE046F60E40C2F201000078F0
:10391000002840F0B680FFE746F60F40C2F20100F3
:103920000078002840F0AD80FFE746F61040C2F274
:1039300001000078002840F0A480FFE740F68440B2
:10394000C2F20100007800280FD0FFE740F61C50BB
:10395000C2F20100807D002807D0FFE740F61C502E
:10396000C2F201000021817517E040F68440C2F2E6
:103970000100007800280FD0FFE740F61C50C2F28B
:103980000100807D002807D1FFE740F61C50C2F2FD
:103990000100FF218175FFE7FFE740F68540C2F295
:1039A0000100007800280FD0FFE740F61C50C2F25B
:1039B0000100807E002807D0FFE740F61C50C2F2CD
:1039C00001000021817617E040F68540C2F2010037
:1039D000007800280FD0FFE740F61C50C2F201002B
:1039E000807E002807D1FFE740F61C50C2F201009C
:1039F000FF218176FFE7FFE740F68640C2F2010033
:103A0000007800280FD0FFE740F61C50C2F20100FA
:103A1000807F002807D0FFE740F61C50C2F201006B
:103A20000021817717E040F68640C2F2010000785D
:103A300000280FD0FFE740F61C50C2F20100807F43
:103A4000002807D1FFE740F61C50C2F20100FF2119
:103A50008177FFE7FFE747F22F40C2F20100002124
:103A6000017040F68440C2F20100017040F68540CA
:103A7000C2F20100017040F68640C2F201000170FE
:103A8000FFE7FFE7F5E146F60E40C2F201000078DD
:103A9000002817D1FFE746F60F40C2F20100007878
:103AA00000280FD1FFE746F61040C2F2010000786F
:103AB000002807D1FFE747F22F40C2F201000021A2
:103AC0000170D5E107F04CFE40F6B441C2F20101AD
:103AD0000968401A0F28C0F0CA81FFE707F040FECE
:103AE00040F6B441C2F20101086046F60E40C2F24F
:103AF00001000078002800F08D80FFE701201AF017
:103B0000EDFD40F68C40C2F2010000680028F29002
:103B100004D0FFE7F29801282AD02AE040F61C5092
:103B2000C2F20100807D00280AD1FFE74FF26C60ED
:103B3000C0F604003C21F191F19A19F0A1FEFFE7D3
:103B400040F61C50C2F20100807DFE2808DCFFE731
:103B500040F61C50C2F20100817D0131817506E002
:103B600040F68C40C2F2010001210160FFE72AE02B
:103B7000FFE740F61C50C2F20100807D002808D00B
:103B8000FFE740F61C50C2F20100817D01398175CA
:103B900018E040F68C40C2F20100002101603C2098
:103BA000A021F090F09AEF911146EF9AEF9B19F057
:103BB00065FC4FF25860C0F60400F099F09A19F0D5
:103BC0005FFEFFE7FFE764201E21C8223223EE904C
:103BD00019F054FC2821EE981AF0C6F90F21ED9047
:103BE00008461BF09BF840F61C51C2F20101897D8A
:103BF000EE9A514348F28103C8F28003A1FB0313FC
:103C0000DB09EC901846EB9119F05CFD01201AF0ED
:103C1000D7FD2BE146F60F40C2F2010000780028E4
:103C200000F08B80FFE701201AF058FD40F68C4031
:103C3000C2F2010000680028EA9004D0FFE7EA9889
:103C4000012829D029E040F61C50C2F20100807EF4
:103C5000002809D1FFE74FF26C60C0F60400C821CC
:103C60003C2219F00DFEFFE740F61C50C2F20100A5
:103C7000807EFE2808DCFFE740F61C50C2F20100FF
:103C8000817E0131817606E040F68C40C2F201006F
:103C900001210160FFE729E0FFE740F61C50C2F276
:103CA0000100807E002808D0FFE740F61C50C2F2D9
:103CB0000100817E0139817617E040F68C40C2F226
:103CC000010000210160C8203C214FF49672A0231E
:103CD000E990E89119F0D2FB4FF25860C0F6040069
:103CE000E999E89A19F0CCFDFFE7FFE7DC201E21F7
:103CF0004FF4A072322319F0C1FBF02028211AF0F2
:103D000033F90F21E79008461BF008F840F61C51E4
:103D1000C2F20101897E6422514348F28102C8F255
:103D20008002A1FB0212D209E6901046E59119F03B
:103D3000C9FC01201AF044FD97E046F61040C2F29B
:103D400001000078002800F08F80FFE701201AF0C2
:103D5000C5FC40F68C40C2F2010000680028E490E7
:103D600004D0FFE7E49801282AD02AE040F61C504E
:103D7000C2F20100807F00280AD1FFE74FF26C6099
:103D8000C0F604004FF4AA713C2219F079FDFFE758
:103D900040F61C50C2F20100807FFE2808DCFFE7DD
:103DA00040F61C50C2F20100817F0131817706E0AC
:103DB00040F68C40C2F2010001210160FFE72AE0D9
:103DC000FFE740F61C50C2F20100807F002808D0B7
:103DD000FFE740F61C50C2F20100817F0139817774
:103DE00018E040F68C40C2F20100002101604FF45F
:103DF000AA703C214FF4DC72A023E390E29119F009
:103E00003DFB4FF25860C0F60400E399E29A19F0C6
:103E100037FDFFE7FFE74FF4AA701E214FF4DC7275
:103E2000322319F02BFB4FF4BE7028211AF09CF8B6
:103E30000F21E19008461AF071FF40F61C51C2F2C2
:103E40000101897F6422514348F28102C8F2800255
:103E5000A1FB0212D209E0901046DF9119F032FC6A
:103E600001201AF0ADFCFFE7FFE7FFE7FFE7FFE700
:103E7000FFE702F09ABD47F23240C2F2010000783B
:103E8000002840F0FD80FFE747F23240C2F2010017
:103E900001780131017001201AF020FC19F0DFFADD
:103EA0000520DE901AF032FFFF21DD900846DC91FC
:103EB0001AF0D0FEDC2078214FF48872DB9008469F
:103EC000DB9BDA911946DDF868C3D9926246D99B2B
:103ED00019F022FEF020D890DB99D89AD99B19F0DE
:103EE0001BFE4FF4B470D790DB99D79AD99B19F089
:103EF00013FE4FF28060C0F604004121D722D69015
:103F0000D59219F0BDFC4FF29460C0F60400B921BF
:103F1000D59A19F0B5FC40F23111D698D59A19F01E
:103F2000AFFC4FF24460C0F604004FF4C871BE22EB
:103F300019F0A6FC47F23840C0F603001AF098FECC
:103F40004AF2FF51D49008461AF084FE02201AF07B
:103F5000EFFE0C21D39008461AF0E0FEFA21DE9A1B
:103F6000D2901046D19119F0FFFF4FF60461C0F6D0
:103F70000401D090084619F0D1FB8720D19919F09F
:103F8000F3FF4FF68631C0F60401CF90084619F0D2
:103F9000C5FBDC98D19919F0E7FF4FF63D61C0F6FB
:103FA0000401CE90084619F0B9FB40F61C50C2F24D
:103FB0000100807900280AD0FFE74FF26C60C0F65C
:103FC00004003C21CD91CD9A19F05AFC09E04FF242
:103FD0005860C0F604003C21CC91CC9A19F050FCFA
:103FE000FFE740F61C50C2F20100807A002809D099
:103FF000FFE74FF26C60C0F60400C8213C2219F0C4
:104000003FFC08E04FF25860C0F60400C8213C2293
:1040100019F036FCFFE740F61C50C2F20100807B2D
:1040200000280AD0FFE74FF26C60C0F604004FF49E
:10403000AA713C2219F024FC09E04FF25860C0F646
:1040400004004FF4AA713C2219F01AFCFFE701208A
:104050001AF0B6FB47F23340C2F2010000210170B2
:1040600047F22F40C2F20100017047F23140C2F224
:104070000100017047F23040C2F201000170E0E03F
:1040800047F23240C2F201000078012840F0AF80D0
:10409000FFE746F60E40C2F20100007800280FD07C
:1040A000FFE740F61C50C2F201008079002807D0DB
:1040B000FFE740F61C50C2F201000021817117E0B9
:1040C00046F60E40C2F20100007800280FD0FFE74C
:1040D00040F61C50C2F201008079002807D1FFE7AA
:1040E00040F61C50C2F2010001218171FFE7FFE799
:1040F00046F60F40C2F20100007800280FD0FFE71B
:1041000040F61C50C2F20100807A002807D0FFE779
:1041100040F61C50C2F201000021817217E046F601
:104120000F40C2F20100007800280FD0FFE740F6F0
:104130001C50C2F20100807A002807D1FFE740F648
:104140001C50C2F2010001218172FFE7FFE746F631
:104150001040C2F20100007800280FD0FFE740F6BF
:104160001C50C2F20100807B002807D0FFE740F618
:104170001C50C2F201000021817317E046F6104086
:10418000C2F20100007800280FD0FFE740F61C5073
:10419000C2F20100807B002807D1FFE740F61C50E7
:1041A000C2F2010001218173FFE7FFE746F60E40EE
:1041B000C2F201000078002810D1FFE746F60F4058
:1041C000C2F201000078002808D1FFE746F610404F
:1041D000C2F201000078002808D0FFE747F2324021
:1041E000C2F20100017801310170FFE728E047F2D7
:1041F0003240C2F201000078022820D1FFE746F6E3
:104200000E40C2F201000078002817D1FFE746F601
:104210000F40C2F20100007800280FD1FFE746F6F8
:104220001040C2F201000078002807D1FFE747F2F2
:104230003240C2F2010000210170FFE7FFE7FFE713
:10424000FFE702F0B2BB47F23140C2F20100007852
:10425000002840F0C480FFE747F23140C2F201007D
:1042600001780131017001201AF038FA19F0F7F8DD
:1042700005201AF04BFDFF21CB9008461AF0EAFC0E
:10428000DC2078214FF48872CA900846CA9BC991F5
:104290001946DDF824C3C8926246C89B19F03CFC5D
:1042A000F020C790CA99C79AC89B19F035FC4FF403
:1042B000B470C690CA99C69AC89B19F02DFC40F6F6
:1042C0001C50C2F20100807C002809D0FFE74FF2A9
:1042D0006C60C0F60400C8213C2219F0D1FA08E055
:1042E0004FF25860C0F60400C8213C2219F0C8FA09
:1042F000FFE74FF28060C0F604004121D722C5904D
:10430000C49219F0BDFAB921C598C49A19F0B8FA47
:104310004FF29460C0F6040040F23111C49A19F0D3
:10432000AFFA4FF24460C0F604004FF4C871BE22E9
:1043300019F0A6FA47F23840C0F603001AF098FCCC
:104340004AF2FF51C39008461AF084FC02201AF08A
:10435000EFFC0C21C29008461AF0E0FC0521FA227D
:10436000C19008461146C09219F0FEFD4FF6046157
:10437000C0F60401BF90084619F0D0F98720C09913
:1043800019F0F2FD4FF68631C0F60401BE900846E2
:1043900019F0C4F9FF20C09919F0E6FD4FF63D6110
:1043A000C0F60401BD90084619F0B8F901201AF0D2
:1043B00007FA47F23340C2F201000021017047F2D0
:1043C0002F40C2F20100017047F23240C2F20100F8
:1043D000017047F23040C2F2010001705DE047F227
:1043E0003140C2F20100007801283CD1FFE746F6D7
:1043F0000F40C2F201000078002833D0FFE740F6FA
:104400001C50C2F20100807C00280ED1FFE740F66C
:104410001C50C2F201000121817407F0A1F940F69D
:10442000A041C2F20101086014E040F61C50C2F243
:104430000100807C00280CD0FFE740F61C50C2F23F
:1044400001000021817440F6A040C2F20100016029
:10445000FFE7FFE747F23140C2F201000178013186
:104460000170FFE718E047F23140C2F20100007826
:10447000022810D1FFE746F60F40C2F20100007893
:10448000002807D1FFE747F23140C2F201000021C6
:104490000170FFE7FFE7FFE7FFE702F086BA0120C0
:1044A0001AF01CF947F23340C2F2010000780028EC
:1044B00065D1FFE747F23340C2F2010001780131D4
:1044C00001700020BC901AF009F9BC981AF0A8FB02
:1044D000BC99BB9008461AF0BDFB18F0C0FF41F62E
:1044E0001010C9F20300BC99BC9A18F091FE4FF469
:1044F000AF7150224FF4F0734FF0B40CBA900846ED
:1045000011461A466346CDF8E4C218F0B7FF4FF4DF
:104510009B704FF4D272CD23B99918F0AFFFBC98BD
:104520001AF04EF901201AF07BFB4FF07F41B89052
:1045300008461AF08DFB18F092FFFEF7D5FAFDF74A
:10454000BFFD46F6F040C2F20100016841F480115F
:10455000016047F22F40C2F20100BC99017047F29E
:104560003240C2F20100017047F23140C2F2010054
:10457000017047F23040C2F201000170E0E147F201
:104580003340C2F201000078012840F0D881FFE7F3
:1045900046F60540C2F201000078002829D0FFE766
:1045A00046F6FD30C2F201000078002821D1FFE775
:1045B00046F6FD30C2F201000121017047F6C44009
:1045C000C2F20100817A007B814208DAFFE747F6F8
:1045D000C440C2F20100817A01318172FFE747F6DF
:1045E000C440C2F20100702111F032FAFEF77CFAE9
:1045F00017E046F60540C2F20100007800280FD10E
:10460000FFE746F6FD30C2F201000078002807D02F
:10461000FFE746F6FD30C2F2010000210170FFE71E
:10462000FFE746F60440C2F201000078002829D0D6
:10463000FFE746F6FC30C2F201000078002821D1E5
:10464000FFE746F6FC30C2F201000121017047F697
:10465000C440C2F20100817A407B814208DDFFE75D
:1046600047F6C440C2F20100817A01398172FFE746
:1046700047F6C440C2F20100702111F0E9F9FEF7DB
:1046800033FA17E046F60440C2F201000078002831
:104690000FD1FFE746F6FC30C2F201000078002897
:1046A00007D0FFE746F6FC30C2F20100002101709E
:1046B000FFE7FFE746F6F040C2F201008078C0064F
:1046C000002840F19A80FFE746F6F040C2F2010070
:1046D000016821F4801101604FF4CD70B9214FF4CD
:1046E000F072EB23B79218F0C9FE4FF49B70E621ED
:1046F000FF23B79A18F0C2FE47F6C440C2F2010089
:104700000078002805D0FFE74FF47F401AF0A2FAA6
:1047100003E0FF201AF09EFAFFE74BF21820C0F6E4
:1047200003001AF0A5FA4FF4CD71AA22B6900846FC
:10473000114619F019FC0C21B59008461AF0EEFA52
:1047400047F6C441C2F201010978002907D0FFE70A
:104750004FF60850C0F6040018F0E0FF06E04FF6F0
:104760006B40C0F6040018F0D9FFFFE74FF49B70D0
:10477000F22119F0F9FB44F60851C0F60301B49098
:1047800008461AF075FA0C21B3900846B2911AF057
:10479000C5FA6FF07F41B19008461AF05BFA40F21B
:1047A0009F10DC2119F0E0FB46F2A001C0F60301E6
:1047B000B09008461AF05CFAB299AF9008461AF029
:1047C000ADFA47F6C441C2F20101B1F9021046F256
:1047D0006762C6F2666251FB02F18A1002EBD17188
:1047E0000322AE900846114618F080FF4FF6716024
:1047F000C0F6040018F092FFFFE706F0B1FF47F2A1
:10480000CC41C2F201010968401AB0F57A7FC0F0CC
:104810009580FFE706F0A4FF47F2CC41C2F2010108
:10482000086040F6A840C2F2010001680131016051
:104830000B2919D3FFE740F6A840C2F2010000217E
:10484000016046F6F040C2F201008078800700283F
:1048500009D4FFE746F6F040C2F20100016841F4D6
:1048600080110160FFE7FFE746F6F040C2F2010069
:1048700040780006002860D5FFE747F2B400C2F296
:10488000010047F2B441C2F201010122AD90AC91A6
:10489000AB920AF0E9FE47F2B041C2F20101AD9AD3
:1048A000AA901046AB9A0AF09FFE0DF5AA6102226B
:1048B000A9900846AC9BA8911946A7920BF0C0FEA0
:1048C0003A208DF85205A8980330AC990131A79A87
:1048D0000BF0B6FE00208DF8550549F26821C0F6B0
:1048E0000301A69008461AF0C3F96FF07F41A59026
:1048F00008461AF0AFF9A7981AF01AFA0C21A490FA
:1049000008461AF00BFA0521F522A3900846114635
:1049100019F02AFBAB99A290084619F0DFFEDC21C2
:1049200064224FF48773A69818F0A8FDA89818F091
:10493000F5FEAB9819F044FFFFE7FFE7FFE7FFE75D
:10494000012019F03DFF47F6C040C2F201000068A7
:10495000002838D0FFE7FEF767F806F001FF47F6BA
:10496000C041C2F201010968401AB0F5FA6F29D9B5
:10497000FFE747F6C040C2F201000021016047F2A4
:104980003340C2F20100017047F6C440C2F2010098
:104990000078002807D0FFE747F6C440C2F20100C4
:1049A0000021017006E047F6C440C2F20100022176
:1049B0000170FFE747F6C440C2F20100702111F018
:1049C00047F8FFE7FFE701F0F0BF0020A1901AF0E1
:1049D00027F9A09018F043FD01209F901AF020F9CC
:1049E0004FF07F419E9008461AF032F918F037FDDB
:1049F0000520FEF755F847F22050C2F201009F99BA
:104A0000017040F69440C2F20100A19A026040F6A3
:104A1000A440C2F20100016047F23340C2F201003B
:104A2000027047F22F40C2F20100027047F232409A
:104A3000C2F20100027047F23140C2F2010002707E
:104A400047F23040C2F20100027047F22E40C2F23B
:104A50000100027040F69840C2F20100027040F678
:104A6000B040C2F20100027046F61340C2F20100EB
:104A7000027046F61140C2F20100027047F2442073
:104A8000C2F20100027040F2DE70C2F20100017059
:104A900001F08BBF47F6C440C2F20100C08A46F65F
:104AA0000461C2F2010109689D9008461DF0A8FE4C
:104AB0009D99814213D0FFE746F60460C2F20100DF
:104AC00000681DF09DFE47F6C441C2F20101C88294
:104AD00040F6B040C2F20100012101700AE147F640
:104AE000C440C2F20100008B46F60861C2F2010127
:104AF00009689C9008461DF083FE9C99814213D062
:104B0000FFE746F60860C2F2010000681DF078FE7B
:104B100047F6C441C2F20101088340F6B040C2F238
:104B2000010001210170E4E047F6C440C2F2010037
:104B3000408B46F60C61C2F2010109689B90084661
:104B40001DF05EFE9B99814213D0FFE746F60C6094
:104B5000C2F2010000681DF053FE47F6C441C2F2E4
:104B60000101488340F6B040C2F20100012101700A
:104B7000BEE047F6C440C2F20100808B46F61461E5
:104B8000C2F2010109689A9008461DF039FE9A990F
:104B9000814213D0FFE746F61460C2F201000068BC
:104BA0001DF02EFE47F6C441C2F20101888340F693
:104BB000B040C2F201000121017098E047F6C44004
:104BC000C2F2010090F9040046F6D451C2F201018C
:104BD0000968999008461DF013FE9999814213D0F7
:104BE000FFE746F6D450C2F2010000681DF008FE4F
:104BF00047F6C441C2F20101087140F6B040C2F26A
:104C000001000121017071E047F6C440C2F20100C9
:104C1000007C46F6D051C2F201010968989008461E
:104C20001DF0EEFD9899814213D0FFE746F6D05073
:104C3000C2F2010000681DF0E3FD47F6C441C2F274
:104C40000101087440F6B040C2F201000121017078
:104C50004BE047F6C440C2F20100807F46F6106187
:104C6000C2F201010968979008461DF0C9FD9799A5
:104C7000814213D0FFE746F61060C2F201000068DF
:104C80001DF0BEFD47F6C441C2F20101887740F62F
:104C9000B040C2F201000121017025E047F6C44096
:104CA000C2F20100C07F46F61861C2F20101096834
:104CB000969008461DF0A4FD9699814213D0FFE717
:104CC00046F61860C2F2010000681DF099FD47F633
:104CD000C441C2F20101C87740F6B040C2F20100FF
:104CE00001210170FFE7FFE7FFE7FFE7FFE7FFE7CD
:104CF000FFE7FFE746F62C50C2F20100006816F00D
:104D000003FA00281FD0FFE740F6B040C2F20100CE
:104D10000078002808D0FFE747F6C440C2F201003F
:104D2000702110F095FEFFE740F6B040C2F201009E
:104D30000021017003F0B0FF47F22050C2F20100E1
:104D40000721017015E046F62850C2F20100006804
:104D500016F0DAF900280BD0FFE703F09DFF02F010
:104D600063FB47F22050C2F2010009210170FFE706
:104D7000FFE701F01ABE47F6BF40C2F2010000781B
:104D800046F6BC51C2F201010968959008461DF033
:104D900037FD9599814214D0FFE746F6BC50C2F228
:104DA000010000681DF02CFD47F6BF41C2F2010171
:104DB00008702020012294900846949904F020FC69
:104DC000FFE740F61C50C2F20100808C46F62051ED
:104DD000C2F201010968939008461DF011FD9399F4
:104DE000814221D0FFE746F62050C2F20100006860
:104DF0001DF006FD40F61C51C2F2010188840878BE
:104E0000002809D1FFE746F60C50C2F20100006805
:104E100000211DF030FDFFE740F69840C2F201008E
:104E2000017801310170FFE740F61C50C2F2010029
:104E3000007946F61451C2F20101096892900846C1
:104E40001DF0DEFC9299814221D0FFE746F6145016
:104E5000C2F2010000681DF0D3FC40F61C51C2F202
:104E6000010108710879002809D1FFE746F60050D2
:104E7000C2F20100006800211DF0FDFCFFE740F6D2
:104E80009840C2F20100017801310170FFE740F65D
:104E90001C50C2F20100007A46F61851C2F201011C
:104EA0000968919008461DF0ABFC9199814221D090
:104EB000FFE746F61850C2F2010000681DF0A0FCA2
:104EC00040F61C51C2F201010872087A002809D18B
:104ED000FFE746F60450C2F20100006800211DF011
:104EE000CAFCFFE740F69840C2F2010001780131A8
:104EF0000170FFE740F61C50C2F20100007B46F64D
:104F00001C51C2F201010968909008461DF078FC1E
:104F10009099814221D0FFE746F61C50C2F2010071
:104F200000681DF06DFC40F61C51C2F201010873CF
:104F3000087B002809D1FFE746F60850C2F20100BD
:104F4000006800211DF097FCFFE740F69840C2F290
:104F50000100017801310170FFE740F61C50C2F2F8
:104F60000100007C46F62451C2F2010109688F90CD
:104F700008461DF045FC8F99814221D0FFE746F697
:104F80002450C2F2010000681DF03AFC40F61C51AA
:104F9000C2F201010874087C002809D1FFE746F637
:104FA0001050C2F20100006800211DF064FCFFE710
:104FB00040F69840C2F20100017801310170FFE72C
:104FC00040F61C50C2F20100007D46F6C051C2F20C
:104FD000010109688E9008461DF012FC8E998142ED
:104FE00014D0FFE746F6C050C2F2010000681DF081
:104FF00007FC40F61C51C2F20101087540F69840CA
:10500000C2F20100017801310170FFE740F61C5047
:10501000C2F20100007E46F6C451C2F201010968E5
:105020008D9008461DF0ECFB8D99814214D0FFE76E
:1050300046F6C450C2F2010000681DF0E1FB40F6E4
:105040001C51C2F20101087640F69840C2F20100FC
:10505000017801310170FFE740F61C50C2F20100F7
:10506000007F46F6C851C2F2010109688C900846DB
:105070001DF0C6FB8C99814214D0FFE746F6C8505C
:10508000C2F2010000681DF0BBFB40F61C51C2F2E9
:105090000101087740F69840C2F201000178013121
:1050A0000170FFE740F65850C2F20100007846F662
:1050B0000C51C2F2010109688B9008461DF0A0FB5B
:1050C0008B99814214D0FFE746F60C50C2F20100E2
:1050D00000681DF095FB40F65851C2F201010870BE
:1050E00040F69840C2F20100017801310170FFE7FB
:1050F00040F65850C2F20100007946F60051C2F263
:10510000010109688A9008461DF07AFB8A9981425C
:1051100014D0FFE746F60050C2F2010000681DF00F
:105120006FFB40F65851C2F20101087140F69840F9
:10513000C2F20100017801310170FFE740F65850DA
:10514000C2F20100007A46F60451C2F20101096878
:10515000899008461DF054FB8999814214D0FFE7DD
:1051600046F60450C2F2010000681DF049FB40F60B
:105170005851C2F20101087240F69840C2F2010093
:10518000017801310170FFE740F65850C2F201008A
:10519000007B46F60851C2F2010109688890084672
:1051A0001DF02EFB8899814214D0FFE746F6085087
:1051B000C2F2010000681DF023FB40F65851C2F214
:1051C0000101087340F69840C2F2010001780131F4
:1051D0000170FFE740F65850C2F20100007C46F62D
:1051E0001051C2F201010968879008461DF008FBC2
:1051F0008799814214D0FFE746F61050C2F20100B1
:1052000000681DF0FDFA40F65851C2F20101087421
:1052100040F69840C2F20100017801310170FFE7C9
:1052200046F62C50C2F20100006815F06DFF002810
:1052300000F08C80FFE740F6B040C2F20100007839
:1052400000280ED0FFE740F6B040C2F20100002176
:10525000017047F6C440C2F20100702110F0F8FB63
:10526000FFE740F69840C2F201000078002815D010
:10527000FFE740F69840C2F201000021017040F6BD
:105280001C50C2F20100302110F0FAFA40F65850DA
:10529000C2F20100502110F0F3FAFFE747F22D406F
:1052A000C2F2010000788DF8480546F6BC70C2F2E3
:1052B000010000788DF8490547F22850C2F201003C
:1052C00000788DF84A0547F22350C2F201000078B9
:1052D0008DF84B0547F22250C2F2010000788DF89C
:1052E0004C0547F22150C2F2010000788DF84D05BF
:1052F00046F6F040C2F2010080784007002804D54D
:10530000FFE701208DF84E0503E000208DF84E05E3
:10531000FFE70DF5A9600A210722869204F070F9D3
:1053200047F6BF41C2F201012022012385900846C1
:1053300011461A4604F064F9849003F0F5FC47F234
:105340002050C2F201008699017015E046F62850FF
:10535000C2F20100006815F0D7FE00280BD0FFE76D
:1053600003F0E2FC02F020FC47F22050C2F2010000
:105370000A210170FFE7FFE701F017BB47F2B440D5
:10538000C2F20100007846F6E451C2F20101096858
:10539000839008461DF034FAC0B203F0BDFE839935
:1053A00081421FD0FFE746F6E450C2F201000068D8
:1053B0001DF026FAC0B203F0AFFE47F2B441C2F2CC
:1053C0000101087047F2B400C2F2010001220AF0A4
:1053D000EFFA46F6F041C2F201010A6842F40042D7
:1053E0000A60FFE747F2B440C2F20100407846F697
:1053F000E851C2F201010968829008461DF000FAE6
:10540000C0B203F089FE829981421FD0FFE746F6C1
:10541000E850C2F2010000681DF0F2F9C0B203F0DA
:105420007BFE47F2B441C2F20101487047F2B4007A
:10543000C2F2010001220AF0BBFA46F6F041C2F2C4
:1054400001010A6842F400420A60FFE747F2B040F7
:10545000C2F20100807846F6D851C2F20101096813
:10546000819008461DF0CCF9C0B203F055FE819939
:1054700081421FD0FFE746F6D850C2F20100006813
:105480001DF0BEF9C0B203F047FE47F2B041C2F2D0
:105490000101887047F2B400C2F2010001220AF053
:1054A000BFF946F6F041C2F201010A6842F4004237
:1054B0000A60FFE747F2B040C2F20100407846F6CA
:1054C000EC51C2F201010968809008461DF098F97C
:1054D000C0B203F021FE809981421FD0FFE746F65B
:1054E000EC50C2F2010000681DF08AF9C0B203F06E
:1054F00013FE47F2B041C2F20101487047F2B40016
:10550000C2F2010001220AF08BF946F6F041C2F224
:1055100001010A6842F400420A60FFE747F2B04026
:10552000C2F20100C07846F60061C2F201010968CA
:105530007F9008461DF064F9A0F5FA60C0B203F050
:10554000EBFD7F99814221D0FFE746F60060C2F271
:10555000010000681DF054F9A0F5FA60C0B203F034
:10556000DBFD47F2B041C2F20101C87047F2B4005E
:10557000C2F2010001220AF053F946F6F041C2F2EC
:1055800001010A6842F400420A60FFE747F2B040B6
:10559000C2F20100007846F6CC51C2F2010109685E
:1055A0007E90084616F07FFA0130C0B203F0B4FDD9
:1055B0007E99814220D0FFE746F6CC50C2F201002E
:1055C000006816F070FA0130C0B203F0A5FD47F292
:1055D000B041C2F20101087047F2B400C2F201000A
:1055E00001220AF01DF946F6F041C2F201010A68F3
:1055F00042F400420A60FFE747F22150C2F2010084
:10560000007846F6F051C2F2010109687D90084623
:105610001DF0F6F87D9981421ED0FFE746F6F05066
:10562000C2F2010000681DF0EBF847F22151C2F20E
:1056300001010870087840F24071C2F2010151F88E
:10564000200019F007FB4FF4AA7033214FF4D772F2
:105650003B2318F073FBFFE746F63C50C2F2010013
:10566000006815F0C7FE012809D1FFE746F6F040B3
:10567000C2F20100016841F48021016008E046F6B1
:10568000F040C2F20100016821F480210160FFE7CF
:1056900046F6DC50C2F2010000681DF0B1F846F693
:1056A000BC71C2F20101087046F6E050C2F201007E
:1056B00000681DF0A5F847F22D41C2F20101087003
:1056C00046F6FC50C2F2010000681DF099F847F25E
:1056D0002851C2F20101087046F6F850C2F20100EA
:1056E00000681DF08DF847F22351C2F201010870E5
:1056F00046F6F450C2F2010000681DF081F847F24E
:105700002251C2F20101087046F6F050C2F20100C7
:1057100000681DF075F847F22151C2F201010870CE
:1057200046F62C50C2F20100006815F0EDFC00288E
:1057300000F08C80FFE740F6B040C2F20100007834
:1057400000280ED0FFE740F6B040C2F20100002171
:10575000017047F6C440C2F20100702110F078F9E0
:10576000FFE740F69840C2F201000078002815D00B
:10577000FFE740F69840C2F201000021017040F6B8
:105780001C50C2F20100302110F07AF840F6585057
:10579000C2F20100502110F073F8FFE747F22D40EC
:1057A000C2F2010000788DF8480546F6BC70C2F2DE
:1057B000010000788DF8490547F22850C2F2010037
:1057C00000788DF84A0547F22350C2F201000078B4
:1057D0008DF84B0547F22250C2F2010000788DF897
:1057E0004C0547F22150C2F2010000788DF84D05BA
:1057F00046F6F040C2F2010080784007002804D548
:10580000FFE701208DF84E0503E000208DF84E05DE
:10581000FFE70DF5A9600A2107227C9203F0F0FE54
:1058200047F6BF41C2F20101202201237B900846C6
:1058300011461A4603F0E4FE7A9003F0E9FA47F2C3
:105840002050C2F201007C99017015E046F6285004
:10585000C2F20100006815F057FC00280BD0FFE7EA
:1058600003F0D6FA02F0A8FD47F22050C2F2010080
:105870000D210170FFE7FFE701F097B847F22E40D6
:10588000C2F201000078002810D1FFE747F22E4055
:10589000C2F2010001780131017017F0E0FD46F617
:1058A0000C40C2F201003C210170ABE047F22E40F7
:1058B000C2F201000078012840F0A380FFE705F064
:1058C0004FFF46F60841C2F201010968401AB0F5DF
:1058D0007A7FC0F09580FFE705F042FF46F6084169
:1058E000C2F201010860FDF79FF8012018F0F6FEF2
:1058F000002032214FF4F072C82317F0BFFD46F6A6
:105900000C40C2F201000078062805DBFFE74FF4E7
:105910007F4019F09FF916E0FF2019F09BF940F63F
:105920000040C4F202001021012279907891779210
:1059300005F0F2FE779805F09BFB002279987899A4
:1059400005F0EAFEFFE749F26820C0F6030019F00F
:105950008FF9022176900846759119F0E9F90E2128
:1059600074900846739119F0D9F9F0215022729081
:1059700008467191114618F0F7FA0D21709008460B
:1059800014F05EFC47F2F510C2F2010017F0C6FEFB
:105990004DF69040C0F6030019F06AF975996F90C2
:1059A000084619F0C5F973996E90084619F0B6F9D2
:1059B0009C21719A6D90104618F0D6FA46F60C416B
:1059C000C2F201010A786C9010466B9117F07AFED2
:1059D000012018F0F5FE6B980178002908D0FFE748
:1059E00046F60C40C2F2010001780139017006E070
:1059F00047F22050C2F2010007210170FFE7FFE7E4
:105A0000FFE7FFE700F0D1BF46F62C50C2F20100DD
:105A1000006815F079FB002818D0FFE747F2935093
:105A2000C2F201000078002807D0FFE747F2935048
:105A3000C2F2010000210170FFE703F055FA47F2BE
:105A40002050C2F201000721017015E046F62850EF
:105A5000C2F20100006815F057FB00280BD0FFE7E9
:105A600003F042FA02F0A8FC47F22050C2F2010013
:105A70000D210170FFE7FFE700F097BF46F62C50BD
:105A8000C2F20100006815F03FFB002800F0B6806C
:105A9000FFE746F61340C2F20100007880008DF85F
:105AA0004605FFE79DF8460546F61341C2F201019F
:105AB00009780F22A2EB810104296A900ADBFFE733
:105AC00046F61340C2F201000078042101EB800089
:105AD000699002E00F206990FFE769986A99814216
