:020000040800F2
:10000000F87C0320DD01000849330108491201088A
:100010004133010809150008B995010800000000E6
:10002000000000000000000000000000EF010008D8
:10003000E11F000800000000F3010008796D0108CD
:10004000F7010008F7010008F7010008F7010008B0
:10005000F7010008F7010008F7010008F7010008A0
:10006000F7010008F7010008F7010008F701000890
:10007000F7010008F7010008F7010008F701000880
:10008000F7010008F7010008F7010008F701000870
:10009000F7010008F7010008F7010008F701000860
:1000A000F7010008F7010008F7010008F701000850
:1000B000F7010008F7010008F7010008F701000840
:1000C000F7010008F7010008F7010008F701000830
:1000D000F701000899950108A9950108F7010008A2
:1000E000F7010008F7010008F7010008F701000810
:1000F000F7010008F7010008F7010008F701000800
:10010000F7010008F7010008F7010008F7010008EF
:10011000F7010008F7010008F7010008F7010008DF
:10012000F7010008F7010008F7010008F7010008CF
:10013000F7010008F7010008F7010008F7010008BF
:10014000F7010008F7010008F7010008F7010008AF
:10015000F7010008F7010008F7010008F70100089F
:10016000F7010008F7010008F7010008F70100088F
:10017000F7010008F7010008F7010008000000007F
:10018000F7010008F7010008F7010008F70100086F
:10019000F7010008F7010008F7010008F70100085F
:1001A00089200108F7010008C11F0008F7010008B5
:1001B00049540108F7010008F7010008F701000899
:1001C000F7010008F7010008DFF80CD000F0B0FBE1
:1001D0000048004799B80108F87C0320064880478A
:1001E00006480047FEE7FEE7FEE7FEE7FEE7FEE71C
:1001F000FEE7FEE7FEE7FEE7096F0108C901000818
:1002000010B5441A0346944209D28318114403E0FE
:1002100011F8014D03F8014D521EF9D210BD40EA0C
:100220000104A40703D009E010C9121F10C3042A57
:10023000FAD203E011F8014B03F8014B521EF9D238
:1002400010BDD2B201E000F8012B491EFBD270476D
:100250000022F6E710B513460A4604461946FFF792
:10026000F0FF204610BD421C10F8011B0029FBD1F5
:10027000801A704730B504460020034600E05B1C3E
:10028000934203D2E05CCD5C401BF8D030BD034606
:1002900011F8012B00F8012B002AF9D118467047FC
:1002A0002DE9FE4F804681EA0300C00F0C46009006
:1002B00021F0004123F00045B8EB0200A94105D22E
:1002C0004046214690461C460B46024623F000401D
:1002D000104347D0270DC7F30A00C3F30A51029019
:1002E000401A019040286BDAC3F3130040F4801BDE
:1002F0000098924620B10023D2EB030A63EB0B0B6C
:1003000001985946C0F14002504600F004FA0646F2
:100310000D4650465946019A00F01CFA10EB0800B1
:100320006141002487EA115284EAE7731A4340D0FE
:10033000009A62B3019A012A4FEA075215DC001BAA
:1003400061EB02014FF0004202EA0752CDE90042A0
:10035000001C41F5801132462B4600F053FA03B0E1
:10036000BDE8F08F40462146F9E7001B61EB020132
:10037000001C41F5801300185B412018A2F50017FE
:1003800047EB030140EAD570B6196D4111E06D08E5
:100390004FEA360645EAC0754FEA0752001B61EB8B
:1003A0000201001C41F5801149084FEA3000001994
:1003B000514132462B4603B0BDE8F04F00F013BA6E
:1003C0000098012240000023D0EB020263EBE073AF
:1003D000009821464FEAE074B8EB000061EB04019D
:1003E000E9E783F000435BE781F0004158E72DE93E
:1003F000FE4F81EA030404F0004421F00041009420
:100400004FF0000B23F0004350EA01045ED052EAA3
:1004100003045BD0C3F30A54C1F30A552C44A4F27D
:10042000F3340194A0FB0254C1F3130141F4801191
:10043000C3F3130343F4801301FB024400FB034E98
:10044000840A970A44EA815447EA8357A4FB076861
:1004500002958D0A05FB07854FEA932C04FB0C548B
:100460002705029D4FEA065847EA1637B5EB0805FF
:100470006EEB070C870E920E47EA811742EA831251
:10048000A7FB0201B6EB0B0164EB00042B0D43EA62
:100490000C335E1844EB1C50DA465146E7FB020170
:1004A000C5F313044FEA0B3343EA14534FEA043203
:1004B000019C43EA0603A4F10C040294009CCDE9DC
:1004C00000B400F09FF903B0BDE8F08F00200146B2
:1004D000F9E72DE9F04D81EA030404F0004B21F027
:1004E000004514464FF0000A23F0004150EA05028F
:1004F00020D054EA01021DD0C5F30A570246C5F3C5
:100500001303C1F31300C1F30A5640F4801543F4FA
:100510008013A7EB0608101BD64608F2FD3873EBD4
:10052000050002D308F1010801E092185B41B8F11F
:10053000000F03DA00200146BDE8F08D00204FF4E3
:100540008011064684460EE0171B73EB050705D3A2
:10055000121B63EB050306434CEA010C49084FEA02
:10056000300092185B4150EA0107EDD152EA0300D6
:1005700012D082EA040083EA0501084305D0101B6B
:10058000AB4106D20122002306E000224FF00043D7
:1005900002E06FF0010253101AEB06004CEB085119
:1005A00010EB0A0041EB0B01BDE8F04D00F01BB968
:1005B0000EB5C10F80EAE0700844CA07002140F27E
:1005C00033438DE80E000A460B4600F01BF903B0DA
:1005D00000BD0EB540F2334102910021CDE900117A
:1005E0000A460B4600F00EF903B000BD70B5C1F32A
:1005F0000A5201F000450024C1F3130140F2FF3319
:1006000041F480119A4201DA002070BD40F2334378
:100610009A42A2F2334203DC524200F08BF800E02F
:1006200090402C43F1D0404270BD00F0004230F0C9
:1006300000400AD0C10D01F56071C0F3160042EA16
:100640000151C2084007114370470020014670471E
:1006500001F0004330B421F0004150EA010206D01D
:100660000A0DA2F56072C1F31301002A02DC30BC4E
:1006700000207047440F44EAC104C100E01830BCB8
:1006800000EBC25000F078B830B50B4601460020B0
:100690002022012409E021FA02F59D4205D303FA44
:1006A00002F5491B04FA02F52844151EA2F10102C5
:1006B000F1DC30BD2DE9F05F0546002092469B46F7
:1006C00088460646814640241BE028464146474668
:1006D000224600F02FF853465A46C01A914110D3D3
:1006E00011461846224600F016F82D1A67EB01084D
:1006F0004F4622460120002100F00DF817EB0009BB
:100700004E41201EA4F10104DFDC484631462A4652
:100710004346BDE8F09F202A04DB203A00FA02F1AC
:10072000002070479140C2F1200320FA03F31943DF
:1007300090407047202A04DB203A21FA02F0002181
:10074000704721FA02F3D040C2F1200291400843E1
:1007500019467047202A06DBCB17203A41FA02F0EF
:1007600043EAE07306E041FA02F3D040C2F120020E
:1007700091400843194670470029A8BF7047401CA4
:10078000490008BF20F00100704710B4B0FA80FCA7
:1007900000FA0CF050EA010404BF10BC704749B1E4
:1007A000CCF1200421FA04F411FA0CF118BF012154
:1007B00021430843A3EB0C01CB1D4FEA00614FEA34
:1007C000102042BF002010BC704700EBC350104403
:1007D0000029A4BF10BC7047401C490008BF20F08E
:1007E000010010BC704710B5141E73F1000408DA44
:1007F000401C41F1000192185B411A4301D120F0E5
:10080000010010BD2DE9F04D92469B4611B1B1FAA1
:1008100081F202E0B0FA80F220329046FFF77BFFCF
:1008200004460F4640EA0A0041EA0B0153465A4685
:10083000084313D0114653EA010019D0C8F1400211
:100840005046FFF777FF05460E465046594642464A
:10085000FFF761FF084305D0012004E02046394638
:10086000BDE8F08D0020054346EAE0762C4337438F
:100870000A986305E40AA0EB08000022FD0A44EA96
:1008800047540A3002D500200146E9E70105101956
:100890006941DDE9084500196941BDE8F04DA2E76D
:1008A000C1F30A52C1F3130140F2FF3341F4801146
:1008B0009A4202DA00200146704740F233439A42DE
:1008C000A2F2334202DC5242FFF734BFFFF723BFEC
:1008D00030B5041E71F1000404DB4FF000444042C7
:1008E00064EB0101141E73F1000405DB1C464FF09C
:1008F0000043524263EB04038B4208BF824230BD87
:1009000030B5041E71F1000404DB4FF00044404296
:1009100064EB0101141E73F1000405DB1C464FF06B
:100920000043524263EB0403994208BF904230BD3A
:10093000064C074D06E0E06840F0010394E807002C
:1009400098471034AC42F6D3FFF742FC14A90408D0
:1009500044A9040870B58C1810F8015B15F0070362
:1009600001D110F8013B2A1106D110F8012B03E048
:1009700010F8016B01F8016B5B1EF9D12B0705D450
:100980000023521E0DD401F8013BFAE710F8013B99
:10099000CB1A921C03E013F8015B01F8015B521EB5
:1009A000F9D5A142D8D3002070BD0000000000009E
:1009B00080B58AB00BF0DCFC40F6C831C2F2010110
:1009C0000968401A0C28C0F0BD81FFE70BF0D0FC8D
:1009D00040F6C831C2F2010108600120079008907A
:1009E00040F6C430C2F201000078002803D1FFE7CE
:1009F0000B20069017E040F6C430C2F201000078E8
:100A0000012803D1FFE70C2006900BE040F6C4302C
:100A1000C2F201000078022803D1FFE70D20069002
:100A2000FFE7FFE7FFE746F67860C2F2010006A99C
:100A300002900AF019FA0299019008460AF06CFC3B
:100A40000A21029A009010460AF0D6FB40F6C43103
:100A5000C2F201010978002940F03881FFE746F62B
:100A60007860C2F201000AF05FFB40F6CC31C2F2BE
:100A700001010A6840F6D033C2F2010323F81200E4
:100A80000868013008600A2807D3FFE740F6CC3039
:100A9000C2F2010000210160FFE7002004900390F2
:100AA000FFE7039809280FD8FFE7039840F6D031F5
:100AB000C2F2010131F81000049908440490FFE7E4
:100AC000039801300390ECE704984CF6CD41CCF646
:100AD000CC41A0FB0101C90804910499642905D304
:100AE000FFE70498B0F57A6F18D9FFE740F6CC30ED
:100AF000C2F201000068002809D1FFE747F2AD50BB
:100B0000C2F20100017801F0FE010170FFE747F633
:100B1000AC40C2F2010000214180D6E040F6CC306A
:100B2000C2F201000068002809D1FFE747F2AD508A
:100B3000C2F20100017841F001010170FFE7BDF848
:100B4000100014F06DFD40F6C030C2F2010080EDDF
:100B5000000A90ED000AB2EE041A20EE010ABDEE82
:100B6000C00A10EE100AADF8160047F6AC40C2F20B
:100B70000100B0F9020046F26761C6F2666150FBFF
:100B800001F0821002EBD070BDF9162052FB01F18A
:100B90008A1002EBD171884200F08180FFE70BF0F0
:100BA000E7FB47F2A851C2F201010968401A40F67A
:100BB000B83188425DD8FFE70BF0DAFB47F2A45169
:100BC000C2F201010968401AFA2851D3FFE70BF07D
:100BD000CFFB47F2A451C2F20101086047F21C406A
:100BE000C2F20100B0F9000046F26761C6F2666128
:100BF00050FB01F0821002EBD070BDF9162052FBC1
:100C000001F18A1002EBD17188420ED0FFE7BDF8E6
:100C1000160047F21C41C2F20101088047F2AC50B5
:100C2000C2F201000021017021E047F2AC50C2F293
:100C3000010001780131017000780A2816D1FFE720
:100C400047F2AC50C2F2010000210170BDF816005D
:100C500047F6AC41C2F20101488046F6F040C2F2CC
:100C60000100016841F480110160FFE7FFE7FFE741
:100C700014E00BF07DFB47F2A851C2F201010860BD
:100C80000BF076FB47F2A451C2F20101086047F273
:100C9000AC50C2F2010000210170FFE714E00BF03C
:100CA00067FB47F2A851C2F2010108600BF060FB3C
:100CB00047F2A451C2F20101086047F2AC50C2F2FF
:100CC000010000210170FFE7FFE728E040F6C43093
:100CD000C2F201000078012808D1FFE746F67860EB
:100CE000C2F201000AF020FA049017E040F6C43086
:100CF000C2F20100007802280FD1FFE746F67860C3
:100D0000C2F201000AF010FAFF21A1EB101047F225
:100D10003E21C2F201010870FFE7FFE7FFE740F65E
:100D2000C430C2F2010001780131CAB20170032A55
:100D300007D3FFE740F6C430C2F201000021017082
:100D4000FFE7FFE70AB080BD81B0009042F20430B7
:100D5000C4F20100016821F4403101600099496842
:100D600002681143016000980068416821F48071B5
:100D700041600098016800694A6842EA00204860C2
:100D800000980068416821F0407141600098016856
:100D900080684A681043486000980068816821F4C0
:100DA0000061816000980168C0688A6810438860AB
:100DB0000098806A0121C0F60071884219D0FFE7CF
:100DC00000980068816821F0706181600098016876
:100DD000806A8A681043886000980068816821F002
:100DE0004051816000980168C06A8A681043886039
:100DF0000CE000980068816821F0706181600098C3
:100E00000068816821F040518160FFE70098006828
:100E1000816821F0020181600098016880698A6818
:100E200042EA400088600098006A002819D0FFE775
:100E300000980068416841F40061416000980068D2
:100E4000416821F46041416000980168406A4EF2B7
:100E50000002CFF6FF7202EB40304A681043486050
:100E600006E000980068416821F400614160FFE7F6
:100E700000980068C16A21F47001C162009801689D
:100E8000C0690022CFF6F07202EB0050CA6A10432C
:100E9000C86200980068816821F400718160009840
:100EA0000168006B8A6842EA402088600098006808
:100EB000816821F4806181600098016840698A68D6
:100EC00042EA8020886001B0704700000000000006
:100ED00081B00090009847F28441C2F20101416064
:100EE00047F28A40C2F2010000780099088101B0FF
:100EF000704700000000000080B58CB00B9000200F
:100F00000A9040F66C41C2F2010101220A601023EE
:100F10004B608A60C86047F2145CC2F2010C4FF665
:100F2000FF7E099060460891079272460693CDF8BD
:100F300014C0CDF810E00FF0B3FC079903900846F9
:100F40000AF09EFE02200899086006984860079AF9
:100F50008A60099BCB600598049A0FF0A1FC0321DD
:100F6000089A11600699516008239360099BD36029
:100F7000DDF814C0029060461146049A0FF090FC10
:100F80004FF408710A910421089A11600699516082
:100F9000079B9360DDF828C0C2F80CC0DDF814C0D0
:100FA000019060461146049A0FF07AFC0B99059A5D
:100FB000009010460FF050FC0CB080BD0000000007
:100FC00080B59AB019901891FFE743F63800C4F243
:100FD0000200016841F001010160006800F00100B9
:100FE00012901298FFE7FFE743F63000C4F20200C8
:100FF000016841F480010160006800F480001190F4
:101000001198FFE7FFE743F63000C4F202000168E1
:1010100041F001010160006800F00100109010989B
:10102000FFE7FFE743F63000C4F20200016841F039
:1010300004010160006800F004000F900F98FFE7C2
:10104000FFE743F63000C4F20200016841F00801F6
:101050000160006800F008000E900E98FFE7FFE7BF
:1010600043F63000C4F20200016841F01001016053
:10107000006800F010000D900D98FFE7FFE743F6C1
:101080003000C4F20200016841F0200101600068F4
:1010900000F020000C900C98FFE7FFE743F63000CB
:1010A000C4F20200016841F040010160006800F0F4
:1010B00040000B900B98FFE74FF63F001390022083
:1010C000149000211591032216920C23179341F2DC
:1010D000004CC4F2020C0DF14C0E0A9060460991CE
:1010E000714608920793CDF818E00AF01DFF8020A2
:1010F00013900A991491099A1592089B1693DDF89A
:101100001CC0CDF85CC040F2000EC4F2020E059087
:10111000704606990AF008FF302013900A98149040
:1011200009991591089A1692079B179340F60000AB
:10113000C4F2020006990AF0F7FE48F23310139049
:101140000A98149009991591089A1692079B17937B
:1011500041F60000C4F2020006990AF0E5FE4FF6DF
:10116000837013900A98149009991591089A169211
:10117000079B179341F20000C4F2020006990AF09F
:10118000D3FE4CF2037013900A98149009991591AC
:10119000089A1692079B179340F60040C4F202008B
:1011A00006990AF0C1FE40F6E430C2F20100099946
:1011B0004160059A82604FF40073C3604FF480630E
:1011C00003614FF4805343614FF480438361C161F5
:1011D0004FF4003303624162089B8362C162016382
:1011E00046F2104CC4F2020CC0F800C0FFE7199898
:1011F00040F6E431C2F20101016319988863FFE708
:1012000040F6E430C2F2010004900AF001FC0499B7
:10121000039008460AF04CFC38210F22002302906C
:101220000846019111461A460CF0BAFC01980CF0E0
:10123000ABFC1AB080BD000080B592B011900020C8
:101240008DF8430047F6D840C2F2010000680069FB
:1012500040F61851C2F2010109780390084603993B
:1012600088471199087011980078002800F038819B
:10127000FFE700200490FFE704981199097888425D
:1012800080F02D81FFE747F6D840C2F201000068E8
:10129000406940F61851C2F201010978049A09AB7D
:1012A00003EB42030DF11A0C0CEB420202900846CC
:1012B0001946029B984747F6DC40C2F201000078CD
:1012C000012811D1FFE7049809A931F810100EAADE
:1012D00022F8101004980DF11A0131F810100DF1D8
:1012E0002E0222F81010FFE747F6DC40C2F20100A0
:1012F0000078800700280AD5FFE7049809A931F88B
:101300001010C1F580510EAA22F81010FFE747F621
:10131000DC40C2F201000078400700280CD5FFE74E
:1013200004980DF11A0131F81010C1F580510DF13A
:101330002E0222F81010FFE747F6DC40C2F201004F
:1013400000780007002811D5FFE7049809A931F8B3
:1013500010100DF12E0222F8101004980DF11A0150
:1013600031F810100EAA22F81010FFE704980EA909
:1013700031F8101040F64442C2F2010252F8200047
:1013800081420DD9FFE704980EA931F8101040F6FC
:101390004442C2F2010252F82000081A01900CE007
:1013A000049840F64441C2F2010151F820100EAAFF
:1013B00032F81000081A0190FFE70198ADF8180004
:1013C00004980DF12E0131F8101040F65842C2F287
:1013D000010252F8200081420ED9FFE704980DF176
:1013E0002E0131F8101040F65842C2F2010252F8B4
:1013F0002000081A00900DE0049840F65841C2F20F
:10140000010151F820100DF12E0232F81000081AD7
:101410000090FFE70098ADF81600BDF81800BDF881
:1014200016100844062816DBFFE704980EA931F8C9
:10143000101040F64442C2F2010242F82010049813
:101440000DF12E0131F8101040F65842C2F201029F
:1014500042F82010FFE740F61850C2F20100007871
:10146000702812D1FFE704980EA931F81010119AD4
:1014700002EB4000418004980DF12E0131F810106C
:10148000119A02EB4000818124E047F6DE40C2F26F
:1014900001000088049940F64442C2F2010252F869
:1014A00021205043000B119A02EB4101488047F67E
:1014B000E040C2F201000088049940F65842C2F2AE
:1014C000010252F821205043000B119A02EB410116
:1014D0008881FFE7FFE7049801300490CCE6FFE73E
:1014E0009DF8430012B080BD81B001468DF8030025
:1014F0009DF80300020902EB820200F00F0000EBEE
:101500004200C0B201B0704780B514F065FF80BDE5
:1015100086B04EF69450CEF20000016821F005012D
:1015200001604EF69851CEF2000100220A604EF69C
:101530009C51CEF200011023C2F201030B604EF663
:10154000A051CEF200013D23C0F202330B60052111
:101550000160BFF34F8FBFF36F8F4EF65070CEF226
:1015600000000260BFF34F8FBFF36F8F4EF6145031
:10157000CEF20000016841F480210160BFF34F8F7B
:1015800000688003002801D5FFE71AE0BFF34F8F02
:10159000BFF36F8F4EF65070CEF200000021016055
:1015A000BFF34F8FBFF36F8F4EF61450CEF2000093
:1015B000016841F400310160BFF34F8FBFF36F8FBB
:1015C000FFE74EF68450CEF2000000210160BFF329
:1015D0004F8F4EF68050CEF20000006805900598BF
:1015E000C0F34E300490FFE70598C0F3C9000390A4
:1015F000FFE704980399890760F34D114EF6607078
:10160000CEF2000001600398411E03910028F0D142
:10161000FFE70498411E04910028E5D1FFE7BFF3DE
:101620004F8FBFF36F8F4EF61450CEF2000000685C
:10163000C003002801D5FFE73CE04EF68450CEF20F
:10164000000000210160BFF34F8F4EF68050CEF2B4
:101650000000006802900298C0F34E300190FFE74E
:101660000298C0F3C9000090FFE70198009989072C
:1016700060F34D114EF66070CEF2000001600098EC
:10168000411E00910028F0D1FFE70198411E019111
:101690000028E5D1FFE7BFF34F8F4EF61450CEF28E
:1016A0000000016841F480310160BFF34F8FBFF348
:1016B0006F8FFFE706B0704781B000900098017A05
:1016C000417201B07047000047F6E440C2F20100E9
:1016D000007870470000000081B000900098C0883A
:1016E00001B070470000000081B000900098808831
:1016F00001B070470000000080B582B001900AF090
:1017000037FE01990968401A800800217C2888BFAB
:101710000121084602B080BD80B586B00A4605901A
:10172000ADF8121005980021016005980172059826
:1017300041720598817205980430BDF81210022399
:1017400003921A46029308F01BFD05990631BDF875
:101750001220023292B2019008461146029A08F015
:101760000FFD06B080BD000080B582B001468DF847
:1017700006009DF8060000EB400046F61842C2F253
:10178000010202EB8000009100F0D6F9002804D09D
:10179000FFE700208DF8070016E09DF8060000EB3B
:1017A000400046F61841C2F2010101EB800000F052
:1017B000CFF9002804D0FFE701208DF8070003E0EF
:1017C00002208DF80700FFE79DF8070002B080BDFA
:1017D00082B001468DF807009DF80700002200281E
:1017E000009208D4FFE79DF8070000210F28B8BF3A
:1017F00001210091FFE7009800F0010002B070475E
:1018000080B584B00A4603908DF80B1003980192BE
:1018100000F046F900281CD0FFE7039800F0A4F977
:10182000002804D0FFE7039800214172FFE79DF8EC
:101830000B00039908720AF09BFD03990860039856
:101840000068002804D1FFE7039801210160FFE749
:10185000FFE704B080BD000080B584B00A46039065
:101860008DF80B100398019200F032F9002812D085
:10187000FFE70398007A9DF80B1088420BD1FFE731
:101880000398407A9DF80B10884204D1FFE7039833
:1018900000F0BEF805E003989DF80B10FFF7B0FFCD
:1018A000FFE704B080BD000080B584B00A4603465F
:1018B0008DF80F008DF80E109DF80F0000EB400022
:1018C00046F61841C2F2010101EB80009DF80E10AE
:1018D00002920193FFF7C0FF04B080BD000000003A
:1018E00081B0009000980121817201B07047000022
:1018F00081B0009000980021817201B07047000013
:1019000080B582B001900198002101720198417266
:10191000019801600198FFF7EBFF02B080BD000065
:1019200080B500F0BDFA46F61441C2F2010108701C
:1019300080BD00000000000080B582B001900AF078
:1019400017FD0199086001980068002804D1FFE79D
:10195000019801210160FFE702B080BD0000000096
:1019600080B586B00A460590ADF81210059804308F
:10197000BDF81210022303921A46029308F048FCA5
:1019800005990631BDF81220023292B20190084644
:101990001146029A08F03CFC06B080BD0000000031
:1019A00081B001468DF803009DF8030046F614420D
:1019B000C2F20102107001B0704700000000000088
:1019C00081B001468DF803009DF8030047F6E4421C
:1019D000C2F20102107001B0704700000000000068
:1019E00082B00A460190ADF80210BDF802000199DC
:1019F000C88002B07047000082B00A460190ADF87E
:101A00000210BDF802000199888002B07047000002
:101A100081B0009000980021017201B07047000071
:101A200080B582B046F61440C2F201000078019001
:101A300000F036FA0199081AB0FA80F0400902B0B5
:101A400080BD00000000000046F61440C2F2010014
:101A5000007870470000000081B000900098017A83
:101A6000407A081A18BF012001B07047000000003A
:101A700080B582B001900AF07BFC01990968401A98
:101A80000090FFF721FE4FF47A7148430021009A3D
:101A9000824228BF0121084602B080BD000000003C
:101AA00082B001900198808800210028009107D021
:101AB000FFE70198C088002818BF01200090FFE7C9
:101AC000009800F0010002B0704700000000000024
:101AD00080B582B001900198FFF7E2FF002807D09F
:101AE000FFE70198407A002818BF0120009002E02B
:101AF00000200090FFE70098002818BF012002B0E6
:101B000080BD00000000000081B000900098407A85
:101B10000138B0FA80F0400901B0704700000000C1
:101B200081B000900098007A0238B0FA80F0400945
:101B300001B070470000000081B000900098007A6A
:101B4000B0FA80F0400901B07047000000000000CA
:101B500081B000900098007A0138B0FA80F0400916
:101B600001B070470000000081B000900098807ABA
:101B7000002818BF012001B07047000000000000DD
:101B800080B582B046F6CC40C2F20100002101705F
:101B90008DF80710FFE79DF807000E281FDCFFE710
:101BA0009DF8070000EB400046F61841C2F2010123
:101BB00001EB8000FFF774FF002808D0FFE746F62E
:101BC000CC40C2F2010001780131017000E006E072
:101BD000FFE79DF8070001308DF80700DBE702B052
:101BE00080BD00000000000080B582B047F6E440F0
:101BF000C2F201004FF4D871012208F0C1FA0021AD
:101C00008DF80710FFE79DF807000E2819DCFFE7A5
:101C10009DF8070000EB400146F61842C2F20102AF
:101C200002EB8101932202EB8000009008460099AC
:101C3000FFF772FDFFE79DF8070001308DF8070000
:101C4000E1E7FFF79DFF02B080BD0000000000004B
:101C500080B582B001468DF8070046F6CD40C2F24D
:101C6000010001220270009100F022F9002832D018
:101C7000FFE700208DF80600FFE79DF806000E281C
:101C800028DCFFE79DF8060000EB400046F618410F
:101C9000C2F2010101EB8000FFF702FF002812D021
:101CA000FFE79DF807000121012808BF02219DF8E8
:101CB000060000EB400046F61842C2F2010202EBB9
:101CC00080004172FFE7FFE79DF8060001308DF8C4
:101CD0000600D2E7FFE700208DF80500FFE79DF83A
:101CE00005000E2815DCFFE79DF8050000EB40001D
:101CF00046F61841C2F2010101EB80009DF8071081
:101D0000FFF77EFDFFE79DF8050001308DF8050027
:101D1000E5E702B080BD000080B582B001468DF8D5
:101D2000070001208DF806009DF80700002853D019
:101D3000FFE700208DF80500FFE79DF805000E285D
:101D400049DCFFE79DF8050000EB400046F618412E
:101D5000C2F2010101EB8000FFF7A2FE002833D0A0
:101D6000FFE79DF8050000EB400046F61841C2F27F
:101D7000010101EB8000FFF7ABFE002820D0FFE758
:101D80009DF8050000EB400046F61841C2F2010143
:101D900001EB8000007A9DF80710884210D1FFE720
:101DA0009DF8050000EB400046F61841C2F2010123
:101DB00001EB8000407A9DF80710884204D0FFE7CD
:101DC00000208DF80600FFE7FFE79DF805000130D1
:101DD0008DF80500B1E7FFE79DF80600002803D065
:101DE000FFE700F03DF804E09DF80700FFF730FF43
:101DF000FFE702B080BD000080B582B047F6E44046
:101E0000C2F201004FF4D871012208F001FA00215A
:101E10008DF80710FFE79DF807000E2819DCFFE793
:101E20009DF8070000EB400146F61842C2F201029D
:101E300002EB8101932202EB80000090084600999A
:101E4000FFF78EFDFFE79DF8070001308DF80700D2
:101E5000E1E7FFF795FE02B080BD00000000000042
:101E600080B582B000208DF80700FFE79DF80700DD
:101E70000E2813DCFFE79DF8070000EB400046F654
:101E80001841C2F2010101EB8000FFF7C1FDFFE73D
:101E90009DF8070001308DF80700E7E702B080BD2C
:101EA00046F6CC40C2F20100007870470000000006
:101EB00080B582B000208DF80600FFE79DF806008F
:101EC0000E281ADCFFE79DF8060000EB400046F6FE
:101ED0001841C2F2010101EB8000FFF7F9FD002873
:101EE00004D0FFE701208DF807000AE0FFE79DF826
:101EF000060001308DF80600E0E700208DF80700AD
:101F0000FFE79DF8070002B080BD00000000000060
:101F100080B582B000208DF806008DF80500FFE73F
:101F20009DF805000E283CDCFFE79DF8050000EB5E
:101F3000400046F61841C2F2010101EB8000FFF7B4
:101F4000AFFD002813D0FFE79DF8050000EB40002F
:101F500046F61841C2F2010101EB8000FFF7E0FDF7
:101F6000002804D1FFE700208DF8070021E09DF84C
:101F7000050000EB400046F61841C2F2010101EBFA
:101F80008000FFF78DFD002804D0FFE701208DF8C9
:101F90000600FFE7FFE79DF8050001308DF805001A
:101FA000BEE79DF80600002818BF01208DF8070045
:101FB000FFE79DF8070002B080BD000000000000B0
:101FC00080B546F6E460C2F2010009F06DFB4BF209
:101FD0000800C4F202000221016080BD0000000080
:101FE000704700000000000080B546F67070C2F235
:101FF00001000FF02DFC80BD7047C06B1BF06FBE61
:102000000000000000000000082418310000010852
:1020100080B582B000208DF806008DF80500FFE73E
:102020009DF805000E283CDCFFE79DF8050000EB5D
:10203000400046F61841C2F2010101EB8000FFF7B3
:102040002FFD002813D0FFE79DF8050000EB4000AE
:1020500046F61841C2F2010101EB8000FFF778FD5E
:10206000002804D1FFE700208DF8070021E09DF84B
:10207000050000EB400046F61841C2F2010101EBF9
:102080008000FFF70DFD002804D0FFE701208DF848
:102090000600FFE7FFE79DF8050001308DF8050019
:1020A000BEE79DF80600002818BF01208DF8070044
:1020B000FFE79DF8070002B080BD000000000000AF
:1020C00080B5A6B046F6F040C2F2010040780006A6
:1020D000002802D4FFE700F041BC47F2B400C2F28E
:1020E000010047F29C41C2F2010101221D901C92A5
:1020F0000EF0C2F847F29841C2F201011D9A1B90FE
:1021000010461C9A0EF078F847F20B51C2F201010A
:10211000097847F20A52C2F20102127891424BDB6F
:10212000FFE747F29C40C2F201000078FFF7DCF9BC
:1021300047F20B51C2F201010978884209DBFFE73F
:1021400046F6F040C2F20100016841F4001101605E
:1021500031E047F29C40C2F201000078FFF7C4F979
:1021600047F20A51C2F201010978884209DAFFE711
:1021700046F6F040C2F20100016841F4001101602E
:1021800018E046F6F040C2F2010080788006002890
:102190000FD5FFE746F6F040C2F20100016821F4D6
:1021A0000011016047F20850C2F2010007210170DE
:1021B000FFE7FFE7FFE753E047F20B50C2F20100F1
:1021C000007847F20A51C2F201010978884246DAE2
:1021D000FFE747F29C40C2F20100007847F20A5143
:1021E000C2F20101097800228842B8BF01221046DC
:1021F000FFF77AF9002818D0FFE747F29C40C2F2B7
:1022000001000078FFF770F947F20B51C2F20101AB
:102210000978884209DBFFE746F6F040C2F2010088
:10222000016841F40011016018E046F6F040C2F286
:1022300001008078800600280FD5FFE746F6F040C1
:10224000C2F20100016821F40011016047F2085058
:10225000C2F2010007210170FFE7FFE7FFE7FFE798
:1022600046F6F040C2F2010080788007002840F175
:10227000DE82FFE746F6F040C2F201008078800679
:10228000002840F1D482FFE746F6F040C2F2010098
:1022900080784007002840F1CA82FFE746F6F04008
:1022A000C2F201008078400600280DD5FFE740F615
:1022B0007C40C2F20100007847F29841C2F201016D
:1022C0000978884241D0FFE746F6F040C2F20100AB
:1022D000016841F48001016000201A901DF01AF895
:1022E0001A981DF0B9FA19901BF0D5FE1A981DF036
:1022F00083F8012018901DF00DF818981DF0ACFA25
:102300004FF07F41179008461DF0BEFA1BF0C3FE48
:1023100040F2DE70C2F201003C21017047F29840A9
:10232000C2F20100007840F67C41C2F2010108705F
:1023300009201DF007FB4FF47F41169008461DF061
:10234000A5FA18981DF058F8FFE747F29C40C2F232
:1023500001001EA902221590084615990EF078FF7B
:1023600015988178C907002904D0FFE73A208DF835
:102370007A0003E020208DF87A00FFE71EA8C11C38
:1023800047F29C42C2F20102013202231490084635
:1023900011461A460EF05CFFF02088211CF000FC6C
:1023A00047F20951C2F20101097840F24072C2F2CB
:1023B000010252F82110139008461DF067FA40F60A
:1023C0009040C0F604001DF06FFA0E2112900846EE
:1023D0001DF0C0FA0121119008461CF09BFF00205F
:1023E00050214FF4F072C02310901BF063FEDC21EB
:1023F00064224FF4877310981BF05CFE14981BF056
:10240000A9FF47F29840C2F201000078002807D1E6
:10241000FFE747F29840C2F2010007210170FFE791
:1024200047F29840C2F20100007801280FD1FFE77F
:1024300042F22000ADF8800046F26E40C7F661100F
:102440001F9042F22000C6F64D701E908FE047F2BA
:102450009840C2F20100007802280FD1FFE742F253
:102460007900ADF8800047F27340C6F264101F9007
:1024700045F22040C6F275501E9077E047F2984032
:10248000C2F20100007803280FD1FFE742F2790081
:10249000ADF8800047F26530C6F264101F9046F236
:1024A0005750C6F664601E905FE047F29840C2F253
:1024B0000100007804280FD1FFE742F27900ADF85F
:1024C000800047F27340C6F264101F9046F6540035
:1024D000C7F275201E9047E047F29840C2F2010013
:1024E000007805280FD1FFE742F22000ADF8800008
:1024F00046F26940C7F661101F9042F22000C7F211
:1025000046201E902FE047F29840C2F2010000786A
:1025100006280FD1FFE742F27900ADF8800047F2BC
:102520007520C6F264101F9045F22030C7F261405A
:102530001E9017E047F29840C2F201000078072889
:102540000FD1FFE742F22000ADF8800046F26E4066
:10255000C7F661101F9042F22000C7F253501E9040
:10256000FFE7FFE7FFE7FFE7FFE7FFE7FFE71EA85B
:102570000A3047F29841C2F201018A1C02230F91EE
:1025800011461A460EF064FE0F98417801290FD1CA
:10259000FFE742F27900ADF88C0047F26E50C7F2C7
:1025A0006120229042F22E00C6F24A10219007E1EB
:1025B00047F29840C2F20100407802280FD1FFE7AD
:1025C00047F67210ADF88C0047F26220C6F2751023
:1025D000229042F22E00C6F246502190EFE047F2E0
:1025E0009840C2F20100407803280FD1FFE742F281
:1025F0002000ADF88C0047F26120C6F663002290FF
:1026000042F22E00C4F620502190D7E047F29840C5
:10261000C2F20100407804280FD1FFE742F2200007
:10262000ADF88C0047F27020C6F66940229042F265
:102630002E00C4F220102190BFE047F29840C2F271
:102640000100407805280FD1FFE742F22000ADF8E5
:102650008C0046F24D10C2F27900229042F22E0018
:10266000C2F220002190A7E047F29840C2F2010098
:10267000407806280FD1FFE742F22000ADF88C0029
:1026800047F24A50C6F26E50229042F22E00C2F239
:10269000200021908FE047F29840C2F2010040787C
:1026A00007280FD1FFE742F22000ADF88C0047F277
:1026B0004A50C7F66C10229042F22E00C2F220005F
:1026C000219077E047F29840C2F201004078082854
:1026D0000FD1FFE742F22000ADF88C0047F26750BF
:1026E000C7F27340229042F22E00C7F2415021906F
:1026F0005FE047F29840C2F20100407809280FD10C
:10270000FFE747F26520ADF88C0046F27450C6F240
:102710006D20229045F22E30C7F26500219047E0EF
:1027200047F29840C2F20100407810280FD1FFE72D
:1027300042F27200ADF88C0046F67470C6F2625038
:10274000229042F22E00C6F24F3021902FE047F245
:102750009840C2F20100407811280FD1FFE747F2FC
:102760006520ADF88C0046F27650C6F26D202290BE
:1027700042F22E00C6F64E70219017E047F29840C4
:10278000C2F20100407812280FD1FFE747F265201E
:10279000ADF88C0046F26350C6F26D20229042F2F2
:1027A0002E00C6F244502190FFE7FFE7FFE7FFE766
:1027B000FFE7FFE7FFE7FFE7FFE7FFE7FFE7FFE7E9
:1027C00030208DF8900043F22020ADF88E001EA836
:1027D00000F1190147F29842C2F2010203320223CA
:1027E0000E90084611461A460EF032FD2E208DF846
:1027F000930000208DF8940048F27000C0F60300AA
:102800001DF052F8F021CE220D90084611461CF022
:10281000C7F90E210C9008461DF09CF80E990B90FC
:1028200008461BF097FD01201CF0E6FD60E040F239
:10283000DE70C2F20100007847F29C41C2F2010151
:102840004978884253D0FFE747F29C40C2F201002A
:10285000014611F8012F40F2DE73C2F201031A7033
:102860001EAA02230A901046DDF828C0099161468D
:1028700008921A4607930EF0EBFC3A208DF87A0086
:10288000089803300999079A0EF0E2FC49F6A06017
:10289000C0F603001DF008F86FF07F41069008466F
:1028A0001CF0F4FF07981DF05FF80C210590084616
:1028B0001DF050F801210490084603911CF02AFDF8
:1028C0000520F5211CF06CF90021DC2264234FF473
:1028D000877C0290084611461A4663461BF0EAFBC5
:1028E00008981BF037FD03981CF086FDFFE7FFE713
:1028F00040F67C40C2F20100007847F29841C2F2F3
:1029000001010978884229D0FFE747F29840C2F2D6
:102910000100017840F67C42C2F201021170827817
:1029200047F2B401C2F2010102230190084600916E
:1029300019460DF099FB01984278032100980DF09B
:1029400093FB01980278042100980DF08DFB01980B
:10295000C278052100980DF087FBFFE726B080BD07
:1029600080B582B001468DF806009DF8060001286A
:1029700016D1FFE740F67D40C2F201000078002842
:102980000ED1FFE740F67D40C2F201000121017047
:1029900009F0EEFC40F68041C2F20101086039E026
:1029A0009DF8060001281FD1FFE740F67D40C2F2E6
:1029B00001000078012817D1FFE709F0D9FC40F6A3
:1029C0008041C2F201010968401AB0F5586F0AD37C
:1029D000FFE740F67D40C2F20100002101700120B6
:1029E0008DF807001AE014E09DF8060000280FD1CA
:1029F000FFE740F67D40C2F201000078012807D1D0
:102A0000FFE740F67D40C2F2010000210170FFE7C0
:102A1000FFE7FFE700208DF80700FFE79DF80700BC
:102A200002B080BD0000000080B546F6F040C2F262
:102A3000010080788007002810D5FFE746F6F040B7
:102A4000C2F2010080788006002807D5FFE747F230
:102A50000850C2F2010007210170FFE746F6F0407E
:102A6000C2F20100016821F400310160016821F423
:102A70008001016009F07CFC47F20C51C2F20101B7
:102A8000086047F21050C2F201001E21017046F6A4
:102A9000BC70C2F20100007800F002F880BD0000B6
:102AA00081B001468DF803009DF80300042804DC82
:102AB000FFE705208DF8030009E09DF80300512889
:102AC00004DBFFE750208DF80300FFE7FFE79DF8E8
:102AD000030000EB8000400047F2D401C2F2010184
:102AE0000968486301B0704780B586B00120059041
:102AF0001CF010FCC32091214FF4A072EB231BF0BB
:102B0000D9FA6FF07F401CF0C1FE4DF20030C0F6E4
:102B100003001CF0C9FE0021049008461CF024FFAD
:102B20000599039008461CF015FFC82196220290D3
:102B3000084611461CF034F847F6AC41C2F20101D8
:102B4000897A02220190084611461BF0C3FB0598C2
:102B50001CF052FC06B080BD80B588B01CF028F88F
:102B600043F2C131C0F60101079008461CF0E2FCB7
:102B70000120069021F026FE05901DF03DF8002072
:102B80001CF06AFE04901BF086FA06981CF064FEA6
:102B90004FF07F41039008461CF076FE1BF07BFA55
:102BA00040F61C50C2F20100302113F0F5FA40F655
:102BB0005850C2F20100502113F0EEFA0FF090FECF
:102BC00046F6FE30C2F201004FF4E371069A07F0B8
:102BD000D7FA40F69851C2F2010140F2C7120290B2
:102BE00008461146069A07F0CBFA01901BF066FEE4
:102BF00008B080BD0000000080B5ADF5B06D09F0F3
:102C0000B7FB40F69041C2F201010968401A6428FE
:102C10000AD3FFE709F0ACFB40F69041C2F2010194
:102C200008601BF04BFEFFE747F28C40C2F2010048
:102C30000078C007002845D0FFE740F2FC60C2F2F0
:102C40000100007800283BD1FFE740F2FC60C2F2AF
:102C50000100012101700846CDF84C151CF05AFB0B
:102C60001BF019FA48F27000C0F603001CF01CFEBD
:102C70004AF2FF51CDF8480508461CF007FE022035
:102C80001CF072FE0E21CDF8440508461CF062FED1
:102C9000F0218722CDF84005084611461BF080FF41
:102CA0004AF27C61C0F60401CDF83C0508461BF0F1
:102CB00051FBDDF84C051CF09FFBFFF7B5FEFFE76D
:102CC00004F097BA40F2FC60C2F2010000780128DB
:102CD0000CD1FFE740F2FC60C2F20100002101705C
:102CE00047F20C50C2F2010001605BE040F2FC6070
:102CF000C2F201000078022853D1FFE740F2FC60E5
:102D0000C2F20100002101700120CDF838051CF04D
:102D100001FB1BF0C0F909201CF014FEFF21CDF8C7
:102D2000340508461CF0B2FDF02088213222CDF88F
:102D30003025DDF830351BF0E5FB4FF4C8704FF45B
:102D4000E1711422CDF82C05CDF828151146DDF8D7
:102D50002835CDF824251A46DDF824351BF0F8FC7B
:102D60002820DDF82C15CDF820050846DDF82015C3
:102D7000DDF82825DDF820351BF0EAFC3C20DDF8E5
:102D80002C15CDF81C050846DDF81C15DDF82825A6
:102D9000DDF81C351BF0DCFCDDF838051CF02CFBE5
:102DA000FFE7FFE7FFE747F20850C2F201000078B3
:102DB00001461428CDF8181503F2D287DDF818154E
:102DC000DFE811F0621F15005602A70367084F0ADB
:102DD0007B0B110E760EE70FEA126A1530166A1693
:102DE0006017BF1AB01BF41CC01D801EF21E40F6F7
:102DF0009440C2F2010000680028CDF814050CD000
:102E0000FFE7DDF81405012800F02381FFE7DDF876
:102E10001405022800F03981FCE147F28050C2F22B
:102E200001000121017000208DF86F05FFE79DF87A
:102E30006F0505283BDCFFE79DF86F05C0EBC00080
:102E400047F26C31C2F2010101EB80000FF000FD8E
:102E5000002825D0FFE79DF86F05C0EBC00047F2C2
:102E60006C31C2F2010101EB80000FF0D9FC0028A7
:102E700016D1FFE79DF86F05C0EBC00047F26C313B
:102E8000C2F2010101EB80000FF0BEFC002807D068
:102E9000FFE747F28050C2F201000021017006E016
:102EA000FFE79DF86F0501308DF86F05BFE747F22A
:102EB0008050C2F20100007801460028CDF81015BC
:102EC00005D0FFE7DDF8100501285BD05BE040F698
:102ED0009440C2F20100012101600846CDF80C15B2
:102EE0001CF018FA1BF0D7F809201CF02BFD4FF44A
:102EF0007F41CDF8080508461CF0C8FCF020882169
:102F00003222CDF80425DDF804351BF0FBFA4FF42E
:102F1000C8704FF4E1711422CDF80005CDF8FC140F
:102F20001146DDF8FC34CDF8F8241A46DDF8F83403
:102F30001BF00EFC2820DDF80015CDF8F40408463F
:102F4000DDF8F414DDF8FC24DDF8F4341BF000FCAB
:102F50003C20DDF80015CDF8F0040846DDF8F0144B
:102F6000DDF8FC24DDF8F0341BF0F2FBDDF80C0595
:102F70001CF042FA09F0FCF940F69C41C2F2010152
:102F800008605AE0FFE740F69440C2F201000421D5
:102F900001600120CDF8EC041CF0BCF91BF07BF8BB
:102FA00009201CF0CFFCFF21CDF8E80408461CF0F6
:102FB0006DFCF02088213222CDF8E424DDF8E434E1
:102FC0001BF0A0FA4FF4C8704FF4E1711422CDF851
:102FD000E004CDF8DC141146DDF8DC34CDF8D8245B
:102FE0001A46DDF8D8341BF0B3FB2820DDF8E014D6
:102FF000CDF8D4040846DDF8D414DDF8DC24DDF87F
:10300000D4341BF0A5FB3C20DDF8E014CDF8D0044F
:103010000846DDF8D014DDF8DC24DDF8D0341BF0F0
:1030200097FBDDF8EC041CF0E7F909F0A1F940F694
:103030009C41C2F201010860FFE740F69440C2F2F1
:1030400001000021016047F20850C2F20100017046
:10305000E0E009F08DF940F69C41C2F201010968F7
:10306000401AB0F5FA7F0FD3FFE740F69440C2F262
:10307000010001680131016009F07AF940F6B441BC
:10308000C2F201010860FFE7C4E009F071F940F6FF
:10309000B441C2F201010968401A0F28C0F0B9809A
:1030A000FFE709F065F940F6B441C2F2010108609A
:1030B00040F6AC40C2F2010000680028CDF8CC0414
:1030C00005D0FFE7DDF8CC04012850D050E040F6F1
:1030D0001C50C2F20100807DFE2808DCFFE740F6AC
:1030E0001C50C2F20100817D01318175FFE740F67D
:1030F0001C50C2F20100807EFE2808DCFFE740F68B
:103100001C50C2F20100817E01318176FFE740F65A
:103110001C50C2F20100807FFE2808DCFFE740F669
:103120001C50C2F20100817F01318177FFE740F638
:103130001C50C2F20100807DFF2817D1FFE740F646
:103140001C50C2F20100807EFF280FD1FFE740F63D
:103150001C50C2F20100807FFF2807D1FFE740F634
:10316000AC40C2F2010001210160FFE750E0FFE73F
:1031700040F61C50C2F20100807D002808D0FFE715
:1031800040F61C50C2F20100817D01398175FFE7D4
:1031900040F61C50C2F20100807E002808D0FFE7F4
:1031A00040F61C50C2F20100817E01398176FFE7B2
:1031B00040F61C50C2F20100807F002808D0FFE7D3
:1031C00040F61C50C2F20100817F01398177FFE790
:1031D00040F61C50C2F20100807D002817D1FFE7A5
:1031E00040F61C50C2F20100807E00280FD1FFE79C
:1031F00040F61C50C2F20100807F002807D1FFE793
:1032000040F6AC40C2F2010000210160FFE7FFE799
:10321000FFE7FFE709F0ACF847F20C51C2F20101F9
:10322000086047F21B40C2F201000021017047F222
:103230001740C2F20100017047F21A40C2F20100C9
:10324000017047F21940C2F20100017047F21840C4
:10325000C2F20100017040F2DE70C2F201003C22B5
:10326000027047F2B440C2F20100016003F098BD61
:1032700047F21840C2F201000078002840F0478170
:10328000FFE747F21840C2F20100017801310170F6
:103290000120CDF8C8041CF03DF80020CDF8C4048E
:1032A0001CF0DAFACDF8C0041AF0F5FEDDF8C80417
:1032B0001CF0D2FA4FF07F41CDF8BC0408461CF058
:1032C000E3FA1AF0E8FE09201CF03CFBFF21CDF8E0
:1032D000B80408461CF0DAFA4FF4C8704FF4E171F4
:1032E0001422CDF8B404CDF8B0141146DDF8B03492
:1032F000CDF8AC241A46DDF8AC341BF029FA2820AE
:10330000DDF8B414CDF8A8040846DDF8A814DDF8FB
:10331000B024DDF8A8341BF01BFA3C20DDF8B4140F
:10332000CDF8A4040846DDF8A414DDF8B024DDF8D7
:10333000A4341BF00DFA0A204FF4BE714FF48373CE
:10334000CDF8A0040846DDF8A024CDF89C14114661
:10335000DDF89C241BF0FCF91E204FF4AF7288218D
:10336000CDF89814DDF898341BF0F2F9BE20FC2358
:10337000CDF89404DDF8AC14DDF894241BF0E8F9E2
:1033800049F63070C0F6040040F281119F221BF014
:1033900093F849F69060C0F604003721CDF89014F8
:1033A000DDF8A0241BF088F849F6E060C0F60400C0
:1033B000F5210F221BF080F849F6F460C0F60400F6
:1033C0009622DDF890141BF077F849F65870C0F695
:1033D0000400F021A0221BF06FF848F27000C0F644
:1033E00003001CF061FA4AF2FF51CDF88C04084644
:1033F0001CF04CFA0220CDF888041CF0B5FA0E211E
:10340000CDF884040846CDF880141CF0A3FA5F219F
:103410006E22CDF87C040846CDF878141146CDF81C
:1034200074241BF0BDFBDDF8AC14CDF87004084625
:1034300017F022FD47F2F510C2F20100CDF86C043E
:103440001AF088FFDDF880041CF084FA40F21D11A8
:10345000CDF868040846DDF87424CDF864141146EC
:103460001BF09EFBDDF88814CDF86004084617F0C9
:1034700003FDDDF86C041AF06DFFDDF880041CF02C
:1034800069FAFA21DDF87824CDF85C041046CDF80D
:1034900058141BF085FB1521CDF85404084617F08D
:1034A000EBFCDDF86C041AF055FFDDF880041CF02D
:1034B00051FADDF86414CDF850040846DDF85814CC
:1034C0001BF06EFB3321CDF84C04084617F0D4FCFA
:1034D000DDF86C041AF03EFFDDF8C8041BF08CFF29
:1034E00047F21B40C2F20100DDF8C414017047F23C
:1034F0001740C2F20100017047F21A40C2F2010007
:10350000017047F21940C2F201000170FFE703F0B9
:1035100047BC47F21740C2F2010000780146032879
:10352000CDF8481400F2B384DDF84814DFE811F058
:1035300004008901CE01B90247F21740C2F201002E
:1035400001780131017001201BF0E4FE1AF0A3FDA7
:1035500005201CF0F7F9FF21CDF8440408461CF0C3
:1035600095F9DC2078214FF48872CDF840040846A4
:10357000DDF84034CDF83C141946DDF83CC4CDF8F4
:1035800038246246DDF838341BF0E2F8F020CDF83C
:103590003404DDF84014DDF83424DDF838341BF051
:1035A000D7F84FF4B470CDF83004DDF84014DDF8EE
:1035B0003024DDF838341BF0CBF849F6CC60C0F687
:1035C00004004121D722CDF82C241AF075FF49F6CA
:1035D000B860C0F60400B921CDF82804DDF82C2429
:1035E0001AF06AFF40F23111DDF82804DDF82C24CE
:1035F0001AF062FF49F67C60C0F604004FF4C8710F
:10360000BE221AF059FF40F61C50C2F20100807D24
:1036100000280CD0FFE749F6A460C0F604003C2166
:10362000CDF82414DDF824241AF046FF0BE049F607
:103630009060C0F604003C21CDF82014DDF8202471
:103640001AF03AFFFFE740F61C50C2F20100807EFC
:10365000002809D0FFE749F6A460C0F60400C8219D
:103660003C221AF029FF08E049F69060C0F60400F9
:10367000C8213C221AF020FFFFE740F61C50C2F29E
:103680000100807F00280AD0FFE749F6A460C0F659
:1036900004004FF4AA713C221AF00EFF09E049F62B
:1036A0009060C0F604004FF4AA713C221AF004FFA7
:1036B000FFE748F27000C0F603001CF0F5F84AF28C
:1036C000FF51CDF81C0408461CF0E0F802201CF065
:1036D0004BF90C21CDF8180408461CF03BF90521E4
:1036E000FA22CDF8140408461146CDF810241BF038
:1036F00057FA4AF27061C0F60401CDF80C0408468E
:103700001AF028FE8720DDF810141BF049FA4AF25F
:10371000B631C0F60401CDF8080408461AF01AFEC6
:10372000FF20DDF810141BF03BFA4AF2A961C0F645
:103730000401CDF8040408461AF00CFE0F201CF01A
:1037400009F964212822CDF80004084611461BF02F
:1037500027FA40F61C51C2F20101897D002913D0DD
:10376000FFE740F61C50C2F20100807D642148430F
:1037700048F28101C8F28001A0FB0101C909FF9054
:1037800008461AF0BBFDFFE7F02028211BF008FADD
:1037900040F61C51C2F20101897E002913D0FFE7D7
:1037A00040F61C50C2F20100807E6421484348F27A
:1037B0008101C8F28001A0FB0101C909FE90084601
:1037C0001AF09CFDFFE74FF4BE7028211BF0E8F9CA
:1037D00040F61C51C2F20101897F002913D0FFE796
:1037E00040F61C50C2F20100807F6421484348F239
:1037F0008101C8F28001A0FB0101C909FD900846C2
:103800001AF07CFDFFE701201BF0F6FD47F21B409C
:10381000C2F201000021017047F21A40C2F2010019
:10382000017047F21940C2F20100017047F21840DE
:10383000C2F20100017040F68440C2F20100017042
:1038400025E346F60E40C2F201000078002810D1B0
:10385000FFE746F60F40C2F201000078002808D1C9
:10386000FFE746F61040C2F20100007800282CD095
:10387000FFE746F60E40C2F20100007840F68441B0
:10388000C2F20101087046F60F40C2F20100007852
:1038900040F68541C2F20101087046F61040C2F2BE
:1038A0000100007840F68641C2F20101087047F23B
:1038B0001740C2F201000221017008F059FD40F6E4
:1038C0008841C2F201010860FFE7E0E208F050FD24
:1038D00040F68841C2F201010968401AB0F57A7FCA
:1038E0001FD3FFE708F044FD40F6B441C2F20101E6
:1038F000086047F21740C2F20100017801310170FF
:1039000040F68440C2F201000021017040F685407B
:10391000C2F20100017040F68640C2F2010001705F
:10392000BEE046F60E40C2F201000078002840F0EA
:10393000B680FFE746F60F40C2F20100007800288B
:1039400040F0AD80FFE746F61040C2F2010000787B
:10395000002840F0A480FFE740F68440C2F2010056
:10396000007800280FD0FFE740F61C50C2F201009B
:10397000807D002807D0FFE740F61C50C2F201000E
:103980000021817517E040F68440C2F20100007802
:1039900000280FD0FFE740F61C50C2F20100807DE6
:1039A000002807D1FFE740F61C50C2F20100FF21BA
:1039B0008175FFE7FFE740F68540C2F2010000781D
:1039C00000280FD0FFE740F61C50C2F20100807EB5
:1039D000002807D0FFE740F61C50C2F2010000218A
:1039E000817617E040F68540C2F201000078002899
:1039F0000FD0FFE740F61C50C2F20100807E002885
:103A000007D1FFE740F61C50C2F20100FF2181768A
:103A1000FFE7FFE740F68640C2F201000078002889
:103A20000FD0FFE740F61C50C2F20100807F002853
:103A300007D0FFE740F61C50C2F201000021817759
:103A400017E040F68640C2F20100007800280FD04F
:103A5000FFE740F61C50C2F20100807F002807D12A
:103A6000FFE740F61C50C2F20100FF218177FFE71B
:103A7000FFE747F21740C2F201000021017040F653
:103A80008440C2F20100017040F68540C2F201009C
:103A9000017040F68640C2F201000170FFE7FFE7C7
:103AA000F5E146F60E40C2F201000078002817D179
:103AB000FFE746F60F40C2F20100007800280FD160
:103AC000FFE746F61040C2F201000078002807D157
:103AD000FFE747F21740C2F2010000210170D5E173
:103AE00008F046FC40F6B441C2F201010968401AF0
:103AF0000F28C0F0CA81FFE708F03AFC40F6B44155
:103B0000C2F20101086046F60E40C2F201000078E0
:103B1000002800F08D80FFE701201BF0FBFB40F642
:103B20008C40C2F2010000680028FC9004D0FFE73E
:103B3000FC9801282AD02AE040F61C50C2F201006D
:103B4000807D00280AD1FFE749F6A460C0F6040092
:103B50003C21FB91FB9A1AF0AFFCFFE740F61C50AA
:103B6000C2F20100807DFE2808DCFFE740F61C5011
:103B7000C2F20100817D0131817506E040F68C4082
:103B8000C2F2010001210160FFE72AE0FFE740F6F1
:103B90001C50C2F20100807D002808D0FFE740F6EB
:103BA0001C50C2F20100817D0139817518E040F698
:103BB0008C40C2F20100002101603C20A021FA905B
:103BC000FA9AF9911146F99AF99B1AF073FA49F6A3
:103BD0009060C0F60400FA99FA9A1AF06DFCFFE7BB
:103BE000FFE764201E21C8223223F8901AF062FAFF
:103BF0002821F8981AF0D4FF0F21F79008461BF0FF
:103C0000A9FE40F61C51C2F20101897DF89A514388
:103C100048F28103C8F28003A1FB0313DB09F6908D
:103C20001846F5911AF06AFB01201BF0E5FB2BE129
:103C300046F60F40C2F201000078002800F08B80A9
:103C4000FFE701201BF066FB40F68C40C2F201004A
:103C500000680028F49004D0FFE7F498012829D0E8
:103C600029E040F61C50C2F20100807E002809D1F4
:103C7000FFE749F6A460C0F60400C8213C221AF010
:103C80001BFCFFE740F61C50C2F20100807EFE28BC
:103C900008DCFFE740F61C50C2F20100817E0131D2
:103CA000817606E040F68C40C2F2010001210160FD
:103CB000FFE729E0FFE740F61C50C2F20100807EDA
:103CC000002808D0FFE740F61C50C2F20100817EB8
:103CD0000139817617E040F68C40C2F201000021E4
:103CE0000160C8203C214FF49672A023F390F2911A
:103CF0001AF0E0F949F69060C0F60400F399F29AE0
:103D00001AF0DAFBFFE7FFE7DC201E214FF4A07278
:103D100032231AF0CFF9F02028211AF041FF0F21A9
:103D2000F19008461BF016FE40F61C51C2F201014C
:103D3000897E6422514348F28102C8F28002A1FBCD
:103D40000212D209F0901046EF911AF0D7FA012032
:103D50001BF052FB97E046F61040C2F201000078DB
:103D6000002800F08F80FFE701201BF0D3FA40F617
:103D70008C40C2F2010000680028EE9004D0FFE7FA
:103D8000EE9801282AD02AE040F61C50C2F2010029
:103D9000807F00280AD1FFE749F6A460C0F604003E
:103DA0004FF4AA713C221AF087FBFFE740F61C5043
:103DB000C2F20100807FFE2808DCFFE740F61C50BD
:103DC000C2F20100817F0131817706E040F68C402C
:103DD000C2F2010001210160FFE72AE0FFE740F69F
:103DE0001C50C2F20100807F002808D0FFE740F697
:103DF0001C50C2F20100817F0139817718E040F642
:103E00008C40C2F20100002101604FF4AA703C21F5
:103E10004FF4DC72A023ED90EC911AF04BF949F6C7
:103E20009060C0F60400ED99EC9A1AF045FBFFE7AC
:103E3000FFE74FF4AA701E214FF4DC7232231AF010
:103E400039F94FF4BE7028211AF0AAFE0F21EB9029
:103E500008461BF07FFD40F61C51C2F20101897F2C
:103E60006422514348F28102C8F28002A1FB02128F
:103E7000D209EA901046E9911AF040FA01201BF0AD
:103E8000BBFAFFE7FFE7FFE7FFE7FFE7FFE702F027
:103E900087BF47F21A40C2F201000078002840F0C4
:103EA000FD80FFE747F21A40C2F2010001780131BC
:103EB000017001201BF02EFA1AF0EDF80520E890B1
:103EC0001BF040FDFF21E7900846E6911BF0DEFC69
:103ED000DC2078214FF48872E5900846E59BE49158
:103EE0001946DDF890C3E3926246E39B1AF030FC7A
:103EF000F020E290E599E29AE39B1AF029FC4FF456
:103F0000B470E190E599E19AE39B1AF021FC49F63F
:103F1000B860C0F604004121D722E090DF921AF089
:103F2000CBFA49F6CC60C0F60400B921DF9A1AF04A
:103F3000C3FA40F23111E098DF9A1AF0BDFA49F65F
:103F40007C60C0F604004FF4C871BE221AF0B4FAC7
:103F500048F27000C0F603001BF0A6FC4AF2FF51C5
:103F6000DE9008461BF092FC02201BF0FDFC0C21A9
:103F7000DD9008461BF0EEFCFA21E89ADC90104632
:103F8000DB911AF00DFE4AF27061C0F60401DA907E
:103F900008461AF0DFF98720DB991AF001FE4AF291
:103FA000B631C0F60401D99008461AF0D3F9E69864
:103FB000DB991AF0F5FD4AF2A961C0F60401D89028
:103FC00008461AF0C7F940F61C50C2F20100807989
:103FD00000280AD0FFE749F6A460C0F604003C219F
:103FE000D791D79A1AF068FA09E049F69060C0F6BE
:103FF00004003C21D691D69A1AF05EFAFFE740F60B
:104000001C50C2F20100807A002809D0FFE749F66F
:10401000A460C0F60400C8213C221AF04DFA08E062
:1040200049F69060C0F60400C8213C221AF044FA18
:10403000FFE740F61C50C2F20100807B00280AD046
:10404000FFE749F6A460C0F604004FF4AA713C22D1
:104050001AF032FA09E049F69060C0F604004FF415
:10406000AA713C221AF028FAFFE701201BF0C4F9DC
:1040700047F21B40C2F201000021017047F21740D5
:10408000C2F20100017047F21940C2F20100017052
:1040900047F21840C2F201000170E0E047F21A4016
:1040A000C2F201000078012840F0AF80FFE746F639
:1040B0000E40C2F20100007800280FD0FFE740F662
:1040C0001C50C2F201008079002807D0FFE740F6BB
:1040D0001C50C2F201000021817117E046F60E402B
:1040E000C2F20100007800280FD0FFE740F61C5014
:1040F000C2F201008079002807D1FFE740F61C508A
:10410000C2F2010001218171FFE7FFE746F60F408F
:10411000C2F20100007800280FD0FFE740F61C50E3
:10412000C2F20100807A002807D0FFE740F61C5059
:10413000C2F201000021817217E046F60F40C2F280
:104140000100007800280FD0FFE740F61C50C2F2B3
:104150000100807A002807D1FFE740F61C50C2F228
:10416000010001218172FFE7FFE746F61040C2F22D
:104170000100007800280FD0FFE740F61C50C2F283
:104180000100807B002807D0FFE740F61C50C2F2F8
:1041900001000021817317E046F61040C2F20100D1
:1041A000007800280FD0FFE740F61C50C2F2010053
:1041B000807B002807D1FFE740F61C50C2F20100C7
:1041C00001218173FFE7FFE746F60E40C2F20100CE
:1041D0000078002810D1FFE746F60F40C2F2010038
:1041E0000078002808D1FFE746F61040C2F201002F
:1041F0000078002808D0FFE747F21A40C2F2010019
:10420000017801310170FFE728E047F21A40C2F25D
:1042100001000078022820D1FFE746F60E40C2F2E6
:1042200001000078002817D1FFE746F60F40C2F2E0
:104230000100007800280FD1FFE746F61040C2F2D7
:1042400001000078002807D1FFE747F21A40C2F2C8
:10425000010000210170FFE7FFE7FFE7FFE702F041
:104260009FBD47F21940C2F201000078002840F0DB
:10427000C480FFE747F21940C2F201000178013122
:10428000017001201BF046F819F005FF05201BF016
:1042900059FBFF21D59008461BF0F8FADC20782165
:1042A0004FF48872D4900846D49BD3911946DDF818
:1042B0004CC3D2926246D29B1AF04AFAF020D190B7
:1042C000D499D19AD29B1AF043FA4FF4B470D0909B
:1042D000D499D09AD29B1AF03BFA40F61C50C2F205
:1042E0000100807C002809D0FFE749F6A460C0F6F1
:1042F0000400C8213C221AF0DFF808E049F690607B
:10430000C0F60400C8213C221AF0D6F8FFE749F6AF
:10431000B860C0F604004121D722CF90CE921AF0A7
:10432000CBF8B921CF98CE9A1AF0C6F849F6CC60EE
:10433000C0F6040040F23111CE9A1AF0BDF849F6E9
:104340007C60C0F604004FF4C871BE221AF0B4F8C5
:1043500048F27000C0F603001BF0A6FA4AF2FF51C3
:10436000CD9008461BF092FA02201BF0FDFA0C21BA
:10437000CC9008461BF0EEFA0521FA22CB900846B5
:104380001146CA921AF00CFC4AF27061C0F60401A0
:10439000C990084619F0DEFF8720CA991AF000FC80
:1043A0004AF2B631C0F60401C890084619F0D2FFAF
:1043B000FF20CA991AF0F4FB4AF2A961C0F6040181
:1043C000C790084619F0C6FF01201BF015F847F208
:1043D0001B40C2F201000021017047F21740C2F2F7
:1043E0000100017047F21A40C2F20100017047F269
:1043F0001840C2F2010001705DE047F21940C2F2BC
:104400000100007801283CD1FFE746F60F40C2F2D8
:1044100001000078002833D0FFE740F61C50C2F2BC
:104420000100807C00280ED1FFE740F61C50C2F24C
:1044300001000121817407F09BFF40F6A041C2F208
:104440000101086014E040F61C50C2F20100807CBB
:1044500000280CD0FFE740F61C50C2F201000021FA
:10446000817440F6A040C2F201000160FFE7FFE75F
:1044700047F21940C2F20100017801310170FFE7F3
:1044800018E047F21940C2F201000078022810D16A
:10449000FFE746F60F40C2F201000078002807D17E
:1044A000FFE747F21940C2F2010000210170FFE767
:1044B000FFE7FFE7FFE702F073BC01201AF02AFFD5
:1044C00047F21B40C2F201000078002865D1FFE7E7
:1044D00047F21B40C2F20100017801310170002057
:1044E000C6901AF017FFC6981BF0B6F9C699C5908A
:1044F00008461BF0CBF919F0CEFD4EF25070C9F210
:104500000300C699C69A19F09FFC4FF4AF71502270
:104510004FF4F0734FF0B40CC490084611461A469D
:104520006346CDF80CC319F0C5FD4FF49B704FF4F2
:10453000D272CD23C39919F0BDFDC6981AF05CFF65
:1045400001201BF089F94FF07F41C29008461BF013
:104550009BF919F0A0FDFEF7C7FAFDF7B1FD46F68D
:10456000F040C2F20100016841F48011016047F29D
:104570001740C2F20100C699017047F21A40C2F218
:104580000100017047F21940C2F20100017047F2C8
:104590001840C2F201000170E0E147F21B40C2F294
:1045A00001000078012840F0D881FFE746F6054079
:1045B000C2F201000078002829D0FFE746F6FD305E
:1045C000C2F201000078002821D1FFE746F6FD3055
:1045D000C2F201000121017047F6AC40C2F20100B5
:1045E000817A007B814208DAFFE747F6AC40C2F2ED
:1045F0000100817A01318172FFE747F6AC40C2F2D7
:104600000100702112F040F8FEF76EFA17E046F64E
:104610000540C2F20100007800280FD1FFE746F6FE
:10462000FD30C2F201000078002807D0FFE746F60F
:10463000FD30C2F2010000210170FFE7FFE746F6FE
:104640000440C2F201000078002829D0FFE746F6B6
:10465000FC30C2F201000078002821D1FFE746F6C5
:10466000FC30C2F201000121017047F6AC40C2F2F9
:104670000100817A407B814208DDFFE747F6AC40CC
:10468000C2F20100817A01398172FFE747F6AC403E
:10469000C2F20100702111F0F7FFFEF725FA17E0D2
:1046A00046F60440C2F20100007800280FD1FFE76F
:1046B00046F6FC30C2F201000078002807D0FFE780
:1046C00046F6FC30C2F2010000210170FFE7FFE76F
:1046D00046F6F040C2F201008078C006002840F1A2
:1046E0009A80FFE746F6F040C2F20100016821F42B
:1046F000801101604FF4CD70B9214FF4F072EB23BB
:10470000C19219F0D7FC4FF49B70E621FF23C19AA8
:1047100019F0D0FC47F6AC40C2F201000078002846
:1047200005D0FFE74FF47F401BF0B0F803E0FF2017
:104730001BF0ACF8FFE74BF65060C0F603001BF02F
:10474000B3F84FF4CD71AA22C090084611461AF072
:1047500027FA0C21BF9008461BF0FCF847F6AC4145
:10476000C2F201010978002907D0FFE74AF274502C
:10477000C0F6040019F0EEFD06E04AF2BD40C0F6B6
:10478000040019F0E7FDFFE74FF49B70F2211AF0E7
:1047900007FA45F64011C0F60301BE9008461BF02B
:1047A00083F80C21BD900846BC911BF0D3F86FF044
:1047B0007F41BB9008461BF069F840F29F10DC2156
:1047C0001AF0EEF946F6D841C0F60301BA90084651
:1047D0001BF06AF8BC99B99008461BF0BBF847F685
:1047E000AC41C2F20101B1F9021046F26762C6F2B1
:1047F000666251FB02F18A1002EBD1710322B8907C
:104800000846114619F08EFD4AF2E360C0F6040036
:1048100019F0A0FDFFE707F0ABFD47F2B441C2F28B
:1048200001010968401AB0F57A7FC0F09580FFE772
:1048300007F09EFD47F2B441C2F20101086040F664
:10484000A840C2F201000168013101600B2919D3AF
:10485000FFE740F6A840C2F201000021016046F6E1
:10486000F040C2F2010080788007002809D4FFE7F9
:1048700046F6F040C2F20100016841F48011016087
:10488000FFE7FFE746F6F040C2F20100407800067D
:10489000002860D5FFE747F2B400C2F2010047F2FA
:1048A0009C41C2F201010122B790B691B5920BF082
:1048B000E3FC47F29841C2F20101B79AB490104666
:1048C000B59A0BF099FC0DF5AF610222B390084642
:1048D000B69BB2911946B1920CF0BAFC3A208DF811
:1048E0007A05B2980330B6990131B19A0CF0B0FC58
:1048F00000208DF87D0549F6A061C0F60301B09057
:1049000008461AF0D1FF6FF07F41AF9008461AF0C9
:10491000BDFFB1981BF028F80C21AE9008461BF0A3
:1049200019F80521F522AD90084611461AF038F91C
:10493000B599AC9008461AF0EDFCDC2164224FF4E6
:104940008773B09819F0B6FBB29819F003FDB598CB
:104950001AF052FDFFE7FFE7FFE7FFE701201AF03B
:104960004BFD47F6A840C2F201000068002838D08D
:10497000FFE7FEF759F807F0FBFC47F6A841C2F243
:1049800001010968401AB0F5FA6F29D9FFE747F627
:10499000A840C2F201000021016047F21B40C2F2B0
:1049A0000100017047F6AC40C2F201000078002817
:1049B00007D0FFE747F6AC40C2F2010000210170CA
:1049C00006E047F6AC40C2F2010002210170FFE7A9
:1049D00047F6AC40C2F20100702111F055FEFFE72E
:1049E000FFE702F0DDB90020AB901AF035FFAA9086
:1049F00019F051FB0120A9901AF02EFF4FF07F41D2
:104A0000A89008461AF040FF19F045FB0520FEF774
:104A100047F847F20850C2F20100A999017040F628
:104A20009440C2F20100AB9A026040F6A440C2F288
:104A30000100016047F21B40C2F20100027047F220
:104A40001740C2F20100027047F21A40C2F20100A0
:104A5000027047F21940C2F20100027047F218409A
:104A6000C2F20100027047F21640C2F20100027069
:104A700040F69840C2F20100027040F6B040C2F227
:104A80000100027046F61340C2F20100027046F6C1
:104A90001140C2F20100027047F24420C2F201004C
:104AA000027040F2DF70C2F20100017002F078B9CA
:104AB00047F6AC40C2F20100C08A46F60461C2F279
:104AC00001010968A79008461EF0B6FCA79981422B
:104AD00013D0FFE746F60460C2F2010000681EF042
:104AE000ABFC47F6AC41C2F20101C88240F6B040CF
:104AF000C2F20100012101700AE147F6AC40C2F2A6
:104B00000100008B46F60861C2F201010968A69017
:104B100008461EF091FCA699814213D0FFE746F6A5
:104B20000860C2F2010000681EF086FC47F6AC4146
:104B3000C2F20101088340F6B040C2F20100012137
:104B40000170E4E047F6AC40C2F20100408B46F64B
:104B50000C61C2F201010968A59008461EF06CFCC8
:104B6000A599814213D0FFE746F60C60C2F201001E
:104B700000681EF061FC47F6AC41C2F201014883B7
:104B800040F6B040C2F2010001210170BEE047F6DC
:104B9000AC40C2F20100808B46F61461C2F2010102
:104BA0000968A49008461EF047FCA499814213D0DE
:104BB000FFE746F61460C2F2010000681EF03CFCFC
:104BC00047F6AC41C2F20101888340F6B040C2F220
:104BD00001000121017098E047F6AC40C2F20100EB
:104BE00090F9040046F6D451C2F201010968A3907D
:104BF00008461EF021FCA399814213D0FFE746F638
:104C0000D450C2F2010000681EF016FC47F6AC4119
:104C1000C2F20101087140F6B040C2F20100012168
:104C2000017071E047F6AC40C2F20100007C46F62C
:104C3000D051C2F201010968A29008461EF0FCFBA7
:104C4000A299814213D0FFE746F6D050C2F201008C
:104C500000681EF0F1FB47F6AC41C2F20101087496
:104C600040F6B040C2F20100012101704BE047F66E
:104C7000AC40C2F20100807F46F61061C2F2010131
:104C80000968A19008461EF0D7FBA199814213D074
:104C9000FFE746F61060C2F2010000681EF0CCFB90
:104CA00047F6AC41C2F20101887740F6B040C2F24B
:104CB00001000121017025E047F6AC40C2F201007D
:104CC000C07F46F61861C2F201010968A09008464B
:104CD0001EF0B2FBA099814213D0FFE746F61860A0
:104CE000C2F2010000681EF0A7FB47F6AC41C2F219
:104CF0000101C87740F6B040C2F201000121017005
:104D0000FFE7FFE7FFE7FFE7FFE7FFE7FFE7FFE773
:104D100046F62C50C2F20100006817F011F8002886
:104D20001FD0FFE740F6B040C2F201000078002833
:104D300008D0FFE747F6AC40C2F20100702111F045
:104D4000A3FCFFE740F6B040C2F201000021017071
:104D500004F04EFD47F20850C2F201000721017035
:104D600015E046F62850C2F20100006816F0E8FF90
:104D700000280BD0FFE704F03BFD02F04DFD47F2A9
:104D80000850C2F2010009210170FFE7FFE702F0BD
:104D900007B847F6A740C2F20100007846F6BC51BA
:104DA000C2F2010109689F9008461EF045FB9F99D9
:104DB000814214D0FFE746F6BC50C2F20100006801
:104DC0001EF03AFB47F6A741C2F20101087020200D
:104DD00001229E9008469E9905F01AFAFFE740F6D8
:104DE0001C50C2F20100008D46F62051C2F20101B2
:104DF00009689D9008461EF01FFB9D99814221D0B5
:104E0000FFE746F62050C2F2010000681EF014FBD6
:104E100040F61C51C2F2010108850878002809D12A
:104E2000FFE746F60C50C2F20100006800211EF0B8
:104E30003EFBFFE740F69840C2F2010001780131E5
:104E40000170FFE740F61C50C2F20100007946F6FF
:104E50001451C2F2010109689C9008461EF0ECFA58
:104E60009C99814221D0FFE746F61450C2F201001E
:104E700000681EF0E1FA40F61C51C2F2010108710F
:104E80000879002809D1FFE746F60050C2F2010078
:104E9000006800211EF00BFBFFE740F69840C2F2CD
:104EA0000100017801310170FFE740F61C50C2F2A9
:104EB0000100007A46F61851C2F2010109689B9080
:104EC00008461EF0B9FA9B99814221D0FFE746F6C9
:104ED0001850C2F2010000681EF0AEFA40F61C51F4
:104EE000C2F201010872087A002809D1FFE746F6EC
:104EF0000450C2F20100006800211EF0D8FAFFE75A
:104F000040F69840C2F20100017801310170FFE7DC
:104F100040F61C50C2F20100007B46F61C51C2F262
:104F2000010109689A9008461EF086FA9A99814212
:104F300021D0FFE746F61C50C2F2010000681EF0C7
:104F40007BFA40F61C51C2F201010873087B00286D
:104F500009D1FFE746F60850C2F2010000680021BF
:104F60001EF0A5FAFFE740F69840C2F20100017872
:104F700001310170FFE740F61C50C2F20100007CD5
:104F800046F62451C2F201010968999008461EF0C4
:104F900053FA9999814221D0FFE746F62450C2F294
:104FA000010000681EF048FA40F61C51C2F20101EF
:104FB0000874087C002809D1FFE746F61050C2F2B9
:104FC0000100006800211EF072FAFFE740F69840E9
:104FD000C2F20100017801310170FFE740F61C5078
:104FE000C2F20100007D46F6C051C2F2010109681B
:104FF000989008461EF020FA9899814214D0FFE755
:1050000046F6C050C2F2010000681EF015FA40F6E4
:105010001C51C2F20101087540F69840C2F201002D
:10502000017801310170FFE740F61C50C2F2010027
:10503000007E46F6C451C2F2010109689790084605
:105040001EF0FAF99799814214D0FFE746F6C45052
:10505000C2F2010000681EF0EFF940F61C51C2F2E6
:105060000101087640F69840C2F201000178013152
:105070000170FFE740F61C50C2F20100007F46F6C7
:10508000C851C2F201010968969008461EF0D4F991
:105090009699814214D0FFE746F6C850C2F201004B
:1050A00000681EF0C9F940F61C51C2F201010877F0
:1050B00040F69840C2F20100017801310170FFE72B
:1050C00040F65850C2F20100007846F60C51C2F288
:1050D00001010968959008461EF0AEF99599814244
:1050E00014D0FFE746F60C50C2F2010000681EF033
:1050F000A3F940F65851C2F20101087040F69840F9
:10510000C2F20100017801310170FFE740F658500A
:10511000C2F20100007946F60051C2F201010968AD
:10512000949008461EF088F99499814214D0FFE7C4
:1051300046F60050C2F2010000681EF07DF940F60C
:105140005851C2F20101087140F69840C2F20100C4
:10515000017801310170FFE740F65850C2F20100BA
:10516000007A46F60451C2F201010968939008469C
:105170001EF062F99399814214D0FFE746F604507D
:10518000C2F2010000681EF057F940F65851C2F211
:105190000101087240F69840C2F201000178013125
:1051A0000170FFE740F65850C2F20100007B46F65E
:1051B0000851C2F201010968929008461EF03CF9BC
:1051C0009299814214D0FFE746F60850C2F20100DE
:1051D00000681EF031F940F65851C2F2010108731F
:1051E00040F69840C2F20100017801310170FFE7FA
:1051F00040F65850C2F20100007C46F61051C2F24F
:1052000001010968919008461EF016F991998142B2
:1052100014D0FFE746F61050C2F2010000681EF0FD
:105220000BF940F65851C2F20101087440F698405B
:10523000C2F20100017801310170FFE746F62C50FF
:10524000C2F20100006816F07BFD002800F08C809F
:10525000FFE740F6B040C2F20100007800280ED00F
:10526000FFE740F6B040C2F201000021017047F6AE
:10527000AC40C2F20100702111F006FAFFE740F6DF
:105280009840C2F201000078002815D0FFE740F6F0
:105290009840C2F201000021017040F61C50C2F299
:1052A0000100302111F008F940F65850C2F2010017
:1052B000502111F001F9FFE747F21540C2F2010059
:1052C00000788DF8700546F6BC70C2F201000078D7
:1052D0008DF8710547F21050C2F2010000788DF888
:1052E000720547F20B50C2F2010000788DF8730589
:1052F00047F20A50C2F2010000788DF8740547F2B7
:105300000950C2F2010000788DF8750546F6F040AC
:10531000C2F2010080784007002804D5FFE7012091
:105320008DF8760503E000208DF87605FFE70DF592
:10533000AE600A210722909204F06AFF47F6A74167
:10534000C2F20101202201238F90084611461A461D
:1053500004F05EFF8E9004F093FA47F20850C2F218
:1053600001009099017015E046F62850C2F2010044
:10537000006816F0E5FC00280BD0FFE704F080FA87
:1053800002F00AFE47F20850C2F201000A21017041
:10539000FFE7FFE701F004BD47F29C40C2F20100C5
:1053A000007846F6E451C2F2010109688D90084682
:1053B0001EF042F8C0B204F0B7FC8D9981421FD0B4
:1053C000FFE746F6E450C2F2010000681EF034F830
:1053D000C0B204F0A9FC47F29C41C2F2010108707E
:1053E00047F2B400C2F2010001220BF0E9F846F6E0
:1053F000F041C2F201010A6842F400420A60FFE78C
:1054000047F29C40C2F20100407846F6E851C2F2F1
:10541000010109688C9008461EF00EF8C0B204F035
:1054200083FC8C9981421FD0FFE746F6E850C2F218
:10543000010000681EF000F8C0B204F075FC47F2ED
:105440009C41C2F20101487047F2B400C2F201006F
:1054500001220BF0B5F846F6F041C2F201010A68EC
:1054600042F400420A60FFE747F29840C2F20100AE
:10547000807846F6D851C2F2010109688B9008463F
:105480001DF0DAFFC0B204F04FFC8B9981421FD0AF
:10549000FFE746F6D850C2F2010000681DF0CCFFCD
:1054A000C0B204F041FC47F29841C2F20101887099
:1054B00047F2B400C2F2010001220AF0B9FF46F639
:1054C000F041C2F201010A6842F400420A60FFE7BB
:1054D00047F29840C2F20100407846F6EC51C2F221
:1054E000010109688A9008461DF0A6FFC0B204F0C9
:1054F0001BFC8A9981421FD0FFE746F6EC50C2F2AE
:10550000010000681DF098FFC0B204F00DFC47F2E6
:105510009841C2F20101487047F2B400C2F20100A2
:1055200001220AF085FF46F6F041C2F201010A6845
:1055300042F400420A60FFE747F29840C2F20100DD
:10554000C07846F60061C2F20101096889900846F8
:105550001DF072FFA0F5FA60C0B204F0E5FB899976
:10556000814221D0FFE746F60060C2F201000068E8
:105570001DF062FFA0F5FA60C0B204F0D5FB47F25F
:105580009841C2F20101C87047F2B400C2F20100B2
:1055900001220AF04DFF46F6F041C2F201010A680D
:1055A00042F400420A60FFE747F29840C2F201006D
:1055B000007846F6CC51C2F201010968889008468D
:1055C00017F08DF80130C0B204F0AEFB889981422B
:1055D00020D0FFE746F6CC50C2F20100006817F079
:1055E0007EF80130C0B204F09FFB47F29841C2F24E
:1055F0000101087047F2B400C2F2010001220AF072
:1056000017FF46F6F041C2F201010A6842F4004277
:105610000A60FFE747F20950C2F20100007846F63F
:10562000F051C2F201010968879008461DF004FF9D
:10563000879981421ED0FFE746F6F050C2F2010082
:1056400000681DF0F9FE47F20951C2F2010108702D
:10565000087840F24071C2F2010151F820001AF0BE
:1056600015F94FF4AA7033214FF4D7723B2319F088
:1056700081F9FFE746F63C50C2F20100006816F0DF
:10568000D5FC012809D1FFE746F6F040C2F201003F
:10569000016841F48021016008E046F6F040C2F262
:1056A0000100016821F480210160FFE746F6DC502B
:1056B000C2F2010000681DF0BFFE46F6BC71C2F2E6
:1056C0000101087046F6E050C2F2010000681DF0CA
:1056D000B3FE47F21541C2F20101087046F6FC50D4
:1056E000C2F2010000681DF0A7FE47F21051C2F29D
:1056F0000101087046F6F850C2F2010000681DF082
:105700009BFE47F20B51C2F20101087046F6F450BD
:10571000C2F2010000681DF08FFE47F20A51C2F28A
:105720000101087046F6F050C2F2010000681DF059
:1057300083FE47F20951C2F20101087046F62C506F
:10574000C2F20100006816F0FBFA002800F08C801D
:10575000FFE740F6B040C2F20100007800280ED00A
:10576000FFE740F6B040C2F201000021017047F6A9
:10577000AC40C2F20100702110F086FFFFE740F656
:105780009840C2F201000078002815D0FFE740F6EB
:105790009840C2F201000021017040F61C50C2F294
:1057A0000100302110F088FE40F65850C2F201008E
:1057B000502110F081FEFFE747F21540C2F20100D0
:1057C00000788DF8700546F6BC70C2F201000078D2
:1057D0008DF8710547F21050C2F2010000788DF883
:1057E000720547F20B50C2F2010000788DF8730584
:1057F00047F20A50C2F2010000788DF8740547F2B2
:105800000950C2F2010000788DF8750546F6F040A7
:10581000C2F2010080784007002804D5FFE701208C
:105820008DF8760503E000208DF87605FFE70DF58D
:10583000AE600A210722869204F0EAFC47F6A741EF
:10584000C2F20101202201238590084611461A4622
:1058500004F0DEFC849004F087F847F20850C2F2AE
:1058600001008699017015E046F62850C2F2010049
:10587000006816F065FA00280BD0FFE704F074F812
:1058800002F092FF47F20850C2F201000D210170B0
:10589000FFE7FFE701F084BA47F21640C2F20100C9
:1058A0000078002810D1FFE747F21640C2F201004D
:1058B00001780131017018F0EEFB46F60C40C2F29F
:1058C00001003C210170ABE047F21640C2F201003A
:1058D0000078012840F0A380FFE706F049FD46F676
:1058E0000841C2F201010968401AB0F57A7FC0F0A0
:1058F0009580FFE706F03CFD46F60841C2F2010143
:105900000860FDF791F8012019F004FD0020322114
:105910004FF4F072C82318F0CDFB46F60C40C2F2EB
:1059200001000078062805DBFFE74FF47F4019F0FF
:10593000ADFF16E0FF2019F0A9FF40F60040C4F2C9
:1059400002001021012283908291819206F0ECFCEA
:10595000819806F095F900228398829906F0E4FC7C
:10596000FFE749F6A060C0F6030019F09DFF022191
:10597000809008467F9119F0F7FF0E217E9008462F
:105980007D9119F0E7FFF02150227C9008467B9131
:10599000114619F005F90D217A90084615F06CFAB8
:1059A00047F2F510C2F2010018F0D4FC4EF6C80020
:1059B000C0F6030019F078FF7F997990084619F036
:1059C000D3FF7D997890084619F0C4FF9C217B9AFB
:1059D0007790104619F0E4F846F60C41C2F2010146
:1059E0000A7876901046759118F088FC012019F01D
:1059F00003FD75980178002908D0FFE746F60C40B2
:105A0000C2F2010001780139017006E047F2085046
:105A1000C2F2010007210170FFE7FFE7FFE7FFE7A0
:105A200001F0BEB946F62C50C2F20100006816F033
:105A300087F9002818D0FFE747F27B50C2F2010037
:105A40000078002807D0FFE747F27B50C2F2010040
:105A500000210170FFE703F0F3FF47F20850C2F2A4
:105A600001000721017015E046F62850C2F201003E
:105A7000006816F065F900280BD0FFE703F0E0FF9F
:105A800002F092FE47F20850C2F201000D210170AF
:105A9000FFE7FFE701F084B946F62C50C2F201009F
:105AA000006816F04DF9002800F0B680FFE746F6D2
:105AB0001340C2F20100007880008DF86E05FFE708
:105AC0009DF86E0546F61341C2F2010109780F22D6
:105AD000A2EB8101042974900ADBFFE746F613402C
