:020000040800F2
:10000000107F0320DD010008C9470108691A0108B3
:10001000C14701080915000879B80108000000006F
:10002000000000000000000000000000EF010008D8
:10003000999E000800000000F3010008498A0108A9
:10004000F7010008F7010008F7010008F7010008B0
:10005000F7010008F7010008F7010008F7010008A0
:10006000F7010008F7010008F7010008F701000890
:10007000F7010008F7010008F7010008F701000880
:10008000F7010008F7010008F7010008F701000870
:10009000F7010008F7010008F7010008F701000860
:1000A000F7010008F7010008F7010008F701000850
:1000B000F7010008F7010008F7010008F701000840
:1000C000F7010008F7010008F7010008F701000830
:1000D000F701000859B8010869B80108F7010008DC
:1000E000F7010008F7010008F7010008F701000810
:1000F000F7010008F7010008F7010008F701000800
:10010000F7010008F7010008F7010008F7010008EF
:10011000F7010008F7010008F7010008F7010008DF
:10012000F7010008F7010008F7010008F7010008CF
:10013000F7010008F7010008F7010008F7010008BF
:10014000F7010008F7010008F7010008F7010008AF
:10015000F7010008F7010008F7010008F70100089F
:10016000F7010008F7010008F7010008F70100088F
:10017000F7010008F7010008F7010008000000007F
:10018000F7010008F7010008F7010008F70100086F
:10019000F7010008F7010008F7010008F70100085F
:1001A000A9280108F7010008D9760008F70100081E
:1001B000616D0108F7010008F7010008F701000868
:1001C000F7010008F7010008DFF80CD000F0B0FBE1
:1001D0000048004719DB0108107F032006488047CC
:1001E00006480047FEE7FEE7FEE7FEE7FEE7FEE71C
:1001F000FEE7FEE7FEE7FEE7D98B0108C90100082C
:1002000010B5441A0346944209D28318114403E0FE
:1002100011F8014D03F8014D521EF9D210BD40EA0C
:100220000104A40703D009E010C9121F10C3042A57
:10023000FAD203E011F8014B03F8014B521EF9D238
:1002400010BDD2B201E000F8012B491EFBD270476D
:100250000022F6E710B513460A4604461946FFF792
:10026000F0FF204610BD421C10F8011B0029FBD1F5
:10027000801A704730B504460020034600E05B1C3E
:10028000934203D2E05CCD5C401BF8D030BD034606
:1002900011F8012B00F8012B002AF9D118467047FC
:1002A0002DE9FE4F804681EA0300C00F0C46009006
:1002B00021F0004123F00045B8EB0200A94105D22E
:1002C0004046214690461C460B46024623F000401D
:1002D000104347D0270DC7F30A00C3F30A51029019
:1002E000401A019040286BDAC3F3130040F4801BDE
:1002F0000098924620B10023D2EB030A63EB0B0B6C
:1003000001985946C0F14002504600F004FA0646F2
:100310000D4650465946019A00F01CFA10EB0800B1
:100320006141002487EA115284EAE7731A4340D0FE
:10033000009A62B3019A012A4FEA075215DC001BAA
:1003400061EB02014FF0004202EA0752CDE90042A0
:10035000001C41F5801132462B4600F053FA03B0E1
:10036000BDE8F08F40462146F9E7001B61EB020132
:10037000001C41F5801300185B412018A2F50017FE
:1003800047EB030140EAD570B6196D4111E06D08E5
:100390004FEA360645EAC0754FEA0752001B61EB8B
:1003A0000201001C41F5801149084FEA3000001994
:1003B000514132462B4603B0BDE8F04F00F013BA6E
:1003C0000098012240000023D0EB020263EBE073AF
:1003D000009821464FEAE074B8EB000061EB04019D
:1003E000E9E783F000435BE781F0004158E72DE93E
:1003F000FE4F81EA030404F0004421F00041009420
:100400004FF0000B23F0004350EA01045ED052EAA3
:1004100003045BD0C3F30A54C1F30A552C44A4F27D
:10042000F3340194A0FB0254C1F3130141F4801191
:10043000C3F3130343F4801301FB024400FB034E98
:10044000840A970A44EA815447EA8357A4FB076861
:1004500002958D0A05FB07854FEA932C04FB0C548B
:100460002705029D4FEA065847EA1637B5EB0805FF
:100470006EEB070C870E920E47EA811742EA831251
:10048000A7FB0201B6EB0B0164EB00042B0D43EA62
:100490000C335E1844EB1C50DA465146E7FB020170
:1004A000C5F313044FEA0B3343EA14534FEA043203
:1004B000019C43EA0603A4F10C040294009CCDE9DC
:1004C00000B400F09FF903B0BDE8F08F00200146B2
:1004D000F9E72DE9F04D81EA030404F0004B21F027
:1004E000004514464FF0000A23F0004150EA05028F
:1004F00020D054EA01021DD0C5F30A570246C5F3C5
:100500001303C1F31300C1F30A5640F4801543F4FA
:100510008013A7EB0608101BD64608F2FD3873EBD4
:10052000050002D308F1010801E092185B41B8F11F
:10053000000F03DA00200146BDE8F08D00204FF4E3
:100540008011064684460EE0171B73EB050705D3A2
:10055000121B63EB050306434CEA010C49084FEA02
:10056000300092185B4150EA0107EDD152EA0300D6
:1005700012D082EA040083EA0501084305D0101B6B
:10058000AB4106D20122002306E000224FF00043D7
:1005900002E06FF0010253101AEB06004CEB085119
:1005A00010EB0A0041EB0B01BDE8F04D00F01BB968
:1005B0000EB5C10F80EAE0700844CA07002140F27E
:1005C00033438DE80E000A460B4600F01BF903B0DA
:1005D00000BD0EB540F2334102910021CDE900117A
:1005E0000A460B4600F00EF903B000BD70B5C1F32A
:1005F0000A5201F000450024C1F3130140F2FF3319
:1006000041F480119A4201DA002070BD40F2334378
:100610009A42A2F2334203DC524200F08BF800E02F
:1006200090402C43F1D0404270BD00F0004230F0C9
:1006300000400AD0C10D01F56071C0F3160042EA16
:100640000151C2084007114370470020014670471E
:1006500001F0004330B421F0004150EA010206D01D
:100660000A0DA2F56072C1F31301002A02DC30BC4E
:1006700000207047440F44EAC104C100E01830BCB8
:1006800000EBC25000F078B830B50B4601460020B0
:100690002022012409E021FA02F59D4205D303FA44
:1006A00002F5491B04FA02F52844151EA2F10102C5
:1006B000F1DC30BD2DE9F05F0546002092469B46F7
:1006C00088460646814640241BE028464146474668
:1006D000224600F02FF853465A46C01A914110D3D3
:1006E00011461846224600F016F82D1A67EB01084D
:1006F0004F4622460120002100F00DF817EB0009BB
:100700004E41201EA4F10104DFDC484631462A4652
:100710004346BDE8F09F202A04DB203A00FA02F1AC
:10072000002070479140C2F1200320FA03F31943DF
:1007300090407047202A04DB203A21FA02F0002181
:10074000704721FA02F3D040C2F1200291400843E1
:1007500019467047202A06DBCB17203A41FA02F0EF
:1007600043EAE07306E041FA02F3D040C2F120020E
:1007700091400843194670470029A8BF7047401CA4
:10078000490008BF20F00100704710B4B0FA80FCA7
:1007900000FA0CF050EA010404BF10BC704749B1E4
:1007A000CCF1200421FA04F411FA0CF118BF012154
:1007B00021430843A3EB0C01CB1D4FEA00614FEA34
:1007C000102042BF002010BC704700EBC350104403
:1007D0000029A4BF10BC7047401C490008BF20F08E
:1007E000010010BC704710B5141E73F1000408DA44
:1007F000401C41F1000192185B411A4301D120F0E5
:10080000010010BD2DE9F04D92469B4611B1B1FAA1
:1008100081F202E0B0FA80F220329046FFF77BFFCF
:1008200004460F4640EA0A0041EA0B0153465A4685
:10083000084313D0114653EA010019D0C8F1400211
:100840005046FFF777FF05460E465046594642464A
:10085000FFF761FF084305D0012004E02046394638
:10086000BDE8F08D0020054346EAE0762C4337438F
:100870000A986305E40AA0EB08000022FD0A44EA96
:1008800047540A3002D500200146E9E70105101956
:100890006941DDE9084500196941BDE8F04DA2E76D
:1008A000C1F30A52C1F3130140F2FF3341F4801146
:1008B0009A4202DA00200146704740F233439A42DE
:1008C000A2F2334202DC5242FFF734BFFFF723BFEC
:1008D00030B5041E71F1000404DB4FF000444042C7
:1008E00064EB0101141E73F1000405DB1C464FF09C
:1008F0000043524263EB04038B4208BF824230BD87
:1009000030B5041E71F1000404DB4FF00044404296
:1009100064EB0101141E73F1000405DB1C464FF06B
:100920000043524263EB0403994208BF904230BD3A
:10093000064C074D06E0E06840F0010394E807002C
:1009400098471034AC42F6D3FFF742FC0C3C050844
:100950003C3C050870B58C1810F8015B15F00703D6
:1009600001D110F8013B2A1106D110F8012B03E048
:1009700010F8016B01F8016B5B1EF9D12B0705D450
:100980000023521E0DD401F8013BFAE710F8013B99
:10099000CB1A921C03E013F8015B01F8015B521EB5
:1009A000F9D5A142D8D3002070BD0000000000009E
:1009B00080B58AB00BF0C4FF40F64841C2F2010195
:1009C0000968401A0C28C0F0BD81FFE70BF0B8FFA2
:1009D00040F64841C2F201010860012007900890EA
:1009E00040F64440C2F201000078002803D1FFE73E
:1009F0000B20069017E040F64440C2F20100007858
:100A0000012803D1FFE70C2006900BE040F644409C
:100A1000C2F201000078022803D1FFE70D20069002
:100A2000FFE7FFE7FFE746F62C70C2F2010006A9D8
:100A300002900AF0E9FC0299019008460AF03CFF96
:100A40000A21029A009010460AF0A6FE40F64441A0
:100A5000C2F201010978002940F03881FFE746F62B
:100A60002C70C2F201000AF02FFE40F64C41C2F297
:100A700001010A6840F65043C2F2010323F8120054
:100A80000868013008600A2807D3FFE740F64C40A9
:100A9000C2F2010000210160FFE7002004900390F2
:100AA000FFE7039809280FD8FFE7039840F6504165
:100AB000C2F2010131F81000049908440490FFE7E4
:100AC000039801300390ECE704984CF6CD41CCF646
:100AD000CC41A0FB0101C90804910499642905D304
:100AE000FFE70498B0F57A6F18D9FFE740F64C405D
:100AF000C2F201000068002809D1FFE747F2DD706B
:100B0000C2F20100017801F0FE010170FFE747F633
:100B1000DC60C2F2010000214180D6E040F64C408A
:100B2000C2F201000068002809D1FFE747F2DD703A
:100B3000C2F20100017841F001010170FFE7BDF848
:100B4000100016F0F9F940F64040C2F2010080EDC5
:100B5000000A90ED000AB2EE041A20EE010ABDEE82
:100B6000C00A10EE100AADF8160047F6DC60C2F2BB
:100B70000100B0F9020046F26761C6F2666150FBFF
:100B800001F0821002EBD070BDF9162052FB01F18A
:100B90008A1002EBD171884200F08180FFE70BF0F0
:100BA000CFFE47F2D871C2F201010968401A40F63F
:100BB000B83188425DD8FFE70BF0C2FE47F2D4712E
:100BC000C2F201010968401AFA2851D3FFE70BF07D
:100BD000B7FE47F2D471C2F20101086047F2185023
:100BE000C2F20100B0F9000046F26761C6F2666128
:100BF00050FB01F0821002EBD070BDF9162052FBC1
:100C000001F18A1002EBD17188420ED0FFE7BDF8E6
:100C1000160047F21851C2F20101088047F2DC7059
:100C2000C2F201000021017021E047F2DC70C2F243
:100C3000010001780131017000780A2816D1FFE720
:100C400047F2DC70C2F2010000210170BDF816000D
:100C500047F6DC61C2F20101488046F69850C2F2C4
:100C60000100016841F480110160FFE7FFE7FFE741
:100C700014E00BF065FE47F2D871C2F20101086082
:100C80000BF05EFE47F2D471C2F20101086047F238
:100C9000DC70C2F2010000210170FFE714E00BF0EC
:100CA0004FFE47F2D871C2F2010108600BF048FE16
:100CB00047F2D471C2F20101086047F2DC70C2F25F
:100CC000010000210170FFE7FFE728E040F6444003
:100CD000C2F201000078012808D1FFE746F62C7027
:100CE000C2F201000AF0F0FC049017E040F6444024
:100CF000C2F20100007802280FD1FFE746F62C70FF
:100D0000C2F201000AF0E0FCFF21A1EB101047F253
:100D1000F321C2F201010870FFE7FFE7FFE740F6A9
:100D20004440C2F2010001780131CAB20170032AC5
:100D300007D3FFE740F64440C2F2010000210170F2
:100D4000FFE7FFE70AB080BD81B0009042F20430B7
:100D5000C4F20100016821F4403101600099496842
:100D600002681143016000980068416821F48071B5
:100D700041600098016800694A6842EA00204860C2
:100D800000980068416821F0407141600098016856
:100D900080684A681043486000980068816821F4C0
:100DA0000061816000980168C0688A6810438860AB
:100DB0000098806A0121C0F60071884219D0FFE7CF
:100DC00000980068816821F0706181600098016876
:100DD000806A8A681043886000980068816821F002
:100DE0004051816000980168C06A8A681043886039
:100DF0000CE000980068816821F0706181600098C3
:100E00000068816821F040518160FFE70098006828
:100E1000816821F0020181600098016880698A6818
:100E200042EA400088600098006A002819D0FFE775
:100E300000980068416841F40061416000980068D2
:100E4000416821F46041416000980168406A4EF2B7
:100E50000002CFF6FF7202EB40304A681043486050
:100E600006E000980068416821F400614160FFE7F6
:100E700000980068C16A21F47001C162009801689D
:100E8000C0690022CFF6F07202EB0050CA6A10432C
:100E9000C86200980068816821F400718160009840
:100EA0000168006B8A6842EA402088600098006808
:100EB000816821F4806181600098016840698A68D6
:100EC00042EA8020886001B0704700000000000006
:100ED00081B00090009847F2A061C2F20101416028
:100EE00047F2A660C2F2010000780099088101B0C3
:100EF000704700000000000080B58CB00B9000200F
:100F00000A9040F6EC41C2F2010101220A6010236E
:100F10004B608A60C86047F2307CC2F2010C4FF629
:100F2000FF7E099060460891079272460693CDF8BD
:100F300014C0CDF810E010F0C3F8079903900846EC
:100F40000BF06EF902200899086006984860079A2D
:100F50008A60099BCB600598049A10F0B1F80321D0
:100F6000089A11600699516008239360099BD36029
:100F7000DDF814C0029060461146049A10F0A0F803
:100F80004FF408710A910421089A11600699516082
:100F9000079B9360DDF828C0C2F80CC0DDF814C0D0
:100FA000019060461146049A10F08AF80B99059A50
:100FB0000090104610F060F80CB080BD00000000FA
:100FC00080B59AB019901891FFE743F63800C4F243
:100FD0000200016841F001010160006800F00100B9
:100FE00012901298FFE7FFE743F63000C4F20200C8
:100FF000016841F480010160006800F480001190F4
:101000001198FFE7FFE743F63000C4F202000168E1
:1010100041F001010160006800F00100109010989B
:10102000FFE7FFE743F63000C4F20200016841F039
:1010300004010160006800F004000F900F98FFE7C2
:10104000FFE743F63000C4F20200016841F00801F6
:101050000160006800F008000E900E98FFE7FFE7BF
:1010600043F63000C4F20200016841F01001016053
:10107000006800F010000D900D98FFE7FFE743F6C1
:101080003000C4F20200016841F0200101600068F4
:1010900000F020000C900C98FFE7FFE743F63000CB
:1010A000C4F20200016841F040010160006800F0F4
:1010B00040000B900B98FFE74FF63F001390022083
:1010C000149000211591032216920C23179341F2DC
:1010D000004CC4F2020C0DF14C0E0A9060460991CE
:1010E000714608920793CDF818E00BF0EDF98020D7
:1010F00013900A991491099A1592089B1693DDF89A
:101100001CC0CDF85CC040F2000EC4F2020E059087
:10111000704606990BF0D8F9302013900A98149075
:1011200009991591089A1692079B179340F60000AB
:10113000C4F2020006990BF0C7F948F2331013907D
:101140000A98149009991591089A1692079B17937B
:1011500041F60000C4F2020006990BF0B5F94FF613
:10116000837013900A98149009991591089A169211
:10117000079B179341F20000C4F2020006990BF09E
:10118000A3F94CF2037013900A98149009991591E1
:10119000089A1692079B179340F60040C4F202008B
:1011A00006990BF091F940F66440C2F201000999EA
:1011B0004160059A82604FF40073C3604FF480630E
:1011C00003614FF4805343614FF480438361C161F5
:1011D0004FF4003303624162089B8362C162016382
:1011E00046F2104CC4F2020CC0F800C0FFE7199898
:1011F00040F66441C2F20101016319988863FFE778
:1012000040F66440C2F2010004900AF0D1FE049955
:10121000039008460AF01CFF38210F220023029099
:101220000846019111461A460DF0CAF801980DF0D2
:10123000BBF81AB080BD000080B592B011900020BC
:101240008DF8430047F6F860C2F2010000680069BB
:1012500040F69851C2F201010978039008460399BB
:1012600088471199087011980078002800F038819B
:10127000FFE700200490FFE704981199097888425D
:1012800080F02D81FFE747F6F860C2F201000068A8
:10129000406940F69851C2F201010978049A09ABFD
:1012A00003EB42030DF11A0C0CEB420202900846CC
:1012B0001946029B984747F6FC60C2F2010000788D
:1012C000012811D1FFE7049809A931F810100EAADE
:1012D00022F8101004980DF11A0131F810100DF1D8
:1012E0002E0222F81010FFE747F6FC60C2F2010060
:1012F0000078800700280AD5FFE7049809A931F88B
:101300001010C1F580510EAA22F81010FFE747F621
:10131000FC60C2F201000078400700280CD5FFE70E
:1013200004980DF11A0131F81010C1F580510DF13A
:101330002E0222F81010FFE747F6FC60C2F201000F
:1013400000780007002811D5FFE7049809A931F8B3
:1013500010100DF12E0222F8101004980DF11A0150
:1013600031F810100EAA22F81010FFE704980EA909
:1013700031F8101040F6C442C2F2010252F82000C7
:1013800081420DD9FFE704980EA931F8101040F6FC
:10139000C442C2F2010252F82000081A01900CE087
:1013A000049840F6C441C2F2010151F820100EAA7F
:1013B00032F81000081A0190FFE70198ADF8180004
:1013C00004980DF12E0131F8101040F6D842C2F207
:1013D000010252F8200081420ED9FFE704980DF176
:1013E0002E0131F8101040F6D842C2F2010252F834
:1013F0002000081A00900DE0049840F6D841C2F28F
:10140000010151F820100DF12E0232F81000081AD7
:101410000090FFE70098ADF81600BDF81800BDF881
:1014200016100844062816DBFFE704980EA931F8C9
:10143000101040F6C442C2F2010242F82010049893
:101440000DF12E0131F8101040F6D842C2F201021F
:1014500042F82010FFE740F69850C2F201000078F1
:10146000702812D1FFE704980EA931F81010119AD4
:1014700002EB4000418004980DF12E0131F810106C
:10148000119A02EB4000818124E047F6FE60C2F22F
:1014900001000088049940F6C442C2F2010252F8E9
:1014A00021205043000B119A02EB4101488047F67E
:1014B0000070C2F201000088049940F6D842C2F2DE
:1014C000010252F821205043000B119A02EB410116
:1014D0008881FFE7FFE7049801300490CCE6FFE73E
:1014E0009DF8430012B080BD81B001468DF8030025
:1014F0009DF80300020902EB820200F00F0000EBEE
:101500004200C0B201B0704780B516F00DFD80BD3D
:1015100086B04EF69450CEF20000016821F005012D
:1015200001604EF69851CEF2000100220A604EF69C
:101530009C51CEF200011023C2F201030B604EF663
:10154000A051CEF200013D23C0F202330B60052111
:101550000160BFF34F8FBFF36F8F4EF65070CEF226
:1015600000000260BFF34F8FBFF36F8F4EF6145031
:10157000CEF20000016841F480210160BFF34F8F7B
:1015800000688003002801D5FFE71AE0BFF34F8F02
:10159000BFF36F8F4EF65070CEF200000021016055
:1015A000BFF34F8FBFF36F8F4EF61450CEF2000093
:1015B000016841F400310160BFF34F8FBFF36F8FBB
:1015C000FFE74EF68450CEF2000000210160BFF329
:1015D0004F8F4EF68050CEF20000006805900598BF
:1015E000C0F34E300490FFE70598C0F3C9000390A4
:1015F000FFE704980399890760F34D114EF6607078
:10160000CEF2000001600398411E03910028F0D142
:10161000FFE70498411E04910028E5D1FFE7BFF3DE
:101620004F8FBFF36F8F4EF61450CEF2000000685C
:10163000C003002801D5FFE73CE04EF68450CEF20F
:10164000000000210160BFF34F8F4EF68050CEF2B4
:101650000000006802900298C0F34E300190FFE74E
:101660000298C0F3C9000090FFE70198009989072C
:1016700060F34D114EF66070CEF2000001600098EC
:10168000411E00910028F0D1FFE70198411E019111
:101690000028E5D1FFE7BFF34F8F4EF61450CEF28E
:1016A0000000016841F480310160BFF34F8FBFF348
:1016B0006F8FFFE706B0704781B000900098017A05
:1016C000417201B07047000047F60470C2F2010099
:1016D000007870470000000081B000900098C0883A
:1016E00001B070470000000081B000900098808831
:1016F00001B070470000000080B586B00A46059032
:10170000ADF8121005980021016005980172059846
:1017100041720598817205980430BDF812100223B9
:1017200003921A46029308F05FFF05990631BDF84F
:101730001220023292B2019008461146029A08F035
:1017400053FF06B080BD000080B582B001468DF821
:1017500006009DF8060000EB400046F6A842C2F2E3
:10176000010202EB8000009100F076FA002804D01C
:10177000FFE700208DF8070016E09DF8060000EB5B
:10178000400046F6A841C2F2010101EB800000F0E2
:101790006FFA002804D0FFE701208DF8070003E06E
:1017A00002208DF80700FFE79DF8070002B080BD1A
:1017B00082B001468DF807009DF80700002200283E
:1017C000009208D4FFE79DF8070000210F28B8BF5A
:1017D00001210091FFE7009800F0010002B070477E
:1017E00080B584B00A4603908DF80B1003980192DF
:1017F00000F0E6F900281CD0FFE7039800F044FA57
:10180000002804D0FFE7039800214172FFE79DF80C
:101810000B00039908720BF093F803990860039882
:101820000068002804D1FFE7039801210160FFE769
:10183000FFE704B080BD000080B584B00A46039085
:101840008DF80B100398019200F0D2F9002812D005
:10185000FFE70398007A9DF80B1088420BD1FFE751
:101860000398407A9DF80B10884204D1FFE7039853
:1018700000F05EF905E003989DF80B10FFF7B0FF4C
:10188000FFE704B080BD000080B584B00A4603467F
:101890008DF80F008DF80E109DF80F0000EB400042
:1018A00046F6A841C2F2010101EB80009DF80E103E
:1018B00002920193FFF7C0FF04B080BD000000005A
:1018C00081B0009000980021817201B07047000043
:1018D00080B582B001900198002101720198417297
:1018E000019801600198FFF7EBFF02B080BD000096
:1018F00080B500F08DFB46F6A441C2F201010870EC
:1019000080BD00000000000080B586B00A4605904A
:10191000ADF8121005980430BDF81210022303929E
:101920001A46029308F0A8FE05990631BDF8122068
:10193000023292B2019008461146029A08F09CFECB
:1019400006B080BD0000000081B001468DF80300A4
:101950009DF8030046F6A442C2F20102107001B0E5
:10196000704700000000000080B586B000208DF8B0
:101970001700FFE79DF817000E2800F39980FFE796
:101980009DF8170000EB400046F6A841C2F20101A5
:1019900001EB80000490049800F012F9002801D1B6
:1019A000FFE77FE0049800F0F3F8002804D0FFE799
:1019B000049800F0BDF8FFE7049800F0DDF8002877
:1019C0006FD0FFE700208DF80C00ADF80A000498F6
:1019D00000F04EF900280CD1FFE7049800F03CF924
:1019E00000280BD0FFE7049800F01EF9002805D06E
:1019F000FFE70498FFF778FE019004E00498FFF7F2
:101A00006BFE0190FFE70198ADF80A009DF80B000E
:101A10009DF80C100DF10D025054BDF80A009DF810
:101A20000C10114448709DF80C0002308DF80C0029
:101A3000049800F011F9002803D0FFE7002000907F
:101A400008E0049800F014F90221002818BF0121D1
:101A50000091FFE700989DF80C104A1C8DF80C20AF
:101A60000DF10D02505447F22470C2F201000078CB
:101A7000102807D1FFE740F65B00C2F20100012108
:101A80000170FFE7049800F0E7F8002804D0FFE7B2
:101A90000498FFF71DFF03E00498FFF70DFEFFE732
:101AA000FFE7FFE79DF8170001308DF8170061E7A9
:101AB00006B080BD0000000081B0009000980021B9
:101AC00081800098C180009801720098417200984E
:101AD0000160009801600098817201B070470000B9
:101AE00081B001468DF803009DF8030047F60472AB
:101AF000C2F20102107001B0704700000000000047
:101B000082B00A460190ADF80210BDF802000199BA
:101B1000C88002B07047000082B00A460190ADF85C
:101B20000210BDF802000199888002B070470000E1
:101B300081B0009000980021017201B07047000050
:101B400080B582B046F6A440C2F201000078019050
:101B500000F05EFA0199081AB0FA80F0400902B06C
:101B600080BD00000000000046F6A440C2F2010063
:101B7000007870470000000081B000900098017A62
:101B8000407A081A18BF012001B070470000000019
:101B900080B582B001900AF0D3FE01990968401A1D
:101BA0000090FFF791FD4FF47A7148430021009AAD
:101BB000824228BF0121084602B080BD000000001B
:101BC00082B001900198808800210028009107D000
:101BD000FFE70198C088002818BF01200090FFE7A8
:101BE000009800F0010002B0704700000000000003
:101BF00080B582B001900198FFF7E2FF002807D07E
:101C0000FFE70198407A002818BF0120009002E009
:101C100000200090FFE70098002818BF012002B0C4
:101C200080BD00000000000081B000900098407A64
:101C30000138B0FA80F0400901B0704700000000A0
:101C400081B000900098007A0238B0FA80F0400924
:101C500001B070470000000081B000900098007A49
:101C6000B0FA80F0400901B07047000000000000A9
:101C700081B000900098007A0138B0FA80F04009F5
:101C800001B070470000000081B000900098807A99
:101C9000002818BF012001B07047000000000000BC
:101CA00080B582B046F65C50C2F20100002101709E
:101CB0008DF80710FFE79DF807000E281FDCFFE7EF
:101CC0009DF8070000EB400046F6A841C2F2010172
:101CD00001EB8000FFF774FF002808D0FFE746F60D
:101CE0005C50C2F2010001780131017000E006E0B1
:101CF000FFE79DF8070001308DF80700DBE702B031
:101D000080BD00000000000080B582B047F604707E
:101D1000C2F201004FF4D871012208F065FC0021E5
:101D20008DF80710FFE79DF807000E2819DCFFE784
:101D30009DF8070000EB400146F6A842C2F20102FE
:101D400002EB8101932202EB80000090084600998B
:101D5000FFF7D2FCFFE79DF8070001308DF8070080
:101D6000E1E7FFF79DFF02B080BD0000000000002A
:101D700080B582B001468DF8070046F65D50C2F28C
:101D8000010001220270009100F04AF9002832D0CF
:101D9000FFE700208DF80600FFE79DF806000E28FB
:101DA00028DCFFE79DF8060000EB400046F6A8415E
:101DB000C2F2010101EB8000FFF702FF002812D000
:101DC000FFE79DF807000121012808BF02219DF8C7
:101DD000060000EB400046F6A842C2F2010202EB08
:101DE00080004172FFE7FFE79DF8060001308DF8A3
:101DF0000600D2E7FFE700208DF80500FFE79DF819
:101E000005000E2815DCFFE79DF8050000EB4000FB
:101E100046F6A841C2F2010101EB80009DF80710CF
:101E2000FFF7DEFCFFE79DF8050001308DF80500A7
:101E3000E5E702B080BD000080B582B001468DF8B4
:101E4000070001208DF806009DF80700002853D0F8
:101E5000FFE700208DF80500FFE79DF805000E283C
:101E600049DCFFE79DF8050000EB400046F6A8417D
:101E7000C2F2010101EB8000FFF7A2FE002833D07F
:101E8000FFE79DF8050000EB400046F6A841C2F2CE
:101E9000010101EB8000FFF7ABFE002820D0FFE737
:101EA0009DF8050000EB400046F6A841C2F2010192
:101EB00001EB8000007A9DF80710884210D1FFE7FF
:101EC0009DF8050000EB400046F6A841C2F2010172
:101ED00001EB8000407A9DF80710884204D0FFE7AC
:101EE00000208DF80600FFE7FFE79DF805000130B0
:101EF0008DF80500B1E7FFE79DF80600002803D044
:101F0000FFE700F05DF804E09DF80700FFF730FF01
:101F1000FFE702B080BD000080B582B047F60470D4
:101F2000C2F201004FF4D871012208F0A5FB002194
:101F30008DF80710FFE79DF807000E2819DCFFE772
:101F40009DF8070000EB400146F6A842C2F20102EC
:101F500002EB8101932202EB800000900846009979
:101F6000FFF7D2FCFFE79DF8070001308DF807006E
:101F7000E1E7FFF795FE02B080BD00000000000021
:101F800080B582B000208DF80700FFE79DF80700BC
:101F90000E2813DCFFE79DF8070000EB400046F633
:101FA000A841C2F2010101EB8000FFF785FDFFE7C8
:101FB0009DF8070001308DF80700E7E702B080BD0B
:101FC00080B582B000208DF80700FFE79DF807007C
:101FD0000E2813DCFFE79DF8070000EB400046F6F3
:101FE000A841C2F2010101EB8000FFF7A1FDFFE76C
:101FF0009DF8070001308DF80700E7E702B080BDCB
:102000000000000000000000391014310000010839
:1020100046F65C50C2F201000078704700000000F4
:1020200080B582B000208DF80600FFE79DF806001D
:102030000E281ADCFFE79DF8060000EB400046F68C
:10204000A841C2F2010101EB8000FFF7D1FD002899
:1020500004D0FFE701208DF807000AE0FFE79DF8B4
:10206000060001308DF80600E0E700208DF807003B
:10207000FFE79DF8070002B080BD000000000000EF
:1020800080B582B000208DF806008DF80500FFE7CE
:102090009DF805000E283CDCFFE79DF8050000EBED
:1020A000400046F6A841C2F2010101EB8000FFF7B3
:1020B00087FD002813D0FFE79DF8050000EB4000E6
:1020C00046F6A841C2F2010101EB8000FFF7B8FD1E
:1020D000002804D1FFE700208DF8070021E09DF8DB
:1020E000050000EB400046F6A841C2F2010101EBF9
:1020F0008000FFF765FD002804D0FFE701208DF880
:102100000600FFE7FFE79DF8050001308DF80500A8
:10211000BEE79DF80600002818BF01208DF80700D3
:10212000FFE79DF8070002B080BD0000000000003E
:1021300080B582B000208DF806008DF80500FFE71D
:102140009DF805000E283CDCFFE79DF8050000EB3C
:10215000400046F6A841C2F2010101EB8000FFF702
:102160002FFD002813D0FFE79DF8050000EB40008D
:1021700046F6A841C2F2010101EB8000FFF778FDAD
:10218000002804D1FFE700208DF8070021E09DF82A
:10219000050000EB400046F6A841C2F2010101EB48
:1021A0008000FFF70DFD002804D0FFE701208DF827
:1021B0000600FFE7FFE79DF8050001308DF80500F8
:1021C000BEE79DF80600002818BF01208DF8070023
:1021D000FFE79DF8070002B080BD0000000000008E
:1021E00080B5A6B046F69850C2F2010040780006CD
:1021F000002802D4FFE700F041BC47F26810C2F2A9
:10220000010047F2B861C2F2010101221D901C9247
:102210000EF042FC47F2B461C2F201011D9A1B901C
:1022200010461C9A0EF0F8FB47F22771C2F201012A
:10223000097847F22672C2F20102127891424BDB12
:10224000FFE747F2B860C2F201000078FFF74CF9EF
:1022500047F22771C2F201010978884209DBFFE7E2
:1022600046F69850C2F20100016841F40011016085
:1022700031E047F2B860C2F201000078FFF734F9AC
:1022800047F22671C2F201010978884209DAFFE7B4
:1022900046F69850C2F20100016841F40011016055
:1022A00018E046F69850C2F20100807880060028B7
:1022B0000FD5FFE746F69850C2F20100016821F4FD
:1022C0000011016047F22470C2F201000721017081
:1022D000FFE7FFE7FFE753E047F22770C2F2010094
:1022E000007847F22671C2F201010978884246DA85
:1022F000FFE747F2B860C2F20100007847F22671AA
:10230000C2F20101097800228842B8BF01221046BA
:10231000FFF7EAF8002818D0FFE747F2B860C2F2EA
:1023200001000078FFF7E0F847F22771C2F20101DF
:102330000978884209DBFFE746F69850C2F20100AF
:10234000016841F40011016018E046F69850C2F2AD
:1023500001008078800600280FD5FFE746F69850E8
:10236000C2F20100016821F40011016047F22470FB
:10237000C2F2010007210170FFE7FFE7FFE7FFE777
:1023800046F69850C2F2010080788007002840F19C
:10239000DE82FFE746F69850C2F2010080788006A0
:1023A000002840F1D482FFE746F69850C2F20100BF
:1023B00080784007002840F1CA82FFE746F698502F
:1023C000C2F201008078400600280DD5FFE740F6F4
:1023D000FC40C2F20100007847F2B461C2F2010190
:1023E0000978884241D0FFE746F69850C2F20100D2
:1023F000016841F48001016000201A901FF05EF92D
:102400001A981FF00FFC19901EF007F81A981FF089
:10241000C7F9012018901FF051F918981FF002FC1D
:102420004FF07F41179008461FF014FC1DF0F5FF98
:1024300040F65900C2F201003C21017047F2B4603D
:10244000C2F20100007840F6FC41C2F201010870BE
:1024500009201FF05DFC4FF47F41169008461FF0E5
:10246000FBFB18981FF09CF9FFE747F2B860C2F237
:1024700001001EA902221590084615990FF0F8FADE
:1024800015988178C907002904D0FFE73A208DF814
:102490007A0003E020208DF87A00FFE71EA8C11C17
:1024A00047F2B862C2F201020132022314900846D8
:1024B00011461A460FF0DCFAF02088211EF044FD88
:1024C00047F22571C2F20101097840F2A872C2F206
:1024D000010252F82110139008461FF0BDFB43F68D
:1024E000F010C0F604001FF0C5FB0E211290084644
:1024F0001FF016FC0121119008461FF0DFF80020A4
:1025000050214FF4F072C02310901DF095FFDC2194
:1025100064224FF4877310981DF08EFF14981EF0FC
:10252000DBF847F2B460C2F201000078002807D15E
:10253000FFE747F2B460C2F2010007210170FFE734
:1025400047F2B460C2F20100007801280FD1FFE722
:1025500042F22000ADF8800046F26E40C7F66110EE
:102560001F9042F22000C6F64D701E908FE047F299
:10257000B460C2F20100007802280FD1FFE742F2F6
:102580007900ADF8800047F27340C6F264101F90E6
:1025900045F22040C6F275501E9077E047F2B460D5
:1025A000C2F20100007803280FD1FFE742F2790060
:1025B000ADF8800047F26530C6F264101F9046F215
:1025C0005750C6F664601E905FE047F2B460C2F2F6
:1025D0000100007804280FD1FFE742F27900ADF83E
:1025E000800047F27340C6F264101F9046F6540014
:1025F000C7F275201E9047E047F2B460C2F20100B6
:10260000007805280FD1FFE742F22000ADF88000E6
:1026100046F26940C7F661101F9042F22000C7F2EF
:1026200046201E902FE047F2B460C2F2010000780D
:1026300006280FD1FFE742F27900ADF8800047F29B
:102640007520C6F264101F9045F22030C7F2614039
:102650001E9017E047F2B460C2F20100007807282C
:102660000FD1FFE742F22000ADF8800046F26E4045
:10267000C7F661101F9042F22000C7F253501E901F
:10268000FFE7FFE7FFE7FFE7FFE7FFE7FFE71EA83A
:102690000A3047F2B461C2F201018A1C02230F9191
:1026A00011461A460FF0E4F90F98417801290FD12D
:1026B000FFE742F27900ADF88C0047F26E50C7F2A6
:1026C0006120229042F22E00C6F24A10219007E1CA
:1026D00047F2B460C2F20100407802280FD1FFE750
:1026E00047F67210ADF88C0047F26220C6F2751002
:1026F000229042F22E00C6F246502190EFE047F2BF
:10270000B460C2F20100407803280FD1FFE742F223
:102710002000ADF88C0047F26120C6F663002290DD
:1027200042F22E00C4F620502190D7E047F2B46068
:10273000C2F20100407804280FD1FFE742F22000E6
:10274000ADF88C0047F27020C6F66940229042F244
:102750002E00C4F220102190BFE047F2B460C2F214
:102760000100407805280FD1FFE742F22000ADF8C4
:102770008C0046F24D10C2F27900229042F22E00F7
:10278000C2F220002190A7E047F2B460C2F201003B
:10279000407806280FD1FFE742F22000ADF88C0008
:1027A00047F24A50C6F26E50229042F22E00C2F218
:1027B000200021908FE047F2B460C2F2010040781F
:1027C00007280FD1FFE742F22000ADF88C0047F256
:1027D0004A50C7F66C10229042F22E00C2F220003E
:1027E000219077E047F2B460C2F2010040780828F7
:1027F0000FD1FFE742F22000ADF88C0047F267509E
:10280000C7F27340229042F22E00C7F2415021904D
:102810005FE047F2B460C2F20100407809280FD1AE
:10282000FFE747F26520ADF88C0046F27450C6F21F
:102830006D20229045F22E30C7F26500219047E0CE
:1028400047F2B460C2F20100407810280FD1FFE7D0
:1028500042F27200ADF88C0046F67470C6F2625017
:10286000229042F22E00C6F24F3021902FE047F224
:10287000B460C2F20100407811280FD1FFE747F29F
:102880006520ADF88C0046F27650C6F26D2022909D
:1028900042F22E00C6F64E70219017E047F2B46067
:1028A000C2F20100407812280FD1FFE747F26520FD
:1028B000ADF88C0046F26350C6F26D20229042F2D1
:1028C0002E00C6F244502190FFE7FFE7FFE7FFE745
:1028D000FFE7FFE7FFE7FFE7FFE7FFE7FFE7FFE7C8
:1028E00030208DF8900043F22020ADF88E001EA815
:1028F00000F1190147F2B462C2F20102033202236D
:102900000E90084611461A460FF0B2F82E208DF8A8
:10291000930000208DF894004AF6D050C0F60300D2
:102920001FF0A8F9F021CE220D90084611461EF0A6
:102930000BFB0E210C9008461FF0F2F90E990B903C
:1029400008461DF0C9FE01201EF02AFF60E040F697
:102950005900C2F20100007847F2B861C2F20101E9
:102960004978884253D0FFE747F2B860C2F20100CD
:10297000014611F8012F40F65903C2F201031A7003
:102980001EAA02230A901046DDF828C0099161466C
:1029900008921A4607930FF06BF83A208DF87A00E8
:1029A000089803300999079A0FF062F84CF6004036
:1029B000C0F603001FF05EF96FF07F4106900846F5
:1029C0001FF04AF907981FF0B5F90C210590084649
:1029D0001FF0A6F901210490084603911EF06EFE37
:1029E0000520F5211EF0B0FA0021DC2264234FF40B
:1029F000877C0290084611461A4663461DF01CFD6E
:102A000008981DF069FE03981EF0CAFEFFE7FFE775
:102A100040F6FC40C2F20100007847F2B461C2F215
:102A200001010978884229D0FFE747F2B460C2F279
:102A30000100017840F6FC42C2F201021170827876
:102A400047F26811C2F20101022301900846009189
:102A500019460DF019FF01984278032100980DF0F6
:102A600013FF01980278042100980DF00DFF0198E2
:102A7000C278052100980DF007FFFFE726B080BD62
:102A800080B582B001468DF806009DF80600012849
:102A900016D1FFE740F6FD40C2F2010000780028A1
:102AA0000ED1FFE740F6FD40C2F2010001210170A6
:102AB00009F046FF40F60051C2F20101086039E01A
:102AC0009DF8060001281FD1FFE740F6FD40C2F245
:102AD00001000078012817D1FFE709F031FF40F627
:102AE0000051C2F201010968401AB0F5586F0AD3CB
:102AF000FFE740F6FD40C2F2010000210170012015
:102B00008DF807001AE014E09DF8060000280FD1A8
:102B1000FFE740F6FD40C2F201000078012807D12E
:102B2000FFE740F6FD40C2F2010000210170FFE71F
:102B3000FFE7FFE700208DF80700FFE79DF807009B
:102B400002B080BD0000000080B546F69850C2F289
:102B5000010080788007002810D5FFE746F69850DE
:102B6000C2F2010080788006002807D5FFE747F20F
:102B70002470C2F2010007210170FFE746F6985069
:102B8000C2F20100016821F400310160016821F402
:102B90008001016009F0D4FE47F22871C2F2010100
:102BA000086047F22C70C2F201001E21017047F24A
:102BB0007000C2F20100007800F002F880BD000051
:102BC00081B001468DF803009DF80300042804DC61
:102BD000FFE705208DF8030009E09DF80300512868
:102BE00004DBFFE750208DF80300FFE7FFE79DF8C7
:102BF000030000EB8000400047F28811C2F201019F
:102C00000968486301B0704780B586B0012005901F
:102C10001EF054FDC32091214FF4A072EB231DF050
:102C20000BFC6FF07F401FF017F840F26000C0F619
:102C300004001FF01FF80021049008461FF07AF8E6
:102C40000599039008461FF06BF8C8219622029060
:102C5000084611461EF078F947F6DC61C2F2010120
:102C6000897A02220190084611461DF0F5FC05986C
:102C70001EF096FD06B080BD80B586B01EF06CF9E2
:102C800044F66931C0F60101059008461EF026FEA3
:102C90000120049024F0A0F903901FF093F9002084
:102CA0001EF0C0FF02901DF0B8FB04981EF0BAFFA2
:102CB0004FF07F41019008461EF0CCFF1DF0ADFBA8
:102CC00040F69C50C2F20100302115F029F840F680
:102CD000E050C2F20100502115F022F846F68E4075
:102CE000C2F201004FF4E371049A07F07DFC0090FA
:102CF00009F026FE46F6A051C2F2010108601DF05F
:102D00009FFF06B080BD000080B5ADF5BE6D09F037
:102D100017FE40F61051C2F201010968401A6428FA
:102D20000AD3FFE709F00CFE40F61051C2F2010190
:102D300008601DF085FFFFE747F2A860C2F20100BE
:102D40000078C007002845D0FFE740F26470C2F267
:102D50000100007800283BD1FFE740F26470C2F226
:102D60000100012101700846CDF8B0151EF0A6FC47
:102D70001DF053FB4AF6D050C0F603001EF07AFF58
:102D80004AF2FF51CDF8AC0508461EF065FF02205F
:102D90001EF0D0FF0E21CDF8A80508461EF0C0FF9A
:102DA000F0218722CDF8A405084611461EF0CCF884
:102DB00043F64F11C0F60501CDF8A00508461DF0F9
:102DC0008BFCDDF8B0051EF0EBFCFFF7BDFEFFE766
:102DD00004F07EBC40F26470C2F201000078012869
:102DE0000CD1FFE740F26470C2F2010000210170D3
:102DF00047F22870C2F2010001605BE040F26470AB
:102E0000C2F201000078022853D1FFE740F264705B
:102E1000C2F20100002101700120CDF89C051EF0D6
:102E20004DFC1DF0FAFA09201EF072FFFF21CDF8CB
:102E3000980508461EF010FFF02088213222CDF8B8
:102E40009425DDF894351DF01FFD4FF4C8704FF444
:102E5000E1711422CDF89005CDF88C151146DDF8FE
:102E60008C35CDF888251A46DDF888351DF032FE00
:102E70002820DDF89015CDF884050846DDF8841586
:102E8000DDF88C25DDF884351DF024FE3C20DDF8CE
:102E90009015CDF880050846DDF88015DDF88C2505
:102EA000DDF880351DF016FEDDF89C051EF078FC7F
:102EB000FFE7FFE7FFE747F22470C2F20100007866
:102EC00001461528CDF87C1504F23982DDF87C1511
:102ED000DFE811F0C92116006802CD03B3089E0A8D
:102EE000CA0B7D0EE20E9B103913B9156F16A91689
:102EF000AF178F1B7A1CC81DEC1EDA1F5320102140
:102F000040F61450C2F2010000680028CDF87805A0
:102F10000CD0FFE7DDF87805012800F03481FFE7E9
:102F2000DDF87805022800F04A810DE247F2B07022
:102F3000C2F201000121017000208DF8DF05FFE7DA
:102F40009DF8DF05CDF8740510F062FFDDF874150B
:102F500081422CDAFFE79DF8DF0500EBC00047F265
:102F60003841C2F2010101EB800010F029FE002877
:102F700016D0FFE79DF8DF0500EBC00047F23841AF
:102F8000C2F2010101EB800010F0D2FD002807D051
:102F9000FFE747F2B070C2F201000021017006E0C5
:102FA000FFE79DF8DF0501308DF8DF05C8E747F240
:102FB000B070C2F20100007801460028CDF870150B
:102FC00005D0FFE7DDF87005012868D068E040F61D
:102FD0001450C2F20100012101600846CDF86C15C1
:102FE0001EF06CFB1DF019FA09201EF091FE47F24D
:102FF0002571C2F20101097840F2A872C2F2010201
:1030000052F82110CDF8680508461EF025FE4FF451
:10301000C8704FF4E1711422CDF86405CDF8601545
:103020001146DDF86035CDF85C251A46DDF85C35D3
:103030001DF050FD2820DDF86415CDF85805084630
:10304000DDF85815DDF86025DDF858351DF042FD36
:103050003C20DDF86415CDF854050846DDF854151C
:10306000DDF86025DDF854351DF034FD4FF47F4068
:103070001EF0F2FDF02088213222CDF85025DDF837
:1030800050351DF001FCDDF86C051EF089FB09F0E0
:1030900057FC40F61C51C2F20101086067E0FFE7EF
:1030A00040F61450C2F20100042101600120CDF865
:1030B0004C051EF003FB1DF0B0F909201EF028FEA0
:1030C00047F22571C2F20101097840F2A872C2F2FA
:1030D000010252F82110CDF8480508461EF0BCFD4B
:1030E0004FF4C8704FF4E1711422CDF84405CDF8C7
:1030F00040151146DDF84035CDF83C251A46DDF87F
:103100003C351DF0E7FC2820DDF84415CDF83805E6
:103110000846DDF83815DDF84025DDF838351DF0B6
:10312000D9FC3C20DDF84415CDF834050846DDF81F
:103130003415DDF84025DDF834351DF0CBFCFF20DB
:103140001EF08AFDF02088213222CDF83025DDF8EE
:1031500030351DF099FBDDF84C051EF021FB09F020
:10316000EFFB40F61C51C2F201010860FFE740F698
:103170001450C2F201000021016047F22470C2F233
:1031800001000170E0E009F0DBFB40F61C51C2F2E7
:1031900001010968401AB0F5FA7F0FD3FFE740F646
:1031A0001450C2F2010001680131016009F0C8FB4E
:1031B00040F63451C2F201010860FFE7C4E009F0B3
:1031C000BFFB40F63451C2F201010968401A0F28D2
:1031D000C0F0B980FFE709F0B3FB40F63451C2F20A
:1031E0000101086040F62C50C2F20100006800287E
:1031F000CDF82C0505D0FFE7DDF82C05012850D0CF
:1032000050E040F69C50C2F20100807DFE2808DCB0
:10321000FFE740F69C50C2F20100817D01318175CB
:10322000FFE740F69C50C2F20100807EFE2808DCD9
:10323000FFE740F69C50C2F20100817E01318176A9
:10324000FFE740F69C50C2F20100807FFE2808DCB8
:10325000FFE740F69C50C2F20100817F0131817787
:10326000FFE740F69C50C2F20100807DFF2817D195
:10327000FFE740F69C50C2F20100807EFF280FD18C
:10328000FFE740F69C50C2F20100807FFF2807D183
:10329000FFE740F62C50C2F2010001210160FFE778
:1032A00050E0FFE740F69C50C2F20100807D00280C
:1032B00008D0FFE740F69C50C2F20100817D013941
:1032C0008175FFE740F69C50C2F20100807E002825
:1032D00008D0FFE740F69C50C2F20100817E013920
:1032E0008176FFE740F69C50C2F20100807F002803
:1032F00008D0FFE740F69C50C2F20100817F0139FF
:103300008177FFE740F69C50C2F20100807D0028E3
:1033100017D1FFE740F69C50C2F20100807E0028E2
:103320000FD1FFE740F69C50C2F20100807F0028D9
:1033300007D1FFE740F62C50C2F2010000210160E6
:10334000FFE7FFE7FFE7FFE709F0FAFA47F2287126
:10335000C2F20101086047F21750C2F201000021D9
:10336000017047F21350C2F20100017047F216508B
:10337000C2F20100017047F21550C2F20100017063
:1033800047F21450C2F20100017040F65900C2F237
:1033900001003C22027047F2D060C2F201000160DD
:1033A00003F0EDBF47F21450C2F20100007800288C
:1033B00040F05B81FFE747F21450C2F20100017850
:1033C000013101700120CDF828051EF077F90020A9
:1033D0001EF028FCCDF824051DF01FF8DDF82805A7
:1033E0001EF020FC4FF07F41CDF8200508461EF06E
:1033F00031FC1DF012F809201EF08AFC47F22571FD
:10340000C2F20101097840F2A872C2F2010252F838
:103410002110CDF81C0508461EF01EFC4FF4C870A4
:103420004FF4E1711422CDF81805CDF814151146AA
:10343000DDF81435CDF810251A46DDF810351DF0ED
:1034400049FB2820DDF81815CDF80C050846DDF8F5
:103450000C15DDF81425DDF80C351DF03BFB3C2088
:10346000DDF81815CDF808050846DDF80815DDF873
:103470001425DDF808351DF02DFB0A204FF4BE7130
:103480004FF48373CDF804050846DDF80425CDF824
:1034900000151146DDF800251DF01CFB1E204FF421
:1034A000AF728821CDF8FC14DDF8FC341DF012FB5E
:1034B000BE20FC23CDF8F804DDF81015DDF8F82463
:1034C0001DF008FB43F2A410C0F6050040F2811184
:1034D0009F221DF0B3F943F2A000C0F6050037218A
:1034E000CDF8F414DDF804251DF0A8F943F2F0003E
:1034F000C0F60500F5210F221DF0A0F943F240109F
:10350000C0F605009622DDF8F4141DF097F906F0D8
:103510003FFE002809D0FFE743F27C10C0F605000B
:10352000F0219B221DF08AF908E043F26810C0F6F2
:103530000500F0219B221DF081F9FFE74AF6D050EB
:10354000C0F603001EF096FB4AF2FF51CDF8F004DE
:1035500008461EF081FB0220CDF8EC041EF0EAFBC9
:103560000E21CDF8E8040846CDF8E4141EF0D8FB8F
:103570005F216E22CDF8E0040846CDF8DC14114638
:10358000CDF8D8241DF0E0FC1421CDF8D404084671
:1035900019F09AFD47F2AA20C2F20100CDF8D0043A
:1035A0001DF09AF8DDF8E4041EF0BAFB40F21D119C
:1035B000CDF8CC040846DDF8D824CDF8C81411465F
:1035C0001DF0C2FCDDF8EC14CDF8C404084619F077
:1035D0007BFDDDF8D0041DF07FF8DDF8E4041EF07B
:1035E0009FFBFA21DDF8DC24CDF8C0041046CDF8AD
:1035F000BC141DF0A9FC1521CDF8B804084619F03B
:1036000063FDDDF8D0041DF067F8DDF8E4041EF07A
:1036100087FBDDF8C814CDF8B4040846DDF8BC1407
:103620001DF092FC3521CDF8B004084619F04CFD90
:10363000DDF8D0041DF050F801201EF0B1F847F27B
:103640001750C2F201000021017047F21350C2F27C
:103650000100017047F21650C2F20100017047F2FA
:103660001550C2F201000170FFE703F088BE47F277
:103670001350C2F20100007801460328CDF8AC14C3
:1036800000F2D984DDF8AC14DFE811F004008C01FD
:10369000D101BC0247F21350C2F20100017801319E
:1036A000017001201EF00AF81CF0B7FE05201EF084
:1036B0002FFBFF21CDF8A80408461EF0CDFADC2030
:1036C00078214FF48872CDF8A4040846DDF8A434BC
:1036D000CDF8A0141946DDF8A0C4CDF89C246246AC
:1036E000DDF89C341DF0F6F9F020CDF89804DDF8F3
:1036F000A414DDF89824DDF89C341DF0EBF94FF4A8
:10370000B470CDF89404DDF8A414DDF89424DDF849
:103710009C341DF0DFF943F2DC00C0F605004121C6
:10372000D722CDF890241DF089F843F2C800C0F6E6
:103730000500B921CDF88C04DDF890241DF07EF849
:1037400040F23111DDF88C04DDF890241DF076F89C
:1037500043F28C00C0F605004FF4C871BE221DF084
:103760006DF840F69C50C2F20100807D00280CD01C
:10377000FFE743F2B400C0F605003C21CDF8881401
:10378000DDF888241DF05AF80BE043F2A000C0F6E3
:1037900005003C21CDF88414DDF884241DF04EF89A
:1037A000FFE740F69C50C2F20100807E002809D05D
:1037B000FFE743F2B400C0F60500C8213C221DF02B
:1037C0003DF808E043F2A000C0F60500C8213C2205
:1037D0001DF034F8FFE740F69C50C2F20100807FF4
:1037E00000280AD0FFE743F2B400C0F605004FF40A
:1037F000AA713C221DF022F809E043F2A000C0F6B5
:1038000005004FF4AA713C221DF018F8FFE74AF6B4
:10381000D050C0F603001EF02DFA4AF2FF51CDF849
:10382000800408461EF018FA02201EF083FA0C21CC
:10383000CDF87C0408461EF073FA0521FA22CDF873
:10384000780408461146CDF874241DF07DFB43F63C
:103850004311C0F60501CDF8700408461CF03CFF8A
:103860008720DDF874141DF06FFB43F2FB51C0F6A6
:103870000501CDF86C0408461CF02EFFFF20DDF892
:1038800074141DF061FB43F6A211C0F60501CDF8DA
:10389000680408461CF020FF0F201EF041FA642146
:1038A0002822CDF86404084611461DF04DFB40F671
:1038B0009C51C2F20101897D002914D0FFE740F636
:1038C0009C50C2F20100807D6421484348F281018E
:1038D000C8F28001A0FB0101C909CDF860040846C7
:1038E0001CF0CEFEFFE7F02028211DF02DFB40F656
:1038F0009C51C2F20101897E002914D0FFE740F6F5
:103900009C50C2F20100807E6421484348F281014C
:10391000C8F28001A0FB0101C909CDF85C0408468A
:103920001CF0AEFEFFE74FF4BE7028211DF00CFB2B
:1039300040F69C51C2F20101897F002914D0FFE7B3
:1039400040F69C50C2F20100807F6421484348F257
:103950008101C8F28001A0FB0101C909CDF858041A
:1039600008461CF08DFEFFE701201DF019FF47F20D
:103970001750C2F201000021017047F21650C2F246
:103980000100017047F21550C2F20100017047F2C8
:103990001450C2F20100017040F60450C2F201005E
:1039A000017048E346F69E40C2F20100007800280C
:1039B00010D1FFE746F69F40C2F2010000780028D0
:1039C00008D1FFE746F6A040C2F2010000780028C7
:1039D0002CD0FFE746F69E40C2F20100007840F688
:1039E0000451C2F20101087046F69F40C2F2010084
:1039F000007840F60551C2F20101087046F6A04079
:103A0000C2F20100007840F60651C2F201010870CE
:103A100047F21350C2F201000221017008F090FF3A
:103A200040F60851C2F201010860FFE703E308F025
:103A300087FF40F60851C2F201010968401AB0F54B
:103A40007A7F1FD3FFE708F07BFF40F63451C2F2C4
:103A50000101086047F21350C2F201000178013100
:103A6000017040F60450C2F201000021017040F6DE
:103A70000550C2F20100017040F60650C2F201008A
:103A80000170BEE046F69E40C2F2010000780028B8
:103A900040F0B680FFE746F69F40C2F20100007892
:103AA000002840F0AD80FFE746F6A040C2F20100DA
:103AB0000078002840F0A480FFE740F60450C2F2EE
:103AC0000100007800280FD0FFE740F69C50C2F2BA
:103AD0000100807D002807D0FFE740F69C50C2F22D
:103AE00001000021817517E040F60450C2F2010088
:103AF000007800280FD0FFE740F69C50C2F201008A
:103B0000807D002807D1FFE740F69C50C2F20100FB
:103B1000FF218175FFE7FFE740F60550C2F2010083
:103B2000007800280FD0FFE740F69C50C2F2010059
:103B3000807E002807D0FFE740F69C50C2F20100CB
:103B40000021817617E040F60550C2F201000078AE
:103B500000280FD0FFE740F69C50C2F20100807EA3
:103B6000002807D1FFE740F69C50C2F20100FF2178
:103B70008176FFE7FFE740F60650C2F201000078C9
:103B800000280FD0FFE740F69C50C2F20100807F72
:103B9000002807D0FFE740F69C50C2F20100002148
:103BA000817717E040F60650C2F201000078002845
:103BB0000FD0FFE740F69C50C2F20100807F002842
:103BC00007D1FFE740F69C50C2F20100FF21817748
:103BD000FFE7FFE747F21350C2F201000021017036
:103BE00040F60450C2F20100017040F60550C2F2E6
:103BF0000100017040F60650C2F201000170FFE7BB
:103C0000FFE718E246F69E40C2F201000078002865
:103C100017D1FFE746F69F40C2F201000078002866
:103C20000FD1FFE746F6A040C2F20100007800285D
:103C300007D1FFE747F21350C2F2010000210170E3
:103C4000F8E108F07DFE40F63451C2F20101096846
:103C5000401A0F28C0F0ED81FFE708F071FE40F632
:103C60003451C2F20101086046F69E40C2F20100E2
:103C70000078002800F09E80FFE701201DF01EFD67
:103C800040F60C50C2F2010000680028CDF8540440
:103C900005D0FFE7DDF8540401282CD02CE040F6D5
:103CA0009C50C2F20100807D00280CD1FFE743F256
:103CB000B400C0F605003C21CDF85014DDF85024C6
:103CC0001CF0BCFDFFE740F69C50C2F20100807D75
:103CD000FE2808DCFFE740F69C50C2F20100817D1F
:103CE0000131817506E040F60C50C2F2010001215D
:103CF0000160FFE731E0FFE740F69C50C2F20100AF
:103D0000807D002808D0FFE740F69C50C2F20100F9
:103D1000817D013981751FE040F60C50C2F201002F
:103D2000002101603C20A021CDF84C04DDF84C249A
:103D3000CDF848141146DDF84824DDF848341CF06D
:103D40007BFB43F2A000C0F60500DDF84C14DDF863
:103D50004C241CF073FDFFE7FFE764201E21C822FE
:103D60003223CDF844041CF067FB2821DDF844041D
:103D70001DF0EAF80F21CDF8400408461DF0D0FFF1
:103D800040F69C51C2F20101897DDDF84424514383
:103D900048F28103C8F28003A1FB0313DB09CDF8CD
:103DA0003C041846CDF838141CF06AFC01201DF0C4
:103DB000F7FC3DE146F69F40C2F201000078002882
:103DC00000F09480FFE701201DF078FC40F60C50D5
:103DD000C2F2010000680028CDF8340405D0FFE7E6
:103DE000DDF83404012829D029E040F69C50C2F2C5
:103DF0000100807E002809D1FFE743F2B400C0F63D
:103E00000500C8213C221CF019FDFFE740F69C503C
:103E1000C2F20100807EFE2808DCFFE740F69C50DD
:103E2000C2F20100817E0131817606E040F60C503D
:103E3000C2F2010001210160FFE72DE0FFE740F63B
:103E40009C50C2F20100807E002808D0FFE740F6B7
:103E50009C50C2F20100817E013981761BE040F660
:103E60000C50C2F2010000210160C8203C214FF437
:103E70009672A023CDF83004CDF82C141CF0DCFA97
:103E800043F2A000C0F60500DDF83014DDF82C2464
:103E90001CF0D4FCFFE7FFE7DC201E214FF4A072EA
:103EA00032231CF0C9FAF02028211DF04DF80F2113
:103EB000CDF8280408461DF033FF40F69C51C2F2AD
:103EC0000101897E6422514348F28102C8F28002D6
:103ED000A1FB0212D209CDF824041046CDF820141B
:103EE0001CF0CEFB01201DF05BFCA0E046F6A040DC
:103EF000C2F201000078002800F09880FFE701205E
:103F00001DF0DCFB40F60C50C2F2010000680028F6
:103F1000CDF81C0405D0FFE7DDF81C0401282AD0E9
:103F20002AE040F69C50C2F20100807F00280AD1AE
:103F3000FFE743F2B400C0F605004FF4AA713C223B
:103F40001CF07CFCFFE740F69C50C2F20100807F31
:103F5000FE2808DCFFE740F69C50C2F20100817F9A
:103F60000131817706E040F60C50C2F201000121D8
:103F70000160FFE72EE0FFE740F69C50C2F201002F
:103F8000807F002808D0FFE740F69C50C2F2010075
:103F9000817F013981771CE040F60C50C2F20100AC
:103FA000002101604FF4AA703C214FF4DC72A02381
:103FB000CDF81804CDF814141CF03EFA43F2A0001A
:103FC000C0F60500DDF81814DDF814241CF036FCEA
:103FD000FFE7FFE74FF4AA701E214FF4DC72322393
:103FE0001CF02AFA4FF4BE7028211CF0ADFF0F21FF
:103FF000CDF8100408461DF093FE40F69C51C2F225
:104000000101897F6422514348F28102C8F2800293
:10401000A1FB0212D209CDF80C041046CDF8081409
:104020001CF02EFB01201DF0BBFBFFE7FFE7FFE7C5
:10403000FFE7FFE7FFE703F0A2B947F21650C2F22D
:1040400001000078002840F00081FFE747F2165099
:10405000C2F2010001780131017001201DF02EFB38
:104060001CF0DBF90520CDF804041DF051FEFF2102
:10407000CDF800040846FF911DF0EEFDDC2078210C
:104080004FF48872FE900846FE9BFD911946DDF8BC
:10409000F4C3FC926246FC9B1CF01CFDF020FB90DC
:1040A000FE99FB9AFC9B1CF015FD4FF4B470FA903E
:1040B000FE99FA9AFC9B1CF00DFD43F2C800C0F675
:1040C00005004121D722F990F8921CF0B7FB43F28A
:1040D000DC00C0F60500B921F89A1CF0AFFB40F2F5
:1040E0003111F998F89A1CF0A9FB43F28C00C0F644
:1040F00005004FF4C871BE221CF0A0FB4AF6D05058
:10410000C0F603001DF0B6FD4AF2FF51F7900846D5
:104110001DF0A2FD02201DF00DFE0C21F6900846B8
:104120001DF0FEFDFA21DDF80424F5901046F4910F
:104130001CF00AFF43F64311C0F60501F390084650
:104140001CF0CAFA8720F4991CF0FEFE43F2FB51E2
:10415000C0F60501F29008461CF0BEFAFF98F499EB
:104160001CF0F2FE43F6A211C0F60501F1900846DC
:104170001CF0B2FA40F69C50C2F20100807900288F
:104180000AD0FFE743F2B400C0F605003C21F091ED
:10419000F09A1CF053FB09E043F2A000C0F60500C2
:1041A0003C21EF91EF9A1CF049FBFFE740F69C5051
:1041B000C2F20100807A002809D0FFE743F2B40080
:1041C000C0F60500C8213C221CF038FB08E043F291
:1041D000A000C0F60500C8213C221CF02FFBFFE721
:1041E00040F69C50C2F20100807B00280AD0FFE715
:1041F00043F2B400C0F605004FF4AA713C221CF053
:104200001DFB09E043F2A000C0F605004FF4AA71BF
:104210003C221CF013FBFFE701201DF0C1FA47F21E
:104220001750C2F201000021017047F21350C2F290
:104230000100017047F21550C2F20100017047F20F
:104240001450C2F201000170E0E047F21650C2F2D1
:1042500001000078012840F0AF80FFE746F69E405D
:10426000C2F20100007800280FD0FFE740F69C5012
:10427000C2F201008079002807D0FFE740F69C5089
:10428000C2F201000021817117E046F69E40C2F2A1
:104290000100007800280FD0FFE740F69C50C2F2E2
:1042A00001008079002807D1FFE740F69C50C2F258
:1042B000010001218171FFE7FFE746F69F40C2F24E
:1042C0000100007800280FD0FFE740F69C50C2F2B2
:1042D0000100807A002807D0FFE740F69C50C2F228
:1042E00001000021817217E046F69F40C2F20100F2
:1042F000007800280FD0FFE740F69C50C2F2010082
:10430000807A002807D1FFE740F69C50C2F20100F6
:1043100001218172FFE7FFE746F6A040C2F20100EB
:10432000007800280FD0FFE740F69C50C2F2010051
:10433000807B002807D0FFE740F69C50C2F20100C6
:104340000021817317E046F6A040C2F20100007818
:1043500000280FD0FFE740F69C50C2F20100807B9E
:10436000002807D1FFE740F69C50C2F2010001216E
:104370008173FFE7FFE746F69E40C2F20100007836
:10438000002810D1FFE746F69F40C2F201000078F6
:10439000002808D1FFE746F6A040C2F201000078ED
:1043A000002808D0FFE747F21650C2F2010001785A
:1043B00001310170FFE728E047F21650C2F2010018
:1043C0000078022820D1FFE746F69E40C2F20100A5
:1043D0000078002817D1FFE746F69F40C2F201009F
:1043E000007800280FD1FFE746F6A040C2F2010096
:1043F0000078002807D1FFE747F21650C2F201000B
:1044000000210170FFE7FFE7FFE7FFE702F0B7BF1A
:1044100047F21550C2F201000078002840F0C48035
:10442000FFE747F21550C2F2010001780131017037
:1044300001201DF043F91BF0F0FF05201DF068FC82
:10444000FF21EE9008461DF007FCDC2078214FF498
:104450008872ED900846ED9BEC911946DDF8B0C3EB
:10446000EB926246EB9B1CF035FBF020EA90ED9955
:10447000EA9AEB9B1CF02EFB4FF4B470E990ED9997
:10448000E99AEB9B1CF026FB40F69C50C2F201001F
:10449000807C002809D0FFE743F2B400C0F6050095
:1044A000C8213C221CF0CAF908E043F2A000C0F683
:1044B0000500C8213C221CF0C1F9FFE743F2C80007
:1044C000C0F605004121D722E890E7921CF0B6F92A
:1044D000B921E898E79A1CF0B1F943F2DC00C0F684
:1044E000050040F23111E79A1CF0A8F943F28C0064
:1044F000C0F605004FF4C871BE221CF09FF94AF6C1
:10450000D050C0F603001DF0B5FB4AF2FF51E69013
:1045100008461DF0A1FB02201DF00CFC0C21E590CB
:1045200008461DF0FDFB0521FA22E49008461146DD
:10453000E3921CF009FD43F64311C0F60501E29039
:1045400008461CF0C9F88720E3991CF0FDFC43F2F3
:10455000FB51C0F60501E19008461CF0BDF8FF20B4
:10456000E3991CF0F1FC43F6A211C0F60501E090BE
:1045700008461CF0B1F801201DF012F947F217505F
:10458000C2F201000021017047F21350C2F2010093
:10459000017047F21650C2F20100017047F2145048
:1045A000C2F2010001705DE047F21550C2F2010055
:1045B000007801283CD1FFE746F69F40C2F2010097
:1045C0000078002833D0FFE740F69C50C2F201008B
:1045D000807C00280ED1FFE740F69C50C2F201001B
:1045E0000121817408F0ACF940F62051C2F20101BA
:1045F000086014E040F69C50C2F20100807C002864
:104600000CD0FFE740F69C50C2F2010000218174FB
:1046100040F62050C2F201000160FFE7FFE747F2D9
:104620001550C2F20100017801310170FFE718E076
:1046300047F21550C2F201000078022810D1FFE7BE
:1046400046F69F40C2F201000078002807D1FFE73C
:1046500047F21550C2F2010000210170FFE7FFE7A9
:10466000FFE7FFE702F08BBE01201DF027F847F2BD
:104670001750C2F201000078002840F09F80FFE749
:1046800047F21750C2F20100017801310170002099
:10469000DF901DF013F8DF981DF0C4FADF99DE906B
:1046A00008461DF0D9FA1BF0B8FE41F69010C9F289
:1046B0000500DF99DF9A1BF089FD0921DD9008468E
:1046C0001DF026FB47F22571C2F20101097840F284
:1046D000A872C2F2010252F82110DC9008461DF0C7
:1046E000BBFA4FF4BE704FF4F0716423DF9ADB9194
:1046F0001146DB9A1BF0A0FE4FF4C8704FF4E17135
:104700001422DA90D9911146D99BD8921A46D89B97
:104710001CF0E0F92820DA99D7900846D799D99A61
:10472000D79B1CF0D7F93C20DA99D6900846D69949
:10473000D99AD69B1CF0CEF94FF4AF705021B42219
:10474000DB9BD5921A46D59B1BF076FE4FF49B70EF
:104750004FF4D272CD23D5991BF06EFEDF981DF079
:104760001FF801201DF05EFA4FF07F41D4900846FB
:104770001DF070FA1BF051FEFEF746FAFDF730FD12
:1047800046F69850C2F20100016841F480110160C0
:1047900047F21350C2F20100DF99017047F2165040
:1047A000C2F20100017047F21550C2F2010001701F
:1047B00047F21450C2F201000170C2E147F21750F3
:1047C000C2F201000078012840F0BA81FFE746F606
:1047D0009540C2F20100007800281AD0FFE746F6A3
:1047E0008D40C2F201000078002812D1FFE746F6A2
:1047F0008D40C2F201000121017016F015FA47F652
:10480000DC60C2F20100702113F0E6FCFEF7FCF957
:1048100017E046F69540C2F20100007800280FD15B
:10482000FFE746F68D40C2F201000078002807D06D
:10483000FFE746F68D40C2F2010000210170FFE75C
:10484000FFE746F69440C2F20100007800281AD033
:10485000FFE746F68C40C2F201000078002812D132
:10486000FFE746F68C40C2F201000121017016F00C
:10487000CFF947F6DC60C2F20100702113F0ACFC06
:10488000FEF7C2F917E046F69440C2F20100007844
:1048900000280FD1FFE746F68C40C2F201000078F5
:1048A000002807D0FFE746F68C40C2F20100002145
:1048B0000170FFE7FFE746F69850C2F201008078EA
:1048C000C006002840F19A80FFE746F69850C2F2F1
:1048D0000100016821F4801101604FF4CD70B9210D
:1048E0004FF4F072EB23D3921BF0A6FD4FF49B70B4
:1048F000E621FF23D39A1BF09FFD47F6DC60C2F24E
:1049000001000078002805D0FFE74FF47F401DF03C
:10491000A3F903E0FF201DF09FF9FFE74EF6B0304A
:10492000C0F603001DF0A6F94FF4CD71AA22D29073
:10493000084611461CF008FB0C21D19008461DF0DA
:10494000EFF947F6DC61C2F201010978002907D0CE
:10495000FFE743F64600C0F605001BF0BDFE06E08B
:1049600043F27F70C0F605001BF0B6FEFFE74FF480
:104970009B70F2211CF0E8FA48F2A061C0F6030136
:10498000D09008461DF076F90C21CF900846CE91C4
:104990001DF0C6F96FF07F41CD9008461DF05CF91F
:1049A00040F29F10DC211CF0CFFA49F63821C0F606
:1049B0000301CC9008461DF05DF9CE99CB900846D6
:1049C0001DF0AEF947F6DC61C2F20101B1F9021047
:1049D00046F26762C6F2666251FB02F18A1002EB90
:1049E000D1710322CA90084611461BF05DFE43F6C2
:1049F000DC10C0F605001BF06FFEFFE707F0A0FF1C
:104A000047F2D061C2F201010968401AB0F57A7F1D
:104A1000C0F09580FFE707F093FF47F2D061C2F244
:104A20000101086040F62850C2F20100016801311E
:104A300001600B2919D3FFE740F62850C2F20100AC
:104A40000021016046F69850C2F20100807880078C
:104A5000002809D4FFE746F69850C2F20100016829
:104A600041F480110160FFE7FFE746F69850C2F27B
:104A7000010040780006002860D5FFE747F2681083
:104A8000C2F2010047F2B861C2F201010122C990ED
:104A9000C891C7920CF000F847F2B461C2F201016C
:104AA000C99AC6901046C79A0BF0B6FF0DF5BD61C6
:104AB0000222C5900846C89BC4911946C3920CF0C7
:104AC000D7FF3A208DF8EA05C4980330C899013120
:104AD000C39A0CF0CDFF00208DF8ED054CF6004197
:104AE000C0F60301C29008461DF0C4F86FF07F4184
:104AF000C19008461DF0B0F8C3981DF01BF90C21B9
:104B0000C09008461DF00CF90521F522BF9008461B
:104B100011461CF019FAC799BE9008461CF0CEFD4C
:104B2000DC2164224FF48773C2981BF085FCC49883
:104B30001BF0D2FDC7981CF033FEFFE7FFE7FFE74D
:104B4000FFE701201CF02CFE47F6D860C2F20100FE
:104B50000068002839D0FFE7FDF7F6FF07F0F0FE08
:104B600047F6D861C2F201010968401AB0F5FA6F40
:104B70002AD9FFE747F6D860C2F2010000210160A0
:104B800047F21750C2F20100017047F6DC60C2F232
:104B900001000078002808D0FFE747F6DC60C2F289
:104BA00001000021C173017006E047F6DC60C2F22B
:104BB000010002210170FFE747F6DC60C2F201004C
:104BC000702113F009FBFFE7FFE702F0D8BB0020DC
:104BD000BD901DF027F8BC901BF01FFC0120BB907E
:104BE0001DF020F84FF07F41BA9008461DF032F8D2
:104BF0001BF013FC0520FDF7E3FF47F22470C2F21F
:104C00000100BB99017040F61450C2F20100BD9A38
:104C1000026040F62450C2F20100016047F21750D2
:104C2000C2F20100027047F21350C2F2010002709A
:104C300047F21650C2F20100027047F21550C2F25C
:104C40000100027047F21450C2F20100027047F2F4
:104C50001250C2F20100027040F61850C2F2010078
:104C6000027040F63050C2F20100027046F6A340D6
:104C7000C2F20100027046F6A140C2F201000270C9
:104C800047F2F820C2F20100027040F65B00C2F267
:104C90000100017002F073BB47F6DC60C2F2010054
:104CA000007846F6BC61C2F201010968B990084675
:104CB00020F07AFAB999814214D0FFE746F6BC6039
:104CC000C2F20100006820F06FFA47F6DC61C2F220
:104CD0000101087040F63050C2F201000178013144
:104CE00001704DE147F6DC60C2F20100807B46F6C0
:104CF0008061C2F201010968B890084620F054FAB8
:104D0000B899814214D0FFE746F68060C2F20100F4
:104D1000006820F049FA47F6DC61C2F201018873AD
:104D200040F63050C2F2010001780131017026E1F5
:104D300047F6DC60C2F20100007B46F6C861C2F2B1
:104D400001010968B790084620F072FFB7998142C7
:104D50001DD0FFE746F6C860C2F201000168B690B8
:104D6000084620F065FFC0B215F0CEFFB698006887
:104D700047F6DC61C2F20101097B20F094FF40F6A6
:104D80003050C2F20100017801310170F6E047F6BF
:104D9000DC60C2F20100407B46F6CC61C2F2010148
:104DA0000968B590084620F043FFB59981421DD0AF
:104DB000FFE746F6CC60C2F201000168B4900846F5
:104DC00020F036FFC0B215F0CFFFB498006847F668
:104DD000DC61C2F20101497B20F065FF40F63050F2
:104DE000C2F20100017801310170C6E047F6DC60D3
:104DF000C2F20100007C46F68461C2F2010109683A
:104E0000B390084620F014FFB399814214D0FFE715
:104E100046F68460C2F20100006820F009FF47F600
:104E2000DC61C2F20101087440F63050C2F20100A8
:104E30000178013101709FE047F6DC60C2F20100A9
:104E4000407C46F68C61C2F201010968B2900846C6
:104E500020F0EEFEB299814214D0FFE746F68C6056
:104E6000C2F20100006820F0E3FE47F6DC61C2F206
:104E70000101487440F63050C2F20100017801315E
:104E8000017078E047F6DC60C2F20100807C46F6F3
:104E90008861C2F201010968B190084620F0C8FE9D
:104EA000B199814214D0FFE746F68860C2F2010052
:104EB000006820F0BDFE47F6DC61C2F20101887493
:104EC00040F63050C2F2010001780131017051E02A
:104ED00047F6DC60C2F20100807D46F6C061C2F296
:104EE00001010968B090084620F0A2FEB099814205
:104EF00013D0FFE746F6C060C2F20100006820F060
:104F000097FE47F6DC61C2F20101887540F6305029
:104F1000C2F20100012101702BE047F6DC60C2F211
:104F20000100C07D00F0010046F6C461C2F201013B
:104F30000968AF90084619F0F3F9AF99814217D08C
:104F4000FFE746F6C460C2F20100006819F0E8F914
:104F5000002818BF012047F6DC61C2F20101C875C4
:104F600040F63050C2F201004FF001010170FFE73E
:104F7000FFE7FFE7FFE7FFE7FFE7FFE7FFE7FFE701
:104F800046F6D850C2F20100006819F045F8002832
:104F900023D0FFE740F63050C2F20100007800282D
:104FA0000CD0FFE747F6DC60C2F201007021AE9042
:104FB00013F012F90120AE994876FFE740F6305021
:104FC000C2F201000021017004F09AFC47F2247043
:104FD000C2F201000721017015E046F6D450C2F27A
:104FE0000100006819F018F800280BD0FFE704F062
:104FF00087FC02F0BDFE47F22470C2F201000A21D4
:105000000170FFE7FFE702F0BAB940F69C50C2F228
:105010000100007946F6C051C2F201010968AD9065
:10502000084620F005FEAD99814221D0FFE746F603
:10503000C050C2F20100006820F0FAFD40F69C5119
:10504000C2F2010108710879002809D1FFE746F68C
:10505000AC50C2F201000068002120F024FEFFE7FE
:1050600040F61850C2F20100017801310170FFE7EB
:1050700040F69C50C2F20100007A46F6C451C2F2DA
:1050800001010968AC90084620F0D2FDAC9981423C
:1050900021D0FFE746F6C450C2F20100006820F0BC
:1050A000C7FD40F69C51C2F201010872087A00283F
:1050B00009D1FFE746F6B050C2F2010000680021B6
:1050C00020F0F1FDFFE740F61850C2F20100017830
:1050D00001310170FFE740F69C50C2F20100007BF5
:1050E00046F6C851C2F201010968AB90084620F0AB
:1050F0009FFDAB99814221D0FFE746F6C850C2F22E
:105100000100006820F094FD40F69C51C2F20101BC
:105110000873087B002809D1FFE746F6B450C2F2B5
:1051200001000068002120F0BEFDFFE740F61850A6
:10513000C2F20100017801310170FFE740F69C5096
:10514000C2F20100007C46F6D051C2F201010968AA
:10515000AA90084620F06CFDAA99814221D0FFE771
:1051600046F6D050C2F20100006820F061FD40F622
:105170009C51C2F201010874087C002809D1FFE7A4
:1051800046F6BC50C2F201000068002120F08BFD01
:10519000FFE740F61850C2F20100017801310170BA
:1051A000FFE740F69C50C2F20100007D46F67061B8
:1051B000C2F201010968A990084620F039FDA999B9
:1051C000814214D0FFE746F67060C2F20100006829
:1051D00020F02EFD40F69C51C2F20101087540F608
:1051E0001850C2F20100017801310170FFE740F66A
:1051F0009C50C2F20100007E46F67461C2F20101C9
:105200000968A890084620F013FDA899814214D09F
:10521000FFE746F67460C2F20100006820F008FD66
:1052200040F69C51C2F20101087640F61850C2F2D5
:105230000100017801310170FFE740F69C50C2F295
:105240000100007F46F67861C2F201010968A7906B
:10525000084620F0EDFCA799814214D0FFE746F6FE
:105260007860C2F20100006820F0E2FC40F69C5138
:10527000C2F20101087740F61850C2F2010001782D
:1052800001310170FFE740F6E050C2F20100007802
:1052900046F6B851C2F201010968A690084620F00E
:1052A000C7FCA699814214D0FFE746F6B850C2F277
:1052B0000100006820F0BCFC40F6E051C2F20101A0
:1052C000087040F61850C2F20100017801310170F7
:1052D000FFE740F6E050C2F20100007946F6AC511B
:1052E000C2F201010968A590084620F0A1FCA59929
:1052F000814214D0FFE746F6AC50C2F201000068CC
:1053000020F096FC40F6E051C2F20101087140F62F
:105310001850C2F20100017801310170FFE740F638
:10532000E050C2F20100007A46F6B051C2F201012B
:105330000968A490084620F07BFCA499814214D00F
:10534000FFE746F6B050C2F20100006820F070FCA2
:1053500040F6E051C2F20101087240F61850C2F264
:105360000100017801310170FFE740F6E050C2F220
:105370000100007B46F6B451C2F201010968A39016
:10538000084620F055FCA399814214D0FFE746F669
:10539000B450C2F20100006820F04AFC40F6E0512F
:1053A000C2F20101087340F61850C2F20100017800
:1053B00001310170FFE740F6E050C2F20100007CCD
:1053C00046F6BC51C2F201010968A290084620F0DD
:1053D0002FFCA299814214D0FFE746F6BC50C2F2DE
:1053E0000100006820F024FC40F6E051C2F2010107
:1053F000087440F61850C2F20100017801310170C2
:10540000FFE746F6D850C2F20100006818F004FE2B
:10541000002800F08080FFE740F63050C2F2010023
:10542000007800280ED0FFE740F63050C2F20100AD
:105430000021017047F6DC60C2F20100702112F019
:10544000CBFEFFE740F61850C2F2010000780028BA
:1054500015D0FFE740F61850C2F20100002101709C
:1054600040F69C50C2F20100302112F0CDFD40F612
:10547000E050C2F20100502112F0C6FDFFE747F2F2
:105480001150C2F2010000788DF8E00547F270007B
:10549000C2F2010000788DF8E10547F22C70C2F2EB
:1054A000010000788DF8E20547F22770C2F2010092
:1054B00000788DF8E30547F22670C2F2010000780B
:1054C0008DF8E40547F22570C2F2010000788DF8EE
:1054D000E50546F69850C2F20100807840070028A2
:1054E00004D5FFE701208DF8E60503E000208DF8E4
:1054F000E605FFE70DF5BC600A210722A19205F041
:10550000BBF8A09004F04CFA47F22470C2F20100FC
:10551000A199017015E046F6D450C2F2010000686E
:1055200018F07AFD00280BD0FFE704F039FA02F0FA
:105530001FFC47F22470C2F201000A210170FFE74C
:10554000FFE701F01CBF47F2B860C2F2010000782B
:1055500046F69C61C2F2010109689F90084620F05E
:1055600067FBC0B204F09CFC9F9981421FD0FFE70B
:1055700046F69C60C2F20100006820F059FBC0B200
:1055800004F08EFC47F2B861C2F20101087047F2E4
:105590006810C2F2010001220BF022FC46F698517D
:1055A000C2F201010A6842F400420A60FFE747F2D2
:1055B000B860C2F20100407846F6A061C2F2010173
:1055C00009689E90084620F033FBC0B204F068FCE6
:1055D0009E9981421FD0FFE746F6A060C2F201000B
:1055E000006820F025FBC0B204F05AFC47F2B86115
:1055F000C2F20101487047F26810C2F201000122B4
:105600000BF0EEFB46F69851C2F201010A6842F433
:1056100000420A60FFE747F2B460C2F201008078FE
:1056200046F69061C2F2010109689D90084620F09B
:10563000FFFAC0B204F034FC9D9981421FD0FFE70D
:1056400046F69060C2F20100006820F0F1FAC0B2A4
:1056500004F026FC47F2B461C2F20101887047F2FF
:105660006810C2F2010001220BF0F2FA46F69851DE
:10567000C2F201010A6842F400420A60FFE747F201
:10568000B460C2F20100407846F6A461C2F20101A2
:1056900009689C90084620F0CBFAC0B204F000FCE8
:1056A0009C9981421FD0FFE746F6A460C2F2010038
:1056B000006820F0BDFAC0B204F0F2FB47F2B4611A
:1056C000C2F20101487047F26810C2F201000122E3
:1056D0000BF0BEFA46F69851C2F201010A6842F494
:1056E00000420A60FFE747F2B460C2F20100C078EE
:1056F00046F6B861C2F2010109689B90084620F0A5
:1057000097FAA0F5FA60C0B204F0CAFB9B998142F7
:1057100021D0FFE746F6B860C2F20100006820F031
:1057200087FAA0F5FA60C0B204F0BAFB47F2B461A0
:10573000C2F20101C87047F26810C2F201000122F2
:105740000BF086FA46F69851C2F201010A6842F45B
:1057500000420A60FFE747F2B460C2F2010000783D
:1057600046F67C61C2F2010109689A90084619F078
:105770002AF90130C0B204F093FB9A99814220D0FB
:10578000FFE746F67C60C2F20100006819F01BF9E1
:105790000130C0B204F084FB47F2B461C2F20101EF
:1057A000087047F26810C2F2010001220BF050FAB3
:1057B00046F69851C2F201010A6842F400420A60BA
:1057C000FFE747F22570C2F20100007846F6A861B3
:1057D000C2F2010109689990084620F029FA9999C6
:1057E00081421ED0FFE746F6A860C2F201000068C1
:1057F00020F01EFA47F22571C2F201010870087804
:1058000040F2A871C2F2010151F820001CF024FA04
:105810004FF4AA7033214FF4D7723B231BF06CFA7C
:10582000FFE746F6EC50C2F20100006818F06AFD8E
:10583000012809D1FFE746F69850C2F2010001683D
:1058400041F48021016008E046F69850C2F2010060
:10585000016821F480210160FFE746F69460C2F2FE
:105860000100006820F0E4F947F27001C2F2010182
:10587000087046F69860C2F20100006820F0D8F97E
:1058800047F21151C2F20101087046F6B460C2F24B
:105890000100006820F0CCF947F22C71C2F201013E
:1058A000087046F6B060C2F20100006820F0C0F94E
:1058B00047F22771C2F20101087046F6AC60C2F2ED
:1058C0000100006820F0B4F947F22671C2F201012C
:1058D000087046F6A860C2F20100006820F0A8F93E
:1058E00047F22571C2F20101087046F6D850C2F2A3
:1058F0000100006818F090FB002800F08C80FFE7A2
:1059000040F63050C2F20100007800280ED0FFE7C8
:1059100040F63050C2F201000021017047F6DC6011
:10592000C2F20100702112F057FCFFE740F6185058
:10593000C2F201000078002815D0FFE740F61850A9
:10594000C2F201000021017040F69C50C2F2010039
:10595000302112F059FB40F6E050C2F20100502114
:1059600012F052FBFFE747F21150C2F2010000783B
:105970008DF8E00547F27000C2F2010000788DF862
:10598000E10547F22C70C2F2010000788DF8E205C3
:1059900047F22770C2F2010000788DF8E30547F264
:1059A0002670C2F2010000788DF8E40547F22570F8
:1059B000C2F2010000788DF8E50546F69850C2F273
:1059C000010080784007002804D5FFE701208DF80A
:1059D000E60503E000208DF8E605FFE70DF5BC6065
:1059E0000A210722989204F047FE47F6D761C2F2D7
:1059F0000101202201239790084611461A4604F01F
:105A00003BFE969004F038F847F22470C2F2010091
:105A10009899017015E046F6D450C2F20100006872
:105A200018F0FAFA00280BD0FFE704F025F802F08E
:105A3000A7FD47F22470C2F201000D210170FFE7BB
:105A4000FFE701F09CBC47F21250C2F2010000785F
:105A5000002810D1FFE747F21250C2F2010001788E
:105A6000013101701AF0D9FC46F69C40C2F20100E7
:105A70003C2101709BE047F21250C2F20100007815
:105A8000012840F09380FFE706F05AFF46F6984160
:105A9000C2F201010968401AB0F57A7FC0F0858032
:105AA000FFE706F04DFF46F69841C2F2010108609B
:105AB000FDF74AF801201BF001FE002032214FF4CF
:105AC000F072C8231AF0B8FC46F69C40C2F20100FE
:105AD0000078062805DBFFE74FF47F401CF0BCF898
