:020000040800F2
:1000000000A20320DD010008E90C010891EA0008C4
:10001000E10C0108E1130008D98701080000000085
:10002000000000000000000000000000EF010008D8
:10003000F91F000800000000F3010008C95401087E
:10004000F7010008F7010008F7010008F7010008B0
:10005000F7010008F7010008F7010008F7010008A0
:10006000F7010008F7010008F7010008F701000890
:10007000F7010008F7010008F7010008F701000880
:10008000F7010008F7010008F7010008F701000870
:10009000F7010008F7010008F7010008F701000860
:1000A000F7010008F7010008F7010008F701000850
:1000B000F7010008F7010008F7010008F701000840
:1000C000F7010008F7010008F7010008F701000830
:1000D000F7010008B9870108C9870108F70100087E
:1000E000F7010008F7010008F7010008F701000810
:1000F000F7010008F7010008F7010008F701000800
:10010000F7010008F7010008F7010008F7010008EF
:10011000F7010008F7010008F7010008F7010008DF
:10012000F7010008F7010008F7010008F7010008CF
:10013000F7010008F7010008F7010008F7010008BF
:10014000F7010008F7010008F7010008F7010008AF
:10015000F7010008F7010008F7010008F70100089F
:10016000F7010008F7010008F7010008F70100088F
:10017000F7010008F7010008F7010008000000007F
:10018000F7010008F7010008F7010008F70100086F
:10019000F7010008F7010008F7010008F70100085F
:1001A000D1000108F701000819280008F70100082C
:1001B000C91C0108F7010008F7010008F701000851
:1001C000F7010008F7010008DFF80CD000F088FB09
:1001D0000048004729A3010800A2032006488047E1
:1001E00006480047FEE7FEE7FEE7FEE7FEE7FEE71C
:1001F000FEE7FEE7FEE7FEE789560108C9010008B1
:10020000002800DA4042704710B5441A0346944271
:1002100009D28318114403E011F8014D03F8014D90
:10022000521EF9D210BD40EA0104A40703D009E030
:1002300010C9121F10C3042AFAD203E011F8014BAF
:1002400003F8014B521EF9D210BDD2B201E000F802
:10025000012B491EFBD270470022F6E710B513466A
:100260000A4604461946FFF7F0FF204610BD421C1F
:1002700010F8011B0029FBD1801A704730B50446E5
:100280000020034600E05B1C934203D2E05CCD5C9F
:10029000401BF8D030BD034611F8012B00F8012BAC
:1002A000002AF9D1184670472DE9FE4F804681EAB1
:1002B0000300C00F0C46009021F0004123F00045E0
:1002C000B8EB0200A94105D24046214690461C46A3
:1002D0000B46024623F00040104347D0270DC7F3DA
:1002E0000A00C3F30A510290401A019040286BDAC9
:1002F000C3F3130040F4801B0098924620B1002302
:10030000D2EB030A63EB0B0B01985946C0F1400294
:10031000504600F0D8F906460D4650465946019A17
:1003200000F0F0F910EB08006141002487EA115257
:1003300084EAE7731A4340D0009A62B3019A012A13
:100340004FEA075215DC001B61EB02014FF000423F
:1003500002EA0752CDE90042001C41F58011324605
:100360002B4600F027FA03B0BDE8F08F4046214647
:10037000F9E7001B61EB0201001C41F58013001836
:100380005B412018A2F5001747EB030140EAD57046
:10039000B6196D4111E06D084FEA360645EAC075A1
:1003A0004FEA0752001B61EB0201001C41F580116E
:1003B00049084FEA30000019514132462B4603B03C
:1003C000BDE8F04F00F0E7B900980122400000239B
:1003D000D0EB020263EBE073009821464FEAE07431
:1003E000B8EB000061EB0401E9E783F000435BE751
:1003F00081F0004158E72DE9FE4F81EA030404F043
:10040000004421F0004100944FF0000B23F0004322
:1004100050EA01045ED052EA03045BD0C3F30A54ED
:10042000C1F30A552C44A4F2F3340194A0FB025406
:10043000C1F3130141F48011C3F3130343F4801398
:1004400001FB024400FB034E840A970A44EA8154EC
:1004500047EA8357A4FB076802958D0A05FB0785C9
:100460004FEA932C04FB0C542705029D4FEA0658D3
:1004700047EA1637B5EB08056EEB070C870E920EB0
:1004800047EA811742EA8312A7FB0201B6EB0B0190
:1004900064EB00042B0D43EA0C335E1844EB1C5054
:1004A000DA465146E7FB0201C5F313044FEA0B336A
:1004B00043EA14534FEA0432019C43EA0603A4F1D1
:1004C0000C040294009CCDE900B400F073F903B071
:1004D000BDE8F08F00200146F9E72DE9F04D81EAF3
:1004E000030404F0004B21F0004514464FF0000ACD
:1004F00023F0004150EA050220D054EA01021DD049
:10050000C5F30A570246C5F31303C1F31300C1F341
:100510000A5640F4801543F48013A7EB0608101B1D
:10052000D64608F2FD3873EB050002D308F1010846
:1005300001E092185B41B8F1000F03DA0020014698
:10054000BDE8F08D00204FF48011064684460EE091
:10055000171B73EB050705D3121B63EB050306435B
:100560004CEA010C49084FEA300092185B4150EA0E
:100570000107EDD152EA030012D082EA040083EAB7
:100580000501084305D0101BAB4106D20122002310
:1005900006E000224FF0004302E06FF0010253102A
:1005A0001AEB06004CEB085110EB0A0041EB0B0173
:1005B000BDE8F04D00F0EFB80EB5C10F80EAE07075
:1005C0000844CA07002140F233438DE80E000A4672
:1005D0000B4600F0EFF803B000BD00F0004230F031
:1005E00000400AD0C10D01F56071C0F3160042EA67
:1005F0000151C2084007114370470020014670476F
:1006000001F0004330B421F0004150EA010206D06D
:100610000A0DA2F56072C1F31301002A02DC30BC9E
:1006200000207047440F44EAC104C100E01830BC08
:1006300000EBC25000F078B830B50B460146002000
:100640002022012409E021FA02F59D4205D303FA94
:1006500002F5491B04FA02F52844151EA2F1010215
:10066000F1DC30BD2DE9F05F0546002092469B4647
:1006700088460646814640241BE0284641464746B8
:10068000224600F02FF853465A46C01A914110D323
:1006900011461846224600F016F82D1A67EB01089D
:1006A0004F4622460120002100F00DF817EB00090B
:1006B0004E41201EA4F10104DFDC484631462A46A3
:1006C0004346BDE8F09F202A04DB203A00FA02F1FD
:1006D000002070479140C2F1200320FA03F3194330
:1006E00090407047202A04DB203A21FA02F00021D2
:1006F000704721FA02F3D040C2F120029140084332
:1007000019467047202A06DBCB17203A41FA02F03F
:1007100043EAE07306E041FA02F3D040C2F120025E
:1007200091400843194670470029A8BF7047401CF4
:10073000490008BF20F00100704710B4B0FA80FCF7
:1007400000FA0CF050EA010404BF10BC704749B134
:10075000CCF1200421FA04F411FA0CF118BF0121A4
:1007600021430843A3EB0C01CB1D4FEA00614FEA84
:10077000102042BF002010BC704700EBC350104453
:100780000029A4BF10BC7047401C490008BF20F0DE
:10079000010010BC704710B5141E73F1000408DA94
:1007A000401C41F1000192185B411A4301D120F035
:1007B000010010BD2DE9F04D92469B4611B1B1FAF2
:1007C00081F202E0B0FA80F220329046FFF77BFF20
:1007D00004460F4640EA0A0041EA0B0153465A46D6
:1007E000084313D0114653EA010019D0C8F1400262
:1007F0005046FFF777FF05460E465046594642469B
:10080000FFF761FF084305D0012004E02046394688
:10081000BDE8F08D0020054346EAE0762C433743DF
:100820000A986305E40AA0EB08000022FD0A44EAE6
:1008300047540A3002D500200146E9E701051019A6
:100840006941DDE9084500196941BDE8F04DA2E7BD
:10085000C1F30A52C1F3130140F2FF3341F4801196
:100860009A4202DA00200146704740F233439A422E
:10087000A2F2334202DC5242FFF734BFFFF723BF3C
:1008800030B5041E71F1000404DB4FF00044404217
:1008900064EB0101141E73F1000405DB1C464FF0EC
:1008A0000043524263EB04038B4208BF824230BDD7
:1008B00030B5041E71F1000404DB4FF000444042E7
:1008C00064EB0101141E73F1000405DB1C464FF0BC
:1008D0000043524263EB0403994208BF904230BD8B
:1008E000064C074D06E0E06840F0010394E807007D
:1008F00098471034AC42F6D3FFF76AFC9C17060801
:10090000CC17060870B58C1810F8015B15F00703BA
:1009100001D110F8013B2A1106D110F8012B03E098
:1009200010F8016B01F8016B5B1EF9D12B0705D4A0
:100930000023521E0DD401F8013BFAE710F8013BE9
:10094000CB1A921C03E013F8015B01F8015B521E05
:10095000F9D5A142D8D3002070BD000000000000EE
:1009600080B58CB006A8049017F05AF80B900B983D
:1009700017F09AF808B9FFE7F4E007F035F941F607
:10098000A021C2F201010968401AB0F5AC7F40F223
:10099000E980FFE707F028F941F6A021C2F2010142
:1009A000086040F29470C2F201000078C00700288D
:1009B00048D0FFE740F29471C2F2010100200870B4
:1009C0000A908DF82700FFE79DF82700092825DC0D
:1009D000FFE748F60020C2F20100039006F098F805
:1009E00003980A2106F008F8039805F0A1FF0146D4
:1009F0009DF8272041F6AC20C2F2010020F8121029
:100A00009DF8271030F811100A9808440A90FFE763
:100A10009DF8270001308DF82700D5E70A984CF69D
:100A2000CD41CCF6CC41A0FB0110C0080A90BDF826
:100A3000280011F089F941F6A420C2F2010080EDEE
:100A4000000AFFE748F60020C2F20100029006F01B
:100A50005FF802980A2105F0CFFF029805F068FFC1
:100A600041F6A821C2F201010B6841F6AC22C2F2A4
:100A7000010222F813000868013008600A2807D331
:100A8000FFE741F6A821C2F2010100200860FFE75C
:100A9000002008908DF81F00FFE79DF81F0009282F
:100AA00012DCFFE79DF81F1041F6AC20C2F20100F6
:100AB00030F81110089808440890FFE79DF81F00CF
:100AC00001308DF81F00E8E708984CF6CD41CCF6D0
:100AD000CC41A0FB0110C00808900898642805D3F9
:100AE000FFE70898B0F57A6F0BD9FFE70B98002164
:100AF0000191012217F0E8F801990B9817F0C0F85E
:100B00002FE00B980121002217F0DEF8BDF820003D
:100B100011F01AF9049981ED000A41F6A420C2F2FD
:100B2000010090ED001A91ED000A9FED0F2A20EED2
:100B3000020A9FED0E2AA1EE020A80ED000A90ED56
:100B4000000AB2EE041A20EE010ABDEEC00A10EE51
:100B5000100AADF816000B98BDF9161017F090F8B2
:100B6000FFE7FFE70CB080BDCDCCCC3D6666663FAD
:100B700081B0009042F20431C4F20101086820F40F
:100B80004030086000984268086810430860009888
:100B90000168486820F48070486000980168026924
:100BA000486840EA0220486000980168486820F0E0
:100BB0004070486000980168826848681043486047
:100BC00000980168886820F40060886000980168D7
:100BD000C2688868104388600098806A0121C0F666
:100BE0000071884219D0FFE700980168886820F0FA
:100BF0007060886000980168826A88681043886025
:100C000000980168886820F040508860009801686A
:100C1000C26A8868104388600CE0009801688868A0
:100C200020F07060886000980168886820F040506B
:100C30008860FFE700980168886820F002008860FB
:100C4000009801688269886840EA420088600098DC
:100C5000006AC8B1FFE700980168486840F4006086
:100C6000486000980168486820F460404860009837
:100C70000168426A4EF20000CFF6FF7000EB42328C
:100C800048681043486006E000980168486820F40E
:100C900000604860FFE700980168C86A20F47000AF
:100CA000C86200980168C2690020CFF6F07000EBBE
:100CB0000252C86A1043C86200980168886820F42C
:100CC0000070886000980168026B886840EA4220E2
:100CD000886000980168886820F4806088600098C7
:100CE00001684269886840EA8220886001B07047E4
:100CF00080B586B004908DF80F1002928DF8073001
:100D0000049890F84204202804DBFFE700208DF8C7
:100D1000170032E09DF80F00049991F8412402EB8E
:100D2000021201F81200049890F8411401EB01112D
:100D300000EB4100013002999DF80720FFF764FAAB
:100D40009DF80700049991F8412402EB021201EB8F
:100D5000420181F82100049991F84104013000F02A
:100D60001F0081F84104049991F84204013081F890
:100D7000420401208DF81700FFE79DF8170006B028
:100D800080BD00000000000080B584B00390029197
:100D900002984068C078062818D1FFE7029840689A
:100DA0000178407840EA0120ADF8060002984068DA
:100DB00080780138B0FA80F040098DF80500BDF860
:100DC00006009DF805100EF063FEFFE7012004B059
:100DD00080BD00000000000010B588B00790002022
:100DE0000090069041F64C31C2F2010103910122BC
:100DF00002920A60102301934B608A60C86049F236
:100E00002060C2F2010005904FF6FF7204920BF0D1
:100E1000FBF9029806F078FB009BDDF808C0039907
:100E2000049A0598DDF804E002240C60C1F804E09F
:100E3000C1F808C0CB600BF0E7F9009BDDF804C0F7
:100E40000399049A05984FF0030EC1F800E0C1F829
:100E500004C04FF0080CC1F808C0CB600BF0D4F907
:100E6000DDF804C0029B0399049A05984FF4087EAC
:100E7000CDF818E04FF0040EC1F800E0C1F804C04E
:100E80008B60069BCB600BF0BFF9059807990BF0C0
:100E900097F908B010BD000080B598B01790169172
:100EA000FFE743F63800C4F20200016841F0010197
:100EB0000160006800F0010010901098FFE7FFE764
:100EC00043F63000C4F20200016841F48001016081
:100ED000006800F480000F900F98FFE7FFE743F6EB
:100EE0003000C4F20200016841F0010101600068B5
:100EF00000F001000E900E98FFE7FFE743F6300088
:100F0000C4F20200016841F004010160006800F0D1
:100F100004000D900D98FFE7FFE743F63000C4F2A0
:100F20000200016841F008010160006800F008005B
:100F30000C900C98FFE7FFE743F63000C4F2020084
:100F4000016841F010010160006800F010000B9092
:100F50000B98FFE7FFE743F63000C4F20200016898
:100F600041F020010160006800F020000A900A981A
:100F7000FFE7FFE743F63000C4F20200016841F0EA
:100F800040010160006800F0400009900998FFE707
:100F90004FF63F001190022002901290002007901F
:100FA00013900320069014900C200390159041F2AA
:100FB0000040C4F2020011A9049106F0EDFBDDF837
:100FC00008C003980499069A079B4FF0800ECDF84D
:100FD00014E0CDF844E0CDF848C013931492159076
:100FE0000020C4F2020006F0D7FBDDF808C0039829
:100FF0000499069A079B4FF0300ECDF844E0CDF8E7
:1010000048C013931492159040F60000C4F20200F9
:1010100006F0C2FBDDF808C003980499069A079B06
:1010200048F2331ECDF844E0CDF848C01393149233
:10103000159041F60000C4F2020006F0ADFBDDF8A9
:1010400008C003980499069A079B4FF6837ECDF853
:1010500044E0CDF848C013931492159041F200007B
:10106000C4F2020006F098FBDDF808C0039804996A
:10107000069A079B4CF2037ECDF844E0CDF848C0B9
:1010800013931492159040F60040C4F2020006F04B
:1010900083FB059B069A079841F6C021C2F2010125
:1010A000089148608B604FF40073CB604FF480630D
:1010B0000B614FF480534B614FF480438B61C861E7
:1010C0004FF400330B6248628A62C862086346F2DA
:1010D0001040C4F202000860FFE7179841F6C021F3
:1010E000C2F20101016317988863FFE741F6C0204F
:1010F000C2F20100009006F0D3F8009806F020F943
:10110000382001900F21002208F06AFA019808F0B7
:101110005BFA18B080BD000080B590B00F90002041
:101120008DF83B004AF2D010C2F20100006801695C
:1011300041F6D030C2F20100007888470F9908705C
:101140000F980078002800F03581FFE7002002901A
:10115000FFE702980F990978884280F02A81FFE71B
:101160004AF2D010C2F201000068436941F6D03063
:10117000C2F201000078DDF808C007A901EB4C01BC
:101180000DF1120202EB4C0298474AF2D410C2F25F
:1011900001000078012811D1FFE7029A07A830F872
:1011A00012000CA921F81200029A0DF1120030F879
:1011B00012000DF1260121F81200FFE74AF2D410C7
:1011C000C2F201000078800700280AD5FFE7029AE2
:1011D00007A830F81200C0F580500CA921F81200C1
:1011E000FFE74AF2D410C2F201000078400700285D
:1011F0000CD5FFE7029A0DF1120030F81200C0F58D
:1012000080500DF1260121F81200FFE74AF2D410B8
:10121000C2F2010000780007002811D5FFE7029A0A
:1012200007A830F812000DF1260121F81200029AE9
:101230000DF1120030F812000CA921F81200FFE79E
:10124000029A0CA830F8120041F62031C2F20101D6
:1012500051F8221088420DD9FFE7029A0CA830F805
:10126000120041F62031C2F2010151F82210401A59
:1012700001900CE0029A41F62030C2F2010050F8D1
:1012800022000CA931F81210401A0190FFE70198D2
:10129000ADF81000029A0DF1260030F8120041F668
:1012A0003431C2F2010151F8221088420ED9FFE711
:1012B000029A0DF1260030F8120041F63431C2F2E4
:1012C000010151F82210401A00900DE0029A41F6F7
:1012D0003430C2F2010050F822000DF1260131F83D
:1012E0001210401A0090FFE70098ADF80E00BDF80C
:1012F0001000BDF80E100844062816DBFFE7029A1E
:101300000CA830F8120041F62031C2F2010141F878
:101310002200029A0DF1260030F8120041F6343115
:10132000C2F2010141F82200FFE741F6D030C2F2DB
:1013300001000078702812D1FFE7029A0CA830F85B
:1013400012000F9901EB42014880029A0DF126002C
:1013500030F812000F9901EB4201888124E04AF233
:10136000D610C2F201000088029A41F62031C2F282
:10137000010151F822104843000B0F9901EB420183
:1013800048804AF2D810C2F201000088029A41F661
:101390003431C2F2010151F822104843000B0F9979
:1013A00001EB42018881FFE7FFE7029801300290DC
:1013B000CFE6FFE79DF83B0010B080BD00000000C5
:1013C00081B08DF803009DF80300010901EB810154
:1013D00000F00F0000EB4100C0B201B07047000008
:1013E00080B510F085FF80BD86B04EF69452CEF2E7
:1013F0000002106820F0050010604EF69851CEF201
:101400000001002008604EF69C53CEF2000310212C
:10141000C2F2010119604EF6A053CEF200033D2145
:10142000C0F20231196005211160BFF34F8FBFF385
:101430006F8F4EF65071CEF200010860BFF34F8FF0
:10144000BFF36F8F4EF61450CEF20000016841F4E6
:1014500080210160BFF34F8F00688003002801D511
:10146000FFE71AE0BFF34F8FBFF36F8F4EF6507157
:10147000CEF2000100200860BFF34F8FBFF36F8FE3
:101480004EF61451CEF20001086840F400300860B6
:10149000BFF34F8FBFF36F8FFFE74EF68451CEF24D
:1014A000000100200860BFF34F8F4EF68050CEF24F
:1014B0000000006802900298C0F34E300190FFE7F0
:1014C0000298C0F3C9000090FFE7019900988007D7
:1014D00061F34D104EF66071CEF200010860009885
:1014E000411E00910028F0D1FFE70198411E0191B3
:1014F0000028E5D1FFE7BFF34F8FBFF36F8F4EF6A4
:101500001450CEF200000068C003002801D5FFE7A8
:101510003CE04EF68451CEF2000100200860BFF39B
:101520004F8F4EF68050CEF200000068059005986F
:10153000C0F34E300490FFE70598C0F3C900039054
:10154000FFE704990398800761F34D104EF6607130
:10155000CEF2000108600398411E03910028F0D1EB
:10156000FFE70498411E04910028E5D1FFE7BFF38F
:101570004F8F4EF61451CEF20001086840F48030CF
:101580000860BFF34F8FBFF36F8FFFE706B0704760
:1015900084B0039002910192002000900090FFE738
:1015A00000980199B0EB510F11D2FFE70299009A10
:1015B00001EB820031F82210408840EA0140039993
:1015C00009680860FFE7009801300090E8E79DF89F
:1015D0000400C00740B1FFE70298009930F82100ED
:1015E000039909680880FFE703980068006804B061
:1015F000704700000000000084B003900291019247
:10160000002000900090FFE700980199B0EB910F47
:101610000DD2FFE70298009950F8210000BA039913
:1016200009680860FFE7009801300090ECE79DF83A
:1016300004008007E8B3FFE7019800F003000128E9
:1016400008D1FFE70298009910F821000399096872
:101650000870FFE7019800F0030002280DD1FFE7B2
:101660000299009A01EB820011F82210407840EABA
:101670000120039909680880FFE7019800F0030042
:10168000032815D1FFE70299009A01EB820011F8B7
:101690002210407840EA01200399096808800298E6
:1016A000009900EB81008078039909680870FFE7D2
:1016B000FFE703980068006804B07047000000006E
:1016C00080B5B6B006F090FA41F64831C2F2010199
:1016D0000968401A40F62911884262D3FFE706F0F4
:1016E00083FA41F64831C2F20101086048F63840F9
:1016F000C2F2010030A900220AF086FA41F6D13088
:10170000C2F201000078C007002849D1FFE79DF828
:10171000C20040F29571C2F201010978884237D1C6
:10172000FFE741F6D131C2F20101012001900870BA
:1017300024A802903021FEF78FFD0199029808221B
:101740002492299109F08CFD28B1FFE7A42098216B
:1017500004F022FDFFE703A800908421FEF77CFD42
:101760000098202103914FF400710F9108F044FF7D
:1017700028B1FFE7A420982104F00EFDFFE748F60A
:101780003840C2F201000AF04FF90FF0D5F8FFE738
:101790009DF8C20040F29571C2F201010870FFE7A6
:1017A000FFE736B080BD000080B582B08DF8030041
:1017B00000208DF802008DF80100FFE79DF8010080
:1017C0000F282ADCFFE79DF8011048F2DC20C2F266
:1017D000010000EB011000F06FF9B8B1FFE79DF8D0
:1017E00002009DF8031088420AD1FFE79DF801101E
:1017F00048F2DC20C2F2010000EB011001900FE082
:101800009DF8020001308DF80200FFE7FFE79DF828
:10181000010001308DF80100D0E700200190FFE7C2
:10182000019802B080BD000082B08DF803009DF8E1
:1018300003000F280ADCFFE79DF8031048F2DC20C4
:10184000C2F2010000EB0110019002E000200190C3
:10185000FFE7019802B0704748F2DD30C2F20100A4
:10186000807870470000000080B582B08DF80700D6
:1018700000F0F2F828B1FFE79DF8070000F038FA11
:1018800011E048F2D920C2F201000078FFF78CFF86
:101890000090009830B1FFE700989DF8071000F025
:1018A0002BF8FFE7FFE702B080BD0000000000005A
:1018B00080B582B001908DF803100198C8B1FFE7A0
:1018C000019800F0F9F8A0B1FFE701990020087332
:1018D0009DF803000199087106F086F90199886066
:1018E0000198806820B9FFE7019901208860FFE72F
:1018F000FFE702B080BD000080B582B001908DF896
:101900000310019808B9FFE715E0019800F0F0F81E
:1019100058B1FFE7019800799DF80310884204D17F
:10192000FFE7019800F060F805E001989DF80310CA
:10193000FFF7BEFFFFE702B080BD0000000000001F
:1019400048F2DC30C2F20100007848F2D921C2F23C
:10195000010108707047000081B08DF803009DF808
:10196000030048F2D921C2F20101087001B07047AA
:1019700080B582B000208DF80700FFE79DF80700D2
:101980000F2822DCFFE79DF8071048F2DC20C2F2A6
:10199000010000EB01100090009800F08DF808B9EC
:1019A000FFE70CE000980BF07BF90098007BC00784
:1019B00020B9FFE700980BF0DBF8FFE7FFE79DF8A1
:1019C000070001308DF80700D8E702B080BD0000A5
:1019D00081B08DF803009DF8030048F2DD31C2F2BA
:1019E0000101887001B0704781B00090009820B16B
:1019F000FFE7009900200871FFE701B07047000081
:101A000080B584B0ADF80E008DF80D10BDF80E0055
:101A100004F01AFD02900298D0B1FFE79DF80D0086
:101A2000029948719DF80D000299087106F0DCF8E2
:101A300020B1FFE706F0D8F8019002E00120019004
:101A4000FFE7019802998860029901200873FFE777
:101A500004B080BD0000000048F2D920C2F20100AD
:101A6000007848F2DC31C2F201010978401AB0FA7C
:101A700080F040097047000082B00190019820B1C9
:101A8000FFE701984088009002E000200090FFE707
:101A9000009880B202B0704782B00190019820B1E6
:101AA000FFE701980088009002E000200090FFE727
:101AB000009880B202B0704783B002900299002073
:101AC000019081B1FFE7029801880120009039B9A7
:101AD000FFE702984088002818BF01200090FFE728
:101AE00000980190FFE7019800F0010003B07047F3
:101AF00082B0019001990020009039B1FFE7019870
:101B00004079002818BF01200090FFE7009800F0FE
:101B1000010002B07047000082B0019001990020DE
:101B2000009041B1FFE7019840790238B0FA80F0A7
:101B300040090090FFE7009800F0010002B07047F4
:101B400082B0019001990020009041B1FFE7019817
:101B500040790138B0FA80F040090090FFE7009822
:101B600000F0010002B0704782B00190ADF80210A1
:101B7000019828B1FFE7BDF8020001994880FFE70E
:101B800002B070470000000082B00190ADF8021072
:101B9000019828B1FFE7BDF8020001990880FFE72E
:101BA00002B070470000000080B582B048F2DC311E
:101BB000C2F20101002008708DF80700FFE79DF8D0
:101BC00007000F281BDCFFE79DF8071048F2DC2018
:101BD000C2F2010000EB0110FFF76EFF40B1FFE71A
:101BE00048F2DC31C2F20101087801300870FFE7E9
:101BF000FFE79DF8070001308DF80700DFE702B02E
:101C000080BD00000000000080B584B048F2DD30E7
:101C1000C2F2010001905121452204F001F901981E
:101C200000884AF6CD31884205D0FFE700F0ECF895
:101C300000F0A6F820E048F2DD31C2F20101B1F86F
:101C40004300ADF80E000020A1F8430048F64820FC
:101C5000C2F20100452205F06BF8ADF80C00BDF8AA
:101C60000E00BDF80C10884205D0FFE700F0CCF85C
:101C700000F086F8FFE7FFE700208DF80B00FFE794
:101C80009DF80B000F282CDCFFE79DF80B301A01A4
:101C900048F2DC21C2F2010148F2DD30C2F201005B
:101CA00000EB8300D0F8030088509DF80B0001EB97
:101CB0000012002010719DF80B2001EB02125071F0
:101CC0009DF80B2001EB021290609DF80B2001EBB8
:101CD00002110873FFE79DF80B0001308DF80B002F
:101CE000CEE7FFF761FF04B080BD000000000000F8
:101CF00080B582B08DF807009DF8070000F094F8D9
:101D00008DF8060000208DF80500FFE79DF805001E
:101D10000F2831DCFFE79DF8051048F2DC20C2F205
:101D2000010000EB0110FFF7C7FEF0B1FFE79DF8DF
:101D30000600C00758B1FFE79DF8051048F2DC2007
:101D4000C2F2010000EB0110FFF74EFE0CE09DF81F
:101D5000051048F2DC20C2F2010000EB01109DF8F2
:101D60000710FFF7A5FDFFE7FFE7FFE79DF8050078
:101D700001308DF80500C9E702B080BD0000000009
:101D800080B584B000208DF80F00FFE79DF80F00AC
:101D90000F2817DCFFE79DF80F0048F2DD31C2F293
:101DA000010101EB8001020148F2DC20C2F20100D6
:101DB0008058C1F80300FFE79DF80F0001308DF84F
:101DC0000F00E3E748F2DD31C2F2010102914AF669
:101DD000CD3008800020A1F8430048F64820C2F228
:101DE00001004522019204F0A3FF019A01460298E6
:101DF000A0F84310512104F047F8FFF7D5FE04B0D6
:101E000080BD00000000000080B582B048F2DD30E7
:101E1000C2F2010001904521FEF71EFA01990F2040
:101E2000887002B080BD000080B582B08DF80600D9
:101E300000208DF80500FFE79DF805000F2825DC40
:101E4000FFE79DF8051048F2DC20C2F2010000EB2C
:101E50000110FFF731FE90B1FFE79DF8051048F241
:101E6000DC20C2F2010000EB011040799DF8061061
:101E7000884204D0FFE700208DF807000AE0FFE762
:101E80009DF8050001308DF80500D5E701208DF89B
:101E90000700FFE79DF8070002B080BD00000000CA
:101EA00048F2DC30C2F20100007870470000000008
:101EB00080B582B000208DF80600FFE79DF806008F
:101EC0000F2817DCFFE79DF8061048F2DC20C2F26D
:101ED000010000EB0110FFF71FFE20B1FFE701201A
:101EE0008DF807000AE0FFE79DF8060001308DF845
:101EF0000600E3E700208DF80700FFE79DF80700E4
:101F000002B080BD0000000080B582B000208DF8D6
:101F10000600FFE79DF806000F2817DCFFE79DF895
:101F2000061048F2DC20C2F2010000EB0110FFF7BE
:101F300007FE20B1FFE701208DF807000AE0FFE768
:101F40009DF8060001308DF80600E3E700208DF8CB
:101F50000700FFE79DF8070002B080BD0000000009
:101F600080B584B00390029102984068C07806283A
:101F70001AD1FFE7029840680178407840EA0120D2
:101F8000ADF806000298406880788DF805009DF84D
:101F90000500642807DCFFE7BDF806009DF8051082
:101FA0000DF036FDFFE7FFE7012004B080BD000023
:101FB00081B08DF803009DF80300042804DCFFE7DE
:101FC00005208DF8030009E09DF80300512804DB8B
:101FD000FFE750208DF80300FFE7FFE79DF80300BF
:101FE00000EB8000400048F65841C2F20101096848
:101FF000486301B0704700007047C06B1AF0E5BC41
:102000000000000000000000412816310000010817
:1020100080B598B0F0200F9088200E9048F684008C
:10202000C2F2010040780006002801D4FFE7F2E187
:1020300048F63840C2F201000D9049F2A851C2F2B0
:10204000010101220C9209F0DFFD0C9A0D9849F272
:10205000A451C2F2010109F09BFD48F6D601C2F27B
:10206000010148798979884241DBFFE749F2A850AC
:10207000C2F201000078FFF7A3F948F6D601C2F2D8
:102080000101497988420FDAFFE749F2A850C2F20C
:1020900001000078FFF794F948F6D601C2F2010179
:1020A0008979884209DAFFE748F68401C2F2010122
:1020B000086840F40010086018E048F68400C2F296
:1020C00001008078800600280FD5FFE748F68401DC
:1020D000C2F20101086820F40010086049F218619A
:1020E000C2F201010A200870FFE7FFE74AE048F664
:1020F000D601C2F2010148798979884241DAFFE7C5
:1021000049F2A850C2F201000078FFF759F948F6E9
:10211000D601C2F201014979884218DBFFE749F292
:10212000A850C2F201000078FFF74AF948F6D6013C
:10213000C2F201018979884209DAFFE748F6840191
:10214000C2F20101086840F40010086018E048F687
:102150008400C2F201008078800600280FD5FFE7D6
:1021600048F68401C2F20101086820F400100860FA
:1021700049F21861C2F201010A200870FFE7FFE787
:10218000FFE7FFE748F68400C2F20100807880078D
:10219000002840F1BC80FFE748F68400C2F201004D
:1021A00080788006002840F1B280FFE748F684007E
:1021B000C2F2010080784007002840F1A880FFE7C4
:1021C00048F68400C2F201008078400600280DD550
:1021D000FFE741F65C30C2F20100007849F2A451F9
:1021E000C2F20101097888423CD0FFE748F6840139
:1021F000C2F20101086840F48000086000200A90E3
:102200001BF02CFF0A981CF0DDF91AF0F6FD0A9875
:102210001BF096FF01200B901BF020FF0B981CF089
:10222000D1F94FF07F401CF0E5F91AF0E6FD41F2DC
:10223000A961C2F201013C20087049F2A450C2F227
:102240000100007841F65C31C2F2010108700920FA
:102250001CF02EFA4FF47F401CF0CEF90B981BF0C7
:102260006FFFFFE749F2A851C2F20101099110A8DE
:1022700002220CF011FC09988078C00720B1FFE71A
:102280003A208DF8420003E020208DF84200FFE75D
:1022900010A80790033049F2A851C2F201010131A0
:1022A00002220CF0F9FBF02088211BF033FB48F6EA
:1022B000D600C2F20100C17940F6F000C2F201007E
:1022C00050F821001CF098F94FF6A050C0F603001A
:1022D0001CF0A0F90E201CF0F3F9012008901BF06F
:1022E000BDFE0020069050214FF4F072C0231AF07A
:1022F00093FD0698DC2164224FF487731AF08CFD5D
:1023000007981AF0CFFE08981BF01AFF4FE041F231
:10231000A960C2F20100007849F2A851C2F201019D
:102320004978884242D0FFE749F2A851C2F2010140
:102330000A4612F8010F029241F2A962C2F20102AA
:10234000107010A80490022203920CF0A5FB0299D1
:10235000039A04983A238DF8423003300CF09CFB2A
:1023600048F6B070C0F603001CF054F96FF07F40DF
:102370001CF042F903981CF0ADF90C201CF0A0F9F8
:10238000012005901BF06AFE0520F5211BF0C2FA22
:102390000020DC2164224FF487731AF03DFD04987D
:1023A0001AF080FE05981BF0CBFEFFE7FFE741F631
:1023B0005C30C2F20100007849F2A451C2F201017E
:1023C0000978884227D0FFE749F2A450C2F2010001
:1023D0000090017841F65C32C2F2010211708278FD
:1023E00048F63840C2F201000190022109F008FBD2
:1023F000009901984A78032109F002FB009901989D
:102400000A78042109F0FCFA00990198CA7805219C
:1024100009F0F6FAFFE718B080BD000000000000E8
:1024200080B582B08DF806009DF80600012815D110
:10243000FFE741F65D30C2F20100007870B9FFE7B6
:1024400041F65D31C2F201010120087005F0CCFBBC
:1024500041F66031C2F20101086038E09DF80600E3
:1024600001281FD1FFE741F65D30C2F2010000787C
:10247000012817D1FFE705F0B7FB41F66031C2F242
:1024800001010968401AB0F5586F0AD3FFE741F619
:102490005D31C2F201010020087001208DF80700B3
:1024A00019E013E09DF8060078B9FFE741F65D30CA
:1024B000C2F201000078012807D1FFE741F65D3143
:1024C000C2F2010100200870FFE7FFE7FFE70020EC
:1024D0008DF80700FFE79DF8070002B080BD0000FF
:1024E00080B582B01E20019048F68400C2F201003F
:1024F00080788007002810D5FFE748F68400C2F2F4
:10250000010080788006002807D5FFE749F21861AE
:10251000C2F201010A200870FFE748F68401C2F206
:102520000101086820F400300860086820F4800089
:10253000086005F059FB49F21C61C2F20101086014
:1025400048F6D600C2F201001E210171C078FFF7E3
:102550002FFD02B080BD000080B586B0C82001907C
:10256000059096200090049015F05AFA03900120EF
:1025700002901BF073FDC32091214FF4A072EB2356
:102580001AF04AFC6FF07F401CF036F84CF2104015
:10259000C0F603001CF03EF800201CF09BF80298E7
:1025A0001CF08EF8009901981BF0B4F9039815F00F
:1025B00047FA02211AF040FD02981BF0C1FD06B057
:1025C00080BD00000000000080B584B003F054FB23
:1025D0001BF0A8F941F2C100C0F601001BF04EFE4D
:1025E0000120029021F01CFA1CF0BCF900201BF025
:1025F000E9FF1AF002FC02981BF0E4FF4FF07F4065
:102600001BF0F8FF1AF0F9FB029A0DF10F004FF4DE
:10261000806103F005FC9DF80F0031280BDCFFE71B
:102620009DF80F2049F2EC00C2F2010040F2014196
:1026300003F0F6FBFFE70DF10F004FF48861012274
:1026400003F0EEFB9DF80F0031280CDCFFE79DF84E
:102650000F2049F2EC00C2F20100323040F2414159
:1026600003F0DEFBFFE705F0BFFA48F6CC01C2F24B
:102670000101086001201BF0F1FC1AF0BEFB03F021
:1026800073FB0DF029FA28B1FFE74FF47F401BF0F0
:10269000B3FF03E0FF201BF0AFFFFFE7F02088212E
:1026A00032231A461AF0D6FD012001901BF048FD96
:1026B000019849F26961C2F20101087049F218619A
:1026C000C2F20101087004B080BD000000000000EB
:1026D00080B582B005F088FA41F66431C2F201019A
:1026E0000968401A64280AD3FFE705F07DFA41F62D
:1026F0006431C2F2010108601AF088FFFFE710F0B0
:10270000EFF908B1FFE76FE049F21860C2F201008B
:1027100000780146019110283ED80199DFE801F0C8
:1027200039090C0F122D3036332A15181B1E21249F
:10273000270010F0F1FB3BE010F022FD38E010F034
:102740007BFF35E012F0B8FB32E010F0C9FC2FE05F
:1027500011F03EF82CE011F0F7F929E011F040FCFF
:1027600026E011F00DFE23E011F0FEFE20E012F055
:1027700063FA1DE00FF074FF1AE010F0FDFA17E0A5
:1027800010F042F814E010F033FC11E010F020FAE1
:102790000EE010F071FC0BE048F6CA71C2F20101C4
:1027A000002008704AF2AC11C2F201010870FFE784
:1027B0000BF0EEFF47F68D60C2F201000078FFF7E4
:1027C0002FFE88B1FFE749F21860C2F201000078DD
:1027D0000A2809DCFFE700F0D3F849F21861C2F2D9
:1027E00001010B200870FFE702B080BD000000006F
:1027F00081B08DF803009DF803004AF2AC11C2F2DB
:102800000101087001B0704748F68801C2F2010169
:10281000012008707047000080B548F66C20C2F2B5
:10282000010004F095FB4BF20801C4F20201022002
:10283000086080BD0000000082B00190019800781F
:1028400010384AF6AB21CAF6AA21A0FB01100009F4
:102850000090009948F60870C0F60400405C0199A9
:10286000C8650098042807D3FFE701990868042287
:1028700062F30900886506E00199086840F2FF32BA
:1028800090438865FFE70198806D02B070470000B3
:1028900086B0059000208DF813000598806A03909B
:1028A0000598806910BBFFE70398029003281BD8A6
:1028B0000299DFE801F0020D0218059890F82F0048
:1028C000C00720B1FFE701208DF81300FFE70CE0FF
:1028D0000598C06AB0F1C07F04D1FFE701208DF8F0
:1028E0001300FFE701E000E0FFE745E0059880699D
:1028F000B0F5005F25D1FFE70398019003281ED8AB
:102900000199DFE801F00206021101208DF81300A1
:1029100016E0059890F82F00C00720B1FFE70120CE
:102920008DF81300FFE70BE00598C06AB0F1C07F97
:1029300004D1FFE701208DF81300FFE700E0FFE777
:1029400019E003980090032804D3FFE700980328B8
:1029500004D00EE001208DF813000BE0059890F8EC
:102960002F00C00720B1FFE701208DF81300FFE71B
:1029700000E0FFE7FFE7FFE79DF8130006B07047B0
:102980002DE9F041A2B015F04BF8219000201990EC
:102990001BF018FE1AF031FA012020901BF012FEF5
:1029A0004FF07F401BF026FE1AF027FA20981BF00C
:1029B00055FBDDF864C04FF23E43C0F605031C939F
:1029C000B3F90000B3F90210B3F90420B3F90630EB
:1029D000EE461425CEF814500324CEF810404FF4E0
:1029E0000664CEF80C40CEF808C00224CEF80440AD
:1029F000CEF800C01FF011F8014648F6D410C2F21C
:102A000001000690016000684FF47F4116911FF0AD
:102A100016F90698199A006840F29131C0F606013D
:102A20001FF0E9F80698209A006840F29531C0F648
:102A300006011FF0E0F80698006840F29D31C0F6EC
:102A4000060122461FF0D7F80698006807902198E3
:102A500014F0AEFF014607981FF008F9DDF864C0D6
:102A60001C9BB3F91000B3F91210B3F91420B3F999
:102A70001630EE462827CEF8107005261E96CEF8A2
:102A80000C6040F63108CEF80880CEF80440CEF84D
:102A900000C01FF0CAFC014648F6E010C2F2010077
:102AA00008900160006821461FF0E9FD0898006861
:102AB0000990219814F0DCFF014609981FF009FEE7
:102AC000DDF864C01C9BB3F91800B3F91A10B3F910
:102AD0001C20B3F91E30EE46CEF81070CEF80C6014
:102AE00040F63206CEF80860CEF80440CEF800C0BA
:102AF0001FF09BFC014648F6E410C2F201000A9068
:102B00000160006821461FF0BAFD0A9800680B902A
:102B1000219814F0B5FF01460B981FF0DAFDDDF89F
:102B200064C01C9BB3F90800B3F90A10B3F90C2078
:102B3000B3F90E30EE46CEF81450CEF8104040F601
:102B40006105CEF80C50CEF808C0CEF80440CEF89F
:102B500000C01EF062FF1699024648F69410C2F2B9
:102B600001000C90026000681FF069F80C98199A37
:102B7000006840F28231C0F606011FF03CF80C9864
:102B8000209A006840F27701C0F606011FF033F882
:102B90000C9800680D90219814F012FF01460D98D2
:102BA0001FF064F8DDF864C01C9BB3F92000B3F992
:102BB0002210B3F92420B3F92630EE460A25CEF8C8
:102BC0001050CEF80CC040F66405CEF80850CEF890
:102BD0000440CEF800C01FF028FC014648F69810CB
:102BE000C2F201000E900160006821461FF047FD0F
:102BF0000E9800680F90219814F0EAFE01460F9895
:102C00001FF067FDDDF864C01C9BB3F92800B3F921
:102C10002A10B3F92C20B3F92E30EE463225CEF827
:102C20001050CEF80CC040F66505CEF80850CEF82E
:102C30000440CEF800C01FF0F8FB014648F6A01093
:102C4000C2F2010010900160006821461FF017FDDC
:102C5000109800681190219814F0CAFE014611984E
:102C60001FF037FDDDF864C01C9BB3F93000B3F9E9
:102C70003210B3F93420B3F93630EE466425CEF87D
:102C80001050CEF80CC040F66605CEF80850CEF8CD
:102C90000440CEF800C01FF0C8FB014648F69C1067
:102CA000C2F2010012900160006821461FF0E7FCAB
:102CB000129800681390219814F092FE0146139820
:102CC0001FF007FDDDF864C01C9BB3F93800B3F9B1
:102CD0003A10B3F93C20B3F93E30EE46FE25CEF86B
:102CE0001050CEF80CC040F67915CEF80850CEF84A
:102CF0000440CEF800C01FF098FB014648F6D810FB
:102D0000C2F2010014900160006821461FF0B7FC78
:102D1000149800681590219814F07AFE01461598D1
:102D20001FF0D7FCDDF864C01C9BB3F94000B3F979
:102D30004210B3F94420B3F94630EE4640F67A1516
:102D4000CEF80C50CEF808C0CEF80440CEF800C043
:102D500017F000FE1699024648F6DC10C2F2010098
:102D600017900260006817F028FF1798006840F677
:102D7000D061C0F6060117F0FCFE179800681890A5
:102D8000219814F091FE0146189817F0D6FEDDF850
:102D900064C01C9BB3F94800B3F94A10B3F94C2046
:102DA000B3F94E30EE4640F60505CEF80C50CEF89D
:102DB00008C0CEF80440CEF800C017F0D7FB01469B
:102DC00048F6E800C2F201000160006840F6F71121
:102DD000C0F6060117F03FFDDDF864C01C9BB3F997
:102DE0005000B3F95210B3F95420B3F95630EE46FF
:102DF00040F60305CEF80C50CEF808C0CEF80440DB
:102E0000CEF800C017F0B2FB014648F6EC00C2F263
:102E100001000160006840F24A31C0F6060117F077
:102E20001AFD6FF07F401BF0E7FB42F68460C0F6AE
:102E300003001BF0EFFB0C201D901BF041FC1C99C4
:102E4000B1F95800B1F95A101AF064FD40F6AF100C
:102E5000C0F606001AF026F91C99B1F95C00B1F928
:102E60005E101AF057FD40F25F00C0F606001A909F
:102E70001AF018F91C99B1F96000B1F962101AF052
:102E800049FD40F69C10C0F606001AF00BF91C999B
:102E9000B1F96400B1F966101AF03CFD1A981AF005
:102EA00001F91C99B1F96800B1F96A101AF032FD04
:102EB00040F20A10C0F606001AF0F4F81C99B1F9B5
:102EC0006C00B1F96E101AF025FD40F25200C0F608
:102ED00006001AF0E7F81C99B1F97000B1F9721008
:102EE0001AF018FD40F2A600C0F606001AF0DAF853
:102EF0001C99B1F97400B1F976101AF00BFD40F28B
:102F00003E00C0F606001B901AF0CCF81C99B1F9EF
:102F10007800B1F97A101AF0FDFC40F29400C0F686
:102F200006001AF0BFF81C99B1F97C00B1F97E10C7
:102F30001AF0F0FC1B981AF0B5F81C99B1F9800052
:102F4000B1F982101AF0E6FC40F25810C0F6060003
:102F50001AF0A8F81C99B1F98400B1F986101AF09A
:102F6000D9FC40F24110C0F606001AF09BF81C99FB
:102F7000B1F98800B1F98A101AF0CCFC40F2AF60C8
:102F8000C0F606001AF08EF81D981E994FF4A07234
:102F90001F921AF05FFA1E991F9A82201AF05AFAAD
:102FA00020981BF0CDF822B0BDE8F08100000000B1
:102FB0002DE9F041A2B0002020901BF003FB19F096
:102FC0001CFF0125089528461BF0FCFA4FF07F40B6
:102FD0001BF010FB19F011FF28461BF03FF848F6D4
:102FE0003840C2F20100099049F2A851C2F2010131
:102FF00013912A4608F008FE099849F2A451C2F23A
:1030000001011A912A4608F0C3FDDDF880C04FF295
:10301000CA43C0F605031F93B3F90000B3F90210C9
:10302000B3F90420B3F90630EE465A27CEF81070F3
:10303000CEF80C5040F63306CEF8086002240A940D
:10304000CEF80440CEF800C01FF0EFF9014648F674
:10305000A810C2F201000B900160006821461FF029
:103060000EFB0B98006848F6D601C2F201011D91D3
:10307000C9781FF02EFB1F9BDDF880C0B3F9080054
:10308000B3F90A10B3F90C20B3F90E30EE46CEF8BE
:103090001070CEF80C5040F63407CEF80870CEF819
:1030A0000440CEF800C01FF0C0F9014648F6AC104D
:1030B000C2F201000C900160006821461FF0DFFAA7
:1030C0000C981D99006889781FF003FB1F9BDDF8A1
:1030D00080C0B3F91000B3F91210B3F91420B3F99A
:1030E0001630EE46F027CEF81070CEF80C5040F6B1
:1030F0003507CEF80870CEF80440CEF800C01FF0B7
:1031000094F9014648F6C810C2F201000D90016022
:10311000006821461FF0B3FA0D981D9900680979DF
:103120001FF0D7FA1F9BDDF880C0B3F91800B3F980
:103130001A10B3F91C20B3F91E30EE461727CEF84B
:103140001070CEF80CC040F63608CEF80880CEF8E5
:103150000440CEF800C01FF068F9014648F6C410DC
:10316000C2F201000E900160006821461FF087FA4C
:103170000E981D99006849791FF0ABFA1F9BDDF886
:1031800080C0B3F92000B3F92210B3F92420B3F9B9
:103190002630EE46CEF81070CEF80CC040F6370858
:1031A000CEF80880CEF80440CEF800C01FF03DF9FC
:1031B000014648F6C010C2F201000F90016000689D
:1031C00021461FF05CFA0F981D99006889791FF05D
:1031D00080FA1F9BDDF880C0B3F92800B3F92A10EC
:1031E000B3F92C20B3F92E30EE46CEF81070CEF89D
:1031F0000CC040F63A07CEF80870CEF80440CEF87E
:1032000000C01FF012F9014648F6B010C2F20100EA
:1032100010900160006821461FF031FA1099139850
:10322000096811910078FEF7CBF8014611981FF05C
:1032300050FA1F9BDDF880C0B3F93000B3F93210AB
:10324000B3F93420B3F93630EE463B27CEF8107090
:10325000CEF80CC040F63B07CEF80870CEF804401C
:10326000CEF800C01FF0E1F8014648F6B410C2F2F3
:10327000010012900160006821461FF000FA1299C7
:103280001398096814914078FEF79AF8014614984B
:103290001FF01FFA1F9BDDF880C0B3F93800B3F9A7
:1032A0003A10B3F93C20B3F93E30EE461F27CEF872
:1032B0001070CEF80C5040F63C07CEF80870CEF8EF
:1032C0000440CEF800C01FF0B0F8014648F6A41044
:1032D000C2F2010015900160006821461FF0CFF98D
:1032E00015991A98096816918078FEF769F80146D1
:1032F00016981FF0EEF91F9BDDF880C0B3F940006F
:10330000B3F94210B3F94420B3F94630EE460C2726
:10331000CEF81070CEF80C5040F63D07CEF808708D
:10332000CEF80440CEF800C01FF07FF8014648F602
:10333000B810C2F2010017900160006821461FF02A
:103340009EF917991A98096818914078FEF738F88D
:10335000014618981FF0BDF91F9BDDF880C0B3F936
:103360004800B3F94A10B3F94C20B3F94E30EE4699
:10337000CEF810604FF4FA66CEF80C6040F63E06C8
:10338000CEF80860CEF80440CEF800C01FF04DF82B
:10339000014648F6CC10C2F20100199001600068A5
:1033A00021461FF06CF919991A9809681B91C07889
:1033B000FEF706F801461B9801F5FA611FF089F93E
:1033C0001F9BDDF880C0B3F95000B3F95210B3F978
:1033D0005420B3F95630EE461C26CEF81060CEF8D5
:1033E0000C5040F63806CEF80860CEF80440CEF80F
:1033F00000C01FF01AF8014648F6BC10C2F20100E6
:103400001C900160006821461FF039F91C981D9935
:103410000068C9791FF05DF91F9BDDF880C0B3F922
:103420005800B3F95A10B3F95C20B3F95E30EE4698
:1034300040F65106CEF80C60CEF808C0CEF8044035
:10344000CEF800C017F086FA014648F60010C2F226
:1034500001001E90016000684FF47F4117F0ADFB42
:103460001E98006840F23171C0F6060117F081FB2A
:103470001E98006848F68401C2F201010968C1F390
:10348000804117F05AFB1F9BDDF880C0B3F9600044
:10349000B3F96210B3F96420B3F96630EE4640F632
:1034A0003F06CEF80C60CEF80850CEF80440CEF8B7
:1034B00000C017F0CFFC0146209848F69012C2F2E7
:1034C000010211602190FFE7219806281CDCFFE72C
:1034D00048F69010C2F20100006848F6D601C2F228
:1034E0000101897AC1EBC10240F2A471C2F201016B
:1034F00001EB8201219A51F8221017F0BEFBFFE781
:10350000219801302190DFE748F69010C2F20100C7
:10351000006849F2A451C2F201010978013917F09B
:103520009AFE4FF2CA43C0F605030793B3F9680049
:10353000B3F96A10B3F96C20B3F96E30EE4640F679
:10354000050CCEF80CC04FF0000CCDF814C0CEF82E
:1035500008C00224CEF80440CEF800C017F006F8E8
:10356000014648F6E800C2F201000160006840F63A
:10357000F711C0F6060117F06EF9DDF814C0079BCD
:10358000B3F97000B3F97210B3F97420B3F976305F
:10359000EE4640F60305CEF80C50CEF808C0CEF843
:1035A0000440CEF800C016F0E1FF014648F6EC00FA
:1035B000C2F201000160006840F24A31C0F6060123
:1035C00017F049F948F6D600C2F20100C17940F679
:1035D000F000C2F2010050F821001BF00DF8079B2B
:1035E000B3F97800B3F97A10B3F97C20B3F97E30DF
:1035F0001AF068F86FF07F401AF0FEFF42F6846020
:10360000C0F603001BF006F80C201BF059F8079ACF
:10361000B2F9CC00B2F9CE10B2F9D02019F01AFFED
:103620000799B1F98000B1F982101AF073F940F6E8
:103630004D10C0F6060019F035FD0799B1F9840068
:10364000B1F986101AF066F940F2CB30C0F60600E8
:1036500019F028FD0799B1F98800B1F98A101AF01C
:1036600059F940F63F20C0F6060019F01BFD079AF5
:10367000B2F9D200B2F9D410B2F9D62019F0EAFEAC
:103680000799B1F98C00B1F98E101AF043F940F2A4
:103690001D20C0F6060019F005FD0799B1F990004C
:1036A000B1F992101AF036F940F2D770C0F6060060
:1036B000069019F0F7FC0799B1F99400B1F996104A
:1036C0001AF028F940F22230C0F6060019F0EAFCA0
:1036D000079AB2F9D800B2F9DA10B2F9DC2019F081
:1036E000B9FE0799B1F99800B1F99A101AF012F9D8
:1036F00040F27A70C0F6060019F0D4FC0799B1F9CF
:103700009C00B1F99E101AF005F940F26E40C0F627
:10371000060019F0C7FC0799B1F9A000B1F9A21091
:103720001AF0F8F840F25040C0F6060019F0BAFC62
:10373000079AB2F9DE00B2F9E010B2F9E22019F00E
:1037400089FE0799B1F9A400B1F9A6101AF0E2F8C0
:1037500040F24350C0F6060019F0A4FC0799B1F9F5
:10376000A800B1F9AA101AF0D5F840F6E710C0F693
:10377000060019F097FC0799B1F9AC00B1F9AE1049
:103780001AF0C8F840F2CB10C0F6060019F08AFC17
:103790000799B1F9B000B1F9B2101AF0BBF8069868
:1037A00019F080FC0799B1F9B400B1F9B6101AF01C
:1037B000B1F840F2D210C0F6060019F073FC079978
:1037C000B1F9B800B1F9BA101AF0A4F8069819F0D6
:1037D00069FC079AB2F9E400B2F9E610B2F9E82000
:1037E00019F038FE0799B1F9BC00B1F9BE101AF012
:1037F00091F840F2F020C0F6060019F053FC07994A
:10380000B1F9C000B1F9C2101AF084F840F64F20A7
:10381000C0F6060019F046FC0799B1F9C400B1F9E9
:10382000C6101AF077F840F2D030C0F6060019F052
:1038300039FC0799B1F9C800B1F9CA101AF06AF851
:1038400040F2BD60C0F6060019F02CFC01201AF011
:1038500077FC22B0BDE8F081F0B59FB002F0D8F857
:103860001E9014F0BDFF1D90002015901AF0AAFEC6
:1038700019F0C3FA01241C9420461AF0A3FE4FF05D
:103880007F401AF0B7FE19F0B8FA20461AF0E6FBAE
:10389000DDF854C04FF2B453C0F605031B93B3F9DF
:1038A0004800B3F94A10B3F94C20B3F94E30EE4654
:1038B00040F66205CEF80C50CEF80840022416946B
:1038C000CEF80440CEF800C017F0C4FA014648F61E
:1038D000D010C2F2010006900160006840F2913100
:1038E000C0F6060117F0C9F90698006840F2277182
:1038F000C0F606011A9117F0C0F90698006840F268
:103900008471C0F60601199117F0B7F9069800689E
:1039100048F6D601C2F20101C97A17F09CFC06985C
:10392000006843F6C411C0F6030117F06AFCDDF825
:1039300054C01B9BB3F95000B3F95210B3F9542093
:10394000B3F95630EE4640F60505CEF80C50CEF8E9
:1039500008C0CEF80440CEF800C016F007FE0146BD
:1039600048F6E800C2F201000160006840F6F71175
:10397000C0F6060116F06FFFDDF854C01B9BB3F9CB
:103980005800B3F95A10B3F95C20B3F95E30EE4633
:1039900040F60305CEF80C50CEF808C0CEF804402F
:1039A000CEF800C016F0E2FD014648F6EC00C2F287
:1039B00001000160006840F24A31C0F6060116F0CD
:1039C0004AFFDDF854C01B9BB3F90000B3F90210A5
:1039D000B3F90420B3F90630EE46FE25CEF81050B8
:1039E000CEF80CC040F67B16CEF80860CEF8044046
:1039F000CEF800C01EF019FD014648F23440C2F274
:103A0000010009900160006821461EF038FE099807
:103A1000006807901E9802F0D7F8014607981EF03C
:103A200058FEDDF854C01B9BB3F90800B3F90A1027
:103A3000B3F90C20B3F90E30EE46CEF81050CEF8A4
:103A40000CC040F67C15CEF80850CEF80440CEF8F5
:103A500000C01EF0EAFC014609984160406821461A
:103A60001EF00DFE0998406808901E9802F0A4F818
:103A7000014608981EF02DFEDDF854C01B9BB3F9DB
:103A80001000B3F91210B3F91420B3F91630EE4652
:103A90000625CEF81050CEF80CC040F67D16CEF8B4
:103AA0000860CEF80440CEF800C01EF0BEFC01460F
:103AB00009988160806821461EF0E1FD09988068C0
:103AC0000A901E9802F088F801460A981EF001FE3E
:103AD000DDF854C01B9BB3F91800B3F91A10B3F901
:103AE0001C20B3F91E30EE464FF40076CEF810607D
:103AF000CEF80CC040F68F06CEF80860CEF8044031
:103B0000CEF800C01EF091FC014648F6F410C2F257
:103B100001000B900160006821461EF0B0FD0B987B
:103B200000680C901D9814F097FF01460C981EF049
:103B3000D0FDDDF854C01B9BB3F92000B3F922106F
:103B4000B3F92420B3F92630EE46FF26CEF81060F4
:103B5000CEF80CC04FF40967CEF80870CEF80440D8
:103B6000CEF800C01EF061FC014648F6EC10C2F22F
:103B700001000D900160006821461EF080FD0D9847
:103B800000680E901D9814F057FF01460E981EF025
:103B9000A0FDDDF854C01B9BB3F92800B3F92A102F
:103BA000B3F92C20B3F92E30EE46CEF81060CEF8E3
:103BB0000CC040F69106CEF80860CEF80440CEF86E
:103BC00000C01EF032FC014648F6E810C2F20100C7
:103BD0000F900160006821461EF051FD0F980068AB
:103BE00010901D9814F020FF014610981EF071FDF2
:103BF000DDF854C01B9BB3F93000B3F93210B3F9B0
:103C00003420B3F93630EE46CEF81050CEF80CC062
:103C100040F69206CEF80860CEF80440CEF800C018
:103C20001EF003FC014648F6F810C2F201001190A4
:103C30000160006821461EF022FD11980068129074
:103C40001D9814F011FF014612981EF042FDDDF898
:103C500054C01B9BB3F93800B3F93A10B3F93C20B8
:103C6000B3F93E30EE46CEF81050CEF80CC040F618
:103C70009305CEF80850CEF80440CEF800C01EF0F0
:103C8000D4FB014648F6FC10C2F20100139001601B
:103C9000006821461EF0F3FC1398006814901D98EC
:103CA00014F0EAFE014614981EF013FDDDF854C02E
:103CB0001B9BB3F94000B3F94210B3F94420B3F9A8
:103CC0004630EE462025CEF81050CEF80CC040F617
:103CD0009405CEF80850CEF80440CEF800C01EF08F
:103CE000A4FB1699024648F6F010C2F201001790A4
:103CF000026000681EF0C3FC1798006818901D98B9
:103D000014F0A2FE014618981EF0E3FC6FF07F400D
:103D10001AF072FC42F68460C0F603001AF07AFCD6
:103D20000C201AF0CDFC1B99B1F96C00B1F96E10A2
:103D300019F0F0FD199819F0B5F91B99B1F9700057
:103D4000B1F9721019F0E6FD40F65F20C0F60600EA
:103D500019F0A8F91B99B1F97400B1F9761019F0AE
:103D6000D9FD199819F09EF91B99B1F97800B1F9AC
:103D70007A1019F0CFFD40F23550C0F6060019F068
:103D800091F91B99B1F97C00B1F97E1019F0C2FDCF
:103D9000199819F087F91B99B1F98000B1F98210CF
:103DA00019F0B8FD40F28B30C0F6060019F07AF930
:103DB0001B99B1F98400B1F9861019F0ABFD19987F
:103DC00019F070F91B99B1F98800B1F98A1019F04E
:103DD000A1FD4FF65120C0F6050019F063F91B99BB
:103DE000B1F98C00B1F98E1019F094FD199819F001
:103DF00059F91B99B1F99000B1F9921019F08AFDA7
:103E00004FF60040C0F6050019F04CF91B99B1F9C6
:103E10009400B1F9961019F07DFD199819F042F946
:103E20001B99B1F99800B1F99A1019F073FD40F29D
:103E30001950C0F6060019F035F91B99B1F99C002C
:103E4000B1F99E1019F066FD1A9819F02BF91B991B
:103E5000B1F9A000B1F9A21019F05CFD40F2E61032
:103E6000C0F6060019F01EF91B99B1F9A400B1F9CA
:103E7000A61019F04FFD1A9819F014F91B99B1F911
:103E8000A800B1F9AA1019F045FD40F2F110C0F6F2
:103E9000060019F007F91B99B1F9AC00B1F9AE10A1
:103EA00019F038FD1A9819F0FDF81B99B1F9B00016
:103EB000B1F9B21019F02EFD40F21F50C0F6060005
:103EC00019F0F0F81B99B1F96000B1F9621019F01E
:103ED00021FD40F28540C0F6060019F0E3F81B9979
:103EE000B1F96400B1F9661019F014FD40F27340A5
:103EF000C0F6060019F0D6F81B99B1F96800B1F9BF
:103F00006A1019F007FD4FF65750C0F6050019F07A
:103F1000C9F81B9AB2F9B400B2F9B610B2F9B820D8
:103F200019F098FA1B9AB2F9BA00B2F9BC10B2F9BA
:103F3000BE2019F08FFA1B9AB2F9C000B2F9C21074
:103F4000B2F9C42019F086FA1C981AF0F9F81FB0DB
:103F5000F0BD00000000000070B598B000201AF01D
:103F600031FB18F04AFF012011901AF02BFB4FF0A3
:103F70007F401AF03FFB18F040FF11981AF06EF8DE
:103F800048F2D820C2F20100007880008DF85F006E
:103F9000FFE79DF85F00109048F2D820C2F20100C0
:103FA00001781020A0EB810004280ADBFFE748F22B
:103FB000D820C2F201000178042000EB81000F90AC
:103FC00002E010200F90FFE710980F99884280F2CE
:103FD0001381FFE79DF85F00FDF726FC16909DF822
:103FE0005F0000F003004FF0000CCDF824C0012862
:103FF0006046C8BF012015909DF85F0000F00100E9
:1040000014904FF27A63C0F605030E931598B3F936
:104010000020B3F90C1000FB012013901498B3F9A1
:104020000220B3F90A1000FB012012901398129994
:10403000B3F90420B3F906309DF85F4040F6940EC2
:104040000EEB4404EE464FF40076CEF81060CEF846
:104050000CC0CEF8084002240D94CEF80440CEF8EF
:1040600000C01EF0E2F901469DF85F2048F60810F6
:10407000C2F201000A9040F832109DF85F1050F82B
:10408000310021461EF0FBFA0A989DF85F1050F8A7
:10409000310008901698FDF7FFFC014608981EF0C5
:1040A00018FBDDF824C0DDF838E013981299BEF94A
:1040B0000420BEF90630BEF908E071449DF85F5057
:1040C00040F6950E0EEB4505EE46CEF81060CEF8A4
:1040D0000CC0CEF80850CEF80440CEF800C01EF058
:1040E000A4F90D9902460A989DF85F3000EBC303CE
:1040F0005A609DF85F2000EBC20040681EF0BFFAD6
:104100000A989DF85F1000EBC10040680B9016986C
:10411000FDF7B2FC01460B981EF0DBFA6FF07F4012
:104120001AF06AFA42F68460C0F603001AF072FAD6
:104130000C201AF0C5FA0E9A1398B2F90E10B2F9C3
:10414000102008441299114419F0E4FB4FF28270D8
:10415000C0F605000C9018F0A5FF0D999DF85F00C2
:10416000013018F069FF0E9A1398B2F90E10B2F9E7
:104170001030B2F91220084412991944114419F070
:10418000C9FB40F2A660C0F6060018F08BFF0E9A3D
:104190001398B2F90830B2F90E10B2F910200844A1
:1041A00012991944114419F0B5FB0C9818F07AFFD4
:1041B0000D999DF85F00013018F03EFF0E9A13989C
:1041C000B2F908C0B2F90E10B2F91030B2F91220EB
:1041D0000844129961441944114419F09BFB40F2C0
:1041E0007650C0F6060018F05DFFFFE79DF85F000F
:1041F00001308DF85F00CCE64FF27A63C0F605031C
:104200000693B3F91400B3F91610B3F91820B3F9F3
:104210001A30EE4640F6050CCEF80CC04FF0000CFC
:10422000CDF81CC0CEF808C00224CEF80440CEF869
:1042300000C016F09BF9014648F6E800C2F2010002
:104240000160006840F6F711C0F6060116F003FBA6
:10425000069BDDF81CC0B3F91C00B3F91E10B3F9BE
:104260002020B3F92230EE4640F60305CEF80C507C
:10427000CEF808C0CEF80440CEF800C016F076F9AB
:10428000014648F6EC00C2F201000160006840F20D
:104290004A31C0F6060116F0DEFA012019F050FF8F
:1042A00018B070BD000000002DE9F041A4B000205E
:1042B0001AF088F918F0A1FD01201A901AF082F97D
:1042C0004FF07F401AF096F918F097FD1A9819F000
:1042D000C5FE48F68050C2F2010000788DF88F00CC
:1042E0009DF88F000BF07CFA2290229828B9FFE706
:1042F000012019F025FF00F05ABE4FF29E60C0F673
:104300000500169000F1080121910188ADF8821096
:104310008188ADF88010C088ADF87E00BDF98200BC
:10432000BDF98010219BB3F90420B3F906309DF844
:104330008FC00CEB4C0E40F6B30C0CEB8E04EE462B
:104340004FF40076CEF810604FF0000CCDF854C05A
:10435000CEF80CC0CEF8084002241894CEF80440E1
:10436000CEF800C01EF061F8DDF854C09DF88F1043
:10437000342213924A4348F68451C2F20101129149
:104380008850BDF98200BDF98010BDF97E2011442E
:10439000219BB3F90420B3F906309DF88FE00EEBB2
:1043A0004E0540F6B40E0EEB8505EE464FF00108C3
:1043B000CDF86480CEF81080CEF80CC0CEF808504E
:1043C000CEF80440CEF800C01EF02FF8129B139ACE
:1043D000DDF854C09DF88F1011FB02314860BDF923
:1043E0008200BDF98010BDF97E2001EB4201219BC6
:1043F000B3F90420B3F906309DF88FE00EEB4E05BB
:1044000040F6B50E0EEB8505EE46CEF81060CEF800
:104410000CC0CEF80850CEF80440CEF800C01EF014
:1044200004F8129B139ADDF854C09DF88F1011FB0D
:1044300002318860BDF98200BDF98010BDF97E208F
:1044400002EB42021144219BB3F90420B3F9063078
:104450009DF88FE00EEB4E0540F6B60E0EEB85058F
:10446000EE46FF27CEF81070CEF80CC0CEF80850FC
:10447000CEF80440CEF800C01DF0D7FF129B139A6F
:10448000DDF854C09DF88F1011FB0231C860BDF9F2
:104490008200BDF98010BDF97E2001EB8201219BD5
:1044A000B3F90420B3F906309DF88FE00EEB4E050A
:1044B00040F6B70E0EEB8505EE461726CEF81060D7
:1044C0004FF0FF36CEF80C60CEF80850CEF804401E
:1044D000CEF800C01DF0A9FF129B139ADDF854C05E
:1044E0009DF88F1011FB02310861BDF98200BDF902
:1044F0008010BDF97E2002EB82021144219BB3F9AA
:104500000420B3F906309DF88FE00EEB4E0540F61F
:10451000B80E0EEB8505EE463B26CEF81060CEF8C1
:104520000CC0CEF80850CEF80440CEF800C01DF004
:104530007CFF139BDDF854C0DDF848E00146169877
:104540009DF88F2012FB03E251614088ADF8820094
:10455000BDF98200BDF98010219BB3F90420B3F9A5
:1045600006309DF88FE00EEB4E0540F6B90E0EEBCF
:104570008505EE46CEF81070CEF80CC0CEF8085087
:10458000CEF80440CEF800C01DF04FFF129B139AE6
:10459000DDF854C09DF88F1011FB02318861BDF920
:1045A0008200BDF98010BDF97E201144219BB3F932
:1045B0000420B3F906309DF88FE00EEB4E0540F66F
:1045C000BA0E0EEB8505EE460326CEF81060CEF847
:1045D0000C80CEF80850CEF80440CEF800C01DF094
:1045E00024FF129B139ADDF854C09DF88F1011FB25
:1045F0000231C861BDF98200BDF98010BDF97E208D
:1046000001EB4201219BB3F90420B3F906309DF878
:104610008FE00EEB4E0540F6BB0E0EEB8505EE4629
:104620004FF02008CEF81080CEF80CC0CEF808501D
:10463000CEF80440CEF800C01DF0F7FE129B139A8E
:10464000DDF854C09DF88F1011FB02310862BDF9EE
:104650008200BDF98010BDF97E2002EB42021144B8
:10466000219BB3F90420B3F906309DF88FE00EEBDF
:104670004E0540F6BC0E0EEB8505EE46CEF81070EA
:10468000CEF80CC0CEF80850CEF80440CEF800C0EA
:104690001DF0CBFE129B139ADDF854C09DF88F10CD
:1046A00011FB02314862BDF98200BDF98010BDF9ED
:1046B0007E2001EB8201219BB3F90420B3F906307F
:1046C0009DF88FE00EEB4E0540F6BD0E0EEB850516
:1046D000EE46CEF81060CEF80CC0CEF80850CEF8FA
:1046E0000440CEF800C01DF0A0FE139BDDF854C0BE
:1046F000DDF848E0014616989DF88F2012FB03E292
:10470000916210301E90BDF98200BDF98010BDF994
:104710007E2002EB820211441E9BB3F90420B3F900
:1047200006309DF88FE00EEB4E0540F6BE0E0EEB08
:104730008505EE46CEF80C50CEF808C0CEF8044001
:10474000CEF800C016F006F9139BDDF854C0DDF872
:1047500048E0014616989DF88F2012FB03E2D162D3
:1047600018301D90BDF98200BDF98010BDF97E2082
:1047700002EB8202114417311D9BB3F90420B3F9F7
:1047800006309DF88FE00EEB4E0540F6BF0E0EEBA7
:104790008505EE46CEF80C50CEF808C0CEF80440A1
:1047A000CEF800C016F0D6F8139A014612989DF87C
:1047B0008F3013FB020319639DF88F10514340584B
:1047C00021461DF05CFF1298139A9DF88F105143FB
:1047D0004058059022980BF053FA014605981DF0B9
:1047E00078FF129A13999DF88F0010FB0120406802
:1047F00021461DF044FF129A13999DF88F0010FB7B
:1048000001204068069022980BF00AFA01460698AB
:104810001DF05FFF129A13999DF88F0010FB012085
:10482000806821461DF02BFF129A13999DF88F0086
:1048300010FB01208068079022980BF0E9F90146EF
:1048400007981DF046FF129A13999DF88F0010FBF0
:104850000120C06821461DF012FF129A13999DF89D
:104860008F0010FB0120C068089022980BF0F0F92F
:10487000014608981DF02DFF129A13999DF88F009C
:1048800010FB0120006921461DF0F9FE129A1399D0
:104890009DF88F0010FB01200069099022980BF011
:1048A000DFF9014609981DF014FF129A13999DF83B
:1048B0008F0010FB0120406921461DF0E0FE129A96
:1048C00013999DF88F0010FB012040690A902298EF
:1048D0000BF0CEF901460A981DF0FBFE129A1399CF
:1048E0009DF88F0010FB0120806921461DF0C7FE56
:1048F000129A13999DF88F0010FB012080690B908C
:1049000022980BF09DF901460B981DF0E2FE129AD9
:1049100013999DF88F0010FB0120C06921461DF0FE
:10492000AEFE129A13999DF88F0010FB0120C0690A
:104930000C9022980BF064F901460C981DF0C9FE0A
:10494000129A13999DF88F0010FB0120006A2146EE
:104950001DF095FE129A13999DF88F0010FB01200F
:10496000006A0D9022980BF063F901460D981DF036
:10497000B0FE129A13999DF88F0010FB0120406A37
:1049800021461DF07CFE129A13999DF88F0010FBB2
:104990000120406A0E9022980BF07AF901460E9899
:1049A0001DF097FE129A13999DF88F0010FB0120BD
:1049B000806A21461DF063FE129A13999DF88F00BC
:1049C00010FB0120806A0F9022980BF011F901462C
:1049D0000F981DF07EFE129A13999DF88F0010FB20
:1049E0000120C06A4FF47F41119116F0E6F8129A47
:1049F00013999DF88F0010FB0120C06A40F63A1110
:104A0000C0F6060116F0B5F8129A13999DF88F00BA
:104A100010FB0120C06A109022980BF04DFB01465C
:104A2000109816F08AF81199129B139A9DF88F002E
:104A300010FB0230006B16F0C0F8129A13999DF823
:104A40008F0010FB0120006B40F67F01C0F60601CD
:104A500016F08FF8129A13999DF88F0010FB012021
:104A6000006B149022980BF003FB0146149816F08B
:104A700064F8DDF854C0169BB3F92600B3F928108A
:104A8000B3F92A20B3F92C30EE4640F60505CEF8EE
:104A90000C50CEF808C0CEF80440CEF800C015F097
:104AA00065FD014648F6E800C2F2010001600068B9
:104AB00040F6F711C0F6060115F0CDFEDDF854C042
:104AC000169BB3F92E00B3F93010B3F93220B3F9C5
:104AD0003430EE4640F60305CEF80C50CEF808C050
:104AE000CEF80440CEF800C015F040FD014648F66F
:104AF000EC00C2F201000160006840F24A31C0F6E9
:104B0000060115F0A8FE6FF07F4019F075FD42F622
:104B10008460C0F6030019F07DFD0C2019F0D0FD73
:104B2000169800F120011C91818CADF86E1001885F
:104B3000ADF882108088ADF88000BDF982001C9A23
:104B4000B2F90010B2F902200844BDF980101144F6
:104B500018F0E0FE4FF28B70C0F60500179018F0C9
:104B6000A1FA18999DF88F00013018F065FABDF987
:104B700082001C9AB2F90010B2F902200844BDF973
:104B800080101144BDF96E20114418F0C3FE40F6A8
:104B90006320C0F6060018F085FABDF982001C9A61
:104BA000B2F90010B2F902200844BDF98010BDF935
:104BB0007E301944114418F0ADFE179818F072FABF
:104BC00018999DF88F00013018F036FABDF982006F
:104BD0001C9AB2F90010B2F902200844BDF9801005
:104BE000BDF97E3019441144BDF96E20114418F00E
:104BF00091FE40F23E50C0F6060018F053FABDF99F
:104C000082001C9AB2F90010B2F902200844BDF9E2
:104C10008010BDF97E3001EB4301114418F07AFE9B
:104C2000179818F03FFA18999DF88F00013018F086
:104C300003FABDF982001C9AB2F90010B2F9022001
:104C40000844BDF98010BDF97E3001EB43011144E9
:104C5000BDF96E20114418F05DFE40F28700C0F6E9
:104C6000060018F01FFABDF982001C9AB2F9001074
:104C7000B2F902200844BDF98010BDF97E3003EB83
:104C800043031944114418F045FE179818F00AFA26
:104C900018999DF88F00013018F0CEF9BDF9820007
:104CA0001C9AB2F90010B2F902200844BDF9801034
:104CB000BDF97E3003EB430319441144BDF96E2066
:104CC000114418F027FE40F65320C0F6060018F0F5
:104CD000E9F9BDF982001C9AB2F90010B2F902207C
:104CE0000844BDF98010BDF97E3001EB8301114409
:104CF00018F010FE179818F0D5F918999DF88F0044
:104D0000013018F099F9BDF982001C9AB2F900102F
:104D1000B2F902200844BDF98010BDF97E3001EBE4
:104D200083011144BDF96E20114418F0F3FD40F2E7
:104D30002D50C0F6060018F0B5F9BDF982001C9A96
:104D4000B2F90010B2F902200844BDF98010BDF993
:104D50007E3003EB83031944114418F0DBFD1798F0
:104D600018F0A0F918999DF88F00013018F064F937
:104D7000BDF982001C9AB2F90010B2F90220084471
:104D8000BDF98010BDF97E3003EB83031944114453
:104D9000BDF96E20114418F0BDFD40F22350C0F65D
:104DA000060018F07FF916984088ADF88200BDF92A
:104DB00082001C9AB2F90010B2F902200844BDF931
:104DC0008010114418F0A6FD179818F06BF9189987
:104DD0009DF88F00013018F02FF9BDF982001C9A60
:104DE000B2F90010B2F902200844BDF98010114454
:104DF000BDF96E20114418F08DFD40F28B30C0F6E5
:104E0000060018F04FF9BDF982001C9AB2F90010A3
:104E1000B2F902200844BDF98010BDF97E30194472
:104E2000114418F077FD179818F03CF918999DF87F
:104E30008F00013018F000F9BDF982001C9AB2F918
:104E40000010B2F902200844BDF98010BDF97E308F
:104E500019441144BDF96E20114418F05BFD40F275
:104E60009420C0F6060018F01DF9BDF982001C9AC6
:104E7000B2F90010B2F902200844BDF98010BDF962
:104E80007E3001EB4301114418F044FD179818F0EF
:104E900009F918999DF88F00013018F0CDF8BDF987
:104EA00082001C9AB2F90010B2F902200844BDF940
:104EB0008010BDF97E3001EB43011144BDF96E2035
:104EC000114418F027FD40F21950C0F6060018F002
:104ED000E9F8BDF982001C9AB2F90010B2F902207B
:104EE0000844BDF98010BDF97E3003EB430319443B
:104EF000114418F00FFD179818F0D4F818999DF880
:104F00008F00013018F098F8BDF982001C9AB2F9B0
:104F10000010B2F902200844BDF98010BDF97E30BE
:104F200003EB430319441144BDF96E20114418F0FA
:104F3000F1FC40F21220C0F6060018F0B3F8BDF9FB
:104F400082001C9AB2F90010B2F902200844BDF99F
:104F50008010BDF97E3001EB8301114418F0DAFCBA
:104F6000179818F09FF818999DF88F00013018F0E5
:104F700063F8BDF982001C9AB2F90010B2F9022060
:104F80000844BDF98010BDF97E3001EB8301114466
:104F9000BDF96E20114418F0BDFC4FF6FD00C0F6BF
:104FA000050018F07FF8199819F0CAF8FFE724B047
:104FB000BDE8F0810000000070B59AB000201190AB
:104FC00019F000FB17F019FF0125284619F0FAFA2D
:104FD0004FF07F4019F00EFB17F00FFF284619F035
:104FE0003DF8DDF844C04FF2D463C0F605031093DA
:104FF000B3F90000B3F90210B3F90420B3F9063095
:10500000EE46FE24CEF81040CEF80C504FF4076464
:10501000CEF808400224CEF80440CEF800C01DF0BF
:1050200004FA014648F68810C2F2010009900160B6
:10503000006821461DF023FB0998006849F660517D
:10504000C2F2010109781DF044FB109BDDF844C059
:10505000B3F90800B3F90A10B3F90C20B3F90E3014
:10506000EE463C26CEF81060CEF80CC040F6B206F4
:10507000CEF80860CEF80440CEF800C01DF0D5F997
:10508000014648F60410C2F201000A90016000686F
:1050900021461DF0F4FA0A9800680B90FCF7DCFB3F
:1050A00001460B981DF015FB1098DDF844C0103038
:1050B0001990199BB3F90000B3F90210B3F9042059
:1050C000B3F90630EE4640F67716CEF80C60CEF80F
:1050D00008C0CEF80440CEF800C015F03BFC0146F5
:1050E00048F6FC00C2F201000C90016000684FF429
:1050F0007F410D9115F061FD0C98006840F2AC31D4
:10510000C0F6060115F035FD0C98006848F6D6018A
:10511000C2F201010F91497A01F0010115F00DFD74
:105120001098DDF844C018301890189BB3F90000AF
:10513000B3F90210B3F90420B3F90630EE4640F695
:105140007816CEF80C60CEF808C0CEF80440CEF841
:1051500000C015F0FFFB0D99024648F6F800C2F2B8
:1051600001000E900260006815F027FD0E9800689F
:1051700040F61C41C0F6060115F0FBFC0E980F9995
:105180000068097B01F0010115F0D7FC1098DDF8EB
:1051900044C050301790179BB3F90000B3F90210C8
:1051A000B3F90420B3F90630EE464FF41066CEF89A
:1051B0000C60CEF80850CEF80440CEF800C015F0D0
:1051C00049FE0146119848F68C12C2F201021160A4
:1051D0001690FFE716980A2815DCFFE748F68C10B2
:1051E000C2F201000068169A40F68811C2F201016D
:1051F00001EB8201D1F8881615F03FFDFFE7169804
:1052000001301690E6E748F68C10C2F201000690D5
:10521000006848F6D601C2F20101897A16F01BF83F
:105220000698006843F6C411C0F6030115F0E9FFC3
:105230004FF2D460C0F60500089020301590159B01
:10524000B3F90000B3F90210B3F90420B3F9063042
:10525000EE4640F67E1CCEF80CC04FF0000CCDF8A8
:105260001CC0CEF808C00224CEF80440CEF800C01E
:1052700015F07CF9014648F6F000C2F20100016029
:10528000006840F6A101C0F6060115F0E4FADDF869
:105290001CC0089828301490149BB3F90000B3F98F
:1052A0000210B3F90420B3F90630EE4640F6761545
:1052B000CEF80C50CEF808C0CEF80440CEF800C0AE
:1052C00015F054F9014648F6F400C2F201000160FD
:1052D000006840F6C511C0F6060115F0BCFADDF80D
:1052E0001CC0089830301390139BB3F90000B3F939
:1052F0000210B3F90420B3F90630EE4640F6050576
:10530000CEF80C50CEF808C0CEF80440CEF800C05D
:1053100015F02CF9014648F6E800C2F201000160E0
:10532000006840F6F711C0F6060115F094FADDF8B2
:105330001CC0089838301290129BB3F90000B3F9E2
:105340000210B3F90420B3F90630EE4640F6030527
:10535000CEF80C50CEF808C0CEF80440CEF800C00D
:1053600015F004F9014648F6EC00C2F201000160B4
:10537000006840F24A31C0F6060115F06CFA6FF091
:105380007F4019F039F942F68460C0F6030019F045
:1053900041F90C2019F094F90899B1F94000B1F9DC
:1053A000421018F0B7FA40F20310C0F6060017F0EA
:1053B00079FE0899B1F94400B1F9461018F0AAFA3B
:1053C00040F28D00C0F6060017F06CFE0899B1F9A6
:1053D0004800B1F94A1018F09DFA40F65F00C0F697
:1053E000060017F05FFE0899B1F94C00B1F94E10B4
:1053F00018F090FA40F2FD10C0F6060017F052FEC9
:105400000899B1F95800B1F95A1018F083FA40F22E
:105410007010C0F6060017F045FE012018F090FE4F
:105420001AB070BD0000000080B548F6D410C2F27A
:10543000010000681DF0D6FD48F69410C2F201008C
:1054400000681DF0CFFD48F6E010C2F201000068D0
:105450001DF0C8FD48F6E410C2F2010000681DF01E
:10546000C1FD48F69810C2F2010000681DF0BAFDB7
:1054700048F6A010C2F2010000681DF0B3FD48F626
:105480009C10C2F2010000681DF0ACFD48F6D81077
:10549000C2F2010000681DF0A5FD48F6DC10C2F262
:1054A000010000681DF09EFD48F6EC00C2F201000C
:1054B00000681DF097FD48F6E800C2F201000068A0
:1054C0001DF090FD80BD000080B548F6A810C2F226
:1054D000010000681DF086FD48F6AC10C2F2010024
:1054E00000681DF07FFD48F6C010C2F201000068A0
:1054F0001DF078FD48F6BC10C2F2010000681DF0F6
:1055000071FD48F6C410C2F2010000681DF06AFD8A
:1055100048F6C810C2F2010000681DF063FD48F6AD
:105520000010C2F2010000681DF05CFD48F6B410E6
:10553000C2F2010000681DF055FD48F6B810C2F235
:10554000010000681DF04EFD48F6E800C2F20100BF
:1055500000681DF047FD48F6B010C2F20100006877
:105560001DF040FD48F6CC10C2F2010000681DF0AD
:1055700039FD48F69010C2F2010000681DF032FDBE
:1055800048F6A410C2F2010000681DF02BFD48F699
:10559000EC00C2F2010000681DF024FD80BD000097
:1055A00080B582B048F23440C2F201000190006838
:1055B0001DF018FD019840681DF014FD01988068E9
:1055C0001DF010FD48F6F410C2F2010000681DF055
:1055D00009FD48F6EC10C2F2010000681DF002FD62
:1055E00048F6E810C2F2010000681DF0FBFC48F626
:1055F000F810C2F2010000681DF0F4FC48F6FC103F
:10560000C2F2010000681DF0EDFC48F6F010C2F295
:10561000010000681DF0E6FC48F6D010C2F201005F
:1056200000681DF0DFFC48F6E800C2F201000068E7
:105630001DF0D8FC48F6EC00C2F2010000681DF035
:10564000D1FC02B080BD000080B586B048F2D82001
:10565000C2F20100007880008DF81700FFE79DF886
:105660001700049048F2D820C2F2010001781020FF
:10567000A0EB810004280ADBFFE748F2D820C2F241
:1056800001000178042000EB8100039002E010206B
:105690000390FFE704980399884242DAFFE79DF8F8
:1056A000171048F60810C2F2010050F8310090B10E
:1056B000FFE79DF8171048F60810C2F201000290AB
:1056C00050F831001DF08EFC02999DF81720002043
:1056D00041F83200FFE79DF8171048F60810C2F2B3
:1056E000010000EBC1004068A0B1FFE79DF8171072
:1056F00048F60810C2F20100019000EBC1004068BA
:105700001DF070FC01989DF8171000EBC1010020FE
:105710004860FFE7FFE79DF8170001308DF817009C
:105720009DE748F6E800C2F2010000681DF05AFC4F
:1057300048F6EC00C2F2010000681DF053FC06B010
:1057400080BD00000000000080B584B048F68050A5
:10575000C2F2010000788DF80F009DF80F0034218F
:105760000291414348F68450C2F201000190405832
:105770001DF038FC019A02999DF80F0010FB0120E2
:1057800040681DF02FFC019A02999DF80F0010FB54
:10579000012080681DF026FC019A02999DF80F00F7
:1057A00010FB0120C0681DF01DFC019A02999DF8B4
:1057B0000F0010FB012080691DF014FC019A029972
:1057C0009DF80F0010FB012000691DF00BFC019AF1
:1057D00002999DF80F0010FB012040691DF002FCAA
:1057E000019A02999DF80F0010FB0120C0691DF07D
:1057F000F9FB019A02999DF80F0010FB0120006A45
:105800001DF0F0FB019A02999DF80F0010FB01209A
:10581000406A1DF0E7FB019A02999DF80F0010FB0A
:105820000120806A1DF0DEFB019A02999DF80F00AD
:1058300010FB0120C06A1DF0D5FB019A02999DF86A
:105840000F0010FB0120006B1DF0CCFB48F6E800B8
:10585000C2F2010000681DF0C5FB48F6EC00C2F280
:10586000010000681DF0BEFB04B080BD0000000018
:1058700080B548F68810C2F2010000681DF0B2FB46
:1058800048F60410C2F2010000681DF0ABFB48F6B8
:10589000FC00C2F2010000681DF0A4FB48F6F8000D
:1058A000C2F2010000681DF09DFB48F6F000C2F254
:1058B000010000681DF096FB48F6F400C2F20100FA
:1058C00000681DF08FFB48F68C10C2F201000068E2
:1058D0001DF088FB48F6E800C2F2010000681DF0E8
:1058E00081FB48F6EC00C2F2010000681DF07AFB73
:1058F00080BD00000000000082B08DF8070000208D
:105900000090FFE79DF807000A2809D3FFE79DF8FC
:1059100007000A388DF80700009801300090F1E781
:105920000098000100909DF807100098084400902E
:105930000098C0B202B070472DE9F04184B0002059
:105940008DF80F008DF80E00FFE79DF80E0005287A
:1059500059DCFFE79DF80E0048F6C062C2F2010272
:105960002C2110FB01204088002846D0FFE79DF83D
:105970000E009DF80F10884239DDFFE79DF80F00FB
:1059800048F6C062C2F201022C2110FB01230193F0
:1059900000FB01F89DF80E0010FB0125029500FBAD
:1059A00001F76868D5F808C0D5F80CE02C696E6975
:1059B000D75942F808705E611C61C3F80CE0C3F867
:1059C00008C05860A869D5F81CC0D5F820E06C6AFA
:1059D000AD6A9D625C62C3F820E0C3F81CC09861A8
:1059E0009DF80E0010FB0120FAF736FCFFE79DF84A
:1059F0000F0001308DF80F00FFE79DF80E00013019
:105A00008DF80E00A1E704B0BDE8F08100000000B1
:105A100048F22440C2F2010070470000000000007C
:105A200080B582B0019001984A21072200F0F8F970
:105A3000019800884AF6CD31884207D0FFE70198E7
:105A400000F0AAF8019800F06BF821E00198B0F896
:105A50000500ADF8020001990020A1F805000199A8
:105A600048F64820C2F20100072201F061F9ADF8C2
:105A70000000BDF80200BDF80010884207D0FFE723
:105A8000019800F089F8019800F04AF8FFE7FFE775
:105A90000199002088600199C86002B080BD0000B3
:105AA00080B582B001900198007908B9FFE709E05C
:105AB0000198002181600198C160019800790FF080
:105AC0001FFCFFE702B080BD80B584B0039003984F
:105AD000007908B9FFE720E002F086F8029002980A
