:020000040800F2
:1000000098930320DD01000899320108F1040108EA
:1000100091320108C9140008D18F010800000000C6
:10002000000000000000000000000000EF010008D8
:10003000F91F000800000000F3010008015E01083C
:10004000F7010008F7010008F7010008F7010008B0
:10005000F7010008F7010008F7010008F7010008A0
:10006000F7010008F7010008F7010008F701000890
:10007000F7010008F7010008F7010008F701000880
:10008000F7010008F7010008F7010008F701000870
:10009000F7010008F7010008F7010008F701000860
:1000A000F7010008F7010008F7010008F701000850
:1000B000F7010008F7010008F7010008F701000840
:1000C000F7010008F7010008F7010008F701000830
:1000D000F7010008B18F0108C18F0108F70100087E
:1000E000F7010008F7010008F7010008F701000810
:1000F000F7010008F7010008F7010008F701000800
:10010000F7010008F7010008F7010008F7010008EF
:10011000F7010008F7010008F7010008F7010008DF
:10012000F7010008F7010008F7010008F7010008CF
:10013000F7010008F7010008F7010008F7010008BF
:10014000F7010008F7010008F7010008F7010008AF
:10015000F7010008F7010008F7010008F70100089F
:10016000F7010008F7010008F7010008F70100088F
:10017000F7010008F7010008F7010008000000007F
:10018000F7010008F7010008F7010008F70100086F
:10019000F7010008F7010008F7010008F70100085F
:1001A00019140108F701000831680008F701000878
:1001B000914E0108F7010008F7010008F701000857
:1001C000F7010008F7010008DFF80CD000F0B4FBDD
:1001D0000048004791B201089893032006488047E1
:1001E00006480047FEE7FEE7FEE7FEE7FEE7FEE71C
:1001F000FEE7FEE7FEE7FEE7D95F0108C901000858
:10020000002800DA4042704710B5441A0346944271
:1002100009D28318114403E011F8014D03F8014D90
:10022000521EF9D210BD40EA0104A40703D009E030
:1002300010C9121F10C3042AFAD203E011F8014BAF
:1002400003F8014B521EF9D210BDD2B201E000F802
:10025000012B491EFBD270470022F6E710B513466A
:100260000A4604461946FFF7F0FF204610BD421C1F
:1002700010F8011B0029FBD1801A704730B50446E5
:100280000020034600E05B1C934203D2E05CCD5C9F
:10029000401BF8D030BD034611F8012B00F8012BAC
:1002A000002AF9D1184670472DE9FE4F804681EAB1
:1002B0000300C00F0C46009021F0004123F00045E0
:1002C000B8EB0200A94105D24046214690461C46A3
:1002D0000B46024623F00040104347D0270DC7F3DA
:1002E0000A00C3F30A510290401A019040286BDAC9
:1002F000C3F3130040F4801B0098924620B1002302
:10030000D2EB030A63EB0B0B01985946C0F1400294
:10031000504600F004FA06460D4650465946019AEA
:1003200000F01CFA10EB08006141002487EA11522A
:1003300084EAE7731A4340D0009A62B3019A012A13
:100340004FEA075215DC001B61EB02014FF000423F
:1003500002EA0752CDE90042001C41F58011324605
:100360002B4600F053FA03B0BDE8F08F404621461B
:10037000F9E7001B61EB0201001C41F58013001836
:100380005B412018A2F5001747EB030140EAD57046
:10039000B6196D4111E06D084FEA360645EAC075A1
:1003A0004FEA0752001B61EB0201001C41F580116E
:1003B00049084FEA30000019514132462B4603B03C
:1003C000BDE8F04F00F013BA00980122400000236E
:1003D000D0EB020263EBE073009821464FEAE07431
:1003E000B8EB000061EB0401E9E783F000435BE751
:1003F00081F0004158E72DE9FE4F81EA030404F043
:10040000004421F0004100944FF0000B23F0004322
:1004100050EA01045ED052EA03045BD0C3F30A54ED
:10042000C1F30A552C44A4F2F3340194A0FB025406
:10043000C1F3130141F48011C3F3130343F4801398
:1004400001FB024400FB034E840A970A44EA8154EC
:1004500047EA8357A4FB076802958D0A05FB0785C9
:100460004FEA932C04FB0C542705029D4FEA0658D3
:1004700047EA1637B5EB08056EEB070C870E920EB0
:1004800047EA811742EA8312A7FB0201B6EB0B0190
:1004900064EB00042B0D43EA0C335E1844EB1C5054
:1004A000DA465146E7FB0201C5F313044FEA0B336A
:1004B00043EA14534FEA0432019C43EA0603A4F1D1
:1004C0000C040294009CCDE900B400F09FF903B045
:1004D000BDE8F08F00200146F9E72DE9F04D81EAF3
:1004E000030404F0004B21F0004514464FF0000ACD
:1004F00023F0004150EA050220D054EA01021DD049
:10050000C5F30A570246C5F31303C1F31300C1F341
:100510000A5640F4801543F48013A7EB0608101B1D
:10052000D64608F2FD3873EB050002D308F1010846
:1005300001E092185B41B8F1000F03DA0020014698
:10054000BDE8F08D00204FF48011064684460EE091
:10055000171B73EB050705D3121B63EB050306435B
:100560004CEA010C49084FEA300092185B4150EA0E
:100570000107EDD152EA030012D082EA040083EAB7
:100580000501084305D0101BAB4106D20122002310
:1005900006E000224FF0004302E06FF0010253102A
:1005A0001AEB06004CEB085110EB0A0041EB0B0173
:1005B000BDE8F04D00F01BB90EB5C10F80EAE07048
:1005C0000844CA07002140F233438DE80E000A4672
:1005D0000B4600F01BF903B000BD0EB540F23341ED
:1005E00002910021CDE900110A460B4600F00EF9F8
:1005F00003B000BD70B5C1F30A5201F000450024FC
:10060000C1F3130140F2FF3341F480119A4201DA41
:10061000002070BD40F233439A42A2F2334203DC21
:10062000524200F08BF800E090402C43F1D0404261
:1006300070BD00F0004230F000400AD0C10D01F55D
:100640006071C0F3160042EA0151C208400711432D
:10065000704700200146704701F0004330B421F09C
:10066000004150EA010206D00A0DA2F56072C1F302
:100670001301002A02DC30BC00207047440F44EA1A
:10068000C104C100E01830BC00EBC25000F078B8E3
:1006900030B50B46014600202022012409E021FA52
:1006A00002F59D4205D303FA02F5491B04FA02F54F
:1006B0002844151EA2F10102F1DC30BD2DE9F05FE6
:1006C0000546002092469B468846064681464024C1
:1006D0001BE0284641464746224600F02FF8534685
:1006E0005A46C01A914110D311461846224600F0CE
:1006F00016F82D1A67EB01084F462246012000210B
:1007000000F00DF817EB00094E41201EA4F1010482
:10071000DFDC484631462A464346BDE8F09F202AA2
:1007200004DB203A00FA02F1002070479140C2F148
:10073000200320FA03F3194390407047202A04DB7A
:10074000203A21FA02F00021704721FA02F3D0404A
:10075000C2F120029140084319467047202A06DB67
:10076000CB17203A41FA02F043EAE07306E041FA7F
:1007700002F3D040C2F1200291400843194670476D
:100780000029A8BF7047401C490008BF20F00100A5
:10079000704710B4B0FA80FC00FA0CF050EA010483
:1007A00004BF10BC704749B1CCF1200421FA04F415
:1007B00011FA0CF118BF012121430843A3EB0C01EE
:1007C000CB1D4FEA00614FEA102042BF002010BC51
:1007D000704700EBC35010440029A4BF10BC704701
:1007E000401C490008BF20F0010010BC704710B544
:1007F000141E73F1000408DA401C41F10001921844
:100800005B411A4301D120F0010010BD2DE9F04DEC
:1008100092469B4611B1B1FA81F202E0B0FA80F241
:1008200020329046FFF77BFF04460F4640EA0A005D
:1008300041EA0B0153465A46084313D0114653EA86
:10084000010019D0C8F140025046FFF777FF054676
:100850000E46504659464246FFF761FF084305D011
:10086000012004E020463946BDE8F08D0020054314
:1008700046EAE0762C4337430A986305E40AA0EB86
:1008800008000022FD0A44EA47540A3002D500203D
:100890000146E9E7010510196941DDE9084500193C
:1008A0006941BDE8F04DA2E7C1F30A52C1F313015B
:1008B00040F2FF3341F480119A4202DA00200146EF
:1008C000704740F233439A42A2F2334202DC524272
:1008D000FFF734BFFFF723BF30B5041E71F10004EA
:1008E00004DB4FF00044404264EB0101141E73F13D
:1008F000000405DB1C464FF00043524263EB040347
:100900008B4208BF824230BD30B5041E71F1000435
:1009100004DB4FF00044404264EB0101141E73F10C
:10092000000405DB1C464FF00043524263EB040316
:10093000994208BF904230BD064C074D06E0E06882
:1009400040F0010394E8070098471034AC42F6D316
:10095000FFF73EFCFCFB04082CFC040870B58C1867
:1009600010F8015B15F0070301D110F8013B2A11C3
:1009700006D110F8012B03E010F8016B01F8016BB0
:100980005B1EF9D12B0705D40023521E0DD401F8AC
:10099000013BFAE710F8013BCB1A921C03E013F875
:1009A000015B01F8015B521EF9D5A142D8D30020AA
:1009B00070BD00000000000080B58CB049F26C30C2
:1009C000C2F20100C07BC007002801D1FFE756E159
:1009D00040F26470C2F201000078C00700285DD0C8
:1009E000FFE700208DF81F00FFE79DF81F00092892
:1009F00021DCFFE747F6C030C2F20100069009F0A3
:100A0000BFFC0A21069A0590104609F029FC0699B8
:100A10000490084609F0BCFB9DF81F1040F64C42BC
:100A2000C2F2010222F81100FFE79DF81F00013019
:100A30008DF81F00D9E7002009900890FFE708987B
:100A400009280FD8FFE7089840F64C41C2F201018F
:100A500031F81000099908440990FFE7089801301F
:100A60000890ECE709984CF6CD41CCF6CC41A0FBC0
:100A70000101C9080991BDF824100390084614F03B
:100A8000E7FA40F64440C2F2010080ED000A40F26D
:100A90006470C2F2010000210170FFE70AF0ACFCB3
:100AA00040F64041C2F201010968401AB0F5AC7F3E
:100AB00040F2E580FFE70AF09FFC40F64041C2F2B9
:100AC0000101086047F6C030C2F20100029009F04F
:100AD00057FC0A21029A0190104609F0C1FB0299C5
:100AE0000090084609F054FBADF81C00BDF81C004E
:100AF00040F64841C2F201010A6840F64C43C2F296
:100B0000010323F812000868013008600A2807D39F
:100B1000FFE740F64840C2F2010000210160FFE714
:100B2000002009900890FFE7089809280FD8FFE7F0
:100B3000089840F64C41C2F2010131F810000999C1
:100B400008440990FFE7089801300890ECE70998FD
:100B50004CF6CD41CCF6CC41A0FB0101C90809916E
:100B60000999642905D3FFE70998B0F57A6F18D978
:100B7000FFE740F64840C2F201000068002809D1B2
:100B8000FFE748F62900C2F20100017801F0FE01FA
:100B90000170FFE749F26C30C2F201000021418090
:100BA0006CE040F64840C2F201000068002809D11C
:100BB000FFE748F62900C2F20100017841F0010187
:100BC0000170FFE7BDF8240014F042FA8DED0B0A26
:100BD00040F64440C2F2010090ED000A9DED0B1A70
:100BE0009FED282A21EE021A9FED272A00EE021A15
:100BF00080ED001A90ED000AB2EE041A20EE010A10
:100C0000BDEEC00A10EE100AADF82A0049F26C30B1
:100C1000C2F20100B0F9020046F26761C6F26661F5
:100C200050FB01F0821002EBD070BDF92A2052FB7C
:100C300001F18A1002EBD171401AFFF7E1FA00EEE0
:100C4000100AB8EEC00A9FED111AB4EE410AF1EE97
:100C500010FA12DDFFE7BDF82A0049F26C31C2F24A
:100C60000101488047F63820C2F20100026842F4D0
:100C70008012026001200874FFE7FFE7FFE70CB075
:100C800080BD00BFCDCCCC3D6666663FCDCC4C3E32
:100C900081B0009042F20430C4F20100016821F4F6
:100CA0004031016000994968026811430160009871
:100CB0000068416821F48071416000980168006912
:100CC0004A6842EA0020486000980068416821F0C4
:100CD000407141600098016880684A68104348602C
:100CE00000980068816821F40061816000980168C3
:100CF000C0688A68104388600098806A0121C0F645
:100D00000071884219D0FFE700980068816821F0DF
:100D10007061816000980168806A8A681043886009
:100D200000980068816821F0405181600098016856
:100D3000C06A8A68104388600CE000980068816887
:100D400021F07061816000980068816821F0405155
:100D50008160FFE700980068816821F002018160EE
:100D60000098016880698A6842EA400088600098BB
:100D7000006A002819D0FFE700980068416841F434
:100D80000061416000980068416821F46041416061
:100D900000980168406A4EF20002CFF6FF7202EB43
:100DA00040304A681043486006E000980068416897
:100DB00021F400614160FFE700980068C16A21F4F6
:100DC0007001C16200980168C0690022CFF6F0721C
:100DD00002EB0050CA6A1043C8620098006881683C
:100DE00021F40071816000980168006B8A6842EA12
:100DF0004020886000980068816821F480618160EB
:100E00000098016840698A6842EA8020886001B0E1
:100E1000704700000000000080B584B0039002918C
:100E2000029840680178407840EA0120ADF8060059
:100E300000200090FFE70098052839DCFFE7BDF8A7
:100E4000060000282FD0FFE7009800EBC00048F212
:100E5000AC01C2F2010101EB80008089002822D0A0
:100E6000FFE7BDF80600009901EBC10148F2AC02B2
:100E7000C2F2010202EB81018989884213D1FFE7A6
:100E8000009800EBC00048F2AC01C2F2010101EB96
:100E900080000299496889780139B1FA81F14909DC
:100EA00011F0CEFAFFE7FFE7009801300090C2E7AB
:100EB000012004B080BD000080B58CB00B900020F4
:100EC0000A9040F6EC41C2F2010101220A601023AF
:100ED0004B608A60C86048F2DC7CC2F2010C4FF6BD
:100EE000FF7E099060460891079272460693CDF8FE
:100EF00014C0CDF810E00EF027FE079903900846C5
:100F000009F0F2FE02200899086006984860079AE6
:100F10008A60099BCB600598049A0EF015FE0321A8
:100F2000089A11600699516008239360099BD36069
:100F3000DDF814C0029060461146049A0EF004FEDB
:100F40004FF408710A910421089A116006995160C2
:100F5000079B9360DDF828C0C2F80CC0DDF814C010
:100F6000019060461146049A0EF0EEFD0B99059A29
:100F7000009010460EF0C4FD0CB080BD00000000D3
:100F800080B59AB019901891FFE743F63800C4F283
:100F90000200016841F001010160006800F00100F9
:100FA00012901298FFE7FFE743F63000C4F2020008
:100FB000016841F480010160006800F48000119034
:100FC0001198FFE7FFE743F63000C4F20200016822
:100FD00041F001010160006800F0010010901098DC
:100FE000FFE7FFE743F63000C4F20200016841F07A
:100FF00004010160006800F004000F900F98FFE703
:10100000FFE743F63000C4F20200016841F0080136
:101010000160006800F008000E900E98FFE7FFE7FF
:1010200043F63000C4F20200016841F01001016093
:10103000006800F010000D900D98FFE7FFE743F601
:101040003000C4F20200016841F020010160006834
:1010500000F020000C900C98FFE7FFE743F630000B
:10106000C4F20200016841F040010160006800F034
:1010700040000B900B98FFE74FF63F0013900220C3
:10108000149000211591032216920C23179341F21C
:10109000004CC4F2020C0DF14C0E0A90604609910E
:1010A000714608920793CDF818E009F071FF80208F
:1010B00013900A991491099A1592089B1693DDF8DA
:1010C0001CC0CDF85CC040F2000EC4F2020E0590C8
:1010D0007046069909F05CFF302013900A9814902E
:1010E00009991591089A1692079B179340F60000EC
:1010F000C4F20200069909F04BFF48F23310139036
:101100000A98149009991591089A1692079B1793BB
:1011100041F60000C4F20200069909F039FF4FF6CB
:10112000837013900A98149009991591089A169251
:10113000079B179341F20000C4F20200069909F0E0
:1011400027FF4CF2037013900A9814900999159197
:10115000089A1692079B179340F60040C4F20200CB
:10116000069909F015FF40F66040C2F201000999A6
:101170004160059A82604FF40073C3604FF480634E
:1011800003614FF4805343614FF480438361C16135
:101190004FF4003303624162089B8362C1620163C2
:1011A00046F2104CC4F2020CC0F800C0FFE71998D8
:1011B00040F66041C2F20101016319988863FFE7BC
:1011C00040F66040C2F20100049009F055FC049919
:1011D0000390084609F0A0FC38210F22002302905A
:1011E0000846019111461A460BF02EFE01980BF0AD
:1011F0001FFE1AB080BD000080B592B01190002093
:101200008DF8430049F28030C2F2010000680069A5
:1012100040F68C51C2F20101097803900846039907
:1012200088471199087011980078002800F03881DB
:10123000FFE700200490FFE704981199097888429D
:1012400080F02D81FFE749F28030C2F20100006892
:10125000406940F68C51C2F201010978049A09AB49
:1012600003EB42030DF11A0C0CEB4202029008460C
:101270001946029B984749F28430C2F20100007877
:10128000012811D1FFE7049809A931F810100EAA1E
:1012900022F8101004980DF11A0131F810100DF118
:1012A0002E0222F81010FFE749F28430C2F201004A
:1012B0000078800700280AD5FFE7049809A931F8CB
:1012C0001010C1F580510EAA22F81010FFE749F264
:1012D0008430C2F201000078400700280CD5FFE7F7
:1012E00004980DF11A0131F81010C1F580510DF17B
:1012F0002E0222F81010FFE749F28430C2F20100FA
:1013000000780007002811D5FFE7049809A931F8F3
:1013100010100DF12E0222F8101004980DF11A0190
:1013200031F810100EAA22F81010FFE704980EA949
:1013300031F8101040F6C042C2F2010252F820000B
:1013400081420DD9FFE704980EA931F8101040F63C
:10135000C042C2F2010252F82000081A01900CE0CB
:10136000049840F6C041C2F2010151F820100EAAC3
:1013700032F81000081A0190FFE70198ADF8180044
:1013800004980DF12E0131F8101040F6D442C2F24B
:10139000010252F8200081420ED9FFE704980DF1B6
:1013A0002E0131F8101040F6D442C2F2010252F878
:1013B0002000081A00900DE0049840F6D441C2F2D3
:1013C000010151F820100DF12E0232F81000081A18
:1013D0000090FFE70098ADF81600BDF81800BDF8C2
:1013E00016100844062816DBFFE704980EA931F80A
:1013F000101040F6C042C2F2010242F820100498D8
:101400000DF12E0131F8101040F6D442C2F2010263
:1014100042F82010FFE740F68C50C2F2010000783D
:10142000702812D1FFE704980EA931F81010119A14
:1014300002EB4000418004980DF12E0131F81010AC
:10144000119A02EB4000818124E049F28630C2F219
:1014500001000088049940F6C042C2F2010252F82D
:1014600021205043000B119A02EB4101488049F2C0
:101470008830C2F201000088049940F6D442C2F2DA
:10148000010252F821205043000B119A02EB410156
:101490008881FFE7FFE7049801300490CCE6FFE77E
:1014A0009DF8430012B080BD81B001468DF8030065
:1014B0009DF80300020902EB820200F00F0000EB2E
:1014C0004200C0B201B0704780B514F049F980BD48
:1014D00086B04EF69450CEF20000016821F005016E
:1014E00001604EF69851CEF2000100220A604EF6DD
:1014F0009C51CEF200011023C2F201030B604EF6A4
:10150000A051CEF200013D23C0F202330B60052151
:101510000160BFF34F8FBFF36F8F4EF65070CEF266
:1015200000000260BFF34F8FBFF36F8F4EF6145071
:10153000CEF20000016841F480210160BFF34F8FBB
:1015400000688003002801D5FFE71AE0BFF34F8F42
:10155000BFF36F8F4EF65070CEF200000021016095
:10156000BFF34F8FBFF36F8F4EF61450CEF20000D3
:10157000016841F400310160BFF34F8FBFF36F8FFB
:10158000FFE74EF68450CEF2000000210160BFF369
:101590004F8F4EF68050CEF20000006805900598FF
:1015A000C0F34E300490FFE70598C0F3C9000390E4
:1015B000FFE704980399890760F34D114EF66070B8
:1015C000CEF2000001600398411E03910028F0D183
:1015D000FFE70498411E04910028E5D1FFE7BFF31F
:1015E0004F8FBFF36F8F4EF61450CEF2000000689D
:1015F000C003002801D5FFE73CE04EF68450CEF250
:10160000000000210160BFF34F8F4EF68050CEF2F4
:101610000000006802900298C0F34E300190FFE78E
:101620000298C0F3C9000090FFE70198009989076C
:1016300060F34D114EF66070CEF20000016000982C
:10164000411E00910028F0D1FFE70198411E019151
:101650000028E5D1FFE7BFF34F8F4EF61450CEF2CE
:101660000000016841F480310160BFF34F8FBFF388
:101670006F8FFFE706B0704780B5B8B009F0BCFEC9
:1016800040F6E841C2F201010968401A40F629110A
:10169000884266D3FFE709F0AFFE40F6E841C2F2A8
:1016A0000101086047F6FC50C2F2010032A9002295
:1016B0000DF036FF40F61861C2F201010978C90742
:1016C00000294DD1FFE79DF8CA0040F26571C2F2D2
:1016D0000101097888423BD1FFE740F61860C2F269
:1016E00001000121017026A83022049003911146C7
:1016F000FEF7B2FD0820269003982B9004980DF079
:101700002BFA002805D0FFE7A420982108F068FAFA
:10171000FFE705A884210290FEF79EFD202005909A
:101720004FF40070119002980CF0D2FB002805D005
:10173000FFE7A420982108F053FAFFE747F6FC5092
:10174000C2F201000DF0F8FD019011F0BDFBFFE7C2
:101750009DF8CA0040F26571C2F201010870FFE70E
:10176000FFE738B080BD000081B000900098017A9A
:10177000417201B07047000049F28A30C2F20100A4
:10178000007870470000000081B000900098C08889
:1017900001B070470000000081B000900098808880
:1017A00001B070470000000080B586B00A46059081
:1017B000ADF8121005980021016005980172059896
:1017C00041720598817205980430BDF81210022309
:1017D00003921A46029308F00BF805990631BDF8FA
:1017E0001220023292B2019008461146029A07F086
:1017F000FFFF06B080BD000080B584B00A460390AC
:101800008DF80B100398019200F0EAF900281CD023
:10181000FFE7039800F048FA002804D0FFE7039898
:1018200000214172FFE79DF80B000399087209F04F
:10183000E3FD0399086003980068002804D1FFE7DE
:10184000039801210160FFE7FFE704B080BD0000BD
:1018500080B584B00A4603908DF80B10039801926E
:1018600000F0D6F9002812D0FFE70398007A9DF81F
:101870000B1088420BD1FFE70398407A9DF80B10BC
:10188000884204D1FFE7039800F04EF905E0039881
:101890009DF80B10FFF7B0FFFFE704B080BD00001C
:1018A00081B0009000980021817201B07047000063
:1018B00080B582B0019001980021017201984172B7
:1018C000019801600198FFF7EBFF02B080BD0000B6
:1018D00080B500F089FB47F22251C2F20101087085
:1018E00080BD00000000000080B582B0019009F0CA
:1018F00083FD0199086001980068002804D1FFE782
:10190000019801210160FFE702B080BD00000000E6
:1019100080B586B00A460590ADF8121005980430DF
:10192000BDF81210022303921A46029307F0A8FF93
:1019300005990631BDF81220023292B20190084694
:101940001146029A07F09CFF06B080BD000000001F
:1019500081B001468DF803009DF8030047F2225242
:10196000C2F20102107001B07047000000000000D8
:1019700080B586B000208DF81700FFE79DF81700AE
:101980000E2800F39180FFE79DF8170000EB400060
:1019900047F22451C2F2010101EB80000490049847
:1019A00000F01EF9002801D1FFE777E0049800F06D
:1019B000FFF8002804D0FFE7049800F0B5F8FFE72F
:1019C000049800F0E9F8002867D0FFE70020ADF8A0
:1019D0000A00049800F05CF900280CD1FFE7049895
:1019E00000F04AF900280BD0FFE7049800F02CF92A
:1019F000002805D0FFE70498FFF7CEFE019004E031
:101A00000498FFF7C1FE0190FFE70198ADF80A00C6
:101A10009DF80B008DF80D00BDF80A008DF80E0042
:101A2000049800F029F9002803D0FFE70020009077
:101A300008E0049800F02CF90221002818BF0121C9
:101A40000091FFE700988DF80F0047F2DE00C2F228
:101A5000010011210DF10D02032307F06DFC48F286
:101A6000D071C2F2010109780D2907D1FFE740F6D4
:101A70005B00C2F2010001210170FFE7049800F051
:101A8000FBF8002804D0FFE70498FFF711FF03E0FC
:101A90000498FFF769FEFFE7FFE7FFE79DF81700EF
:101AA00001308DF8170069E706B080BD0000000026
:101AB00081B000900098002181800098C18000983A
:101AC00001720098417200980160009801600098CE
:101AD000817201B07047000081B001468DF80300AB
:101AE0009DF8030049F28A32C2F20102107001B07F
:101AF000704700000000000082B00A460190ADF877
:101B00000210BDF802000199C88002B070470000C1
:101B100082B00A460190ADF80210BDF802000199AA
:101B2000888002B07047000081B0009000980021CA
:101B3000017201B07047000080B584B00A4603907E
:101B40008DF80B109DF80B00039948729DF80B005F
:101B50000399087203980192FFF7C6FE04B080BD96
:101B600080B582B047F22250C2F2010000780190A5
:101B700000F03AFA0199081AB0FA80F0400902B070
:101B800080BD00000000000047F22250C2F20100B8
:101B9000007870470000000081B000900098017A42
:101BA000407A081A18BF012001B0704700000000F9
:101BB00080B582B0019009F01FFC01990968401AB4
:101BC0000090FFF7D9FD4FF47A7148430021009A45
:101BD000824228BF0121084602B080BD00000000FB
:101BE00082B001900198808800210028009107D0E0
:101BF000FFE70198C088002818BF01200090FFE788
:101C0000009800F0010002B07047000000000000E2
:101C100080B582B001900198FFF7E2FF002807D05D
:101C2000FFE70198407A002818BF0120009002E0E9
:101C300000200090FFE70098002818BF012002B0A4
:101C400080BD00000000000081B000900098407A44
:101C50000138B0FA80F0400901B070470000000080
:101C600081B000900098007A0238B0FA80F0400904
:101C700001B070470000000081B000900098007A29
:101C8000B0FA80F0400901B0704700000000000089
:101C900081B000900098007A0138B0FA80F04009D5
:101CA00001B070470000000081B000900098807A79
:101CB000002818BF012001B070470000000000009C
:101CC00080B582B047F2D850C2F201000021017005
:101CD0008DF80710FFE79DF807000E281FDCFFE7CF
:101CE0009DF8070000EB400047F22451C2F20101C9
:101CF00001EB8000FFF774FF002808D0FFE747F2F0
:101D0000D850C2F2010001780131017000E006E014
:101D1000FFE79DF8070001308DF80700DBE702B010
:101D200080BD00000000000080B582B049F28A301A
:101D3000C2F201004FF4D871012207F059FD0021D1
:101D40008DF80710FFE79DF807000E2819DCFFE764
:101D50009DF8070000EB400147F22452C2F2010255
:101D600002EB8101932202EB80000090084600996B
:101D7000FFF71AFDFFE79DF8070001308DF8070017
:101D8000E1E7FFF79DFF02B080BD0000000000000A
:101D900080B582B001468DF8070047F2D950C2F2F3
:101DA000010001220270009100F052F9002832D0A7
:101DB000FFE700208DF80600FFE79DF806000E28DB
:101DC00028DCFFE79DF8060000EB400047F22451B5
:101DD000C2F2010101EB8000FFF702FF002812D0E0
:101DE000FFE79DF807000121012808BF02219DF8A7
:101DF000060000EB400047F22452C2F2010202EB5F
:101E000080004172FFE7FFE79DF8060001308DF882
:101E10000600D2E7FFE700208DF80500FFE79DF8F8
:101E200005000E2815DCFFE79DF8050000EB4000DB
:101E300047F22451C2F2010101EB80009DF8071026
:101E4000FFF7DAFCFFE79DF8050001308DF805008B
:101E5000E5E702B080BD000080B582B001468DF894
:101E6000070001208DF806009DF80700002857D0D4
:101E7000FFE700208DF80500FFE79DF805000090C2
:101E800000F0B2F80099814249DAFFE79DF80500B9
:101E900000EB400047F22451C2F2010101EB800047
:101EA000FFF79EFE002833D0FFE79DF8050000EB0A
:101EB000400047F22451C2F2010101EB8000FFF71C
:101EC000A7FE002820D0FFE79DF8050000EB4000AA
:101ED00047F22451C2F2010101EB8000007A9DF823
:101EE0000710884210D1FFE79DF8050000EB400085
:101EF00047F22451C2F2010101EB8000407A9DF8C3
:101F00000710884204D0FFE700208DF80600FFE7A5
:101F1000FFE79DF8050001308DF80500ADE7FFE70C
:101F20009DF80600002803D0FFE700F071F804E0F8
:101F30009DF80700FFF72CFFFFE702B080BD00000F
:101F400080B582B049F28A30C2F201004FF4D871F4
:101F5000012207F095FC00218DF80710FFE79DF89E
:101F600007000E2819DCFFE79DF8070000EB400191
:101F700047F22452C2F2010202EB8101932202EBEA
:101F80008000009008460099FFF7C2FCFFE79DF82B
:101F9000070001308DF80700E1E7FFF791FE02B07E
:101FA00080BD00000000000080B582B000208DF8E8
:101FB0000700FFE79DF807000E2813DCFFE79DF8F8
:101FC000070000EB400047F22451C2F2010101EB8F
:101FD0008000FFF76DFDFFE79DF8070001308DF8E9
:101FE0000700E7E702B080BD47F2D850C2F2010017
:101FF00000787047000000007047C06B1BF08FBB7B
:102000000000000000000000452618310000010813
:1020100080B582B000208DF80700FFE79DF807002B
:102020000E2813DCFFE79DF8070000EB400047F2A5
:102030002451C2F2010101EB8000FFF775FDFFE7BB
:102040009DF8070001308DF80700E7E702B080BD7A
:1020500080B582B000208DF80600FFE79DF80600ED
:102060000E281ADCFFE79DF8060000EB400047F25F
:102070002451C2F2010101EB8000FFF7C9FD0028E5
:1020800004D0FFE701208DF807000AE0FFE79DF884
:10209000060001308DF80600E0E700208DF807000B
:1020A000FFE79DF8070002B080BD000000000000BF
:1020B00080B582B000208DF806008DF80500FFE79E
:1020C0009DF805000E283CDCFFE79DF8050000EBBD
:1020D000400047F22451C2F2010101EB8000FFF7FA
:1020E0007FFD002813D0FFE79DF8050000EB4000BE
:1020F00047F22451C2F2010101EB8000FFF7B0FD6D
:10210000002804D1FFE700208DF8070021E09DF8AA
:10211000050000EB400047F22451C2F2010101EB3F
:102120008000FFF75DFD002804D0FFE701208DF857
:102130000600FFE7FFE79DF8050001308DF8050078
:10214000BEE79DF80600002818BF01208DF80700A3
:10215000FFE79DF8070002B080BD0000000000000E
:1021600080B582B000208DF806008DF80500FFE7ED
:102170009DF805000E283CDCFFE79DF8050000EB0C
:10218000400047F22451C2F2010101EB8000FFF749
:1021900027FD002813D0FFE79DF8050000EB400065
:1021A00047F22451C2F2010101EB8000FFF770FDFC
:1021B000002804D1FFE700208DF8070021E09DF8FA
:1021C000050000EB400047F22451C2F2010101EB8F
:1021D0008000FFF705FD002804D0FFE701208DF8FF
:1021E0000600FFE7FFE79DF8050001308DF80500C8
:1021F000BEE79DF80600002818BF01208DF80700F3
:10220000FFE79DF8070002B080BD0000000000005D
:1022100080B584B0039002910298406801784078BC
:1022200040EA0120ADF8060000200090FFE700988A
:10223000052835DCFFE7BDF8060000282BD0FFE7B6
:10224000009800EBC00048F2AC01C2F2010101EBC2
:102250008000808900281ED0FFE7BDF806000099A5
:1022600001EBC10148F2AC02C2F2010202EB8101B2
:10227000898988420FD1FFE7009800EBC00048F23F
:10228000AC01C2F2010101EB800002994968897832
:102290000FF00EFAFFE7FFE7009801300090C6E765
:1022A000012004B080BD000080B5A6B047F63820FC
:1022B000C2F2010040780006002802D4FFE700F0D7
:1022C00041BC47F6FC50C2F2010048F26471C2F210
:1022D000010101221D901C920DF022F948F260715B
:1022E000C2F201011D9A1B9010461C9A0DF0D8F8FD
:1022F00048F2D371C2F20101097848F2D272C2F2F7
:102300000102127891424BDBFFE748F26470C2F29F
:1023100001000078FFF7C8F848F2D371C2F201015A
:102320000978884209DBFFE747F63820C2F201004E
:10233000016841F40011016031E048F26470C2F2BA
:1023400001000078FFF7B0F848F2D271C2F2010143
:102350000978884209DAFFE747F63820C2F201001F
:10236000016841F40011016018E047F63820C2F21C
:1023700001008078800600280FD5FFE747F6382057
:10238000C2F20100016821F40011016048F2D0702E
:10239000C2F2010004210170FFE7FFE7FFE753E00D
:1023A00048F2D370C2F20100007848F2D271C2F252
:1023B00001010978884246DAFFE748F26470C2F208
:1023C0000100007848F2D271C2F2010109780022BE
:1023D0008842B8BF01221046FFF766F8002818D0DF
:1023E000FFE748F26470C2F201000078FFF75CF882
:1023F00048F2D371C2F201010978884209DBFFE794
:1024000047F63820C2F20100016841F40011016072
:1024100018E047F63820C2F20100807880060028D4
:102420000FD5FFE747F63820C2F20100016821F41A
:102430000011016048F2D070C2F201000421017065
:10244000FFE7FFE7FFE7FFE747F63820C2F20100AA
:1024500080788007002840F1DE82FFE747F63820C9
:10246000C2F2010080788006002840F1D482FFE7A4
:1024700047F63820C2F2010080784007002840F17A
:10248000CA82FFE747F63820C2F201008078400692
:1024900000280DD5FFE740F6FC40C2F201000078AD
:1024A00048F26071C2F201010978884241D0FFE729
:1024B00047F63820C2F20100016841F48001016052
:1024C00000201A901CF0A2FC1A981CF053FF1990DF
:1024D0001BF04BFB1A981CF00BFD012018901CF010
:1024E00095FC18981CF046FF4FF07F411790084666
:1024F0001CF058FF1BF039FB40F65900C2F20100F6
:102500003C21017048F26070C2F20100007840F690
:10251000FC41C2F20101087009201CF0A1FF4FF438
:102520007F41169008461CF03FFF18981CF0E0FC15
:10253000FFE748F26470C2F201001EA90222159062
:10254000084615990DF0D8FF15988178C90700291C
:1025500004D0FFE73A208DF87A0003E020208DF8C0
:102560007A00FFE71EA8C11C48F26472C2F20102A1
:10257000013202231490084611461A460DF0BCFFA2
:10258000F02088211CF088F848F2D171C2F20101D4
:10259000097840F2A872C2F2010252F82110139099
:1025A00008461CF001FF40F26060C0F604001CF019
:1025B00009FF0E21129008461CF05AFF01211190CC
:1025C00008461CF023FC002050214FF4F072C02379
:1025D00010901BF0D9FADC2164224FF48773109815
:1025E0001BF0D2FA14981BF01FFC48F26070C2F284
:1025F00001000078002807D1FFE748F26070C2F2BE
:10260000010007210170FFE748F26070C2F201008B
:10261000007801280FD1FFE742F22000ADF88000DA
:1026200046F26E40C7F661101F9042F22000C6F6D7
:102630004D701E908FE048F26070C2F20100007889
:1026400002280FD1FFE742F27900ADF8800047F28F
:102650007340C6F264101F9045F22040C6F27550D8
:102660001E9077E048F26070C2F201000078032803
:102670000FD1FFE742F27900ADF8800047F26530F4
:10268000C6F264101F9046F25750C6F664601E9062
:102690005FE048F26070C2F20100007804280FD1B8
:1026A000FFE742F27900ADF8800047F27340C6F2CE
:1026B00064101F9046F65400C7F275201E9047E044
:1026C00048F26070C2F20100007805280FD1FFE7E0
:1026D00042F22000ADF8800046F26940C7F6611072
:1026E0001F9042F22000C7F246201E902FE048F2D1
:1026F0006070C2F20100007806280FD1FFE742F2B5
:102700007900ADF8800047F27520C6F264101F9082
:1027100045F22030C7F261401E9017E048F2607029
:10272000C2F20100007807280FD1FFE742F2200033
:10273000ADF8800046F26E40C7F661101F9042F27D
:102740002000C7F253501E90FFE7FFE7FFE7FFE7C7
:10275000FFE7FFE7FFE71EA80A3048F26071C2F208
:1027600001018A1C02230F9111461A460DF0C4FE86
:102770000F98417801290FD1FFE742F27900ADF8B7
:102780008C0047F26E50C7F26120229042F22E0078
:10279000C6F24A10219007E148F26070C2F20100CF
:1027A000407802280FD1FFE747F67210ADF88C0091
:1027B00047F26220C6F27510229042F22E00C6F255
:1027C00046502190EFE048F26070C2F2010040787C
:1027D00003280FD1FFE742F22000ADF88C0047F24A
:1027E0006120C6F66300229042F22E00C4F620500B
:1027F0002190D7E048F26070C2F2010040780428CE
:102800000FD1FFE742F22000ADF88C0047F27020B4
:10281000C6F66940229042F22E00C4F220102190A8
:10282000BFE048F26070C2F20100407805280FD185
:10283000FFE742F22000ADF88C0046F24D10C2F2E4
:102840007900229042F22E00C2F220002190A7E0EF
:1028500048F26070C2F20100407806280FD1FFE70D
:1028600042F22000ADF88C0047F24A50C6F26E509A
:10287000229042F22E00C2F2200021908FE048F216
:102880006070C2F20100407807280FD1FFE742F2E2
:102890002000ADF88C0047F24A50C7F66C10229029
:1028A00042F22E00C2F22000219077E048F26070E0
:1028B000C2F20100407808280FD1FFE742F2200061
:1028C000ADF88C0047F26750C7F27340229042F295
:1028D0002E00C7F2415021905FE048F26070C2F2D2
:1028E0000100407809280FD1FFE747F26520ADF8D5
:1028F0008C0046F27450C6F26D20229045F22E30C4
:10290000C7F26500219047E048F26070C2F2010012
:10291000407810280FD1FFE742F27200ADF88C002A
:1029200046F67470C6F26250229042F22E00C6F251
:102930004F3021902FE048F26070C2F201004078E1
:1029400011280FD1FFE747F26520ADF88C0046F261
:102950007650C6F26D20229042F22E00C6F64E70DE
:10296000219017E048F26070C2F20100407812280E
:102970000FD1FFE747F26520ADF88C0046F26350B7
:10298000C6F26D20229042F22E00C6F244502190F1
:10299000FFE7FFE7FFE7FFE7FFE7FFE7FFE7FFE707
:1029A000FFE7FFE7FFE7FFE730208DF8900043F2F5
:1029B0002020ADF88E001EA800F1190148F26072C7
:1029C000C2F20102033202230E90084611461A4653
:1029D0000DF092FD2E208DF8930000208DF89400CC
:1029E00047F64020C0F603001CF0ECFCF021CE229C
:1029F0000D90084611461BF04FFE0E210C90084624
:102A00001CF036FD0E990B9008461BF00DFA0120C4
:102A10001CF06EFA60E040F65900C2F20100007846
:102A200048F26471C2F201014978884253D0FFE74D
:102A300048F26470C2F20100014611F8012F40F61D
:102A40005903C2F201031A701EAA02230A9010460B
:102A5000DDF828C00991614608921A4607930DF0E7
:102A60004BFD3A208DF87A00089803300999079AAF
:102A70000DF042FD49F67000C0F603001CF0A2FC08
:102A80006FF07F41069008461CF08EFC07981CF002
:102A9000F9FC0C21059008461CF0EAFC0121049089
:102AA000084603911CF0B2F90520F5211BF0F4FD56
:102AB0000021DC2264234FF4877C029008461146F3
:102AC0001A4663461BF060F808981BF0ADF90398AE
:102AD0001CF00EFAFFE7FFE740F6FC40C2F20100EF
:102AE000007848F26071C2F201010978884229D069
:102AF000FFE748F26070C2F20100017840F6FC4244
:102B0000C2F201021170827847F6FC51C2F2010153
:102B1000022301900846009119460CF0F9FB019838
:102B20004278032100980CF0F3FB0198027804210D
:102B300000980CF0EDFB0198C278052100980CF08C
:102B4000E7FBFFE726B080BD80B582B001468DF877
:102B500006009DF80600012816D1FFE740F6FD406B
:102B6000C2F20100007800280ED1FFE740F6FD40D8
:102B7000C2F201000121017008F03EFC40F6005154
:102B8000C2F20101086039E09DF8060001281FD15A
:102B9000FFE740F6FD40C2F201000078012817D19E
:102BA000FFE708F029FC40F60051C2F20101096874
:102BB000401AB0F5586F0AD3FFE740F6FD40C2F265
:102BC00001000021017001208DF807001AE014E0D7
:102BD0009DF8060000280FD1FFE740F6FD40C2F245
:102BE00001000078012807D1FFE740F6FD40C2F25E
:102BF000010000210170FFE7FFE7FFE700208DF8EB
:102C00000700FFE79DF8070002B080BD000000004C
:102C100080B547F63820C2F201008078800700288E
:102C200010D5FFE747F63820C2F201008078800611
:102C3000002807D5FFE748F2D070C2F20100042156
:102C40000170FFE747F63820C2F20100016821F465
:102C500000310160016821F48001016008F0CCFBC3
:102C600048F2D471C2F20101086048F2D870C2F291
:102C700001001E21017047F60450C2F201000078E5
:102C800000F002F880BD000081B001468DF803001D
:102C90009DF80300042804DCFFE705208DF80300FD
:102CA00009E09DF80300512804DBFFE750208DF870
:102CB0000300FFE7FFE79DF8030000EB8000400002
:102CC00047F61C61C2F201010968486301B0704710
:102CD00080B586B0012005901CF098F8C3209121A2
:102CE0004FF4A072EB231AF04FFF6FF07F401CF0FF
:102CF0005BFB4CF6D040C0F603001CF063FB0021E8
:102D0000049008461CF0BEFB0599039008461CF091
:102D1000AFFBC82196220290084611461BF0BCFC6E
:102D200049F26C31C2F20101497902220190084650
:102D300011461BF039F805981CF0DAF806B080BD92
:102D400080B58EB01BF0B0FC43F29961C0F6010172
:102D50000C9008461CF06AF901200B9021F0E4FC6D
:102D60000A901CF0D7FC00201CF004FB09901AF01C
:102D7000FCFE0B981CF0FEFA4FF07F4108900846CD
:102D80001CF010FB1AF0F1FE1BF002FB40F6905114
:102D9000C2F20101302207900846114612F0DCFB16
:102DA00040F6D450C2F20100502112F0D5FB46F695
:102DB0008740C2F201004FF4E3710B9A06F018FD50
:102DC0000DF137014FF40072069008460591114647
:102DD0000B9A06F00DFD9DF8372048F2AD21C2F2A6
:102DE000010140F20123049008460391194606F0C0
:102DF000FFFC4FF41071059A029010460B9A06F0F2
:102E0000F7FC9DF83720039901F1320340F241218C
:102E10000190184606F0ECFC009008F0EDFA47F639
:102E20007C21C2F2010108600EB080BD00000000EC
:102E300080B5ADF5966D08F0DFFA40F60451C2F2A8
:102E400001010968401A64280AD3FFE708F0D4FAA0
:102E500040F60451C2F2010108601BF099FAFFE745
:102E600047F68520C2F201000078C007002845D04F
:102E7000FFE740F26670C2F20100007800283BD103
:102E8000FFE740F26670C2F20100012101700846BE
:102E9000CDF870141BF0BAFF1AF067FE47F6402019
:102EA000C0F603001CF08EFA4AF2FF51CDF86C0414
:102EB00008461CF079FA02201CF0E4FA0E21CDF845
:102EC000680408461CF0D4FAF0218722CDF8640487
:102ED000084611461BF0E0FB4FF62531C0F6040111
:102EE000CDF8600408461AF09FFFDDF870041BF06F
:102EF000FFFFFFF78DFEFFE703F096BC40F2667020
:102F0000C2F20100007801280CD1FFE740F26670A0
:102F1000C2F201000021017048F2D470C2F2010037
:102F200001605BE040F26670C2F2010000780228A6
:102F300053D1FFE740F26670C2F201000021017038
:102F40000120CDF85C041BF061FF1AF00EFE092091
:102F50001CF086FAFF21CDF8580408461CF024FA2C
:102F6000F02088213222CDF85424DDF854341BF0AF
:102F700033F84FF4C8704FF4E1711422CDF85004C7
:102F8000CDF84C141146DDF84C34CDF848241A46DF
:102F9000DDF848341BF046F92820DDF85014CDF850
:102FA00044040846DDF84414DDF84C24DDF84434CC
:102FB0001BF038F93C20DDF85014CDF840040846E9
:102FC000DDF84014DDF84C24DDF840341BF02AF91C
:102FD000DDF85C041BF08CFFFFE7FFE7FFE748F23A
:102FE000D070C2F20100007801461228CDF83C14DE
:102FF00003F24B82DDF83C14DFE811F0DB1913001B
:103000005902C2037706E706A0083C0BBB0D710E00
:10301000AB0EB10F91137C14CF15F316E2175B18AA
:10302000221940F60850C2F2010000680028CDF8CD
:1030300038040CD0FFE7DDF83804012800F02A81BD
:10304000FFE7DDF83804022800F0408101E248F68D
:103050002800C2F201000121017000208DF89F04B8
:10306000FFE79DF89F04CDF834040FF039FCDDF83C
:10307000341481422CDAFFE79DF89F0400EBC00076
:1030800048F2AC01C2F2010101EB80000FF0C0FA7E
:10309000002816D0FFE79DF89F0400EBC00048F21F
:1030A000AC01C2F2010101EB80000FF069FA0028C7
:1030B00007D0FFE748F62800C2F2010000210170A6
:1030C00006E0FFE79DF89F0401308DF89F04C8E7F4
:1030D00048F62800C2F20100007801460028CDF829
:1030E000301405D0FFE7DDF83004012868D068E02F
:1030F00040F60850C2F20100012101600846CDF8F7
:103100002C141BF083FE1AF030FD09201CF0A8F9E6
:1031100048F2D171C2F20101097840F2A872C2F2FC
:10312000010252F82110CDF8280408461CF03CF9A1
:103130004FF4C8704FF4E1711422CDF82404CDF897
:1031400020141146DDF82034CDF81C241A46DDF891
:103150001C341BF067F82820DDF82414CDF818047F
:103160000846DDF81814DDF82024DDF818341BF0CB
:1031700059F83C20DDF82414CDF814040846DDF895
:103180001414DDF82024DDF814341BF04BF84FF450
:103190007F401CF009F9F02088213222CDF810245C
:1031A000DDF810341AF018FFDDF82C041BF0A0FE37
:1031B00008F022F940F61051C2F2010108605DE00A
:1031C000FFE740F60850C2F201000421016001202F
:1031D000CDF80C041BF01AFE1AF0C7FC09201CF0F5
:1031E0003FF948F2D171C2F20101097840F2A872A8
:1031F000C2F2010252F82110CDF8080408461CF072
:10320000D3F84FF4C8704FF4E1711422CDF80404E0
:10321000CDF800141146DDF80034FF921A46FF9BEA
:103220001BF000F82820DDF80414FE900846FE99F3
:10323000DDF80024FE9B1AF0F5FF3C20DDF80414B5
:10324000FD900846FD99DDF80024FD9B1AF0EAFF89
:10325000FF201CF0A9F8F02088213222FC92FC9B70
:103260001AF0BAFEDDF80C041BF042FE08F0C4F8B8
:1032700040F61051C2F201010860FFE740F6085025
:10328000C2F201000021016048F2D070C2F20100D8
:103290000170DEE008F0B0F840F61051C2F2010112
:1032A0000968401AB0F5FA7F0FD3FFE740F60850DF
:1032B000C2F2010001680131016008F09DF840F69A
:1032C0002851C2F201010860FFE7C2E008F094F85B
:1032D00040F62851C2F201010968401A0F28C0F0D7
:1032E000B780FFE708F088F840F62851C2F20101E4
:1032F000086040F62050C2F2010000680028FB90F0
:1033000004D0FFE7FB98012850D050E040F69050E1
:10331000C2F20100807DFE2808DCFFE740F69050F5
:10332000C2F20100817D01318175FFE740F69050C6
:10333000C2F20100807EFE2808DCFFE740F69050D4
:10334000C2F20100817E01318176FFE740F69050A4
:10335000C2F20100807FFE2808DCFFE740F69050B3
:10336000C2F20100817F01318177FFE740F6905082
:10337000C2F20100807DFF2817D1FFE740F6905090
:10338000C2F20100807EFF280FD1FFE740F6905087
:10339000C2F20100807FFF2807D1FFE740F62050EE
:1033A000C2F2010001210160FFE750E0FFE740F6B3
:1033B0009050C2F20100807D002808D0FFE740F65F
:1033C0009050C2F20100817D01398175FFE740F61E
:1033D0009050C2F20100807E002808D0FFE740F63E
:1033E0009050C2F20100817E01398176FFE740F6FC
:1033F0009050C2F20100807F002808D0FFE740F61D
:103400009050C2F20100817F01398177FFE740F6D9
:103410009050C2F20100807D002817D1FFE740F6EE
:103420009050C2F20100807E00280FD1FFE740F6E5
:103430009050C2F20100807F002807D1FFE740F6DC
:103440002050C2F2010000210160FFE7FFE7FFE723
:10345000FFE707F0D1FF48F2D471C2F20101086022
:1034600048F28B10C2F201000021017048F287106F
:10347000C2F20100017048F28A10C2F2010001702C
:1034800048F28910C2F20100017048F28810C2F2BD
:103490000100017040F65900C2F201003C220270A6
:1034A00048F27C70C2F20100016003F00EB848F2ED
:1034B0008810C2F201000078002840F01F81FFE769
:1034C00048F28810C2F20100017801310170012038
:1034D000FA901BF09BFC00201BF04CFFF9901AF0B7
:1034E00044FBFA981BF046FF4FF07F41F8900846E6
:1034F0001BF058FF1AF039FB09201BF0B1FF48F20E
:10350000D171C2F20101097840F2A872C2F201023F
:1035100052F82110F79008461BF046FF4FF4C87090
:103520004FF4E1711422F690F5911146F59BF49257
:103530001A46F49B1AF076FE2820F699F390084676
:10354000F399F59AF39B1AF06DFE3C20F699F290F0
:103550000846F299F59AF29B1AF064FE0A204FF49D
:10356000BE714FF48373F1900846F19AF0911146C1
:10357000F09A1AF057FE1E204FF4AF728821EF9197
:10358000EF9B1AF04FFEBE20FC23EE90F499EE9ACA
:103590001AF048FE4FF27830C0F6040040F2811174
:1035A0009F221AF0F3FC4FF29C20C0F60400372152
:1035B000ED91F19A1AF0EAFC4FF2C420C0F6040033
:1035C000F5210F221AF0E2FC4FF21430C0F604008D
:1035D0009622ED991AF0DAFC05F092FE002809D047
:1035E000FFE74FF25030C0F60400F0219B221AF0A2
:1035F000CDFC08E04FF23C30C0F60400F0219B22E5
:103600001AF0C4FCFFE747F64020C0F603001BF0A9
:10361000D9FE4AF2FF51EC9008461BF0C5FE02208D
:10362000EB901BF02FFF0E21EA900846E9911BF06A
:103630001FFF5F216E22E8900846E7911146E6924F
:103640001BF02AF81421E590084617F0F9F847F620
:103650003E70C2F20100E4901AF0E6FBE9981BF01C
:1036600007FF40F21D11E3900846E69AE2911146E9
:103670001BF012F8EB99E190084617F0E1F8E49896
:103680001AF0D2FBE9981BF0F3FEFA21E79AE090DA
:103690001046DF911BF000F81521DE90084617F068
:1036A000CFF8E4981AF0C0FBE9981BF0E1FEE2992C
:1036B000DD900846DF991AF0EFFF3521DC900846CF
:1036C00017F0BEF8E4981AF0AFFB01201BF010FCD5
:1036D00048F28B10C2F201000021017048F28710FD
:1036E000C2F20100017048F28A10C2F201000170BA
:1036F00048F28910C2F2010001703FE048F28810E0
:10370000C2F201000078012837D1FFE747F2D90063
:10371000C2F20100007800282ED0FFE747F2D9005E
:10372000C2F201000021017001201BF06FFB4FF27B
:103730003C30C0F6040002884388F0209B211AF038
:1037400023FA05F0DDFD002809D0FFE74FF25030E5
:10375000C0F60400F0219B221AF018FC08E04FF29A
:103760003C30C0F60400F0219B221AF00FFCFFE76A
:1037700001201BF0BDFBFFE7FFE7FFE702F0A5BE5E
:1037800001201BF043FB48F28B10C2F201000078CD
:10379000002840F09F80FFE748F28B10C2F2010042
:1037A0000178013101700020DB901BF02FFBDB98CA
:1037B0001BF0E0FDDB99DA9008461BF0F5FD1AF0EE
:1037C000D4F948F27000C9F20400DB99DB9A1AF0D0
:1037D000A5F80921D99008461BF042FE48F2D171A4
:1037E000C2F20101097840F2A872C2F2010252F855
:1037F0002110D89008461BF0D7FD4FF4BE704FF44F
:10380000F0716423DB9AD7911146D79A1AF0BCF96C
:103810004FF4C8704FF4E1711422D690D59111463F
:10382000D59BD4921A46D49B1AF0FCFC2820D6993A
:10383000D3900846D399D59AD39B1AF0F3FC3C2039
:10384000D699D2900846D299D59AD29B1AF0EAFC22
:103850004FF4AF705021B422D79BD1921A46D19B1E
:103860001AF092F94FF49B704FF4D272CD23D19994
:103870001AF08AF9DB981BF03BFB01201BF07AFD64
:103880004FF07F41D09008461BF08CFD1AF06DF987
:10389000FFF71EFAFEF708FD47F63820C2F20100D6
:1038A000016841F48011016048F28710C2F2010002
:1038B000DB99017048F28A10C2F20100017048F2EF
:1038C0008910C2F20100017048F28810C2F20100B2
:1038D0000170C2E148F28B10C2F2010000780128A9
:1038E00040F0BA81FFE747F2D000C2F20100007851
:1038F00000281AD0FFE746F68540C2F201000078A2
:10390000002812D1FFE746F68540C2F201000121EE
:10391000017014F0A5FD49F26C30C2F20100702173
:1039200012F02AF9FFF7D4F917E047F2D000C2F2FB
:103930000100007800280FD1FFE746F68540C2F26B
:1039400001000078002807D0FFE746F68540C2F264
:10395000010000210170FFE7FFE747F2CF00C2F24C
:103960000100007800281AD0FFE746F68440C2F232
:1039700001000078002812D1FFE746F68440C2F229
:1039800001000121017014F05FFD49F26C30C2F2B8
:103990000100702112F0F0F8FFF79AF917E047F2F2
:1039A000CF00C2F20100007800280FD1FFE746F6F1
:1039B0008440C2F201000078002807D0FFE746F6F5
:1039C0008440C2F2010000210170FFE7FFE747F6E3
:1039D0003820C2F201008078C006002840F19A80A9
:1039E000FFE747F63820C2F20100016821F4801198
:1039F00001604FF4CD70B9214FF4F072EB23CF92F8
:103A00001AF0C2F84FF49B70E621FF23CF9A1AF008
:103A1000BBF849F26C30C2F201000078002805D0F2
:103A2000FFE74FF47F401BF0BFFC03E0FF201BF0DB
:103A3000BBFCFFE74BF62000C0F603001BF0C2FC06
:103A40004FF4CD71AA22CE90084611461AF024FEFA
:103A50000C21CD9008461BF00BFD49F26C31C2F2EF
:103A600001010978002907D0FFE74FF61620C0F6BC
:103A700004001AF0D9F906E04FF64F10C0F6040022
:103A80001AF0D2F9FFE74FF49B70F2211AF004FE0E
:103A900045F21031C0F60301CC9008461BF092FCB1
:103AA0000C21CB900846CA911BF0E2FC6FF07F41DD
:103AB000C99008461BF078FC40F29F10DC211AF0F8
:103AC000EBFD46F2A861C0F60301C89008461BF062
:103AD00079FCCA99C79008461BF0CAFC49F26C31C0
:103AE000C2F20101B1F9021046F26762C6F26662E3
:103AF00051FB02F18A1002EBD1710322C6900846F5
:103B000011461AF079F94FF6B230C0F604001AF0F7
:103B10008BF9FFE707F070FC48F27C71C2F20101FB
:103B20000968401AB0F57A7FC0F09580FFE707F08A
:103B300063FC48F27C71C2F20101086040F61C503F
:103B4000C2F201000168013101600B2919D3FFE7BE
:103B500040F61C50C2F201000021016047F63820F7
:103B6000C2F2010080788007002809D4FFE747F6F9
:103B70003820C2F20100016841F480110160FFE7C2
:103B8000FFE747F63820C2F201004078000600281F
:103B900060D5FFE747F6FC50C2F2010048F26471BD
:103BA000C2F201010122C590C491C3920BF0B8FC8E
:103BB00048F26071C2F20101C59AC2901046C39AE0
:103BC0000BF06EFC0DF595610222C1900846C49B76
:103BD000C0911946BF920CF08FFC3A208DF8AA04D0
:103BE000C0980330C4990131BF9A0CF085FC0020C5
:103BF0008DF8AD0449F67001C0F60301BE90084689
:103C00001BF0E0FB6FF07F41BD9008461BF0CCFB42
:103C1000BF981BF037FC0C21BC9008461BF028FC19
:103C20000521F522BB90084611461AF035FDC399CF
:103C3000BA9008461BF0EAF8DC2164224FF487733F
:103C4000BE9819F0A1FFC0981AF0EEF8C3981BF0C7
:103C50004FF9FFE7FFE7FFE7FFE701201BF048F917
:103C600049F26830C2F20100006800283BD0FFE74B
:103C7000FEF7CEFF07F0C0FB49F26831C2F2010146
:103C80000968401AB0F5FA6F2CD9FFE749F26C3099
:103C9000C2F201000121017449F26831C2F201014E
:103CA00000220A6048F28B11C2F201010A7000780A
:103CB000002808D0FFE749F26C30C2F20100002171
:103CC0008172017006E049F26C30C2F201000221FB
:103CD0000170FFE749F26C30C2F20100702111F06F
:103CE0004BFFFFE7FFE702F0F0BB0020B9901BF0AD
:103CF00041FBB89019F039FF0120B7901BF03AFB57
:103D00004FF07F41B69008461BF04CFB19F02DFF99
:103D10000520FEF7B9FF48F2D070C2F20100B79952
:103D2000017040F60850C2F20100B99A026040F6F4
:103D30001850C2F20100016048F28B10C2F201007B
:103D4000027048F28710C2F20100027048F28A1035
:103D5000C2F20100027048F28910C2F20100027042
:103D600048F28810C2F20100027048F28610C2F2D6
:103D70000100027040F60C50C2F20100027040F6E1
:103D80002450C2F20100027047F22150C2F2010039
:103D9000027047F2DC00C2F20100027047F66C705C
:103DA000C2F20100027040F65800C2F2010007237F
:103DB000037048F2A800C2F20100027040F65B00F6
:103DC000C2F20100017002F080BB49F26C30C2F215
:103DD0000100007847F69831C2F201010968B590F8
:103DE00008461EF089FDB599814214D0FFE747F6D9
:103DF0009830C2F2010000681EF07EFD49F26C317D
:103E0000C2F20101087040F62450C2F201000178AC
:103E1000013101704DE149F26C30C2F20100407A8B
:103E200047F65C31C2F201010968B49008461EF001
:103E300063FDB499814214D0FFE747F65C30C2F2CB
:103E4000010000681EF058FD49F26C31C2F2010118
:103E5000487240F62450C2F201000178013101702D
:103E600026E149F26C30C2F20100C07947F6A43174
:103E7000C2F201010968B39008461FF081FAB399B4
:103E800081421DD0FFE747F6A430C2F2010001686D
:103E9000B29008461FF074FAC0B214F04DFBB2980D
:103EA000006849F26C31C2F20101C9791FF0A3FA2E
:103EB00040F62450C2F20100017801310170F6E0B1
:103EC00049F26C30C2F20100007A47F6A831C2F222
:103ED00001010968B19008461FF052FAB199814278
:103EE0001DD0FFE747F6A830C2F201000168B0908C
:103EF00008461FF045FAC0B214F04EFBB0980068B7
:103F000049F26C31C2F20101097A1FF074FA40F6ED
:103F10002450C2F20100017801310170C6E049F27B
:103F20006C30C2F20100C07A47F66031C2F2010182
:103F30000968AF9008461FF023FAAF99814214D068
:103F4000FFE747F66030C2F2010000681FF018FA80
:103F500049F26C31C2F20101C87240F62450C2F23B
:103F600001000178013101709FE049F26C30C2F22A
:103F70000100007B47F66831C2F201010968AE908A
:103F800008461FF0FDF9AE99814214D0FFE747F6CD
:103F90006830C2F2010000681FF0F2F949F26C319A
:103FA000C2F20101087340F62450C2F20100017808
:103FB0000131017078E049F26C30C2F20100407BBF
:103FC00047F66431C2F201010968AD9008461FF05E
:103FD000D7F9AD99814214D0FFE747F66430C2F2B9
:103FE000010000681FF0CCF949F26C31C2F2010106
:103FF000487340F62450C2F201000178013101708B
:1040000051E049F26C30C2F20100807B47F69C31EE
:10401000C2F201010968AC9008461FF0B1F9AC99F1
:10402000814213D0FFE747F69C30C2F201000068DE
:104030001FF0A6F949F26C31C2F20101887340F613
:104040002450C2F20100012101702BE049F26C30D2
:10405000C2F20100C07B00F0010047F6A031C2F2BD
:1040600001010968AB90084617F006FDAB99814243
:1040700017D0FFE747F6A030C2F20100006817F042
:10408000FBFC002818BF012049F26C31C2F201018B
:10409000C87340F62450C2F201004FF001010170D4
:1040A000FFE7FFE7FFE7FFE7FFE7FFE7FFE7FFE7E0
:1040B000FFE747F6B420C2F20100006817F058FB92
:1040C000002823D0FFE740F62450C2F20100007818
:1040D00000280CD0FFE749F26C30C2F201007021D9
:1040E000AA9011F049FD0120AA990874FFE740F653
:1040F0002450C2F201000021017004F0BDFC48F21E
:10410000D070C2F201000421017015E047F6B02022
:10411000C2F20100006817F02BFB00280BD0FFE76C
:1041200004F0AAFC02F0E0FE48F2D070C2F20100F6
:1041300007210170FFE7FFE702F0C7B940F6905092
:10414000C2F20100007947F69C21C2F20101096820
:10415000A99008461FF014F9A999814221D0FFE7E0
:1041600047F69C20C2F2010000681FF009F940F6F2
:104170009051C2F2010108710879002809D1FFE7C6
:1041800047F68820C2F20100006800211FF033F9D1
:10419000FFE740F60C50C2F20100017801310170D6
:1041A000FFE740F69050C2F20100007A47F6A021E6
:1041B000C2F201010968A89008461FF0E1F8A89929
:1041C000814221D0FFE747F6A020C2F2010000683B
:1041D0001FF0D6F840F69051C2F201010872087A39
:1041E000002809D1FFE747F68C20C2F201000068E1
:1041F00000211FF000F9FFE740F60C50C2F2010069
:10420000017801310170FFE740F69050C2F20100E1
:10421000007B47F6A421C2F201010968A790084675
:104220001FF0AEF8A799814221D0FFE747F6A420FE
:10423000C2F2010000681FF0A3F840F69051C2F2EC
:1042400001010873087B002809D1FFE747F6902099
:10425000C2F20100006800211FF0CDF8FFE740F630
:104260000C50C2F20100017801310170FFE740F605
:104270009050C2F20100007C47F6AC21C2F201016D
:104280000968A69008461FF07BF8A699814221D0C4
:10429000FFE747F6AC20C2F2010000681FF070F89B
:1042A00040F69051C2F201010874087C002809D13F
:1042B000FFE747F69820C2F20100006800211FF0D6
:1042C0009AF8FFE740F60C50C2F201000178013184
:1042D0000170FFE740F69050C2F20100007D47F602
:1042E0004C31C2F201010968A59008461FF048F858
:1042F000A599814214D0FFE747F64C30C2F2010085
:1043000000681FF03DF840F69051C2F201010875B7
:1043100040F60C50C2F20100017801310170FFE754
:1043200040F69050C2F20100007E47F65031C2F2D2
:1043300001010968A49008461FF022F8A49981425F
:1043400014D0FFE747F65030C2F2010000681FF0BA
:1043500017F840F69051C2F20101087640F60C5071
:10436000C2F20100017801310170FFE740F6905080
:10437000C2F20100007F47F65431C2F20101096820
:10438000A39008461EF0FCFFA399814214D0FFE7DA
:1043900047F65430C2F2010000681EF0F1FF40F60B
:1043A0009051C2F20101087740F60C50C2F20100B0
:1043B000017801310170FFE740F6D450C2F20100EC
:1043C000007847F69421C2F201010968A2900846DC
:1043D0001EF0D6FFA299814214D0FFE747F6942041
:1043E000C2F2010000681EF0CBFF40F6D451C2F2C9
:1043F0000101087040F60C50C2F201000178013151
:104400000170FFE740F6D450C2F20100007947F690
:104410008821C2F201010968A19008461EF0B0FF90
:10442000A199814214D0FFE747F68820C2F201002B
:1044300000681EF0A5FF40F6D451C2F201010871D8
:1044400040F60C50C2F20100017801310170FFE723
:1044500040F6D450C2F20100007A47F68C21C2F235
:1044600001010968A09008461EF08AFFA0998142C8
:1044700014D0FFE747F68C20C2F2010000681EF05E
:104480007FFF40F6D451C2F20101087240F60C5091
:10449000C2F20100017801310170FFE740F6D4500B
:1044A000C2F20100007B47F69021C2F201010968C7
:1044B0009F9008461EF064FF9F99814214D0FFE749
:1044C00047F69020C2F2010000681EF059FF40F646
:1044D000D451C2F20101087340F60C50C2F201003F
:1044E000017801310170FFE740F6D450C2F20100BB
:1044F000007C47F69821C2F2010109689E900846A7
:104500001EF03EFF9E99814214D0FFE747F69820A7
:10451000C2F2010000681EF033FF40F6D451C2F22F
:104520000101087440F60C50C2F20100017801311B
:104530000170FFE747F6B420C2F20100006817F0EF
:1045400017F900287ED0FFE740F62450C2F20100A0
:10455000007800280ED0FFE740F62450C2F2010098
:104560000021017049F26C30C2F20100702111F09B
:1045700003FBFFE740F60C50C2F201000078002870
:1045800015D0FFE740F60C50C2F201000021017087
:1045900040F69050C2F20100302111F005FA40F6C9
:1045A000D450C2F20100502111F0FEF9FFE748F2A9
:1045B0008510C2F2010000788DF8A00447F604507F
:1045C000C2F2010000788DF8A10448F2D870C2F25E
:1045D000010000788DF8A20448F2D370C2F2010005
:1045E00000788DF8A30448F2D270C2F2010000787E
:1045F0008DF8A40448F2D170C2F2010000788DF861
:10460000A50447F63820C2F2010080784007002850
:1046100004D5FFE701208DF8A60403E000208DF803
:10462000A604FFE70DF594600A21072205F028F99A
:104630009D9004F071FA48F2D070C2F2010004219A
:10464000017015E047F6B020C2F20100006817F0D3
:104650008FF800280BD0FFE704F05EFA02F044FC6C
:1046600048F2D070C2F2010007210170FFE7FFE7B6
:1046700001F02BBF48F26470C2F20100007847F6E7
:104680007831C2F2010109689C9008461EF078FE5C
:10469000C0B204F0BDFC9C9981421FD0FFE747F6F1
:1046A0007830C2F2010000681EF06AFEC0B204F069
:1046B000AFFC48F26471C2F20101087047F6FC5089
:1046C000C2F2010001220BF0CFF847F63821C2F206
:1046D00001010A6842F400420A60FFE748F2647090
:1046E000C2F20100407847F67C31C2F2010109684C
:1046F0009B9008461EF044FEC0B204F089FC9B99D2
:1047000081421FD0FFE747F67C30C2F2010000680B
:104710001EF036FEC0B204F07BFC48F26471C2F2B7
:104720000101487047F6FC50C2F2010001220BF073
:104730009BF847F63821C2F201010A6842F40042B0
:104740000A60FFE748F26070C2F20100807847F625
:104750006C31C2F2010109689A9008461EF010FE01
:10476000C0B204F055FC9A9981421FD0FFE747F68A
:104770006C30C2F2010000681EF002FEC0B204F00C
:1047800047FC48F26071C2F20101887047F6FC50A4
:10479000C2F2010001220AF09FFF47F63821C2F25F
:1047A00001010A6842F400420A60FFE748F26070C3
:1047B000C2F20100407847F68031C2F20101096877
:1047C000999008461EF0DCFDC0B204F021FC9999D6
:1047D00081421FD0FFE747F68030C2F20100006837
:1047E0001EF0CEFDC0B204F013FC48F26071C2F2BC
:1047F0000101487047F6FC50C2F2010001220AF0A4
:104800006BFF47F63821C2F201010A6842F4004208
:104810000A60FFE748F26070C2F20100C07847F614
:104820009431C2F201010968989008461EF0A8FD73
:10483000A0F5FA60C0B204F0EBFB9899814221D058
:10484000FFE747F69430C2F2010000681EF098FDC1
:10485000A0F5FA60C0B204F0DBFB48F26071C2F26E
:104860000101C87047F6FC50C2F2010001220AF0B3
:1048700033FF47F63821C2F201010A6842F40042D0
:104880000A60FFE748F26070C2F20100007847F664
:104890005831C2F2010109689790084617F03FFCB1
:1048A0000130C0B204F0B4FB9799814220D0FFE7F9
:1048B00047F65830C2F20100006817F030FC0130B2
:1048C000C0B204F0A5FB48F26071C2F201010870A9
:1048D00047F6FC50C2F2010001220AF0FDFE47F645
:1048E0003821C2F201010A6842F400420A60FFE77F
:1048F00048F2D170C2F20100007847F68431C2F26A
:1049000001010968969008461EF03AFD9699814289
:104910001ED0FFE747F68430C2F2010000681EF0A7
:104920002FFD48F2D171C2F201010870087840F2FF
:10493000A871C2F2010151F820001AF035FD4FF4C0
:10494000AA7033214FF4D7723B2319F07DFDFFE7A6
:1049500047F6C820C2F20100006817F07FF801286E
:1049600009D1FFE747F63820C2F20100016841F49F
:104970008021016008E047F63820C2F2010001689A
:1049800021F480210160FFE747F67030C2F2010098
:1049900000681EF0F5FC47F60451C2F201010870F0
:1049A00047F67430C2F2010000681EF0E9FC48F2DC
:1049B0008511C2F20101087047F69030C2F2010081
:1049C00000681EF0DDFC48F2D871C2F201010870E7
:1049D00047F68C30C2F2010000681EF0D1FC48F2AC
:1049E000D371C2F20101087047F68830C2F20100AB
:1049F00000681EF0C5FC48F2D271C2F201010870D5
:104A000047F68430C2F2010000681EF0B9FC48F29B
:104A1000D171C2F20101087047F6B420C2F2010060
:104A2000006816F0A5FE002800F08B80FFE740F636
:104A30002450C2F20100007800280ED0FFE740F6B3
:104A40002450C2F201000021017049F26C30C2F220
:104A50000100702111F090F8FFE740F60C50C2F20F
:104A600001000078002815D0FFE740F60C50C2F294
:104A700001000021017040F69050C2F20100302187
:104A800010F092FF40F6D450C2F20100502110F015
:104A90008BFFFFE748F28510C2F2010000788DF825
:104AA000A00447F60450C2F2010000788DF8A1047A
:104AB00048F2D870C2F2010000788DF8A20448F2E2
:104AC000D370C2F2010000788DF8A30448F2D270CE
:104AD000C2F2010000788DF8A40448F2D170C2F24D
:104AE000010000788DF8A50447F63820C2F20100D5
:104AF00080784007002804D5FFE701208DF8A60440
:104B000003E000208DF8A604FFE70DF594600A216C
:104B1000072204F0B5FE48F61C71C2F20101202202
:104B200001239590084611461A4604F0A9FE949078
:104B300004F05EF848F2D070C2F201000421017066
:104B400015E047F6B020C2F20100006816F010FE32
:104B500000280BD0FFE704F04BF802F0CDFD48F23F
:104B6000D070C2F201000A210170FFE7FFE701F0F7
:104B7000ACBC48F28610C2F201000078002810D1C7
:104B8000FFE748F28610C2F201000178013101709E
:104B900018F0EBFF47F2D800C2F201003C2101708F
:104BA0009BE048F28610C2F201000078012840F034
:104BB0009380FFE706F020FC47F2D401C2F2010126
:104BC0000968401AB0F57A7FC0F08580FFE706F0EB
:104BD00013FC47F2D401C2F201010860FEF718F895
:104BE00001201AF013F9002032214FF4F072C8238B
:104BF00018F0CAFF47F2D800C2F201000078062878
:104C000005DBFFE74FF47F401AF0CEFB06E0FF2004
:104C10001AF0CAFB012006F067F8FFE749F67000BA
:104C2000C0F603001AF0CEFB022193900846929141
:104C30001AF028FC0E219190084690911AF018FC69
:104C4000F02150228F9008468E91114619F024FDD4
:104C50000D218D90084615F0F3FD47F63E70C2F227
:104C6000010019F0E1F84EF29820C0F603001AF0A6
:104C7000A9FB92998C9008461AF004FC90998B90AD
:104C800008461AF0F5FB9C218E9A8A90104619F07E
:104C900003FD47F2D801C2F201010A78899010465B
:104CA000889119F095F801201AF022F98898017876
:104CB000002908D0FFE747F2D800C2F201000178CE
:104CC0000139017006E048F2D070C2F201000421FF
:104CD0000170FFE7FFE7FFE7FFE701F0F6BB47F6EC
:104CE000B420C2F20100006816F042FD002818D07E
:104CF000FFE748F62400C2F201000078002807D040
:104D0000FFE748F62400C2F2010000210170FFE72E
:104D100003F0DAFF48F2D070C2F201000421017002
:104D200015E047F6B020C2F20100006816F020FD41
:104D300000280BD0FFE703F0C7FF02F0DDFC48F2CC
:104D4000D070C2F201000A210170FFE7FFE701F015
:104D5000BCBB47F22150C2F20100007880008DF800
:104D60009E04FFE79DF89E0447F22151C2F2010123
:104D700009780F22A2EB8101042987900ADBFFE763
:104D800047F22150C2F201000078042101EB8000BB
:104D9000869002E00F208690FFE7869887998142EF
:104DA00072DAFFE79DF89E0400EB400047F22451C1
:104DB000C2F2010101EB8000FCF7EEFC9DF89E14AD
:104DC00047F6D022C2F2010252F83110859008460F
:104DD0001EF0D6FA859981421DD1FFE79DF89E0409
:104DE00000EB400047F22451C2F2010101EB8000C8
:104DF000FCF7CAFC9DF89E1447F6D022C2F20102CD
:104E000002EBC1014968849008461EF0B9FA849902
:104E1000814232D0FFE748F62400C2F201000121AE
:104E200001709DF89E0400EB400147F22452C2F24B
:104E3000010202EB810147F6D023C2F2010353F8CD
:104E400030008392829181931EF09AFA81B2829807
:104E5000FCF75EFE9DF89E0400EB4001839A02EB96
:104E60008101819B03EBC000406880911EF088FAAD
:104E700081B28098FCF740FEFFE7FFE79DF89E04B3
:104E800001308DF89E046DE747F6B420C2F20100B0
:104E9000006816F06DFC00281AD0FFE748F62400E1
:104EA000C2F201000078002809D0FFE7FDF748F8BA
:104EB00048F62400C2F2010000210170FFE703F070
:104EC00037FF48F2D070C2F201000421017044E0C3
:104ED00047F6B020C2F20100006816F049FC002835
:104EE0003AD0FFE747F22150C2F2010000780B21CF
:104EF000A1EB800001280CDBFFE703F019FF47F26C
:104F00002150C2F2010001780131017002F0F4FB7E
:104F100021E048F62400C2F201000078002809D000
:104F2000FFE7FDF70DF848F62400C2F2010000216A
:104F30000170FFE703F0FCFE47F22150C2F20100CE
:104F40000021017002F060FD48F2D070C2F2010051
:104F50000B210170FFE7FFE7FFE701F0B6BA012080
:104F600019F054FF47F66C70C2F2010000788DF81A
:104F70009D04FFE79DF89D0447F66C71C2F20101A4
:104F80000978C1F1060101297F9008DBFFE747F6A8
:104F90006C70C2F20100007801307E9002E00620C1
:104FA0007E90FFE77E987F99814280F24B83FFE7F6
:104FB0009DF89D0400EBC00048F2AC01C2F2010173
:104FC00001EB80000CF00CFC9DF89D143422514341
:104FD00047F67072C2F2010251587D9008461EF0E9
:104FE000CFF97D9981421FD0FFE748F62400C2F235
:104FF0000100012101709DF89D0400EBC00148F201
:10500000AC02C2F2010202EB81013422504347F6A6
:105010007072C2F2010210587C911EF0B1F981B297
:105020007C980DF091F9DEE29DF89D0400EBC00044
:1050300048F2AC01C2F2010101EB80000CF0A8FBC8
:105040009DF89D1447F67072C2F20102342311FBE1
:10505000032189687B9008461EF092F97B99814272
:1050600020D0FFE748F62400C2F2010001210170C0
:105070009DF89D0400EBC00148F2AC02C2F20102AF
:1050800002EB810147F67072C2F20102342310FB79
:10509000032080687A911EF073F9C1B27A980DF0FE
:1050A00013F99FE29DF89D0400EBC00148F2AC02A9
:1050B000C2F2010202EB8101098A47F67072C2F264
:1050C0000102342310FB0320C06879911EF058F9C7
:1050D000799981421ED0FFE748F62400C2F2010010
:1050E000012101709DF89D0447F67071C2F2010123
:1050F000342210FB0210C0681EF042F99DF89D1486
:1051000001EBC10148F2AC02C2F2010202EB8101E3
:10511000088266E29DF89D0400EBC00048F2AC01F5
:10512000C2F2010101EB80000CF04AFB9DF89D14D6
:1051300047F67072C2F20102342311FB03210969A0
:10514000789008461EF01CF97899814220D0FFE73C
:1051500048F62400C2F20100012101709DF89D046F
:1051600000EBC00148F2AC02C2F2010202EB810185
:1051700047F67072C2F20102342310FB032000696B
:1051800077911EF0FDF8C1B277980DF0D1F827E2C3
:105190009DF89D0400EBC00048F2AC01C2F2010191
:1051A00001EB80000CF0FCFA9DF89D1447F670723C
:1051B000C2F20102342311FB0321496876900846AC
:1051C0001EF0DEF87699814220D0FFE748F62400F1
:1051D000C2F20100012101709DF89D0400EBC001A5
:1051E00048F2AC02C2F2010202EB810147F6707292
:1051F000C2F20102342310FB0320406875911EF0B7
:10520000BFF8C1B275980DF07FF8E8E19DF89D04F4
:1052100000EBC00148F2AC02C2F2010202EB8101D4
:10522000497E47F67072C2F20102342310FB03205C
:10523000406974911EF0A4F8749981421ED0FFE772
:1052400048F62400C2F20100012101709DF89D047E
:1052500047F67071C2F20101342210FB021040695E
:105260001EF08EF89DF89D1401EBC10148F2AC02CE
:10527000C2F2010202EB81014876AFE19DF89D0484
:1052800000EBC00148F2AC02C2F2010202EB810164
:10529000897E47F67072C2F20102342310FB0320AC
:1052A000806973911EF06CF8739981421ED0FFE7FC
:1052B00048F62400C2F20100012101709DF89D040E
:1052C00047F67071C2F20101342210FB02108069AE
:1052D0001EF056F89DF89D1401EBC10148F2AC0296
:1052E000C2F2010202EB8101887676E19DF89D040D
:1052F00000EBC00148F2AC02C2F2010202EB8101F4
:10530000C97E47F67072C2F20102342310FB0320FB
:10531000C06972911EF034F8729981421ED0FFE785
:1053200048F62400C2F20100012101709DF89D049D
:1053300047F67071C2F20101342210FB0210C069FD
:105340001EF01EF89DF89D1401EBC10148F2AC025D
:10535000C2F2010202EB8101C8763DE19DF89D0495
:1053600000EBC00148F2AC02C2F2010202EB810183
:10537000097F47F67072C2F20102342310FB03204A
:10538000006A71911DF0FCFF719981421ED0FFE708
:1053900048F62400C2F20100012101709DF89D042D
:1053A00047F67071C2F20101342210FB0210006A4C
:1053B0001DF0E6FF9DF89D1401EBC10148F2AC021F
:1053C000C2F2010202EB8101087704E19DF89D041D
:1053D00000EBC00148F2AC02C2F2010202EB810113
:1053E000497F47F67072C2F20102342310FB03209A
:1053F000406A70911DF0C4FF709981421ED0FFE792
:1054000048F62400C2F20100012101709DF89D04BC
:1054100047F67071C2F20101342210FB0210406A9B
:105420001DF0AEFF9DF89D1401EBC10148F2AC02E6
:10543000C2F2010202EB81014877CBE09DF89D04A6
:1054400000EBC00148F2AC02C2F2010202EB8101A2
:10545000897F47F67072C2F20102342310FB0320E9
:10546000806A6F911DF08CFF6F9981421ED0FFE71B
:1054700048F62400C2F20100012101709DF89D044C
:1054800047F67071C2F20101342210FB0210806AEB
:105490001DF076FF9DF89D1401EBC10148F2AC02AE
:1054A000C2F2010202EB8101887792E09DF89D042F
:1054B00000EBC00048F2AC01C2F2010101EB800038
:1054C0000DF0A6F89DF89D1447F67072C2F2010225
:1054D000342311FB0321C96A6E90084616F0BEFA08
:1054E0006E99814230D0FFE748F62400C2F20100F5
:1054F000012101709DF89D0447F67071C2F201010F
:10550000342210FB0210C06A16F0A8FA00280DD051
:10551000FFE79DF89D0400EBC00048F2AC01C2F229
:10552000010101EB80000CF07BFF0CE09DF89D0475
:1055300000EBC00048F2AC01C2F2010101EB8000B7
:105540000CF076FFFFE743E09DF89D0400EBC00000
:1055500048F2AC01C2F2010101EB80000CF0F8FF4F
:105560009DF89D1447F67072C2F20102342311FBBC
:105570000321096B6D90084616F070FA6D9981420F
:1055800025D0FFE748F62400C2F201000121017096
:105590009DF89D0400EBC00148F2AC02C2F201028A
:1055A00002EB810147F67072C2F20102342310FB54
:1055B0000320006B6C9116F051FA002818BF0120EF
:1055C0006C996B9008466B990CF0F6F9FFE7FFE7D2
:1055D000FFE7FFE7FFE7FFE7FFE7FFE7FFE7FFE79B
:1055E000FFE7FFE7FFE74FF4BE7000214FF4F072D2
:1055F00064236A9118F0C8FA9DF89D0400EBC0007E
:1056000048F2AC01C2F2010101EB800069910CF09B
:10561000ABF89DF89D1401EBC101699A02EB810181
:10562000689008460CF0A0F80088C0F5F071689802
:105630006A9A18F0ABFCFFE79DF89D0401308DF8E5
:105640009D0497E447F6B420C2F20100006816F00A
:105650008FF800281AD0FFE748F62400C2F20100B4
:105660000078002809D0FFE70DF0BAF848F62400CA
:10567000C2F2010000210170FFE703F0B1FB48F224
:10568000D070C2F201000421017043E047F6B0205F
:10569000C2F20100006816F06BF8002839D0FFE76D
:1056A00047F66C70C2F201000078C0F105000128D5
:1056B0000CDBFFE703F094FB47F66C70C2F20100CD
:1056C00001780131017002F09FF921E048F62400D1
:1056D000C2F201000078002809D0FFE70DF080F841
:1056E00048F62400C2F2010000210170FFE703F038
:1056F00077FB47F66C70C2F201000021017002F0E6
:105700001BFF48F2D070C2F201000E210170FFE7CA
:10571000FFE7FFE7012019F0EBFB00F0D6BE40F6F3
:105720005B00C2F201000078002800F0E180FFE792
:1057300040F65B00C2F20100002101700120679178
:1057400019F064FB18F011FA092019F089FE48F2EB
:10575000D171C2F20101097840F2A872C2F20102CD
:1057600052F821106690084619F01EFE4FF4C870DA
:105770004FF4E1711422659064911146649B639229
:105780001A46639B18F04EFD2820659962900846E2
:105790006299649A629B18F045FD3C20659961907E
:1057A00008466199649A619B18F03CFD0DF010F871
:1057B00056210128C8BF0A21CDF8981467988DF8A2
:1057C00097048DF89604FFE79DF8960460900CF01E
:1057D000FFFF6099814280F28780FFE70DF080F83B
:1057E0008DF895040DF07CF804281DDBFFE70DF023
:1057F00077F8042804D1FFE702208DF8950412E021
:105800000DF06EF8052809D1FFE79DF896040321F5
:105810000028C8BF02218DF8951403E003208DF8FD
:105820009504FFE7FFE7FFE79DF8950400EB800193
:105830004FF4C872A2EB0111013091FBF0F08DF82A
:10584000940400208DF89304FFE79DF893049DF8DD
:105850009514884235DAFFE79DF8970400EBC00005
:1058600048F2AC01C2F2010101EB80009DF89314F3
:1058700001EBC10100EB8100CDF88C049DF894048C
:105880009DF893149DF89524B1FBF2F303FB1211DC
:105890004A1C504301EB810100EB0110CDF8880454
:1058A000DDF88C040BF060FFDDF88814DDF8982437
:1058B00018F06CFBFFE79DF8930401308DF893041A
:1058C000C3E79DF895049DF8971408448DF8970454
:1058D000DDF898048230CDF89804FFE79DF896042F
:1058E00001308DF896046FE7012019F001FBFFE706
:1058F00000F0EBBD40F65B00C2F20100007800282A
:1059000000F04981FFE740F65B00C2F20100002190
:105910000170012019F07AFA18F027F9092019F01E
:105920009FFD48F2D171C2F20101097840F2A872DC
:10593000C2F2010252F821105F90084619F034FDBE
:105940004FF4C8704FF4E17114225E905D911146DE
:105950005D9B5C921A465C9B18F064FC28205E9963
:105960005B9008465B995D9A5B9B18F05BFC3C2062
:105970005E995A9008465A995D9A5A9B18F052FCC3
:10598000FCF732FB022813DBFFE74FF28C30C0F646
:1059900004000021C022599218F0F8FA4FF2783032
:1059A000C0F604004FF4A071599A18F0EFFAFFE71F
:1059B000002046215890589A57911146579A579B64
:1059C00018F0E2F86FF07F4019F0EEFC4CF6D04092
:1059D000C0F6030019F0F6FC02215690084619F0B3
:1059E00051FD0E215590084619F042FD5490FCF7E8
:1059F000B7F8002818D1FFE7FCF7C6F8013053903C
:105A0000FCF7C2F8013002210A28B8BF01214FF08B
:105A10003200539A52901046529B519119461A46A1
:105A2000519B18F0C4F9FFE740F61900C2F20100DB
:105A3000017840F61802C2F2010212785143C1F512
:105A4000BE71013291FBF2F147F2DD02C2F20102B6
:105A500011706FF07F41509008464F9219F0A4FCEE
:105A60004F980178509A1378CA1888230846194627
:105A700018F0D8FB4F980178509A13784E914D93B7
:105A8000FCF76EF8002809D0FFE701204C90FCF7E6
:105A900067FB00284C984B901AD1FFE700204A90F2
:105AA000FCF75EF800284A9849900ED1FFE7FCF712
:105AB0006BF800EB400047F22451C2F2010101EB08
:105AC0008000FCF7E5F84990FFE749984B90FFE725
:105AD0004B9800F00100002818BFFF2069460860BD
