:020000040800F2
:10000000107F0320DD010008C9450108D918010847
:10001000C145010809150008B9B501080000000034
:10002000000000000000000000000000EF010008D8
:10003000F91F000800000000F301000849880108CA
:10004000F7010008F7010008F7010008F7010008B0
:10005000F7010008F7010008F7010008F7010008A0
:10006000F7010008F7010008F7010008F701000890
:10007000F7010008F7010008F7010008F701000880
:10008000F7010008F7010008F7010008F701000870
:10009000F7010008F7010008F7010008F701000860
:1000A000F7010008F7010008F7010008F701000850
:1000B000F7010008F7010008F7010008F701000840
:1000C000F7010008F7010008F7010008F701000830
:1000D000F701000899B50108A9B50108F701000862
:1000E000F7010008F7010008F7010008F701000810
:1000F000F7010008F7010008F7010008F701000800
:10010000F7010008F7010008F7010008F7010008EF
:10011000F7010008F7010008F7010008F7010008DF
:10012000F7010008F7010008F7010008F7010008CF
:10013000F7010008F7010008F7010008F7010008BF
:10014000F7010008F7010008F7010008F7010008AF
:10015000F7010008F7010008F7010008F70100089F
:10016000F7010008F7010008F7010008F70100088F
:10017000F7010008F7010008F7010008000000007F
:10018000F7010008F7010008F7010008F70100086F
:10019000F7010008F7010008F7010008F70100085F
:1001A00019270108F7010008D91F0008F701000806
:1001B000616B0108F7010008F7010008F70100086A
:1001C000F7010008F7010008DFF80CD000F0B0FBE1
:1001D0000048004759D80108107F0320064880478F
:1001E00006480047FEE7FEE7FEE7FEE7FEE7FEE71C
:1001F000FEE7FEE7FEE7FEE7D9890108C90100082E
:1002000010B5441A0346944209D28318114403E0FE
:1002100011F8014D03F8014D521EF9D210BD40EA0C
:100220000104A40703D009E010C9121F10C3042A57
:10023000FAD203E011F8014B03F8014B521EF9D238
:1002400010BDD2B201E000F8012B491EFBD270476D
:100250000022F6E710B513460A4604461946FFF792
:10026000F0FF204610BD421C10F8011B0029FBD1F5
:10027000801A704730B504460020034600E05B1C3E
:10028000934203D2E05CCD5C401BF8D030BD034606
:1002900011F8012B00F8012B002AF9D118467047FC
:1002A0002DE9FE4F804681EA0300C00F0C46009006
:1002B00021F0004123F00045B8EB0200A94105D22E
:1002C0004046214690461C460B46024623F000401D
:1002D000104347D0270DC7F30A00C3F30A51029019
:1002E000401A019040286BDAC3F3130040F4801BDE
:1002F0000098924620B10023D2EB030A63EB0B0B6C
:1003000001985946C0F14002504600F004FA0646F2
:100310000D4650465946019A00F01CFA10EB0800B1
:100320006141002487EA115284EAE7731A4340D0FE
:10033000009A62B3019A012A4FEA075215DC001BAA
:1003400061EB02014FF0004202EA0752CDE90042A0
:10035000001C41F5801132462B4600F053FA03B0E1
:10036000BDE8F08F40462146F9E7001B61EB020132
:10037000001C41F5801300185B412018A2F50017FE
:1003800047EB030140EAD570B6196D4111E06D08E5
:100390004FEA360645EAC0754FEA0752001B61EB8B
:1003A0000201001C41F5801149084FEA3000001994
:1003B000514132462B4603B0BDE8F04F00F013BA6E
:1003C0000098012240000023D0EB020263EBE073AF
:1003D000009821464FEAE074B8EB000061EB04019D
:1003E000E9E783F000435BE781F0004158E72DE93E
:1003F000FE4F81EA030404F0004421F00041009420
:100400004FF0000B23F0004350EA01045ED052EAA3
:1004100003045BD0C3F30A54C1F30A552C44A4F27D
:10042000F3340194A0FB0254C1F3130141F4801191
:10043000C3F3130343F4801301FB024400FB034E98
:10044000840A970A44EA815447EA8357A4FB076861
:1004500002958D0A05FB07854FEA932C04FB0C548B
:100460002705029D4FEA065847EA1637B5EB0805FF
:100470006EEB070C870E920E47EA811742EA831251
:10048000A7FB0201B6EB0B0164EB00042B0D43EA62
:100490000C335E1844EB1C50DA465146E7FB020170
:1004A000C5F313044FEA0B3343EA14534FEA043203
:1004B000019C43EA0603A4F10C040294009CCDE9DC
:1004C00000B400F09FF903B0BDE8F08F00200146B2
:1004D000F9E72DE9F04D81EA030404F0004B21F027
:1004E000004514464FF0000A23F0004150EA05028F
:1004F00020D054EA01021DD0C5F30A570246C5F3C5
:100500001303C1F31300C1F30A5640F4801543F4FA
:100510008013A7EB0608101BD64608F2FD3873EBD4
:10052000050002D308F1010801E092185B41B8F11F
:10053000000F03DA00200146BDE8F08D00204FF4E3
:100540008011064684460EE0171B73EB050705D3A2
:10055000121B63EB050306434CEA010C49084FEA02
:10056000300092185B4150EA0107EDD152EA0300D6
:1005700012D082EA040083EA0501084305D0101B6B
:10058000AB4106D20122002306E000224FF00043D7
:1005900002E06FF0010253101AEB06004CEB085119
:1005A00010EB0A0041EB0B01BDE8F04D00F01BB968
:1005B0000EB5C10F80EAE0700844CA07002140F27E
:1005C00033438DE80E000A460B4600F01BF903B0DA
:1005D00000BD0EB540F2334102910021CDE900117A
:1005E0000A460B4600F00EF903B000BD70B5C1F32A
:1005F0000A5201F000450024C1F3130140F2FF3319
:1006000041F480119A4201DA002070BD40F2334378
:100610009A42A2F2334203DC524200F08BF800E02F
:1006200090402C43F1D0404270BD00F0004230F0C9
:1006300000400AD0C10D01F56071C0F3160042EA16
:100640000151C2084007114370470020014670471E
:1006500001F0004330B421F0004150EA010206D01D
:100660000A0DA2F56072C1F31301002A02DC30BC4E
:1006700000207047440F44EAC104C100E01830BCB8
:1006800000EBC25000F078B830B50B4601460020B0
:100690002022012409E021FA02F59D4205D303FA44
:1006A00002F5491B04FA02F52844151EA2F10102C5
:1006B000F1DC30BD2DE9F05F0546002092469B46F7
:1006C00088460646814640241BE028464146474668
:1006D000224600F02FF853465A46C01A914110D3D3
:1006E00011461846224600F016F82D1A67EB01084D
:1006F0004F4622460120002100F00DF817EB0009BB
:100700004E41201EA4F10104DFDC484631462A4652
:100710004346BDE8F09F202A04DB203A00FA02F1AC
:10072000002070479140C2F1200320FA03F31943DF
:1007300090407047202A04DB203A21FA02F0002181
:10074000704721FA02F3D040C2F1200291400843E1
:1007500019467047202A06DBCB17203A41FA02F0EF
:1007600043EAE07306E041FA02F3D040C2F120020E
:1007700091400843194670470029A8BF7047401CA4
:10078000490008BF20F00100704710B4B0FA80FCA7
:1007900000FA0CF050EA010404BF10BC704749B1E4
:1007A000CCF1200421FA04F411FA0CF118BF012154
:1007B00021430843A3EB0C01CB1D4FEA00614FEA34
:1007C000102042BF002010BC704700EBC350104403
:1007D0000029A4BF10BC7047401C490008BF20F08E
:1007E000010010BC704710B5141E73F1000408DA44
:1007F000401C41F1000192185B411A4301D120F0E5
:10080000010010BD2DE9F04D92469B4611B1B1FAA1
:1008100081F202E0B0FA80F220329046FFF77BFFCF
:1008200004460F4640EA0A0041EA0B0153465A4685
:10083000084313D0114653EA010019D0C8F1400211
:100840005046FFF777FF05460E465046594642464A
:10085000FFF761FF084305D0012004E02046394638
:10086000BDE8F08D0020054346EAE0762C4337438F
:100870000A986305E40AA0EB08000022FD0A44EA96
:1008800047540A3002D500200146E9E70105101956
:100890006941DDE9084500196941BDE8F04DA2E76D
:1008A000C1F30A52C1F3130140F2FF3341F4801146
:1008B0009A4202DA00200146704740F233439A42DE
:1008C000A2F2334202DC5242FFF734BFFFF723BFEC
:1008D00030B5041E71F1000404DB4FF000444042C7
:1008E00064EB0101141E73F1000405DB1C464FF09C
:1008F0000043524263EB04038B4208BF824230BD87
:1009000030B5041E71F1000404DB4FF00044404296
:1009100064EB0101141E73F1000405DB1C464FF06B
:100920000043524263EB0403994208BF904230BD3A
:10093000064C074D06E0E06840F0010394E807002C
:1009400098471034AC42F6D3FFF742FC443905080F
:100950007439050870B58C1810F8015B15F00703A1
:1009600001D110F8013B2A1106D110F8012B03E048
:1009700010F8016B01F8016B5B1EF9D12B0705D450
:100980000023521E0DD401F8013BFAE710F8013B99
:10099000CB1A921C03E013F8015B01F8015B521EB5
:1009A000F9D5A142D8D3002070BD0000000000009E
:1009B00080B58AB00BF0FCFE40F64841C2F201015E
:1009C0000968401A0C28C0F0BD81FFE70BF0F0FE6B
:1009D00040F64841C2F201010860012007900890EA
:1009E00040F64440C2F201000078002803D1FFE73E
:1009F0000B20069017E040F64440C2F20100007858
:100A0000012803D1FFE70C2006900BE040F644409C
:100A1000C2F201000078022803D1FFE70D20069002
:100A2000FFE7FFE7FFE746F62C70C2F2010006A9D8
:100A300002900AF021FC0299019008460AF074FE27
:100A40000A21029A009010460AF0DEFD40F6444169
:100A5000C2F201010978002940F03881FFE746F62B
:100A60002C70C2F201000AF067FD40F64C41C2F260
:100A700001010A6840F65043C2F2010323F8120054
:100A80000868013008600A2807D3FFE740F64C40A9
:100A9000C2F2010000210160FFE7002004900390F2
:100AA000FFE7039809280FD8FFE7039840F6504165
:100AB000C2F2010131F81000049908440490FFE7E4
:100AC000039801300390ECE704984CF6CD41CCF646
:100AD000CC41A0FB0101C90804910499642905D304
:100AE000FFE70498B0F57A6F18D9FFE740F64C405D
:100AF000C2F201000068002809D1FFE747F2DD706B
:100B0000C2F20100017801F0FE010170FFE747F633
:100B1000DC60C2F2010000214180D6E040F64C408A
:100B2000C2F201000068002809D1FFE747F2DD703A
:100B3000C2F20100017841F001010170FFE7BDF848
:100B4000100016F0F9F840F64040C2F2010080EDC6
:100B5000000A90ED000AB2EE041A20EE010ABDEE82
:100B6000C00A10EE100AADF8160047F6DC60C2F2BB
:100B70000100B0F9020046F26761C6F2666150FBFF
:100B800001F0821002EBD070BDF9162052FB01F18A
:100B90008A1002EBD171884200F08180FFE70BF0F0
:100BA00007FE47F2D871C2F201010968401A40F607
:100BB000B83188425DD8FFE70BF0FAFD47F2D471F7
:100BC000C2F201010968401AFA2851D3FFE70BF07D
:100BD000EFFD47F2D471C2F20101086047F21850EC
:100BE000C2F20100B0F9000046F26761C6F2666128
:100BF00050FB01F0821002EBD070BDF9162052FBC1
:100C000001F18A1002EBD17188420ED0FFE7BDF8E6
:100C1000160047F21851C2F20101088047F2DC7059
:100C2000C2F201000021017021E047F2DC70C2F243
:100C3000010001780131017000780A2816D1FFE720
:100C400047F2DC70C2F2010000210170BDF816000D
:100C500047F6DC61C2F20101488046F69850C2F2C4
:100C60000100016841F480110160FFE7FFE7FFE741
:100C700014E00BF09DFD47F2D871C2F2010108604B
:100C80000BF096FD47F2D471C2F20101086047F201
:100C9000DC70C2F2010000210170FFE714E00BF0EC
:100CA00087FD47F2D871C2F2010108600BF080FDA8
:100CB00047F2D471C2F20101086047F2DC70C2F25F
:100CC000010000210170FFE7FFE728E040F6444003
:100CD000C2F201000078012808D1FFE746F62C7027
:100CE000C2F201000AF028FC049017E040F64440EC
:100CF000C2F20100007802280FD1FFE746F62C70FF
:100D0000C2F201000AF018FCFF21A1EB101047F21B
:100D1000F321C2F201010870FFE7FFE7FFE740F6A9
:100D20004440C2F2010001780131CAB20170032AC5
:100D300007D3FFE740F64440C2F2010000210170F2
:100D4000FFE7FFE70AB080BD81B0009042F20430B7
:100D5000C4F20100016821F4403101600099496842
:100D600002681143016000980068416821F48071B5
:100D700041600098016800694A6842EA00204860C2
:100D800000980068416821F0407141600098016856
:100D900080684A681043486000980068816821F4C0
:100DA0000061816000980168C0688A6810438860AB
:100DB0000098806A0121C0F60071884219D0FFE7CF
:100DC00000980068816821F0706181600098016876
:100DD000806A8A681043886000980068816821F002
:100DE0004051816000980168C06A8A681043886039
:100DF0000CE000980068816821F0706181600098C3
:100E00000068816821F040518160FFE70098006828
:100E1000816821F0020181600098016880698A6818
:100E200042EA400088600098006A002819D0FFE775
:100E300000980068416841F40061416000980068D2
:100E4000416821F46041416000980168406A4EF2B7
:100E50000002CFF6FF7202EB40304A681043486050
:100E600006E000980068416821F400614160FFE7F6
:100E700000980068C16A21F47001C162009801689D
:100E8000C0690022CFF6F07202EB0050CA6A10432C
:100E9000C86200980068816821F400718160009840
:100EA0000168006B8A6842EA402088600098006808
:100EB000816821F4806181600098016840698A68D6
:100EC00042EA8020886001B0704700000000000006
:100ED00081B00090009847F2A061C2F20101416028
:100EE00047F2A660C2F2010000780099088101B0C3
:100EF000704700000000000080B58CB00B9000200F
:100F00000A9040F6EC41C2F2010101220A6010236E
:100F10004B608A60C86047F2307CC2F2010C4FF629
:100F2000FF7E099060460891079272460693CDF8BD
:100F300014C0CDF810E00FF0FBFF079903900846AE
:100F40000BF0A6F802200899086006984860079AF6
:100F50008A60099BCB600598049A0FF0E9FF032192
:100F6000089A11600699516008239360099BD36029
:100F7000DDF814C0029060461146049A0FF0D8FFC5
:100F80004FF408710A910421089A11600699516082
:100F9000079B9360DDF828C0C2F80CC0DDF814C0D0
:100FA000019060461146049A0FF0C2FF0B99059A12
:100FB000009010460FF098FF0CB080BD00000000BC
:100FC00080B59AB019901891FFE743F63800C4F243
:100FD0000200016841F001010160006800F00100B9
:100FE00012901298FFE7FFE743F63000C4F20200C8
:100FF000016841F480010160006800F480001190F4
:101000001198FFE7FFE743F63000C4F202000168E1
:1010100041F001010160006800F00100109010989B
:10102000FFE7FFE743F63000C4F20200016841F039
:1010300004010160006800F004000F900F98FFE7C2
:10104000FFE743F63000C4F20200016841F00801F6
:101050000160006800F008000E900E98FFE7FFE7BF
:1010600043F63000C4F20200016841F01001016053
:10107000006800F010000D900D98FFE7FFE743F6C1
:101080003000C4F20200016841F0200101600068F4
:1010900000F020000C900C98FFE7FFE743F63000CB
:1010A000C4F20200016841F040010160006800F0F4
:1010B00040000B900B98FFE74FF63F001390022083
:1010C000149000211591032216920C23179341F2DC
:1010D000004CC4F2020C0DF14C0E0A9060460991CE
:1010E000714608920793CDF818E00BF025F980209F
:1010F00013900A991491099A1592089B1693DDF89A
:101100001CC0CDF85CC040F2000EC4F2020E059087
:10111000704606990BF010F9302013900A9814903D
:1011200009991591089A1692079B179340F60000AB
:10113000C4F2020006990BF0FFF848F23310139046
:101140000A98149009991591089A1692079B17937B
:1011500041F60000C4F2020006990BF0EDF84FF6DC
:10116000837013900A98149009991591089A169211
:10117000079B179341F20000C4F2020006990BF09E
:10118000DBF84CF2037013900A98149009991591AA
:10119000089A1692079B179340F60040C4F202008B
:1011A00006990BF0C9F840F66440C2F201000999B3
:1011B0004160059A82604FF40073C3604FF480630E
:1011C00003614FF4805343614FF480438361C161F5
:1011D0004FF4003303624162089B8362C162016382
:1011E00046F2104CC4F2020CC0F800C0FFE7199898
:1011F00040F66441C2F20101016319988863FFE778
:1012000040F66440C2F2010004900AF009FE04991D
:10121000039008460AF054FE38210F220023029062
:101220000846019111461A460DF002F801980CF09B
:10123000F3FF1AB080BD000080B592B0119000207D
:101240008DF8430047F6F860C2F2010000680069BB
:1012500040F69851C2F201010978039008460399BB
:1012600088471199087011980078002800F038819B
:10127000FFE700200490FFE704981199097888425D
:1012800080F02D81FFE747F6F860C2F201000068A8
:10129000406940F69851C2F201010978049A09ABFD
:1012A00003EB42030DF11A0C0CEB420202900846CC
:1012B0001946029B984747F6FC60C2F2010000788D
:1012C000012811D1FFE7049809A931F810100EAADE
:1012D00022F8101004980DF11A0131F810100DF1D8
:1012E0002E0222F81010FFE747F6FC60C2F2010060
:1012F0000078800700280AD5FFE7049809A931F88B
:101300001010C1F580510EAA22F81010FFE747F621
:10131000FC60C2F201000078400700280CD5FFE70E
:1013200004980DF11A0131F81010C1F580510DF13A
:101330002E0222F81010FFE747F6FC60C2F201000F
:1013400000780007002811D5FFE7049809A931F8B3
:1013500010100DF12E0222F8101004980DF11A0150
:1013600031F810100EAA22F81010FFE704980EA909
:1013700031F8101040F6C442C2F2010252F82000C7
:1013800081420DD9FFE704980EA931F8101040F6FC
:10139000C442C2F2010252F82000081A01900CE087
:1013A000049840F6C441C2F2010151F820100EAA7F
:1013B00032F81000081A0190FFE70198ADF8180004
:1013C00004980DF12E0131F8101040F6D842C2F207
:1013D000010252F8200081420ED9FFE704980DF176
:1013E0002E0131F8101040F6D842C2F2010252F834
:1013F0002000081A00900DE0049840F6D841C2F28F
:10140000010151F820100DF12E0232F81000081AD7
:101410000090FFE70098ADF81600BDF81800BDF881
:1014200016100844062816DBFFE704980EA931F8C9
:10143000101040F6C442C2F2010242F82010049893
:101440000DF12E0131F8101040F6D842C2F201021F
:1014500042F82010FFE740F69850C2F201000078F1
:10146000702812D1FFE704980EA931F81010119AD4
:1014700002EB4000418004980DF12E0131F810106C
:10148000119A02EB4000818124E047F6FE60C2F22F
:1014900001000088049940F6C442C2F2010252F8E9
:1014A00021205043000B119A02EB4101488047F67E
:1014B0000070C2F201000088049940F6D842C2F2DE
:1014C000010252F821205043000B119A02EB410116
:1014D0008881FFE7FFE7049801300490CCE6FFE73E
:1014E0009DF8430012B080BD81B001468DF8030025
:1014F0009DF80300020902EB820200F00F0000EBEE
:101500004200C0B201B0704780B516F00DFC80BD3E
:1015100086B04EF69450CEF20000016821F005012D
:1015200001604EF69851CEF2000100220A604EF69C
:101530009C51CEF200011023C2F201030B604EF663
:10154000A051CEF200013D23C0F202330B60052111
:101550000160BFF34F8FBFF36F8F4EF65070CEF226
:1015600000000260BFF34F8FBFF36F8F4EF6145031
:10157000CEF20000016841F480210160BFF34F8F7B
:1015800000688003002801D5FFE71AE0BFF34F8F02
:10159000BFF36F8F4EF65070CEF200000021016055
:1015A000BFF34F8FBFF36F8F4EF61450CEF2000093
:1015B000016841F400310160BFF34F8FBFF36F8FBB
:1015C000FFE74EF68450CEF2000000210160BFF329
:1015D0004F8F4EF68050CEF20000006805900598BF
:1015E000C0F34E300490FFE70598C0F3C9000390A4
:1015F000FFE704980399890760F34D114EF6607078
:10160000CEF2000001600398411E03910028F0D142
:10161000FFE70498411E04910028E5D1FFE7BFF3DE
:101620004F8FBFF36F8F4EF61450CEF2000000685C
:10163000C003002801D5FFE73CE04EF68450CEF20F
:10164000000000210160BFF34F8F4EF68050CEF2B4
:101650000000006802900298C0F34E300190FFE74E
:101660000298C0F3C9000090FFE70198009989072C
:1016700060F34D114EF66070CEF2000001600098EC
:10168000411E00910028F0D1FFE70198411E019111
:101690000028E5D1FFE7BFF34F8F4EF61450CEF28E
:1016A0000000016841F480310160BFF34F8FBFF348
:1016B0006F8FFFE706B0704781B000900098017A05
:1016C000417201B07047000047F60470C2F2010099
:1016D000007870470000000081B000900098C0883A
:1016E00001B070470000000081B000900098808831
:1016F00001B070470000000080B586B00A46059032
:10170000ADF8121005980021016005980172059846
:1017100041720598817205980430BDF812100223B9
:1017200003921A46029308F097FE05990631BDF818
:101730001220023292B2019008461146029A08F035
:101740008BFE06B080BD000080B582B001468DF8EA
:1017500006009DF8060000EB400046F6A842C2F2E3
:10176000010202EB8000009100F07AFA002804D018
:10177000FFE700208DF8070016E09DF8060000EB5B
:10178000400046F6A841C2F2010101EB800000F0E2
:1017900073FA002804D0FFE701208DF8070003E06A
:1017A00002208DF80700FFE79DF8070002B080BD1A
:1017B00082B001468DF807009DF80700002200283E
:1017C000009208D4FFE79DF8070000210F28B8BF5A
:1017D00001210091FFE7009800F0010002B070477E
:1017E00080B584B00A4603908DF80B1003980192DF
:1017F00000F0EAF900281CD0FFE7039800F048FA4F
:10180000002804D0FFE7039800214172FFE79DF80C
:101810000B00039908720AF0CBFF03990860039844
:101820000068002804D1FFE7039801210160FFE769
:10183000FFE704B080BD000080B584B00A46039085
:101840008DF80B100398019200F0D6F9002812D001
:10185000FFE70398007A9DF80B1088420BD1FFE751
:101860000398407A9DF80B10884204D1FFE7039853
:1018700000F062F905E003989DF80B10FFF7B0FF48
:10188000FFE704B080BD000080B584B00A4603467F
:101890008DF80F008DF80E109DF80F0000EB400042
:1018A00046F6A841C2F2010101EB80009DF80E103E
:1018B00002920193FFF7C0FF04B080BD000000005A
:1018C00081B0009000980021817201B07047000043
:1018D00080B582B001900198002101720198417297
:1018E000019801600198FFF7EBFF02B080BD000096
:1018F00080B500F069FB46F6A441C2F20101087010
:1019000080BD00000000000080B586B00A4605904A
:10191000ADF8121005980430BDF81210022303929E
:101920001A46029308F0E0FD05990631BDF8122031
:10193000023292B2019008461146029A08F0D4FD94
:1019400006B080BD0000000081B001468DF80300A4
:101950009DF8030046F6A442C2F20102107001B0E5
:10196000704700000000000080B590B000208DF8A6
:1019700012008DF81100FFE79DF811000E2800F30A
:101980009780FFE79DF8110000EB400046F6A84164
:10199000C2F2010101EB80000390039800F014F9FA
:1019A000002801D1FFE77DE0039800F0F5F800285A
:1019B00004D0FFE7039800F0BFF8FFE7039800F0BA
:1019C000DFF800286DD0FFE70020ADF80A0003988B
:1019D00000F052F900280CD1FFE7039800F040F91D
:1019E00000280BD0FFE7039800F022F9002805D06B
:1019F000FFE70398FFF778FE019004E00398FFF7F4
:101A00006BFE0190FFE70198ADF80A009DF80B000E
:101A10009DF812100DF113025054BDF80A009DF804
:101A20001210114448709DF8120002308DF8120017
:101A3000039800F015F9002803D0FFE7002000907C
:101A400008E0039800F018F90221002818BF0121CE
:101A50000091FFE700989DF812104A1C8DF81220A3
:101A60000DF11302505447F22470C2F201000078C5
:101A7000102807D1FFE740F65B00C2F20100012108
:101A80000170FFE7039800F0EBF8002804D0FFE7AF
:101A90000398FFF71DFF03E00398FFF70DFEFFE734
:101AA000FFE7FFE79DF8110001308DF8110063E7B3
:101AB0009DF81200002801D0FFE7FFE710B080BDBD
:101AC00081B000900098002181800098C18000982A
:101AD00001720098417200980160009801600098BE
:101AE000817201B07047000081B001468DF803009B
:101AF0009DF8030047F60472C2F20102107001B0B3
:101B0000704700000000000082B00A460190ADF866
:101B10000210BDF802000199C88002B070470000B1
:101B200082B00A460190ADF80210BDF8020001999A
:101B3000888002B07047000081B0009000980021BA
:101B4000017201B07047000080B582B046F6A44033
:101B5000C2F201000078019000F036FA0199081AEB
:101B6000B0FA80F0400902B080BD00000000000023
:101B700046F6A440C2F20100007870470000000061
:101B800081B000900098017A407A081A18BF0120AD
:101B900001B070470000000080B582B001900AF0EB
:101BA00007FE01990968401A0090FFF78DFD4FF478
:101BB0007A7148430021009A824228BF01210846D9
:101BC00002B080BD0000000082B0019001988088C2
:101BD00000210028009107D0FFE70198C088002865
:101BE00018BF01200090FFE7009800F0010002B04C
:101BF000704700000000000080B582B0019001989D
:101C0000FFF7E2FF002807D0FFE70198407A00289D
:101C100018BF0120009002E000200090FFE700982C
:101C2000002818BF012002B080BD000000000000A5
:101C300081B000900098407A0138B0FA80F04009F5
:101C400001B070470000000081B000900098007A59
:101C50000238B0FA80F0400901B07047000000007F
:101C600081B000900098007AB0FA80F0400901B08D
:101C7000704700000000000081B000900098007ADA
:101C80000138B0FA80F0400901B070470000000050
:101C900081B000900098807A002818BF012001B020
:101CA000704700000000000080B582B046F65C502E
:101CB000C2F20100002101708DF80710FFE79DF8C6
:101CC00007000E281FDCFFE79DF8070000EB40002F
:101CD00046F6A841C2F2010101EB8000FFF774FF54
:101CE000002808D0FFE746F65C50C2F201000178F8
:101CF0000131017000E006E0FFE79DF807000130C8
:101D00008DF80700DBE702B080BD00000000000096
:101D100080B582B047F60470C2F201004FF4D8716A
:101D2000012208F099FB00218DF80710FFE79DF8CC
:101D300007000E2819DCFFE79DF8070000EB4001C3
:101D400046F6A842C2F2010202EB8101932202EBA5
:101D50008000009008460099FFF7CEFCFFE79DF851
:101D6000070001308DF80700E1E7FFF79DFF02B0A3
:101D700080BD00000000000080B582B001468DF8F3
:101D8000070046F65D50C2F2010001220270009188
:101D900000F05EF9002832D0FFE700208DF8060041
:101DA000FFE79DF806000E2828DCFFE79DF80600F7
:101DB00000EB400046F6A841C2F2010101EB8000B1
:101DC000FFF702FF002812D0FFE79DF8070001216E
:101DD000012808BF02219DF8060000EB400046F6EE
:101DE000A842C2F2010202EB80004172FFE7FFE766
:101DF0009DF8060001308DF80600D2E7FFE70020CD
:101E00008DF80500FFE79DF805000E2815DCFFE7BB
:101E10009DF8050000EB400046F6A841C2F2010122
:101E200001EB80009DF80710FFF7DAFCFFE79DF853
:101E3000050001308DF80500E5E702B080BD000027
:101E400080B582B001468DF8070001208DF80600AC
:101E50009DF80700002853D0FFE700208DF805000B
:101E6000FFE79DF805000E2849DCFFE79DF8050017
:101E700000EB400046F6A841C2F2010101EB8000F0
:101E8000FFF7A2FE002833D0FFE79DF8050000EB26
:101E9000400046F6A841C2F2010101EB8000FFF7C5
:101EA000ABFE002820D0FFE79DF8050000EB4000C6
:101EB00046F6A841C2F2010101EB8000007A9DF8CC
:101EC0000710884210D1FFE79DF8050000EB4000A5
:101ED00046F6A841C2F2010101EB8000407A9DF86C
:101EE0000710884204D0FFE700208DF80600FFE7C6
:101EF000FFE79DF8050001308DF80500B1E7FFE729
:101F00009DF80600002803D0FFE700F081F804E008
:101F10009DF80700FFF730FFFFE702B080BD00002B
:101F200080B582B047F60470C2F201004FF4D87158
:101F3000012208F0D9FA00218DF80710FFE79DF87B
:101F400007000E2819DCFFE79DF8070000EB4001B1
:101F500046F6A842C2F2010202EB8101932202EB93
:101F60008000009008460099FFF7CEFCFFE79DF83F
:101F7000070001308DF80700E1E7FFF795FE02B09A
:101F800080BD00000000000080B582B000208DF808
:101F90000700FFE79DF807000E2813DCFFE79DF818
:101FA000070000EB400046F6A841C2F2010101EB38
:101FB0008000FFF785FDFFE79DF8070001308DF8F1
:101FC0000700E7E702B080BD46F65C50C2F20100B0
:101FD000007870470000000080B546F69870C2F2A5
:101FE000010009F069FD4BF20800C4F20200022171
:101FF000016080BD000000007047C06B1DF083BE13
:1020000000000000000000005934113100000108F8
:1020100080B582B000208DF80700FFE79DF807002B
:102020000E2813DCFFE79DF8070000EB400046F6A2
:10203000A841C2F2010101EB8000FFF77DFDFFE73F
:102040009DF8070001308DF80700E7E702B080BD7A
:1020500080B582B000208DF80600FFE79DF80600ED
:102060000E281ADCFFE79DF8060000EB400046F65C
:10207000A841C2F2010101EB8000FFF7BDFD00287D
:1020800004D0FFE701208DF807000AE0FFE79DF884
:10209000060001308DF80600E0E700208DF807000B
:1020A000FFE79DF8070002B080BD000000000000BF
:1020B00080B582B000208DF806008DF80500FFE79E
:1020C0009DF805000E283CDCFFE79DF8050000EBBD
:1020D000400046F6A841C2F2010101EB8000FFF783
:1020E00073FD002813D0FFE79DF8050000EB4000CA
:1020F00046F6A841C2F2010101EB8000FFF7A4FD02
:10210000002804D1FFE700208DF8070021E09DF8AA
:10211000050000EB400046F6A841C2F2010101EBC8
:102120008000FFF751FD002804D0FFE701208DF863
:102130000600FFE7FFE79DF8050001308DF8050078
:10214000BEE79DF80600002818BF01208DF80700A3
:10215000FFE79DF8070002B080BD0000000000000E
:1021600080B582B000208DF806008DF80500FFE7ED
:102170009DF805000E283CDCFFE79DF8050000EB0C
:10218000400046F6A841C2F2010101EB8000FFF7D2
:102190001BFD002813D0FFE79DF8050000EB400071
:1021A00046F6A841C2F2010101EB8000FFF764FD91
:1021B000002804D1FFE700208DF8070021E09DF8FA
:1021C000050000EB400046F6A841C2F2010101EB18
:1021D0008000FFF7F9FC002804D0FFE701208DF80C
:1021E0000600FFE7FFE79DF8050001308DF80500C8
:1021F000BEE79DF80600002818BF01208DF80700F3
:10220000FFE79DF8070002B080BD0000000000005D
:1022100080B5A6B046F69850C2F20100407800069C
:10222000002802D4FFE700F041BC47F26810C2F278
:10223000010047F2B861C2F2010101221D901C9217
:102240000EF062FB47F2B461C2F201011D9A1B90CD
:1022500010461C9A0EF018FB47F22771C2F20101DA
:10226000097847F22672C2F20102127891424BDBE2
:10227000FFE747F2B860C2F201000078FFF734F9D7
:1022800047F22771C2F201010978884209DBFFE7B2
:1022900046F69850C2F20100016841F40011016055
:1022A00031E047F2B860C2F201000078FFF71CF994
:1022B00047F22671C2F201010978884209DAFFE784
:1022C00046F69850C2F20100016841F40011016025
:1022D00018E046F69850C2F2010080788006002887
:1022E0000FD5FFE746F69850C2F20100016821F4CD
:1022F0000011016047F22470C2F201000721017051
:10230000FFE7FFE7FFE753E047F22770C2F2010063
:10231000007847F22671C2F201010978884246DA54
:10232000FFE747F2B860C2F20100007847F2267179
:10233000C2F20101097800228842B8BF012210468A
:10234000FFF7D2F8002818D0FFE747F2B860C2F2D2
:1023500001000078FFF7C8F847F22771C2F20101C7
:102360000978884209DBFFE746F69850C2F201007F
:10237000016841F40011016018E046F69850C2F27D
:1023800001008078800600280FD5FFE746F69850B8
:10239000C2F20100016821F40011016047F22470CB
:1023A000C2F2010007210170FFE7FFE7FFE7FFE747
:1023B00046F69850C2F2010080788007002840F16C
:1023C000DE82FFE746F69850C2F201008078800670
:1023D000002840F1D482FFE746F69850C2F201008F
:1023E00080784007002840F1CA82FFE746F69850FF
:1023F000C2F201008078400600280DD5FFE740F6C4
:10240000FC40C2F20100007847F2B461C2F201015F
:102410000978884241D0FFE746F69850C2F20100A1
:10242000016841F48001016000201A901EF0E2FF73
:102430001A981FF093FA19901DF08BFE1A981FF04E
:102440004BF8012018901EF0D5FF18981FF086FA5F
:102450004FF07F41179008461FF098FA1DF079FE63
:1024600040F65900C2F201003C21017047F2B4600D
:10247000C2F20100007840F6FC41C2F2010108708E
:1024800009201FF0E1FA4FF47F41169008461FF033
:102490007FFA18981FF020F8FFE747F2B860C2F201
:1024A00001001EA902221590084615990FF018FA8E
:1024B00015988178C907002904D0FFE73A208DF8E4
:1024C0007A0003E020208DF87A00FFE71EA8C11CE7
:1024D00047F2B862C2F201020132022314900846A8
:1024E00011461A460FF0FCF9F02088211EF0C8FBB7
:1024F00047F22571C2F20101097840F2A872C2F2D6
:10250000010252F82110139008461FF041FA43F2DD
:102510002870C0F604001FF049FA0E2112900846F8
:102520001FF09AFA0121119008461EF063FF002067
:1025300050214FF4F072C02310901DF019FEDC21E1
:1025400064224FF4877310981DF012FE14981DF04A
:102550005FFF47F2B460C2F201000078002807D1A3
:10256000FFE747F2B460C2F2010007210170FFE704
:1025700047F2B460C2F20100007801280FD1FFE7F2
:1025800042F22000ADF8800046F26E40C7F66110BE
:102590001F9042F22000C6F64D701E908FE047F269
:1025A000B460C2F20100007802280FD1FFE742F2C6
:1025B0007900ADF8800047F27340C6F264101F90B6
:1025C00045F22040C6F275501E9077E047F2B460A5
:1025D000C2F20100007803280FD1FFE742F2790030
:1025E000ADF8800047F26530C6F264101F9046F2E5
:1025F0005750C6F664601E905FE047F2B460C2F2C6
:102600000100007804280FD1FFE742F27900ADF80D
:10261000800047F27340C6F264101F9046F65400E3
:10262000C7F275201E9047E047F2B460C2F2010085
:10263000007805280FD1FFE742F22000ADF88000B6
:1026400046F26940C7F661101F9042F22000C7F2BF
:1026500046201E902FE047F2B460C2F201000078DD
:1026600006280FD1FFE742F27900ADF8800047F26B
:102670007520C6F264101F9045F22030C7F2614009
:102680001E9017E047F2B460C2F2010000780728FC
:102690000FD1FFE742F22000ADF8800046F26E4015
:1026A000C7F661101F9042F22000C7F253501E90EF
:1026B000FFE7FFE7FFE7FFE7FFE7FFE7FFE71EA80A
:1026C0000A3047F2B461C2F201018A1C02230F9161
:1026D00011461A460FF004F90F98417801290FD1DD
:1026E000FFE742F27900ADF88C0047F26E50C7F276
:1026F0006120229042F22E00C6F24A10219007E19A
:1027000047F2B460C2F20100407802280FD1FFE71F
:1027100047F67210ADF88C0047F26220C6F27510D1
:10272000229042F22E00C6F246502190EFE047F28E
:10273000B460C2F20100407803280FD1FFE742F2F3
:102740002000ADF88C0047F26120C6F663002290AD
:1027500042F22E00C4F620502190D7E047F2B46038
:10276000C2F20100407804280FD1FFE742F22000B6
:10277000ADF88C0047F27020C6F66940229042F214
:102780002E00C4F220102190BFE047F2B460C2F2E4
:102790000100407805280FD1FFE742F22000ADF894
:1027A0008C0046F24D10C2F27900229042F22E00C7
:1027B000C2F220002190A7E047F2B460C2F201000B
:1027C000407806280FD1FFE742F22000ADF88C00D8
:1027D00047F24A50C6F26E50229042F22E00C2F2E8
:1027E000200021908FE047F2B460C2F201004078EF
:1027F00007280FD1FFE742F22000ADF88C0047F226
:102800004A50C7F66C10229042F22E00C2F220000D
:10281000219077E047F2B460C2F2010040780828C6
:102820000FD1FFE742F22000ADF88C0047F267506D
:10283000C7F27340229042F22E00C7F2415021901D
:102840005FE047F2B460C2F20100407809280FD17E
:10285000FFE747F26520ADF88C0046F27450C6F2EF
:102860006D20229045F22E30C7F26500219047E09E
:1028700047F2B460C2F20100407810280FD1FFE7A0
:1028800042F27200ADF88C0046F67470C6F26250E7
:10289000229042F22E00C6F24F3021902FE047F2F4
:1028A000B460C2F20100407811280FD1FFE747F26F
:1028B0006520ADF88C0046F27650C6F26D2022906D
:1028C00042F22E00C6F64E70219017E047F2B46037
:1028D000C2F20100407812280FD1FFE747F26520CD
:1028E000ADF88C0046F26350C6F26D20229042F2A1
:1028F0002E00C6F244502190FFE7FFE7FFE7FFE715
:10290000FFE7FFE7FFE7FFE7FFE7FFE7FFE7FFE797
:1029100030208DF8900043F22020ADF88E001EA8E4
:1029200000F1190147F2B462C2F20102033202233C
:102930000E90084611461A460EF0D2FF2E208DF852
:10294000930000208DF894004AF60830C0F603008A
:102950001FF02CF8F021CE220D90084611461EF0F3
:102960008FF90E210C9008461FF076F80E990B9007
:1029700008461DF04DFD01201EF0AEFD60E040F662
:102980005900C2F20100007847F2B861C2F20101B9
:102990004978884253D0FFE747F2B860C2F201009D
:1029A000014611F8012F40F65903C2F201031A70D3
:1029B0001EAA02230A901046DDF828C0099161463C
:1029C00008921A4607930EF08BFF3A208DF87A0092
:1029D000089803300999079A0EF082FF4CF63810D8
:1029E000C0F603001EF0E2FF6FF07F41069008463C
:1029F0001EF0CEFF07981FF039F80C21059008460D
:102A00001FF02AF801210490084603911EF0F2FC01
:102A10000520F5211EF034F90021DC2264234FF457
:102A2000877C0290084611461A4663461DF0A0FBBB
:102A300008981DF0EDFC03981EF04EFDFFE7FFE740
:102A400040F6FC40C2F20100007847F2B461C2F2E5
:102A500001010978884229D0FFE747F2B460C2F249
:102A60000100017840F6FC42C2F201021170827846
:102A700047F26811C2F20101022301900846009159
:102A800019460DF039FE01984278032100980DF0A7
:102A900033FE01980278042100980DF02DFE019874
:102AA000C278052100980DF027FEFFE726B080BD13
:102AB00080B582B001468DF806009DF80600012819
:102AC00016D1FFE740F6FD40C2F201000078002871
:102AD0000ED1FFE740F6FD40C2F201000121017076
:102AE00009F066FE40F60051C2F20101086039E0CB
:102AF0009DF8060001281FD1FFE740F6FD40C2F215
:102B000001000078012817D1FFE709F051FE40F6D7
:102B10000051C2F201010968401AB0F5586F0AD39A
:102B2000FFE740F6FD40C2F20100002101700120E4
:102B30008DF807001AE014E09DF8060000280FD178
:102B4000FFE740F6FD40C2F201000078012807D1FE
:102B5000FFE740F6FD40C2F2010000210170FFE7EF
:102B6000FFE7FFE700208DF80700FFE79DF807006B
:102B700002B080BD0000000080B546F69850C2F259
:102B8000010080788007002810D5FFE746F69850AE
:102B9000C2F2010080788006002807D5FFE747F2DF
:102BA0002470C2F2010007210170FFE746F6985039
:102BB000C2F20100016821F400310160016821F4D2
:102BC0008001016009F0F4FD47F22871C2F20101B1
:102BD000086047F22C70C2F201001E21017047F21A
:102BE0007000C2F20100007800F002F880BD000021
:102BF00081B001468DF803009DF80300042804DC31
:102C0000FFE705208DF8030009E09DF80300512837
:102C100004DBFFE750208DF80300FFE7FFE79DF896
:102C2000030000EB8000400047F28811C2F201016E
:102C30000968486301B0704780B586B001200590EF
:102C40001EF0D8FBC32091214FF4A072EB231DF09E
:102C50008FFA6FF07F401EF09BFE4FF69850C0F643
:102C600003001EF0A3FE0021049008461EF0FEFEA5
:102C70000599039008461EF0EFFEC82196220290A7
:102C8000084611461DF0FCFF47F6DC61C2F2010167
:102C9000897A02220190084611461DF079FB0598B9
:102CA0001EF01AFC06B080BD80B586B01DF0F0FFA6
:102CB00044F66911C0F60101059008461EF0AAFC11
:102CC0000120049024F024F803901FF017F800204E
:102CD0001EF044FE02901DF03CFA04981EF03EFEE9
:102CE0004FF07F41019008461EF050FE1DF031FA72
:102CF00040F69C50C2F20100302114F011FF40F662
:102D0000E050C2F20100502114F00AFF46F68E4056
:102D1000C2F201004FF4E371049A07F09DFB0090AA
:102D200009F046FD46F6A051C2F2010108601DF00F
:102D300023FE06B080BD000080B5ADF5B86D09F08A
:102D400037FD40F61051C2F201010968401A6428AB
:102D50000AD3FFE709F02CFD40F61051C2F2010141
:102D600008601DF009FEFFE747F2A860C2F201000B
:102D70000078C007002845D0FFE740F26470C2F237
:102D80000100007800283BD1FFE740F26470C2F2F6
:102D90000100012101700846CDF880151EF02AFBC4
:102DA0001DF0D7F94AF60830C0F603001EF0FEFD0C
:102DB0004AF2FF51CDF87C0508461EF0E9FD0220DD
:102DC0001EF054FE0E21CDF8780508461EF044FE94
:102DD000F0218722CDF87405084611461DF050FFFA
:102DE00043F28761C0F60501CDF8700508461DF075
:102DF0000FFBDDF880051EF06FFBFFF7BDFEFFE760
:102E000004F0ADBB40F26470C2F20100007801280A
:102E10000CD1FFE740F26470C2F2010000210170A2
:102E200047F22870C2F2010001605BE040F264707A
:102E3000C2F201000078022853D1FFE740F264702B
:102E4000C2F20100002101700120CDF86C051EF0D6
:102E5000D1FA1DF07EF909201EF0F6FDFF21CDF814
:102E6000680508461EF094FDF02088213222CDF836
:102E70006425DDF864351DF0A3FB4FF4C8704FF4F2
:102E8000E1711422CDF86005CDF85C151146DDF82E
:102E90005C35CDF858251A46DDF858351DF0B6FCDE
:102EA0002820DDF86015CDF854050846DDF85415E6
:102EB000DDF85C25DDF854351DF0A8FC3C20DDF87C
:102EC0006015CDF850050846DDF85015DDF85C2595
:102ED000DDF850351DF09AFCDDF86C051EF0FCFAAB
:102EE000FFE7FFE7FFE747F22470C2F20100007836
:102EF00001461528CDF84C1504F26881DDF84C1513
:102F0000DFE811F0F82016004E02A9038108690AD3
:102F1000950B0E0E730E1A10B8123815EE152816F2
:102F20002E17DA1ACF1B141D381E1C1F8C1F3F20B2
:102F300040F61450C2F2010000680028CDF84805A0
:102F40000CD0FFE7DDF84805012800F01A81FFE703
:102F5000DDF84805022800F03081F3E147F2B07057
:102F6000C2F201000121017000208DF8AF05FFE7DA
:102F70009DF8AF05CDF8440510F04AFEDDF8441584
:102F800081422CDAFFE79DF8AF0500EBC00047F265
:102F90003841C2F2010101EB800010F011FD002860
:102FA00016D0FFE79DF8AF0500EBC00047F23841AF
:102FB000C2F2010101EB800010F0BAFC002807D03A
:102FC000FFE747F2B070C2F201000021017006E095
:102FD000FFE79DF8AF0501308DF8AF05C8E747F270
:102FE000B070C2F20100007801460028CDF840150B
:102FF00005D0FFE7DDF8400501285BD05BE040F637
:103000001450C2F20100012101600846CDF83C15C0
:103010001EF0F0F91DF09DF809201EF015FD4FF48B
:103020007F41CDF8380508461EF0B2FCF02088211B
:103030003222CDF83425DDF834351DF0C1FA4FF4D5
:10304000C8704FF4E1711422CDF83005CDF82C157D
:103050001146DDF82C35CDF828251A46DDF828353F
:103060001DF0D4FB2820DDF83015CDF824050846E6
:10307000DDF82415DDF82C25DDF824351DF0C6FB20
:103080003C20DDF83015CDF820050846DDF8201588
:10309000DDF82C25DDF820351DF0B8FBDDF83C050A
:1030A0001EF01AFA09F084FB40F61C51C2F201012D
:1030B00008605AE0FFE740F61450C2F20100042114
:1030C00001600120CDF81C051EF094F91DF041F8B7
:1030D00009201EF0B9FCFF21CDF8180508461EF0A6
:1030E00057FCF02088213222CDF81425DDF8143564
:1030F0001DF066FA4FF4C8704FF4E1711422CDF858
:103100001005CDF80C151146DDF80C35CDF8082565
:103110001A46DDF808351DF079FB2820DDF810157A
:10312000CDF804050846DDF80415DDF80C25DDF8BA
:1031300004351DF06BFB3C20DDF81015CDF80005C3
:103140000846DDF80015DDF80C25DDF800351DF02A
:103150005DFBDDF81C051EF0BFF909F029FB40F608
:103160001C51C2F201010860FFE740F61450C2F2A0
:1031700001000021016047F22470C2F201000170D9
:10318000E0E009F015FB40F61C51C2F201010968AC
:10319000401AB0F5FA7F0FD3FFE740F61450C2F2A1
:1031A000010001680131016009F002FB40F6345171
:1031B000C2F201010860FFE7C4E009F0F9FA40F645
:1031C0003451C2F201010968401A0F28C0F0B980D9
:1031D000FFE709F0EDFA40F63451C2F20101086050
:1031E00040F62C50C2F2010000680028CDF8FC0423
:1031F00005D0FFE7DDF8FC04012850D050E040F690
:103200009C50C2F20100807DFE2808DCFFE740F6FA
:103210009C50C2F20100817D01318175FFE740F6CB
:103220009C50C2F20100807EFE2808DCFFE740F6D9
:103230009C50C2F20100817E01318176FFE740F6A9
:103240009C50C2F20100807FFE2808DCFFE740F6B8
:103250009C50C2F20100817F01318177FFE740F687
:103260009C50C2F20100807DFF2817D1FFE740F695
:103270009C50C2F20100807EFF280FD1FFE740F68C
:103280009C50C2F20100807FFF2807D1FFE740F683
:103290002C50C2F2010001210160FFE750E0FFE77E
:1032A00040F69C50C2F20100807D002808D0FFE764
:1032B00040F69C50C2F20100817D01398175FFE723
:1032C00040F69C50C2F20100807E002808D0FFE743
:1032D00040F69C50C2F20100817E01398176FFE701
:1032E00040F69C50C2F20100807F002808D0FFE722
:1032F00040F69C50C2F20100817F01398177FFE7DF
:1033000040F69C50C2F20100807D002817D1FFE7F3
:1033100040F69C50C2F20100807E00280FD1FFE7EA
:1033200040F69C50C2F20100807F002807D1FFE7E1
:1033300040F62C50C2F2010000210160FFE7FFE7D8
:10334000FFE7FFE709F034FA47F22871C2F2010102
:10335000086047F21750C2F201000021017047F2E5
:103360001350C2F20100017047F21650C2F2010080
:10337000017047F21550C2F20100017047F214507B
:10338000C2F20100017040F65900C2F201003C2275
:10339000027047F2D060C2F20100016003F036BF54
:1033A00047F21450C2F201000078002840F0518129
:1033B000FFE747F21450C2F20100017801310170B9
:1033C0000120CDF8F8041EF015F800201EF0C6FA12
:1033D000CDF8F4041CF0BDFEDDF8F8041EF0BEFAD2
:1033E0004FF07F41CDF8F00408461EF0CFFA1CF0F4
:1033F000B0FE09201EF028FBFF21CDF8EC040846A2
:103400001EF0C6FA4FF4C8704FF4E1711422CDF8E3
:10341000E804CDF8E4141146DDF8E434CDF8E024F6
:103420001A46DDF8E0341DF0F1F92820DDF8E81443
:10343000CDF8DC040846DDF8DC14DDF8E424DDF822
:10344000DC341DF0E3F93C20DDF8E814CDF8D804B5
:103450000846DDF8D814DDF8E424DDF8D8341DF092
:10346000D5F90A204FF4BE714FF48373CDF8D4041C
:103470000846DDF8D424CDF8D0141146DDF8D02468
:103480001DF0C4F91E204FF4AF728821CDF8CC1482
:10349000DDF8CC341DF0BAF9BE20FC23CDF8C80409
:1034A000DDF8E014DDF8C8241DF0B0F942F6DC6068
:1034B000C0F6050040F281119F221DF05BF842F634
:1034C000D850C0F605003721CDF8C414DDF8D42457
:1034D0001DF050F842F62860C0F60500F5210F22D5
:1034E0001DF048F842F67860C0F605009622DDF837
:1034F000C4141DF03FF806F083FD002809D0FFE753
:1035000042F6B460C0F60500F0219B221DF032F8AF
:1035100008E042F6A060C0F60500F0219B221DF0F5
:1035200029F8FFE74AF60830C0F603001EF03EFA1D
:103530004AF2FF51CDF8C00408461EF029FA0220D5
:10354000CDF8BC041EF092FA0E21CDF8B80408465E
:10355000CDF8B4141EF080FA5F216E22CDF8B004CD
:103560000846CDF8AC141146CDF8A8241DF088FB10
:103570001421CDF8A404084619F046FC47F2AA200D
:10358000C2F20100CDF8A0041CF042FFDDF8B40443
:103590001EF062FA40F21D11CDF89C040846DDF8D9
:1035A000A824CDF8981411461DF06AFBDDF8BC1470
:1035B000CDF89404084619F027FCDDF8A0041CF0AF
:1035C00027FFDDF8B4041EF047FAFA21DDF8AC2439
:1035D000CDF890041046CDF88C141DF051FB152148
:1035E000CDF88804084619F00FFCDDF8A0041CF0A3
:1035F0000FFFDDF8B4041EF02FFADDF89814CDF8B3
:1036000084040846DDF88C141DF03AFB3521CDF812
:103610008004084619F0F8FBDDF8A0041CF0F8FE61
:1036200001201DF059FF47F21750C2F2010000219E
:10363000017047F21350C2F20100017047F21650B8
:10364000C2F20100017047F21550C2F20100017090
:10365000FFE703F0DBBD47F21350C2F20100007830
:1036600001460328CDF87C1400F2CB84DDF87C14ED
:10367000DFE811F004008C01D101BC0247F21350C5
:10368000C2F2010001780131017001201DF0B2FE8B
:103690001CF05FFD05201EF0D7F9FF21CDF878045E
:1036A00008461EF075F9DC2078214FF48872CDF8B9
:1036B00074040846DDF87434CDF870141946DDF84A
:1036C00070C4CDF86C246246DDF86C341DF09EF8B1
:1036D000F020CDF86804DDF87414DDF86824DDF816
:1036E0006C341DF093F84FF4B470CDF86404DDF839
:1036F0007414DDF86424DDF86C341DF087F842F6AC
:103700001460C0F605004121D722CDF860241CF0DA
:1037100031FF42F60060C0F60500B921CDF85C0427
:10372000DDF860241CF026FF40F23111DDF85C0466
:10373000DDF860241CF01EFF42F6C450C0F6050000
:103740004FF4C871BE221CF015FF40F69C50C2F227
:103750000100807D00280CD0FFE742F6EC50C0F657
:1037600005003C21CDF85814DDF858241CF002FF68
:103770000BE042F6D850C0F605003C21CDF85414B9
:10378000DDF854241CF0F6FEFFE740F69C50C2F230
:103790000100807E002809D0FFE742F6EC50C0F619
:1037A0000500C8213C221CF0E5FE08E042F6D85096
:1037B000C0F60500C8213C221CF0DCFEFFE740F605
:1037C0009C50C2F20100807F00280AD0FFE742F639
:1037D000EC50C0F605004FF4AA713C221CF0CAFE62
:1037E00009E042F6D850C0F605004FF4AA713C2219
:1037F0001CF0C0FEFFE74AF60830C0F603001EF0DA
:10380000D5F84AF2FF51CDF8500408461EF0C0F832
:1038100002201EF02BF90C21CDF84C0408461EF0B6
:103820001BF90521FA22CDF8480408461146CDF8C7
:1038300044241DF025FA43F27B61C0F60501CDF862
:10384000400408461CF0E4FD8720DDF844141DF018
:1038500017FA43F23331C0F60501CDF83C040846AF
:103860001CF0D6FDFF20DDF844141DF009FA43F2E8
:10387000DA61C0F60501CDF8380408461CF0C8FD31
:103880000F201EF0E9F864212822CDF83404084600
:1038900011461DF0F5F940F69C51C2F20101897DF7
:1038A000002914D0FFE740F69C50C2F20100807D51
:1038B0006421484348F28101C8F28001A0FB010164
:1038C000C909CDF8300408461CF076FDFFE7F0206A
:1038D00028211DF0D5F940F69C51C2F20101897EE4
:1038E000002914D0FFE740F69C50C2F20100807E10
:1038F0006421484348F28101C8F28001A0FB010124
:10390000C909CDF82C0408461CF056FDFFE74FF41A
:10391000BE7028211DF0B4F940F69C51C2F201019D
:10392000897F002914D0FFE740F69C50C2F20100C5
:10393000807F6421484348F28101C8F28001A0FBE6
:103940000101C909CDF8280408461CF035FDFFE740
:1039500001201DF0C1FD47F21750C2F20100002105
:10396000017047F21650C2F20100017047F2155083
:10397000C2F20100017047F21450C2F2010001705E
:1039800040F60450C2F2010001703AE346F69E4050
:10399000C2F201000078002810D1FFE746F69F40F0
:1039A000C2F201000078002808D1FFE746F6A040E7
:1039B000C2F20100007800282CD0FFE746F69E40B6
:1039C000C2F20100007840F60451C2F20101087011
:1039D00046F69F40C2F20100007840F60551C2F25F
:1039E0000101087046F6A040C2F20100007840F6DE
:1039F0000651C2F20101087047F21350C2F20100F1
:103A00000221017008F0D4FE40F60851C2F2010113
:103A10000860FFE7F5E208F0CBFE40F60851C2F27D
:103A200001010968401AB0F57A7F1FD3FFE708F05B
:103A3000BFFE40F63451C2F20101086047F2135054
:103A4000C2F2010001780131017040F60450C2F267
:103A500001000021017040F60550C2F20100017022
:103A600040F60650C2F201000170BEE046F69E40EC
:103A7000C2F201000078002840F0B680FFE746F669
:103A80009F40C2F201000078002840F0AD80FFE7BF
:103A900046F6A040C2F201000078002840F0A48061
:103AA000FFE740F60450C2F20100007800280FD072
:103AB000FFE740F69C50C2F20100807D002807D04D
:103AC000FFE740F69C50C2F201000021817517E02B
:103AD00040F60450C2F20100007800280FD0FFE742
:103AE00040F69C50C2F20100807D002807D1FFE71C
:103AF00040F69C50C2F20100FF218175FFE7FFE70D
:103B000040F60550C2F20100007800280FD0FFE710
:103B100040F69C50C2F20100807E002807D0FFE7EB
:103B200040F69C50C2F201000021817617E040F679
:103B30000550C2F20100007800280FD0FFE740F6E0
:103B40009C50C2F20100807E002807D1FFE740F6BA
:103B50009C50C2F20100FF218176FFE7FFE740F6AB
:103B60000650C2F20100007800280FD0FFE740F6AF
:103B70009C50C2F20100807F002807D0FFE740F68A
:103B80009C50C2F201000021817717E040F60650F8
:103B9000C2F20100007800280FD0FFE740F69C50E9
:103BA000C2F20100807F002807D1FFE740F69C5059
:103BB000C2F20100FF218177FFE7FFE747F21350D0
:103BC000C2F201000021017040F60450C2F201006F
:103BD000017040F60550C2F20100017040F6065037
:103BE000C2F201000170FFE7FFE70AE246F69E40DD
:103BF000C2F201000078002817D1FFE746F69F4087
:103C0000C2F20100007800280FD1FFE746F6A0407D
:103C1000C2F201000078002807D1FFE747F21350F5
:103C2000C2F2010000210170EAE108F0C1FD40F696
:103C30003451C2F201010968401A0F28C0F0DF8137
:103C4000FFE708F0B5FD40F63451C2F2010108600B
:103C500046F69E40C2F201000078002800F09E80E7
:103C6000FFE701201DF0C6FB40F60C50C2F2010038
:103C700000680028CDF8240405D0FFE7DDF824040F
:103C800001282CD02CE040F69C50C2F20100807D2F
:103C900000280CD1FFE742F6EC50C0F605003C21AD
:103CA000CDF82014DDF820241CF064FCFFE740F67A
:103CB0009C50C2F20100807DFE2808DCFFE740F640
:103CC0009C50C2F20100817D0131817506E040F611
:103CD0000C50C2F2010001210160FFE731E0FFE773
:103CE00040F69C50C2F20100807D002808D0FFE71A
:103CF00040F69C50C2F20100817D013981751FE0C0
:103D000040F60C50C2F20100002101603C20A021CD
:103D1000CDF81C04DDF81C24CDF818141146DDF88C
:103D20001824DDF818341CF023FA42F6D850C0F6F7
:103D30000500DDF81C14DDF81C241CF01BFCFFE75B
:103D4000FFE764201E21C8223223CDF814041CF0A2
:103D50000FFA2821DDF814041CF092FF0F21CDF892
:103D6000100408461DF078FE40F69C51C2F2010195
:103D7000897DDDF81424514348F28103C8F28003A1
:103D8000A1FB0313DB09CDF80C041846CDF8081489
:103D90001CF012FB01201DF09FFB2FE146F69F4017
:103DA000C2F201000078002800F08F80FFE70120B8
:103DB0001DF020FB40F60C50C2F201000068002804
:103DC000CDF8040405D0FFE7DDF80404012829D06C
:103DD00029E040F69C50C2F20100807E002809D103
:103DE000FFE742F6EC50C0F60500C8213C221CF06B
:103DF000C1FBFFE740F69C50C2F20100807EFE2826
:103E000008DCFFE740F69C50C2F20100817E0131E0
:103E1000817606E040F60C50C2F2010001210160FB
:103E2000FFE72BE0FFE740F69C50C2F20100807EE6
:103E3000002808D0FFE740F69C50C2F20100817EC6
:103E40000139817619E040F60C50C2F201000021E0
:103E50000160C8203C214FF49672A023CDF80004E5
:103E6000FF911CF085F942F6D850C0F60500DDF848
:103E70000014FF9A1CF07EFBFFE7FFE7DC201E2109
:103E80004FF4A07232231CF073F9F02028211CF0AB
:103E9000F7FE0F21FE9008461DF0DEFD40F69C5116
:103EA000C2F20101897E6422514348F28102C8F2C4
:103EB0008002A1FB0212D209FD901046FC911CF079
:103EC0007BFA01201DF008FB97E046F6A040C2F205
:103ED00001000078002800F08F80FFE701201DF02E
:103EE00089FA40F60C50C2F2010000680028FB90ED
:103EF00004D0FFE7FB9801282AD02AE040F69C5026
:103F0000C2F20100807F00280AD1FFE742F6EC50A0
:103F1000C0F605004FF4AA713C221CF02BFBFFE712
:103F200040F69C50C2F20100807FFE2808DCFFE7CB
:103F300040F69C50C2F20100817F0131817706E09A
:103F400040F60C50C2F2010001210160FFE72AE0B7
:103F5000FFE740F69C50C2F20100807F002808D0A5
:103F6000FFE740F69C50C2F20100817F0139817762
:103F700018E040F60C50C2F20100002101604FF43D
:103F8000AA703C214FF4DC72A023FA90F9911CF046
:103F9000EFF842F6D850C0F60500FA99F99A1CF0ED
:103FA000E9FAFFE7FFE74FF4AA701E214FF4DC7235
:103FB00032231CF0DDF84FF4BE7028211CF060FEA7
:103FC0000F21F89008461DF047FD40F69C51C2F2C3
:103FD0000101897F6422514348F28102C8F28002C4
:103FE000A1FB0212D209F7901046F6911CF0E4F9F9
:103FF00001201DF071FAFFE7FFE7FFE7FFE7FFE7AA
:10400000FFE703F003B947F21650C2F2010000784F
:10401000002840F0FD80FFE747F21650C2F2010091
:1040200001780131017001201DF0E4F91CF091F8D4
:104030000520F5901DF008FDFF21F4900846F3914E
:104040001DF0A6FCDC2078214FF48872F29008461F
:10405000F29BF1911946DDF8C4C3F0926246F09BE1
:104060001CF0D4FBF020EF90F299EF9AF09B1CF03B
:10407000CDFB4FF4B470EE90F299EE9AF09B1CF0E9
:10408000C5FB42F60060C0F605004121D722ED9045
:10409000EC921CF06FFA42F61460C0F60500B921EC
:1040A000EC9A1CF067FA40F23111ED98EC9A1CF092
:1040B00061FA42F6C450C0F605004FF4C871BE2242
:1040C0001CF058FA4AF60830C0F603001DF06EFCEA
:1040D0004AF2FF51EB9008461DF05AFC02201DF0F9
:1040E000C5FC0C21EA9008461DF0B6FCFA21F59AB1
:1040F000E9901046E8911CF0C3FD43F27B61C0F6E5
:104100000501E79008461CF083F98720E8991CF028
:10411000B7FD43F23331C0F60501E69008461CF0C6
:1041200077F9F398E8991CF0ABFD43F2DA61C0F639
:104130000501E59008461CF06BF940F69C50C2F270
:104140000100807900280AD0FFE742F6EC50C0F663
:1041500005003C21E491E49A1CF00CFA09E042F6D7
:10416000D850C0F605003C21E391E39A1CF002FA16
:10417000FFE740F69C50C2F20100807A002809D087
:10418000FFE742F6EC50C0F60500C8213C221CF0C7
:10419000F1F908E042F6D850C0F60500C8213C22EB
:1041A0001CF0E8F9FFE740F69C50C2F20100807B6A
:1041B00000280AD0FFE742F6EC50C0F605004FF4A5
:1041C000AA713C221CF0D6F909E042F6D850C0F69C
:1041D00005004FF4AA713C221CF0CCF9FFE7012046
:1041E0001DF07AF947F21750C2F201000021017068
:1041F00047F21350C2F20100017047F21550C2F2AB
:104200000100017047F21450C2F201000170E0E0B9
:1042100047F21650C2F201000078012840F0AF804A
:10422000FFE746F69E40C2F20100007800280FD05A
:10423000FFE740F69C50C2F201008079002807D0C9
:10424000FFE740F69C50C2F201000021817117E0A7
:1042500046F69E40C2F20100007800280FD0FFE72A
:1042600040F69C50C2F201008079002807D1FFE798
:1042700040F69C50C2F2010001218171FFE7FFE787
:1042800046F69F40C2F20100007800280FD0FFE7F9
:1042900040F69C50C2F20100807A002807D0FFE768
:1042A00040F69C50C2F201000021817217E046F6F0
:1042B0009F40C2F20100007800280FD0FFE740F6CF
:1042C0009C50C2F20100807A002807D1FFE740F637
:1042D0009C50C2F2010001218172FFE7FFE746F620
:1042E000A040C2F20100007800280FD0FFE740F69E
:1042F0009C50C2F20100807B002807D0FFE740F607
:104300009C50C2F201000021817317E046F6A040E4
:10431000C2F20100007800280FD0FFE740F69C5061
:10432000C2F20100807B002807D1FFE740F69C50D5
:10433000C2F2010001218173FFE7FFE746F69E40CC
:10434000C2F201000078002810D1FFE746F69F4036
:10435000C2F201000078002808D1FFE746F6A0402D
:10436000C2F201000078002808D0FFE747F216509B
:10437000C2F20100017801310170FFE728E047F245
:104380001650C2F201000078022820D1FFE746F65D
:104390009E40C2F201000078002817D1FFE746F6E0
:1043A0009F40C2F20100007800280FD1FFE746F6D7
:1043B000A040C2F201000078002807D1FFE747F2D1
:1043C0001650C2F2010000210170FFE7FFE7FFE78E
:1043D000FFE702F01BBF47F21550C2F20100007860
:1043E000002840F0C480FFE747F21550C2F20100F8
:1043F00001780131017001201CF0FCFF1BF0A9FEC7
:1044000005201DF021FBFF21E29008461DF0C0FAB7
:10441000DC2078214FF48872E1900846E19BE0911E
:104420001946DDF880C3DF926246DF9B1CF0EEF98F
:10443000F020DE90E199DE9ADF9B1CF0E7F94FF463
:10444000B470DD90E199DD9ADF9B1CF0DFF940F656
:104450009C50C2F20100807C002809D0FFE742F6A0
:10446000EC50C0F60500C8213C221CF083F808E09F
:1044700042F6D850C0F60500C8213C221CF07AF85C
:10448000FFE742F60060C0F605004121D722DC902C
:10449000DB921CF06FF8B921DC98DB9A1CF06AF80B
:1044A00042F61460C0F6050040F23111DB9A1CF0B0
:1044B00061F842F6C450C0F605004FF4C871BE2240
:1044C0001CF058F84AF60830C0F603001DF06EFAEA
:1044D0004AF2FF51DA9008461DF05AFA02201DF008
:1044E000C5FA0C21D99008461DF0B6FA0521FA222A
:1044F000D89008461146D7921CF0C2FB43F27B616C
:10450000C0F60501D69008461BF082FF8720D79998
:104510001CF0B6FB43F23331C0F60501D5900846D6
:104520001BF076FFFF20D7991CF0AAFB43F2DA615B
:10453000C0F60501D49008461BF06AFF01201CF06C
:10454000CBFF47F21750C2F201000021017047F281
:104550001350C2F20100017047F21650C2F201007E
:10456000017047F21450C2F2010001705DE047F2A1
:104570001550C2F20100007801283CD1FFE746F651
:104580009F40C2F201000078002833D0FFE740F6D8
:104590009C50C2F20100807C00280ED1FFE740F65B
:1045A0009C50C2F201000121817408F001F940F62B
:1045B0002051C2F20101086014E040F69C50C2F2A2
:1045C0000100807C00280CD0FFE740F69C50C2F22E
:1045D00001000021817440F62050C2F20100016008
:1045E000FFE7FFE747F21550C2F201000178013101
:1045F0000170FFE718E047F21550C2F201000078A1
:10460000022810D1FFE746F69F40C2F20100007871
:10461000002807D1FFE747F21550C2F20100002140
:104620000170FFE7FFE7FFE7FFE702F0EFBD0120C2
:104630001CF0E0FE47F21750C2F20100007800289B
:1046400065D1FFE747F21750C2F20100017801314E
:1046500001700020D3901CF0CDFED3981DF07EF9A0
:10466000D399D29008461DF093F91BF072FD41F6E4
:104670009010C9F20500D399D39A1BF043FC4FF474
:10468000AF7150224FF4F0734FF0B40CD190084644
:1046900011461A466346CDF840C31BF069FD4FF43E
:1046A0009B704FF4D272CD23D0991BF061FDD3984B
:1046B0001CF012FF01201DF051F94FF07F41CF9007
:1046C00008461DF063F91BF044FDFEF7B5FAFDF74F
:1046D0009FFD46F69850C2F20100016841F4801136
:1046E000016047F21350C2F20100D399017047F202
:1046F0001650C2F20100017047F21550C2F20100DB
:10470000017047F21450C2F201000170C2E147F299
:104710001750C2F201000078012840F0BA81FFE78B
:1047200046F69540C2F20100007800281AD0FFE753
:1047300046F68D40C2F201000078002812D1FFE752
:1047400046F68D40C2F201000121017016F06CF9AD
:1047500047F6DC60C2F20100702113F03DFCFEF769
:104760006BFA17E046F69540C2F201000078002887
:104770000FD1FFE746F68D40C2F201000078002815
:1047800007D0FFE746F68D40C2F20100002101701C
:10479000FFE7FFE746F69440C2F2010000780028E8
:1047A0001AD0FFE746F68C40C2F2010000780028DC
:1047B00012D1FFE746F68C40C2F2010001210170E0
:1047C00016F026F947F6DC60C2F20100702113F002
:1047D00003FCFEF731FA17E046F69440C2F20100FE
:1047E000007800280FD1FFE746F68C40C2F20100A6
:1047F0000078002807D0FFE746F68C40C2F201009F
:1048000000210170FFE7FFE746F69850C2F2010071
:104810008078C006002840F19A80FFE746F698505D
:10482000C2F20100016821F4801101604FF4CD70E3
:10483000B9214FF4F072EB23CE921BF099FC4FF4A8
:104840009B70E621FF23CE9A1BF092FC47F6DC60BA
:10485000C2F201000078002805D0FFE74FF47F4046
:104860001DF096F803E0FF201DF092F8FFE74EF6EA
:10487000E800C0F603001DF099F84FF4CD71AA22AC
:10488000CD90084611461CF0FBF90C21CC9008464F
:104890001DF0E2F847F6DC61C2F201010978002957
:1048A00007D0FFE743F27E50C0F605001BF0B0FDD5
:1048B00006E043F2B740C0F605001BF0A9FDFFE794
:1048C0004FF49B70F2211CF0DBF948F2D831C0F6AE
:1048D0000301CB9008461DF069F80C21CA900846E8
:1048E000C9911DF0B9F86FF07F41C89008461DF0DE
:1048F0004FF840F29F10DC211CF0C2F949F27071B0
:10490000C0F60301C79008461DF050F8C999C6903B
:1049100008461DF0A1F847F6DC61C2F20101B1F9C9
:10492000021046F26762C6F2666251FB02F18A101B
:1049300002EBD1710322C590084611461BF050FDD1
:1049400043F21470C0F605001BF062FDFFE707F0AC
:104950002FFF47F2D061C2F201010968401AB0F599
:104960007A7FC0F09580FFE707F022FF47F2D06121
:10497000C2F20101086040F62850C2F2010001684D
:10498000013101600B2919D3FFE740F62850C2F22C
:1049900001000021016046F69850C2F201008078C3
:1049A0008007002809D4FFE746F69850C2F20100BC
:1049B000016841F480110160FFE7FFE746F6985077
:1049C000C2F2010040780006002860D5FFE747F2F8
:1049D0006810C2F2010047F2B861C2F2010101227F
:1049E000C490C391C2920BF08FFF47F2B461C2F240
:1049F0000101C49AC1901046C29A0BF045FF0DF513
:104A0000B7610222C0900846C39BBF911946BE926F
:104A10000CF066FF3A208DF8BA05BF980330C399B1
:104A20000131BE9A0CF05CFF00208DF8BD054CF6FC
:104A30003811C0F60301BD9008461CF0B7FF6FF0B7
:104A40007F41BC9008461CF0A3FFBE981DF00EF8F5
:104A50000C21BB9008461CF0FFFF0521F522BA90FF
:104A6000084611461CF00CF9C299B99008461CF092
:104A7000C1FCDC2164224FF48773BD981BF078FBE6
:104A8000BF981BF0C5FCC2981CF026FDFFE7FFE7AE
:104A9000FFE7FFE701201CF01FFD47F6D860C2F2D8
:104AA00001000068002839D0FFE7FEF765F807F03D
:104AB0007FFE47F6D861C2F201010968401AB0F5DD
:104AC000FA6F2AD9FFE747F6D860C2F20100002149
:104AD000016047F21750C2F20100017047F6DC6036
:104AE000C2F201000078002808D0FFE747F6DC603A
:104AF000C2F201000021C173017006E047F6DC60DC
:104B0000C2F2010002210170FFE747F6DC60C2F249
:104B10000100702113F060FAFFE7FFE702F076BBB7
:104B20000020B8901CF01AFFB7901BF012FB012078
:104B3000B6901CF013FF4FF07F41B59008461CF073
:104B400025FF1BF006FB0520FEF752F847F2247004
:104B5000C2F20100B699017040F61450C2F2010091
:104B6000B89A026040F62450C2F20100016047F298
:104B70001750C2F20100027047F21350C2F2010056
:104B8000027047F21650C2F20100027047F215504F
:104B9000C2F20100027047F21450C2F2010002702A
:104BA00047F21250C2F20100027040F61850C2F2F1
:104BB0000100027040F63050C2F20100027046F669
:104BC000A340C2F20100027046F6A140C2F2010009
:104BD000027047F2F820C2F20100027040F65B005A
:104BE000C2F20100017002F011BB47F6DC60C2F2B4
:104BF0000100007846F6BC61C2F201010968B49078
:104C0000084620F06DF9B499814214D0FFE746F6CA
:104C1000BC60C2F20100006820F062F947F6DC6176
:104C2000C2F20101087040F63050C2F20100017872
:104C3000013101703BE147F6DC60C2F20100807B8C
:104C400046F68061C2F201010968B390084620F07F
:104C500047F9B399814214D0FFE746F68060C2F26B
:104C60000100006820F03CF947F6DC61C2F2010166
:104C7000887340F63050C2F20100017801310170B2
:104C800014E147F6DC60C2F20100007B46F6C86121
:104C9000C2F201010968B290084620F065FEB2999F
:104CA000814214D0FFE746F6C860C2F201000068F6
:104CB00020F05AFE47F6DC61C2F20101087340F6AB
:104CC0003050C2F20100017801310170EDE047F689
:104CD000DC60C2F20100407B46F6CC61C2F2010109
:104CE0000968B190084620F03FFEB199814214D086
:104CF000FFE746F6CC60C2F20100006820F034FE07
:104D000047F6DC61C2F20101487340F63050C2F24E
:104D10000100017801310170C6E047F6DC60C2F2A3
:104D20000100007C46F68461C2F201010968B0907E
:104D3000084620F019FEB099814214D0FFE746F6EC
:104D40008460C2F20100006820F00EFE47F6DC61CC
:104D5000C2F20101087440F63050C2F2010001783D
:104D6000013101709FE047F6DC60C2F20100407C37
:104D700046F68C61C2F201010968AF90084620F046
:104D8000F3FDAF99814214D0FFE746F68C60C2F282
:104D90000100006820F0E8FD47F6DC61C2F2010185
:104DA000487440F63050C2F20100017801310170C0
:104DB00078E047F6DC60C2F20100807C46F688614C
:104DC000C2F201010968AE90084620F0CDFDAE990F
:104DD000814214D0FFE746F68860C2F20100006805
:104DE00020F0C2FD47F6DC61C2F20101887440F692
:104DF0003050C2F2010001780131017051E047F6F4
:104E0000DC60C2F20100807D46F6C061C2F20101A1
:104E10000968AD90084620F0A7FDAD99814213D0F6
:104E2000FFE746F6C060C2F20100006820F09CFD7A
:104E300047F6DC61C2F20101887540F63050C2F2DB
:104E40000100012101702BE047F6DC60C2F2010095
:104E5000C07D00F0010046F6C461C2F2010109689C
:104E6000AC90084619F0FCF8AC99814217D0FFE7E6
:104E700046F6C460C2F20100006819F0F1F800289B
:104E800018BF012047F6DC61C2F20101C87540F687
:104E90003050C2F201004FF001010170FFE7FFE75F
:104EA000FFE7FFE7FFE7FFE7FFE7FFE7FFE746F67C
:104EB000D850C2F20100006818F04EFF002823D03D
:104EC000FFE740F63050C2F20100007800280CD015
:104ED000FFE747F6DC60C2F201007021AB9013F0EF
:104EE0007BF80120AB994876FFE740F63050C2F2DC
:104EF00001000021017004F03FFC47F22470C2F26F
:104F000001000721017015E046F6D450C2F20100FD
:104F1000006818F021FF00280BD0FFE704F02CFCFC
:104F200002F05EFE47F22470C2F201000A21017015
:104F3000FFE7FFE702F06AB940F69C50C2F20100B9
:104F4000007946F6C051C2F201010968AA900846EC
:104F500020F00AFDAA99814221D0FFE746F6C05011
:104F6000C2F20100006820F0FFFC40F69C51C2F242
:104F7000010108710879002809D1FFE746F6AC5015
:104F8000C2F201000068002120F029FDFFE740F691
:104F90001850C2F20100017801310170FFE740F6BC
:104FA0009C50C2F20100007A46F6C451C2F20101DF
:104FB0000968A990084620F0D7FCA999814221D020
:104FC000FFE746F6C450C2F20100006820F0CCFCB6
:104FD00040F69C51C2F201010872087A002809D1FA
:104FE000FFE746F6B050C2F201000068002120F051
:104FF000F6FCFFE740F61850C2F2010001780131DB
:105000000170FFE740F69C50C2F20100007B46F6BB
:10501000C851C2F201010968A890084620F0A4FC1A
:10502000A899814221D0FFE746F6C850C2F201009C
:10503000006820F099FC40F69C51C2F2010108730F
:10504000087B002809D1FFE746F6B450C2F2010000
:105050000068002120F0C3FCFFE740F61850C2F2C0
:105060000100017801310170FFE740F69C50C2F267
:105070000100007C46F6D051C2F201010968A790F8
:10508000084620F071FCA799814221D0FFE746F63F
:10509000D050C2F20100006820F066FC40F69C513E
:1050A000C2F201010874087C002809D1FFE746F626
:1050B000BC50C2F201000068002120F090FCFFE724
:1050C00040F61850C2F20100017801310170FFE78B
:1050D00040F69C50C2F20100007D46F67061C2F2BB
:1050E00001010968A690084620F03EFCA69981427D
:1050F00014D0FFE746F67060C2F20100006820F0AD
:1051000033FC40F69C51C2F20101087540F618507C
:10511000C2F20100017801310170FFE740F69C50B6
:10512000C2F20100007E46F67461C2F20101096814
:10513000A590084620F018FCA599814214D0FFE7FD
:1051400046F67460C2F20100006820F00DFC40F6E3
:105150009C51C2F20101087640F61850C2F20100DB
:10516000017801310170FFE740F69C50C2F2010066
:10517000007F46F67861C2F201010968A4900846F2
:1051800020F0F2FBA499814214D0FFE746F6786044
:10519000C2F20100006820F0E7FB40F69C51C2F229
:1051A0000101087740F61850C2F201000178013180
:1051B0000170FFE740F6E050C2F20100007846F6C9
:1051C000B851C2F201010968A390084620F0CCFB57
:1051D000A399814214D0FFE746F6B850C2F201000D
:1051E000006820F0C1FB40F6E051C2F201010870F6
:1051F00040F61850C2F20100017801310170FFE75A
:1052000040F6E050C2F20100007946F6AC51C2F21D
:1052100001010968A290084620F0A6FBA2998142EC
:1052200014D0FFE746F6AC50C2F20100006820F04F
:105230009BFB40F6E051C2F20101087140F61850A4
:10524000C2F20100017801310170FFE740F6E05041
:10525000C2F20100007A46F6B051C2F201010968BB
:10526000A190084620F080FBA199814214D0FFE76D
:1052700046F6B050C2F20100006820F075FB40F61F
:10528000E051C2F20101087240F61850C2F201006A
:10529000017801310170FFE740F6E050C2F20100F1
:1052A000007B46F6B451C2F201010968A09008469D
:1052B00020F05AFBA099814214D0FFE746F6B45083
:1052C000C2F20100006820F04FFB40F6E051C2F24C
:1052D0000101087340F61850C2F201000178013153
:1052E0000170FFE740F6E050C2F20100007C46F694
:1052F000BC51C2F2010109689F90084620F034FBBE
:105300009F99814214D0FFE746F6BC50C2F20100DB
:10531000006820F029FB40F6E051C2F20101087458
:1053200040F61850C2F20100017801310170FFE728
:1053300046F6D850C2F20100006818F00DFD0028B2
:1053400000F08080FFE740F63050C2F201000078A4
:1053500000280ED0FFE740F63050C2F201000021D5
:10536000017047F6DC60C2F20100702112F034FED9
:10537000FFE740F61850C2F201000078002815D06F
:10538000FFE740F61850C2F201000021017040F61C
:105390009C50C2F20100302112F036FD40F6E05080
:1053A000C2F20100502112F02FFDFFE747F2115029
:1053B000C2F2010000788DF8B00547F27000C2F229
:1053C000010000788DF8B10547F22C70C2F201009F
:1053D00000788DF8B20547F22770C2F2010000781C
:1053E0008DF8B30547F22670C2F2010000788DF8FF
:1053F000B40547F22570C2F2010000788DF8B505BA
:1054000046F69850C2F2010080784007002804D583
:10541000FFE701208DF8B60503E000208DF8B60502
:10542000FFE70DF5B6600A2107229E9205F05CF8B1
:105430009D9004F0F1F947F22470C2F201009E99A8
:10544000017015E046F6D450C2F20100006818F071
:1054500083FC00280BD0FFE704F0DEF902F0C0FB6C
:1054600047F22470C2F201000A210170FFE7FFE752
:1054700001F0CCBE47F2B860C2F20100007846F6F7
:105480009C61C2F2010109689C90084620F06CFA08
:10549000C0B204F03DFC9C9981421FD0FFE746F664
:1054A0009C60C2F20100006820F05EFAC0B204F015
:1054B0002FFC47F2B861C2F20101087047F2681090
:1054C000C2F2010001220BF0C3FB46F69851C2F272
:1054D00001010A6842F400420A60FFE747F2B8603F
:1054E000C2F20100407846F6A061C2F201010968EB
:1054F0009B90084620F038FAC0B204F009FC9B9952
:1055000081421FD0FFE746F6A060C2F201000068AA
:1055100020F02AFAC0B204F0FBFB47F2B861C2F2F5
:105520000101487047F26810C2F2010001220BF03D
:105530008FFB46F69851C2F201010A6842F400421C
:105540000A60FFE747F2B460C2F20100807846F6D5
:105550009061C2F2010109689A90084620F004FAAD
:10556000C0B204F0D5FB9A9981421FD0FFE746F6FE
:105570009060C2F20100006820F0F6F9C0B204F0B9
:10558000C7FB47F2B461C2F20101887047F26810AC
:10559000C2F2010001220BF093FA46F69851C2F2D2
:1055A00001010A6842F400420A60FFE747F2B46072
:1055B000C2F20100407846F6A461C2F20101096816
:1055C0009990084620F0D0F9C0B204F0A1FB999957
:1055D00081421FD0FFE746F6A460C2F201000068D6
:1055E00020F0C2F9C0B204F093FB47F2B461C2F2FA
:1055F0000101487047F26810C2F2010001220BF06D
:105600005FFA46F69851C2F201010A6842F400427C
:105610000A60FFE747F2B460C2F20100C07846F6C4
:10562000B861C2F2010109689890084620F09CF91F
:10563000A0F5FA60C0B204F06BFB9899814221D0CA
:10564000FFE746F6B860C2F20100006820F08CF96E
:10565000A0F5FA60C0B204F05BFB47F2B461C2F29D
:105660000101C87047F26810C2F2010001220BF07C
:1056700027FA46F69851C2F201010A6842F4004244
:105680000A60FFE747F2B460C2F20100007846F614
:105690007C61C2F2010109689790084619F033F85D
:1056A0000130C0B204F034FB9799814220D0FFE76B
:1056B00046F67C60C2F20100006819F024F801305F
:1056C000C0B204F025FB47F2B461C2F201010870D8
:1056D00047F26810C2F2010001220BF0F1F946F620
:1056E0009851C2F201010A6842F400420A60FFE7E1
:1056F00047F22570C2F20100007846F6A861C2F2B6
:10570000010109689690084620F02EF99699814289
:105710001ED0FFE746F6A860C2F20100006820F044
:1057200023F947F22571C2F201010870087840F2AE
:10573000A871C2F2010151F820001CF029F94FF4C0
:10574000AA7033214FF4D7723B231BF071F9FFE7A6
:1057500046F6EC50C2F20100006818F073FC012814
:1057600009D1FFE746F69850C2F20100016841F402
:105770008021016008E046F69850C2F201000168FD
:1057800021F480210160FFE746F69460C2F2010037
:10579000006820F0E9F847F27001C2F201010870D8
:1057A00046F69860C2F20100006820F0DDF847F28A
:1057B0001151C2F20101087046F6B460C2F2010054
:1057C000006820F0D1F847F22C71C2F20101087094
:1057D00046F6B060C2F20100006820F0C5F847F25A
:1057E0002771C2F20101087046F6AC60C2F20100F6
:1057F000006820F0B9F847F22671C2F20101087082
:1058000046F6A860C2F20100006820F0ADF847F249
:105810002571C2F20101087046F6D850C2F20100AB
:10582000006818F099FA002800F08C80FFE740F635
:105830003050C2F20100007800280ED0FFE740F699
:105840003050C2F201000021017047F6DC60C2F264
:105850000100702112F0C0FBFFE740F61850C2F2C1
:1058600001000078002815D0FFE740F61850C2F27A
:1058700001000021017040F69C50C2F2010030216D
:1058800012F0C2FA40F6E050C2F20100502112F0CC
:10589000BBFAFFE747F21150C2F2010000788DF821
:1058A000B00547F27000C2F2010000788DF8B10532
:1058B00047F22C70C2F2010000788DF8B20547F271
:1058C0002770C2F2010000788DF8B30547F2267008
:1058D000C2F2010000788DF8B40547F22570C2F2DB
:1058E000010000788DF8B50546F69850C2F2010027
:1058F00080784007002804D5FFE701208DF8B60521
:1059000003E000208DF8B605FFE70DF5B6600A212B
:105910000722959204F0E8FD47F6D761C2F2010133
:10592000202201239490084611461A4604F0DCFD1B
:10593000939003F0DDFF47F22470C2F201009599C5
:10594000017015E046F6D450C2F20100006818F06C
:1059500003FA00280BD0FFE703F0CAFF02F048FD6E
:1059600047F22470C2F201000D210170FFE7FFE74A
:1059700001F04CBC47F21250C2F20100007800283E
:1059800010D1FFE747F21250C2F201000178013155
:1059900001701AF0DEFB46F69C40C2F201003C2189
:1059A00001709BE047F21250C2F20100007801281A
:1059B00040F09380FFE706F0FBFE46F69841C2F206
:1059C00001010968401AB0F57A7FC0F08580FFE7D1
:1059D00006F0EEFE46F69841C2F201010860FDF7BE
:1059E000CBF801201BF006FD002032214FF4F072AD
:1059F000C8231AF0BDFB46F69C40C2F201000078B5
:105A0000062805DBFFE74FF47F401BF0C1FF06E0EF
:105A1000FF201BF0BDFF012006F03AFBFFE74CF62C
:105A20003810C0F603001BF0C1FF02219290084617
:105A300091911CF01BF80E21909008468F911CF05C
:105A40000BF8F02150228E9008468D9111461BF0E4
:105A500017F90D218C90084617F0D6F947F2AA20C5
:105A6000C2F201001AF0D4FC41F26030C0F604002A
:105A70001BF09CFF91998B9008461BF0F7FF8F99C4
:105A80008A9008461BF0E8FF9C218D9A8990104669
:105A90001BF0F6F846F69C41C2F201010A788890A4
:105AA000104687911AF088FC01201BF015FD87989D
:105AB0000178002908D0FFE746F69C40C2F20100B9
:105AC00001780139017006E047F22470C2F201004A
:105AD00007210170FFE7FFE7FFE7FFE701F096BB53
