:020000040800F2
:10000000D87C0320DD01000891320108911101081C
:100010008932010809150008C19401080000000098
:10002000000000000000000000000000EF010008D8
:10003000E11F000800000000F3010008816C0108C6
:10004000F7010008F7010008F7010008F7010008B0
:10005000F7010008F7010008F7010008F7010008A0
:10006000F7010008F7010008F7010008F701000890
:10007000F7010008F7010008F7010008F701000880
:10008000F7010008F7010008F7010008F701000870
:10009000F7010008F7010008F7010008F701000860
:1000A000F7010008F7010008F7010008F701000850
:1000B000F7010008F7010008F7010008F701000840
:1000C000F7010008F7010008F7010008F701000830
:1000D000F7010008A1940108B1940108F701000894
:1000E000F7010008F7010008F7010008F701000810
:1000F000F7010008F7010008F7010008F701000800
:10010000F7010008F7010008F7010008F7010008EF
:10011000F7010008F7010008F7010008F7010008DF
:10012000F7010008F7010008F7010008F7010008CF
:10013000F7010008F7010008F7010008F7010008BF
:10014000F7010008F7010008F7010008F7010008AF
:10015000F7010008F7010008F7010008F70100089F
:10016000F7010008F7010008F7010008F70100088F
:10017000F7010008F7010008F7010008000000007F
:10018000F7010008F7010008F7010008F70100086F
:10019000F7010008F7010008F7010008F70100085F
:1001A000D11F0108F7010008C11F0008F70100086E
:1001B00051530108F7010008F7010008F701000892
:1001C000F7010008F7010008DFF80CD000F0B0FBE1
:1001D00000480047A1B70108D87C032006488047A3
:1001E00006480047FEE7FEE7FEE7FEE7FEE7FEE71C
:1001F000FEE7FEE7FEE7FEE7116E0108C901000811
:1002000010B5441A0346944209D28318114403E0FE
:1002100011F8014D03F8014D521EF9D210BD40EA0C
:100220000104A40703D009E010C9121F10C3042A57
:10023000FAD203E011F8014B03F8014B521EF9D238
:1002400010BDD2B201E000F8012B491EFBD270476D
:100250000022F6E710B513460A4604461946FFF792
:10026000F0FF204610BD421C10F8011B0029FBD1F5
:10027000801A704730B504460020034600E05B1C3E
:10028000934203D2E05CCD5C401BF8D030BD034606
:1002900011F8012B00F8012B002AF9D118467047FC
:1002A0002DE9FE4F804681EA0300C00F0C46009006
:1002B00021F0004123F00045B8EB0200A94105D22E
:1002C0004046214690461C460B46024623F000401D
:1002D000104347D0270DC7F30A00C3F30A51029019
:1002E000401A019040286BDAC3F3130040F4801BDE
:1002F0000098924620B10023D2EB030A63EB0B0B6C
:1003000001985946C0F14002504600F004FA0646F2
:100310000D4650465946019A00F01CFA10EB0800B1
:100320006141002487EA115284EAE7731A4340D0FE
:10033000009A62B3019A012A4FEA075215DC001BAA
:1003400061EB02014FF0004202EA0752CDE90042A0
:10035000001C41F5801132462B4600F053FA03B0E1
:10036000BDE8F08F40462146F9E7001B61EB020132
:10037000001C41F5801300185B412018A2F50017FE
:1003800047EB030140EAD570B6196D4111E06D08E5
:100390004FEA360645EAC0754FEA0752001B61EB8B
:1003A0000201001C41F5801149084FEA3000001994
:1003B000514132462B4603B0BDE8F04F00F013BA6E
:1003C0000098012240000023D0EB020263EBE073AF
:1003D000009821464FEAE074B8EB000061EB04019D
:1003E000E9E783F000435BE781F0004158E72DE93E
:1003F000FE4F81EA030404F0004421F00041009420
:100400004FF0000B23F0004350EA01045ED052EAA3
:1004100003045BD0C3F30A54C1F30A552C44A4F27D
:10042000F3340194A0FB0254C1F3130141F4801191
:10043000C3F3130343F4801301FB024400FB034E98
:10044000840A970A44EA815447EA8357A4FB076861
:1004500002958D0A05FB07854FEA932C04FB0C548B
:100460002705029D4FEA065847EA1637B5EB0805FF
:100470006EEB070C870E920E47EA811742EA831251
:10048000A7FB0201B6EB0B0164EB00042B0D43EA62
:100490000C335E1844EB1C50DA465146E7FB020170
:1004A000C5F313044FEA0B3343EA14534FEA043203
:1004B000019C43EA0603A4F10C040294009CCDE9DC
:1004C00000B400F09FF903B0BDE8F08F00200146B2
:1004D000F9E72DE9F04D81EA030404F0004B21F027
:1004E000004514464FF0000A23F0004150EA05028F
:1004F00020D054EA01021DD0C5F30A570246C5F3C5
:100500001303C1F31300C1F30A5640F4801543F4FA
:100510008013A7EB0608101BD64608F2FD3873EBD4
:10052000050002D308F1010801E092185B41B8F11F
:10053000000F03DA00200146BDE8F08D00204FF4E3
:100540008011064684460EE0171B73EB050705D3A2
:10055000121B63EB050306434CEA010C49084FEA02
:10056000300092185B4150EA0107EDD152EA0300D6
:1005700012D082EA040083EA0501084305D0101B6B
:10058000AB4106D20122002306E000224FF00043D7
:1005900002E06FF0010253101AEB06004CEB085119
:1005A00010EB0A0041EB0B01BDE8F04D00F01BB968
:1005B0000EB5C10F80EAE0700844CA07002140F27E
:1005C00033438DE80E000A460B4600F01BF903B0DA
:1005D00000BD0EB540F2334102910021CDE900117A
:1005E0000A460B4600F00EF903B000BD70B5C1F32A
:1005F0000A5201F000450024C1F3130140F2FF3319
:1006000041F480119A4201DA002070BD40F2334378
:100610009A42A2F2334203DC524200F08BF800E02F
:1006200090402C43F1D0404270BD00F0004230F0C9
:1006300000400AD0C10D01F56071C0F3160042EA16
:100640000151C2084007114370470020014670471E
:1006500001F0004330B421F0004150EA010206D01D
:100660000A0DA2F56072C1F31301002A02DC30BC4E
:1006700000207047440F44EAC104C100E01830BCB8
:1006800000EBC25000F078B830B50B4601460020B0
:100690002022012409E021FA02F59D4205D303FA44
:1006A00002F5491B04FA02F52844151EA2F10102C5
:1006B000F1DC30BD2DE9F05F0546002092469B46F7
:1006C00088460646814640241BE028464146474668
:1006D000224600F02FF853465A46C01A914110D3D3
:1006E00011461846224600F016F82D1A67EB01084D
:1006F0004F4622460120002100F00DF817EB0009BB
:100700004E41201EA4F10104DFDC484631462A4652
:100710004346BDE8F09F202A04DB203A00FA02F1AC
:10072000002070479140C2F1200320FA03F31943DF
:1007300090407047202A04DB203A21FA02F0002181
:10074000704721FA02F3D040C2F1200291400843E1
:1007500019467047202A06DBCB17203A41FA02F0EF
:1007600043EAE07306E041FA02F3D040C2F120020E
:1007700091400843194670470029A8BF7047401CA4
:10078000490008BF20F00100704710B4B0FA80FCA7
:1007900000FA0CF050EA010404BF10BC704749B1E4
:1007A000CCF1200421FA04F411FA0CF118BF012154
:1007B00021430843A3EB0C01CB1D4FEA00614FEA34
:1007C000102042BF002010BC704700EBC350104403
:1007D0000029A4BF10BC7047401C490008BF20F08E
:1007E000010010BC704710B5141E73F1000408DA44
:1007F000401C41F1000192185B411A4301D120F0E5
:10080000010010BD2DE9F04D92469B4611B1B1FAA1
:1008100081F202E0B0FA80F220329046FFF77BFFCF
:1008200004460F4640EA0A0041EA0B0153465A4685
:10083000084313D0114653EA010019D0C8F1400211
:100840005046FFF777FF05460E465046594642464A
:10085000FFF761FF084305D0012004E02046394638
:10086000BDE8F08D0020054346EAE0762C4337438F
:100870000A986305E40AA0EB08000022FD0A44EA96
:1008800047540A3002D500200146E9E70105101956
:100890006941DDE9084500196941BDE8F04DA2E76D
:1008A000C1F30A52C1F3130140F2FF3341F4801146
:1008B0009A4202DA00200146704740F233439A42DE
:1008C000A2F2334202DC5242FFF734BFFFF723BFEC
:1008D00030B5041E71F1000404DB4FF000444042C7
:1008E00064EB0101141E73F1000405DB1C464FF09C
:1008F0000043524263EB04038B4208BF824230BD87
:1009000030B5041E71F1000404DB4FF00044404296
:1009100064EB0101141E73F1000405DB1C464FF06B
:100920000043524263EB0403994208BF904230BD3A
:10093000064C074D06E0E06840F0010394E807002C
:1009400098471034AC42F6D3FFF742FC08A80408DD
:1009500038A8040870B58C1810F8015B15F007036F
:1009600001D110F8013B2A1106D110F8012B03E048
:1009700010F8016B01F8016B5B1EF9D12B0705D450
:100980000023521E0DD401F8013BFAE710F8013B99
:10099000CB1A921C03E013F8015B01F8015B521EB5
:1009A000F9D5A142D8D3002070BD0000000000009E
:1009B00080B58AB00BF080FC40F6C831C2F201016C
:1009C0000968401A0C28C0F0BD81FFE70BF074FCE9
:1009D00040F6C831C2F2010108600120079008907A
:1009E00040F6C430C2F201000078002803D1FFE7CE
:1009F0000B20069017E040F6C430C2F201000078E8
:100A0000012803D1FFE70C2006900BE040F6C4302C
:100A1000C2F201000078022803D1FFE70D20069002
:100A2000FFE7FFE7FFE746F67060C2F2010006A9A4
:100A300002900AF0BDF90299019008460AF010FCF4
:100A40000A21029A009010460AF07AFB40F6C4315F
:100A5000C2F201010978002940F03881FFE746F62B
:100A60007060C2F201000AF003FB40F6CC31C2F222
:100A700001010A6840F6D033C2F2010323F81200E4
:100A80000868013008600A2807D3FFE740F6CC3039
:100A9000C2F2010000210160FFE7002004900390F2
:100AA000FFE7039809280FD8FFE7039840F6D031F5
:100AB000C2F2010131F81000049908440490FFE7E4
:100AC000039801300390ECE704984CF6CD41CCF646
:100AD000CC41A0FB0101C90804910499642905D304
:100AE000FFE70498B0F57A6F18D9FFE740F6CC30ED
:100AF000C2F201000068002809D1FFE747F28D50DB
:100B0000C2F20100017801F0FE010170FFE747F633
:100B10008C40C2F2010000214180D6E040F6CC308A
:100B2000C2F201000068002809D1FFE747F28D50AA
:100B3000C2F20100017841F001010170FFE7BDF848
:100B4000100014F0F1FC40F6C030C2F2010080ED5C
:100B5000000A90ED000AB2EE041A20EE010ABDEE82
:100B6000C00A10EE100AADF8160047F68C40C2F22B
:100B70000100B0F9020046F26761C6F2666150FBFF
:100B800001F0821002EBD070BDF9162052FB01F18A
:100B90008A1002EBD171884200F08180FFE70BF0F0
:100BA0008BFB47F28851C2F201010968401A40F6F6
:100BB000B83188425DD8FFE70BF07EFB47F28451E5
:100BC000C2F201010968401AFA2851D3FFE70BF07D
:100BD00073FB47F28451C2F20101086047F2FC3016
:100BE000C2F20100B0F9000046F26761C6F2666128
:100BF00050FB01F0821002EBD070BDF9162052FBC1
:100C000001F18A1002EBD17188420ED0FFE7BDF8E6
:100C1000160047F2FC31C2F20101088047F28C5005
:100C2000C2F201000021017021E047F28C50C2F2B3
:100C3000010001780131017000780A2816D1FFE720
:100C400047F28C50C2F2010000210170BDF816007D
:100C500047F68C41C2F20101488046F6E840C2F2F4
:100C60000100016841F480110160FFE7FFE7FFE741
:100C700014E00BF021FB47F28851C2F20101086039
:100C80000BF01AFB47F28451C2F20101086047F2EF
:100C90008C50C2F2010000210170FFE714E00BF05C
:100CA0000BFB47F28851C2F2010108600BF004FB14
:100CB00047F28451C2F20101086047F28C50C2F23F
:100CC000010000210170FFE7FFE728E040F6C43093
:100CD000C2F201000078012808D1FFE746F67060F3
:100CE000C2F201000AF0C4F9049017E040F6C430E3
:100CF000C2F20100007802280FD1FFE746F67060CB
:100D0000C2F201000AF0B4F9FF21A1EB101047F282
:100D10003621C2F201010870FFE7FFE7FFE740F666
:100D2000C430C2F2010001780131CAB20170032A55
:100D300007D3FFE740F6C430C2F201000021017082
:100D4000FFE7FFE70AB080BD81B0009042F20430B7
:100D5000C4F20100016821F4403101600099496842
:100D600002681143016000980068416821F48071B5
:100D700041600098016800694A6842EA00204860C2
:100D800000980068416821F0407141600098016856
:100D900080684A681043486000980068816821F4C0
:100DA0000061816000980168C0688A6810438860AB
:100DB0000098806A0121C0F60071884219D0FFE7CF
:100DC00000980068816821F0706181600098016876
:100DD000806A8A681043886000980068816821F002
:100DE0004051816000980168C06A8A681043886039
:100DF0000CE000980068816821F0706181600098C3
:100E00000068816821F040518160FFE70098006828
:100E1000816821F0020181600098016880698A6818
:100E200042EA400088600098006A002819D0FFE775
:100E300000980068416841F40061416000980068D2
:100E4000416821F46041416000980168406A4EF2B7
:100E50000002CFF6FF7202EB40304A681043486050
:100E600006E000980068416821F400614160FFE7F6
:100E700000980068C16A21F47001C162009801689D
:100E8000C0690022CFF6F07202EB0050CA6A10432C
:100E9000C86200980068816821F400718160009840
:100EA0000168006B8A6842EA402088600098006808
:100EB000816821F4806181600098016840698A68D6
:100EC00042EA8020886001B0704700000000000006
:100ED00081B00090009847F26441C2F20101416084
:100EE00047F26A40C2F2010000780099088101B01F
:100EF000704700000000000080B58CB00B9000200F
:100F00000A9040F66C41C2F2010101220A601023EE
:100F10004B608A60C86047F2F44CC2F2010C4FF695
:100F2000FF7E099060460891079272460693CDF8BD
:100F300014C0CDF810E00FF057FC07990390084655
:100F40000AF042FE02200899086006984860079A55
:100F50008A60099BCB600598049A0FF045FC032139
:100F6000089A11600699516008239360099BD36029
:100F7000DDF814C0029060461146049A0FF034FC6C
:100F80004FF408710A910421089A11600699516082
:100F9000079B9360DDF828C0C2F80CC0DDF814C0D0
:100FA000019060461146049A0FF01EFC0B99059AB9
:100FB000009010460FF0F4FB0CB080BD0000000064
:100FC00080B59AB019901891FFE743F63800C4F243
:100FD0000200016841F001010160006800F00100B9
:100FE00012901298FFE7FFE743F63000C4F20200C8
:100FF000016841F480010160006800F480001190F4
:101000001198FFE7FFE743F63000C4F202000168E1
:1010100041F001010160006800F00100109010989B
:10102000FFE7FFE743F63000C4F20200016841F039
:1010300004010160006800F004000F900F98FFE7C2
:10104000FFE743F63000C4F20200016841F00801F6
:101050000160006800F008000E900E98FFE7FFE7BF
:1010600043F63000C4F20200016841F01001016053
:10107000006800F010000D900D98FFE7FFE743F6C1
:101080003000C4F20200016841F0200101600068F4
:1010900000F020000C900C98FFE7FFE743F63000CB
:1010A000C4F20200016841F040010160006800F0F4
:1010B00040000B900B98FFE74FF63F001390022083
:1010C000149000211591032216920C23179341F2DC
:1010D000004CC4F2020C0DF14C0E0A9060460991CE
:1010E000714608920793CDF818E00AF0C1FE8020FF
:1010F00013900A991491099A1592089B1693DDF89A
:101100001CC0CDF85CC040F2000EC4F2020E059087
:10111000704606990AF0ACFE302013900A9814909D
:1011200009991591089A1692079B179340F60000AB
:10113000C4F2020006990AF09BFE48F233101390A5
:101140000A98149009991591089A1692079B17937B
:1011500041F60000C4F2020006990AF089FE4FF63B
:10116000837013900A98149009991591089A169211
:10117000079B179341F20000C4F2020006990AF09F
:1011800077FE4CF2037013900A9814900999159108
:10119000089A1692079B179340F60040C4F202008B
:1011A00006990AF065FE40F6E430C2F201000999A2
:1011B0004160059A82604FF40073C3604FF480630E
:1011C00003614FF4805343614FF480438361C161F5
:1011D0004FF4003303624162089B8362C162016382
:1011E00046F2104CC4F2020CC0F800C0FFE7199898
:1011F00040F6E431C2F20101016319988863FFE708
:1012000040F6E430C2F2010004900AF0A5FB049914
:10121000039008460AF0F0FB38210F2200230290C9
:101220000846019111461A460CF05EFC01980CF03C
:101230004FFC1AB080BD000080B592B01190002024
:101240008DF8430047F6B840C2F20100006800691B
:1012500040F61851C2F2010109780390084603993B
:1012600088471199087011980078002800F038819B
:10127000FFE700200490FFE704981199097888425D
:1012800080F02D81FFE747F6B840C2F20100006808
:10129000406940F61851C2F201010978049A09AB7D
:1012A00003EB42030DF11A0C0CEB420202900846CC
:1012B0001946029B984747F6BC40C2F201000078ED
:1012C000012811D1FFE7049809A931F810100EAADE
:1012D00022F8101004980DF11A0131F810100DF1D8
:1012E0002E0222F81010FFE747F6BC40C2F20100C0
:1012F0000078800700280AD5FFE7049809A931F88B
:101300001010C1F580510EAA22F81010FFE747F621
:10131000BC40C2F201000078400700280CD5FFE76E
:1013200004980DF11A0131F81010C1F580510DF13A
:101330002E0222F81010FFE747F6BC40C2F201006F
:1013400000780007002811D5FFE7049809A931F8B3
:1013500010100DF12E0222F8101004980DF11A0150
:1013600031F810100EAA22F81010FFE704980EA909
:1013700031F8101040F64442C2F2010252F8200047
:1013800081420DD9FFE704980EA931F8101040F6FC
:101390004442C2F2010252F82000081A01900CE007
:1013A000049840F64441C2F2010151F820100EAAFF
:1013B00032F81000081A0190FFE70198ADF8180004
:1013C00004980DF12E0131F8101040F65842C2F287
:1013D000010252F8200081420ED9FFE704980DF176
:1013E0002E0131F8101040F65842C2F2010252F8B4
:1013F0002000081A00900DE0049840F65841C2F20F
:10140000010151F820100DF12E0232F81000081AD7
:101410000090FFE70098ADF81600BDF81800BDF881
:1014200016100844062816DBFFE704980EA931F8C9
:10143000101040F64442C2F2010242F82010049813
:101440000DF12E0131F8101040F65842C2F201029F
:1014500042F82010FFE740F61850C2F20100007871
:10146000702812D1FFE704980EA931F81010119AD4
:1014700002EB4000418004980DF12E0131F810106C
:10148000119A02EB4000818124E047F6BE40C2F28F
:1014900001000088049940F64442C2F2010252F869
:1014A00021205043000B119A02EB4101488047F67E
:1014B000C040C2F201000088049940F65842C2F2CE
:1014C000010252F821205043000B119A02EB410116
:1014D0008881FFE7FFE7049801300490CCE6FFE73E
:1014E0009DF8430012B080BD81B001468DF8030025
:1014F0009DF80300020902EB820200F00F0000EBEE
:101500004200C0B201B0704780B514F0E9FE80BD62
:1015100086B04EF69450CEF20000016821F005012D
:1015200001604EF69851CEF2000100220A604EF69C
:101530009C51CEF200011023C2F201030B604EF663
:10154000A051CEF200013D23C0F202330B60052111
:101550000160BFF34F8FBFF36F8F4EF65070CEF226
:1015600000000260BFF34F8FBFF36F8F4EF6145031
:10157000CEF20000016841F480210160BFF34F8F7B
:1015800000688003002801D5FFE71AE0BFF34F8F02
:10159000BFF36F8F4EF65070CEF200000021016055
:1015A000BFF34F8FBFF36F8F4EF61450CEF2000093
:1015B000016841F400310160BFF34F8FBFF36F8FBB
:1015C000FFE74EF68450CEF2000000210160BFF329
:1015D0004F8F4EF68050CEF20000006805900598BF
:1015E000C0F34E300490FFE70598C0F3C9000390A4
:1015F000FFE704980399890760F34D114EF6607078
:10160000CEF2000001600398411E03910028F0D142
:10161000FFE70498411E04910028E5D1FFE7BFF3DE
:101620004F8FBFF36F8F4EF61450CEF2000000685C
:10163000C003002801D5FFE73CE04EF68450CEF20F
:10164000000000210160BFF34F8F4EF68050CEF2B4
:101650000000006802900298C0F34E300190FFE74E
:101660000298C0F3C9000090FFE70198009989072C
:1016700060F34D114EF66070CEF2000001600098EC
:10168000411E00910028F0D1FFE70198411E019111
:101690000028E5D1FFE7BFF34F8F4EF61450CEF28E
:1016A0000000016841F480310160BFF34F8FBFF348
:1016B0006F8FFFE706B0704781B000900098017A05
:1016C000417201B07047000047F6C440C2F2010009
:1016D000007870470000000081B000900098C0883A
:1016E00001B070470000000081B000900098808831
:1016F00001B070470000000080B582B001900AF090
:10170000DBFD01990968401A800800217C2888BF08
:101710000121084602B080BD80B586B00A4605901A
:10172000ADF8121005980021016005980172059826
:1017300041720598817205980430BDF81210022399
:1017400003921A46029308F0BFFC05990631BDF8D2
:101750001220023292B2019008461146029A08F015
:10176000B3FC06B080BD000080B582B001468DF8A4
:1017700006009DF8060000EB400046F61042C2F25B
:10178000010202EB8000009100F0D6F9002804D09D
:10179000FFE700208DF8070016E09DF8060000EB3B
:1017A000400046F61041C2F2010101EB800000F05A
:1017B000CFF9002804D0FFE701208DF8070003E0EF
:1017C00002208DF80700FFE79DF8070002B080BDFA
:1017D00082B001468DF807009DF80700002200281E
:1017E000009208D4FFE79DF8070000210F28B8BF3A
:1017F00001210091FFE7009800F0010002B070475E
:1018000080B584B00A4603908DF80B1003980192BE
:1018100000F046F900281CD0FFE7039800F0A4F977
:10182000002804D0FFE7039800214172FFE79DF8EC
:101830000B00039908720AF03FFD039908600398B2
:101840000068002804D1FFE7039801210160FFE749
:10185000FFE704B080BD000080B584B00A46039065
:101860008DF80B100398019200F032F9002812D085
:10187000FFE70398007A9DF80B1088420BD1FFE731
:101880000398407A9DF80B10884204D1FFE7039833
:1018900000F0BEF805E003989DF80B10FFF7B0FFCD
:1018A000FFE704B080BD000080B584B00A4603465F
:1018B0008DF80F008DF80E109DF80F0000EB400022
:1018C00046F61041C2F2010101EB80009DF80E10B6
:1018D00002920193FFF7C0FF04B080BD000000003A
:1018E00081B0009000980121817201B07047000022
:1018F00081B0009000980021817201B07047000013
:1019000080B582B001900198002101720198417266
:10191000019801600198FFF7EBFF02B080BD000065
:1019200080B500F0BDFA46F60C41C2F20101087024
:1019300080BD00000000000080B582B001900AF078
:10194000BBFC0199086001980068002804D1FFE7FA
:10195000019801210160FFE702B080BD0000000096
:1019600080B586B00A460590ADF81210059804308F
:10197000BDF81210022303921A46029308F0ECFB02
:1019800005990631BDF81220023292B20190084644
:101990001146029A08F0E0FB06B080BD000000008E
:1019A00081B001468DF803009DF8030046F60C4215
:1019B000C2F20102107001B0704700000000000088
:1019C00081B001468DF803009DF8030047F6C4423C
:1019D000C2F20102107001B0704700000000000068
:1019E00082B00A460190ADF80210BDF802000199DC
:1019F000C88002B07047000082B00A460190ADF87E
:101A00000210BDF802000199888002B07047000002
:101A100081B0009000980021017201B07047000071
:101A200080B582B046F60C40C2F201000078019009
:101A300000F036FA0199081AB0FA80F0400902B0B5
:101A400080BD00000000000046F60C40C2F201001C
:101A5000007870470000000081B000900098017A83
:101A6000407A081A18BF012001B07047000000003A
:101A700080B582B001900AF01FFC01990968401AF4
:101A80000090FFF721FE4FF47A7148430021009A3D
:101A9000824228BF0121084602B080BD000000003C
:101AA00082B001900198808800210028009107D021
:101AB000FFE70198C088002818BF01200090FFE7C9
:101AC000009800F0010002B0704700000000000024
:101AD00080B582B001900198FFF7E2FF002807D09F
:101AE000FFE70198407A002818BF0120009002E02B
:101AF00000200090FFE70098002818BF012002B0E6
:101B000080BD00000000000081B000900098407A85
:101B10000138B0FA80F0400901B0704700000000C1
:101B200081B000900098007A0238B0FA80F0400945
:101B300001B070470000000081B000900098007A6A
:101B4000B0FA80F0400901B07047000000000000CA
:101B500081B000900098007A0138B0FA80F0400916
:101B600001B070470000000081B000900098807ABA
:101B7000002818BF012001B07047000000000000DD
:101B800080B582B046F6C440C2F201000021017067
:101B90008DF80710FFE79DF807000E281FDCFFE710
:101BA0009DF8070000EB400046F61041C2F201012B
:101BB00001EB8000FFF774FF002808D0FFE746F62E
:101BC000C440C2F2010001780131017000E006E07A
:101BD000FFE79DF8070001308DF80700DBE702B052
:101BE00080BD00000000000080B582B047F6C44010
:101BF000C2F201004FF4D871012208F065FA002109
:101C00008DF80710FFE79DF807000E2819DCFFE7A5
:101C10009DF8070000EB400146F61042C2F20102B7
:101C200002EB8101932202EB8000009008460099AC
:101C3000FFF772FDFFE79DF8070001308DF8070000
:101C4000E1E7FFF79DFF02B080BD0000000000004B
:101C500080B582B001468DF8070046F6C540C2F255
:101C6000010001220270009100F022F9002832D018
:101C7000FFE700208DF80600FFE79DF806000E281C
:101C800028DCFFE79DF8060000EB400046F6104117
:101C9000C2F2010101EB8000FFF702FF002812D021
:101CA000FFE79DF807000121012808BF02219DF8E8
:101CB000060000EB400046F61042C2F2010202EBC1
:101CC00080004172FFE7FFE79DF8060001308DF8C4
:101CD0000600D2E7FFE700208DF80500FFE79DF83A
:101CE00005000E2815DCFFE79DF8050000EB40001D
:101CF00046F61041C2F2010101EB80009DF8071089
:101D0000FFF77EFDFFE79DF8050001308DF8050027
:101D1000E5E702B080BD000080B582B001468DF8D5
:101D2000070001208DF806009DF80700002853D019
:101D3000FFE700208DF80500FFE79DF805000E285D
:101D400049DCFFE79DF8050000EB400046F6104136
:101D5000C2F2010101EB8000FFF7A2FE002833D0A0
:101D6000FFE79DF8050000EB400046F61041C2F287
:101D7000010101EB8000FFF7ABFE002820D0FFE758
:101D80009DF8050000EB400046F61041C2F201014B
:101D900001EB8000007A9DF80710884210D1FFE720
:101DA0009DF8050000EB400046F61041C2F201012B
:101DB00001EB8000407A9DF80710884204D0FFE7CD
:101DC00000208DF80600FFE7FFE79DF805000130D1
:101DD0008DF80500B1E7FFE79DF80600002803D065
:101DE000FFE700F03DF804E09DF80700FFF730FF43
:101DF000FFE702B080BD000080B582B047F6C44066
:101E0000C2F201004FF4D871012208F0A5F90021B7
:101E10008DF80710FFE79DF807000E2819DCFFE793
:101E20009DF8070000EB400146F61042C2F20102A5
:101E300002EB8101932202EB80000090084600999A
:101E4000FFF78EFDFFE79DF8070001308DF80700D2
:101E5000E1E7FFF795FE02B080BD00000000000042
:101E600080B582B000208DF80700FFE79DF80700DD
:101E70000E2813DCFFE79DF8070000EB400046F654
:101E80001041C2F2010101EB8000FFF7C1FDFFE745
:101E90009DF8070001308DF80700E7E702B080BD2C
:101EA00046F6C440C2F2010000787047000000000E
:101EB00080B582B000208DF80600FFE79DF806008F
:101EC0000E281ADCFFE79DF8060000EB400046F6FE
:101ED0001041C2F2010101EB8000FFF7F9FD00287B
:101EE00004D0FFE701208DF807000AE0FFE79DF826
:101EF000060001308DF80600E0E700208DF80700AD
:101F0000FFE79DF8070002B080BD00000000000060
:101F100080B582B000208DF806008DF80500FFE73F
:101F20009DF805000E283CDCFFE79DF8050000EB5E
:101F3000400046F61041C2F2010101EB8000FFF7BC
:101F4000AFFD002813D0FFE79DF8050000EB40002F
:101F500046F61041C2F2010101EB8000FFF7E0FDFF
:101F6000002804D1FFE700208DF8070021E09DF84C
:101F7000050000EB400046F61041C2F2010101EB02
:101F80008000FFF78DFD002804D0FFE701208DF8C9
:101F90000600FFE7FFE79DF8050001308DF805001A
:101FA000BEE79DF80600002818BF01208DF8070045
:101FB000FFE79DF8070002B080BD000000000000B0
:101FC00080B546F6DC60C2F2010009F011FB4BF26D
:101FD0000800C4F202000221016080BD0000000080
:101FE000704700000000000080B546F66870C2F23D
:101FF00001000FF0D1FB80BD7047C06B1BF0F3BD3B
:102000000000000000000000211814310000010849
:1020100080B582B000208DF806008DF80500FFE73E
:102020009DF805000E283CDCFFE79DF8050000EB5D
:10203000400046F61041C2F2010101EB8000FFF7BB
:102040002FFD002813D0FFE79DF8050000EB4000AE
:1020500046F61041C2F2010101EB8000FFF778FD66
:10206000002804D1FFE700208DF8070021E09DF84B
:10207000050000EB400046F61041C2F2010101EB01
:102080008000FFF70DFD002804D0FFE701208DF848
:102090000600FFE7FFE79DF8050001308DF8050019
:1020A000BEE79DF80600002818BF01208DF8070044
:1020B000FFE79DF8070002B080BD000000000000AF
:1020C00080B5A6B046F6E840C2F2010040780006AE
:1020D000002802D4FFE700F041BC47F2AC00C2F296
:1020E000010047F27C41C2F2010101221D901C92C5
:1020F0000EF066F847F27841C2F201011D9A1B907A
:1021000010461C9A0EF01CF847F2EB41C2F2010196
:10211000097847F2EA42C2F20102127891424BDB9F
:10212000FFE747F27C40C2F201000078FFF7DCF9DC
:1021300047F2EB41C2F201010978884209DBFFE76F
:1021400046F6E840C2F20100016841F40011016066
:1021500031E047F27C40C2F201000078FFF7C4F999
:1021600047F2EA41C2F201010978884209DAFFE741
:1021700046F6E840C2F20100016841F40011016036
:1021800018E046F6E840C2F2010080788006002898
:102190000FD5FFE746F6E840C2F20100016821F4DE
:1021A0000011016047F2E840C2F20100072101700E
:1021B000FFE7FFE7FFE753E047F2EB40C2F2010021
:1021C000007847F2EA41C2F201010978884246DA12
:1021D000FFE747F27C40C2F20100007847F2EA4193
:1021E000C2F20101097800228842B8BF01221046DC
:1021F000FFF77AF9002818D0FFE747F27C40C2F2D7
:1022000001000078FFF770F947F2EB41C2F20101DB
:102210000978884209DBFFE746F6E840C2F2010090
:10222000016841F40011016018E046F6E840C2F28E
:1022300001008078800600280FD5FFE746F6E840C9
:10224000C2F20100016821F40011016047F2E84088
:10225000C2F2010007210170FFE7FFE7FFE7FFE798
:1022600046F6E840C2F2010080788007002840F17D
:10227000DE82FFE746F6E840C2F201008078800681
:10228000002840F1D482FFE746F6E840C2F20100A0
:1022900080784007002840F1CA82FFE746F6E84010
:1022A000C2F201008078400600280DD5FFE740F615
:1022B0007C40C2F20100007847F27841C2F201018D
:1022C0000978884241D0FFE746F6E840C2F20100B3
:1022D000016841F48001016000201A901CF09EFF0B
:1022E0001A981DF03DFA19901BF059FE1A981DF02E
:1022F00007F8012018901CF091FF18981DF030FA93
:102300004FF07F41179008461DF042FA1BF047FE40
:1023100040F2DE70C2F201003C21017047F27840C9
:10232000C2F20100007840F67C41C2F2010108705F
:1023300009201DF08BFA4FF47F41169008461DF0DE
:1023400029FA18981CF0DCFFFFE747F27C40C2F244
:1023500001001EA902221590084615990EF01CFFD7
:1023600015988178C907002904D0FFE73A208DF835
:102370007A0003E020208DF87A00FFE71EA8C11C38
:1023800047F27C42C2F20102013202231490084655
:1023900011461A460EF000FFF02088211CF084FB45
:1023A00047F2E941C2F20101097840F24072C2F2FB
:1023B000010252F82110139008461DF0EBF940F687
:1023C0009830C0F604001DF0F3F90E211290084673
:1023D0001DF044FA0121119008461CF01FFF002057
:1023E00050214FF4F072C02310901BF0E7FDDC2168
:1023F00064224FF4877310981BF0E0FD14981BF0D3
:102400002DFF47F27840C2F201000078002807D182
:10241000FFE747F27840C2F2010007210170FFE7B1
:1024200047F27840C2F20100007801280FD1FFE79F
:1024300042F22000ADF8800046F26E40C7F661100F
:102440001F9042F22000C6F64D701E908FE047F2BA
:102450007840C2F20100007802280FD1FFE742F273
:102460007900ADF8800047F27340C6F264101F9007
:1024700045F22040C6F275501E9077E047F2784052
:10248000C2F20100007803280FD1FFE742F2790081
:10249000ADF8800047F26530C6F264101F9046F236
:1024A0005750C6F664601E905FE047F27840C2F273
:1024B0000100007804280FD1FFE742F27900ADF85F
:1024C000800047F27340C6F264101F9046F6540035
:1024D000C7F275201E9047E047F27840C2F2010033
:1024E000007805280FD1FFE742F22000ADF8800008
:1024F00046F26940C7F661101F9042F22000C7F211
:1025000046201E902FE047F27840C2F2010000788A
:1025100006280FD1FFE742F27900ADF8800047F2BC
:102520007520C6F264101F9045F22030C7F261405A
:102530001E9017E047F27840C2F2010000780728A9
:102540000FD1FFE742F22000ADF8800046F26E4066
:10255000C7F661101F9042F22000C7F253501E9040
:10256000FFE7FFE7FFE7FFE7FFE7FFE7FFE71EA85B
:102570000A3047F27841C2F201018A1C02230F910E
:1025800011461A460EF008FE0F98417801290FD126
:10259000FFE742F27900ADF88C0047F26E50C7F2C7
:1025A0006120229042F22E00C6F24A10219007E1EB
:1025B00047F27840C2F20100407802280FD1FFE7CD
:1025C00047F67210ADF88C0047F26220C6F2751023
:1025D000229042F22E00C6F246502190EFE047F2E0
:1025E0007840C2F20100407803280FD1FFE742F2A1
:1025F0002000ADF88C0047F26120C6F663002290FF
:1026000042F22E00C4F620502190D7E047F27840E5
:10261000C2F20100407804280FD1FFE742F2200007
:10262000ADF88C0047F27020C6F66940229042F265
:102630002E00C4F220102190BFE047F27840C2F291
:102640000100407805280FD1FFE742F22000ADF8E5
:102650008C0046F24D10C2F27900229042F22E0018
:10266000C2F220002190A7E047F27840C2F20100B8
:10267000407806280FD1FFE742F22000ADF88C0029
:1026800047F24A50C6F26E50229042F22E00C2F239
:10269000200021908FE047F27840C2F2010040789C
:1026A00007280FD1FFE742F22000ADF88C0047F277
:1026B0004A50C7F66C10229042F22E00C2F220005F
:1026C000219077E047F27840C2F201004078082874
:1026D0000FD1FFE742F22000ADF88C0047F26750BF
:1026E000C7F27340229042F22E00C7F2415021906F
:1026F0005FE047F27840C2F20100407809280FD12C
:10270000FFE747F26520ADF88C0046F27450C6F240
:102710006D20229045F22E30C7F26500219047E0EF
:1027200047F27840C2F20100407810280FD1FFE74D
:1027300042F27200ADF88C0046F67470C6F2625038
:10274000229042F22E00C6F24F3021902FE047F245
:102750007840C2F20100407811280FD1FFE747F21C
:102760006520ADF88C0046F27650C6F26D202290BE
:1027700042F22E00C6F64E70219017E047F27840E4
:10278000C2F20100407812280FD1FFE747F265201E
:10279000ADF88C0046F26350C6F26D20229042F2F2
:1027A0002E00C6F244502190FFE7FFE7FFE7FFE766
:1027B000FFE7FFE7FFE7FFE7FFE7FFE7FFE7FFE7E9
:1027C00030208DF8900043F22020ADF88E001EA836
:1027D00000F1190147F27842C2F2010203320223EA
:1027E0000E90084611461A460EF0D6FC2E208DF8A3
:1027F000930000208DF8940047F67870C0F603002F
:102800001CF0D6FFF021CE220D90084611461CF098
:102810004BF90E210C9008461DF020F80E990B90F4
:1028200008461BF01BFD01201CF06AFD60E040F231
:10283000DE70C2F20100007847F27C41C2F2010171
:102840004978884253D0FFE747F27C40C2F201004A
:10285000014611F8012F40F2DE73C2F201031A7033
:102860001EAA02230A901046DDF828C0099161468D
:1028700008921A4607930EF08FFC3A208DF87A00E2
:10288000089803300999079A0EF086FC49F6A8507B
:10289000C0F603001CF08CFF6FF07F4106900846E5
:1028A0001CF078FF07981CF0E3FF0C210590084608
:1028B0001CF0D4FF01210490084603911CF0AEFCEB
:1028C0000520F5211CF0F0F80021DC2264234FF4F0
:1028D000877C0290084611461A4663461BF06EFB41
:1028E00008981BF0BBFC03981CF00AFDFFE7FFE70C
:1028F00040F67C40C2F20100007847F27841C2F213
:1029000001010978884229D0FFE747F27840C2F2F6
:102910000100017840F67C42C2F201021170827817
:1029200047F2AC01C2F20101022301900846009176
:1029300019460DF03DFB01984278032100980DF0F7
:1029400037FB01980278042100980DF031FB0198C3
:10295000C278052100980DF02BFBFFE726B080BD63
:1029600080B582B001468DF806009DF8060001286A
:1029700016D1FFE740F67D40C2F201000078002842
:102980000ED1FFE740F67D40C2F201000121017047
:1029900009F092FC40F68041C2F20101086039E082
:1029A0009DF8060001281FD1FFE740F67D40C2F2E6
:1029B00001000078012817D1FFE709F07DFC40F6FF
:1029C0008041C2F201010968401AB0F5586F0AD37C
:1029D000FFE740F67D40C2F20100002101700120B6
:1029E0008DF807001AE014E09DF8060000280FD1CA
:1029F000FFE740F67D40C2F201000078012807D1D0
:102A0000FFE740F67D40C2F2010000210170FFE7C0
:102A1000FFE7FFE700208DF80700FFE79DF80700BC
:102A200002B080BD0000000080B546F6E840C2F26A
:102A3000010080788007002810D5FFE746F6E840BF
:102A4000C2F2010080788006002807D5FFE747F230
:102A5000E840C2F2010007210170FFE746F6E840B6
:102A6000C2F20100016821F400310160016821F423
:102A70008001016009F020FC47F2EC41C2F2010143
:102A8000086047F2F040C2F201001E21017046F6D4
:102A9000B470C2F20100007800F002F880BD0000BE
:102AA00081B001468DF803009DF80300042804DC82
:102AB000FFE705208DF8030009E09DF80300512889
:102AC00004DBFFE750208DF80300FFE7FFE79DF8E8
:102AD000030000EB8000400047F2CC01C2F201018C
:102AE0000968486301B0704780B586B00120059041
:102AF0001CF094FBC32091214FF4A072EB231BF038
:102B00005DFA6FF07F401CF045FE4DF20820C0F6E4
:102B100003001CF04DFE0021049008461CF0A8FEA6
:102B20000599039008461CF099FEC8219622029050
:102B3000084611461BF0B8FF47F68C41C2F201016E
:102B4000897A02220190084611461BF047FB05983E
:102B50001CF0D6FB06B080BD80B588B01BF0ACFF82
:102B600043F20931C0F60101079008461CF066FCEB
:102B70000120069021F0AAFD05901CF0C1FF002065
:102B80001CF0EEFD04901BF00AFA06981CF0E8FD1C
:102B90004FF07F41039008461CF0FAFD1BF0FFF94F
:102BA00040F61C50C2F20100302113F079FA40F6D1
:102BB0005450C2F20100502113F072FA0FF034FEAB
:102BC00046F6F630C2F201004FF4E371069A07F0C0
:102BD0007BFA40F69051C2F2010140F2C712029016
:102BE00008461146069A07F06FFA01901BF0EAFDBD
:102BF00008B080BD0000000080B5ADF5B06D09F0F3
:102C00005BFB40F69041C2F201010968401A64285A
:102C10000AD3FFE709F050FB40F69041C2F20101F0
:102C200008601BF0CFFDFFE747F26C40C2F20100E5
:102C30000078C007002845D0FFE740F2FC60C2F2F0
:102C40000100007800283BD1FFE740F2FC60C2F2AF
:102C50000100012101700846CDF84C151CF0DEFA88
:102C60001BF09DF947F67870C0F603001CF0A0FD3C
:102C70004AF2FF51CDF8480508461CF08BFD0220B2
:102C80001CF0F6FD0E21CDF8440508461CF0E6FDCB
:102C9000F0218722CDF84005084611461BF004FFBD
:102CA0004AF27051C0F60401CDF83C0508461BF00D
:102CB000D5FADDF84C051CF023FBFFF7B5FEFFE766
:102CC00004F064BA40F2FC60C2F20100007801280E
:102CD0000CD1FFE740F2FC60C2F20100002101705C
:102CE00047F2EC40C2F2010001605BE040F2FC60A0
:102CF000C2F201000078022853D1FFE740F2FC60E5
:102D0000C2F20100002101700120CDF838051CF04D
:102D100085FA1BF044F909201CF098FDFF21CDF83D
:102D2000340508461CF036FDF02088213222CDF80B
:102D30003025DDF830351BF069FB4FF4C8704FF4D7
:102D4000E1711422CDF82C05CDF828151146DDF8D7
:102D50002835CDF824251A46DDF824351BF07CFCF7
:102D60002820DDF82C15CDF820050846DDF82015C3
:102D7000DDF82825DDF820351BF06EFC3C20DDF861
:102D80002C15CDF81C050846DDF81C15DDF82825A6
:102D9000DDF81C351BF060FCDDF838051CF0B0FADE
:102DA000FFE7FFE7FFE747F2E840C2F201000078E3
:102DB00001461428CDF8181503F29F87DDF8181581
:102DC000DFE811F02F1F15005602A70367084F0A0E
:102DD0007B0B110E760EE70FEA126A1530166A1693
:102DE0006017A91A9A1BDE1CAA1D6C1EDE1E40F677
:102DF0009440C2F2010000680028CDF814050CD000
:102E0000FFE7DDF81405012800F02381FFE7DDF876
:102E10001405022800F03981FCE147F26050C2F24B
:102E200001000121017000208DF86F05FFE79DF87A
:102E30006F0505283BDCFFE79DF86F0500EB4000C0
:102E400047F26431C2F2010101EBC0000FF0A4FCB3
:102E5000002825D0FFE79DF86F0500EB400047F202
:102E60006431C2F2010101EBC0000FF07DFC0028CB
:102E700016D1FFE79DF86F0500EB400047F2643183
:102E8000C2F2010101EBC0000FF062FC002807D084
:102E9000FFE747F26050C2F201000021017006E036
:102EA000FFE79DF86F0501308DF86F05BFE747F22A
:102EB0006050C2F20100007801460028CDF81015DC
:102EC00005D0FFE7DDF8100501285BD05BE040F698
:102ED0009440C2F20100012101600846CDF80C15B2
:102EE0001CF09CF91BF05BF809201CF0AFFC4FF4C0
:102EF0007F41CDF8080508461CF04CFCF0208821E5
:102F00003222CDF80425DDF804351BF07FFA4FF4AA
:102F1000C8704FF4E1711422CDF80005CDF8FC140F
:102F20001146DDF8FC34CDF8F8241A46DDF8F83403
:102F30001BF092FB2820DDF80015CDF8F4040846BC
:102F4000DDF8F414DDF8FC24DDF8F4341BF084FB28
:102F50003C20DDF80015CDF8F0040846DDF8F0144B
:102F6000DDF8FC24DDF8F0341BF076FBDDF80C0511
:102F70001CF0C6F909F0A0F940F69C41C2F201012B
:102F800008605AE0FFE740F69440C2F201000421D5
:102F900001600120CDF8EC041CF040F91AF0FFFFAD
:102FA00009201CF053FCFF21CDF8E80408461CF072
:102FB000F1FBF02088213222CDF8E424DDF8E4345E
:102FC0001BF024FA4FF4C8704FF4E1711422CDF8CD
:102FD000E004CDF8DC141146DDF8DC34CDF8D8245B
:102FE0001A46DDF8D8341BF037FB2820DDF8E01452
:102FF000CDF8D4040846DDF8D414DDF8DC24DDF87F
:10300000D4341BF029FB3C20DDF8E014CDF8D004CB
:103010000846DDF8D014DDF8DC24DDF8D0341BF0F0
:103020001BFBDDF8EC041CF06BF909F045F940F6E8
:103030009C41C2F201010860FFE740F69440C2F2F1
:1030400001000021016047F2E840C2F20100017076
:10305000E0E009F031F940F69C41C2F20101096853
:10306000401AB0F5FA7F0FD3FFE740F69440C2F262
:10307000010001680131016009F01EF940F6B44118
:10308000C2F201010860FFE7C4E009F015F940F65B
:10309000B441C2F201010968401A0F28C0F0B9809A
:1030A000FFE709F009F940F6B441C2F201010860F6
:1030B00040F6AC40C2F2010000680028CDF8CC0414
:1030C00005D0FFE7DDF8CC04012850D050E040F6F1
:1030D0001C50C2F20100807DFE2808DCFFE740F6AC
:1030E0001C50C2F20100817D01318175FFE740F67D
:1030F0001C50C2F20100807EFE2808DCFFE740F68B
:103100001C50C2F20100817E01318176FFE740F65A
:103110001C50C2F20100807FFE2808DCFFE740F669
:103120001C50C2F20100817F01318177FFE740F638
:103130001C50C2F20100807DFF2817D1FFE740F646
:103140001C50C2F20100807EFF280FD1FFE740F63D
:103150001C50C2F20100807FFF2807D1FFE740F634
:10316000AC40C2F2010001210160FFE750E0FFE73F
:1031700040F61C50C2F20100807D002808D0FFE715
:1031800040F61C50C2F20100817D01398175FFE7D4
:1031900040F61C50C2F20100807E002808D0FFE7F4
:1031A00040F61C50C2F20100817E01398176FFE7B2
:1031B00040F61C50C2F20100807F002808D0FFE7D3
:1031C00040F61C50C2F20100817F01398177FFE790
:1031D00040F61C50C2F20100807D002817D1FFE7A5
:1031E00040F61C50C2F20100807E00280FD1FFE79C
:1031F00040F61C50C2F20100807F002807D1FFE793
:1032000040F6AC40C2F2010000210160FFE7FFE799
:10321000FFE7FFE709F050F847F2EC41C2F2010185
:10322000086047F2FB30C2F201000021017047F252
:10323000F730C2F20100017047F2FA30C2F2010029
:10324000017047F2F930C2F20100017047F2F83024
:10325000C2F20100017040F2DE70C2F201003C22B5
:10326000027047F29440C2F20100016003F065BDB4
:1032700047F2F830C2F201000078002840F04781A0
:10328000FFE747F2F830C2F2010001780131017026
:103290000120CDF8C8041BF0C1FF0020CDF8C40404
:1032A0001CF05EFACDF8C0041AF079FEDDF8C8040F
:1032B0001CF056FA4FF07F41CDF8BC0408461CF0D4
:1032C00067FA1AF06CFE09201CF0C0FAFF21CDF855
:1032D000B80408461CF05EFA4FF4C8704FF4E17170
:1032E0001422CDF8B404CDF8B0141146DDF8B03492
:1032F000CDF8AC241A46DDF8AC341BF0ADF928202B
:10330000DDF8B414CDF8A8040846DDF8A814DDF8FB
:10331000B024DDF8A8341BF09FF93C20DDF8B4148C
:10332000CDF8A4040846DDF8A414DDF8B024DDF8D7
:10333000A4341BF091F90A204FF4BE714FF483734B
:10334000CDF8A0040846DDF8A024CDF89C14114661
:10335000DDF89C241BF080F91E204FF4AF72882109
:10336000CDF89814DDF898341BF076F9BE20FC23D4
:10337000CDF89404DDF8AC14DDF894241BF06CF95E
:1033800049F62460C0F6040040F281119F221BF030
:1033900017F849F69850C0F604003721CDF890147C
:1033A000DDF8A0241BF00CF849F6E850C0F6040044
:1033B000F5210F221BF004F849F6FC50C0F604007A
:1033C0009622DDF890141AF0FBFF49F64C60C0F627
:1033D0000400F021A0221AF0F3FF47F67870C0F63F
:1033E00003001CF0E5F94AF2FF51CDF88C040846C1
:1033F0001CF0D0F90220CDF888041CF039FA0E2117
:10340000CDF884040846CDF880141CF027FA5F211B
:103410006E22CDF87C040846CDF878141146CDF81C
:1034200074241BF041FBDDF8AC14CDF870040846A1
:1034300017F0A6FC47F2ED10C2F20100CDF86C04C3
:103440001AF00CFFDDF880041CF008FA40F21D11A0
:10345000CDF868040846DDF87424CDF864141146EC
:103460001BF022FBDDF88814CDF86004084617F045
:1034700087FCDDF86C041AF0F1FEDDF880041CF026
:10348000EDF9FA21DDF87824CDF85C041046CDF88A
:1034900058141BF009FB1521CDF85404084617F009
:1034A0006FFCDDF86C041AF0D9FEDDF880041CF026
:1034B000D5F9DDF86414CDF850040846DDF8581449
:1034C0001BF0F2FA3321CDF84C04084617F058FCF3
:1034D000DDF86C041AF0C2FEDDF8C8041BF010FF22
:1034E00047F2FB30C2F20100DDF8C414017047F26C
:1034F000F730C2F20100017047F2FA30C2F2010067
:10350000017047F2F930C2F201000170FFE703F0E9
:1035100014BC47F2F730C2F20100007801460328DC
:10352000CDF8481400F2B384DDF84814DFE811F058
:1035300004008901CE01B90247F2F730C2F201005E
:1035400001780131017001201BF068FE1AF027FD9F
:1035500005201CF07BF9FF21CDF8440408461CF03F
:1035600019F9DC2078214FF48872CDF84004084620
:10357000DDF84034CDF83C141946DDF83CC4CDF8F4
:1035800038246246DDF838341BF066F8F020CDF8B8
:103590003404DDF84014DDF83424DDF838341BF051
:1035A0005BF84FF4B470CDF83004DDF84014DDF86A
:1035B0003024DDF838341BF04FF849F6D450C0F60B
:1035C00004004121D722CDF82C241AF0F9FE49F647
:1035D000C050C0F60400B921CDF82804DDF82C2431
:1035E0001AF0EEFE40F23111DDF82804DDF82C244B
:1035F0001AF0E6FE49F68450C0F604004FF4C87194
:10360000BE221AF0DDFE40F61C50C2F20100807DA1
:1036100000280CD0FFE749F6AC50C0F604003C216E
:10362000CDF82414DDF824241AF0CAFE0BE049F684
:103630009850C0F604003C21CDF82014DDF8202479
:103640001AF0BEFEFFE740F61C50C2F20100807E79
:10365000002809D0FFE749F6AC50C0F60400C821A5
:103660003C221AF0ADFE08E049F69850C0F604007E
:10367000C8213C221AF0A4FEFFE740F61C50C2F21B
:103680000100807F00280AD0FFE749F6AC50C0F661
:1036900004004FF4AA713C221AF092FE09E049F6A8
:1036A0009850C0F604004FF4AA713C221AF088FE2C
:1036B000FFE747F67870C0F603001CF079F84AF28D
:1036C000FF51CDF81C0408461CF064F802201CF0E1
:1036D000CFF80C21CDF8180408461CF0BFF80521DE
:1036E000FA22CDF8140408461146CDF810241BF038
:1036F000DBF94AF26451C0F60401CDF80C04084627
:103700001AF0ACFD8720DDF810141BF0CDF94AF259
:10371000AA21C0F60401CDF8080408461AF09EFD5F
:10372000FF20DDF810141BF0BFF94AF29D51C0F6DE
:103730000401CDF8040408461AF090FD0F201CF097
:103740008DF864212822CDF80004084611461BF0AC
:10375000ABF940F61C51C2F20101897D002913D05A
:10376000FFE740F61C50C2F20100807D642148430F
:1037700048F28101C8F28001A0FB0101C909FF9054
:1037800008461AF03FFDFFE7F02028211BF08CF9D6
:1037900040F61C51C2F20101897E002913D0FFE7D7
:1037A00040F61C50C2F20100807E6421484348F27A
:1037B0008101C8F28001A0FB0101C909FE90084601
:1037C0001AF020FDFFE74FF4BE7028211BF06CF9C2
:1037D00040F61C51C2F20101897F002913D0FFE796
:1037E00040F61C50C2F20100807F6421484348F239
:1037F0008101C8F28001A0FB0101C909FD900846C2
:103800001AF000FDFFE701201BF07AFD47F2FB30C4
:10381000C2F201000021017047F2FA30C2F2010049
:10382000017047F2F930C2F20100017047F2F8303E
:10383000C2F20100017040F68440C2F20100017042
:1038400025E346F60640C2F201000078002810D1B8
:10385000FFE746F60740C2F201000078002808D1D1
:10386000FFE746F60840C2F20100007800282CD09D
:10387000FFE746F60640C2F20100007840F68441B8
:10388000C2F20101087046F60740C2F2010000785A
:1038900040F68541C2F20101087046F60840C2F2C6
:1038A0000100007840F68641C2F20101087047F23B
:1038B000F730C2F201000221017008F0FDFC40F671
:1038C0008841C2F201010860FFE7E0E208F0F4FC81
:1038D00040F68841C2F201010968401AB0F57A7FCA
:1038E0001FD3FFE708F0E8FC40F6B441C2F2010143
:1038F000086047F2F730C2F201000178013101702F
:1039000040F68440C2F201000021017040F685407B
:10391000C2F20100017040F68640C2F2010001705F
:10392000BEE046F60640C2F201000078002840F0F2
:10393000B680FFE746F60740C2F201000078002893
:1039400040F0AD80FFE746F60840C2F20100007883
:10395000002840F0A480FFE740F68440C2F2010056
:10396000007800280FD0FFE740F61C50C2F201009B
:10397000807D002807D0FFE740F61C50C2F201000E
:103980000021817517E040F68440C2F20100007802
:1039900000280FD0FFE740F61C50C2F20100807DE6
:1039A000002807D1FFE740F61C50C2F20100FF21BA
:1039B0008175FFE7FFE740F68540C2F2010000781D
:1039C00000280FD0FFE740F61C50C2F20100807EB5
:1039D000002807D0FFE740F61C50C2F2010000218A
:1039E000817617E040F68540C2F201000078002899
:1039F0000FD0FFE740F61C50C2F20100807E002885
:103A000007D1FFE740F61C50C2F20100FF2181768A
:103A1000FFE7FFE740F68640C2F201000078002889
:103A20000FD0FFE740F61C50C2F20100807F002853
:103A300007D0FFE740F61C50C2F201000021817759
:103A400017E040F68640C2F20100007800280FD04F
:103A5000FFE740F61C50C2F20100807F002807D12A
:103A6000FFE740F61C50C2F20100FF218177FFE71B
:103A7000FFE747F2F730C2F201000021017040F683
:103A80008440C2F20100017040F68540C2F201009C
:103A9000017040F68640C2F201000170FFE7FFE7C7
:103AA000F5E146F60640C2F201000078002817D181
:103AB000FFE746F60740C2F20100007800280FD168
:103AC000FFE746F60840C2F201000078002807D15F
:103AD000FFE747F2F730C2F2010000210170D5E1A3
:103AE00008F0EAFB40F6B441C2F201010968401A4D
:103AF0000F28C0F0CA81FFE708F0DEFB40F6B441B2
:103B0000C2F20101086046F60640C2F201000078E8
:103B1000002800F08D80FFE701201BF07FFB40F6BE
:103B20008C40C2F2010000680028FC9004D0FFE73E
:103B3000FC9801282AD02AE040F61C50C2F201006D
:103B4000807D00280AD1FFE749F6AC50C0F604009A
:103B50003C21FB91FB9A1AF033FCFFE740F61C5026
:103B6000C2F20100807DFE2808DCFFE740F61C5011
:103B7000C2F20100817D0131817506E040F68C4082
:103B8000C2F2010001210160FFE72AE0FFE740F6F1
:103B90001C50C2F20100807D002808D0FFE740F6EB
:103BA0001C50C2F20100817D0139817518E040F698
:103BB0008C40C2F20100002101603C20A021FA905B
:103BC000FA9AF9911146F99AF99B1AF0F7F949F620
:103BD0009850C0F60400FA99FA9A1AF0F1FBFFE740
:103BE000FFE764201E21C8223223F8901AF0E6F97C
:103BF0002821F8981AF058FF0F21F79008461BF07B
:103C00002DFE40F61C51C2F20101897DF89A514304
:103C100048F28103C8F28003A1FB0313DB09F6908D
:103C20001846F5911AF0EEFA01201BF069FB2BE122
:103C300046F60740C2F201000078002800F08B80B1
:103C4000FFE701201BF0EAFA40F68C40C2F20100C7
:103C500000680028F49004D0FFE7F498012829D0E8
:103C600029E040F61C50C2F20100807E002809D1F4
:103C7000FFE749F6AC50C0F60400C8213C221AF018
:103C80009FFBFFE740F61C50C2F20100807EFE2839
:103C900008DCFFE740F61C50C2F20100817E0131D2
:103CA000817606E040F68C40C2F2010001210160FD
:103CB000FFE729E0FFE740F61C50C2F20100807EDA
:103CC000002808D0FFE740F61C50C2F20100817EB8
:103CD0000139817617E040F68C40C2F201000021E4
:103CE0000160C8203C214FF49672A023F390F2911A
:103CF0001AF064F949F69850C0F60400F399F29A64
:103D00001AF05EFBFFE7FFE7DC201E214FF4A072F4
:103D100032231AF053F9F02028211AF0C5FE0F21A2
:103D2000F19008461BF09AFD40F61C51C2F20101C9
:103D3000897E6422514348F28102C8F28002A1FBCD
:103D40000212D209F0901046EF911AF05BFA0120AE
:103D50001BF0D6FA97E046F60840C2F20100007860
:103D6000002800F08F80FFE701201BF057FA40F693
:103D70008C40C2F2010000680028EE9004D0FFE7FA
:103D8000EE9801282AD02AE040F61C50C2F2010029
:103D9000807F00280AD1FFE749F6AC50C0F6040046
:103DA0004FF4AA713C221AF00BFBFFE740F61C50BF
:103DB000C2F20100807FFE2808DCFFE740F61C50BD
:103DC000C2F20100817F0131817706E040F68C402C
:103DD000C2F2010001210160FFE72AE0FFE740F69F
:103DE0001C50C2F20100807F002808D0FFE740F697
:103DF0001C50C2F20100817F0139817718E040F642
:103E00008C40C2F20100002101604FF4AA703C21F5
:103E10004FF4DC72A023ED90EC911AF0CFF849F644
:103E20009850C0F60400ED99EC9A1AF0C9FAFFE731
:103E3000FFE74FF4AA701E214FF4DC7232231AF010
:103E4000BDF84FF4BE7028211AF02EFE0F21EB9022
:103E500008461BF003FD40F61C51C2F20101897FA8
:103E60006422514348F28102C8F28002A1FB02128F
:103E7000D209EA901046E9911AF0C4F901201BF02A
:103E80003FFAFFE7FFE7FFE7FFE7FFE7FFE702F0A3
:103E900054BF47F2FA30C2F201000078002840F027
:103EA000FD80FFE747F2FA30C2F2010001780131EC
:103EB000017001201BF0B2F91AF071F80520E890AA
:103EC0001BF0C4FCFF21E7900846E6911BF062FC62
:103ED000DC2078214FF48872E5900846E59BE49158
:103EE0001946DDF890C3E3926246E39B1AF0B4FBF7
:103EF000F020E290E599E29AE39B1AF0ADFB4FF4D3
:103F0000B470E190E599E19AE39B1AF0A5FB49F6BC
:103F1000C050C0F604004121D722E090DF921AF091
:103F20004FFA49F6D450C0F60400B921DF9A1AF0CE
:103F300047FA40F23111E098DF9A1AF041FA49F657
:103F40008450C0F604004FF4C871BE221AF038FA4B
:103F500047F67870C0F603001BF02AFC4AF2FF51C6
:103F6000DE9008461BF016FC02201BF081FC0C21A1
:103F7000DD9008461BF072FCFA21E89ADC901046AE
:103F8000DB911AF091FD4AF26451C0F60401DA9017
:103F900008461AF063F98720DB991AF085FD4AF28A
:103FA000AA21C0F60401D99008461AF057F9E698FC
:103FB000DB991AF079FD4AF29D51C0F60401D890C0
:103FC00008461AF04BF940F61C50C2F20100807905
:103FD00000280AD0FFE749F6AC50C0F604003C21A7
:103FE000D791D79A1AF0ECF909E049F69850C0F643
:103FF00004003C21D691D69A1AF0E2F9FFE740F688
:104000001C50C2F20100807A002809D0FFE749F66F
:10401000AC50C0F60400C8213C221AF0D1F908E0E7
:1040200049F69850C0F60400C8213C221AF0C8F99D
:10403000FFE740F61C50C2F20100807B00280AD046
:10404000FFE749F6AC50C0F604004FF4AA713C22D9
:104050001AF0B6F909E049F69850C0F604004FF49A
:10406000AA713C221AF0ACF9FFE701201BF048F9D5
:1040700047F2FB30C2F201000021017047F2F73035
:10408000C2F20100017047F2F930C2F20100017082
:1040900047F2F830C2F201000170E0E047F2FA3076
:1040A000C2F201000078012840F0AF80FFE746F639
:1040B0000640C2F20100007800280FD0FFE740F66A
:1040C0001C50C2F201008079002807D0FFE740F6BB
:1040D0001C50C2F201000021817117E046F6064033
:1040E000C2F20100007800280FD0FFE740F61C5014
:1040F000C2F201008079002807D1FFE740F61C508A
:10410000C2F2010001218171FFE7FFE746F6074097
:10411000C2F20100007800280FD0FFE740F61C50E3
:10412000C2F20100807A002807D0FFE740F61C5059
:10413000C2F201000021817217E046F60740C2F288
:104140000100007800280FD0FFE740F61C50C2F2B3
:104150000100807A002807D1FFE740F61C50C2F228
:10416000010001218172FFE7FFE746F60840C2F235
:104170000100007800280FD0FFE740F61C50C2F283
:104180000100807B002807D0FFE740F61C50C2F2F8
:1041900001000021817317E046F60840C2F20100D9
:1041A000007800280FD0FFE740F61C50C2F2010053
:1041B000807B002807D1FFE740F61C50C2F20100C7
:1041C00001218173FFE7FFE746F60640C2F20100D6
:1041D0000078002810D1FFE746F60740C2F2010040
:1041E0000078002808D1FFE746F60840C2F2010037
:1041F0000078002808D0FFE747F2FA30C2F2010049
:10420000017801310170FFE728E047F2FA30C2F28D
:1042100001000078022820D1FFE746F60640C2F2EE
:1042200001000078002817D1FFE746F60740C2F2E8
:104230000100007800280FD1FFE746F60840C2F2DF
:1042400001000078002807D1FFE747F2FA30C2F2F8
:10425000010000210170FFE7FFE7FFE7FFE702F041
:104260006CBD47F2F930C2F201000078002840F03E
:10427000C480FFE747F2F930C2F201000178013152
:10428000017001201AF0CAFF19F089FE05201BF009
:10429000DDFAFF21D59008461BF07CFADC2078215E
:1042A0004FF48872D4900846D49BD3911946DDF818
:1042B0004CC3D2926246D29B1AF0CEF9F020D19034
:1042C000D499D19AD29B1AF0C7F94FF4B470D09018
:1042D000D499D09AD29B1AF0BFF940F61C50C2F282
:1042E0000100807C002809D0FFE749F6AC50C0F6F9
:1042F0000400C8213C221AF063F808E049F69850FF
:10430000C0F60400C8213C221AF05AF8FFE749F62B
:10431000C050C0F604004121D722CF90CE921AF0AF
:104320004FF8B921CF98CE9A1AF04AF849F6D450EE
:10433000C0F6040040F23111CE9A1AF041F849F665
:104340008450C0F604004FF4C871BE221AF038F849
:1043500047F67870C0F603001BF02AFA4AF2FF51C4
:10436000CD9008461BF016FA02201BF081FA0C21B2
:10437000CC9008461BF072FA0521FA22CB90084631
:104380001146CA921AF090FB4AF26451C0F6040139
:10439000C990084619F062FF8720CA991AF084FB79
:1043A0004AF2AA21C0F60401C890084619F056FF47
:1043B000FF20CA991AF078FB4AF29D51C0F6040119
:1043C000C790084619F04AFF01201AF099FF47F2FA
:1043D000FB30C2F201000021017047F2F730C2F257
:1043E0000100017047F2FA30C2F20100017047F299
:1043F000F830C2F2010001705DE047F2F930C2F21C
:104400000100007801283CD1FFE746F60740C2F2E0
:1044100001000078002833D0FFE740F61C50C2F2BC
:104420000100807C00280ED1FFE740F61C50C2F24C
:1044300001000121817407F03FFF40F6A041C2F264
:104440000101086014E040F61C50C2F20100807CBB
:1044500000280CD0FFE740F61C50C2F201000021FA
:10446000817440F6A040C2F201000160FFE7FFE75F
:1044700047F2F930C2F20100017801310170FFE723
:1044800018E047F2F930C2F201000078022810D19A
:10449000FFE746F60740C2F201000078002807D186
:1044A000FFE747F2F930C2F2010000210170FFE797
:1044B000FFE7FFE7FFE702F040BC01201AF0AEFE85
:1044C00047F2FB30C2F201000078002865D1FFE717
:1044D00047F2FB30C2F20100017801310170002087
:1044E000C6901AF09BFEC6981BF03AF9C699C59083
:1044F00008461BF04FF919F052FD41F61010C9F2B1
:104500000300C699C69A19F023FC4FF4AF715022EC
:104510004FF4F0734FF0B40CC490084611461A469D
:104520006346CDF80CC319F049FD4FF49B704FF46E
:10453000D272CD23C39919F041FDC6981AF0E0FE5E
:1045400001201BF00DF94FF07F41C29008461BF08F
:104550001FF919F024FDFEF7C7FAFDF7B1FD46F685
:10456000E840C2F20100016841F48011016047F2A5
:10457000F730C2F20100C699017047F2FA30C2F278
:104580000100017047F2F930C2F20100017047F2F8
:10459000F830C2F201000170E0E147F2FB30C2F2F4
:1045A00001000078012840F0D881FFE746F6FD3091
:1045B000C2F201000078002829D0FFE746F6F53066
:1045C000C2F201000078002821D1FFE746F6F5305D
:1045D000C2F201000121017047F68C40C2F20100D5
:1045E000817A007B814208DAFFE747F68C40C2F20D
:1045F0000100817A01318172FFE747F68C40C2F2F7
:104600000100702111F0C4FFFEF76EFA17E046F6C4
:10461000FD30C2F20100007800280FD1FFE746F616
:10462000F530C2F201000078002807D0FFE746F617
:10463000F530C2F2010000210170FFE7FFE746F606
:10464000FC30C2F201000078002829D0FFE746F6CE
:10465000F430C2F201000078002821D1FFE746F6CD
:10466000F430C2F201000121017047F68C40C2F221
:104670000100817A407B814208DDFFE747F68C40EC
:10468000C2F20100817A01398172FFE747F68C405E
:10469000C2F20100702111F07BFFFEF725FA17E04E
:1046A00046F6FC30C2F20100007800280FD1FFE787
:1046B00046F6F430C2F201000078002807D0FFE788
:1046C00046F6F430C2F2010000210170FFE7FFE777
:1046D00046F6E840C2F201008078C006002840F1AA
:1046E0009A80FFE746F6E840C2F20100016821F433
:1046F000801101604FF4CD70B9214FF4F072EB23BB
:10470000C19219F05BFC4FF49B70E621FF23C19A24
:1047100019F054FC47F68C40C2F2010000780028E2
:1047200005D0FFE74FF47F401BF034F803E0FF2093
:104730001BF030F8FFE74BF65850C0F603001BF0B3
:1047400037F84FF4CD71AA22C090084611461AF0EE
:10475000ABF90C21BF9008461BF080F847F68C415E
:10476000C2F201010978002907D0FFE74AF2684048
:10477000C0F6040019F072FD06E04AF2B130C0F64E
:10478000040019F06BFDFFE74FF49B70F2211AF063
:104790008BF945F64801C0F60301BE9008461BF0B0
:1047A00007F80C21BD900846BC911BF057F86FF03C
:1047B0007F41BB9008461AF0EDFF40F29F10DC21CC
:1047C0001AF072F946F6E031C0F60301BA900846D5
:1047D0001AF0EEFFBC99B99008461BF03FF847F677
:1047E0008C41C2F20101B1F9021046F26762C6F2D1
:1047F000666251FB02F18A1002EBD1710322B8907C
:104800000846114619F012FD4AF2D750C0F60400CE
:1048100019F024FDFFE707F04FFD47F29441C2F283
:1048200001010968401AB0F57A7FC0F09580FFE772
:1048300007F042FD47F29441C2F20101086040F6E0
:10484000A840C2F201000168013101600B2919D3AF
:10485000FFE740F6A840C2F201000021016046F6E1
:10486000E840C2F2010080788007002809D4FFE701
:1048700046F6E840C2F20100016841F4801101608F
:10488000FFE7FFE746F6E840C2F201004078000685
:10489000002860D5FFE747F2AC00C2F2010047F202
:1048A0007C41C2F201010122B790B691B5920BF0A2
:1048B00087FC47F27841C2F20101B79AB4901046E2
:1048C000B59A0BF03DFC0DF5AF610222B39008469E
:1048D000B69BB2911946B1920CF05EFC3A208DF86D
:1048E0007A05B2980330B6990131B19A0CF054FCB4
:1048F00000208DF87D0549F6A851C0F60301B0905F
:1049000008461AF055FF6FF07F41AF9008461AF045
:1049100041FFB1981AF0ACFF0C21AE9008461AF096
:104920009DFF0521F522AD90084611461AF0BCF80E
:10493000B599AC9008461AF071FCDC2164224FF462
:104940008773B09819F03AFBB29819F087FCB598C4
:104950001AF0D6FCFFE7FFE7FFE7FFE701201AF0B8
:10496000CFFC47F68840C2F201000068002838D02A
:10497000FFE7FEF759F807F09FFC47F68841C2F2BF
:1049800001010968401AB0F5FA6F29D9FFE747F627
:104990008840C2F201000021016047F2FB30C2F200
:1049A0000100017047F68C40C2F201000078002837
:1049B00007D0FFE747F68C40C2F2010000210170EA
:1049C00006E047F68C40C2F2010002210170FFE7C9
:1049D00047F68C40C2F20100702111F0D9FDFFE7CB
:1049E000FFE702F0AAB90020AB901AF0B9FEAA9036
:1049F00019F0D5FA0120A9901AF0B2FE4FF07F41CC
:104A0000A89008461AF0C4FE19F0C9FA0520FEF76E
:104A100047F847F2E840C2F20100A999017040F658
:104A20009440C2F20100AB9A026040F6A440C2F288
:104A30000100016047F2FB30C2F20100027047F250
:104A4000F730C2F20100027047F2FA30C2F2010000
:104A5000027047F2F930C2F20100027047F2F830FA
:104A6000C2F20100027047F2F630C2F20100027099
:104A700040F69840C2F20100027040F6B040C2F227
:104A80000100027046F60B40C2F20100027046F6C9
:104A90000940C2F20100027047F23C20C2F201005C
:104AA000027040F2DF70C2F20100017002F045B9FD
:104AB00047F68C40C2F20100C08A46F6FC51C2F2B1
:104AC00001010968A79008461EF03AFCA7998142A7
:104AD00013D0FFE746F6FC50C2F2010000681EF05A
:104AE0002FFC47F68C41C2F20101C88240F6B0406B
:104AF000C2F20100012101700AE147F68C40C2F2C6
:104B00000100008B46F60061C2F201010968A6901F
:104B100008461EF015FCA699814213D0FFE746F621
:104B20000060C2F2010000681EF00AFC47F68C41EA
:104B3000C2F20101088340F6B040C2F20100012137
:104B40000170E4E047F68C40C2F20100408B46F66B
:104B50000461C2F201010968A59008461EF0F0FB4D
:104B6000A599814213D0FFE746F60460C2F2010026
:104B700000681EF0E5FB47F68C41C2F20101488354
:104B800040F6B040C2F2010001210170BEE047F6DC
:104B90008C40C2F20100808B46F60C61C2F201012A
:104BA0000968A49008461EF0CBFBA499814213D05B
:104BB000FFE746F60C60C2F2010000681EF0C0FB81
:104BC00047F68C41C2F20101888340F6B040C2F240
:104BD00001000121017098E047F68C40C2F201000B
:104BE00090F9040046F6CC51C2F201010968A39085
:104BF00008461EF0A5FBA399814213D0FFE746F6B5
:104C0000CC50C2F2010000681EF09AFB47F68C41BE
:104C1000C2F20101087140F6B040C2F20100012168
:104C2000017071E047F68C40C2F20100007C46F64C
:104C3000C851C2F201010968A29008461EF080FB2B
:104C4000A299814213D0FFE746F6C850C2F2010094
:104C500000681EF075FB47F68C41C2F20101087432
:104C600040F6B040C2F20100012101704BE047F66E
:104C70008C40C2F20100807F46F60861C2F2010159
:104C80000968A19008461EF05BFBA199814213D0F0
:104C9000FFE746F60860C2F2010000681EF050FB14
:104CA00047F68C41C2F20101887740F6B040C2F26B
:104CB00001000121017025E047F68C40C2F201009D
:104CC000C07F46F61061C2F201010968A090084653
:104CD0001EF036FBA099814213D0FFE746F6106024
:104CE000C2F2010000681EF02BFB47F68C41C2F2B5
:104CF0000101C87740F6B040C2F201000121017005
:104D0000FFE7FFE7FFE7FFE7FFE7FFE7FFE7FFE773
:104D100046F62450C2F20100006816F095FF002804
:104D20001FD0FFE740F6B040C2F201000078002833
:104D300008D0FFE747F68C40C2F20100702111F065
:104D400027FCFFE740F6B040C2F2010000210170ED
:104D500004F0F2FC47F2E840C2F2010007210170C2
:104D600015E046F62050C2F20100006816F06CFF14
:104D700000280BD0FFE704F0DFFC02F01DFD47F236
:104D8000E840C2F2010009210170FFE7FFE701F0EE
:104D9000D4BF47F68740C2F20100007846F6B4510E
:104DA000C2F2010109689F9008461EF0C9FA9F9956
:104DB000814214D0FFE746F6B450C2F20100006809
:104DC0001EF0BEFA47F68741C2F2010108702020AA
:104DD00001229E9008469E9905F0BEF9FFE740F635
:104DE0001C50C2F20100808C46F61851C2F201013B
:104DF00009689D9008461EF0A3FA9D99814221D032
:104E0000FFE746F61850C2F2010000681EF098FA5B
:104E100040F61C51C2F2010188840878002809D1AB
:104E2000FFE746F60450C2F20100006800211EF0C0
:104E3000C2FAFFE740F69840C2F201000178013162
:104E40000170FFE740F61C50C2F20100007946F6FF
:104E50000C51C2F2010109689C9008461EF070FADC
:104E60009C99814221D0FFE746F60C50C2F2010026
:104E700000681EF065FA40F61C51C2F2010108718B
:104E80000879002809D1FFE746F6F840C2F2010090
:104E9000006800211EF08FFAFFE740F69840C2F24A
:104EA0000100017801310170FFE740F61C50C2F2A9
:104EB0000100007A46F61051C2F2010109689B9088
:104EC00008461EF03DFA9B99814221D0FFE746F645
:104ED0001050C2F2010000681EF032FA40F61C5178
:104EE000C2F201010872087A002809D1FFE746F6EC
:104EF000FC40C2F20100006800211EF05CFAFFE7EE
:104F000040F69840C2F20100017801310170FFE7DC
:104F100040F61C50C2F20100007B46F61451C2F26A
:104F2000010109689A9008461EF00AFA9A9981428E
:104F300021D0FFE746F61450C2F2010000681EF0CF
:104F4000FFF940F61C51C2F201010873087B0028EA
:104F500009D1FFE746F60050C2F2010000680021C7
:104F60001EF029FAFFE740F69840C2F201000178EE
:104F700001310170FFE740F61C50C2F20100007CD5
:104F800046F61C51C2F201010968999008461EF0CC
:104F9000D7F99999814221D0FFE746F61C50C2F219
:104FA000010000681EF0CCF940F61C51C2F201016C
:104FB0000874087C002809D1FFE746F60850C2F2C1
:104FC0000100006800211EF0F6F9FFE740F6984066
:104FD000C2F20100017801310170FFE740F61C5078
:104FE000C2F20100007D46F6B851C2F20101096823
:104FF000989008461EF0A4F99899814214D0FFE7D2
:1050000046F6B850C2F2010000681EF099F940F669
:105010001C51C2F20101087540F69840C2F201002D
:10502000017801310170FFE740F61C50C2F2010027
:10503000007E46F6BC51C2F201010968979008460D
:105040001EF07EF99799814214D0FFE746F6BC50D6
:10505000C2F2010000681EF073F940F61C51C2F262
:105060000101087640F69840C2F201000178013152
:105070000170FFE740F61C50C2F20100007F46F6C7
:10508000C051C2F201010968969008461EF058F915
:105090009699814214D0FFE746F6C050C2F2010053
:1050A00000681EF04DF940F61C51C2F2010108776C
:1050B00040F69840C2F20100017801310170FFE72B
:1050C00040F65450C2F20100007846F60451C2F294
:1050D00001010968959008461EF032F995998142C0
:1050E00014D0FFE746F60450C2F2010000681EF03B
:1050F00027F940F65451C2F20101087040F6984079
:10510000C2F20100017801310170FFE740F654500E
:10511000C2F20100007946F6F841C2F201010968C5
:10512000949008461EF00CF99499814214D0FFE740
:1051300046F6F840C2F2010000681EF001F940F6A0
:105140005451C2F20101087140F69840C2F20100C8
:10515000017801310170FFE740F65450C2F20100BE
:10516000007A46F6FC41C2F20101096893900846B4
:105170001EF0E6F89399814214D0FFE746F6FC4012
:10518000C2F2010000681EF0DBF840F65451C2F292
:105190000101087240F69840C2F201000178013125
:1051A0000170FFE740F65450C2F20100007B46F662
:1051B0000051C2F201010968929008461EF0C0F841
:1051C0009299814214D0FFE746F60050C2F20100E6
:1051D00000681EF0B5F840F65451C2F201010873A0
:1051E00040F69840C2F20100017801310170FFE7FA
:1051F00040F65450C2F20100007C46F60851C2F25B
:1052000001010968919008461EF09AF8919981422F
:1052100014D0FFE746F60850C2F2010000681EF005
:105220008FF840F65451C2F20101087440F69840DC
:10523000C2F20100017801310170FFE746F6245007
:10524000C2F20100006816F0FFFC002800F08C801C
:10525000FFE740F6B040C2F20100007800280ED00F
:10526000FFE740F6B040C2F201000021017047F6AE
:105270008C40C2F20100702111F08AF9FFE740F67C
:105280009840C2F201000078002815D0FFE740F6F0
:105290009840C2F201000021017040F61C50C2F299
:1052A0000100302111F08CF840F65450C2F2010098
:1052B000502111F085F8FFE747F2F530C2F2010006
:1052C00000788DF8700546F6B470C2F201000078DF
:1052D0008DF8710547F2F040C2F2010000788DF8B8
:1052E000720547F2EB40C2F2010000788DF87305B9
:1052F00047F2EA40C2F2010000788DF8740547F2E7
:10530000E940C2F2010000788DF8750546F6E840E4
:10531000C2F2010080784007002804D5FFE7012091
:105320008DF8760503E000208DF87605FFE70DF592
:10533000AE600A210722909204F00EFF47F68741E3
:10534000C2F20101202201238F90084611461A461D
:1053500004F002FF8E9004F037FA47F2E840C2F200
:1053600001009099017015E046F62050C2F201004C
:10537000006816F069FC00280BD0FFE704F024FA5F
:1053800002F0DAFD47F2E840C2F201000A210170A2
:10539000FFE7FFE701F0D1BC47F27C40C2F2010019
:1053A000007846F6DC51C2F2010109688D9008468A
:1053B0001DF0C6FFC0B204F05BFC8D9981421FD086
:1053C000FFE746F6DC50C2F2010000681DF0B8FFAE
:1053D000C0B204F04DFC47F27C41C2F201010870FA
:1053E00047F2AC00C2F2010001220BF08DF846F644
:1053F000E841C2F201010A6842F400420A60FFE794
:1054000047F27C40C2F20100407846F6E051C2F219
:10541000010109688C9008461DF092FFC0B204F0AB
:1054200027FC8C9981421FD0FFE746F6E050C2F27C
:10543000010000681DF084FFC0B204F019FC47F2BF
:105440007C41C2F20101487047F2AC00C2F2010097
:1054500001220BF059F846F6E841C2F201010A6850
:1054600042F400420A60FFE747F27840C2F20100CE
:10547000807846F6D051C2F2010109688B90084647
:105480001DF05EFFC0B204F0F3FB8B9981421FD088
:10549000FFE746F6D050C2F2010000681DF050FF51
:1054A000C0B204F0E5FB47F27841C2F20101887016
:1054B00047F2AC00C2F2010001220AF05DFF46F69D
:1054C000E841C2F201010A6842F400420A60FFE7C3
:1054D00047F27840C2F20100407846F6E451C2F249
:1054E000010109688A9008461DF02AFFC0B204F045
:1054F000BFFB8A9981421FD0FFE746F6E450C2F213
:10550000010000681DF01CFFC0B204F0B1FB47F2BF
:105510007841C2F20101487047F2AC00C2F20100CA
:1055200001220AF029FF46F6E841C2F201010A68A9
:1055300042F400420A60FFE747F27840C2F20100FD
:10554000C07846F6F851C2F2010109688990084610
:105550001DF0F6FEA0F5FA60C0B204F089FB89994F
:10556000814221D0FFE746F6F850C2F20100006800
:105570001DF0E6FEA0F5FA60C0B204F079FB47F238
:105580007841C2F20101C87047F2AC00C2F20100DA
:1055900001220AF0F1FE46F6E841C2F201010A6872
:1055A00042F400420A60FFE747F27840C2F201008D
:1055B000007846F6C451C2F2010109688890084695
:1055C00017F011F80130C0B204F052FB8899814203
:1055D00020D0FFE746F6C450C2F20100006817F081
:1055E00002F80130C0B204F043FB47F27841C2F246
:1055F0000101087047F2AC00C2F2010001220AF07A
:10560000BBFE46F6E841C2F201010A6842F40042DC
:105610000A60FFE747F2E940C2F20100007846F66F
:10562000E851C2F201010968879008461DF088FE22
:10563000879981421ED0FFE746F6E850C2F201008A
:1056400000681DF07DFE47F2E941C2F201010870D9
:10565000087840F24071C2F2010151F820001AF0BE
:1056600099F84FF4AA7033214FF4D7723B2319F005
:1056700005F9FFE746F63450C2F20100006816F063
:1056800059FC012809D1FFE746F6E840C2F20100C3
:10569000016841F48021016008E046F6E840C2F26A
:1056A0000100016821F480210160FFE746F6D45033
:1056B000C2F2010000681DF043FE46F6B471C2F26A
:1056C0000101087046F6D850C2F2010000681DF0D2
:1056D00037FE47F2F531C2F20101087046F6F45088
:1056E000C2F2010000681DF02BFE47F2F041C2F249
:1056F0000101087046F6F050C2F2010000681DF08A
:105700001FFE47F2EB41C2F20101087046F6EC5071
:10571000C2F2010000681DF013FE47F2EA41C2F236
:105720000101087046F6E850C2F2010000681DF061
:1057300007FE47F2E941C2F20101087046F6245023
:10574000C2F20100006816F07FFA002800F08C8099
:10575000FFE740F6B040C2F20100007800280ED00A
:10576000FFE740F6B040C2F201000021017047F6A9
:105770008C40C2F20100702110F00AFFFFE740F6F2
:105780009840C2F201000078002815D0FFE740F6EB
:105790009840C2F201000021017040F61C50C2F294
:1057A0000100302110F00CFE40F65450C2F201000E
:1057B000502110F005FEFFE747F2F530C2F201007C
:1057C00000788DF8700546F6B470C2F201000078DA
:1057D0008DF8710547F2F040C2F2010000788DF8B3
:1057E000720547F2EB40C2F2010000788DF87305B4
:1057F00047F2EA40C2F2010000788DF8740547F2E2
:10580000E940C2F2010000788DF8750546F6E840DF
:10581000C2F2010080784007002804D5FFE701208C
:105820008DF8760503E000208DF87605FFE70DF58D
:10583000AE600A210722869204F08EFC47F687416B
:10584000C2F20101202201238590084611461A4622
:1058500004F082FC849004F02BF847F2E840C2F296
:1058600001008699017015E046F62050C2F2010051
:10587000006816F0E9F900280BD0FFE704F018F8EB
:1058800002F062FF47F2E840C2F201000D21017010
:10589000FFE7FFE701F051BA47F2F630C2F201002C
:1058A0000078002810D1FFE747F2F630C2F201007D
:1058B00001780131017018F072FB46F60440C2F223
:1058C00001003C210170ABE047F2F630C2F201006A
:1058D0000078012840F0A380FFE706F0EDFC46F6D3
:1058E0000041C2F201010968401AB0F57A7FC0F0A8
:1058F0009580FFE706F0E0FC46F60041C2F20101A8
:105900000860FDF791F8012019F088FC0020322191
:105910004FF4F072C82318F051FB46F60440C2F26F
:1059200001000078062805DBFFE74FF47F4019F0FF
:1059300031FF16E0FF2019F02DFF40F60040C4F2C1
:1059400002001021012283908291819206F090FC46
:10595000819806F039F900228398829906F088FC34
:10596000FFE749F6A850C0F6030019F021FF022115
:10597000809008467F9119F07BFF0E217E900846AB
:105980007D9119F06BFFF02150227C9008467B91AD
:10599000114619F089F80D217A90084615F0F0F9B2
:1059A00047F2ED10C2F2010018F058FC4EF2D07030
:1059B000C0F6030019F0FCFE7F997990084619F0B3
:1059C00057FF7D997890084619F048FF9C217B9AF3
:1059D0007790104619F068F846F60441C2F20101CA
:1059E0000A7876901046759118F00CFC012019F099
:1059F00087FC75980178002908D0FFE746F6044037
:105A0000C2F2010001780139017006E047F2E84076
:105A1000C2F2010007210170FFE7FFE7FFE7FFE7A0
:105A200001F08BB946F62450C2F20100006816F06E
:105A30000BF9002818D0FFE747F25B50C2F20100D3
:105A40000078002807D0FFE747F25B50C2F2010060
:105A500000210170FFE703F097FF47F2E840C2F230
:105A600001000721017015E046F62050C2F2010046
:105A7000006816F0E9F800280BD0FFE703F084FF78
:105A800002F062FE47F2E840C2F201000D2101700F
:105A9000FFE7FFE701F051B946F62450C2F20100DA
:105AA000006816F0D1F8002800F0B680FFE746F64F
:105AB0000B40C2F20100007880008DF86E05FFE710
:105AC0009DF86E0546F60B41C2F2010109780F22DE
:105AD000A2EB8101042974900ADBFFE746F60B4034
