:020000040800F2
:10000000107F0320DD010008F945010801190108EE
:10001000F145010809150008A9B601080000000013
:10002000000000000000000000000000EF010008D8
:10003000F91F000800000000F3010008798801089A
:10004000F7010008F7010008F7010008F7010008B0
:10005000F7010008F7010008F7010008F7010008A0
:10006000F7010008F7010008F7010008F701000890
:10007000F7010008F7010008F7010008F701000880
:10008000F7010008F7010008F7010008F701000870
:10009000F7010008F7010008F7010008F701000860
:1000A000F7010008F7010008F7010008F701000850
:1000B000F7010008F7010008F7010008F701000840
:1000C000F7010008F7010008F7010008F701000830
:1000D000F701000889B6010899B60108F701000880
:1000E000F7010008F7010008F7010008F701000810
:1000F000F7010008F7010008F7010008F701000800
:10010000F7010008F7010008F7010008F7010008EF
:10011000F7010008F7010008F7010008F7010008DF
:10012000F7010008F7010008F7010008F7010008CF
:10013000F7010008F7010008F7010008F7010008BF
:10014000F7010008F7010008F7010008F7010008AF
:10015000F7010008F7010008F7010008F70100089F
:10016000F7010008F7010008F7010008F70100088F
:10017000F7010008F7010008F7010008000000007F
:10018000F7010008F7010008F7010008F70100086F
:10019000F7010008F7010008F7010008F70100085F
:1001A00041270108F7010008D91F0008F7010008DE
:1001B000916B0108F7010008F7010008F70100083A
:1001C000F7010008F7010008DFF80CD000F0B0FBE1
:1001D0000048004749D90108107F0320064880479E
:1001E00006480047FEE7FEE7FEE7FEE7FEE7FEE71C
:1001F000FEE7FEE7FEE7FEE7098A0108C9010008FD
:1002000010B5441A0346944209D28318114403E0FE
:1002100011F8014D03F8014D521EF9D210BD40EA0C
:100220000104A40703D009E010C9121F10C3042A57
:10023000FAD203E011F8014B03F8014B521EF9D238
:1002400010BDD2B201E000F8012B491EFBD270476D
:100250000022F6E710B513460A4604461946FFF792
:10026000F0FF204610BD421C10F8011B0029FBD1F5
:10027000801A704730B504460020034600E05B1C3E
:10028000934203D2E05CCD5C401BF8D030BD034606
:1002900011F8012B00F8012B002AF9D118467047FC
:1002A0002DE9FE4F804681EA0300C00F0C46009006
:1002B00021F0004123F00045B8EB0200A94105D22E
:1002C0004046214690461C460B46024623F000401D
:1002D000104347D0270DC7F30A00C3F30A51029019
:1002E000401A019040286BDAC3F3130040F4801BDE
:1002F0000098924620B10023D2EB030A63EB0B0B6C
:1003000001985946C0F14002504600F004FA0646F2
:100310000D4650465946019A00F01CFA10EB0800B1
:100320006141002487EA115284EAE7731A4340D0FE
:10033000009A62B3019A012A4FEA075215DC001BAA
:1003400061EB02014FF0004202EA0752CDE90042A0
:10035000001C41F5801132462B4600F053FA03B0E1
:10036000BDE8F08F40462146F9E7001B61EB020132
:10037000001C41F5801300185B412018A2F50017FE
:1003800047EB030140EAD570B6196D4111E06D08E5
:100390004FEA360645EAC0754FEA0752001B61EB8B
:1003A0000201001C41F5801149084FEA3000001994
:1003B000514132462B4603B0BDE8F04F00F013BA6E
:1003C0000098012240000023D0EB020263EBE073AF
:1003D000009821464FEAE074B8EB000061EB04019D
:1003E000E9E783F000435BE781F0004158E72DE93E
:1003F000FE4F81EA030404F0004421F00041009420
:100400004FF0000B23F0004350EA01045ED052EAA3
:1004100003045BD0C3F30A54C1F30A552C44A4F27D
:10042000F3340194A0FB0254C1F3130141F4801191
:10043000C3F3130343F4801301FB024400FB034E98
:10044000840A970A44EA815447EA8357A4FB076861
:1004500002958D0A05FB07854FEA932C04FB0C548B
:100460002705029D4FEA065847EA1637B5EB0805FF
:100470006EEB070C870E920E47EA811742EA831251
:10048000A7FB0201B6EB0B0164EB00042B0D43EA62
:100490000C335E1844EB1C50DA465146E7FB020170
:1004A000C5F313044FEA0B3343EA14534FEA043203
:1004B000019C43EA0603A4F10C040294009CCDE9DC
:1004C00000B400F09FF903B0BDE8F08F00200146B2
:1004D000F9E72DE9F04D81EA030404F0004B21F027
:1004E000004514464FF0000A23F0004150EA05028F
:1004F00020D054EA01021DD0C5F30A570246C5F3C5
:100500001303C1F31300C1F30A5640F4801543F4FA
:100510008013A7EB0608101BD64608F2FD3873EBD4
:10052000050002D308F1010801E092185B41B8F11F
:10053000000F03DA00200146BDE8F08D00204FF4E3
:100540008011064684460EE0171B73EB050705D3A2
:10055000121B63EB050306434CEA010C49084FEA02
:10056000300092185B4150EA0107EDD152EA0300D6
:1005700012D082EA040083EA0501084305D0101B6B
:10058000AB4106D20122002306E000224FF00043D7
:1005900002E06FF0010253101AEB06004CEB085119
:1005A00010EB0A0041EB0B01BDE8F04D00F01BB968
:1005B0000EB5C10F80EAE0700844CA07002140F27E
:1005C00033438DE80E000A460B4600F01BF903B0DA
:1005D00000BD0EB540F2334102910021CDE900117A
:1005E0000A460B4600F00EF903B000BD70B5C1F32A
:1005F0000A5201F000450024C1F3130140F2FF3319
:1006000041F480119A4201DA002070BD40F2334378
:100610009A42A2F2334203DC524200F08BF800E02F
:1006200090402C43F1D0404270BD00F0004230F0C9
:1006300000400AD0C10D01F56071C0F3160042EA16
:100640000151C2084007114370470020014670471E
:1006500001F0004330B421F0004150EA010206D01D
:100660000A0DA2F56072C1F31301002A02DC30BC4E
:1006700000207047440F44EAC104C100E01830BCB8
:1006800000EBC25000F078B830B50B4601460020B0
:100690002022012409E021FA02F59D4205D303FA44
:1006A00002F5491B04FA02F52844151EA2F10102C5
:1006B000F1DC30BD2DE9F05F0546002092469B46F7
:1006C00088460646814640241BE028464146474668
:1006D000224600F02FF853465A46C01A914110D3D3
:1006E00011461846224600F016F82D1A67EB01084D
:1006F0004F4622460120002100F00DF817EB0009BB
:100700004E41201EA4F10104DFDC484631462A4652
:100710004346BDE8F09F202A04DB203A00FA02F1AC
:10072000002070479140C2F1200320FA03F31943DF
:1007300090407047202A04DB203A21FA02F0002181
:10074000704721FA02F3D040C2F1200291400843E1
:1007500019467047202A06DBCB17203A41FA02F0EF
:1007600043EAE07306E041FA02F3D040C2F120020E
:1007700091400843194670470029A8BF7047401CA4
:10078000490008BF20F00100704710B4B0FA80FCA7
:1007900000FA0CF050EA010404BF10BC704749B1E4
:1007A000CCF1200421FA04F411FA0CF118BF012154
:1007B00021430843A3EB0C01CB1D4FEA00614FEA34
:1007C000102042BF002010BC704700EBC350104403
:1007D0000029A4BF10BC7047401C490008BF20F08E
:1007E000010010BC704710B5141E73F1000408DA44
:1007F000401C41F1000192185B411A4301D120F0E5
:10080000010010BD2DE9F04D92469B4611B1B1FAA1
:1008100081F202E0B0FA80F220329046FFF77BFFCF
:1008200004460F4640EA0A0041EA0B0153465A4685
:10083000084313D0114653EA010019D0C8F1400211
:100840005046FFF777FF05460E465046594642464A
:10085000FFF761FF084305D0012004E02046394638
:10086000BDE8F08D0020054346EAE0762C4337438F
:100870000A986305E40AA0EB08000022FD0A44EA96
:1008800047540A3002D500200146E9E70105101956
:100890006941DDE9084500196941BDE8F04DA2E76D
:1008A000C1F30A52C1F3130140F2FF3341F4801146
:1008B0009A4202DA00200146704740F233439A42DE
:1008C000A2F2334202DC5242FFF734BFFFF723BFEC
:1008D00030B5041E71F1000404DB4FF000444042C7
:1008E00064EB0101141E73F1000405DB1C464FF09C
:1008F0000043524263EB04038B4208BF824230BD87
:1009000030B5041E71F1000404DB4FF00044404296
:1009100064EB0101141E73F1000405DB1C464FF06B
:100920000043524263EB0403994208BF904230BD3A
:10093000064C074D06E0E06840F0010394E807002C
:1009400098471034AC42F6D3FFF742FC343A05081E
:10095000643A050870B58C1810F8015B15F00703B0
:1009600001D110F8013B2A1106D110F8012B03E048
:1009700010F8016B01F8016B5B1EF9D12B0705D450
:100980000023521E0DD401F8013BFAE710F8013B99
:10099000CB1A921C03E013F8015B01F8015B521EB5
:1009A000F9D5A142D8D3002070BD0000000000009E
:1009B00080B58AB00BF010FF40F64841C2F2010149
:1009C0000968401A0C28C0F0BD81FFE70BF004FF56
:1009D00040F64841C2F201010860012007900890EA
:1009E00040F64440C2F201000078002803D1FFE73E
:1009F0000B20069017E040F64440C2F20100007858
:100A0000012803D1FFE70C2006900BE040F644409C
:100A1000C2F201000078022803D1FFE70D20069002
:100A2000FFE7FFE7FFE746F62C70C2F2010006A9D8
:100A300002900AF035FC0299019008460AF088FEFF
:100A40000A21029A009010460AF0F2FD40F6444155
:100A5000C2F201010978002940F03881FFE746F62B
:100A60002C70C2F201000AF07BFD40F64C41C2F24C
:100A700001010A6840F65043C2F2010323F8120054
:100A80000868013008600A2807D3FFE740F64C40A9
:100A9000C2F2010000210160FFE7002004900390F2
:100AA000FFE7039809280FD8FFE7039840F6504165
:100AB000C2F2010131F81000049908440490FFE7E4
:100AC000039801300390ECE704984CF6CD41CCF646
:100AD000CC41A0FB0101C90804910499642905D304
:100AE000FFE70498B0F57A6F18D9FFE740F64C405D
:100AF000C2F201000068002809D1FFE747F2DD706B
:100B0000C2F20100017801F0FE010170FFE747F633
:100B1000DC60C2F2010000214180D6E040F64C408A
:100B2000C2F201000068002809D1FFE747F2DD703A
:100B3000C2F20100017841F001010170FFE7BDF848
:100B4000100016F011F940F64040C2F2010080EDAD
:100B5000000A90ED000AB2EE041A20EE010ABDEE82
:100B6000C00A10EE100AADF8160047F6DC60C2F2BB
:100B70000100B0F9020046F26761C6F2666150FBFF
:100B800001F0821002EBD070BDF9162052FB01F18A
:100B90008A1002EBD171884200F08180FFE70BF0F0
:100BA0001BFE47F2D871C2F201010968401A40F6F3
:100BB000B83188425DD8FFE70BF00EFE47F2D471E2
:100BC000C2F201010968401AFA2851D3FFE70BF07D
:100BD00003FE47F2D471C2F20101086047F21850D7
:100BE000C2F20100B0F9000046F26761C6F2666128
:100BF00050FB01F0821002EBD070BDF9162052FBC1
:100C000001F18A1002EBD17188420ED0FFE7BDF8E6
:100C1000160047F21851C2F20101088047F2DC7059
:100C2000C2F201000021017021E047F2DC70C2F243
:100C3000010001780131017000780A2816D1FFE720
:100C400047F2DC70C2F2010000210170BDF816000D
:100C500047F6DC61C2F20101488046F69850C2F2C4
:100C60000100016841F480110160FFE7FFE7FFE741
:100C700014E00BF0B1FD47F2D871C2F20101086037
:100C80000BF0AAFD47F2D471C2F20101086047F2ED
:100C9000DC70C2F2010000210170FFE714E00BF0EC
:100CA0009BFD47F2D871C2F2010108600BF094FD80
:100CB00047F2D471C2F20101086047F2DC70C2F25F
:100CC000010000210170FFE7FFE728E040F6444003
:100CD000C2F201000078012808D1FFE746F62C7027
:100CE000C2F201000AF03CFC049017E040F64440D8
:100CF000C2F20100007802280FD1FFE746F62C70FF
:100D0000C2F201000AF02CFCFF21A1EB101047F207
:100D1000F321C2F201010870FFE7FFE7FFE740F6A9
:100D20004440C2F2010001780131CAB20170032AC5
:100D300007D3FFE740F64440C2F2010000210170F2
:100D4000FFE7FFE70AB080BD81B0009042F20430B7
:100D5000C4F20100016821F4403101600099496842
:100D600002681143016000980068416821F48071B5
:100D700041600098016800694A6842EA00204860C2
:100D800000980068416821F0407141600098016856
:100D900080684A681043486000980068816821F4C0
:100DA0000061816000980168C0688A6810438860AB
:100DB0000098806A0121C0F60071884219D0FFE7CF
:100DC00000980068816821F0706181600098016876
:100DD000806A8A681043886000980068816821F002
:100DE0004051816000980168C06A8A681043886039
:100DF0000CE000980068816821F0706181600098C3
:100E00000068816821F040518160FFE70098006828
:100E1000816821F0020181600098016880698A6818
:100E200042EA400088600098006A002819D0FFE775
:100E300000980068416841F40061416000980068D2
:100E4000416821F46041416000980168406A4EF2B7
:100E50000002CFF6FF7202EB40304A681043486050
:100E600006E000980068416821F400614160FFE7F6
:100E700000980068C16A21F47001C162009801689D
:100E8000C0690022CFF6F07202EB0050CA6A10432C
:100E9000C86200980068816821F400718160009840
:100EA0000168006B8A6842EA402088600098006808
:100EB000816821F4806181600098016840698A68D6
:100EC00042EA8020886001B0704700000000000006
:100ED00081B00090009847F2A061C2F20101416028
:100EE00047F2A660C2F2010000780099088101B0C3
:100EF000704700000000000080B58CB00B9000200F
:100F00000A9040F6EC41C2F2010101220A6010236E
:100F10004B608A60C86047F2307CC2F2010C4FF629
:100F2000FF7E099060460891079272460693CDF8BD
:100F300014C0CDF810E010F00FF8079903900846A0
:100F40000BF0BAF802200899086006984860079AE2
:100F50008A60099BCB600598049A0FF0FDFF03217E
:100F6000089A11600699516008239360099BD36029
:100F7000DDF814C0029060461146049A0FF0ECFFB1
:100F80004FF408710A910421089A11600699516082
:100F9000079B9360DDF828C0C2F80CC0DDF814C0D0
:100FA000019060461146049A0FF0D6FF0B99059AFE
:100FB000009010460FF0ACFF0CB080BD00000000A8
:100FC00080B59AB019901891FFE743F63800C4F243
:100FD0000200016841F001010160006800F00100B9
:100FE00012901298FFE7FFE743F63000C4F20200C8
:100FF000016841F480010160006800F480001190F4
:101000001198FFE7FFE743F63000C4F202000168E1
:1010100041F001010160006800F00100109010989B
:10102000FFE7FFE743F63000C4F20200016841F039
:1010300004010160006800F004000F900F98FFE7C2
:10104000FFE743F63000C4F20200016841F00801F6
:101050000160006800F008000E900E98FFE7FFE7BF
:1010600043F63000C4F20200016841F01001016053
:10107000006800F010000D900D98FFE7FFE743F6C1
:101080003000C4F20200016841F0200101600068F4
:1010900000F020000C900C98FFE7FFE743F63000CB
:1010A000C4F20200016841F040010160006800F0F4
:1010B00040000B900B98FFE74FF63F001390022083
:1010C000149000211591032216920C23179341F2DC
:1010D000004CC4F2020C0DF14C0E0A9060460991CE
:1010E000714608920793CDF818E00BF039F980208B
:1010F00013900A991491099A1592089B1693DDF89A
:101100001CC0CDF85CC040F2000EC4F2020E059087
:10111000704606990BF024F9302013900A98149029
:1011200009991591089A1692079B179340F60000AB
:10113000C4F2020006990BF013F948F23310139031
:101140000A98149009991591089A1692079B17937B
:1011500041F60000C4F2020006990BF001F94FF6C7
:10116000837013900A98149009991591089A169211
:10117000079B179341F20000C4F2020006990BF09E
:10118000EFF84CF2037013900A9814900999159196
:10119000089A1692079B179340F60040C4F202008B
:1011A00006990BF0DDF840F66440C2F2010009999F
:1011B0004160059A82604FF40073C3604FF480630E
:1011C00003614FF4805343614FF480438361C161F5
:1011D0004FF4003303624162089B8362C162016382
:1011E00046F2104CC4F2020CC0F800C0FFE7199898
:1011F00040F66441C2F20101016319988863FFE778
:1012000040F66440C2F2010004900AF01DFE049909
:10121000039008460AF068FE38210F22002302904E
:101220000846019111461A460DF016F801980DF086
:1012300007F81AB080BD000080B592B01190002070
:101240008DF8430047F6F860C2F2010000680069BB
:1012500040F69851C2F201010978039008460399BB
:1012600088471199087011980078002800F038819B
:10127000FFE700200490FFE704981199097888425D
:1012800080F02D81FFE747F6F860C2F201000068A8
:10129000406940F69851C2F201010978049A09ABFD
:1012A00003EB42030DF11A0C0CEB420202900846CC
:1012B0001946029B984747F6FC60C2F2010000788D
:1012C000012811D1FFE7049809A931F810100EAADE
:1012D00022F8101004980DF11A0131F810100DF1D8
:1012E0002E0222F81010FFE747F6FC60C2F2010060
:1012F0000078800700280AD5FFE7049809A931F88B
:101300001010C1F580510EAA22F81010FFE747F621
:10131000FC60C2F201000078400700280CD5FFE70E
:1013200004980DF11A0131F81010C1F580510DF13A
:101330002E0222F81010FFE747F6FC60C2F201000F
:1013400000780007002811D5FFE7049809A931F8B3
:1013500010100DF12E0222F8101004980DF11A0150
:1013600031F810100EAA22F81010FFE704980EA909
:1013700031F8101040F6C442C2F2010252F82000C7
:1013800081420DD9FFE704980EA931F8101040F6FC
:10139000C442C2F2010252F82000081A01900CE087
:1013A000049840F6C441C2F2010151F820100EAA7F
:1013B00032F81000081A0190FFE70198ADF8180004
:1013C00004980DF12E0131F8101040F6D842C2F207
:1013D000010252F8200081420ED9FFE704980DF176
:1013E0002E0131F8101040F6D842C2F2010252F834
:1013F0002000081A00900DE0049840F6D841C2F28F
:10140000010151F820100DF12E0232F81000081AD7
:101410000090FFE70098ADF81600BDF81800BDF881
:1014200016100844062816DBFFE704980EA931F8C9
:10143000101040F6C442C2F2010242F82010049893
:101440000DF12E0131F8101040F6D842C2F201021F
:1014500042F82010FFE740F69850C2F201000078F1
:10146000702812D1FFE704980EA931F81010119AD4
:1014700002EB4000418004980DF12E0131F810106C
:10148000119A02EB4000818124E047F6FE60C2F22F
:1014900001000088049940F6C442C2F2010252F8E9
:1014A00021205043000B119A02EB4101488047F67E
:1014B0000070C2F201000088049940F6D842C2F2DE
:1014C000010252F821205043000B119A02EB410116
:1014D0008881FFE7FFE7049801300490CCE6FFE73E
:1014E0009DF8430012B080BD81B001468DF8030025
:1014F0009DF80300020902EB820200F00F0000EBEE
:101500004200C0B201B0704780B516F025FC80BD26
:1015100086B04EF69450CEF20000016821F005012D
:1015200001604EF69851CEF2000100220A604EF69C
:101530009C51CEF200011023C2F201030B604EF663
:10154000A051CEF200013D23C0F202330B60052111
:101550000160BFF34F8FBFF36F8F4EF65070CEF226
:1015600000000260BFF34F8FBFF36F8F4EF6145031
:10157000CEF20000016841F480210160BFF34F8F7B
:1015800000688003002801D5FFE71AE0BFF34F8F02
:10159000BFF36F8F4EF65070CEF200000021016055
:1015A000BFF34F8FBFF36F8F4EF61450CEF2000093
:1015B000016841F400310160BFF34F8FBFF36F8FBB
:1015C000FFE74EF68450CEF2000000210160BFF329
:1015D0004F8F4EF68050CEF20000006805900598BF
:1015E000C0F34E300490FFE70598C0F3C9000390A4
:1015F000FFE704980399890760F34D114EF6607078
:10160000CEF2000001600398411E03910028F0D142
:10161000FFE70498411E04910028E5D1FFE7BFF3DE
:101620004F8FBFF36F8F4EF61450CEF2000000685C
:10163000C003002801D5FFE73CE04EF68450CEF20F
:10164000000000210160BFF34F8F4EF68050CEF2B4
:101650000000006802900298C0F34E300190FFE74E
:101660000298C0F3C9000090FFE70198009989072C
:1016700060F34D114EF66070CEF2000001600098EC
:10168000411E00910028F0D1FFE70198411E019111
:101690000028E5D1FFE7BFF34F8F4EF61450CEF28E
:1016A0000000016841F480310160BFF34F8FBFF348
:1016B0006F8FFFE706B0704781B000900098017A05
:1016C000417201B07047000047F60470C2F2010099
:1016D000007870470000000081B000900098C0883A
:1016E00001B070470000000081B000900098808831
:1016F00001B070470000000080B586B00A46059032
:10170000ADF8121005980021016005980172059846
:1017100041720598817205980430BDF812100223B9
:1017200003921A46029308F0ABFE05990631BDF804
:101730001220023292B2019008461146029A08F035
:101740009FFE06B080BD000080B582B001468DF8D6
:1017500006009DF8060000EB400046F6A842C2F2E3
:10176000010202EB8000009100F07AFA002804D018
:10177000FFE700208DF8070016E09DF8060000EB5B
:10178000400046F6A841C2F2010101EB800000F0E2
:1017900073FA002804D0FFE701208DF8070003E06A
:1017A00002208DF80700FFE79DF8070002B080BD1A
:1017B00082B001468DF807009DF80700002200283E
:1017C000009208D4FFE79DF8070000210F28B8BF5A
:1017D00001210091FFE7009800F0010002B070477E
:1017E00080B584B00A4603908DF80B1003980192DF
:1017F00000F0EAF900281CD0FFE7039800F048FA4F
:10180000002804D0FFE7039800214172FFE79DF80C
:101810000B00039908720AF0DFFF03990860039830
:101820000068002804D1FFE7039801210160FFE769
:10183000FFE704B080BD000080B584B00A46039085
:101840008DF80B100398019200F0D6F9002812D001
:10185000FFE70398007A9DF80B1088420BD1FFE751
:101860000398407A9DF80B10884204D1FFE7039853
:1018700000F062F905E003989DF80B10FFF7B0FF48
:10188000FFE704B080BD000080B584B00A4603467F
:101890008DF80F008DF80E109DF80F0000EB400042
:1018A00046F6A841C2F2010101EB80009DF80E103E
:1018B00002920193FFF7C0FF04B080BD000000005A
:1018C00081B0009000980021817201B07047000043
:1018D00080B582B001900198002101720198417297
:1018E000019801600198FFF7EBFF02B080BD000096
:1018F00080B500F069FB46F6A441C2F20101087010
:1019000080BD00000000000080B586B00A4605904A
:10191000ADF8121005980430BDF81210022303929E
:101920001A46029308F0F4FD05990631BDF812201D
:10193000023292B2019008461146029A08F0E8FD80
:1019400006B080BD0000000081B001468DF80300A4
:101950009DF8030046F6A442C2F20102107001B0E5
:10196000704700000000000080B590B000208DF8A6
:1019700012008DF81100FFE79DF811000E2800F30A
:101980009780FFE79DF8110000EB400046F6A84164
:10199000C2F2010101EB80000390039800F014F9FA
:1019A000002801D1FFE77DE0039800F0F5F800285A
:1019B00004D0FFE7039800F0BFF8FFE7039800F0BA
:1019C000DFF800286DD0FFE70020ADF80A0003988B
:1019D00000F052F900280CD1FFE7039800F040F91D
:1019E00000280BD0FFE7039800F022F9002805D06B
:1019F000FFE70398FFF778FE019004E00398FFF7F4
:101A00006BFE0190FFE70198ADF80A009DF80B000E
:101A10009DF812100DF113025054BDF80A009DF804
:101A20001210114448709DF8120002308DF8120017
:101A3000039800F015F9002803D0FFE7002000907C
:101A400008E0039800F018F90221002818BF0121CE
:101A50000091FFE700989DF812104A1C8DF81220A3
:101A60000DF11302505447F22470C2F201000078C5
:101A7000102807D1FFE740F65B00C2F20100012108
:101A80000170FFE7039800F0EBF8002804D0FFE7AF
:101A90000398FFF71DFF03E00398FFF70DFEFFE734
:101AA000FFE7FFE79DF8110001308DF8110063E7B3
:101AB0009DF81200002801D0FFE7FFE710B080BDBD
:101AC00081B000900098002181800098C18000982A
:101AD00001720098417200980160009801600098BE
:101AE000817201B07047000081B001468DF803009B
:101AF0009DF8030047F60472C2F20102107001B0B3
:101B0000704700000000000082B00A460190ADF866
:101B10000210BDF802000199C88002B070470000B1
:101B200082B00A460190ADF80210BDF8020001999A
:101B3000888002B07047000081B0009000980021BA
:101B4000017201B07047000080B582B046F6A44033
:101B5000C2F201000078019000F036FA0199081AEB
:101B6000B0FA80F0400902B080BD00000000000023
:101B700046F6A440C2F20100007870470000000061
:101B800081B000900098017A407A081A18BF0120AD
:101B900001B070470000000080B582B001900AF0EB
:101BA0001BFE01990968401A0090FFF78DFD4FF464
:101BB0007A7148430021009A824228BF01210846D9
:101BC00002B080BD0000000082B0019001988088C2
:101BD00000210028009107D0FFE70198C088002865
:101BE00018BF01200090FFE7009800F0010002B04C
:101BF000704700000000000080B582B0019001989D
:101C0000FFF7E2FF002807D0FFE70198407A00289D
:101C100018BF0120009002E000200090FFE700982C
:101C2000002818BF012002B080BD000000000000A5
:101C300081B000900098407A0138B0FA80F04009F5
:101C400001B070470000000081B000900098007A59
:101C50000238B0FA80F0400901B07047000000007F
:101C600081B000900098007AB0FA80F0400901B08D
:101C7000704700000000000081B000900098007ADA
:101C80000138B0FA80F0400901B070470000000050
:101C900081B000900098807A002818BF012001B020
:101CA000704700000000000080B582B046F65C502E
:101CB000C2F20100002101708DF80710FFE79DF8C6
:101CC00007000E281FDCFFE79DF8070000EB40002F
:101CD00046F6A841C2F2010101EB8000FFF774FF54
:101CE000002808D0FFE746F65C50C2F201000178F8
:101CF0000131017000E006E0FFE79DF807000130C8
:101D00008DF80700DBE702B080BD00000000000096
:101D100080B582B047F60470C2F201004FF4D8716A
:101D2000012208F0ADFB00218DF80710FFE79DF8B8
:101D300007000E2819DCFFE79DF8070000EB4001C3
:101D400046F6A842C2F2010202EB8101932202EBA5
:101D50008000009008460099FFF7CEFCFFE79DF851
:101D6000070001308DF80700E1E7FFF79DFF02B0A3
:101D700080BD00000000000080B582B001468DF8F3
:101D8000070046F65D50C2F2010001220270009188
:101D900000F05EF9002832D0FFE700208DF8060041
:101DA000FFE79DF806000E2828DCFFE79DF80600F7
:101DB00000EB400046F6A841C2F2010101EB8000B1
:101DC000FFF702FF002812D0FFE79DF8070001216E
:101DD000012808BF02219DF8060000EB400046F6EE
:101DE000A842C2F2010202EB80004172FFE7FFE766
:101DF0009DF8060001308DF80600D2E7FFE70020CD
:101E00008DF80500FFE79DF805000E2815DCFFE7BB
:101E10009DF8050000EB400046F6A841C2F2010122
:101E200001EB80009DF80710FFF7DAFCFFE79DF853
:101E3000050001308DF80500E5E702B080BD000027
:101E400080B582B001468DF8070001208DF80600AC
:101E50009DF80700002853D0FFE700208DF805000B
:101E6000FFE79DF805000E2849DCFFE79DF8050017
:101E700000EB400046F6A841C2F2010101EB8000F0
:101E8000FFF7A2FE002833D0FFE79DF8050000EB26
:101E9000400046F6A841C2F2010101EB8000FFF7C5
:101EA000ABFE002820D0FFE79DF8050000EB4000C6
:101EB00046F6A841C2F2010101EB8000007A9DF8CC
:101EC0000710884210D1FFE79DF8050000EB4000A5
:101ED00046F6A841C2F2010101EB8000407A9DF86C
:101EE0000710884204D0FFE700208DF80600FFE7C6
:101EF000FFE79DF8050001308DF80500B1E7FFE729
:101F00009DF80600002803D0FFE700F081F804E008
:101F10009DF80700FFF730FFFFE702B080BD00002B
:101F200080B582B047F60470C2F201004FF4D87158
:101F3000012208F0EDFA00218DF80710FFE79DF867
:101F400007000E2819DCFFE79DF8070000EB4001B1
:101F500046F6A842C2F2010202EB8101932202EB93
:101F60008000009008460099FFF7CEFCFFE79DF83F
:101F7000070001308DF80700E1E7FFF795FE02B09A
:101F800080BD00000000000080B582B000208DF808
:101F90000700FFE79DF807000E2813DCFFE79DF818
:101FA000070000EB400046F6A841C2F2010101EB38
:101FB0008000FFF785FDFFE79DF8070001308DF8F1
:101FC0000700E7E702B080BD46F65C50C2F20100B0
:101FD000007870470000000080B546F69870C2F2A5
:101FE000010009F07DFD4BF20800C4F2020002215D
:101FF000016080BD000000007047C06B1DF0FBBE9B
:10200000000000000000000001471231000001083C
:1020100080B582B000208DF80700FFE79DF807002B
:102020000E2813DCFFE79DF8070000EB400046F6A2
:10203000A841C2F2010101EB8000FFF77DFDFFE73F
:102040009DF8070001308DF80700E7E702B080BD7A
:1020500080B582B000208DF80600FFE79DF80600ED
:102060000E281ADCFFE79DF8060000EB400046F65C
:10207000A841C2F2010101EB8000FFF7BDFD00287D
:1020800004D0FFE701208DF807000AE0FFE79DF884
:10209000060001308DF80600E0E700208DF807000B
:1020A000FFE79DF8070002B080BD000000000000BF
:1020B00080B582B000208DF806008DF80500FFE79E
:1020C0009DF805000E283CDCFFE79DF8050000EBBD
:1020D000400046F6A841C2F2010101EB8000FFF783
:1020E00073FD002813D0FFE79DF8050000EB4000CA
:1020F00046F6A841C2F2010101EB8000FFF7A4FD02
:10210000002804D1FFE700208DF8070021E09DF8AA
:10211000050000EB400046F6A841C2F2010101EBC8
:102120008000FFF751FD002804D0FFE701208DF863
:102130000600FFE7FFE79DF8050001308DF8050078
:10214000BEE79DF80600002818BF01208DF80700A3
:10215000FFE79DF8070002B080BD0000000000000E
:1021600080B582B000208DF806008DF80500FFE7ED
:102170009DF805000E283CDCFFE79DF8050000EB0C
:10218000400046F6A841C2F2010101EB8000FFF7D2
:102190001BFD002813D0FFE79DF8050000EB400071
:1021A00046F6A841C2F2010101EB8000FFF764FD91
:1021B000002804D1FFE700208DF8070021E09DF8FA
:1021C000050000EB400046F6A841C2F2010101EB18
:1021D0008000FFF7F9FC002804D0FFE701208DF80C
:1021E0000600FFE7FFE79DF8050001308DF80500C8
:1021F000BEE79DF80600002818BF01208DF80700F3
:10220000FFE79DF8070002B080BD0000000000005D
:1022100080B5A6B046F69850C2F20100407800069C
:10222000002802D4FFE700F041BC47F26810C2F278
:10223000010047F2B861C2F2010101221D901C9217
:102240000EF076FB47F2B461C2F201011D9A1B90B9
:1022500010461C9A0EF02CFB47F22771C2F20101C6
:10226000097847F22672C2F20102127891424BDBE2
:10227000FFE747F2B860C2F201000078FFF734F9D7
:1022800047F22771C2F201010978884209DBFFE7B2
:1022900046F69850C2F20100016841F40011016055
:1022A00031E047F2B860C2F201000078FFF71CF994
:1022B00047F22671C2F201010978884209DAFFE784
:1022C00046F69850C2F20100016841F40011016025
:1022D00018E046F69850C2F2010080788006002887
:1022E0000FD5FFE746F69850C2F20100016821F4CD
:1022F0000011016047F22470C2F201000721017051
:10230000FFE7FFE7FFE753E047F22770C2F2010063
:10231000007847F22671C2F201010978884246DA54
:10232000FFE747F2B860C2F20100007847F2267179
:10233000C2F20101097800228842B8BF012210468A
:10234000FFF7D2F8002818D0FFE747F2B860C2F2D2
:1023500001000078FFF7C8F847F22771C2F20101C7
:102360000978884209DBFFE746F69850C2F201007F
:10237000016841F40011016018E046F69850C2F27D
:1023800001008078800600280FD5FFE746F69850B8
:10239000C2F20100016821F40011016047F22470CB
:1023A000C2F2010007210170FFE7FFE7FFE7FFE747
:1023B00046F69850C2F2010080788007002840F16C
:1023C000DE82FFE746F69850C2F201008078800670
:1023D000002840F1D482FFE746F69850C2F201008F
:1023E00080784007002840F1CA82FFE746F69850FF
:1023F000C2F201008078400600280DD5FFE740F6C4
:10240000FC40C2F20100007847F2B461C2F201015F
:102410000978884241D0FFE746F69850C2F20100A1
:10242000016841F48001016000201A901FF05AF801
:102430001A981FF00BFB19901DF003FF1A981FF05C
:10244000C3F8012018901FF04DF818981FF0FEFAFD
:102450004FF07F41179008461FF010FB1DF0F1FE72
:1024600040F65900C2F201003C21017047F2B4600D
:10247000C2F20100007840F6FC41C2F2010108708E
:1024800009201FF059FB4FF47F41169008461FF0BA
:10249000F7FA18981FF098F8FFE747F2B860C2F211
:1024A00001001EA902221590084615990FF02CFA7A
:1024B00015988178C907002904D0FFE73A208DF8E4
:1024C0007A0003E020208DF87A00FFE71EA8C11CE7
:1024D00047F2B862C2F201020132022314900846A8
:1024E00011461A460FF010FAF02088211EF040FC29
:1024F00047F22571C2F20101097840F2A872C2F2D6
:10250000010252F82110139008461FF0B9FA43F661
:102510001800C0F604001FF0C1FA0E211290084600
:102520001FF012FB0121119008461EF0DBFF002076
:1025300050214FF4F072C02310901DF091FEDC2169
:1025400064224FF4877310981DF08AFE14981DF0D2
:10255000D7FF47F2B460C2F201000078002807D12B
:10256000FFE747F2B460C2F2010007210170FFE704
:1025700047F2B460C2F20100007801280FD1FFE7F2
:1025800042F22000ADF8800046F26E40C7F66110BE
:102590001F9042F22000C6F64D701E908FE047F269
:1025A000B460C2F20100007802280FD1FFE742F2C6
:1025B0007900ADF8800047F27340C6F264101F90B6
:1025C00045F22040C6F275501E9077E047F2B460A5
:1025D000C2F20100007803280FD1FFE742F2790030
:1025E000ADF8800047F26530C6F264101F9046F2E5
:1025F0005750C6F664601E905FE047F2B460C2F2C6
:102600000100007804280FD1FFE742F27900ADF80D
:10261000800047F27340C6F264101F9046F65400E3
:10262000C7F275201E9047E047F2B460C2F2010085
:10263000007805280FD1FFE742F22000ADF88000B6
:1026400046F26940C7F661101F9042F22000C7F2BF
:1026500046201E902FE047F2B460C2F201000078DD
:1026600006280FD1FFE742F27900ADF8800047F26B
:102670007520C6F264101F9045F22030C7F2614009
:102680001E9017E047F2B460C2F2010000780728FC
:102690000FD1FFE742F22000ADF8800046F26E4015
:1026A000C7F661101F9042F22000C7F253501E90EF
:1026B000FFE7FFE7FFE7FFE7FFE7FFE7FFE71EA80A
:1026C0000A3047F2B461C2F201018A1C02230F9161
:1026D00011461A460FF018F90F98417801290FD1C9
:1026E000FFE742F27900ADF88C0047F26E50C7F276
:1026F0006120229042F22E00C6F24A10219007E19A
:1027000047F2B460C2F20100407802280FD1FFE71F
:1027100047F67210ADF88C0047F26220C6F27510D1
:10272000229042F22E00C6F246502190EFE047F28E
:10273000B460C2F20100407803280FD1FFE742F2F3
:102740002000ADF88C0047F26120C6F663002290AD
:1027500042F22E00C4F620502190D7E047F2B46038
:10276000C2F20100407804280FD1FFE742F22000B6
:10277000ADF88C0047F27020C6F66940229042F214
:102780002E00C4F220102190BFE047F2B460C2F2E4
:102790000100407805280FD1FFE742F22000ADF894
:1027A0008C0046F24D10C2F27900229042F22E00C7
:1027B000C2F220002190A7E047F2B460C2F201000B
:1027C000407806280FD1FFE742F22000ADF88C00D8
:1027D00047F24A50C6F26E50229042F22E00C2F2E8
:1027E000200021908FE047F2B460C2F201004078EF
:1027F00007280FD1FFE742F22000ADF88C0047F226
:102800004A50C7F66C10229042F22E00C2F220000D
:10281000219077E047F2B460C2F2010040780828C6
:102820000FD1FFE742F22000ADF88C0047F267506D
:10283000C7F27340229042F22E00C7F2415021901D
:102840005FE047F2B460C2F20100407809280FD17E
:10285000FFE747F26520ADF88C0046F27450C6F2EF
:102860006D20229045F22E30C7F26500219047E09E
:1028700047F2B460C2F20100407810280FD1FFE7A0
:1028800042F27200ADF88C0046F67470C6F26250E7
:10289000229042F22E00C6F24F3021902FE047F2F4
:1028A000B460C2F20100407811280FD1FFE747F26F
:1028B0006520ADF88C0046F27650C6F26D2022906D
:1028C00042F22E00C6F64E70219017E047F2B46037
:1028D000C2F20100407812280FD1FFE747F26520CD
:1028E000ADF88C0046F26350C6F26D20229042F2A1
:1028F0002E00C6F244502190FFE7FFE7FFE7FFE715
:10290000FFE7FFE7FFE7FFE7FFE7FFE7FFE7FFE797
:1029100030208DF8900043F22020ADF88E001EA8E4
:1029200000F1190147F2B462C2F20102033202233C
:102930000E90084611461A460EF0E6FF2E208DF83E
:10294000930000208DF894004AF6F830C0F603009A
:102950001FF0A4F8F021CE220D90084611461EF07B
:1029600007FA0E210C9008461FF0EEF80E990B9016
:1029700008461DF0C5FD01201EF026FE60E040F671
:102980005900C2F20100007847F2B861C2F20101B9
:102990004978884253D0FFE747F2B860C2F201009D
:1029A000014611F8012F40F65903C2F201031A70D3
:1029B0001EAA02230A901046DDF828C0099161463C
:1029C00008921A4607930EF09FFF3A208DF87A007E
:1029D000089803300999079A0EF096FF4CF62820C4
:1029E000C0F603001FF05AF86FF07F4106900846CA
:1029F0001FF046F807981FF0B1F80C210590084623
:102A00001FF0A2F801210490084603911EF06AFD10
:102A10000520F5211EF0ACF90021DC2264234FF4DF
:102A2000877C0290084611461A4663461DF018FC42
:102A300008981DF065FD03981EF0C6FDFFE7FFE74F
:102A400040F6FC40C2F20100007847F2B461C2F2E5
:102A500001010978884229D0FFE747F2B460C2F249
:102A60000100017840F6FC42C2F201021170827846
:102A700047F26811C2F20101022301900846009159
:102A800019460DF04DFE01984278032100980DF093
:102A900047FE01980278042100980DF041FE01984C
:102AA000C278052100980DF03BFEFFE726B080BDFF
:102AB00080B582B001468DF806009DF80600012819
:102AC00016D1FFE740F6FD40C2F201000078002871
:102AD0000ED1FFE740F6FD40C2F201000121017076
:102AE00009F07AFE40F60051C2F20101086039E0B7
:102AF0009DF8060001281FD1FFE740F6FD40C2F215
:102B000001000078012817D1FFE709F065FE40F6C3
:102B10000051C2F201010968401AB0F5586F0AD39A
:102B2000FFE740F6FD40C2F20100002101700120E4
:102B30008DF807001AE014E09DF8060000280FD178
:102B4000FFE740F6FD40C2F201000078012807D1FE
:102B5000FFE740F6FD40C2F2010000210170FFE7EF
:102B6000FFE7FFE700208DF80700FFE79DF807006B
:102B700002B080BD0000000080B546F69850C2F259
:102B8000010080788007002810D5FFE746F69850AE
:102B9000C2F2010080788006002807D5FFE747F2DF
:102BA0002470C2F2010007210170FFE746F6985039
:102BB000C2F20100016821F400310160016821F4D2
:102BC0008001016009F008FE47F22871C2F201019C
:102BD000086047F22C70C2F201001E21017047F21A
:102BE0007000C2F20100007800F002F880BD000021
:102BF00081B001468DF803009DF80300042804DC31
:102C0000FFE705208DF8030009E09DF80300512837
:102C100004DBFFE750208DF80300FFE7FFE79DF896
:102C2000030000EB8000400047F28811C2F201016E
:102C30000968486301B0704780B586B001200590EF
:102C40001EF050FCC32091214FF4A072EB231DF025
:102C500007FB6FF07F401EF013FF4FF68860C0F651
:102C600003001EF01BFF0021049008461EF076FFB3
:102C70000599039008461EF067FFC821962202902E
:102C8000084611461EF074F847F6DC61C2F20101F5
:102C9000897A02220190084611461DF0F1FB059841
:102CA0001EF092FC06B080BD80B586B01EF068F8BC
:102CB00044F69911C0F60101059008461EF022FD68
:102CC0000120049024F09CF803901FF08FF800205E
:102CD0001EF0BCFE02901DF0B4FA04981EF0B6FE81
:102CE0004FF07F41019008461EF0C8FE1DF0A9FA82
:102CF00040F69C50C2F20100302114F029FF40F64A
:102D0000E050C2F20100502114F022FF46F68E403E
:102D1000C2F201004FF4E371049A07F0B1FB009096
:102D200009F05AFD46F6A051C2F2010108601DF0FB
:102D30009BFE06B080BD000080B5ADF5B96D09F011
:102D40004BFD40F61051C2F201010968401A642897
:102D50000AD3FFE709F040FD40F61051C2F201012D
:102D600008601DF081FEFFE747F2A860C2F2010093
:102D70000078C007002845D0FFE740F26470C2F237
:102D80000100007800283BD1FFE740F26470C2F2F6
:102D90000100012101700846CDF888151EF0A2FB44
:102DA0001DF04FFA4AF6F830C0F603001EF076FE2A
:102DB0004AF2FF51CDF8840508461EF061FE02205C
:102DC0001EF0CCFE0E21CDF8800508461EF0BCFE9C
:102DD000F0218722CDF87C05084611461DF0C8FF7A
:102DE00043F27771C0F60501CDF8780508461DF06D
:102DF00087FBDDF888051EF0E7FBFFF7BDFEFFE768
:102E000004F0C1BB40F26470C2F2010000780128F6
:102E10000CD1FFE740F26470C2F2010000210170A2
:102E200047F22870C2F2010001605BE040F264707A
:102E3000C2F201000078022853D1FFE740F264702B
:102E4000C2F20100002101700120CDF874051EF0CE
:102E500049FB1DF0F6F909201EF06EFEFF21CDF8AA
:102E6000700508461EF00CFEF02088213222CDF8B5
:102E70006C25DDF86C351DF01BFC4FF4C8704FF469
:102E8000E1711422CDF86805CDF864151146DDF81E
:102E90006435CDF860251A46DDF860351DF02EFD4D
:102EA0002820DDF86815CDF85C050846DDF85C15CE
:102EB000DDF86425DDF85C351DF020FD3C20DDF8F3
:102EC0006815CDF858050846DDF85815DDF8642575
:102ED000DDF858351DF012FDDDF874051EF074FBA9
:102EE000FFE7FFE7FFE747F22470C2F20100007836
:102EF00001461528CDF8541504F27C81DDF85415EF
:102F0000DFE811F00C2116004E02A90384086C0AB8
:102F1000980B110E760E2F10CD124D1503163D167F
:102F20004317EF1AE41B291D4D1E301FA01F53200D
:102F300040F61450C2F2010000680028CDF8500598
:102F40000CD0FFE7DDF85005012800F01A81FFE7FB
:102F5000DDF85005022800F03081F3E147F2B0704F
:102F6000C2F201000121017000208DF8B705FFE7D2
:102F70009DF8B705CDF84C0510F062FEDDF84C1554
:102F800081422CDAFFE79DF8B70500EBC00047F25D
:102F90003841C2F2010101EB800010F029FD002848
:102FA00016D0FFE79DF8B70500EBC00047F23841A7
:102FB000C2F2010101EB800010F0D2FC002807D022
:102FC000FFE747F2B070C2F201000021017006E095
:102FD000FFE79DF8B70501308DF8B705C8E747F260
:102FE000B070C2F20100007801460028CDF8481503
:102FF00005D0FFE7DDF8480501285BD05BE040F62F
:103000001450C2F20100012101600846CDF84415B8
:103010001EF068FA1DF015F909201EF08DFD4FF421
:103020007F41CDF8400508461EF02AFDF02088219A
:103030003222CDF83C25DDF83C351DF039FB4FF44C
:10304000C8704FF4E1711422CDF83805CDF834156D
:103050001146DDF83435CDF830251A46DDF8303527
:103060001DF04CFC2820DDF83815CDF82C0508465D
:10307000DDF82C15DDF83425DDF82C351DF03EFC8F
:103080003C20DDF83815CDF828050846DDF8281570
:10309000DDF83425DDF828351DF030FCDDF8440579
:1030A0001EF092FA09F098FB40F61C51C2F20101A1
:1030B00008605AE0FFE740F61450C2F20100042114
:1030C00001600120CDF824051EF00CFA1DF0B9F8BE
:1030D00009201EF031FDFF21CDF8200508461EF025
:1030E000CFFCF02088213222CDF81C25DDF81C35DC
:1030F0001DF0DEFA4FF4C8704FF4E1711422CDF8E0
:103100001805CDF814151146DDF81435CDF8102545
:103110001A46DDF810351DF0F1FB2820DDF81815F2
:10312000CDF80C050846DDF80C15DDF81425DDF8A2
:103130000C351DF0E3FB3C20DDF81815CDF8080533
:103140000846DDF80815DDF81425DDF808351DF012
:10315000D5FBDDF824051EF037FA09F03DFB40F6FB
:103160001C51C2F201010860FFE740F61450C2F2A0
:1031700001000021016047F22470C2F201000170D9
:10318000E0E009F029FB40F61C51C2F20101096898
:10319000401AB0F5FA7F0FD3FFE740F61450C2F2A1
:1031A000010001680131016009F016FB40F634515D
:1031B000C2F201010860FFE7C4E009F00DFB40F630
:1031C0003451C2F201010968401A0F28C0F0B980D9
:1031D000FFE709F001FB40F63451C2F2010108603B
:1031E00040F62C50C2F2010000680028CDF804051A
:1031F00005D0FFE7DDF80405012850D050E040F687
:103200009C50C2F20100807DFE2808DCFFE740F6FA
:103210009C50C2F20100817D01318175FFE740F6CB
:103220009C50C2F20100807EFE2808DCFFE740F6D9
:103230009C50C2F20100817E01318176FFE740F6A9
:103240009C50C2F20100807FFE2808DCFFE740F6B8
:103250009C50C2F20100817F01318177FFE740F687
:103260009C50C2F20100807DFF2817D1FFE740F695
:103270009C50C2F20100807EFF280FD1FFE740F68C
:103280009C50C2F20100807FFF2807D1FFE740F683
:103290002C50C2F2010001210160FFE750E0FFE77E
:1032A00040F69C50C2F20100807D002808D0FFE764
:1032B00040F69C50C2F20100817D01398175FFE723
:1032C00040F69C50C2F20100807E002808D0FFE743
:1032D00040F69C50C2F20100817E01398176FFE701
:1032E00040F69C50C2F20100807F002808D0FFE722
:1032F00040F69C50C2F20100817F01398177FFE7DF
:1033000040F69C50C2F20100807D002817D1FFE7F3
:1033100040F69C50C2F20100807E00280FD1FFE7EA
:1033200040F69C50C2F20100807F002807D1FFE7E1
:1033300040F62C50C2F2010000210160FFE7FFE7D8
:10334000FFE7FFE709F048FA47F22871C2F20101EE
:10335000086047F21750C2F201000021017047F2E5
:103360001350C2F20100017047F21650C2F2010080
:10337000017047F21550C2F20100017047F214507B
:10338000C2F20100017040F65900C2F201003C2275
:10339000027047F2D060C2F20100016003F04ABF40
:1033A00047F21450C2F201000078002840F0518129
:1033B000FFE747F21450C2F20100017801310170B9
:1033C0000120CDF800051EF08DF800201EF03EFB18
:1033D000CDF8FC041CF035FFDDF800051EF036FBCF
:1033E0004FF07F41CDF8F80408461EF047FB1CF073
:1033F00028FF09201EF0A0FBFF21CDF8F4040846A9
:103400001EF03EFB4FF4C8704FF4E1711422CDF86A
:10341000F004CDF8EC141146DDF8EC34CDF8E824D6
:103420001A46DDF8E8341DF069FA2820DDF8F014BA
:10343000CDF8E4040846DDF8E414DDF8EC24DDF80A
:10344000E4341DF05BFA3C20DDF8F014CDF8E00424
:103450000846DDF8E014DDF8EC24DDF8E0341DF07A
:103460004DFA0A204FF4BE714FF48373CDF8DC049B
:103470000846DDF8DC24CDF8D8141146DDF8D82450
:103480001DF03CFA1E204FF4AF728821CDF8D41401
:10349000DDF8D4341DF032FABE20FC23CDF8D00480
:1034A000DDF8E814DDF8D0241DF028FA42F6CC70DF
:1034B000C0F6050040F281119F221DF0D3F842F6BC
:1034C000C860C0F605003721CDF8CC14DDF8DC2447
:1034D0001DF0C8F842F61870C0F60500F5210F225D
:1034E0001DF0C0F842F66870C0F605009622DDF8BF
:1034F000CC141DF0B7F806F097FD002809D0FFE7BF
:1035000042F6A470C0F60500F0219B221DF0AAF837
:1035100008E042F69070C0F60500F0219B221DF0F5
:10352000A1F8FFE74AF6F830C0F603001EF0B6FA3D
:103530004AF2FF51CDF8C80408461EF0A1FA022055
:10354000CDF8C4041EF00AFB0E21CDF8C0040846D5
:10355000CDF8BC141EF0F8FA5F216E22CDF8B80445
:103560000846CDF8B4141146CDF8B0241DF000FC87
:103570001421CDF8AC04084619F0BEFC47F2AA208D
:10358000C2F20100CDF8A8041CF0BAFFDDF8BC04BB
:103590001EF0DAFA40F21D11CDF8A4040846DDF859
:1035A000B024CDF8A01411461DF0E2FBDDF8C414E0
:1035B000CDF89C04084619F09FFCDDF8A8041CF027
:1035C0009FFFDDF8BC041EF0BFFAFA21DDF8B42439
:1035D000CDF898041046CDF894141DF0C9FB1521C0
:1035E000CDF89004084619F087FCDDF8A8041CF01B
:1035F00087FFDDF8BC041EF0A7FADDF8A014CDF8B3
:103600008C040846DDF894141DF0B2FB3521CDF88A
:103610008804084619F070FCDDF8A8041CF070FF5F
:1036200001201DF0D1FF47F21750C2F20100002126
:10363000017047F21350C2F20100017047F21650B8
:10364000C2F20100017047F21550C2F20100017090
:10365000FFE703F0EFBD47F21350C2F2010000781C
:1036600001460328CDF8841400F2CE84DDF88414DA
:10367000DFE811F004008C01D101BC0247F21350C5
:10368000C2F2010001780131017001201DF02AFF12
:103690001CF0D7FD05201EF04FFAFF21CDF8800465
:1036A00008461EF0EDF9DC2078214FF48872CDF841
:1036B0007C040846DDF87C34CDF878141946DDF832
:1036C00078C4CDF874246246DDF874341DF016F920
:1036D000F020CDF87004DDF87C14DDF87024DDF8FE
:1036E00074341DF00BF94FF4B470CDF86C04DDF8B0
:1036F0007C14DDF86C24DDF874341DF0FFF842F61C
:103700000470C0F605004121D722CDF868241CF0D2
:10371000A9FF42F6F060C0F60500B921CDF86404B7
:10372000DDF868241CF09EFF40F23111DDF86404DE
:10373000DDF868241CF096FF42F6B460C0F6050080
:103740004FF4C871BE221CF08DFF40F69C50C2F2AF
:103750000100807D00280CD0FFE742F6DC60C0F657
:1037600005003C21CDF86014DDF860241CF07AFFE0
:103770000BE042F6C860C0F605003C21CDF85C14B1
:10378000DDF85C241CF06EFFFFE740F69C50C2F2AF
:103790000100807E002809D0FFE742F6DC60C0F619
:1037A0000500C8213C221CF05DFF08E042F6C8601D
:1037B000C0F60500C8213C221CF054FFFFE740F68C
:1037C0009C50C2F20100807F00280AD0FFE742F639
:1037D000DC60C0F605004FF4AA713C221CF042FFE9
:1037E00009E042F6C860C0F605004FF4AA713C2219
:1037F0001CF038FFFFE74AF6F830C0F603001EF071
:103800004DF94AF2FF51CDF8580408461EF038F938
:1038100002201EF0A3F90C21CDF8540408461EF036
:1038200093F90521FA22CDF8500408461146CDF847
:103830004C241DF09DFA43F26B71C0F60501CDF8E2
:10384000480408461CF05CFE8720DDF84C141DF08F
:103850008FFA43F22341C0F60501CDF8440408462F
:103860001CF04EFEFF20DDF84C141DF081FA43F2EF
:10387000CA71C0F60501CDF8400408461CF040FEB0
:103880000F201EF061F964212822CDF83C0408467F
:1038900011461DF06DFA40F69C51C2F20101897D7E
:1038A000002914D0FFE740F69C50C2F20100807D51
:1038B0006421484348F28101C8F28001A0FB010164
:1038C000C909CDF8380408461CF0EEFDFFE7F020EA
:1038D00028211DF04DFA40F69C51C2F20101897E6B
:1038E000002914D0FFE740F69C50C2F20100807E10
:1038F0006421484348F28101C8F28001A0FB010124
:10390000C909CDF8340408461CF0CEFDFFE74FF49A
:10391000BE7028211DF02CFA40F69C51C2F2010124
:10392000897F002914D0FFE740F69C50C2F20100C5
:10393000807F6421484348F28101C8F28001A0FBE6
:103940000101C909CDF8300408461CF0ADFDFFE7C0
:1039500001201DF039FE47F21750C2F2010000218C
:10396000017047F21650C2F20100017047F2155083
:10397000C2F20100017047F21450C2F2010001705E
:1039800040F60450C2F2010001703DE346F69E404D
:10399000C2F201000078002810D1FFE746F69F40F0
:1039A000C2F201000078002808D1FFE746F6A040E7
:1039B000C2F20100007800282CD0FFE746F69E40B6
:1039C000C2F20100007840F60451C2F20101087011
:1039D00046F69F40C2F20100007840F60551C2F25F
:1039E0000101087046F6A040C2F20100007840F6DE
:1039F0000651C2F20101087047F21350C2F20100F1
:103A00000221017008F0E8FE40F60851C2F20101FF
:103A10000860FFE7F8E208F0DFFE40F60851C2F266
:103A200001010968401AB0F57A7F1FD3FFE708F05B
:103A3000D3FE40F63451C2F20101086047F2135040
:103A4000C2F2010001780131017040F60450C2F267
:103A500001000021017040F60550C2F20100017022
:103A600040F60650C2F201000170BEE046F69E40EC
:103A7000C2F201000078002840F0B680FFE746F669
:103A80009F40C2F201000078002840F0AD80FFE7BF
:103A900046F6A040C2F201000078002840F0A48061
:103AA000FFE740F60450C2F20100007800280FD072
:103AB000FFE740F69C50C2F20100807D002807D04D
:103AC000FFE740F69C50C2F201000021817517E02B
:103AD00040F60450C2F20100007800280FD0FFE742
:103AE00040F69C50C2F20100807D002807D1FFE71C
:103AF00040F69C50C2F20100FF218175FFE7FFE70D
:103B000040F60550C2F20100007800280FD0FFE710
:103B100040F69C50C2F20100807E002807D0FFE7EB
:103B200040F69C50C2F201000021817617E040F679
:103B30000550C2F20100007800280FD0FFE740F6E0
:103B40009C50C2F20100807E002807D1FFE740F6BA
:103B50009C50C2F20100FF218176FFE7FFE740F6AB
:103B60000650C2F20100007800280FD0FFE740F6AF
:103B70009C50C2F20100807F002807D0FFE740F68A
:103B80009C50C2F201000021817717E040F60650F8
:103B9000C2F20100007800280FD0FFE740F69C50E9
:103BA000C2F20100807F002807D1FFE740F69C5059
:103BB000C2F20100FF218177FFE7FFE747F21350D0
:103BC000C2F201000021017040F60450C2F201006F
:103BD000017040F60550C2F20100017040F6065037
:103BE000C2F201000170FFE7FFE70DE246F69E40DA
:103BF000C2F201000078002817D1FFE746F69F4087
:103C0000C2F20100007800280FD1FFE746F6A0407D
:103C1000C2F201000078002807D1FFE747F21350F5
:103C2000C2F2010000210170EDE108F0D5FD40F67F
:103C30003451C2F201010968401A0F28C0F0E28134
:103C4000FFE708F0C9FD40F63451C2F201010860F7
:103C500046F69E40C2F201000078002800F09E80E7
:103C6000FFE701201DF03EFC40F60C50C2F20100BF
:103C700000680028CDF82C0405D0FFE7DDF82C04FF
:103C800001282CD02CE040F69C50C2F20100807D2F
:103C900000280CD1FFE742F6DC60C0F605003C21AD
:103CA000CDF82814DDF828241CF0DCFCFFE740F6F2
:103CB0009C50C2F20100807DFE2808DCFFE740F640
:103CC0009C50C2F20100817D0131817506E040F611
:103CD0000C50C2F2010001210160FFE731E0FFE773
:103CE00040F69C50C2F20100807D002808D0FFE71A
:103CF00040F69C50C2F20100817D013981751FE0C0
:103D000040F60C50C2F20100002101603C20A021CD
:103D1000CDF82404DDF82424CDF820141146DDF874
:103D20002024DDF820341CF09BFA42F6C860C0F66F
:103D30000500DDF82414DDF824241CF093FCFFE7D3
:103D4000FFE764201E21C8223223CDF81C041CF09A
:103D500087FA2821DDF81C041DF00AF80F21CDF8A0
:103D6000180408461DF0F0FE40F69C51C2F2010115
:103D7000897DDDF81C24514348F28103C8F2800399
:103D8000A1FB0313DB09CDF814041846CDF8101479
:103D90001CF08AFB01201DF017FC32E146F69F4023
:103DA000C2F201000078002800F09280FFE70120B5
:103DB0001DF098FB40F60C50C2F20100006800288C
:103DC000CDF80C0405D0FFE7DDF80C04012829D05C
:103DD00029E040F69C50C2F20100807E002809D103
:103DE000FFE742F6DC60C0F60500C8213C221CF06B
:103DF00039FCFFE740F69C50C2F20100807EFE28AD
:103E000008DCFFE740F69C50C2F20100817E0131E0
:103E1000817606E040F60C50C2F2010001210160FB
:103E2000FFE72DE0FFE740F69C50C2F20100807EE4
:103E3000002808D0FFE740F69C50C2F20100817EC6
:103E4000013981761BE040F60C50C2F201000021DE
:103E50000160C8203C214FF49672A023CDF80804DD
:103E6000CDF804141CF0FCF942F6C860C0F6050059
:103E7000DDF80814DDF804241CF0F4FBFFE7FFE78D
:103E8000DC201E214FF4A07232231CF0E9F9F0204F
:103E900028211CF06DFF0F21CDF8000408461DF00D
:103EA00053FE40F69C51C2F20101897E64225143C7
:103EB00048F28102C8F28002A1FB0212D209FF90EF
:103EC0001046FE911CF0F0FA01201DF07DFB97E0FA
:103ED00046F6A040C2F201000078002800F08F8072
:103EE000FFE701201DF0FEFA40F60C50C2F201007F
:103EF00000680028FD9004D0FFE7FD9801282AD033
:103F00002AE040F69C50C2F20100807F00280AD1CE
:103F1000FFE742F6DC60C0F605004FF4AA713C22D0
:103F20001CF0A0FBFFE740F69C50C2F20100807F2E
:103F3000FE2808DCFFE740F69C50C2F20100817FBA
:103F40000131817706E040F60C50C2F201000121F8
:103F50000160FFE72AE0FFE740F69C50C2F2010053
:103F6000807F002808D0FFE740F69C50C2F2010095
:103F7000817F0139817718E040F60C50C2F20100D0
:103F8000002101604FF4AA703C214FF4DC72A023A1
:103F9000FC90FB911CF064F942F6C860C0F6050085
:103FA000FC99FB9A1CF05EFBFFE7FFE74FF4AA7059
:103FB0001E214FF4DC7232231CF052F94FF4BE7014
:103FC00028211CF0D5FE0F21FA9008461DF0BCFDFB
:103FD00040F69C51C2F20101897F6422514348F2AC
:103FE0008102C8F28002A1FB0212D209F9901046A8
:103FF000F8911CF059FA01201DF0E6FAFFE7FFE7FF
:10400000FFE7FFE7FFE7FFE703F014B947F21650B9
:10401000C2F201000078002840F0FD80FFE747F27F
:104020001650C2F2010001780131017001201DF02B
:1040300059FA1CF006F90520F7901DF07DFDFF21CF
:10404000F6900846F5911DF01BFDDC2078214FF419
:104050008872F4900846F49BF3911946DDF8CCC3BE
:10406000F2926246F29B1CF049FCF020F190F49928
:10407000F19AF29B1CF042FC4FF4B470F090F4996A
:10408000F09AF29B1CF03AFC42F6F060C0F6050094
:104090004121D722EF90EE921CF0E4FA42F6047030
:1040A000C0F60500B921EE9A1CF0DCFA40F231119D
:1040B000EF98EE9A1CF0D6FA42F6B460C0F605000E
:1040C0004FF4C871BE221CF0CDFA4AF6F830C0F6A3
:1040D00003001DF0E3FC4AF2FF51ED9008461DF08D
:1040E000CFFC02201DF03AFD0C21EC9008461DF09B
:1040F0002BFDFA21F79AEB901046EA911CF038FE5E
:1041000043F26B71C0F60501E99008461CF0F8F91E
:104110008720EA991CF02CFE43F22341C0F60501EA
:10412000E89008461CF0ECF9F598EA991CF020FE9E
:1041300043F2CA71C0F60501E79008461CF0E0F9A9
:1041400040F69C50C2F20100807900280AD0FFE7B7
:1041500042F6DC60C0F605003C21E691E69A1CF0D0
:1041600081FA09E042F6C860C0F605003C21E591FD
:10417000E59A1CF077FAFFE740F69C50C2F2010086
:10418000807A002809D0FFE742F6DC60C0F605001F
:10419000C8213C221CF066FA08E042F6C860C0F66E
:1041A0000500C8213C221CF05DFAFFE740F69C5058
:1041B000C2F20100807B00280AD0FFE742F6DC60F3
:1041C000C0F605004FF4AA713C221CF04BFA09E03E
:1041D00042F6C860C0F605004FF4AA713C221CF0FC
:1041E00041FAFFE701201DF0EFF947F21750C2F244
:1041F00001000021017047F21350C2F2010001706A
:1042000047F21550C2F20100017047F21450C2F299
:1042100001000170E0E047F21650C2F201000078A0
:10422000012840F0AF80FFE746F69E40C2F2010051
:10423000007800280FD0FFE740F69C50C2F2010042
:104240008079002807D0FFE740F69C50C2F20100B9
:104250000021817117E046F69E40C2F2010000780D
:1042600000280FD0FFE740F69C50C2F20100807991
:10427000002807D1FFE740F69C50C2F2010001215F
:104280008171FFE7FFE746F69F40C2F20100007828
:1042900000280FD0FFE740F69C50C2F20100807A60
:1042A000002807D0FFE740F69C50C2F20100002131
:1042B000817217E046F69F40C2F2010000780028A4
:1042C0000FD0FFE740F69C50C2F20100807A002830
:1042D00007D1FFE740F69C50C2F201000121817234
:1042E000FFE7FFE746F6A040C2F201000078002891
:1042F0000FD0FFE740F69C50C2F20100807B0028FF
:1043000007D0FFE740F69C50C2F201000021817304
:1043100017E046F6A040C2F20100007800280FD056
:10432000FFE740F69C50C2F20100807B002807D1D5
:10433000FFE740F69C50C2F2010001218173FFE7C4
:10434000FFE746F69E40C2F201000078002810D137
:10435000FFE746F69F40C2F201000078002808D12E
:10436000FFE746F6A040C2F201000078002808D01E
:10437000FFE747F21650C2F20100017801310170E7
:10438000FFE728E047F21650C2F201000078022849
:1043900020D1FFE746F69E40C2F2010000780028D7
:1043A00017D1FFE746F69F40C2F2010000780028CF
:1043B0000FD1FFE746F6A040C2F2010000780028C6
:1043C00007D1FFE747F21650C2F201000021017049
:1043D000FFE7FFE7FFE7FFE702F02CBF47F21550CA
:1043E000C2F201000078002840F0C480FFE747F2E5
:1043F0001550C2F2010001780131017001201DF059
:1044000071F81BF01EFF05201DF096FBFF21E490C4
:1044100008461DF035FBDC2078214FF48872E390CC
:104420000846E39BE2911946DDF888C3E1926246B3
:10443000E19B1CF063FAF020E090E399E09AE19BA5
:104440001CF05CFA4FF4B470DF90E399DF9AE19BC3
:104450001CF054FA40F69C50C2F20100807C002807
:1044600009D0FFE742F6DC60C0F60500C8213C2217
:104470001CF0F8F808E042F6C860C0F60500C82154
:104480003C221CF0EFF8FFE742F6F060C0F60500B2
:104490004121D722DE90DD921CF0E4F8B921DE98AC
:1044A000DD9A1CF0DFF842F60470C0F6050040F219
:1044B0003111DD9A1CF0D6F842F6B460C0F6050062
:1044C0004FF4C871BE221CF0CDF84AF6F830C0F6A1
:1044D00003001DF0E3FA4AF2FF51DC9008461DF09C
:1044E000CFFA02201DF03AFB0C21DB9008461DF0AC
:1044F0002BFB0521FA22DA9008461146D9921CF0CE
:1045000037FC43F26B71C0F60501D89008461BF0EA
:10451000F7FF8720D9991CF02BFC43F22341C0F60A
:104520000501D79008461BF0EBFFFF20D9991CF03E
:104530001FFC43F2CA71C0F60501D69008461BF075
:10454000DFFF01201DF040F847F21750C2F20100D2
:104550000021017047F21350C2F20100017047F2CE
:104560001650C2F20100017047F21450C2F201006D
:1045700001705DE047F21550C2F201000078012899
:104580003CD1FFE746F69F40C2F2010000780028C8
:1045900033D0FFE740F69C50C2F20100807C002837
:1045A0000ED1FFE740F69C50C2F201000121817458
:1045B00008F012F940F62051C2F20101086014E03F
:1045C00040F69C50C2F20100807C00280CD0FFE72E
:1045D00040F69C50C2F201000021817440F6205048
:1045E000C2F201000160FFE7FFE747F21550C2F297
:1045F0000100017801310170FFE718E047F2155022
:10460000C2F201000078022810D1FFE746F69F4071
:10461000C2F201000078002807D1FFE747F21550E9
:10462000C2F2010000210170FFE7FFE7FFE7FFE7AB
:1046300002F000BE01201CF055FF47F21750C2F2F5
:1046400001000078002865D1FFE747F21750C2F259
:1046500001000178013101700020D5901CF042FF6B
:10466000D5981DF0F3F9D599D49008461DF008FAB5
:104670001BF0E7FD41F69010C9F20500D599D59AD7
:104680001BF0B8FC4FF4AF7150224FF4F0734FF0B1
:10469000B40CD390084611461A466346CDF848C379
:1046A0001BF0DEFD4FF49B704FF4D272CD23D299F4
:1046B0001BF0D6FDD5981CF087FF01201DF0C6F930
:1046C0004FF07F41D19008461DF0D8F91BF0B9FD9D
:1046D000FEF7B2FAFDF79CFD46F69850C2F20100D3
:1046E000016841F48011016047F21350C2F20100E9
:1046F000D599017047F21650C2F20100017047F2DD
:104700001550C2F20100017047F21450C2F20100CC
:104710000170C2E147F21750C2F20100007801288F
:1047200040F0BA81FFE746F69540C2F201000078FA
:1047300000281AD0FFE746F68D40C2F2010000784B
:10474000002812D1FFE746F68D40C2F20100012198
:10475000017016F081F947F6DC60C2F201007021A9
:1047600013F052FCFEF768FA17E046F69540C2F2E5
:104770000100007800280FD1FFE746F68D40C2F215
:1047800001000078002807D0FFE746F68D40C2F20E
:10479000010000210170FFE7FFE746F69440C2F2F6
:1047A0000100007800281AD0FFE746F68C40C2F2DC
:1047B00001000078002812D1FFE746F68C40C2F2D3
:1047C00001000121017016F03BF947F6DC60C2F2EE
:1047D0000100702113F018FCFEF72EFA17E046F6E0
:1047E0009440C2F20100007800280FD1FFE746F69E
:1047F0008C40C2F201000078002807D0FFE746F69F
:104800008C40C2F2010000210170FFE7FFE746F68D
:104810009850C2F201008078C006002840F19A80CA
:10482000FFE746F69850C2F20100016821F48011BA
:1048300001604FF4CD70B9214FF4F072EB23D092A8
:104840001BF00EFD4FF49B70E621FF23D09A1BF066
:1048500007FD47F6DC60C2F201000078002805D0B1
:10486000FFE74FF47F401DF00BF903E0FF201DF040
:1048700007F9FFE74EF6D810C0F603001DF00EF959
:104880004FF4CD71AA22CF90084611461CF070FA61
:104890000C21CE9008461DF057F947F6DC61C2F2B4
:1048A00001010978002907D0FFE743F26E60C0F6E6
:1048B00005001BF025FE06E043F2A750C0F60500F8
:1048C0001BF01EFEFFE74FF49B70F2211CF050FA24
:1048D00048F2C841C0F60301CD9008461DF0DEF84D
:1048E0000C21CC900846CB911DF02EF96FF07F4142
:1048F000CA9008461DF0C4F840F29F10DC211CF05D
:1049000037FA49F66001C0F60301C99008461DF068
:10491000C5F8CB99C89008461DF016F947F6DC613A
:10492000C2F20101B1F9021046F26762C6F2666294
:1049300051FB02F18A1002EBD1710322C7900846A5
:1049400011461BF0C5FD43F60400C0F605001BF040
:10495000D7FDFFE707F040FF47F2D061C2F2010147
:104960000968401AB0F57A7FC0F09580FFE707F03C
:1049700033FF47F2D061C2F20101086040F62850CF
:10498000C2F201000168013101600B2919D3FFE770
:1049900040F62850C2F201000021016046F698500E
:1049A000C2F2010080788007002809D4FFE746F6AC
:1049B0009850C2F20100016841F480110160FFE7E4
:1049C000FFE746F69850C2F2010040780006002842
:1049D00060D5FFE747F26810C2F2010047F2B86104
:1049E000C2F201010122C690C591C4920BF0A0FF52
:1049F00047F2B461C2F20101C69AC3901046C49A4C
:104A00000BF056FF0DF5B8610222C2900846C59B17
:104A1000C1911946C0920CF077FF3A208DF8C2057B
:104A2000C1980330C5990131C09A0CF06DFF002088
:104A30008DF8C5054CF62821C0F60301BF90084645
:104A40001DF02CF86FF07F41BE9008461DF018F85D
:104A5000C0981DF083F80C21BD9008461DF074F835
:104A60000521F522BC90084611461CF081F9C49935
:104A7000BB9008461CF036FDDC2164224FF487739E
:104A8000BF981BF0EDFBC1981BF03AFDC4981CF0D9
:104A90009BFDFFE7FFE7FFE7FFE701201CF094FD28
:104AA00047F6D860C2F201000068002839D0FFE75D
:104AB000FEF762F807F090FE47F6D861C2F20101F6
:104AC0000968401AB0F5FA6F2AD9FFE747F6D860AF
:104AD000C2F201000021016047F21750C2F201004A
:104AE000017047F6DC60C2F201000078002808D0AF
:104AF000FFE747F6DC60C2F201000021C1730170DC
:104B000006E047F6DC60C2F2010002210170FFE717
:104B100047F6DC60C2F20100702113F075FAFFE77E
:104B2000FFE702F087BB0020BA901CF08FFFB9901E
:104B30001BF087FB0120B8901CF088FF4FF07F41ED
:104B4000B79008461CF09AFF1BF07BFB0520FEF790
:104B50004FF847F22470C2F20100B899017040F694
:104B60001450C2F20100BA9A026040F62450C2F218
:104B70000100016047F21750C2F20100027047F2D3
:104B80001350C2F20100027047F21650C2F2010047
:104B9000027047F21550C2F20100027047F2145041
:104BA000C2F20100027047F21250C2F2010002701C
:104BB00040F61850C2F20100027040F63050C2F2C6
:104BC0000100027046F6A340C2F20100027046F6F0
:104BD000A140C2F20100027047F2F820C2F20100C7
:104BE000027040F65B00C2F20100017002F022BBCD
:104BF00047F6DC60C2F20100007846F6BC61C2F202
:104C000001010968B690084620F0E2F9B6998142A0
:104C100014D0FFE746F6BC60C2F20100006820F045
:104C2000D7F947F6DC61C2F20101087040F6305056
:104C3000C2F201000178013101704DE147F6DC60FC
:104C4000C2F20100807B46F68061C2F20101096870
:104C5000B590084620F0BCF9B599814214D0FFE721
:104C600046F68060C2F20100006820F0B1F947F614
:104C7000DC61C2F20101887340F63050C2F20100DB
:104C800001780131017026E147F6DC60C2F20100D3
:104C9000007B46F6C861C2F201010968B49008467B
:104CA00020F0DAFEB49981421DD0FFE746F6C860D5
:104CB000C2F201000168B390084620F0CDFEC0B2F8
:104CC00015F03AFFB398006847F6DC61C2F20101C3
:104CD000097B20F0FCFE40F63050C2F20100017862
:104CE00001310170F6E047F6DC60C2F20100407B62
:104CF00046F6CC61C2F201010968B290084620F084
:104D0000ABFEB29981421DD0FFE746F6CC60C2F2FD
:104D100001000168B190084620F09EFEC0B215F077
:104D20003BFFB198006847F6DC61C2F20101497BA4
:104D300020F0CDFE40F63050C2F201000178013182
:104D40000170C6E047F6DC60C2F20100007C46F666
:104D50008461C2F201010968B090084620F07CFE2F
:104D6000B099814214D0FFE746F68460C2F2010098
:104D7000006820F071FE47F6DC61C2F201010874A0
:104D800040F63050C2F201000178013101709FE01D
:104D900047F6DC60C2F20100407C46F68C61C2F24C
:104DA00001010968AF90084620F056FEAF99814294
:104DB00014D0FFE746F68C60C2F20100006820F0D4
:104DC0004BFE47F6DC61C2F20101487440F63050F8
:104DD000C2F2010001780131017078E047F6DC6031
:104DE000C2F20100807C46F68861C2F201010968C6
:104DF000AE90084620F030FEAE99814214D0FFE715
:104E000046F68860C2F20100006820F025FE47F6F1
:104E1000DC61C2F20101887440F63050C2F2010038
:104E200001780131017051E047F6DC60C2F2010007
:104E3000807D46F6C061C2F201010968AD90084666
:104E400020F00AFEAD99814213D0FFE746F6C0601C
:104E5000C2F20100006820F0FFFD47F6DC61C2F2FB
:104E60000101887540F63050C2F201000121017045
:104E70002BE047F6DC60C2F20100C07D00F00100CB
:104E800046F6C461C2F201010968AC90084619F007
:104E90005FF9AC99814217D0FFE746F6C460C2F2D1
:104EA0000100006819F054F9002818BF012047F6E6
:104EB000DC61C2F20101C87540F63050C2F2010057
:104EC0004FF001010170FFE7FFE7FFE7FFE7FFE7B2
:104ED000FFE7FFE7FFE7FFE746F6D850C2F2010021
:104EE000006818F0B1FF002823D0FFE740F63050EB
:104EF000C2F20100007800280CD0FFE747F6DC6022
:104F0000C2F201007021AB9013F07EF80120AB9942
:104F10004876FFE740F63050C2F2010000210170F0
:104F200004F03EFC47F22470C2F201000721017038
:104F300015E046F6D450C2F20100006818F084FF74
:104F400000280BD0FFE704F02BFC02F05DFE47F2D7
:104F50002470C2F201000A210170FFE7FFE702F0AE
:104F600069B940F69C50C2F20100007946F6C05182
:104F7000C2F201010968AA90084620F06DFDAA99C5
:104F8000814221D0FFE746F6C050C2F2010000681E
:104F900020F062FD40F69C51C2F2010108710879CF
:104FA000002809D1FFE746F6AC50C2F201000068C4
:104FB000002120F08CFDFFE740F61850C2F20100FE
:104FC000017801310170FFE740F69C50C2F2010008
:104FD000007A46F6C451C2F201010968A990084658
:104FE00020F03AFDA999814221D0FFE746F6C4504E
:104FF000C2F20100006820F02FFD40F69C51C2F281
:1050000001010872087A002809D1FFE746F6B0507E
:10501000C2F201000068002120F059FDFFE740F6D0
:105020001850C2F20100017801310170FFE740F62B
:105030009C50C2F20100007B46F6C851C2F2010149
:105040000968A890084620F007FDA899814221D060
:10505000FFE746F6C850C2F20100006820F0FCFCF1
:1050600040F69C51C2F201010873087B002809D167
:10507000FFE746F6B450C2F201000068002120F0BC
:1050800026FDFFE740F61850C2F201000178013119
:105090000170FFE740F69C50C2F20100007C46F62A
:1050A000D051C2F201010968A790084620F0D4FC53
:1050B000A799814221D0FFE746F6D050C2F2010005
:1050C000006820F0C9FC40F69C51C2F2010108744E
:1050D000087C002809D1FFE746F6BC50C2F2010067
:1050E0000068002120F0F3FCFFE740F61850C2F200
:1050F0000100017801310170FFE740F69C50C2F2D7
:105100000100007D46F67061C2F201010968A690B7
:10511000084620F0A1FCA699814214D0FFE746F68C
:105120007060C2F20100006820F096FC40F69C51CD
:10513000C2F20101087540F61850C2F20100017870
:1051400001310170FFE740F69C50C2F20100007E81
:1051500046F67461C2F201010968A590084620F084
:105160007BFCA599814214D0FFE746F67460C2F239
:105170000100006820F070FC40F69C51C2F2010171
:10518000087640F61850C2F2010001780131017032
:10519000FFE740F69C50C2F20100007F46F67861BE
:1051A000C2F201010968A490084620F055FCA499B8
:1051B000814214D0FFE746F67860C2F20100006831
:1051C00020F04AFC40F69C51C2F20101087740F6FB
:1051D0001850C2F20100017801310170FFE740F67A
:1051E000E050C2F20100007846F6B851C2F2010167
:1051F0000968A390084620F02FFCA399814214D09F
:10520000FFE746F6B850C2F20100006820F024FC27
:1052100040F6E051C2F20101087040F61850C2F2A7
:105220000100017801310170FFE740F6E050C2F261
:105230000100007946F6AC51C2F201010968A29062
:10524000084620F009FCA299814214D0FFE746F6F7
:10525000AC50C2F20100006820F0FEFB40F6E051C5
:10526000C2F20101087140F61850C2F20100017843
:1052700001310170FFE740F6E050C2F20100007A10
:1052800046F6B051C2F201010968A190084620F02B
:10529000E3FBA199814214D0FFE746F6B050C2F279
:1052A0000100006820F0D8FB40F6E051C2F2010195
:1052B000087240F61850C2F2010001780131017005
:1052C000FFE740F6E050C2F20100007B46F6B45121
:1052D000C2F201010968A090084620F0BDFBA09928
:1052E000814214D0FFE746F6B450C2F201000068D4
:1052F00020F0B2FB40F6E051C2F20101087340F623
:105300001850C2F20100017801310170FFE740F648
:10531000E050C2F20100007C46F6BC51C2F201012D
:1053200009689F90084620F097FB9F99814214D00E
:10533000FFE746F6BC50C2F20100006820F08CFB8B
:1053400040F6E051C2F20101087440F61850C2F272
:105350000100017801310170FFE746F6D850C2F232
:105360000100006818F070FD002800F08080FFE761
:1053700040F63050C2F20100007800280ED0FFE75E
:1053800040F63050C2F201000021017047F6DC60A7
:10539000C2F20100702112F037FEFFE740F618500C
:1053A000C2F201000078002815D0FFE740F618503F
:1053B000C2F201000021017040F69C50C2F20100CF
:1053C000302112F039FD40F6E050C2F201005021C8
:1053D00012F032FDFFE747F21150C2F201000078EF
:1053E0008DF8B80547F27000C2F2010000788DF820
:1053F000B90547F22C70C2F2010000788DF8BA05A9
:1054000047F22770C2F2010000788DF8BB0547F221
:105410002670C2F2010000788DF8BC0547F22570B5
:10542000C2F2010000788DF8BD0546F69850C2F230
:10543000010080784007002804D5FFE701208DF89F
:10544000BE0503E000208DF8BE05FFE70DF5B7604F
:105450000A2107229E9205F05BF89D9004F0F0F976
:1054600047F22470C2F201009E99017015E046F6E1
:10547000D450C2F20100006818F0E6FC00280BD0FE
:10548000FFE704F0DDF902F0BFFB47F22470C2F23F
:1054900001000A210170FFE7FFE701F0CBBE47F2F0
:1054A000B860C2F20100007846F69C61C2F20101C8
:1054B00009689C90084620F0CFFAC0B204F03CFC8A
:1054C0009C9981421FD0FFE746F69C60C2F2010022
:1054D000006820F0C1FAC0B204F02EFC47F2B861B7
:1054E000C2F20101087047F26810C2F20100012205
:1054F0000BF0C2FB46F69851C2F201010A6842F471
:1055000000420A60FFE747F2B860C2F2010040784B
:1055100046F6A061C2F2010109689B90084620F09E
:105520009BFAC0B204F008FC9B9981421FD0FFE7B0
:1055300046F6A060C2F20100006820F08DFAC0B209
:1055400004F0FAFB47F2B861C2F20101487047F279
:105550006810C2F2010001220BF08EFB46F6985152
:10556000C2F201010A6842F400420A60FFE747F212
:10557000B460C2F20100807846F69061C2F2010187
:1055800009689A90084620F067FAC0B204F0D4FB8C
:105590009A9981421FD0FFE746F69060C2F201005F
:1055A000006820F059FAC0B204F0C6FB47F2B461BB
:1055B000C2F20101887047F26810C2F201000122B4
:1055C0000BF092FA46F69851C2F201010A6842F4D1
:1055D00000420A60FFE747F2B460C2F2010040787F
:1055E00046F6A461C2F2010109689990084620F0CC
:1055F00033FAC0B204F0A0FB999981421FD0FFE7B3
:1056000046F6A460C2F20100006820F025FAC0B29C
:1056100004F092FB47F2B461C2F20101487047F214
:105620006810C2F2010001220BF05EFA46F69851B2
:10563000C2F201010A6842F400420A60FFE747F241
:10564000B460C2F20100C07846F6B861C2F201014E
:1056500009689890084620F0FFF9A0F5FA60C0B2FA
:1056600004F06AFB9899814221D0FFE746F6B860C2
:10567000C2F20100006820F0EFF9A0F5FA60C0B2B4
:1056800004F05AFB47F2B461C2F20101C87047F25C
:105690006810C2F2010001220BF026FA46F698517A
:1056A000C2F201010A6842F400420A60FFE747F2D1
:1056B000B460C2F20100007846F67C61C2F20101DA
:1056C00009689790084619F096F80130C0B204F0C6
:1056D00033FB9799814220D0FFE746F67C60C2F207
:1056E0000100006819F087F80130C0B204F024FB13
:1056F00047F2B461C2F20101087047F26810C2F2C9
:10570000010001220BF0F0F946F69851C2F20101B6
:105710000A6842F400420A60FFE747F22570C2F2CD
:105720000100007846F6A861C2F20101096896906E
:10573000084620F091F9969981421ED0FFE746F67F
:10574000A860C2F20100006820F086F947F22571D6
:10575000C2F201010870087840F2A871C2F201019A
:1057600051F820001CF08CF94FF4AA7033214FF44B
:10577000D7723B231BF0D4F9FFE746F6EC50C2F298
:105780000100006818F0D6FC012809D1FFE746F6B1
:105790009850C2F20100016841F48021016008E0E4
:1057A00046F69850C2F20100016821F480210160A0
:1057B000FFE746F69460C2F20100006820F04CF961
:1057C00047F27001C2F20101087046F69860C2F219
:1057D0000100006820F040F947F21151C2F20101C6
:1057E000087046F6B460C2F20100006820F034F997
:1057F00047F22C71C2F20101087046F6B060C2F2A5
:105800000100006820F028F947F22771C2F2010177
:10581000087046F6AC60C2F20100006820F01CF986
:1058200047F22671C2F20101087046F6A860C2F282
:105830000100006820F010F947F22571C2F2010161
:10584000087046F6D850C2F20100006818F0FCFA61
:10585000002800F08C80FFE740F63050C2F20100D3
:10586000007800280ED0FFE740F63050C2F2010069
:105870000021017047F6DC60C2F20100702112F0D5
:10588000C3FBFFE740F61850C2F201000078002881
:1058900015D0FFE740F61850C2F201000021017058
:1058A00040F69C50C2F20100302112F0C5FA40F6D9
:1058B000E050C2F20100502112F0BEFAFFE747F2B9
:1058C0001150C2F2010000788DF8B80547F270005F
:1058D000C2F2010000788DF8B90547F22C70C2F2CF
:1058E000010000788DF8BA0547F22770C2F2010076
:1058F00000788DF8BB0547F22670C2F201000078EF
:105900008DF8BC0547F22570C2F2010000788DF8D1
:10591000BD0546F69850C2F2010080784007002885
:1059200004D5FFE701208DF8BE0503E000208DF8C7
:10593000BE05FFE70DF5B7600A210722959204F036
:10594000E7FD47F6D761C2F20101202201239490BE
:10595000084611461A4604F0DBFD939003F0DCFF85
:1059600047F22470C2F201009599017015E046F6E5
:10597000D450C2F20100006818F066FA00280BD07B
:10598000FFE703F0C9FF02F047FD47F22470C2F2BF
:1059900001000D210170FFE7FFE701F04BBC47F26A
:1059A0001250C2F201000078002810D1FFE747F240
:1059B0001250C2F201000178013101701AF041FC6D
:1059C00046F69C40C2F201003C2101709BE047F288
:1059D0001250C2F201000078012840F09380FFE7E6
:1059E00006F0FAFE46F69841C2F201010968401A33
:1059F000B0F57A7FC0F08580FFE706F0EDFE46F651
:105A00009841C2F201010860FDF7B6F801201BF0D1
:105A100069FD002032214FF4F072C8231AF020FCF7
:105A200046F69C40C2F201000078062805DBFFE73D
:105A30004FF47F401CF024F806E0FF201CF020F813
:105A4000012006F039FBFFE74CF62820C0F60300E2
:105A50001CF024F802219290084691911CF07EF8E7
:105A60000E21909008468F911CF06EF8F021502284
:105A70008E9008468D9111461BF07AF90D218C907D
:105A8000084617F039FA47F2AA20C2F201001AF0CC
:105A900037FD41F25040C0F604001BF0FFFF919922
:105AA0008B9008461CF05AF88F998A9008461CF093
:105AB0004BF89C218D9A899010461BF059F946F6B7
:105AC0009C41C2F201010A788890104687911AF031
:105AD000EBFC01201BF078FD87980178002908D0A5
