:020000040800F2
:10000000107F0320DD01000879480108B11A0108BA
:10001000714801080915000839B9010800000000FD
:10002000000000000000000000000000EF010008D8
:10003000F91F000800000000F3010008098B010807
:10004000F7010008F7010008F7010008F7010008B0
:10005000F7010008F7010008F7010008F7010008A0
:10006000F7010008F7010008F7010008F701000890
:10007000F7010008F7010008F7010008F701000880
:10008000F7010008F7010008F7010008F701000870
:10009000F7010008F7010008F7010008F701000860
:1000A000F7010008F7010008F7010008F701000850
:1000B000F7010008F7010008F7010008F701000840
:1000C000F7010008F7010008F7010008F701000830
:1000D000F701000819B9010829B90108F70100085A
:1000E000F7010008F7010008F7010008F701000810
:1000F000F7010008F7010008F7010008F701000800
:10010000F7010008F7010008F7010008F7010008EF
:10011000F7010008F7010008F7010008F7010008DF
:10012000F7010008F7010008F7010008F7010008CF
:10013000F7010008F7010008F7010008F7010008BF
:10014000F7010008F7010008F7010008F7010008AF
:10015000F7010008F7010008F7010008F70100089F
:10016000F7010008F7010008F7010008F70100088F
:10017000F7010008F7010008F7010008000000007F
:10018000F7010008F7010008F7010008F70100086F
:10019000F7010008F7010008F7010008F70100085F
:1001A000F1280108F7010008D91F0008F70100082D
:1001B000216E0108F7010008F7010008F7010008A7
:1001C000F7010008F7010008DFF80CD000F0B0FBE1
:1001D00000480047D9DB0108107F0320064880470C
:1001E00006480047FEE7FEE7FEE7FEE7FEE7FEE71C
:1001F000FEE7FEE7FEE7FEE7998C0108C90100086B
:1002000010B5441A0346944209D28318114403E0FE
:1002100011F8014D03F8014D521EF9D210BD40EA0C
:100220000104A40703D009E010C9121F10C3042A57
:10023000FAD203E011F8014B03F8014B521EF9D238
:1002400010BDD2B201E000F8012B491EFBD270476D
:100250000022F6E710B513460A4604461946FFF792
:10026000F0FF204610BD421C10F8011B0029FBD1F5
:10027000801A704730B504460020034600E05B1C3E
:10028000934203D2E05CCD5C401BF8D030BD034606
:1002900011F8012B00F8012B002AF9D118467047FC
:1002A0002DE9FE4F804681EA0300C00F0C46009006
:1002B00021F0004123F00045B8EB0200A94105D22E
:1002C0004046214690461C460B46024623F000401D
:1002D000104347D0270DC7F30A00C3F30A51029019
:1002E000401A019040286BDAC3F3130040F4801BDE
:1002F0000098924620B10023D2EB030A63EB0B0B6C
:1003000001985946C0F14002504600F004FA0646F2
:100310000D4650465946019A00F01CFA10EB0800B1
:100320006141002487EA115284EAE7731A4340D0FE
:10033000009A62B3019A012A4FEA075215DC001BAA
:1003400061EB02014FF0004202EA0752CDE90042A0
:10035000001C41F5801132462B4600F053FA03B0E1
:10036000BDE8F08F40462146F9E7001B61EB020132
:10037000001C41F5801300185B412018A2F50017FE
:1003800047EB030140EAD570B6196D4111E06D08E5
:100390004FEA360645EAC0754FEA0752001B61EB8B
:1003A0000201001C41F5801149084FEA3000001994
:1003B000514132462B4603B0BDE8F04F00F013BA6E
:1003C0000098012240000023D0EB020263EBE073AF
:1003D000009821464FEAE074B8EB000061EB04019D
:1003E000E9E783F000435BE781F0004158E72DE93E
:1003F000FE4F81EA030404F0004421F00041009420
:100400004FF0000B23F0004350EA01045ED052EAA3
:1004100003045BD0C3F30A54C1F30A552C44A4F27D
:10042000F3340194A0FB0254C1F3130141F4801191
:10043000C3F3130343F4801301FB024400FB034E98
:10044000840A970A44EA815447EA8357A4FB076861
:1004500002958D0A05FB07854FEA932C04FB0C548B
:100460002705029D4FEA065847EA1637B5EB0805FF
:100470006EEB070C870E920E47EA811742EA831251
:10048000A7FB0201B6EB0B0164EB00042B0D43EA62
:100490000C335E1844EB1C50DA465146E7FB020170
:1004A000C5F313044FEA0B3343EA14534FEA043203
:1004B000019C43EA0603A4F10C040294009CCDE9DC
:1004C00000B400F09FF903B0BDE8F08F00200146B2
:1004D000F9E72DE9F04D81EA030404F0004B21F027
:1004E000004514464FF0000A23F0004150EA05028F
:1004F00020D054EA01021DD0C5F30A570246C5F3C5
:100500001303C1F31300C1F30A5640F4801543F4FA
:100510008013A7EB0608101BD64608F2FD3873EBD4
:10052000050002D308F1010801E092185B41B8F11F
:10053000000F03DA00200146BDE8F08D00204FF4E3
:100540008011064684460EE0171B73EB050705D3A2
:10055000121B63EB050306434CEA010C49084FEA02
:10056000300092185B4150EA0107EDD152EA0300D6
:1005700012D082EA040083EA0501084305D0101B6B
:10058000AB4106D20122002306E000224FF00043D7
:1005900002E06FF0010253101AEB06004CEB085119
:1005A00010EB0A0041EB0B01BDE8F04D00F01BB968
:1005B0000EB5C10F80EAE0700844CA07002140F27E
:1005C00033438DE80E000A460B4600F01BF903B0DA
:1005D00000BD0EB540F2334102910021CDE900117A
:1005E0000A460B4600F00EF903B000BD70B5C1F32A
:1005F0000A5201F000450024C1F3130140F2FF3319
:1006000041F480119A4201DA002070BD40F2334378
:100610009A42A2F2334203DC524200F08BF800E02F
:1006200090402C43F1D0404270BD00F0004230F0C9
:1006300000400AD0C10D01F56071C0F3160042EA16
:100640000151C2084007114370470020014670471E
:1006500001F0004330B421F0004150EA010206D01D
:100660000A0DA2F56072C1F31301002A02DC30BC4E
:1006700000207047440F44EAC104C100E01830BCB8
:1006800000EBC25000F078B830B50B4601460020B0
:100690002022012409E021FA02F59D4205D303FA44
:1006A00002F5491B04FA02F52844151EA2F10102C5
:1006B000F1DC30BD2DE9F05F0546002092469B46F7
:1006C00088460646814640241BE028464146474668
:1006D000224600F02FF853465A46C01A914110D3D3
:1006E00011461846224600F016F82D1A67EB01084D
:1006F0004F4622460120002100F00DF817EB0009BB
:100700004E41201EA4F10104DFDC484631462A4652
:100710004346BDE8F09F202A04DB203A00FA02F1AC
:10072000002070479140C2F1200320FA03F31943DF
:1007300090407047202A04DB203A21FA02F0002181
:10074000704721FA02F3D040C2F1200291400843E1
:1007500019467047202A06DBCB17203A41FA02F0EF
:1007600043EAE07306E041FA02F3D040C2F120020E
:1007700091400843194670470029A8BF7047401CA4
:10078000490008BF20F00100704710B4B0FA80FCA7
:1007900000FA0CF050EA010404BF10BC704749B1E4
:1007A000CCF1200421FA04F411FA0CF118BF012154
:1007B00021430843A3EB0C01CB1D4FEA00614FEA34
:1007C000102042BF002010BC704700EBC350104403
:1007D0000029A4BF10BC7047401C490008BF20F08E
:1007E000010010BC704710B5141E73F1000408DA44
:1007F000401C41F1000192185B411A4301D120F0E5
:10080000010010BD2DE9F04D92469B4611B1B1FAA1
:1008100081F202E0B0FA80F220329046FFF77BFFCF
:1008200004460F4640EA0A0041EA0B0153465A4685
:10083000084313D0114653EA010019D0C8F1400211
:100840005046FFF777FF05460E465046594642464A
:10085000FFF761FF084305D0012004E02046394638
:10086000BDE8F08D0020054346EAE0762C4337438F
:100870000A986305E40AA0EB08000022FD0A44EA96
:1008800047540A3002D500200146E9E70105101956
:100890006941DDE9084500196941BDE8F04DA2E76D
:1008A000C1F30A52C1F3130140F2FF3341F4801146
:1008B0009A4202DA00200146704740F233439A42DE
:1008C000A2F2334202DC5242FFF734BFFFF723BFEC
:1008D00030B5041E71F1000404DB4FF000444042C7
:1008E00064EB0101141E73F1000405DB1C464FF09C
:1008F0000043524263EB04038B4208BF824230BD87
:1009000030B5041E71F1000404DB4FF00044404296
:1009100064EB0101141E73F1000405DB1C464FF06B
:100920000043524263EB0403994208BF904230BD3A
:10093000064C074D06E0E06840F0010394E807002C
:1009400098471034AC42F6D3FFF742FCCC3C050884
:10095000FC3C050870B58C1810F8015B15F0070316
:1009600001D110F8013B2A1106D110F8012B03E048
:1009700010F8016B01F8016B5B1EF9D12B0705D450
:100980000023521E0DD401F8013BFAE710F8013B99
:10099000CB1A921C03E013F8015B01F8015B521EB5
:1009A000F9D5A142D8D3002070BD0000000000009E
:1009B00080B58AB00BF0E8FF40F64841C2F2010171
:1009C0000968401A0C28C0F0BD81FFE70BF0DCFF7E
:1009D00040F64841C2F201010860012007900890EA
:1009E00040F64440C2F201000078002803D1FFE73E
:1009F0000B20069017E040F64440C2F20100007858
:100A0000012803D1FFE70C2006900BE040F644409C
:100A1000C2F201000078022803D1FFE70D20069002
:100A2000FFE7FFE7FFE746F62C70C2F2010006A9D8
:100A300002900AF00DFD0299019008460AF060FF4D
:100A40000A21029A009010460AF0CAFE40F644417C
:100A5000C2F201010978002940F03881FFE746F62B
:100A60002C70C2F201000AF053FE40F64C41C2F273
:100A700001010A6840F65043C2F2010323F8120054
:100A80000868013008600A2807D3FFE740F64C40A9
:100A9000C2F2010000210160FFE7002004900390F2
:100AA000FFE7039809280FD8FFE7039840F6504165
:100AB000C2F2010131F81000049908440490FFE7E4
:100AC000039801300390ECE704984CF6CD41CCF646
:100AD000CC41A0FB0101C90804910499642905D304
:100AE000FFE70498B0F57A6F18D9FFE740F64C405D
:100AF000C2F201000068002809D1FFE747F2DD706B
:100B0000C2F20100017801F0FE010170FFE747F633
:100B1000DC60C2F2010000214180D6E040F64C408A
:100B2000C2F201000068002809D1FFE747F2DD703A
:100B3000C2F20100017841F001010170FFE7BDF848
:100B4000100016F059FA40F64040C2F2010080ED64
:100B5000000A90ED000AB2EE041A20EE010ABDEE82
:100B6000C00A10EE100AADF8160047F6DC60C2F2BB
:100B70000100B0F9020046F26761C6F2666150FBFF
:100B800001F0821002EBD070BDF9162052FB01F18A
:100B90008A1002EBD171884200F08180FFE70BF0F0
:100BA000F3FE47F2D871C2F201010968401A40F61B
:100BB000B83188425DD8FFE70BF0E6FE47F2D4710A
:100BC000C2F201010968401AFA2851D3FFE70BF07D
:100BD000DBFE47F2D471C2F20101086047F21850FF
:100BE000C2F20100B0F9000046F26761C6F2666128
:100BF00050FB01F0821002EBD070BDF9162052FBC1
:100C000001F18A1002EBD17188420ED0FFE7BDF8E6
:100C1000160047F21851C2F20101088047F2DC7059
:100C2000C2F201000021017021E047F2DC70C2F243
:100C3000010001780131017000780A2816D1FFE720
:100C400047F2DC70C2F2010000210170BDF816000D
:100C500047F6DC61C2F20101488046F69850C2F2C4
:100C60000100016841F480110160FFE7FFE7FFE741
:100C700014E00BF089FE47F2D871C2F2010108605E
:100C80000BF082FE47F2D471C2F20101086047F214
:100C9000DC70C2F2010000210170FFE714E00BF0EC
:100CA00073FE47F2D871C2F2010108600BF06CFECE
:100CB00047F2D471C2F20101086047F2DC70C2F25F
:100CC000010000210170FFE7FFE728E040F6444003
:100CD000C2F201000078012808D1FFE746F62C7027
:100CE000C2F201000AF014FD049017E040F64440FF
:100CF000C2F20100007802280FD1FFE746F62C70FF
:100D0000C2F201000AF004FDFF21A1EB101047F22E
:100D1000F321C2F201010870FFE7FFE7FFE740F6A9
:100D20004440C2F2010001780131CAB20170032AC5
:100D300007D3FFE740F64440C2F2010000210170F2
:100D4000FFE7FFE70AB080BD81B0009042F20430B7
:100D5000C4F20100016821F4403101600099496842
:100D600002681143016000980068416821F48071B5
:100D700041600098016800694A6842EA00204860C2
:100D800000980068416821F0407141600098016856
:100D900080684A681043486000980068816821F4C0
:100DA0000061816000980168C0688A6810438860AB
:100DB0000098806A0121C0F60071884219D0FFE7CF
:100DC00000980068816821F0706181600098016876
:100DD000806A8A681043886000980068816821F002
:100DE0004051816000980168C06A8A681043886039
:100DF0000CE000980068816821F0706181600098C3
:100E00000068816821F040518160FFE70098006828
:100E1000816821F0020181600098016880698A6818
:100E200042EA400088600098006A002819D0FFE775
:100E300000980068416841F40061416000980068D2
:100E4000416821F46041416000980168406A4EF2B7
:100E50000002CFF6FF7202EB40304A681043486050
:100E600006E000980068416821F400614160FFE7F6
:100E700000980068C16A21F47001C162009801689D
:100E8000C0690022CFF6F07202EB0050CA6A10432C
:100E9000C86200980068816821F400718160009840
:100EA0000168006B8A6842EA402088600098006808
:100EB000816821F4806181600098016840698A68D6
:100EC00042EA8020886001B0704700000000000006
:100ED00081B00090009847F2A061C2F20101416028
:100EE00047F2A660C2F2010000780099088101B0C3
:100EF000704700000000000080B58CB00B9000200F
:100F00000A9040F6EC41C2F2010101220A6010236E
:100F10004B608A60C86047F2307CC2F2010C4FF629
:100F2000FF7E099060460891079272460693CDF8BD
:100F300014C0CDF810E010F0E7F8079903900846C8
:100F40000BF092F902200899086006984860079A09
:100F50008A60099BCB600598049A10F0D5F80321AC
:100F6000089A11600699516008239360099BD36029
:100F7000DDF814C0029060461146049A10F0C4F8DF
:100F80004FF408710A910421089A11600699516082
:100F9000079B9360DDF828C0C2F80CC0DDF814C0D0
:100FA000019060461146049A10F0AEF80B99059A2C
:100FB0000090104610F084F80CB080BD00000000D6
:100FC00080B59AB019901891FFE743F63800C4F243
:100FD0000200016841F001010160006800F00100B9
:100FE00012901298FFE7FFE743F63000C4F20200C8
:100FF000016841F480010160006800F480001190F4
:101000001198FFE7FFE743F63000C4F202000168E1
:1010100041F001010160006800F00100109010989B
:10102000FFE7FFE743F63000C4F20200016841F039
:1010300004010160006800F004000F900F98FFE7C2
:10104000FFE743F63000C4F20200016841F00801F6
:101050000160006800F008000E900E98FFE7FFE7BF
:1010600043F63000C4F20200016841F01001016053
:10107000006800F010000D900D98FFE7FFE743F6C1
:101080003000C4F20200016841F0200101600068F4
:1010900000F020000C900C98FFE7FFE743F63000CB
:1010A000C4F20200016841F040010160006800F0F4
:1010B00040000B900B98FFE74FF63F001390022083
:1010C000149000211591032216920C23179341F2DC
:1010D000004CC4F2020C0DF14C0E0A9060460991CE
:1010E000714608920793CDF818E00BF011FA8020B2
:1010F00013900A991491099A1592089B1693DDF89A
:101100001CC0CDF85CC040F2000EC4F2020E059087
:10111000704606990BF0FCF9302013900A98149051
:1011200009991591089A1692079B179340F60000AB
:10113000C4F2020006990BF0EBF948F23310139059
:101140000A98149009991591089A1692079B17937B
:1011500041F60000C4F2020006990BF0D9F94FF6EF
:10116000837013900A98149009991591089A169211
:10117000079B179341F20000C4F2020006990BF09E
:10118000C7F94CF2037013900A98149009991591BD
:10119000089A1692079B179340F60040C4F202008B
:1011A00006990BF0B5F940F66440C2F201000999C6
:1011B0004160059A82604FF40073C3604FF480630E
:1011C00003614FF4805343614FF480438361C161F5
:1011D0004FF4003303624162089B8362C162016382
:1011E00046F2104CC4F2020CC0F800C0FFE7199898
:1011F00040F66441C2F20101016319988863FFE778
:1012000040F66440C2F2010004900AF0F5FE049931
:10121000039008460AF040FF38210F220023029075
:101220000846019111461A460DF0EEF801980DF0AE
:10123000DFF81AB080BD000080B592B01190002098
:101240008DF8430047F6F860C2F2010000680069BB
:1012500040F69851C2F201010978039008460399BB
:1012600088471199087011980078002800F038819B
:10127000FFE700200490FFE704981199097888425D
:1012800080F02D81FFE747F6F860C2F201000068A8
:10129000406940F69851C2F201010978049A09ABFD
:1012A00003EB42030DF11A0C0CEB420202900846CC
:1012B0001946029B984747F6FC60C2F2010000788D
:1012C000012811D1FFE7049809A931F810100EAADE
:1012D00022F8101004980DF11A0131F810100DF1D8
:1012E0002E0222F81010FFE747F6FC60C2F2010060
:1012F0000078800700280AD5FFE7049809A931F88B
:101300001010C1F580510EAA22F81010FFE747F621
:10131000FC60C2F201000078400700280CD5FFE70E
:1013200004980DF11A0131F81010C1F580510DF13A
:101330002E0222F81010FFE747F6FC60C2F201000F
:1013400000780007002811D5FFE7049809A931F8B3
:1013500010100DF12E0222F8101004980DF11A0150
:1013600031F810100EAA22F81010FFE704980EA909
:1013700031F8101040F6C442C2F2010252F82000C7
:1013800081420DD9FFE704980EA931F8101040F6FC
:10139000C442C2F2010252F82000081A01900CE087
:1013A000049840F6C441C2F2010151F820100EAA7F
:1013B00032F81000081A0190FFE70198ADF8180004
:1013C00004980DF12E0131F8101040F6D842C2F207
:1013D000010252F8200081420ED9FFE704980DF176
:1013E0002E0131F8101040F6D842C2F2010252F834
:1013F0002000081A00900DE0049840F6D841C2F28F
:10140000010151F820100DF12E0232F81000081AD7
:101410000090FFE70098ADF81600BDF81800BDF881
:1014200016100844062816DBFFE704980EA931F8C9
:10143000101040F6C442C2F2010242F82010049893
:101440000DF12E0131F8101040F6D842C2F201021F
:1014500042F82010FFE740F69850C2F201000078F1
:10146000702812D1FFE704980EA931F81010119AD4
:1014700002EB4000418004980DF12E0131F810106C
:10148000119A02EB4000818124E047F6FE60C2F22F
:1014900001000088049940F6C442C2F2010252F8E9
:1014A00021205043000B119A02EB4101488047F67E
:1014B0000070C2F201000088049940F6D842C2F2DE
:1014C000010252F821205043000B119A02EB410116
:1014D0008881FFE7FFE7049801300490CCE6FFE73E
:1014E0009DF8430012B080BD81B001468DF8030025
:1014F0009DF80300020902EB820200F00F0000EBEE
:101500004200C0B201B0704780B516F06DFD80BDDD
:1015100086B04EF69450CEF20000016821F005012D
:1015200001604EF69851CEF2000100220A604EF69C
:101530009C51CEF200011023C2F201030B604EF663
:10154000A051CEF200013D23C0F202330B60052111
:101550000160BFF34F8FBFF36F8F4EF65070CEF226
:1015600000000260BFF34F8FBFF36F8F4EF6145031
:10157000CEF20000016841F480210160BFF34F8F7B
:1015800000688003002801D5FFE71AE0BFF34F8F02
:10159000BFF36F8F4EF65070CEF200000021016055
:1015A000BFF34F8FBFF36F8F4EF61450CEF2000093
:1015B000016841F400310160BFF34F8FBFF36F8FBB
:1015C000FFE74EF68450CEF2000000210160BFF329
:1015D0004F8F4EF68050CEF20000006805900598BF
:1015E000C0F34E300490FFE70598C0F3C9000390A4
:1015F000FFE704980399890760F34D114EF6607078
:10160000CEF2000001600398411E03910028F0D142
:10161000FFE70498411E04910028E5D1FFE7BFF3DE
:101620004F8FBFF36F8F4EF61450CEF2000000685C
:10163000C003002801D5FFE73CE04EF68450CEF20F
:10164000000000210160BFF34F8F4EF68050CEF2B4
:101650000000006802900298C0F34E300190FFE74E
:101660000298C0F3C9000090FFE70198009989072C
:1016700060F34D114EF66070CEF2000001600098EC
:10168000411E00910028F0D1FFE70198411E019111
:101690000028E5D1FFE7BFF34F8F4EF61450CEF28E
:1016A0000000016841F480310160BFF34F8FBFF348
:1016B0006F8FFFE706B0704781B000900098017A05
:1016C000417201B07047000047F60470C2F2010099
:1016D000007870470000000081B000900098C0883A
:1016E00001B070470000000081B000900098808831
:1016F00001B070470000000080B586B00A46059032
:10170000ADF8121005980021016005980172059846
:1017100041720598817205980430BDF812100223B9
:1017200003921A46029308F083FF05990631BDF82B
:101730001220023292B2019008461146029A08F035
:1017400077FF06B080BD000080B582B001468DF8FD
:1017500006009DF8060000EB400046F6A842C2F2E3
:10176000010202EB8000009100F076FA002804D01C
:10177000FFE700208DF8070016E09DF8060000EB5B
:10178000400046F6A841C2F2010101EB800000F0E2
:101790006FFA002804D0FFE701208DF8070003E06E
:1017A00002208DF80700FFE79DF8070002B080BD1A
:1017B00082B001468DF807009DF80700002200283E
:1017C000009208D4FFE79DF8070000210F28B8BF5A
:1017D00001210091FFE7009800F0010002B070477E
:1017E00080B584B00A4603908DF80B1003980192DF
:1017F00000F0E6F900281CD0FFE7039800F044FA57
:10180000002804D0FFE7039800214172FFE79DF80C
:101810000B00039908720BF0B7F80399086003985E
:101820000068002804D1FFE7039801210160FFE769
:10183000FFE704B080BD000080B584B00A46039085
:101840008DF80B100398019200F0D2F9002812D005
:10185000FFE70398007A9DF80B1088420BD1FFE751
:101860000398407A9DF80B10884204D1FFE7039853
:1018700000F05EF905E003989DF80B10FFF7B0FF4C
:10188000FFE704B080BD000080B584B00A4603467F
:101890008DF80F008DF80E109DF80F0000EB400042
:1018A00046F6A841C2F2010101EB80009DF80E103E
:1018B00002920193FFF7C0FF04B080BD000000005A
:1018C00081B0009000980021817201B07047000043
:1018D00080B582B001900198002101720198417297
:1018E000019801600198FFF7EBFF02B080BD000096
:1018F00080B500F069FB46F6A441C2F20101087010
:1019000080BD00000000000080B586B00A4605904A
:10191000ADF8121005980430BDF81210022303929E
:101920001A46029308F0CCFE05990631BDF8122044
:10193000023292B2019008461146029A08F0C0FEA7
:1019400006B080BD0000000081B001468DF80300A4
:101950009DF8030046F6A442C2F20102107001B0E5
:10196000704700000000000080B586B000208DF8B0
:101970001700FFE79DF817000E2800F39980FFE796
:101980009DF8170000EB400046F6A841C2F20101A5
:1019900001EB80000490049800F012F9002801D1B6
:1019A000FFE77FE0049800F0F3F8002804D0FFE799
:1019B000049800F0BDF8FFE7049800F0DDF8002877
:1019C0006FD0FFE700208DF80C00ADF80A000498F6
:1019D00000F04EF900280CD1FFE7049800F03CF924
:1019E00000280BD0FFE7049800F01EF9002805D06E
:1019F000FFE70498FFF778FE019004E00498FFF7F2
:101A00006BFE0190FFE70198ADF80A009DF80B000E
:101A10009DF80C100DF10D025054BDF80A009DF810
:101A20000C10114448709DF80C0002308DF80C0029
:101A3000049800F011F9002803D0FFE7002000907F
:101A400008E0049800F014F90221002818BF0121D1
:101A50000091FFE700989DF80C104A1C8DF80C20AF
:101A60000DF10D02505447F22470C2F201000078CB
:101A7000102807D1FFE740F65B00C2F20100012108
:101A80000170FFE7049800F0E7F8002804D0FFE7B2
:101A90000498FFF71DFF03E00498FFF70DFEFFE732
:101AA000FFE7FFE79DF8170001308DF8170061E7A9
:101AB00006B080BD0000000081B0009000980021B9
:101AC00081800098C180009801720098417200984E
:101AD0000160009801600098817201B070470000B9
:101AE00081B001468DF803009DF8030047F60472AB
:101AF000C2F20102107001B0704700000000000047
:101B000082B00A460190ADF80210BDF802000199BA
:101B1000C88002B07047000082B00A460190ADF85C
:101B20000210BDF802000199888002B070470000E1
:101B300081B0009000980021017201B07047000050
:101B400080B582B046F6A440C2F201000078019050
:101B500000F03AFA0199081AB0FA80F0400902B090
:101B600080BD00000000000046F6A440C2F2010063
:101B7000007870470000000081B000900098017A62
:101B8000407A081A18BF012001B070470000000019
:101B900080B582B001900AF0F7FE01990968401AF9
:101BA0000090FFF791FD4FF47A7148430021009AAD
:101BB000824228BF0121084602B080BD000000001B
:101BC00082B001900198808800210028009107D000
:101BD000FFE70198C088002818BF01200090FFE7A8
:101BE000009800F0010002B0704700000000000003
:101BF00080B582B001900198FFF7E2FF002807D07E
:101C0000FFE70198407A002818BF0120009002E009
:101C100000200090FFE70098002818BF012002B0C4
:101C200080BD00000000000081B000900098407A64
:101C30000138B0FA80F0400901B0704700000000A0
:101C400081B000900098007A0238B0FA80F0400924
:101C500001B070470000000081B000900098007A49
:101C6000B0FA80F0400901B07047000000000000A9
:101C700081B000900098007A0138B0FA80F04009F5
:101C800001B070470000000081B000900098807A99
:101C9000002818BF012001B07047000000000000BC
:101CA00080B582B046F65C50C2F20100002101709E
:101CB0008DF80710FFE79DF807000E281FDCFFE7EF
:101CC0009DF8070000EB400046F6A841C2F2010172
:101CD00001EB8000FFF774FF002808D0FFE746F60D
:101CE0005C50C2F2010001780131017000E006E0B1
:101CF000FFE79DF8070001308DF80700DBE702B031
:101D000080BD00000000000080B582B047F604707E
:101D1000C2F201004FF4D871012208F089FC0021C1
:101D20008DF80710FFE79DF807000E2819DCFFE784
:101D30009DF8070000EB400146F6A842C2F20102FE
:101D400002EB8101932202EB80000090084600998B
:101D5000FFF7D2FCFFE79DF8070001308DF8070080
:101D6000E1E7FFF79DFF02B080BD0000000000002A
:101D700080B582B001468DF8070046F65D50C2F28C
:101D8000010001220270009100F062F9002832D0B7
:101D9000FFE700208DF80600FFE79DF806000E28FB
:101DA00028DCFFE79DF8060000EB400046F6A8415E
:101DB000C2F2010101EB8000FFF702FF002812D000
:101DC000FFE79DF807000121012808BF02219DF8C7
:101DD000060000EB400046F6A842C2F2010202EB08
:101DE00080004172FFE7FFE79DF8060001308DF8A3
:101DF0000600D2E7FFE700208DF80500FFE79DF819
:101E000005000E2815DCFFE79DF8050000EB4000FB
:101E100046F6A841C2F2010101EB80009DF80710CF
:101E2000FFF7DEFCFFE79DF8050001308DF80500A7
:101E3000E5E702B080BD000080B582B001468DF8B4
:101E4000070001208DF806009DF80700002857D0F4
:101E5000FFE700208DF80500FFE79DF805000090E2
:101E600000F0B2F80099814249DAFFE79DF80500D9
:101E700000EB400046F6A841C2F2010101EB8000F0
:101E8000FFF79EFE002833D0FFE79DF8050000EB2A
:101E9000400046F6A841C2F2010101EB8000FFF7C5
:101EA000A7FE002820D0FFE79DF8050000EB4000CA
:101EB00046F6A841C2F2010101EB8000007A9DF8CC
:101EC0000710884210D1FFE79DF8050000EB4000A5
:101ED00046F6A841C2F2010101EB8000407A9DF86C
:101EE0000710884204D0FFE700208DF80600FFE7C6
:101EF000FFE79DF8050001308DF80500ADE7FFE72D
:101F00009DF80600002803D0FFE700F081F804E008
:101F10009DF80700FFF72CFFFFE702B080BD00002F
:101F200080B582B047F60470C2F201004FF4D87158
:101F3000012208F0C5FB00218DF80710FFE79DF88E
:101F400007000E2819DCFFE79DF8070000EB4001B1
:101F500046F6A842C2F2010202EB8101932202EB93
:101F60008000009008460099FFF7CEFCFFE79DF83F
:101F7000070001308DF80700E1E7FFF791FE02B09E
:101F800080BD00000000000080B582B000208DF808
:101F90000700FFE79DF807000E2813DCFFE79DF818
:101FA000070000EB400046F6A841C2F2010101EB38
:101FB0008000FFF781FDFFE79DF8070001308DF8F5
:101FC0000700E7E702B080BD46F65C50C2F20100B0
:101FD000007870470000000080B546F69870C2F2A5
:101FE000010009F055FE4BF20800C4F20200022184
:101FF000016080BD000000007047C06B1EF043B858
:102000000000000000000000250418310000010855
:1020100080B582B000208DF80700FFE79DF807002B
:102020000E2813DCFFE79DF8070000EB400046F6A2
:10203000A841C2F2010101EB8000FFF779FDFFE743
:102040009DF8070001308DF80700E7E702B080BD7A
:1020500080B582B000208DF80600FFE79DF80600ED
:102060000E281ADCFFE79DF8060000EB400046F65C
:10207000A841C2F2010101EB8000FFF7B9FD002881
:1020800004D0FFE701208DF807000AE0FFE79DF884
:10209000060001308DF80600E0E700208DF807000B
:1020A000FFE79DF8070002B080BD000000000000BF
:1020B00080B582B000208DF806008DF80500FFE79E
:1020C0009DF805000E283CDCFFE79DF8050000EBBD
:1020D000400046F6A841C2F2010101EB8000FFF783
:1020E0006FFD002813D0FFE79DF8050000EB4000CE
:1020F00046F6A841C2F2010101EB8000FFF7A0FD06
:10210000002804D1FFE700208DF8070021E09DF8AA
:10211000050000EB400046F6A841C2F2010101EBC8
:102120008000FFF74DFD002804D0FFE701208DF867
:102130000600FFE7FFE79DF8050001308DF8050078
:10214000BEE79DF80600002818BF01208DF80700A3
:10215000FFE79DF8070002B080BD0000000000000E
:1021600080B582B000208DF806008DF80500FFE7ED
:102170009DF805000E283CDCFFE79DF8050000EB0C
:10218000400046F6A841C2F2010101EB8000FFF7D2
:1021900017FD002813D0FFE79DF8050000EB400075
:1021A00046F6A841C2F2010101EB8000FFF760FD95
:1021B000002804D1FFE700208DF8070021E09DF8FA
:1021C000050000EB400046F6A841C2F2010101EB18
:1021D0008000FFF7F5FC002804D0FFE701208DF810
:1021E0000600FFE7FFE79DF8050001308DF80500C8
:1021F000BEE79DF80600002818BF01208DF80700F3
:10220000FFE79DF8070002B080BD0000000000005D
:1022100080B5A6B046F69850C2F20100407800069C
:10222000002802D4FFE700F041BC47F26810C2F278
:10223000010047F2B861C2F2010101221D901C9217
:102240000EF04EFC47F2B461C2F201011D9A1B90E0
:1022500010461C9A0EF004FC47F22771C2F20101ED
:10226000097847F22672C2F20102127891424BDBE2
:10227000FFE747F2B860C2F201000078FFF734F9D7
:1022800047F22771C2F201010978884209DBFFE7B2
:1022900046F69850C2F20100016841F40011016055
:1022A00031E047F2B860C2F201000078FFF71CF994
:1022B00047F22671C2F201010978884209DAFFE784
:1022C00046F69850C2F20100016841F40011016025
:1022D00018E046F69850C2F2010080788006002887
:1022E0000FD5FFE746F69850C2F20100016821F4CD
:1022F0000011016047F22470C2F201000721017051
:10230000FFE7FFE7FFE753E047F22770C2F2010063
:10231000007847F22671C2F201010978884246DA54
:10232000FFE747F2B860C2F20100007847F2267179
:10233000C2F20101097800228842B8BF012210468A
:10234000FFF7D2F8002818D0FFE747F2B860C2F2D2
:1023500001000078FFF7C8F847F22771C2F20101C7
:102360000978884209DBFFE746F69850C2F201007F
:10237000016841F40011016018E046F69850C2F27D
:1023800001008078800600280FD5FFE746F69850B8
:10239000C2F20100016821F40011016047F22470CB
:1023A000C2F2010007210170FFE7FFE7FFE7FFE747
:1023B00046F69850C2F2010080788007002840F16C
:1023C000DE82FFE746F69850C2F201008078800670
:1023D000002840F1D482FFE746F69850C2F201008F
:1023E00080784007002840F1CA82FFE746F69850FF
:1023F000C2F201008078400600280DD5FFE740F6C4
:10240000FC40C2F20100007847F2B461C2F201015F
:102410000978884241D0FFE746F69850C2F20100A1
:10242000016841F48001016000201A901FF0A2F9B8
:102430001A981FF053FC19901EF04BF81A981FF0D1
:102440000BFA012018901FF095F918981FF046FC20
:102450004FF07F41179008461FF058FC1EF039F8E6
:1024600040F65900C2F201003C21017047F2B4600D
:10247000C2F20100007840F6FC41C2F2010108708E
:1024800009201FF0A1FC4FF47F41169008461FF071
:102490003FFC18981FF0E0F9FFE747F2B860C2F27E
:1024A00001001EA902221590084615990FF004FBA1
:1024B00015988178C907002904D0FFE73A208DF8E4
:1024C0007A0003E020208DF87A00FFE71EA8C11CE7
:1024D00047F2B862C2F201020132022314900846A8
:1024E00011461A460FF0E8FAF02088211EF088FD08
:1024F00047F22571C2F20101097840F2A872C2F2D6
:10250000010252F82110139008461FF001FC43F617
:10251000A820C0F604001FF009FC0E211290084606
:102520001FF05AFC0121119008461FF023F90020EA
:1025300050214FF4F072C02310901DF0D9FFDC2120
:1025400064224FF4877310981DF0D2FF14981EF088
:102550001FF947F2B460C2F201000078002807D1E9
:10256000FFE747F2B460C2F2010007210170FFE704
:1025700047F2B460C2F20100007801280FD1FFE7F2
:1025800042F22000ADF8800046F26E40C7F66110BE
:102590001F9042F22000C6F64D701E908FE047F269
:1025A000B460C2F20100007802280FD1FFE742F2C6
:1025B0007900ADF8800047F27340C6F264101F90B6
:1025C00045F22040C6F275501E9077E047F2B460A5
:1025D000C2F20100007803280FD1FFE742F2790030
:1025E000ADF8800047F26530C6F264101F9046F2E5
:1025F0005750C6F664601E905FE047F2B460C2F2C6
:102600000100007804280FD1FFE742F27900ADF80D
:10261000800047F27340C6F264101F9046F65400E3
:10262000C7F275201E9047E047F2B460C2F2010085
:10263000007805280FD1FFE742F22000ADF88000B6
:1026400046F26940C7F661101F9042F22000C7F2BF
:1026500046201E902FE047F2B460C2F201000078DD
:1026600006280FD1FFE742F27900ADF8800047F26B
:102670007520C6F264101F9045F22030C7F2614009
:102680001E9017E047F2B460C2F2010000780728FC
:102690000FD1FFE742F22000ADF8800046F26E4015
:1026A000C7F661101F9042F22000C7F253501E90EF
:1026B000FFE7FFE7FFE7FFE7FFE7FFE7FFE71EA80A
:1026C0000A3047F2B461C2F201018A1C02230F9161
:1026D00011461A460FF0F0F90F98417801290FD1F1
:1026E000FFE742F27900ADF88C0047F26E50C7F276
:1026F0006120229042F22E00C6F24A10219007E19A
:1027000047F2B460C2F20100407802280FD1FFE71F
:1027100047F67210ADF88C0047F26220C6F27510D1
:10272000229042F22E00C6F246502190EFE047F28E
:10273000B460C2F20100407803280FD1FFE742F2F3
:102740002000ADF88C0047F26120C6F663002290AD
:1027500042F22E00C4F620502190D7E047F2B46038
:10276000C2F20100407804280FD1FFE742F22000B6
:10277000ADF88C0047F27020C6F66940229042F214
:102780002E00C4F220102190BFE047F2B460C2F2E4
:102790000100407805280FD1FFE742F22000ADF894
:1027A0008C0046F24D10C2F27900229042F22E00C7
:1027B000C2F220002190A7E047F2B460C2F201000B
:1027C000407806280FD1FFE742F22000ADF88C00D8
:1027D00047F24A50C6F26E50229042F22E00C2F2E8
:1027E000200021908FE047F2B460C2F201004078EF
:1027F00007280FD1FFE742F22000ADF88C0047F226
:102800004A50C7F66C10229042F22E00C2F220000D
:10281000219077E047F2B460C2F2010040780828C6
:102820000FD1FFE742F22000ADF88C0047F267506D
:10283000C7F27340229042F22E00C7F2415021901D
:102840005FE047F2B460C2F20100407809280FD17E
:10285000FFE747F26520ADF88C0046F27450C6F2EF
:102860006D20229045F22E30C7F26500219047E09E
:1028700047F2B460C2F20100407810280FD1FFE7A0
:1028800042F27200ADF88C0046F67470C6F26250E7
:10289000229042F22E00C6F24F3021902FE047F2F4
:1028A000B460C2F20100407811280FD1FFE747F26F
:1028B0006520ADF88C0046F27650C6F26D2022906D
:1028C00042F22E00C6F64E70219017E047F2B46037
:1028D000C2F20100407812280FD1FFE747F26520CD
:1028E000ADF88C0046F26350C6F26D20229042F2A1
:1028F0002E00C6F244502190FFE7FFE7FFE7FFE715
:10290000FFE7FFE7FFE7FFE7FFE7FFE7FFE7FFE797
:1029100030208DF8900043F22020ADF88E001EA8E4
:1029200000F1190147F2B462C2F20102033202233C
:102930000E90084611461A460FF0BEF82E208DF86C
:10294000930000208DF894004AF68860C0F60300DA
:102950001FF0ECF9F021CE220D90084611461EF032
:102960004FFB0E210C9008461FF036FA0E990B9083
:1029700008461DF00DFF01201EF06EFF60E040F6DE
:102980005900C2F20100007847F2B861C2F20101B9
:102990004978884253D0FFE747F2B860C2F201009D
:1029A000014611F8012F40F65903C2F201031A70D3
:1029B0001EAA02230A901046DDF828C0099161463C
:1029C00008921A4607930FF077F83A208DF87A00AC
:1029D000089803300999079A0FF06EF84CF6B84042
:1029E000C0F603001FF0A2F96FF07F410690084681
:1029F0001FF08EF907981FF0F9F90C210590084691
:102A00001FF0EAF901210490084603911EF0B2FE7E
:102A10000520F5211EF0F4FA0021DC2264234FF496
:102A2000877C0290084611461A4663461DF060FDF9
:102A300008981DF0ADFE03981EF00EFFFFE7FFE7BC
:102A400040F6FC40C2F20100007847F2B461C2F2E5
:102A500001010978884229D0FFE747F2B460C2F249
:102A60000100017840F6FC42C2F201021170827846
:102A700047F26811C2F20101022301900846009159
:102A800019460DF025FF01984278032100980DF0BA
:102A90001FFF01980278042100980DF019FF01989A
:102AA000C278052100980DF013FFFFE726B080BD26
:102AB00080B582B001468DF806009DF80600012819
:102AC00016D1FFE740F6FD40C2F201000078002871
:102AD0000ED1FFE740F6FD40C2F201000121017076
:102AE00009F052FF40F60051C2F20101086039E0DE
:102AF0009DF8060001281FD1FFE740F6FD40C2F215
:102B000001000078012817D1FFE709F03DFF40F6EA
:102B10000051C2F201010968401AB0F5586F0AD39A
:102B2000FFE740F6FD40C2F20100002101700120E4
:102B30008DF807001AE014E09DF8060000280FD178
:102B4000FFE740F6FD40C2F201000078012807D1FE
:102B5000FFE740F6FD40C2F2010000210170FFE7EF
:102B6000FFE7FFE700208DF80700FFE79DF807006B
:102B700002B080BD0000000080B546F69850C2F259
:102B8000010080788007002810D5FFE746F69850AE
:102B9000C2F2010080788006002807D5FFE747F2DF
:102BA0002470C2F2010007210170FFE746F6985039
:102BB000C2F20100016821F400310160016821F4D2
:102BC0008001016009F0E0FE47F22871C2F20101C4
:102BD000086047F22C70C2F201001E21017047F21A
:102BE0007000C2F20100007800F002F880BD000021
:102BF00081B001468DF803009DF80300042804DC31
:102C0000FFE705208DF8030009E09DF80300512837
:102C100004DBFFE750208DF80300FFE7FFE79DF896
:102C2000030000EB8000400047F28811C2F201016E
:102C30000968486301B0704780B586B001200590EF
:102C40001EF098FDC32091214FF4A072EB231DF0DC
:102C50004FFC6FF07F401FF05BF840F21810C0F699
:102C600004001FF063F80021049008461FF0BEF82E
:102C70000599039008461FF0AFF8C82196220290EC
:102C8000084611461EF0BCF947F6DC61C2F20101AC
:102C9000897A02220190084611461DF039FD0598F7
:102CA0001EF0DAFD06B080BD80B586B01EF0B0F92A
:102CB00044F61941C0F60101059008461EF06AFE6F
:102CC0000120049024F0E4F903901FF0D7F90020CC
:102CD0001FF004F802901DF0FCFB04981EF0FEFFAC
:102CE0004FF07F41019008461FF010F81DF0F1FBF6
:102CF00040F69C50C2F20100302115F071F840F608
:102D0000E050C2F20100502115F06AF846F68E40FC
:102D1000C2F201004FF4E371049A07F089FC0090BD
:102D200009F032FE46F6A051C2F2010108601DF022
:102D3000E3FF06B080BD000080B5ADF5BE6D09F0C3
:102D400023FE40F61051C2F201010968401A6428BE
:102D50000AD3FFE709F018FE40F61051C2F2010154
:102D600008601DF0C9FFFFE747F2A860C2F201004A
:102D70000078C007002845D0FFE740F26470C2F237
:102D80000100007800283BD1FFE740F26470C2F2F6
:102D90000100012101700846CDF8B0151EF0EAFCD3
:102DA0001DF097FB4AF68860C0F603001EF0BEFFD8
:102DB0004AF2FF51CDF8AC0508461EF0A9FF0220EB
:102DC0001FF014F80E21CDF8A80508461FF004F8EE
:102DD000F0218722CDF8A405084611461EF010F90F
:102DE00043F60D21C0F60501CDF8A00508461DF0FB
:102DF000CFFCDDF8B0051EF02FFDFFF7BDFEFFE7AD
:102E000004F08EBC40F26470C2F201000078012828
:102E10000CD1FFE740F26470C2F2010000210170A2
:102E200047F22870C2F2010001605BE040F264707A
:102E3000C2F201000078022853D1FFE740F264702B
:102E4000C2F20100002101700120CDF89C051EF0A6
:102E500091FC1DF03EFB09201EF0B6FFFF21CDF8CE
:102E6000980508461EF054FFF02088213222CDF844
:102E70009425DDF894351DF063FD4FF4C8704FF4D0
:102E8000E1711422CDF89005CDF88C151146DDF8CE
:102E90008C35CDF888251A46DDF888351DF076FE8C
:102EA0002820DDF89015CDF884050846DDF8841556
:102EB000DDF88C25DDF884351DF068FE3C20DDF85A
:102EC0009015CDF880050846DDF88015DDF88C25D5
:102ED000DDF880351DF05AFEDDF89C051EF0BCFCC7
:102EE000FFE7FFE7FFE747F22470C2F20100007836
:102EF00001461528CDF87C1504F23D82DDF87C15DD
:102F0000DFE811F0CD2116006802CD03B3089E0A58
:102F1000CA0B7D0EE20E9B103913B9156F16A91658
:102F2000AF178F1B7A1CCD1DF11EDE1F57201421F9
:102F300040F61450C2F2010000680028CDF8780570
:102F40000CD0FFE7DDF87805012800F03481FFE7B9
:102F5000DDF87805022800F04A810DE247F2B070F2
:102F6000C2F201000121017000208DF8DF05FFE7AA
:102F70009DF8DF05CDF8740510F0A2FFDDF874159B
:102F800081422CDAFFE79DF8DF0500EBC00047F235
:102F90003841C2F2010101EB800010F035FE00283B
:102FA00016D0FFE79DF8DF0500EBC00047F238417F
:102FB000C2F2010101EB800010F0DEFD002807D015
:102FC000FFE747F2B070C2F201000021017006E095
:102FD000FFE79DF8DF0501308DF8DF05C8E747F210
:102FE000B070C2F20100007801460028CDF87015DB
:102FF00005D0FFE7DDF87005012868D068E040F6ED
:103000001450C2F20100012101600846CDF86C1590
:103010001EF0B0FB1DF05DFA09201EF0D5FE47F250
:103020002571C2F20101097840F2A872C2F20102D0
:1030300052F82110CDF8680508461EF069FE4FF4DD
:10304000C8704FF4E1711422CDF86405CDF8601515
:103050001146DDF86035CDF85C251A46DDF85C35A3
:103060001DF094FD2820DDF86415CDF858050846BC
:10307000DDF85815DDF86025DDF858351DF086FDC2
:103080003C20DDF86415CDF854050846DDF85415EC
:10309000DDF86025DDF854351DF078FD4FF47F40F4
:1030A0001EF036FEF02088213222CDF85025DDF8C2
:1030B00050351DF045FCDDF86C051EF0CDFB09F028
:1030C00063FC40F61C51C2F20101086067E0FFE7B3
:1030D00040F61450C2F20100042101600120CDF835
:1030E0004C051EF047FB1DF0F4F909201EF06CFEA4
:1030F00047F22571C2F20101097840F2A872C2F2CA
:10310000010252F82110CDF8480508461EF000FED5
:103110004FF4C8704FF4E1711422CDF84405CDF896
:1031200040151146DDF84035CDF83C251A46DDF84E
:103130003C351DF02BFD2820DDF84415CDF8380571
:103140000846DDF83815DDF84025DDF838351DF086
:103150001DFD3C20DDF84415CDF834050846DDF8AA
:103160003415DDF84025DDF834351DF00FFDFF2066
:103170001EF0CEFDF02088213222CDF83025DDF87A
:1031800030351DF0DDFBDDF84C051EF065FB09F068
:10319000FBFB40F61C51C2F201010860FFE740F65C
:1031A0001450C2F201000021016047F22470C2F203
:1031B00001000170E0E009F0E7FB40F61C51C2F2AB
:1031C00001010968401AB0F5FA7F0FD3FFE740F616
:1031D0001450C2F2010001680131016009F0D4FB12
:1031E00040F63451C2F201010860FFE7C4E009F083
:1031F000CBFB40F63451C2F201010968401A0F2896
:10320000C0F0B980FFE709F0BFFB40F63451C2F2CD
:103210000101086040F62C50C2F20100006800284D
:10322000CDF82C0505D0FFE7DDF82C05012850D09E
:1032300050E040F69C50C2F20100807DFE2808DC80
:10324000FFE740F69C50C2F20100817D013181759B
:10325000FFE740F69C50C2F20100807EFE2808DCA9
:10326000FFE740F69C50C2F20100817E0131817679
:10327000FFE740F69C50C2F20100807FFE2808DC88
:10328000FFE740F69C50C2F20100817F0131817757
:10329000FFE740F69C50C2F20100807DFF2817D165
:1032A000FFE740F69C50C2F20100807EFF280FD15C
:1032B000FFE740F69C50C2F20100807FFF2807D153
:1032C000FFE740F62C50C2F2010001210160FFE748
:1032D00050E0FFE740F69C50C2F20100807D0028DC
:1032E00008D0FFE740F69C50C2F20100817D013911
:1032F0008175FFE740F69C50C2F20100807E0028F5
:1033000008D0FFE740F69C50C2F20100817E0139EF
:103310008176FFE740F69C50C2F20100807F0028D2
:1033200008D0FFE740F69C50C2F20100817F0139CE
:103330008177FFE740F69C50C2F20100807D0028B3
:1033400017D1FFE740F69C50C2F20100807E0028B2
:103350000FD1FFE740F69C50C2F20100807F0028A9
:1033600007D1FFE740F62C50C2F2010000210160B6
:10337000FFE7FFE7FFE7FFE709F006FB47F22871E9
:10338000C2F20101086047F21750C2F201000021A9
:10339000017047F21350C2F20100017047F216505B
:1033A000C2F20100017047F21550C2F20100017033
:1033B00047F21450C2F20100017040F65900C2F207
:1033C00001003C22027047F2D060C2F201000160AD
:1033D00003F0F1BF47F21450C2F201000078002858
:1033E00040F05B81FFE747F21450C2F20100017820
:1033F000013101700120CDF828051EF0BBF9002035
:103400001EF06CFCCDF824051DF063F8DDF82805EE
:103410001EF064FC4FF07F41CDF8200508461EF0F9
:1034200075FC1DF056F809201EF0CEFC47F2257100
:10343000C2F20101097840F2A872C2F2010252F808
:103440002110CDF81C0508461EF062FC4FF4C87030
:103450004FF4E1711422CDF81805CDF8141511467A
:10346000DDF81435CDF810251A46DDF810351DF0BD
:103470008DFB2820DDF81815CDF80C050846DDF881
:103480000C15DDF81425DDF80C351DF07FFB3C2014
:10349000DDF81815CDF808050846DDF80815DDF843
:1034A0001425DDF808351DF071FB0A204FF4BE71BC
:1034B0004FF48373CDF804050846DDF80425CDF8F4
:1034C00000151146DDF800251DF060FB1E204FF4AD
:1034D000AF728821CDF8FC14DDF8FC341DF056FBEA
:1034E000BE20FC23CDF8F804DDF81015DDF8F82433
:1034F0001DF04CFB43F25C20C0F6050040F2811148
:103500009F221DF0F7F943F25810C0F6050037214D
:10351000CDF8F414DDF804251DF0ECF943F2A81001
:10352000C0F60500F5210F221DF0E4F943F2F81072
:10353000C0F605009622DDF8F4141DF0DBF906F064
:103540004BFE002809D0FFE743F23420C0F6050007
:10355000F0219B221DF0CEF908E043F22020C0F6B6
:103560000500F0219B221DF0C5F9FFE74AF68860AF
:10357000C0F603001EF0DAFB4AF2FF51CDF8F0046A
:1035800008461EF0C5FB0220CDF8EC041EF02EFC10
:103590000E21CDF8E8040846CDF8E4141EF01CFC1A
:1035A0005F216E22CDF8E0040846CDF8DC14114608
:1035B000CDF8D8241DF024FD1421CDF8D4040846FC
:1035C00019F0E2FD47F2AA20C2F20100CDF8D004C2
:1035D0001DF0DEF8DDF8E4041EF0FEFB40F21D11E4
:1035E000CDF8CC040846DDF8D824CDF8C81411462F
:1035F0001DF006FDDDF8EC14CDF8C404084619F002
:10360000C3FDDDF8D0041DF0C3F8DDF8E4041EF0BE
:10361000E3FBFA21DDF8DC24CDF8C0041046CDF838
:10362000BC141DF0EDFC1521CDF8B804084619F0C6
:10363000ABFDDDF8D0041DF0ABF8DDF8E4041EF0BE
:10364000CBFBDDF8C814CDF8B4040846DDF8BC1493
:103650001DF0D6FC3521CDF8B004084619F094FDD4
:10366000DDF8D0041DF094F801201EF0F5F847F2C3
:103670001750C2F201000021017047F21350C2F24C
:103680000100017047F21650C2F20100017047F2CA
:103690001550C2F201000170FFE703F08CBE47F243
:1036A0001350C2F20100007801460328CDF8AC1493
:1036B00000F2D984DDF8AC14DFE811F004008C01CD
:1036C000D101BC0247F21350C2F20100017801316E
:1036D000017001201EF04EF81CF0FBFE05201EF0CC
:1036E00073FBFF21CDF8A80408461EF011FBDC2077
:1036F00078214FF48872CDF8A4040846DDF8A4348C
:10370000CDF8A0141946DDF8A0C4CDF89C2462467B
:10371000DDF89C341DF03AFAF020CDF89804DDF87D
:10372000A414DDF89824DDF89C341DF02FFA4FF432
:10373000B470CDF89404DDF8A414DDF89424DDF819
:103740009C341DF023FA43F29410C0F60500412189
:10375000D722CDF890241DF0CDF843F28010C0F6AA
:103760000500B921CDF88C04DDF890241DF0C2F8D5
:1037700040F23111DDF88C04DDF890241DF0BAF828
:1037800043F24410C0F605004FF4C871BE221DF08C
:10379000B1F840F69C50C2F20100807D00280CD0A8
:1037A000FFE743F26C10C0F605003C21CDF8881409
:1037B000DDF888241DF09EF80BE043F25810C0F6A7
:1037C00005003C21CDF88414DDF884241DF092F826
:1037D000FFE740F69C50C2F20100807E002809D02D
:1037E000FFE743F26C10C0F60500C8213C221DF033
:1037F00081F808E043F25810C0F60500C8213C22C9
:103800001DF078F8FFE740F69C50C2F20100807F7F
:1038100000280AD0FFE743F26C10C0F605004FF411
:10382000AA713C221DF066F809E043F25810C0F678
:1038300005004FF4AA713C221DF05CF8FFE74AF640
:103840008860C0F603001EF071FA4AF2FF51CDF80D
:10385000800408461EF05CFA02201EF0C7FA0C2114
:10386000CDF87C0408461EF0B7FA0521FA22CDF8FF
:10387000780408461146CDF874241DF0C1FB43F6C8
:103880000121C0F60501CDF8700408461CF080FF48
:103890008720DDF874141DF0B3FB43F2B361C0F66A
:1038A0000501CDF86C0408461CF072FFFF20DDF81E
:1038B00074141DF0A5FB43F66021C0F60501CDF898
:1038C000680408461CF064FF0F201EF085FA64218E
:1038D0002822CDF86404084611461DF091FB40F6FD
:1038E0009C51C2F20101897D002914D0FFE740F606
:1038F0009C50C2F20100807D6421484348F281015E
:10390000C8F28001A0FB0101C909CDF86004084696
:103910001CF012FFFFE7F02028211DF071FB40F69C
:103920009C51C2F20101897E002914D0FFE740F6C4
:103930009C50C2F20100807E6421484348F281011C
:10394000C8F28001A0FB0101C909CDF85C0408465A
:103950001CF0F2FEFFE74FF4BE7028211DF050FB73
:1039600040F69C51C2F20101897F002914D0FFE783
:1039700040F69C50C2F20100807F6421484348F227
:103980008101C8F28001A0FB0101C909CDF85804EA
:1039900008461CF0D1FEFFE701201DF05DFF47F255
:1039A0001750C2F201000021017047F21650C2F216
:1039B0000100017047F21550C2F20100017047F298
:1039C0001450C2F20100017040F60450C2F201002E
:1039D000017048E346F69E40C2F2010000780028DC
:1039E00010D1FFE746F69F40C2F2010000780028A0
:1039F00008D1FFE746F6A040C2F201000078002897
:103A00002CD0FFE746F69E40C2F20100007840F657
:103A10000451C2F20101087046F69F40C2F2010053
:103A2000007840F60551C2F20101087046F6A04048
:103A3000C2F20100007840F60651C2F2010108709E
:103A400047F21350C2F201000221017008F09CFFFE
:103A500040F60851C2F201010860FFE703E308F0F5
:103A600093FF40F60851C2F201010968401AB0F50F
:103A70007A7F1FD3FFE708F087FF40F63451C2F288
:103A80000101086047F21350C2F2010001780131D0
:103A9000017040F60450C2F201000021017040F6AE
:103AA0000550C2F20100017040F60650C2F201005A
:103AB0000170BEE046F69E40C2F201000078002888
:103AC00040F0B680FFE746F69F40C2F20100007862
:103AD000002840F0AD80FFE746F6A040C2F20100AA
:103AE0000078002840F0A480FFE740F60450C2F2BE
:103AF0000100007800280FD0FFE740F69C50C2F28A
:103B00000100807D002807D0FFE740F69C50C2F2FC
:103B100001000021817517E040F60450C2F2010057
:103B2000007800280FD0FFE740F69C50C2F2010059
:103B3000807D002807D1FFE740F69C50C2F20100CB
:103B4000FF218175FFE7FFE740F60550C2F2010053
:103B5000007800280FD0FFE740F69C50C2F2010029
:103B6000807E002807D0FFE740F69C50C2F201009B
:103B70000021817617E040F60550C2F2010000787E
:103B800000280FD0FFE740F69C50C2F20100807E73
:103B9000002807D1FFE740F69C50C2F20100FF2148
:103BA0008176FFE7FFE740F60650C2F20100007899
:103BB00000280FD0FFE740F69C50C2F20100807F42
:103BC000002807D0FFE740F69C50C2F20100002118
:103BD000817717E040F60650C2F201000078002815
:103BE0000FD0FFE740F69C50C2F20100807F002812
:103BF00007D1FFE740F69C50C2F20100FF21817718
:103C0000FFE7FFE747F21350C2F201000021017005
:103C100040F60450C2F20100017040F60550C2F2B5
:103C20000100017040F60650C2F201000170FFE78A
:103C3000FFE718E246F69E40C2F201000078002835
:103C400017D1FFE746F69F40C2F201000078002836
:103C50000FD1FFE746F6A040C2F20100007800282D
:103C600007D1FFE747F21350C2F2010000210170B3
:103C7000F8E108F089FE40F63451C2F2010109680A
:103C8000401A0F28C0F0ED81FFE708F07DFE40F6F6
:103C90003451C2F20101086046F69E40C2F20100B2
:103CA0000078002800F09E80FFE701201DF062FDF3
:103CB00040F60C50C2F2010000680028CDF8540410
:103CC00005D0FFE7DDF8540401282CD02CE040F6A5
:103CD0009C50C2F20100807D00280CD1FFE743F226
:103CE0006C10C0F605003C21CDF85014DDF85024CE
:103CF0001CF000FEFFE740F69C50C2F20100807D00
:103D0000FE2808DCFFE740F69C50C2F20100817DEE
:103D10000131817506E040F60C50C2F2010001212C
:103D20000160FFE731E0FFE740F69C50C2F201007E
:103D3000807D002808D0FFE740F69C50C2F20100C9
:103D4000817D013981751FE040F60C50C2F20100FF
:103D5000002101603C20A021CDF84C04DDF84C246A
:103D6000CDF848141146DDF84824DDF848341CF03D
:103D7000BFFB43F25810C0F60500DDF84C14DDF827
:103D80004C241CF0B7FDFFE7FFE764201E21C8228A
:103D90003223CDF844041CF0ABFB2821DDF84404A9
:103DA0001DF02EF90F21CDF8400408461EF014F83E
:103DB00040F69C51C2F20101897DDDF84424514353
:103DC00048F28103C8F28003A1FB0313DB09CDF89D
:103DD0003C041846CDF838141CF0AEFC01201DF050
:103DE0003BFD3DE146F69F40C2F20100007800280D
:103DF00000F09480FFE701201DF0BCFC40F60C5061
:103E0000C2F2010000680028CDF8340405D0FFE7B5
:103E1000DDF83404012829D029E040F69C50C2F294
:103E20000100807E002809D1FFE743F26C10C0F644
:103E30000500C8213C221CF05DFDFFE740F69C50C8
:103E4000C2F20100807EFE2808DCFFE740F69C50AD
:103E5000C2F20100817E0131817606E040F60C500D
:103E6000C2F2010001210160FFE72DE0FFE740F60B
:103E70009C50C2F20100807E002808D0FFE740F687
:103E80009C50C2F20100817E013981761BE040F630
:103E90000C50C2F2010000210160C8203C214FF407
:103EA0009672A023CDF83004CDF82C141CF020FB22
:103EB00043F25810C0F60500DDF83014DDF82C246C
:103EC0001CF018FDFFE7FFE7DC201E214FF4A07275
:103ED00032231CF00DFBF02028211DF091F80F215A
:103EE000CDF8280408461DF077FF40F69C51C2F239
:103EF0000101897E6422514348F28102C8F28002A6
:103F0000A1FB0212D209CDF824041046CDF82014EA
:103F10001CF012FC01201DF09FFCA0E046F6A04022
:103F2000C2F201000078002800F09880FFE701202D
:103F30001DF020FC40F60C50C2F201000068002881
:103F4000CDF81C0405D0FFE7DDF81C0401282AD0B9
:103F50002AE040F69C50C2F20100807F00280AD17E
:103F6000FFE743F26C10C0F605004FF4AA713C2243
:103F70001CF0C0FCFFE740F69C50C2F20100807FBD
:103F8000FE2808DCFFE740F69C50C2F20100817F6A
:103F90000131817706E040F60C50C2F201000121A8
:103FA0000160FFE72EE0FFE740F69C50C2F20100FF
:103FB000807F002808D0FFE740F69C50C2F2010045
:103FC000817F013981771CE040F60C50C2F201007C
:103FD000002101604FF4AA703C214FF4DC72A02351
:103FE000CDF81804CDF814141CF082FA43F25810DE
:103FF000C0F60500DDF81814DDF814241CF07AFC76
:10400000FFE7FFE74FF4AA701E214FF4DC72322362
:104010001CF06EFA4FF4BE7028211CF0F1FF0F2146
:10402000CDF8100408461DF0D7FE40F69C51C2F2B0
:104030000101897F6422514348F28102C8F2800263
:10404000A1FB0212D209CDF80C041046CDF80814D9
:104050001CF072FB01201DF0FFFBFFE7FFE7FFE70D
:10406000FFE7FFE7FFE703F0A6B947F21650C2F2F9
:1040700001000078002840F00081FFE747F2165069
:10408000C2F2010001780131017001201DF072FBC4
:104090001CF01FFA0520CDF804041DF095FEFF2149
:1040A000CDF800040846FF911DF032FEDC20782197
:1040B0004FF48872FE900846FE9BFD911946DDF88C
:1040C000F4C3FC926246FC9B1CF060FDF020FB9068
:1040D000FE99FB9AFC9B1CF059FD4FF4B470FA90CA
:1040E000FE99FA9AFC9B1CF051FD43F28010C0F639
:1040F00005004121D722F990F8921CF0FBFB43F216
:104100009410C0F60500B921F89A1CF0F3FB40F2B8
:104110003111F998F89A1CF0EDFB43F24410C0F607
:1041200005004FF4C871BE221CF0E4FB4AF688601B
:10413000C0F603001DF0FAFD4AF2FF51F790084661
:104140001DF0E6FD02201DF051FE0C21F690084600
:104150001DF042FEFA21DDF80424F5901046F4919A
:104160001CF04EFF43F60121C0F60501F39008460E
:104170001CF00EFB8720F4991CF042FF43F2B36160
:10418000C0F60501F29008461CF002FBFF98F49976
:104190001CF036FF43F66021C0F60501F190084699
:1041A0001CF0F6FA40F69C50C2F20100807900281B
:1041B0000AD0FFE743F26C10C0F605003C21F091F5
:1041C000F09A1CF097FB09E043F25810C0F6050086
:1041D0003C21EF91EF9A1CF08DFBFFE740F69C50DD
:1041E000C2F20100807A002809D0FFE743F26C1088
:1041F000C0F60500C8213C221CF07CFB08E043F21D
:104200005810C0F60500C8213C221CF073FBFFE7E4
:1042100040F69C50C2F20100807B00280AD0FFE7E4
:1042200043F26C10C0F605004FF4AA713C221CF05A
:1042300061FB09E043F25810C0F605004FF4AA7183
:104240003C221CF057FBFFE701201DF005FB47F265
:104250001750C2F201000021017047F21350C2F260
:104260000100017047F21550C2F20100017047F2DF
:104270001450C2F201000170E0E047F21650C2F2A1
:1042800001000078012840F0AF80FFE746F69E402D
:10429000C2F20100007800280FD0FFE740F69C50E2
:1042A000C2F201008079002807D0FFE740F69C5059
:1042B000C2F201000021817117E046F69E40C2F271
:1042C0000100007800280FD0FFE740F69C50C2F2B2
:1042D00001008079002807D1FFE740F69C50C2F228
:1042E000010001218171FFE7FFE746F69F40C2F21E
:1042F0000100007800280FD0FFE740F69C50C2F282
:104300000100807A002807D0FFE740F69C50C2F2F7
:1043100001000021817217E046F69F40C2F20100C1
:10432000007800280FD0FFE740F69C50C2F2010051
:10433000807A002807D1FFE740F69C50C2F20100C6
:1043400001218172FFE7FFE746F6A040C2F20100BB
:10435000007800280FD0FFE740F69C50C2F2010021
:10436000807B002807D0FFE740F69C50C2F2010096
:104370000021817317E046F6A040C2F201000078E8
:1043800000280FD0FFE740F69C50C2F20100807B6E
:10439000002807D1FFE740F69C50C2F2010001213E
:1043A0008173FFE7FFE746F69E40C2F20100007806
:1043B000002810D1FFE746F69F40C2F201000078C6
:1043C000002808D1FFE746F6A040C2F201000078BD
:1043D000002808D0FFE747F21650C2F2010001782A
:1043E00001310170FFE728E047F21650C2F20100E8
:1043F0000078022820D1FFE746F69E40C2F2010075
:104400000078002817D1FFE746F69F40C2F201006E
:10441000007800280FD1FFE746F6A040C2F2010065
:104420000078002807D1FFE747F21650C2F20100DA
:1044300000210170FFE7FFE7FFE7FFE702F0BBBFE6
:1044400047F21550C2F201000078002840F0C48005
:10445000FFE747F21550C2F2010001780131017007
:1044600001201DF087F91CF034F805201DF0ACFC8C
:10447000FF21EE9008461DF04BFCDC2078214FF424
:104480008872ED900846ED9BEC911946DDF8B0C3BB
:10449000EB926246EB9B1CF079FBF020EA90ED99E1
:1044A000EA9AEB9B1CF072FB4FF4B470E990ED9923
:1044B000E99AEB9B1CF06AFB40F69C50C2F20100AB
:1044C000807C002809D0FFE743F26C10C0F605009D
:1044D000C8213C221CF00EFA08E043F25810C0F646
:1044E0000500C8213C221CF005FAFFE743F28010CA
:1044F000C0F605004121D722E890E7921CF0FAF9B6
:10450000B921E898E79A1CF0F5F943F29410C0F647
:10451000050040F23111E79A1CF0ECF943F2441027
:10452000C0F605004FF4C871BE221CF0E3F94AF64C
:104530008860C0F603001DF0F9FB4AF2FF51E690D7
:1045400008461DF0E5FB02201DF050FC0C21E59013
:1045500008461DF041FC0521FA22E4900846114668
:10456000E3921CF04DFD43F60121C0F60501E290F7
:1045700008461CF00DF98720E3991CF041FD43F239
:10458000B361C0F60501E19008461CF001F9FF2077
:10459000E3991CF035FD43F66021C0F60501E0907B
:1045A00008461CF0F5F801201DF056F947F21750A7
:1045B000C2F201000021017047F21350C2F2010063
:1045C000017047F21650C2F20100017047F2145018
:1045D000C2F2010001705DE047F21550C2F2010025
:1045E000007801283CD1FFE746F69F40C2F2010067
:1045F0000078002833D0FFE740F69C50C2F201005B
:10460000807C00280ED1FFE740F69C50C2F20100EA
:104610000121817408F0B8F940F62051C2F201017D
:10462000086014E040F69C50C2F20100807C002833
:104630000CD0FFE740F69C50C2F2010000218174CB
:1046400040F62050C2F201000160FFE7FFE747F2A9
:104650001550C2F20100017801310170FFE718E046
:1046600047F21550C2F201000078022810D1FFE78E
:1046700046F69F40C2F201000078002807D1FFE70C
:1046800047F21550C2F2010000210170FFE7FFE779
:10469000FFE7FFE702F08FBE01201DF06BF847F245
:1046A0001750C2F201000078002840F09F80FFE719
:1046B00047F21750C2F20100017801310170002069
:1046C000DF901DF057F8DF981DF008FBDF99DE90B2
:1046D00008461DF01DFB1BF0FCFE41F69010C9F2D0
:1046E0000500DF99DF9A1BF0CDFD0921DD9008461A
:1046F0001DF06AFB47F22571C2F20101097840F210
:10470000A872C2F2010252F82110DC9008461DF096
:10471000FFFA4FF4BE704FF4F0716423DF9ADB911F
:104720001146DB9A1BF0E4FE4FF4C8704FF4E171C0
:104730001422DA90D9911146D99BD8921A46D89B67
:104740001CF024FA2820DA99D7900846D799D99AEC
:10475000D79B1CF01BFA3C20DA99D6900846D699D4
:10476000D99AD69B1CF012FA4FF4AF705021B422A4
:10477000DB9BD5921A46D59B1BF0BAFE4FF49B707B
:104780004FF4D272CD23D5991BF0B2FEDF981DF005
:1047900063F801201DF0A2FA4FF07F41D490084643
:1047A0001DF0B4FA1BF095FEFEF746FAFDF730FD5A
:1047B00046F69850C2F20100016841F48011016090
:1047C00047F21350C2F20100DF99017047F2165010
:1047D000C2F20100017047F21550C2F201000170EF
:1047E00047F21450C2F201000170C2E147F21750C3
:1047F000C2F201000078012840F0BA81FFE746F6D6
:104800009540C2F20100007800281AD0FFE746F672
:104810008D40C2F201000078002812D1FFE746F671
:104820008D40C2F201000121017016F05DFA47F6D9
:10483000DC60C2F20100702113F02EFDFEF7FCF9DE
:1048400017E046F69540C2F20100007800280FD12B
:10485000FFE746F68D40C2F201000078002807D03D
:10486000FFE746F68D40C2F2010000210170FFE72C
:10487000FFE746F69440C2F20100007800281AD003
:10488000FFE746F68C40C2F201000078002812D102
:10489000FFE746F68C40C2F201000121017016F0DC
:1048A00017FA47F6DC60C2F20100702113F0F4FC45
:1048B000FEF7C2F917E046F69440C2F20100007814
:1048C00000280FD1FFE746F68C40C2F201000078C5
:1048D000002807D0FFE746F68C40C2F20100002115
:1048E0000170FFE7FFE746F69850C2F201008078BA
:1048F000C006002840F19A80FFE746F69850C2F2C1
:104900000100016821F4801101604FF4CD70B921DC
:104910004FF4F072EB23D3921BF0EAFD4FF49B703F
:10492000E621FF23D39A1BF0E3FD47F6DC60C2F2D9
:1049300001000078002805D0FFE74FF47F401DF00C
:10494000E7F903E0FF201DF0E3F9FFE74EF66840CA
:10495000C0F603001DF0EAF94FF4CD71AA22D290FF
:10496000084611461CF04CFB0C21D19008461DF066
:1049700033FA47F6DC61C2F201010978002907D059
:10498000FFE743F6FE00C0F605001BF001FF06E05E
:1049900043F63700C0F605001BF0FAFEFFE74FF4C0
:1049A0009B70F2211CF02CFB48F25871C0F60301F9
:1049B000D09008461DF0BAF90C21CF900846CE9150
:1049C0001DF00AFA6FF07F41CD9008461DF0A0F966
:1049D00040F29F10DC211CF013FB49F6F021C0F6D9
:1049E0000301CC9008461DF0A1F9CE99CB90084662
:1049F0001DF0F2F947F6DC61C2F20101B1F90210D3
:104A000046F26762C6F2666251FB02F18A1002EB5F
:104A1000D1710322CA90084611461BF0A1FE43F64D
:104A20009A20C0F605001BF0B3FEFFE707F0ACFFCD
:104A300047F2D061C2F201010968401AB0F57A7FED
:104A4000C0F09580FFE707F09FFF47F2D061C2F208
:104A50000101086040F62850C2F2010001680131EE
:104A600001600B2919D3FFE740F62850C2F201007C
:104A70000021016046F69850C2F20100807880075C
:104A8000002809D4FFE746F69850C2F201000168F9
:104A900041F480110160FFE7FFE746F69850C2F24B
:104AA000010040780006002860D5FFE747F2681053
:104AB000C2F2010047F2B861C2F201010122C990BD
:104AC000C891C7920CF00CF847F2B461C2F2010130
:104AD000C99AC6901046C79A0BF0C2FF0DF5BD618A
:104AE0000222C5900846C89BC4911946C3920CF097
:104AF000E3FF3A208DF8EA05C4980330C8990131E4
:104B0000C39A0CF0D9FF00208DF8ED054CF6B841A2
:104B1000C0F60301C29008461DF008F96FF07F410E
:104B2000C19008461DF0F4F8C3981DF05FF90C2100
:104B3000C09008461DF050F90521F522BF900846A7
:104B400011461CF05DFAC799BE9008461CF012FE93
:104B5000DC2164224FF48773C2981BF0C9FCC4980F
:104B60001BF016FEC7981CF077FEFFE7FFE7FFE794
:104B7000FFE701201CF070FE47F6D860C2F201008A
:104B80000068002839D0FFE7FDF7F6FF07F0FCFECC
:104B900047F6D861C2F201010968401AB0F5FA6F10
:104BA0002AD9FFE747F6D860C2F201000021016070
:104BB00047F21750C2F20100017047F6DC60C2F202
:104BC00001000078002808D0FFE747F6DC60C2F259
:104BD00001000021C173017006E047F6DC60C2F2FB
:104BE000010002210170FFE747F6DC60C2F201001C
:104BF000702113F051FBFFE7FFE702F0DCBB002060
:104C0000BD901DF06BF8BC901BF063FC0120BB90C5
:104C10001DF064F84FF07F41BA9008461DF076F819
:104C20001BF057FC0520FDF7E3FF47F22470C2F2AA
:104C30000100BB99017040F61450C2F20100BD9A08
:104C4000026040F62450C2F20100016047F21750A2
:104C5000C2F20100027047F21350C2F2010002706A
:104C600047F21650C2F20100027047F21550C2F22C
:104C70000100027047F21450C2F20100027047F2C4
:104C80001250C2F20100027040F61850C2F2010048
:104C9000027040F63050C2F20100027046F6A340A6
:104CA000C2F20100027046F6A140C2F20100027099
:104CB00047F2F820C2F20100027040F65B00C2F237
:104CC0000100017002F077BB47F6DC60C2F2010020
:104CD000007846F6BC61C2F201010968B990084645
:104CE00020F0BEFAB999814214D0FFE746F6BC60C5
:104CF000C2F20100006820F0B3FA47F6DC61C2F2AC
:104D00000101087040F63050C2F201000178013113
:104D100001704DE147F6DC60C2F20100807B46F68F
:104D20008061C2F201010968B890084620F098FA43
:104D3000B899814214D0FFE746F68060C2F20100C4
:104D4000006820F08DFA47F6DC61C2F20101887339
:104D500040F63050C2F2010001780131017026E1C5
:104D600047F6DC60C2F20100007B46F6C861C2F281
:104D700001010968B790084620F0B6FFB799814253
:104D80001DD0FFE746F6C860C2F201000168B69088
:104D9000084620F0A9FFC0B216F016F8B6980068D1
:104DA00047F6DC61C2F20101097B20F0D8FF40F632
:104DB0003050C2F20100017801310170F6E047F68F
:104DC000DC60C2F20100407B46F6CC61C2F2010118
:104DD0000968B590084620F087FFB59981421DD03B
:104DE000FFE746F6CC60C2F201000168B4900846C5
:104DF00020F07AFFC0B216F017F8B498006847F6B2
:104E0000DC61C2F20101497B20F0A9FF40F630507D
:104E1000C2F20100017801310170C6E047F6DC60A2
:104E2000C2F20100007C46F68461C2F20101096809
:104E3000B390084620F058FFB399814214D0FFE7A1
:104E400046F68460C2F20100006820F04DFF47F68C
:104E5000DC61C2F20101087440F63050C2F2010078
:104E60000178013101709FE047F6DC60C2F2010079
:104E7000407C46F68C61C2F201010968B290084696
:104E800020F032FFB299814214D0FFE746F68C60E1
:104E9000C2F20100006820F027FF47F6DC61C2F291
:104EA0000101487440F63050C2F20100017801312E
:104EB000017078E047F6DC60C2F20100807C46F6C3
:104EC0008861C2F201010968B190084620F00CFF28
:104ED000B199814214D0FFE746F68860C2F2010022
:104EE000006820F001FF47F6DC61C2F2010188741E
:104EF00040F63050C2F2010001780131017051E0FA
:104F000047F6DC60C2F20100807D46F6C061C2F265
:104F100001010968B090084620F0E6FEB099814290
:104F200013D0FFE746F6C060C2F20100006820F02F
:104F3000DBFE47F6DC61C2F20101887540F63050B5
:104F4000C2F20100012101702BE047F6DC60C2F2E1
:104F50000100C07D00F0010046F6C461C2F201010B
:104F60000968AF90084619F03BFAAF99814217D013
:104F7000FFE746F6C460C2F20100006819F030FA9B
:104F8000002818BF012047F6DC61C2F20101C87594
:104F900040F63050C2F201004FF001010170FFE70E
:104FA000FFE7FFE7FFE7FFE7FFE7FFE7FFE7FFE7D1
:104FB00046F6D850C2F20100006819F08DF80028BA
:104FC00023D0FFE740F63050C2F2010000780028FD
:104FD0000CD0FFE747F6DC60C2F201007021AE9012
:104FE00013F05AF90120AE994876FFE740F63050A9
:104FF000C2F201000021017004F0AAFC47F2247003
:10500000C2F201000721017015E046F6D450C2F249
:105010000100006819F060F800280BD0FFE704F0E9
:1050200097FC02F0CDFE47F22470C2F201000A2183
:105030000170FFE7FFE702F0BEB940F69C50C2F2F4
:105040000100007946F6C051C2F201010968AD9035
:10505000084620F049FEAD99814221D0FFE746F68F
:10506000C050C2F20100006820F03EFE40F69C51A4
:10507000C2F2010108710879002809D1FFE746F65C
:10508000AC50C2F201000068002120F068FEFFE78A
:1050900040F61850C2F20100017801310170FFE7BB
:1050A00040F69C50C2F20100007A46F6C451C2F2AA
:1050B00001010968AC90084620F016FEAC998142C7
:1050C00021D0FFE746F6C450C2F20100006820F08C
:1050D0000BFE40F69C51C2F201010872087A0028CA
:1050E00009D1FFE746F6B050C2F201000068002186
:1050F00020F035FEFFE740F61850C2F201000178BB
:1051000001310170FFE740F69C50C2F20100007BC4
:1051100046F6C851C2F201010968AB90084620F07A
:10512000E3FDAB99814221D0FFE746F6C850C2F2B9
:105130000100006820F0D8FD40F69C51C2F2010148
:105140000873087B002809D1FFE746F6B450C2F285
:1051500001000068002120F002FEFFE740F6185031
:10516000C2F20100017801310170FFE740F69C5066
:10517000C2F20100007C46F6D051C2F2010109687A
:10518000AA90084620F0B0FDAA99814221D0FFE7FD
:1051900046F6D050C2F20100006820F0A5FD40F6AE
:1051A0009C51C2F201010874087C002809D1FFE774
:1051B00046F6BC50C2F201000068002120F0CFFD8D
:1051C000FFE740F61850C2F201000178013101708A
:1051D000FFE740F69C50C2F20100007D46F6706188
:1051E000C2F201010968A990084620F07DFDA99945
:1051F000814214D0FFE746F67060C2F201000068F9
:1052000020F072FD40F69C51C2F20101087540F693
:105210001850C2F20100017801310170FFE740F639
:105220009C50C2F20100007E46F67461C2F2010198
:105230000968A890084620F057FDA899814214D02B
:10524000FFE746F67460C2F20100006820F04CFDF2
:1052500040F69C51C2F20101087640F61850C2F2A5
:105260000100017801310170FFE740F69C50C2F265
:105270000100007F46F67861C2F201010968A7903B
:10528000084620F031FDA799814214D0FFE746F689
:105290007860C2F20100006820F026FD40F69C51C3
:1052A000C2F20101087740F61850C2F201000178FD
:1052B00001310170FFE740F6E050C2F201000078D2
:1052C00046F6B851C2F201010968A690084620F0DE
:1052D0000BFDA699814214D0FFE746F6B850C2F202
:1052E0000100006820F000FD40F6E051C2F201012B
:1052F000087040F61850C2F20100017801310170C7
:10530000FFE740F6E050C2F20100007946F6AC51EA
:10531000C2F201010968A590084620F0E5FCA599B4
:10532000814214D0FFE746F6AC50C2F2010000689B
:1053300020F0DAFC40F6E051C2F20101087140F6BB
:105340001850C2F20100017801310170FFE740F608
:10535000E050C2F20100007A46F6B051C2F20101FB
:105360000968A490084620F0BFFCA499814214D09B
:10537000FFE746F6B050C2F20100006820F0B4FC2E
:1053800040F6E051C2F20101087240F61850C2F234
:105390000100017801310170FFE740F6E050C2F2F0
:1053A0000100007B46F6B451C2F201010968A390E6
:1053B000084620F099FCA399814214D0FFE746F6F5
:1053C000B450C2F20100006820F08EFC40F6E051BB
:1053D000C2F20101087340F61850C2F201000178D0
:1053E00001310170FFE740F6E050C2F20100007C9D
:1053F00046F6BC51C2F201010968A290084620F0AD
:1054000073FCA299814214D0FFE746F6BC50C2F269
:105410000100006820F068FC40F6E051C2F2010192
:10542000087440F61850C2F2010001780131017091
:10543000FFE746F6D850C2F20100006818F04CFEB3
:10544000002800F08080FFE740F63050C2F20100F3
:10545000007800280ED0FFE740F63050C2F201007D
:105460000021017047F6DC60C2F20100702112F0E9
:1054700013FFFFE740F61850C2F201000078002841
:1054800015D0FFE740F61850C2F20100002101706C
:1054900040F69C50C2F20100302112F015FE40F699
:1054A000E050C2F20100502112F00EFEFFE747F279
:1054B0001150C2F2010000788DF8E00547F270004B
:1054C000C2F2010000788DF8E10547F22C70C2F2BB
:1054D000010000788DF8E20547F22770C2F2010062
:1054E00000788DF8E30547F22670C2F201000078DB
:1054F0008DF8E40547F22570C2F2010000788DF8BE
:10550000E50546F69850C2F2010080784007002871
:1055100004D5FFE701208DF8E60503E000208DF8B3
:10552000E605FFE70DF5BC600A210722A19205F010
:10553000C7F8A09004F05CFA47F22470C2F20100B0
:10554000A199017015E046F6D450C2F2010000683E
:1055500018F0C2FD00280BD0FFE704F049FA02F072
:105560002FFC47F22470C2F201000A210170FFE70C
:10557000FFE701F020BF47F2B860C2F201000078F7
:1055800046F69C61C2F2010109689F90084620F02E
:10559000ABFBC0B204F0A8FC9F9981421FD0FFE78B
:1055A00046F69C60C2F20100006820F09DFBC0B28C
:1055B00004F09AFC47F2B861C2F20101087047F2A8
:1055C0006810C2F2010001220BF02EFC46F6985141
:1055D000C2F201010A6842F400420A60FFE747F2A2
:1055E000B860C2F20100407846F6A061C2F2010143
:1055F00009689E90084620F077FBC0B204F074FC66
:105600009E9981421FD0FFE746F6A060C2F20100DA
:10561000006820F069FBC0B204F066FC47F2B86194
:10562000C2F20101487047F26810C2F20100012283
:105630000BF0FAFB46F69851C2F201010A6842F4F7
:1056400000420A60FFE747F2B460C2F201008078CE
:1056500046F69061C2F2010109689D90084620F06B
:1056600043FBC0B204F040FC9D9981421FD0FFE78C
:1056700046F69060C2F20100006820F035FBC0B22F
:1056800004F032FC47F2B461C2F20101887047F2C3
:105690006810C2F2010001220BF0FEFA46F69851A2
:1056A000C2F201010A6842F400420A60FFE747F2D1
:1056B000B460C2F20100407846F6A461C2F2010172
:1056C00009689C90084620F00FFBC0B204F00CFC67
:1056D0009C9981421FD0FFE746F6A460C2F2010008
:1056E000006820F001FBC0B204F0FEFB47F2B46199
:1056F000C2F20101487047F26810C2F201000122B3
:105700000BF0CAFA46F69851C2F201010A6842F457
:1057100000420A60FFE747F2B460C2F20100C078BD
:1057200046F6B861C2F2010109689B90084620F074
:10573000DBFAA0F5FA60C0B204F0D6FB9B99814277
:1057400021D0FFE746F6B860C2F20100006820F001
:10575000CBFAA0F5FA60C0B204F0C6FB47F2B46120
:10576000C2F20101C87047F26810C2F201000122C2
:105770000BF092FA46F69851C2F201010A6842F41F
:1057800000420A60FFE747F2B460C2F2010000780D
:1057900046F67C61C2F2010109689A90084619F048
:1057A00072F90130C0B204F09FFB9A99814220D077
:1057B000FFE746F67C60C2F20100006819F063F969
:1057C0000130C0B204F090FB47F2B461C2F20101B3
:1057D000087047F26810C2F2010001220BF05CFA77
:1057E00046F69851C2F201010A6842F400420A608A
:1057F000FFE747F22570C2F20100007846F6A86183
:10580000C2F2010109689990084620F06DFA999951
:1058100081421ED0FFE746F6A860C2F20100006890
:1058200020F062FA47F22571C2F20101087008788F
:1058300040F2A871C2F2010151F820001CF068FA90
:105840004FF4AA7033214FF4D7723B231BF0B0FA08
:10585000FFE746F6EC50C2F20100006818F0B2FD16
:10586000012809D1FFE746F69850C2F2010001680D
:1058700041F48021016008E046F69850C2F2010030
:10588000016821F480210160FFE746F69460C2F2CE
:105890000100006820F028FA47F27001C2F201010D
:1058A000087046F69860C2F20100006820F01CFA09
:1058B00047F21151C2F20101087046F6B460C2F21B
:1058C0000100006820F010FA47F22C71C2F20101C9
:1058D000087046F6B060C2F20100006820F004FAD9
:1058E00047F22771C2F20101087046F6AC60C2F2BD
:1058F0000100006820F0F8F947F22671C2F20101B8
:10590000087046F6A860C2F20100006820F0ECF9C9
:1059100047F22571C2F20101087046F6D850C2F272
:105920000100006818F0D8FB002800F08C80FFE729
:1059300040F63050C2F20100007800280ED0FFE798
:1059400040F63050C2F201000021017047F6DC60E1
:10595000C2F20100702112F09FFCFFE740F61850E0
:10596000C2F201000078002815D0FFE740F6185079
:10597000C2F201000021017040F69C50C2F2010009
:10598000302112F0A1FB40F6E050C2F2010050219C
:1059900012F09AFBFFE747F21150C2F201000078C3
:1059A0008DF8E00547F27000C2F2010000788DF832
:1059B000E10547F22C70C2F2010000788DF8E20593
:1059C00047F22770C2F2010000788DF8E30547F234
:1059D0002670C2F2010000788DF8E40547F22570C8
:1059E000C2F2010000788DF8E50546F69850C2F243
:1059F000010080784007002804D5FFE701208DF8DA
:105A0000E60503E000208DF8E605FFE70DF5BC6034
:105A10000A210722989204F053FE47F6D761C2F29A
:105A20000101202201239790084611461A4604F0EE
:105A300047FE969004F048F847F22470C2F2010045
:105A40009899017015E046F6D450C2F20100006842
:105A500018F042FB00280BD0FFE704F035F802F005
:105A6000B7FD47F22470C2F201000D210170FFE77B
:105A7000FFE701F0A0BC47F21250C2F2010000782B
:105A8000002810D1FFE747F21250C2F2010001785E
:105A9000013101701AF01DFD46F69C40C2F2010072
:105AA0003C2101709BE047F21250C2F201000078E5
:105AB000012840F09380FFE706F066FF46F6984124
:105AC000C2F201010968401AB0F57A7FC0F0858002
:105AD000FFE706F059FF46F69841C2F2010108605F
