:020000040800F2
:10000000C07E0320DD01000811350108C110010880
:10001000093501080915000881A201080000000047
:10002000000000000000000000000000EF010008D8
:10003000F197000800000000F3010008897501082D
:10004000F7010008F7010008F7010008F7010008B0
:10005000F7010008F7010008F7010008F7010008A0
:10006000F7010008F7010008F7010008F701000890
:10007000F7010008F7010008F7010008F701000880
:10008000F7010008F7010008F7010008F701000870
:10009000F7010008F7010008F7010008F701000860
:1000A000F7010008F7010008F7010008F701000850
:1000B000F7010008F7010008F7010008F701000840
:1000C000F7010008F7010008F7010008F701000830
:1000D000F701000861A2010871A20108F7010008F8
:1000E000F7010008F7010008F7010008F701000810
:1000F000F7010008F7010008F7010008F701000800
:10010000F7010008F7010008F7010008F7010008EF
:10011000F7010008F7010008F7010008F7010008DF
:10012000F7010008F7010008F7010008F7010008CF
:10013000F7010008F7010008F7010008F7010008BF
:10014000F7010008F7010008F7010008F7010008AF
:10015000F7010008F7010008F7010008F70100089F
:10016000F7010008F7010008F7010008F70100088F
:10017000F7010008F7010008F7010008000000007F
:10018000F7010008F7010008F7010008F70100086F
:10019000F7010008F7010008F7010008F70100085F
:1001A000011F0108F7010008E11F0008F70100081E
:1001B00021590108F7010008F7010008F7010008BC
:1001C000F7010008F7010008DFF80CD000F0B0FBE1
:1001D0000048004749C50108C07E03200648804703
:1001E00006480047FEE7FEE7FEE7FEE7FEE7FEE71C
:1001F000FEE7FEE7FEE7FEE719770108C901000800
:1002000010B5441A0346944209D28318114403E0FE
:1002100011F8014D03F8014D521EF9D210BD40EA0C
:100220000104A40703D009E010C9121F10C3042A57
:10023000FAD203E011F8014B03F8014B521EF9D238
:1002400010BDD2B201E000F8012B491EFBD270476D
:100250000022F6E710B513460A4604461946FFF792
:10026000F0FF204610BD421C10F8011B0029FBD1F5
:10027000801A704730B504460020034600E05B1C3E
:10028000934203D2E05CCD5C401BF8D030BD034606
:1002900011F8012B00F8012B002AF9D118467047FC
:1002A0002DE9FE4F804681EA0300C00F0C46009006
:1002B00021F0004123F00045B8EB0200A94105D22E
:1002C0004046214690461C460B46024623F000401D
:1002D000104347D0270DC7F30A00C3F30A51029019
:1002E000401A019040286BDAC3F3130040F4801BDE
:1002F0000098924620B10023D2EB030A63EB0B0B6C
:1003000001985946C0F14002504600F004FA0646F2
:100310000D4650465946019A00F01CFA10EB0800B1
:100320006141002487EA115284EAE7731A4340D0FE
:10033000009A62B3019A012A4FEA075215DC001BAA
:1003400061EB02014FF0004202EA0752CDE90042A0
:10035000001C41F5801132462B4600F053FA03B0E1
:10036000BDE8F08F40462146F9E7001B61EB020132
:10037000001C41F5801300185B412018A2F50017FE
:1003800047EB030140EAD570B6196D4111E06D08E5
:100390004FEA360645EAC0754FEA0752001B61EB8B
:1003A0000201001C41F5801149084FEA3000001994
:1003B000514132462B4603B0BDE8F04F00F013BA6E
:1003C0000098012240000023D0EB020263EBE073AF
:1003D000009821464FEAE074B8EB000061EB04019D
:1003E000E9E783F000435BE781F0004158E72DE93E
:1003F000FE4F81EA030404F0004421F00041009420
:100400004FF0000B23F0004350EA01045ED052EAA3
:1004100003045BD0C3F30A54C1F30A552C44A4F27D
:10042000F3340194A0FB0254C1F3130141F4801191
:10043000C3F3130343F4801301FB024400FB034E98
:10044000840A970A44EA815447EA8357A4FB076861
:1004500002958D0A05FB07854FEA932C04FB0C548B
:100460002705029D4FEA065847EA1637B5EB0805FF
:100470006EEB070C870E920E47EA811742EA831251
:10048000A7FB0201B6EB0B0164EB00042B0D43EA62
:100490000C335E1844EB1C50DA465146E7FB020170
:1004A000C5F313044FEA0B3343EA14534FEA043203
:1004B000019C43EA0603A4F10C040294009CCDE9DC
:1004C00000B400F09FF903B0BDE8F08F00200146B2
:1004D000F9E72DE9F04D81EA030404F0004B21F027
:1004E000004514464FF0000A23F0004150EA05028F
:1004F00020D054EA01021DD0C5F30A570246C5F3C5
:100500001303C1F31300C1F30A5640F4801543F4FA
:100510008013A7EB0608101BD64608F2FD3873EBD4
:10052000050002D308F1010801E092185B41B8F11F
:10053000000F03DA00200146BDE8F08D00204FF4E3
:100540008011064684460EE0171B73EB050705D3A2
:10055000121B63EB050306434CEA010C49084FEA02
:10056000300092185B4150EA0107EDD152EA0300D6
:1005700012D082EA040083EA0501084305D0101B6B
:10058000AB4106D20122002306E000224FF00043D7
:1005900002E06FF0010253101AEB06004CEB085119
:1005A00010EB0A0041EB0B01BDE8F04D00F01BB968
:1005B0000EB5C10F80EAE0700844CA07002140F27E
:1005C00033438DE80E000A460B4600F01BF903B0DA
:1005D00000BD0EB540F2334102910021CDE900117A
:1005E0000A460B4600F00EF903B000BD70B5C1F32A
:1005F0000A5201F000450024C1F3130140F2FF3319
:1006000041F480119A4201DA002070BD40F2334378
:100610009A42A2F2334203DC524200F08BF800E02F
:1006200090402C43F1D0404270BD00F0004230F0C9
:1006300000400AD0C10D01F56071C0F3160042EA16
:100640000151C2084007114370470020014670471E
:1006500001F0004330B421F0004150EA010206D01D
:100660000A0DA2F56072C1F31301002A02DC30BC4E
:1006700000207047440F44EAC104C100E01830BCB8
:1006800000EBC25000F078B830B50B4601460020B0
:100690002022012409E021FA02F59D4205D303FA44
:1006A00002F5491B04FA02F52844151EA2F10102C5
:1006B000F1DC30BD2DE9F05F0546002092469B46F7
:1006C00088460646814640241BE028464146474668
:1006D000224600F02FF853465A46C01A914110D3D3
:1006E00011461846224600F016F82D1A67EB01084D
:1006F0004F4622460120002100F00DF817EB0009BB
:100700004E41201EA4F10104DFDC484631462A4652
:100710004346BDE8F09F202A04DB203A00FA02F1AC
:10072000002070479140C2F1200320FA03F31943DF
:1007300090407047202A04DB203A21FA02F0002181
:10074000704721FA02F3D040C2F1200291400843E1
:1007500019467047202A06DBCB17203A41FA02F0EF
:1007600043EAE07306E041FA02F3D040C2F120020E
:1007700091400843194670470029A8BF7047401CA4
:10078000490008BF20F00100704710B4B0FA80FCA7
:1007900000FA0CF050EA010404BF10BC704749B1E4
:1007A000CCF1200421FA04F411FA0CF118BF012154
:1007B00021430843A3EB0C01CB1D4FEA00614FEA34
:1007C000102042BF002010BC704700EBC350104403
:1007D0000029A4BF10BC7047401C490008BF20F08E
:1007E000010010BC704710B5141E73F1000408DA44
:1007F000401C41F1000192185B411A4301D120F0E5
:10080000010010BD2DE9F04D92469B4611B1B1FAA1
:1008100081F202E0B0FA80F220329046FFF77BFFCF
:1008200004460F4640EA0A0041EA0B0153465A4685
:10083000084313D0114653EA010019D0C8F1400211
:100840005046FFF777FF05460E465046594642464A
:10085000FFF761FF084305D0012004E02046394638
:10086000BDE8F08D0020054346EAE0762C4337438F
:100870000A986305E40AA0EB08000022FD0A44EA96
:1008800047540A3002D500200146E9E70105101956
:100890006941DDE9084500196941BDE8F04DA2E76D
:1008A000C1F30A52C1F3130140F2FF3341F4801146
:1008B0009A4202DA00200146704740F233439A42DE
:1008C000A2F2334202DC5242FFF734BFFFF723BFEC
:1008D00030B5041E71F1000404DB4FF000444042C7
:1008E00064EB0101141E73F1000405DB1C464FF09C
:1008F0000043524263EB04038B4208BF824230BD87
:1009000030B5041E71F1000404DB4FF00044404296
:1009100064EB0101141E73F1000405DB1C464FF06B
:100920000043524263EB0403994208BF904230BD3A
:10093000064C074D06E0E06840F0010394E807002C
:1009400098471034AC42F6D3FFF742FC90250508D7
:10095000C025050870B58C1810F8015B15F0070369
:1009600001D110F8013B2A1106D110F8012B03E048
:1009700010F8016B01F8016B5B1EF9D12B0705D450
:100980000023521E0DD401F8013BFAE710F8013B99
:10099000CB1A921C03E013F8015B01F8015B521EB5
:1009A000F9D5A142D8D3002070BD0000000000009E
:1009B00080B58AB00BF0F0FA40F64841C2F201016E
:1009C0000968401A0C28C0F0BD81FFE70BF0E4FA7B
:1009D00040F64841C2F201010860012007900890EA
:1009E00040F64440C2F201000078002803D1FFE73E
:1009F0000B20069017E040F64440C2F20100007858
:100A0000012803D1FFE70C2006900BE040F644409C
:100A1000C2F201000078022803D1FFE70D20069002
:100A2000FFE7FFE7FFE746F60870C2F2010006A9FC
:100A300002900AF015F80299019008460AF068FA47
:100A40000A21029A009010460AF0D2F940F6444179
:100A5000C2F201010978002940F03881FFE746F62B
:100A60000870C2F201000AF05BF940F64C41C2F294
:100A700001010A6840F65043C2F2010323F8120054
:100A80000868013008600A2807D3FFE740F64C40A9
:100A9000C2F2010000210160FFE7002004900390F2
:100AA000FFE7039809280FD8FFE7039840F6504165
:100AB000C2F2010131F81000049908440490FFE7E4
:100AC000039801300390ECE704984CF6CD41CCF646
:100AD000CC41A0FB0101C90804910499642905D304
:100AE000FFE70498B0F57A6F18D9FFE740F64C405D
:100AF000C2F201000068002809D1FFE747F28970BF
:100B0000C2F20100017801F0FE010170FFE747F633
:100B10008860C2F2010000214180D6E040F64C40DE
:100B2000C2F201000068002809D1FFE747F289708E
:100B3000C2F20100017841F001010170FFE7BDF848
:100B4000100014F0D9FF40F64040C2F2010080EDE1
:100B5000000A90ED000AB2EE041A20EE010ABDEE82
:100B6000C00A10EE100AADF8160047F68860C2F20F
:100B70000100B0F9020046F26761C6F2666150FBFF
:100B800001F0821002EBD070BDF9162052FB01F18A
:100B90008A1002EBD171884200F08180FFE70BF0F0
:100BA000FBF947F28471C2F201010968401A40F66C
:100BB000B83188425DD8FFE70BF0EEF947F280715B
:100BC000C2F201010968401AFA2851D3FFE70BF07D
:100BD000E3F947F28071C2F20101086047F2C440B4
:100BE000C2F20100B0F9000046F26761C6F2666128
:100BF00050FB01F0821002EBD070BDF9162052FBC1
:100C000001F18A1002EBD17188420ED0FFE7BDF8E6
:100C1000160047F2C441C2F20101088047F2887011
:100C2000C2F201000021017021E047F28870C2F297
:100C3000010001780131017000780A2816D1FFE720
:100C400047F28870C2F2010000210170BDF8160061
:100C500047F68861C2F20101488046F67850C2F238
:100C60000100016841F480110160FFE7FFE7FFE741
:100C700014E00BF091F947F28471C2F201010860AF
:100C80000BF08AF947F28071C2F20101086047F265
:100C90008870C2F2010000210170FFE714E00BF040
:100CA0007BF947F28471C2F2010108600BF074F91C
:100CB00047F28071C2F20101086047F28870C2F207
:100CC000010000210170FFE7FFE728E040F6444003
:100CD000C2F201000078012808D1FFE746F608704B
:100CE000C2F201000AF01CF8049017E040F64440FC
:100CF000C2F20100007802280FD1FFE746F6087023
:100D0000C2F201000AF00CF8FF21A1EB101047F22B
:100D1000CF21C2F201010870FFE7FFE7FFE740F6CD
:100D20004440C2F2010001780131CAB20170032AC5
:100D300007D3FFE740F64440C2F2010000210170F2
:100D4000FFE7FFE70AB080BD81B0009042F20430B7
:100D5000C4F20100016821F4403101600099496842
:100D600002681143016000980068416821F48071B5
:100D700041600098016800694A6842EA00204860C2
:100D800000980068416821F0407141600098016856
:100D900080684A681043486000980068816821F4C0
:100DA0000061816000980168C0688A6810438860AB
:100DB0000098806A0121C0F60071884219D0FFE7CF
:100DC00000980068816821F0706181600098016876
:100DD000806A8A681043886000980068816821F002
:100DE0004051816000980168C06A8A681043886039
:100DF0000CE000980068816821F0706181600098C3
:100E00000068816821F040518160FFE70098006828
:100E1000816821F0020181600098016880698A6818
:100E200042EA400088600098006A002819D0FFE775
:100E300000980068416841F40061416000980068D2
:100E4000416821F46041416000980168406A4EF2B7
:100E50000002CFF6FF7202EB40304A681043486050
:100E600006E000980068416821F400614160FFE7F6
:100E700000980068C16A21F47001C162009801689D
:100E8000C0690022CFF6F07202EB0050CA6A10432C
:100E9000C86200980068816821F400718160009840
:100EA0000168006B8A6842EA402088600098006808
:100EB000816821F4806181600098016840698A68D6
:100EC00042EA8020886001B0704700000000000006
:100ED00081B00090009847F24C61C2F2010141607C
:100EE00047F25260C2F2010000780099088101B017
:100EF000704700000000000080B58CB00B9000200F
:100F00000A9040F6EC41C2F2010101220A6010236E
:100F10004B608A60C86047F2DC6CC2F2010C4FF68D
:100F2000FF7E099060460891079272460693CDF8BD
:100F300014C0CDF810E00FF0EFFB079903900846BE
:100F40000AF09AFC02200899086006984860079AFF
:100F50008A60099BCB600598049A0FF0DDFB0321A2
:100F6000089A11600699516008239360099BD36029
:100F7000DDF814C0029060461146049A0FF0CCFBD5
:100F80004FF408710A910421089A11600699516082
:100F9000079B9360DDF828C0C2F80CC0DDF814C0D0
:100FA000019060461146049A0FF0B6FB0B99059A22
:100FB000009010460FF08CFB0CB080BD00000000CC
:100FC00080B59AB019901891FFE743F63800C4F243
:100FD0000200016841F001010160006800F00100B9
:100FE00012901298FFE7FFE743F63000C4F20200C8
:100FF000016841F480010160006800F480001190F4
:101000001198FFE7FFE743F63000C4F202000168E1
:1010100041F001010160006800F00100109010989B
:10102000FFE7FFE743F63000C4F20200016841F039
:1010300004010160006800F004000F900F98FFE7C2
:10104000FFE743F63000C4F20200016841F00801F6
:101050000160006800F008000E900E98FFE7FFE7BF
:1010600043F63000C4F20200016841F01001016053
:10107000006800F010000D900D98FFE7FFE743F6C1
:101080003000C4F20200016841F0200101600068F4
:1010900000F020000C900C98FFE7FFE743F63000CB
:1010A000C4F20200016841F040010160006800F0F4
:1010B00040000B900B98FFE74FF63F001390022083
:1010C000149000211591032216920C23179341F2DC
:1010D000004CC4F2020C0DF14C0E0A9060460991CE
:1010E000714608920793CDF818E00AF019FD8020A8
:1010F00013900A991491099A1592089B1693DDF89A
:101100001CC0CDF85CC040F2000EC4F2020E059087
:10111000704606990AF004FD302013900A98149046
:1011200009991591089A1692079B179340F60000AB
:10113000C4F2020006990AF0F3FC48F2331013904F
:101140000A98149009991591089A1692079B17937B
:1011500041F60000C4F2020006990AF0E1FC4FF6E5
:10116000837013900A98149009991591089A169211
:10117000079B179341F20000C4F2020006990AF09F
:10118000CFFC4CF2037013900A98149009991591B2
:10119000089A1692079B179340F60040C4F202008B
:1011A00006990AF0BDFC40F66440C2F201000999BC
:1011B0004160059A82604FF40073C3604FF480630E
:1011C00003614FF4805343614FF480438361C161F5
:1011D0004FF4003303624162089B8362C162016382
:1011E00046F2104CC4F2020CC0F800C0FFE7199898
:1011F00040F66441C2F20101016319988863FFE778
:1012000040F66440C2F2010004900AF0FDF904992E
:10121000039008460AF048FA38210F220023029072
:101220000846019111461A460CF0F6FB01980CF0A5
:10123000E7FB1AB080BD000080B592B0119000208D
:101240008DF8430047F6A460C2F20100006800690F
:1012500040F69851C2F201010978039008460399BB
:1012600088471199087011980078002800F038819B
:10127000FFE700200490FFE704981199097888425D
:1012800080F02D81FFE747F6A460C2F201000068FC
:10129000406940F69851C2F201010978049A09ABFD
:1012A00003EB42030DF11A0C0CEB420202900846CC
:1012B0001946029B984747F6A860C2F201000078E1
:1012C000012811D1FFE7049809A931F810100EAADE
:1012D00022F8101004980DF11A0131F810100DF1D8
:1012E0002E0222F81010FFE747F6A860C2F20100B4
:1012F0000078800700280AD5FFE7049809A931F88B
:101300001010C1F580510EAA22F81010FFE747F621
:10131000A860C2F201000078400700280CD5FFE762
:1013200004980DF11A0131F81010C1F580510DF13A
:101330002E0222F81010FFE747F6A860C2F2010063
:1013400000780007002811D5FFE7049809A931F8B3
:1013500010100DF12E0222F8101004980DF11A0150
:1013600031F810100EAA22F81010FFE704980EA909
:1013700031F8101040F6C442C2F2010252F82000C7
:1013800081420DD9FFE704980EA931F8101040F6FC
:10139000C442C2F2010252F82000081A01900CE087
:1013A000049840F6C441C2F2010151F820100EAA7F
:1013B00032F81000081A0190FFE70198ADF8180004
:1013C00004980DF12E0131F8101040F6D842C2F207
:1013D000010252F8200081420ED9FFE704980DF176
:1013E0002E0131F8101040F6D842C2F2010252F834
:1013F0002000081A00900DE0049840F6D841C2F28F
:10140000010151F820100DF12E0232F81000081AD7
:101410000090FFE70098ADF81600BDF81800BDF881
:1014200016100844062816DBFFE704980EA931F8C9
:10143000101040F6C442C2F2010242F82010049893
:101440000DF12E0131F8101040F6D842C2F201021F
:1014500042F82010FFE740F69850C2F201000078F1
:10146000702812D1FFE704980EA931F81010119AD4
:1014700002EB4000418004980DF12E0131F810106C
:10148000119A02EB4000818124E047F6AA60C2F283
:1014900001000088049940F6C442C2F2010252F8E9
:1014A00021205043000B119A02EB4101488047F67E
:1014B000AC60C2F201000088049940F6D842C2F242
:1014C000010252F821205043000B119A02EB410116
:1014D0008881FFE7FFE7049801300490CCE6FFE73E
:1014E0009DF8430012B080BD81B001468DF8030025
:1014F0009DF80300020902EB820200F00F0000EBEE
:101500004200C0B201B0704780B515F0C5FA80BD89
:1015100086B04EF69450CEF20000016821F005012D
:1015200001604EF69851CEF2000100220A604EF69C
:101530009C51CEF200011023C2F201030B604EF663
:10154000A051CEF200013D23C0F202330B60052111
:101550000160BFF34F8FBFF36F8F4EF65070CEF226
:1015600000000260BFF34F8FBFF36F8F4EF6145031
:10157000CEF20000016841F480210160BFF34F8F7B
:1015800000688003002801D5FFE71AE0BFF34F8F02
:10159000BFF36F8F4EF65070CEF200000021016055
:1015A000BFF34F8FBFF36F8F4EF61450CEF2000093
:1015B000016841F400310160BFF34F8FBFF36F8FBB
:1015C000FFE74EF68450CEF2000000210160BFF329
:1015D0004F8F4EF68050CEF20000006805900598BF
:1015E000C0F34E300490FFE70598C0F3C9000390A4
:1015F000FFE704980399890760F34D114EF6607078
:10160000CEF2000001600398411E03910028F0D142
:10161000FFE70498411E04910028E5D1FFE7BFF3DE
:101620004F8FBFF36F8F4EF61450CEF2000000685C
:10163000C003002801D5FFE73CE04EF68450CEF20F
:10164000000000210160BFF34F8F4EF68050CEF2B4
:101650000000006802900298C0F34E300190FFE74E
:101660000298C0F3C9000090FFE70198009989072C
:1016700060F34D114EF66070CEF2000001600098EC
:10168000411E00910028F0D1FFE70198411E019111
:101690000028E5D1FFE7BFF34F8F4EF61450CEF28E
:1016A0000000016841F480310160BFF34F8FBFF348
:1016B0006F8FFFE706B0704781B000900098017A05
:1016C000417201B07047000047F6B060C2F20100FD
:1016D000007870470000000081B000900098C0883A
:1016E00001B070470000000081B000900098808831
:1016F00001B070470000000080B586B00A46059032
:10170000ADF8121005980021016005980172059846
:1017100041720598817205980430BDF812100223B9
:1017200003921A46029308F09BFA05990631BDF818
:101730001220023292B2019008461146029A08F035
:101740008FFA06B080BD000080B582B001468DF8EA
:1017500006009DF8060000EB400046F6A042C2F2EB
:10176000010202EB8000009100F0BAF9002804D0D9
:10177000FFE700208DF8070016E09DF8060000EB5B
:10178000400046F6A041C2F2010101EB800000F0EA
:10179000B3F9002804D0FFE701208DF8070003E02B
:1017A00002208DF80700FFE79DF8070002B080BD1A
:1017B00082B001468DF807009DF80700002200283E
:1017C000009208D4FFE79DF8070000210F28B8BF5A
:1017D00001210091FFE7009800F0010002B070477E
:1017E00080B584B00A4603908DF80B1003980192DF
:1017F00000F02AF900281CD0FFE7039800F088F9D0
:10180000002804D0FFE7039800214172FFE79DF80C
:101810000B00039908720AF0BFFB03990860039854
:101820000068002804D1FFE7039801210160FFE769
:10183000FFE704B080BD000080B584B00A46039085
:101840008DF80B100398019200F016F9002812D0C1
:10185000FFE70398007A9DF80B1088420BD1FFE751
:101860000398407A9DF80B10884204D1FFE7039853
:1018700000F0A2F805E003989DF80B10FFF7B0FF09
:10188000FFE704B080BD000080B584B00A4603467F
:101890008DF80F008DF80E109DF80F0000EB400042
:1018A00046F6A041C2F2010101EB80009DF80E1046
:1018B00002920193FFF7C0FF04B080BD000000005A
:1018C00081B0009000980021817201B07047000043
:1018D00080B582B001900198002101720198417297
:1018E000019801600198FFF7EBFF02B080BD000096
:1018F00080B500F0A9FA46F69C41C2F201010870D9
:1019000080BD00000000000080B586B00A4605904A
:10191000ADF8121005980430BDF81210022303929E
:101920001A46029308F0E4F905990631BDF8122031
:10193000023292B2019008461146029A08F0D8F994
:1019400006B080BD0000000081B001468DF80300A4
:101950009DF8030046F69C42C2F20102107001B0ED
:10196000704700000000000081B001468DF80300C0
:101970009DF8030047F6B062C2F20102107001B098
:10198000704700000000000082B00A460190ADF8E8
:101990000210BDF802000199C88002B07047000033
:1019A00082B00A460190ADF80210BDF8020001991C
:1019B000888002B07047000081B00090009800213C
:1019C000017201B07047000080B582B046F69C40BD
:1019D000C2F201000078019000F036FA0199081A6D
:1019E000B0FA80F0400902B080BD000000000000A5
:1019F00046F69C40C2F201000078704700000000EB
:101A000081B000900098017A407A081A18BF01202E
:101A100001B070470000000080B582B001900AF06C
:101A2000BBFA01990968401A0090FFF74DFE4FF488
:101A30007A7148430021009A824228BF012108465A
:101A400002B080BD0000000082B001900198808843
:101A500000210028009107D0FFE70198C0880028E6
:101A600018BF01200090FFE7009800F0010002B0CD
:101A7000704700000000000080B582B0019001981E
:101A8000FFF7E2FF002807D0FFE70198407A00281F
:101A900018BF0120009002E000200090FFE70098AE
:101AA000002818BF012002B080BD00000000000027
:101AB00081B000900098407A0138B0FA80F0400977
:101AC00001B070470000000081B000900098007ADB
:101AD0000238B0FA80F0400901B070470000000001
:101AE00081B000900098007AB0FA80F0400901B00F
:101AF000704700000000000081B000900098007A5C
:101B00000138B0FA80F0400901B0704700000000D1
:101B100081B000900098807A002818BF012001B0A1
:101B2000704700000000000080B582B046F65450B7
:101B3000C2F20100002101708DF80710FFE79DF847
:101B400007000E281FDCFFE79DF8070000EB4000B0
:101B500046F6A041C2F2010101EB8000FFF774FFDD
:101B6000002808D0FFE746F65450C2F20100017881
:101B70000131017000E006E0FFE79DF80700013049
:101B80008DF80700DBE702B080BD00000000000018
:101B900080B582B047F6B060C2F201004FF4D87150
:101BA000012208F05DF800218DF80710FFE79DF88D
:101BB00007000E2819DCFFE79DF8070000EB400145
:101BC00046F6A042C2F2010202EB8101932202EB2F
:101BD0008000009008460099FFF78EFDFFE79DF812
:101BE000070001308DF80700E1E7FFF79DFF02B025
:101BF00080BD00000000000080B582B001468DF875
:101C0000070046F65550C2F2010001220270009111
:101C100000F022F9002832D0FFE700208DF80600FE
:101C2000FFE79DF806000E2828DCFFE79DF8060078
:101C300000EB400046F6A041C2F2010101EB80003A
:101C4000FFF702FF002812D0FFE79DF807000121EF
:101C5000012808BF02219DF8060000EB400046F66F
:101C6000A042C2F2010202EB80004172FFE7FFE7EF
:101C70009DF8060001308DF80600D2E7FFE700204E
:101C80008DF80500FFE79DF805000E2815DCFFE73D
:101C90009DF8050000EB400046F6A041C2F20101AC
:101CA00001EB80009DF80710FFF79AFDFFE79DF814
:101CB000050001308DF80500E5E702B080BD0000A9
:101CC00080B582B001468DF8070001208DF806002E
:101CD0009DF80700002853D0FFE700208DF805008D
:101CE000FFE79DF805000E2849DCFFE79DF8050099
:101CF00000EB400046F6A041C2F2010101EB80007A
:101D0000FFF7A2FE002833D0FFE79DF8050000EBA7
:101D1000400046F6A041C2F2010101EB8000FFF74E
:101D2000ABFE002820D0FFE79DF8050000EB400047
:101D300046F6A041C2F2010101EB8000007A9DF855
:101D40000710884210D1FFE79DF8050000EB400026
:101D500046F6A041C2F2010101EB8000407A9DF8F5
:101D60000710884204D0FFE700208DF80600FFE747
:101D7000FFE79DF8050001308DF80500B1E7FFE7AA
:101D80009DF80600002803D0FFE700F03DF804E0CE
:101D90009DF80700FFF730FFFFE702B080BD0000AD
:101DA00080B582B047F6B060C2F201004FF4D8713E
:101DB000012207F09DFF00218DF80710FFE79DF835
:101DC00007000E2819DCFFE79DF8070000EB400133
:101DD00046F6A042C2F2010202EB8101932202EB1D
:101DE0008000009008460099FFF78EFDFFE79DF800
:101DF000070001308DF80700E1E7FFF795FE02B01C
:101E000080BD00000000000080B582B000208DF889
:101E10000700FFE79DF807000E2813DCFFE79DF899
:101E2000070000EB400046F6A041C2F2010101EBC1
:101E30008000FFF7C1FDFFE79DF8070001308DF836
:101E40000700E7E702B080BD46F65450C2F2010039
:101E5000007870470000000080B582B000208DF847
:101E60000600FFE79DF806000E281ADCFFE79DF844
:101E7000060000EB400046F6A041C2F2010101EB72
:101E80008000FFF7F9FD002804D0FFE701208DF85E
:101E900007000AE0FFE79DF8060001308DF8060014
:101EA000E0E700208DF80700FFE79DF8070002B08B
:101EB00080BD00000000000080B582B000208DF8D9
:101EC00006008DF80500FFE79DF805000E283CDCB4
:101ED000FFE79DF8050000EB400046F6A041C2F286
:101EE000010101EB8000FFF7AFFD002813D0FFE7F1
:101EF0009DF8050000EB400046F6A041C2F201014A
:101F000001EB8000FFF7E0FD002804D1FFE700208F
:101F10008DF8070021E09DF8050000EB400046F633
:101F2000A041C2F2010101EB8000FFF78DFD002806
:101F300004D0FFE701208DF80600FFE7FFE79DF8DA
:101F4000050001308DF80500BEE79DF80600002869
:101F500018BF01208DF80700FFE79DF8070002B0C9
:101F600080BD00000000000080B546F67850C2F247
:101F7000010080788007002810D5FFE746F67850EA
:101F8000C2F2010080788006002807D5FFE747F2FB
:101F9000D060C2F2010007210170FFE746F67850D9
:101FA000C2F20100016821F400310160016821F4EE
:101FB0008001016009F0F0FF47F2D461C2F2010133
:101FC000086047F2D860C2F201001E21017047F29A
:101FD0004C00C2F20100007800F026FD80BD000038
:101FE00080B546F67470C2F2010009F059F94BF25F
:101FF0000800C4F202000221016080BD1CF062BB37
:102000000000000000000000041918310000010861
:1020100080B582B000208DF806008DF80500FFE73E
:102020009DF805000E283CDCFFE79DF8050000EB5D
:10203000400046F6A041C2F2010101EB8000FFF72B
:1020400003FD002813D0FFE79DF8050000EB4000DA
:1020500046F6A041C2F2010101EB8000FFF74CFD02
:10206000002804D1FFE700208DF8070021E09DF84B
:10207000050000EB400046F6A041C2F2010101EB71
:102080008000FFF7E1FC002804D0FFE701208DF875
:102090000600FFE7FFE79DF8050001308DF8050019
:1020A000BEE79DF80600002818BF01208DF8070044
:1020B000FFE79DF8070002B080BD000000000000AF
:1020C00080B5A6B046F67850C2F20100407800060E
:1020D000002802D4FFE700F041BC47F24410C2F2EE
:1020E000010047F26461C2F2010101221D901C92BD
:1020F0000DF0FEFF47F26061C2F201011D9A1B90D4
:1021000010461C9A0DF0B4FF47F2D361C2F20101F0
:10211000097847F2D262C2F20102127891424BDB97
:10212000FFE747F26460C2F201000078FFF7DCF9D4
:1021300047F2D361C2F201010978884209DBFFE767
:1021400046F67850C2F20100016841F400110160C6
:1021500031E047F26460C2F201000078FFF7C4F991
:1021600047F2D261C2F201010978884209DAFFE739
:1021700046F67850C2F20100016841F40011016096
:1021800018E046F67850C2F20100807880060028F8
:102190000FD5FFE746F67850C2F20100016821F43E
:1021A0000011016047F2D060C2F201000721017006
:1021B000FFE7FFE7FFE753E047F2D360C2F2010019
:1021C000007847F2D261C2F201010978884246DA0A
:1021D000FFE747F26460C2F20100007847F2D26183
:1021E000C2F20101097800228842B8BF01221046DC
:1021F000FFF77AF9002818D0FFE747F26460C2F2CF
:1022000001000078FFF770F947F2D361C2F20101D3
:102210000978884209DBFFE746F67850C2F20100F0
:10222000016841F40011016018E046F67850C2F2EE
:1022300001008078800600280FD5FFE746F6785029
:10224000C2F20100016821F40011016047F2D06080
:10225000C2F2010007210170FFE7FFE7FFE7FFE798
:1022600046F67850C2F2010080788007002840F1DD
:10227000DE82FFE746F67850C2F2010080788006E1
:10228000002840F1D482FFE746F67850C2F2010000
:1022900080784007002840F1CA82FFE746F6785070
:1022A000C2F201008078400600280DD5FFE740F615
:1022B000FC40C2F20100007847F26061C2F2010105
:1022C0000978884241D0FFE746F67850C2F2010013
:1022D000016841F48001016000201A901DF0FCFEAD
:1022E0001A981EF09BF919901CF0A7FD1A981DF082
:1022F00065FF012018901DF0EFFE18981EF08EF972
:102300004FF07F41179008461EF0A0F91CF095FD94
:1023100040F65900C2F201003C21017047F26060B2
:10232000C2F20100007840F6FC41C2F201010870DF
:1023300009201EF0E9F94FF47F41169008461EF07F
:1023400087F918981DF03AFFFFE747F26460C2F280
:1023500001001EA902221590084615990EF0B4FE40
:1023600015988178C907002904D0FFE73A208DF835
:102370007A0003E020208DF87A00FFE71EA8C11C38
:1023800047F26462C2F2010201320223149008464D
:1023900011461A460EF098FEF02088211DF0E2FA50
:1023A00047F2D161C2F20101097840F2A872C2F28B
:1023B000010252F82110139008461EF049F942F22A
:1023C000E830C0F604001EF051F90E2112900846C4
:1023D0001EF0A2F90121119008461DF07DFE00209B
:1023E00050214FF4F072C02310901CF035FDDC2119
:1023F00064224FF4877310981CF02EFD14981CF083
:1024000079FE47F26060C2F201000078002807D12F
:10241000FFE747F26060C2F2010007210170FFE7A9
:1024200047F26060C2F20100007801280FD1FFE797
:1024300042F22000ADF8800046F26E40C7F661100F
:102440001F9042F22000C6F64D701E908FE047F2BA
:102450006060C2F20100007802280FD1FFE742F26B
:102460007900ADF8800047F27340C6F264101F9007
:1024700045F22040C6F275501E9077E047F260604A
:10248000C2F20100007803280FD1FFE742F2790081
:10249000ADF8800047F26530C6F264101F9046F236
:1024A0005750C6F664601E905FE047F26060C2F26B
:1024B0000100007804280FD1FFE742F27900ADF85F
:1024C000800047F27340C6F264101F9046F6540035
:1024D000C7F275201E9047E047F26060C2F201002B
:1024E000007805280FD1FFE742F22000ADF8800008
:1024F00046F26940C7F661101F9042F22000C7F211
:1025000046201E902FE047F26060C2F20100007882
:1025100006280FD1FFE742F27900ADF8800047F2BC
:102520007520C6F264101F9045F22030C7F261405A
:102530001E9017E047F26060C2F2010000780728A1
:102540000FD1FFE742F22000ADF8800046F26E4066
:10255000C7F661101F9042F22000C7F253501E9040
:10256000FFE7FFE7FFE7FFE7FFE7FFE7FFE71EA85B
:102570000A3047F26061C2F201018A1C02230F9106
:1025800011461A460EF0A0FD0F98417801290FD18F
:10259000FFE742F27900ADF88C0047F26E50C7F2C7
:1025A0006120229042F22E00C6F24A10219007E1EB
:1025B00047F26060C2F20100407802280FD1FFE7C5
:1025C00047F67210ADF88C0047F26220C6F2751023
:1025D000229042F22E00C6F246502190EFE047F2E0
:1025E0006060C2F20100407803280FD1FFE742F299
:1025F0002000ADF88C0047F26120C6F663002290FF
:1026000042F22E00C4F620502190D7E047F26060DD
:10261000C2F20100407804280FD1FFE742F2200007
:10262000ADF88C0047F27020C6F66940229042F265
:102630002E00C4F220102190BFE047F26060C2F289
:102640000100407805280FD1FFE742F22000ADF8E5
:102650008C0046F24D10C2F27900229042F22E0018
:10266000C2F220002190A7E047F26060C2F20100B0
:10267000407806280FD1FFE742F22000ADF88C0029
:1026800047F24A50C6F26E50229042F22E00C2F239
:10269000200021908FE047F26060C2F20100407894
:1026A00007280FD1FFE742F22000ADF88C0047F277
:1026B0004A50C7F66C10229042F22E00C2F220005F
:1026C000219077E047F26060C2F20100407808286C
:1026D0000FD1FFE742F22000ADF88C0047F26750BF
:1026E000C7F27340229042F22E00C7F2415021906F
:1026F0005FE047F26060C2F20100407809280FD124
:10270000FFE747F26520ADF88C0046F27450C6F240
:102710006D20229045F22E30C7F26500219047E0EF
:1027200047F26060C2F20100407810280FD1FFE745
:1027300042F27200ADF88C0046F67470C6F2625038
:10274000229042F22E00C6F24F3021902FE047F245
:102750006060C2F20100407811280FD1FFE747F214
:102760006520ADF88C0046F27650C6F26D202290BE
:1027700042F22E00C6F64E70219017E047F26060DC
:10278000C2F20100407812280FD1FFE747F265201E
:10279000ADF88C0046F26350C6F26D20229042F2F2
:1027A0002E00C6F244502190FFE7FFE7FFE7FFE766
:1027B000FFE7FFE7FFE7FFE7FFE7FFE7FFE7FFE7E9
:1027C00030208DF8900043F22020ADF88E001EA836
:1027D00000F1190147F26062C2F2010203320223E2
:1027E0000E90084611461A460EF06EFC2E208DF80B
:1027F000930000208DF8940049F2C870C0F60300E1
:102800001DF034FFF021CE220D90084611461DF038
:10281000A9F80E210C9008461DF07EFF0E990B9032
:1028200008461CF067FC01201DF0C8FC60E040F683
:102830005900C2F20100007847F26461C2F201015E
:102840004978884253D0FFE747F26460C2F2010042
:10285000014611F8012F40F65903C2F201031A7024
:102860001EAA02230A901046DDF828C0099161468D
:1028700008921A4607930EF027FC3A208DF87A004A
:10288000089803300999079A0EF01EFC4BF2F85095
:10289000C0F603001DF0EAFE6FF07F410690084687
:1028A0001DF0D6FE07981DF041FF0C21059008464B
:1028B0001DF032FF01210490084603911DF00CFC2D
:1028C0000520F5211DF04EF80021DC2264234FF491
:1028D000877C0290084611461A4663461CF0BCFAF3
:1028E00008981CF007FC03981DF068FCFFE7FFE761
:1028F00040F6FC40C2F20100007847F26061C2F28B
:1029000001010978884229D0FFE747F26060C2F2EE
:102910000100017840F6FC42C2F201021170827897
:1029200047F24411C2F201010223019008460091CE
:1029300019460DF0D5FA01984278032100980DF060
:10294000CFFA01980278042100980DF0C9FA019895
:10295000C278052100980DF0C3FAFFE726B080BDCC
:1029600080B582B001468DF806009DF8060001286A
:1029700016D1FFE740F6FD40C2F2010000780028C2
:102980000ED1FFE740F6FD40C2F2010001210170C7
:1029900009F002FB40F60051C2F20101086039E083
:1029A0009DF8060001281FD1FFE740F6FD40C2F266
:1029B00001000078012817D1FFE709F0EDFA40F691
:1029C0000051C2F201010968401AB0F5586F0AD3EC
:1029D000FFE740F6FD40C2F2010000210170012036
:1029E0008DF807001AE014E09DF8060000280FD1CA
:1029F000FFE740F6FD40C2F201000078012807D150
:102A0000FFE740F6FD40C2F2010000210170FFE740
:102A1000FFE7FFE700208DF80700FFE79DF80700BC
:102A200002B080BD0000000081B001468DF80300B7
:102A30009DF80300042804DCFFE705208DF803005F
:102A400009E09DF80300512804DBFFE750208DF8D2
:102A50000300FFE7FFE79DF8030000EB8000400064
:102A600047F26411C2F201010968486301B070477E
:102A700080B586B0012005901DF02EFBC32091216A
:102A80004FF4A072EB231CF0E7F96FF07F401DF0CC
:102A9000DFFD4EF65820C0F603001DF0E7FD0021D3
:102AA000049008461DF042FE0599039008461DF06B
:102AB00033FEC82196220290084611461CF052FFB0
:102AC00047F68861C2F20101897A02220190084624
:102AD00011461CF0CFFA05981DF070FB06B080BDC2
:102AE00080B588B01CF046FF43F6B101C0F6010185
:102AF000079008461DF000FC0120069022F068FFB8
:102B000005901DF05BFF00201DF088FD04901CF077
:102B100094F906981DF082FD4FF07F41039008461E
:102B20001DF094FD1CF089F940F69C50C2F20100A2
:102B3000302113F0ADFE40F6DC50C2F2010050210E
:102B400013F0A6FE0FF0A4FF46F68640C2F2010085
:102B50004FF4E371069A07F083F840F62061C2F261
:102B6000010140F2C712029008461146069A07F08A
:102B700077F8019009F010FA46F68051C2F201018F
:102B800008601CF06BFD08B080BD00000000000074
:102B900080B5ADF5B46D09F0FFF940F61051C2F201
:102BA00001010968401A64280AD3FFE709F0F4F923
:102BB00040F61051C2F2010108601CF04FFDFFE722
:102BC00047F25460C2F201000078C007002845D0E7
:102BD000FFE740F26470C2F20100007800283BD1A8
:102BE000FFE740F26470C2F2010001210170084663
:102BF000CDF85C151DF070FA1CF01FF949F2C87091
:102C0000C0F603001DF032FD4AF2FF51CDF8580521
:102C100008461DF01DFD02201DF088FD0E21CDF897
:102C2000540508461DF078FDF0218722CDF85005A7
:102C3000084611461CF096FE42F2D321C0F605016B
:102C4000CDF84C0508461CF055FADDF85C051DF082
:102C5000B5FAFFF789F9FFE704F08ABB40F2647028
:102C6000C2F20100007801280CD1FFE740F2647045
:102C7000C2F201000021017047F2D460C2F20100EB
:102C800001605BE040F26470C2F20100007802284B
:102C900053D1FFE740F26470C2F2010000210170DD
:102CA0000120CDF848051DF017FA1CF0C6F80920E0
:102CB0001DF02AFDFF21CDF8440508461DF0C8FC93
:102CC000F02088213222CDF84025DDF840351CF077
:102CD000E9FA4FF4C8704FF4E1711422CDF83C05C5
:102CE000CDF838151146DDF83835CDF834251A46BB
:102CF000DDF834351CF0FCFB2820DDF83C15CDF860
:102D000030050846DDF83015DDF83825DDF83035BA
:102D10001CF0EEFB3C20DDF83C15CDF82C050846F8
:102D2000DDF82C15DDF83825DDF82C351CF0E0FB3E
:102D3000DDF848051DF042FAFFE7FFE7FFE747F23D
:102D4000D060C2F20100007801461428CDF82815A1
:102D500003F2A087DDF82815DFE811F0301F150019
:102D6000430294035908410A6D0BE50D4A0EF10F19
:102D7000C2124215F815321628175B1A4C1B901C0C
:102D8000871D481EBA1E40F61450C2F201000068AA
:102D90000028CDF824050CD0FFE7DDF82405012834
:102DA00000F01081FFE7DDF82405022800F02681FD
:102DB000E9E147F25C70C2F20100012101700020DC
:102DC0008DF88F05FFE79DF88F05052828DCFFE7C4
:102DD0009DF88F0547F2FC31C2F2010101EB401072
:102DE0000FF0CEFD002814D0FFE79DF88F0547F2C5
:102DF000FC31C2F2010101EB40100FF079FD002817
:102E000007D0FFE747F25C70C2F2010000210170B9
:102E100006E0FFE79DF88F0501308DF88F05D2E7BA
:102E200047F25C70C2F20100007801460028CDF83C
:102E3000201505D0FFE7DDF8200501285BD05BE019
:102E400040F61450C2F20100012101600846CDF89D
:102E50001C151DF041F91BF0F0FF09201DF054FC7A
:102E60004FF47F41CDF8180508461DF0F1FBF02026
:102E700088213222CDF81425DDF814351CF012FA21
:102E80004FF4C8704FF4E1711422CDF81005CDF85D
:102E90000C151146DDF80C35CDF808251A46DDF87D
:102EA00008351CF025FB2820DDF81015CDF80405A9
:102EB0000846DDF80415DDF80C25DDF804351CF0B6
:102EC00017FB3C20DDF81015CDF800050846DDF8AD
:102ED0000015DDF80C25DDF800351CF009FBDDF8E8
:102EE0001C051DF06BF909F057F840F61C51C2F2B1
:102EF000010108605AE0FFE740F61450C2F20100F9
:102F0000042101600120CDF8FC041DF0E5F81BF060
:102F100094FF09201DF0F8FBFF21CDF8F8040846C6
:102F20001DF096FBF02088213222CDF8F424DDF844
:102F3000F4341CF0B7F94FF4C8704FF4E171142267
:102F4000CDF8F004CDF8EC141146DDF8EC34CDF8F2
:102F5000E8241A46DDF8E8341CF0CAFA2820DDF827
:102F6000F014CDF8E4040846DDF8E414DDF8EC24B0
:102F7000DDF8E4341CF0BCFA3C20DDF8F014CDF8A8
:102F8000E0040846DDF8E014DDF8EC24DDF8E03478
:102F90001CF0AEFADDF8FC041DF010F908F0FCFF9F
:102FA00040F61C51C2F201010860FFE740F61450E0
:102FB000C2F201000021016047F2D060C2F20100BC
:102FC0000170E0E008F0E8FF40F61C51C2F2010198
:102FD0000968401AB0F5FA7F0FD3FFE740F61450A6
:102FE000C2F2010001680131016008F0D5FF40F62E
:102FF0003451C2F201010860FFE7C4E008F0CCFFE1
:1030000040F63451C2F201010968401A0F28C0F09D
:10301000B980FFE708F0C0FF40F63451C2F2010169
:10302000086040F62C50C2F2010000680028CDF87C
:10303000DC0405D0FFE7DDF8DC04012850D050E0C7
:1030400040F69C50C2F20100807DFE2808DCFFE7BC
:1030500040F69C50C2F20100817D01318175FFE78D
:1030600040F69C50C2F20100807EFE2808DCFFE79B
:1030700040F69C50C2F20100817E01318176FFE76B
:1030800040F69C50C2F20100807FFE2808DCFFE77A
:1030900040F69C50C2F20100817F01318177FFE749
:1030A00040F69C50C2F20100807DFF2817D1FFE757
:1030B00040F69C50C2F20100807EFF280FD1FFE74E
:1030C00040F69C50C2F20100807FFF2807D1FFE745
:1030D00040F62C50C2F2010001210160FFE750E0F0
:1030E000FFE740F69C50C2F20100807D002808D026
:1030F000FFE740F69C50C2F20100817D01398175E5
:10310000FFE740F69C50C2F20100807E002808D004
:10311000FFE740F69C50C2F20100817E01398176C2
:10312000FFE740F69C50C2F20100807F002808D0E3
:10313000FFE740F69C50C2F20100817F01398177A0
:10314000FFE740F69C50C2F20100807D002817D1B5
:10315000FFE740F69C50C2F20100807E00280FD1AC
:10316000FFE740F69C50C2F20100807F002807D1A3
:10317000FFE740F62C50C2F2010000210160FFE79A
:10318000FFE7FFE7FFE708F007FF47F2D461C2F26D
:103190000101086047F2C340C2F201000021017042
:1031A00047F2BF40C2F20100017047F2C240C2F2D2
:1031B0000100017047F2C140C2F20100017047F204
:1031C000C040C2F20100017040F65900C2F2010095
:1031D0003C22027047F27C60C2F20100016003F001
:1031E00079BD47F2C040C2F201000078002840F0EB
:1031F0004781FFE747F2C040C2F201000178013188
:1032000001700120CDF8D8041CF066FF0020CDF835
:10321000D4041DF003FACDF8D0041BF00EFEDDF847
:10322000D8041DF0FBF94FF07F41CDF8CC040846DF
:103230001DF00CFA1BF001FE09201DF065FAFF21BC
:10324000CDF8C80408461DF003FA4FF4C8704FF4D7
:10325000E1711422CDF8C404CDF8C0141146DDF894
:10326000C034CDF8BC241A46DDF8BC341CF040F95B
:103270002820DDF8C414CDF8B8040846DDF8B814E9
:10328000DDF8C024DDF8B8341CF032F93C20DDF85C
:10329000C414CDF8B4040846DDF8B414DDF8C02435
:1032A000DDF8B4341CF024F90A204FF4BE714FF459
:1032B0008373CDF8B0040846DDF8B024CDF8AC1423
:1032C0001146DDF8AC241CF013F91E204FF4AF7248
:1032D0008821CDF8A814DDF8A8341CF009F9BE2027
:1032E000FC23CDF8A404DDF8BC14DDF8A4241CF004
:1032F000FFF841F67430C0F6050040F281119F22BC
:103300001BF0AAFF41F69820C0F605003721CDF842
:10331000A014DDF8B0241BF09FFF41F6E820C0F6B2
:103320000500F5210F221BF097FF41F63830C0F65B
:1033300005009622DDF8A0141BF08EFF41F69C30AC
:10334000C0F60500F021A0221BF086FF49F2C870EC
:10335000C0F603001DF08AF94AF2FF51CDF89C0433
:1033600008461DF075F90220CDF898041DF0DEF92D
:103370000E21CDF894040846CDF890141DF0CCF938
:103380005F216E22CDF88C040846CDF888141146D2
:10339000CDF884241CF0E6FADDF8BC14CDF88004E6
:1033A000084618F0C1FB47F28620C2F20100CDF8B2
:1033B0007C041BF09FFEDDF890041DF0ADF940F297
:1033C0001D11CDF878040846DDF88424CDF8741476
:1033D00011461CF0C7FADDF89814CDF870040846C1
:1033E00018F0A2FBDDF87C041BF084FEDDF89004ED
:1033F0001DF092F9FA21DDF88824CDF86C0410460E
:10340000CDF868141CF0AEFA1521CDF86404084616
:1034100018F08AFBDDF87C041BF06CFEDDF89004EC
:103420001DF07AF9DDF87414CDF860040846DDF873
:1034300068141CF097FA3321CDF85C04084618F0A4
:1034400073FBDDF87C041BF055FEDDF8D8041CF09E
:10345000B5FE47F2C340C2F20100DDF8D41401709A
:1034600047F2BF40C2F20100017047F2C240C2F20F
:103470000100017047F2C140C2F201000170FFE794
:1034800003F028BC47F2BF40C2F2010000780146B9
:103490000328CDF8581400F2B884DDF85814DFE89A
:1034A00011F004008C01D101BC0247F2BF40C2F20E
:1034B000010001780131017001201CF00DFE1BF0AC
:1034C000BCFC05201DF020F9FF21CDF8540408466E
:1034D0001DF0BEF8DC2078214FF48872CDF850043E
:1034E0000846DDF85034CDF84C141946DDF84CC4CC
:1034F000CDF848246246DDF848341BF0F9FFF0208F
:10350000CDF84404DDF85014DDF84424DDF84834E7
:103510001BF0EEFF4FF4B470CDF84004DDF850140A
:10352000DDF84024DDF848341BF0E2FF41F6D420FA
:10353000C0F605004121D722CDF83C241BF08CFEBB
:1035400041F6C020C0F60500B921CDF83804DDF8F9
:103550003C241BF081FE40F23111DDF83804DDF827
:103560003C241BF079FE41F68420C0F605004FF4A0
:10357000C871BE221BF070FE40F69C50C2F20100E2
:10358000807D00280CD0FFE741F6AC20C0F6050096
:103590003C21CDF83414DDF834241BF05DFE0BE043
:1035A00041F69820C0F605003C21CDF83014DDF836
:1035B00030241BF051FEFFE740F69C50C2F20100A0
:1035C000807E002809D0FFE741F6AC20C0F6050058
:1035D000C8213C221BF040FE08E041F69820C0F6CE
:1035E0000500C8213C221BF037FEFFE740F69C5047
:1035F000C2F20100807F00280AD0FFE741F6AC202C
:10360000C0F605004FF4AA713C221BF025FE09E02C
:1036100041F69820C0F605004FF4AA713C221BF039
:103620001BFEFFE749F2C870C0F603001DF01EF84C
:103630004AF2FF51CDF82C0408461DF009F802208B
:103640001DF074F80C21CDF8280408461DF064F82C
:103650000521FA22CDF8240408461146CDF820248D
:103660001CF080F942F2C721C0F60501CDF81C0418
:1036700008461BF03FFD8720DDF820141CF072F98E
:1036800041F6C171C0F60501CDF8180408461BF0DB
:1036900031FDFF20DDF820141CF064F942F22631E0
:1036A000C0F60501CDF8140408461BF023FD0F20D9
:1036B0001DF032F864212822CDF810040846114686
:1036C0001CF050F940F69C51C2F20101897D00299D
:1036D00014D0FFE740F69C50C2F20100807D6421C7
:1036E000484348F28101C8F28001A0FB0101C909E9
:1036F000CDF80C0408461BF0D1FCFFE7F020282190
:103700001CF030F940F69C51C2F20101897E00297B
:1037100014D0FFE740F69C50C2F20100807E642185
:10372000484348F28101C8F28001A0FB0101C909A8
:10373000CDF8080408461BF0B1FCFFE74FF4BE705B
:1037400028211CF00FF940F69C51C2F20101897F3B
:10375000002914D0FFE740F69C50C2F20100807FA0
:103760006421484348F28101C8F28001A0FB0101B5
:10377000C909CDF8040408461BF090FCFFE70120BE
:103780001CF01CFD47F2C340C2F201000021017091
:1037900047F2C240C2F20100017047F2C140C2F2DA
:1037A0000100017047F2C040C2F20100017040F612
:1037B0000450C2F20100017027E346F69640C2F2BF
:1037C00001000078002810D1FFE746F69740C2F2CA
:1037D00001000078002808D1FFE746F69840C2F2C1
:1037E0000100007800282CD0FFE746F69640C2F290
:1037F0000100007840F60451C2F20101087046F65B
:103800009740C2F20100007840F60551C2F2010172
:10381000087046F69840C2F20100007840F6065162
:10382000C2F20101087047F2BF40C2F2010002215A
:10383000017008F0B1FB40F60851C2F201010860C6
:10384000FFE7E2E208F0A8FB40F60851C2F20101EE
:103850000968401AB0F57A7F1FD3FFE708F09CFB98
:1038600040F63451C2F20101086047F2BF40C2F293
:10387000010001780131017040F60450C2F20100EC
:103880000021017040F60550C2F20100017040F6BF
:103890000650C2F201000170BEE046F69640C2F248
:1038A00001000078002840F0B680FFE746F6974018
:1038B000C2F201000078002840F0AD80FFE746F634
:1038C0009840C2F201000078002840F0A480FFE791
:1038D00040F60450C2F20100007800280FD0FFE744
:1038E00040F69C50C2F20100807D002807D0FFE71F
:1038F00040F69C50C2F201000021817517E040F6AD
:103900000450C2F20100007800280FD0FFE740F613
:103910009C50C2F20100807D002807D1FFE740F6ED
:103920009C50C2F20100FF218175FFE7FFE740F6DE
:103930000550C2F20100007800280FD0FFE740F6E2
:103940009C50C2F20100807E002807D0FFE740F6BD
:103950009C50C2F201000021817617E040F605502C
:10396000C2F20100007800280FD0FFE740F69C501B
:10397000C2F20100807E002807D1FFE740F69C508C
:10398000C2F20100FF218176FFE7FFE740F6065013
:10399000C2F20100007800280FD0FFE740F69C50EB
:1039A000C2F20100807F002807D0FFE740F69C505C
:1039B000C2F201000021817717E040F60650C2F202
:1039C0000100007800280FD0FFE740F69C50C2F2BB
:1039D0000100807F002807D1FFE740F69C50C2F22B
:1039E0000100FF218177FFE7FFE747F2BF40C2F206
:1039F00001000021017040F60450C2F20100017084
:103A000040F60550C2F20100017040F60650C2F2C5
:103A100001000170FFE7FFE7F7E146F69640C2F2CA
:103A200001000078002817D1FFE746F69740C2F260
:103A30000100007800280FD1FFE746F69840C2F257
:103A400001000078002807D1FFE747F2BF40C2F22B
:103A5000010000210170D7E108F09EFA40F63451D0
:103A6000C2F201010968401A0F28C0F0CC81FFE7BB
:103A700008F092FA40F63451C2F20101086046F6AD
:103A80009640C2F201000078002800F08F80FFE726
:103A900001201CF021FB40F60C50C2F2010000682E
:103AA0000028CDF8000405D0FFE7DDF80004012868
:103AB0002AD02AE040F69C50C2F20100807D002806
:103AC0000AD1FFE741F6AC20C0F605003C21FF918A
:103AD000FF9A1BF0C1FBFFE740F69C50C2F20100C9
:103AE000807DFE2808DCFFE740F69C50C2F2010012
:103AF000817D0131817506E040F60C50C2F2010073
:103B000001210160FFE72AE0FFE740F69C50C2F286
:103B10000100807D002808D0FFE740F69C50C2F2EB
:103B20000100817D0139817518E040F60C50C2F228
:103B30000100002101603C20A021FE90FE9AFD9131
:103B40001146FD9AFD9B1BF087F941F69820C0F6BF
:103B50000500FE99FE9A1BF07FFBFFE7FFE764205C
:103B60001E21C8223223FC901BF076F92821FC98F4
:103B70001BF0F8FE0F21FB9008461CF0CDFD40F62F
:103B80009C51C2F20101897DFC9A514348F28103A4
:103B9000C8F28003A1FB0313DB09FA901846F991E0
:103BA0001BF07CFA01201CF009FB2BE146F6974044
:103BB000C2F201000078002800F08B80FFE70120AE
:103BC0001CF08AFA40F60C50C2F20100006800288E
:103BD000F89004D0FFE7F898012829D029E040F6B2
:103BE0009C50C2F20100807E002809D1FFE741F617
:103BF000AC20C0F60500C8213C221BF02DFBFFE7DE
:103C000040F69C50C2F20100807EFE2808DCFFE7EF
:103C100040F69C50C2F20100817E0131817606E0BF
:103C200040F60C50C2F2010001210160FFE729E0DB
:103C3000FFE740F69C50C2F20100807E002808D0C9
:103C4000FFE740F69C50C2F20100817E0139817687
:103C500017E040F60C50C2F2010000210160C820BC
:103C60003C214FF49672A023F790F6911BF0F4F8E4
:103C700041F69820C0F60500F799F69A1BF0ECFA89
:103C8000FFE7FFE7DC201E214FF4A07232231BF078
:103C9000E3F8F02028211BF065FE0F21F59008467F
:103CA0001CF03AFD40F69C51C2F20101897E64226B
:103CB000514348F28102C8F28002A1FB0212D209EC
:103CC000F4901046F3911BF0E9F901201CF076FA0C
:103CD00097E046F69840C2F201000078002800F014
:103CE0008F80FFE701201CF0F7F940F60C50C2F27C
:103CF000010000680028F29004D0FFE7F298012844
:103D00002AD02AE040F69C50C2F20100807F0028B1
:103D10000AD1FFE741F6AC20C0F605004FF4AA71C6
:103D20003C221BF099FAFFE740F69C50C2F20100DA
:103D3000807FFE2808DCFFE740F69C50C2F20100BD
:103D4000817F0131817706E040F60C50C2F201001C
:103D500001210160FFE72AE0FFE740F69C50C2F234
:103D60000100807F002808D0FFE740F69C50C2F297
:103D70000100817F0139817718E040F60C50C2F2D2
:103D80000100002101604FF4AA703C214FF4DC7265
:103D9000A023F190F0911BF05FF841F69820C0F657
:103DA0000500F199F09A1BF057FAFFE7FFE74FF48F
:103DB000AA701E214FF4DC7232231BF04DF84FF431
:103DC000BE7028211BF0CEFD0F21EF9008461CF09D
:103DD000A3FC40F69C51C2F20101897F6422514349
:103DE00048F28102C8F28002A1FB0212D209EE90D1
:103DF0001046ED911BF052F901201CF0DFF9FFE7AE
:103E0000FFE7FFE7FFE7FFE7FFE702F063BF47F2E7
:103E1000C240C2F201000078002840F0FD80FFE7B8
:103E200047F2C240C2F20100017801310170012065
:103E30001CF052F91BF001F80520EC901CF064FC1A
:103E4000FF21EB900846EA911CF002FCDC2078216F
:103E50004FF48872E9900846E99BE8911946DDF82D
:103E6000A0C3E7926246E79B1BF042FBF020E6907E
:103E7000E999E69AE79B1BF03BFB4FF4B470E590A1
:103E8000E999E59AE79B1BF033FB41F6C020C0F6A9
:103E900005004121D722E490E3921BF0DDF941F6C1
:103EA000D420C0F60500B921E39A1BF0D5F940F201
:103EB0003111E498E39A1BF0CFF941F68420C0F663
:103EC00005004FF4C871BE221BF0C6F949F2C87054
:103ED000C0F603001CF0CAFB4AF2FF51E29008460C
:103EE0001CF0B6FB02201CF021FC0C21E1900846DE
:103EF0001CF012FCFA21EC9AE0901046DF911BF0C6
:103F000031FD42F2C721C0F60501DE9008461BF0E4
:103F1000F1F88720DF991BF025FD41F6C171C0F64D
:103F20000501DD9008461BF0E5F8EA98DF991BF0E3
:103F300019FD42F22631C0F60501DC9008461BF05F
:103F4000D9F840F69C50C2F20100807900280AD0CE
:103F5000FFE741F6AC20C0F605003C21DB91DB9A7F
:103F60001BF07AF909E041F69820C0F605003C21E3
:103F7000DA91DA9A1BF070F9FFE740F69C50C2F232
:103F80000100807A002809D0FFE741F6AC20C0F696
:103F90000500C8213C221BF05FF908E041F698209B
:103FA000C0F60500C8213C221BF056F9FFE740F699
:103FB0009C50C2F20100807B00280AD0FFE741F646
:103FC000AC20C0F605004FF4AA713C221BF044F966
:103FD00009E041F69820C0F605004FF4AA713C2292
:103FE0001BF03AF9FFE701201CF0E8F847F2C34064
:103FF000C2F201000021017047F2BF40C2F201008D
:10400000017047F2C140C2F20100017047F2C040A6
:10401000C2F201000170E0E047F2C240C2F20100CA
:104020000078012840F0AF80FFE746F69640C2F2E4
:104030000100007800280FD0FFE740F69C50C2F244
:1040400001008079002807D0FFE740F69C50C2F2BB
:1040500001000021817117E046F69640C2F201008E
:10406000007800280FD0FFE740F69C50C2F2010014
:104070008079002807D1FFE740F69C50C2F201008A
:1040800001218171FFE7FFE746F69740C2F2010088
:10409000007800280FD0FFE740F69C50C2F20100E4
:1040A000807A002807D0FFE740F69C50C2F201005A
:1040B0000021817217E046F69740C2F201000078B5
:1040C00000280FD0FFE740F69C50C2F20100807A32
:1040D000002807D1FFE740F69C50C2F20100012101
:1040E0008172FFE7FFE746F69840C2F201000078D0
:1040F00000280FD0FFE740F69C50C2F20100807B01
:10410000002807D0FFE740F69C50C2F201000021D2
:10411000817317E046F69840C2F20100007800284B
:104120000FD0FFE740F69C50C2F20100807B0028D0
:1041300007D1FFE740F69C50C2F2010001218173D4
:10414000FFE7FFE746F69640C2F20100007800283C
:1041500010D1FFE746F69740C2F201000078002830
:1041600008D1FFE746F69840C2F201000078002827
:1041700008D0FFE747F2C240C2F2010001780131E6
:104180000170FFE728E047F2C240C2F20100007868
:10419000022820D1FFE746F69640C2F201000078DF
:1041A000002817D1FFE746F69740C2F201000078D9
:1041B00000280FD1FFE746F69840C2F201000078D0
:1041C000002807D1FFE747F2C240C2F201000021F8
:1041D0000170FFE7FFE7FFE7FFE702F07BBD47F273
:1041E000C140C2F201000078002840F0C480FFE71F
:1041F00047F2C140C2F20100017801310170012093
:104200001BF06AFF1AF019FE05201CF07DFAFF2151
:10421000D99008461CF01CFADC2078214FF48872F3
:10422000D8900846D89BD7911946DDF85CC3D69242
:104230006246D69B1BF05CF9F020D590D899D59AB0
:10424000D69B1BF055F94FF4B470D490D899D49AFA
:10425000D69B1BF04DF940F69C50C2F20100807CC9
:10426000002809D0FFE741F6AC20C0F60500C821C0
:104270003C221AF0F1FF08E041F69820C0F6050054
:10428000C8213C221AF0E8FFFFE741F6C020C0F643
:1042900005004121D722D390D2921AF0DDFFB92137
:1042A000D398D29A1AF0D8FF41F6D420C0F6050070
:1042B00040F23111D29A1AF0CFFF41F68420C0F6B5
:1042C00005004FF4C871BE221AF0C6FF49F2C8704B
:1042D000C0F603001CF0CAF94AF2FF51D19008461B
:1042E0001CF0B6F902201CF021FA0C21D0900846EF
:1042F0001CF012FA0521FA22CF9008461146CE9200
:104300001BF030FB42F2C721C0F60501CD900846F4
:104310001AF0F0FE8720CE991BF024FB41F6C17104
:10432000C0F60501CC9008461AF0E4FEFF20CE99B5
:104330001BF018FB42F22631C0F60501CB9008466F
:104340001AF0D8FE01201BF039FF47F2C340C2F239
:1043500001000021017047F2BF40C2F2010001706C
:1043600047F2C240C2F20100017047F2C040C2F2FF
:10437000010001705DE047F2C140C2F20100007827
:1043800001283CD1FFE746F69740C2F201000078D1
:10439000002833D0FFE740F69C50C2F20100807C39
:1043A00000280ED1FFE740F69C50C2F20100012127
:1043B000817407F0F1FD40F62051C2F2010108605E
:1043C00014E040F69C50C2F20100807C00280CD022
:1043D000FFE740F69C50C2F201000021817440F6D4
:1043E0002050C2F201000160FFE7FFE747F2C14041
:1043F000C2F20100017801310170FFE718E047F2D5
:10440000C140C2F201000078022810D1FFE746F651
:104410009740C2F201000078002807D1FFE747F279
:10442000C140C2F2010000210170FFE7FFE7FFE792
:10443000FFE702F04FBC01201BF04EFE47F2C340E5
:10444000C2F201000078002865D1FFE747F2C340BF
:10445000C2F201000178013101700020CA901BF006
:104460003BFECA981CF0DAF8CA99C99008461CF0BD
:10447000EFF81AF0E2FC4BF29050C9F20400CA992E
:10448000CA9A1AF0B3FB4FF4AF7150224FF4F07395
:104490004FF0B40CC890084611461A466346CDF852
:1044A0001CC31AF0D9FC4FF49B704FF4D272CD2389
:1044B000C7991AF0D1FCCA981BF080FE01201CF0AD
:1044C000ADF84FF07F41C69008461CF0BFF81AF0D7
:1044D000B4FCFEF7CDFAFDF7F3FD46F67850C2F2D4
:1044E0000100016841F48011016047F2BF40C2F24F
:1044F0000100CA99017047F2C240C2F20100017086
:1045000047F2C140C2F20100017047F2C040C2F25E
:1045100001000170C2E147F2C340C2F2010000781D
:10452000012840F0BA81FFE746F68D40C2F2010053
:10453000007800281AD0FFE746F68540C2F2010055
:104540000078002812D1FFE746F68540C2F201004C
:104550000121017015F004F947F68860C2F20100EC
:10456000702112F0F1FBFEF783FA17E046F68D405A
:10457000C2F20100007800280FD1FFE746F685401F
:10458000C2F201000078002807D0FFE746F6854018
:10459000C2F2010000210170FFE7FFE746F68C4000
:1045A000C2F20100007800281AD0FFE746F68440E6
:1045B000C2F201000078002812D1FFE746F68440DD
:1045C000C2F201000121017015F0BEF847F68860C3
:1045D000C2F20100702112F0B7FBFEF749FA17E0B2
:1045E00046F68C40C2F20100007800280FD1FFE7A8
:1045F00046F68440C2F201000078002807D0FFE7A9
:1046000046F68440C2F2010000210170FFE7FFE797
:1046100046F67850C2F201008078C006002840F1CA
:104620009A80FFE746F67850C2F20100016821F453
:10463000801101604FF4CD70B9214FF4F072EB237B
:10464000C5921AF009FC4FF49B70E621FF23C59A2E
:104650001AF002FC47F68860C2F2010000780028D8
:1046600005D0FFE74FF47F401BF0F2FF03E0FF208F
:104670001BF0EEFFFFE74DF2A850C0F603001BF061
:10468000F5FF4FF4CD71AA22C490084611461BF0E5
:1046900069F90C21C39008461CF03EF847F6886182
:1046A000C2F201010978002907D0FFE742F2F510B4
:1046B000C0F605001AF01EFD06E042F22E10C0F60C
:1046C00005001AF017FDFFE74FF49B70F2211BF075
:1046D00049F947F29801C0F60301C29008461BF061
:1046E000C5FF0C21C1900846C0911CF015F86FF071
:1046F0007F41BF9008461BF0ABFF40F29F10DC21CA
:104700001BF030F948F23041C0F60301BE90084674
:104710001BF0ACFFC099BD9008461BF0FDFF47F6AB
:104720008861C2F20101B1F9021046F26762C6F275
:10473000666251FB02F18A1002EBD1710322BC9038
:10474000084611461AF0BEFC42F26030C0F6050081
:104750001AF0D0FCFFE707F01FFC47F27C61C2F2C1
:1047600001010968401AB0F57A7FC0F09580FFE733
:1047700007F012FC47F27C61C2F20101086040F6CA
:104780002850C2F201000168013101600B2919D3E0
:10479000FFE740F62850C2F201000021016046F612
:1047A0007850C2F2010080788007002809D4FFE722
:1047B00046F67850C2F20100016841F480110160B0
:1047C000FFE7FFE746F67850C2F2010040780006A6
:1047D000002860D5FFE747F24410C2F2010047F21B
:1047E0006461C2F201010122BB90BA91B9920BF04F
:1047F0007FFC47F26061C2F20101BB9AB89010469B
:10480000B99A0BF035FC0DF5B3610222B79008465A
:10481000BA9BB6911946B5920CF056FC3A208DF829
:104820009A05B6980330BA990131B59A0CF04CFC50
:1048300000208DF89D054BF2F851C0F60301B490AD
:1048400008461BF013FF6FF07F41B39008461BF042
:10485000FFFEB5981BF06AFF0C21B29008461BF0D2
:104860005BFF0521F522B190084611461BF07AF84E
:10487000B999B09008461BF02FFCDC2164224FF45C
:104880008773B4981AF0E8FAB6981AF033FCB9981E
:104890001BF094FCFFE7FFE7FFE7FFE701201BF0B9
:1048A0008DFC47F68460C2F201000068002838D011
:1048B000FFE7FDF759FB07F06FFB47F68461C2F293
:1048C00001010968401AB0F5FA6F29D9FFE747F6E8
:1048D0008460C2F201000021016047F2C340C2F2CD
:1048E0000100017047F68860C2F2010000780028DC
:1048F00007D0FFE747F68860C2F20100002101708F
:1049000006E047F68860C2F2010002210170FFE76D
:1049100047F68860C2F20100702112F015FAFFE735
:10492000FFE702F0D7B90020AF901BF077FEAE9002
:104930001AF083FA0120AD901BF070FE4FF07F411A
:10494000AC9008461BF082FE1AF077FA0520FEF7BD
:104950006BF847F2D060C2F20100AD99017040F6E9
:104960001450C2F20100AF9A026040F62450C2F225
:104970000100016047F2C340C2F20100027047F239
:10498000BF40C2F20100027047F2C240C2F2010011
:10499000027047F2C140C2F20100027047F2C0400B
:1049A000C2F20100027047F2BE40C2F20100027082
:1049B00040F61850C2F20100027040F63050C2F2C8
:1049C0000100027046F69B40C2F20100027046F6FA
:1049D0009940C2F20100027047F2D420C2F20100F5
:1049E000027040F65B00C2F20100017002F072B981
:1049F00047F68860C2F20100007846F69861C2F27C
:104A000001010968AB9008461FF0CAF8AB998142D2
:104A100014D0FFE746F69860C2F2010000681FF06C
:104A2000BFF847F68861C2F20101087040F63050C5
:104A3000C2F201000178013101703BE147F6886064
:104A4000C2F20100807B46F65C61C2F20101096896
:104A5000AA9008461FF0A4F8AA99814214D0FFE753
:104A600046F65C60C2F2010000681FF099F847F654
:104A70008861C2F20101887340F63050C2F2010031
:104A800001780131017014E147F68860C2F201003B
:104A9000007B46F6A461C2F201010968A9900846AC
:104AA0001FF0C2FDA999814214D0FFE746F6A46029
:104AB000C2F2010000681FF0B7FD47F68861C2F23C
:104AC0000101087340F63050C2F201000178013153
:104AD0000170EDE047F68860C2F20100407B46F6C7
:104AE000A861C2F201010968A89008461FF09CFD68
:104AF000A899814214D0FFE746F6A860C2F20100EF
:104B000000681FF091FD47F68861C2F20101487309
:104B100040F63050C2F20100017801310170C6E068
:104B200047F68860C2F20100007C46F66061C2F27E
:104B300001010968A79008461FF076FDA7998142F8
:104B400014D0FFE746F66060C2F2010000681FF073
:104B50006BFD47F68861C2F20101087440F63050DF
:104B6000C2F201000178013101709FE047F68860D0
:104B7000C2F20100407C46F66861C2F20101096898
:104B8000A69008461FF050FDA699814214D0FFE779
:104B900046F66860C2F2010000681FF045FD47F666
:104BA0008861C2F20101487440F63050C2F201003F
:104BB00001780131017078E047F68860C2F20100A7
:104BC000807C46F66461C2F201010968A59008463E
:104BD0001FF02AFDA599814214D0FFE746F66460D4
:104BE000C2F2010000681FF01FFD47F68861C2F2A3
:104BF0000101887440F63050C2F2010001780131A1
:104C0000017051E047F68860C2F20100807D46F6EF
:104C10009C61C2F201010968A49008461FF004FDDE
:104C2000A499814213D0FFE746F69C60C2F20100CE
:104C300000681FF0F9FC47F68861C2F2010188752F
:104C400040F63050C2F20100012101702BE047F61E
:104C50008860C2F20100C07D00F0010046F6A0614C
:104C6000C2F201010968A390084618F069F8A399F7
:104C7000814217D0FFE746F6A060C2F2010000684B
:104C800018F05EF8002818BF012047F68861C2F2CC
:104C90000101C87540F63050C2F201004FF0010129
:104CA0000170FFE7FFE7FFE7FFE7FFE7FFE7FFE749
:104CB000FFE7FFE746F6B850C2F20100006817F0C0
:104CC000BBFE002823D0FFE740F63050C2F20100BF
:104CD000007800280CD0FFE747F68860C2F2010098
:104CE0007021A29012F030F80120A2994876FFE7D7
:104CF00040F63050C2F201000021017004F0D4FAF5
:104D000047F2D060C2F201000721017015E046F6BB
:104D1000B450C2F20100006817F08EFE00280BD0DC
:104D2000FFE704F0C1FA02F063FE47F2D060C2F27E
:104D300001000A210170FFE7FFE701F0CBBF40F659
:104D40009C50C2F20100808D46F6AC51C2F20101C6
:104D50000968A19008461FF067FCA199814221D003
:104D6000FFE746F6AC50C2F2010000681FF05CFCA1
:104D700040F69C51C2F2010188850878002809D1CB
:104D8000FFE746F69850C2F20100006800211FF0CC
:104D900086FCFFE740F61850C2F2010001780131AD
:104DA0000170FFE740F69C50C2F20100007946F620
:104DB000A051C2F201010968A09008461FF034FC1E
:104DC000A099814221D0FFE746F6A050C2F201002F
:104DD00000681FF029FC40F69C51C2F201010871E5
:104DE0000879002809D1FFE746F68C50C2F201008D
:104DF000006800211FF053FCFFE740F61850C2F294
:104E00000100017801310170FFE740F69C50C2F2C9
:104E10000100007A46F6A451C2F2010109689F9090
:104E200008461FF001FC9F99814221D0FFE746F61A
:104E3000A450C2F2010000681FF0F6FB40F69C513E
:104E4000C2F201010872087A002809D1FFE746F68C
:104E50009050C2F20100006800211FF020FCFFE723
:104E600040F61850C2F20100017801310170FFE7ED
:104E700040F69C50C2F20100007B46F6A851C2F2F7
:104E8000010109689E9008461FF0CEFB9E99814261
:104E900021D0FFE746F6A850C2F2010000681FF0DB
:104EA000C3FB40F69C51C2F201010873087B002845
:104EB00009D1FFE746F69450C2F2010000680021D4
:104EC0001FF0EDFBFFE740F61850C2F20100017839
:104ED00001310170FFE740F69C50C2F20100007CF6
:104EE00046F6B051C2F2010109689D9008461FF0D4
:104EF0009BFB9D99814221D0FFE746F6B050C2F25C
:104F0000010000681FF090FB40F69C51C2F20101C5
:104F10000874087C002809D1FFE746F69C50C2F2CD
:104F20000100006800211FF0BAFBFFE740F61850AF
:104F3000C2F20100017801310170FFE740F69C5098
:104F4000C2F20100007D46F64C61C2F2010109681F
:104F50009C9008461FF068FB9C99814214D0FFE7A3
:104F600046F64C60C2F2010000681FF05DFB40F69F
:104F70009C51C2F20101087540F61850C2F20100BE
:104F8000017801310170FFE740F69C50C2F2010048
:104F9000007E46F65061C2F2010109689B90084606
:104FA0001FF042FB9B99814214D0FFE746F6506008
:104FB000C2F2010000681FF037FB40F69C51C2F2BC
:104FC0000101087640F61850C2F201000178013163
:104FD0000170FFE740F69C50C2F20100007F46F6E8
:104FE0005461C2F2010109689A9008461FF01CFB47
:104FF0009A99814214D0FFE746F65460C2F201004C
:1050000000681FF011FB40F69C51C2F201010877C5
:1050100040F61850C2F20100017801310170FFE73B
:1050200040F6DC50C2F20100007846F69851C2F218
:1050300001010968999008461FF0F6FA9999814292
:1050400014D0FFE746F69850C2F2010000681FF046
:10505000EBFA40F6DC51C2F20101087040F618503C
:10506000C2F20100017801310170FFE740F6DC5027
:10507000C2F20100007946F68C51C2F201010968C2
:10508000989008461FF0D0FA9899814214D0FFE713
:1050900046F68C50C2F2010000681FF0C5FA40F6D7
:1050A000DC51C2F20101087140F61850C2F2010051
:1050B000017801310170FFE740F6DC50C2F20100D7
:1050C000007A46F69051C2F20101096897900846AD
:1050D0001FF0AAFA9799814214D0FFE746F6905044
:1050E000C2F2010000681FF09FFA40F6DC51C2F2E4
:1050F0000101087240F61850C2F201000178013136
:105100000170FFE740F6DC50C2F20100007B46F67A
:105110009451C2F201010968969008461FF084FA82
:105120009699814214D0FFE746F69450C2F20100EE
:1051300000681FF079FA40F6DC51C2F201010873F1
:1051400040F61850C2F20100017801310170FFE70A
:1051500040F6DC50C2F20100007C46F69C51C2F2DF
:1051600001010968959008461FF05EFA9599814201
:1051700014D0FFE746F69C50C2F2010000681FF011
:1051800053FA40F6DC51C2F20101087440F618509F
:10519000C2F20100017801310170FFE746F6B85014
:1051A000C2F20100006817F047FC002800F0808080
:1051B000FFE740F63050C2F20100007800280ED020
:1051C000FFE740F63050C2F201000021017047F6BF
:1051D0008860C2F20100702111F0B6FDFFE740F6D1
:1051E0001850C2F201000078002815D0FFE740F601
:1051F0001850C2F201000021017040F69C50C2F22A
:105200000100302111F0B8FC40F6DC50C2F2010080
:10521000502111F0B1FCFFE747F2BD40C2F201009E
:1052200000788DF8900547F24C00C2F2010000783A
:105230008DF8910547F2D860C2F2010000788DF830
:10524000920547F2D360C2F2010000788DF8930511
:1052500047F2D260C2F2010000788DF8940547F25F
:10526000D160C2F2010000788DF8950546F67850BD
:10527000C2F2010080784007002804D5FFE7012032
:105280008DF8960503E000208DF89605FFE70DF5F3
:10529000B2600A210722949204F02AFD939004F050
:1052A00053F847F2D060C2F201009499017015E002
:1052B00046F6B450C2F20100006817F0BDFB0028AA
:1052C0000BD0FFE704F040F802F092FB47F2D06009
:1052D000C2F201000A210170FFE7FFE701F0FABC0A
:1052E00047F26460C2F20100007846F67861C2F2CB
:1052F00001010968929008461FF096F9C0B204F0C7
:105300007BFA929981421FD0FFE746F67860C2F29D
:10531000010000681FF088F9C0B204F06DFA47F28E
:105320006461C2F20101087047F24410C2F2010048
:1053300001220BF081F846F67851C2F201010A68A9
:1053400042F400420A60FFE747F26460C2F20100E3
:10535000407846F67C61C2F20101096891900846E6
:105360001FF062F9C0B204F047FA919981421FD050
:10537000FFE746F67C60C2F2010000681FF054F9B6
:10538000C0B204F039FA47F26461C2F20101487018
:1053900047F24410C2F2010001220BF04DF846F62C
:1053A0007851C2F201010A6842F400420A60FFE744
:1053B00047F26060C2F20100807846F66C61C2F28A
:1053C00001010968909008461FF02EF9C0B204F060
:1053D00013FA909981421FD0FFE746F66C60C2F243
:1053E000010000681FF020F9C0B204F005FA47F28E
:1053F0006061C2F20101887047F24410C2F20100FC
:1054000001220AF051FF46F67851C2F201010A6802
:1054100042F400420A60FFE747F26060C2F2010016
:10542000407846F68061C2F2010109688F90084613
:105430001FF0FAF8C0B204F0DFF98F9981421FD053
:10544000FFE746F68060C2F2010000681FF0ECF84A
:10545000C0B204F0D1F947F26061C2F201014870B4
:1054600047F24410C2F2010001220AF01DFF46F685
:105470007851C2F201010A6842F400420A60FFE773
:1054800047F26060C2F20100C07846F69461C2F251
:10549000010109688E9008461FF0C6F8A0F5FA6071
:1054A000C0B204F0A9F98E99814221D0FFE746F6F7
:1054B0009460C2F2010000681FF0B6F8A0F5FA602F
:1054C000C0B204F099F947F26061C2F20101C870FC
:1054D00047F24410C2F2010001220AF0E5FE46F64E
:1054E0007851C2F201010A6842F400420A60FFE703
:1054F00047F26060C2F20100007846F65861C2F2DD
:10550000010109688D90084617F06DFF0130C0B2A7
:1055100004F072F98D99814220D0FFE746F6586079
:10552000C2F20100006817F05EFF0130C0B204F063
:1055300063F947F26061C2F20101087047F244105A
:10554000C2F2010001220AF0AFFE46F67851C2F223
:1055500001010A6842F400420A60FFE747F2D160A5
:10556000C2F20100007846F68461C2F201010968C6
:105570008C9008461FF058F88C9981421ED0FFE7A6
:1055800046F68460C2F2010000681FF04DF847F251
:10559000D161C2F201010870087840F2A871C2F22C
:1055A000010151F820001BF053F84FF4AA70332189
:1055B0004FF4D7723B231AF0ADF8FFE746F6C85018
:1055C000C2F20100006817F0ADFB012809D1FFE726
:1055D00046F67850C2F20100016841F48021016072
:1055E00008E046F67850C2F20100016821F48021FB
:1055F0000160FFE746F67060C2F2010000681FF02C
:1056000013F847F24C01C2F20101087046F67460CB
:10561000C2F2010000681FF007F847F2BD41C2F274
:105620000101087046F69060C2F2010000681EF0A9
:10563000FBFF47F2D861C2F20101087046F68C60A8
:10564000C2F2010000681EF0EFFF47F2D361C2F220
:105650000101087046F68860C2F2010000681EF081
:10566000E3FF47F2D261C2F20101087046F684609E
:10567000C2F2010000681EF0D7FF47F2D161C2F20A
:105680000101087046F6B850C2F20100006817F038
:10569000D3F9002800F08C80FFE740F63050C2F2CA
:1056A0000100007800280ED0FFE740F63050C2F22B
:1056B00001000021017047F68860C2F201007021EC
:1056C00011F042FBFFE740F61850C2F201000078EB
:1056D000002815D0FFE740F61850C2F20100002163
:1056E000017040F69C50C2F20100302111F044FAE2
:1056F00040F6DC50C2F20100502111F03DFAFFE704
:1057000047F2BD40C2F2010000788DF8900547F2E3
:105710004C00C2F2010000788DF8910547F2D86084
:10572000C2F2010000788DF8920547F2D360C2F210
:10573000010000788DF8930547F2D260C2F20100B3
:1057400000788DF8940547F2D160C2F2010000782C
:105750008DF8950546F67850C2F201008078400732
:10576000002804D5FFE701208DF8960503E000200E
:105770008DF89605FFE70DF5B2600A2107228B929E
:1057800004F0B6FA47F68361C2F201012022012338
:105790008A90084611461A4604F0AAFA899003F046
:1057A0003FFE47F2D060C2F201008B99017015E014
:1057B00046F6B450C2F20100006817F03DF9002827
:1057C0000BD0FFE703F02CFE02F01AFD47F2D06089
:1057D000C2F201000D210170FFE7FFE701F07ABA84
:1057E00047F2BE40C2F201000078002810D1FFE766
:1057F00047F2BE40C2F2010001780131017019F098
:105800001CFB46F69440C2F201003C2101709BE073
:1058100047F2BE40C2F201000078012840F09380B8
:10582000FFE706F0B9FB46F69041C2F201010968B4
:10583000401AB0F57A7FC0F08580FFE706F0ACFB38
:1058400046F69041C2F201010860FCF78DFB012091
:105850001AF042FC002032214FF4F072C82319F0F4
:10586000FBFA46F69440C2F201000078062805DBF8
:10587000FFE74FF47F401AF0EBFE06E0FF201AF03E
:10588000E7FE012005F0F8FFFFE74BF2F850C0F605
:1058900003001AF0EBFE02218890084687911AF067
:1058A00045FF0E218690084685911AF035FFF021BC
:1058B000502284900846839111461AF053F80D2126
:1058C0008290084616F030F947F28620C2F20100B5
:1058D00019F010FC40F22000C0F604001AF0C6FED9
:1058E0008799819008461AF021FF85998090084693
:1058F0001AF012FF9C21839A7F9010461AF032F81A
:1059000046F69441C2F201010A787E9010467D91DC
:1059100019F0C4FB01201AF051FC7D980178002990
:1059200008D0FFE746F69440C2F201000178013941
:10593000017006E047F2D060C2F201000721017059
:10594000FFE7FFE7FFE7FFE701F0C4B946F6B8500D
:10595000C2F20100006817F06FF8002818D0FFE7C6
:1059600047F25770C2F201000078002807D0FFE725
:1059700047F25770C2F2010000210170FFE703F007
:10598000BBFD47F2D060C2F201000721017015E0B3
:1059900046F6B450C2F20100006817F04DF8002836
:1059A0000BD0FFE703F0A8FD02F02AFC47F2D0601D
:1059B000C2F201000D210170FFE7FFE701F08AB993
:1059C00046F6B850C2F20100006817F035F800281A
:1059D00000F0B680FFE746F69B40C2F20100007877
:1059E00080008DF88E05FFE79DF88E0546F69B41F9
:1059F000C2F2010109780F22A2EB810104297C90F7
:105A00000ADBFFE746F69B40C2F201000078042162
:105A100001EB80007B9002E00F207B90FFE77B98FA
:105A20007C99814272DAFFE79DF88E0500EB400019
:105A300046F6A041C2F2010101EB8000FBF754FEE3
:105A40009DF88E1546F6D052C2F2010252F831107E
:105A50007A9008461EF0E8FD7A9981421DD1FFE751
:105A60009DF88E0500EB400046F6A041C2F2010110
:105A700001EB8000FBF730FE9DF88E1546F6D05204
:105A8000C2F2010202EBC1014968799008461EF09A
:105A9000CBFD7999814232D0FFE747F25770C2F2CD
:105AA0000100012101709DF88E0500EB400146F6D2
:105AB000A042C2F2010202EB810146F6D053C2F2CB
:105AC000010353F830007892779176931EF0ACFD85
:105AD00081B27798FBF764FF9DF88E0500EB4001DB
