:020000040000FA
:2000000002980068C2640298006880688006002814D4FFE7029800F0EBFA00280DD0FFE7F8
:20002000FFE702980068FF214162FFE702980421417701208DF80F0016E0FFE7FFE7FFE75B
:2000400002980068FF214162FFE7029800F014F9029800214177FFE7029800210177FFE7EC
:2000600000208DF80F00FFE79DF80F0004B080BD80B584B0039002910192002000900398E4
:20008000006840684FF63F71C0F2FF0108400090BDF802000299C8700098C0F3042002993D
:2000A0004870009800F03F0002998870BDF80000400B029908700198002813D1FFE70298F6
:2000C000C07806F079FB0299C8700298407806F073FB029948700298807806F06DFB029917
:2000E0008870FFE7002004B080BD00000000000080B584B0039002910192002000900398A4
:200100000068806A029948600398006800696FF3DF300299886003980068006847F67F7152
:20012000C0F27F01084000900098C0F30540029908700098C0F3062002994870009800F0C6
:200140007F0002998870009800F48000000C029908730198002813D1FFE70298007806F0CC
:200160002BFB029908700298407806F025FB029948700298807806F01FFB02998870FFE770
:20018000002004B080BD000080B582B000900098002804D1FFE701208DF8070068E000984F
:2001A000407F002807D1FFE7009800210177009800F06EF8FFE7009802214177FFE70098A4
:2001C0000068CA2141620098006853214162FFE7009806F029FB00280DD0FFE7FFE7009811
:2001E0000068FF214162FFE700980421417701208DF807003CE00098006881684FF6BF7251
:20020000CFF68F7211408160009801684268036940691A4310438A68104388600098016848
:20022000C06808610098016880680A6942EA0040086100980068C16821F08001C160009888
:200240000068C16C21F00801C164009801688069CA6C1043C864FFE700980068FF21416282
:20026000FFE700980121417700208DF80700FFE79DF8070002B080BD81B0009043F670009F
:20028000C4F20200016821F40041016001B0704781B0009043F67000C4F20200016841F45E
:2002A0000041016001B0704780B588B006900591049200200390FFE70698007F012804D151
:2002C000FFE702208DF81F00B2E0069801210177FFE7FFE7069802214177049800280DD1C1
:2002E000FFE705984078C006002807D5FFE70598417801F0EF010A314170FFE70498002846
:200300001CD1FFE70598C07806F06EFA0004059949780290084606F067FA029941EA002057
:20032000059989780190084606F05EFA019908440599097840EA4130039016E00598407873
:2003400006F03AFA03900598807806F035FA03900598017842788378C078000440EA022040
:20036000184440EA41300390FFE7FFE706980068CA2141620698006853214162FFE70698F2
:2003800006F052FA002812D0FFE7FFE706980068FF214162FFE7069804214177FFE7069897
:2003A00000210177FFE701208DF81F0040E003984FF63F71C0F2FF01084006990968486097
:2003C00006980068C16821F08001C1600698006880688006002819D4FFE7069800F008F93D
:2003E000002812D0FFE7FFE706980068FF214162FFE7069804214177FFE7069800210177E0
:20040000FFE701208DF81F0012E0FFE7FFE706980068FF214162FFE7069801214177FFE766
:20042000069800210177FFE700208DF81F00FFE79DF81F0008B080BD80B588B006900591B3
:20044000049200200390FFE70698007F012804D1FFE702208DF81F00C3E0069801210177CB
:20046000FFE7FFE70698022141770498002828D1FFE70698006880684006002801D5FFE77C
:2004800003E0059800210173FFE70598007806F0ABF90004059949780290084606F0A4F9DC
:2004A000029941EA0020059989780190084606F09BF9019908440599097B40EA0140039048
:2004C0001DE00698006880684006002806D5FFE70598007806F070F9039003E0059800215A
:2004E0000173FFE70598017842788378007B090441EA0221194441EA00400390FFE7FFE7DA
:2005000006980068CA2141620698006853214162FFE7069806F088F9002812D0FFE7FFE759
:2005200006980068FF214162FFE7069804214177FFE7069800210177FFE701208DF81F00C9
:200540004FE0039847F67F71C0F27F01084006990968086006980068816821F4802181602C
:200560000598016940690843069909688A681043886006980068C16821F08001C1600698C3
:20058000006880688006002819D4FFE7069800F02FF8002812D0FFE7FFE706980068FF21D9
:2005A0004162FFE7069804214177FFE7069800210177FFE701208DF81F0012E0FFE7FFE7B1
:2005C00006980068FF214162FFE7069801214177FFE7069800210177FFE700208DF81F002D
:2005E000FFE79DF81F0008B080BD00000000000080B584B002900020019002980068C16895
:2006000021F0A001C160FBF7C7FC0190FFE702980068C068800600280DD4FFE7FBF7BCFC92
:200620000199401AB0F57A7F04D9FFE703208DF80F0004E0EBE700208DF80F00FFE79DF8C9
:200640000F0004B080BD000080B586B0049003910498002804D1FFE701208DF817002CE0BF
:20066000049890F82C00002808D1FFE70498002180F82D10049800F027F8FFE70498022181
:2006800080F82C10049850F8041B029008460299F9F7EEFC0499039A0B6849680190184601
:2006A00000911146009AF9F797FD0499012281F82C2000218DF81710FFE79DF8170006B09A
:2006C00080BD00000000000081B0009001B0704780B584B002900191029890F82C000228AF
:2006E00004D1FFE702208DF80F0010E00298022180F82C10029800680199F9F71DFD0299E7
:20070000012281F82C2000218DF80F10FFE79DF80F0004B080BD000080B584B00290019124
:200720000092029890F82C00022804D1FFE702208DF80F001CE00298022180F82C10029837
:2007400000680199009AF9F703FD01990968022905D1FFE70298052180F82C1004E0029829
:20076000012180F82C10FFE700208DF80F00FFE79DF80F0004B080BD81B000900098042809
:2007800009D1FFE74EF21000CEF20000016841F00401016008E04EF21000CEF20000016828
:2007A00021F004010160FFE701B070470000000080B582B00190019806F0BAFE02B080BD46
:2007C00080B586B0049003910292FFE7049890F83C00012804D1FFE702208DF81700C4E066
:2007E0000498012180F83C10FFE7FFE70498022180F83D1002981428019000F2A78001990D
:20080000DFE801F00BA4A4A424A4A4A43EA4A4A457A4A4A471A4A4A48A0004980068039925
:2008200008F0DEFA04980068816941F00801816104980068816921F00401816103980069F4
:20084000049909688A691043886180E004980068039908F03DFB04980068816941F40061A7
:20086000816104980068816921F48061816103980069049909688A6942EA0020886166E050
:2008800004980068039908F09FFB04980068C16941F00801C16104980068C16921F0040158
:2008A000C1610398006904990968CA691043C8614DE004980068039908F002FC049800688E
:2008C000C16941F40061C16104980068C16921F48061C1610398006904990968CA6942EA7F
:2008E0000020C86133E004980068039908F04CFC04980068416D41F0080141650498006826
:20090000416D21F00401416503980069049909684A6D104348651AE004980068039908F012
:2009200087FC04980068416D41F40061416504980068416D21F48061416503980069049957
:2009400009684A6D42EA0020486500E0FFE70498012180F83D10FFE70498002180F83C10C6
:20096000FFE700208DF81700FFE79DF8170006B080BD00000000000080B582B001900198BF
:20098000022180F83D10FFE701980068006A41F21111084210D1FFE701980068006A40F21B
:2009A0004441084207D1FFE701980068016821F001010160FFE7FFE7FFE7019800F044F855
:2009C0000198002180F83D10FFE70198002180F83C10FFE7002002B080BD0000000000003F
:2009E00080B584B002900298002804D1FFE701208DF80F0021E0029890F83D00002808D169
:200A0000FFE70298002180F83C10029800F020F8FFE70298022180F83D10029850F8041B66
:200A200001900846019908F0B3F80298012180F83D1000208DF80F00FFE79DF80F0004B027
:200A400080BD00000000000081B0009001B0704781B0009001B0704780B584B00390029178
:200A60000398006802990122019208F09DF90398006801990022C4F20102904200910CD0DD
:200A8000FFE7039800684FF60041CBF6FE710844B0FA80F040090090FFE70098C00700280B
:200AA00007D0FFE703980068416C41F400414164FFE703980068016841F0010101600020A8
:200AC00004B080BD0000000080B584B002900298002804D1FFE701208DF80F002AE0029854
:200AE000242180F8691002980068016821F0010101600298006800210160029800684160BA
:200B00000298006881600298019100F04DF902980199C166029880F86910029880F86A101E
:200B2000FFE70298002180F86810FFE700208DF80F00FFE79DF80F0004B080BD000000000F
:200B400080B582B001900198006841F20001C4F20101884203D1FFE705F03EF80AE001987E
:200B6000006844F20041C4F20001884201D1FFE7FFE7FFE702B080BD80B586B00590059805
:200B80000068C069049005980068006803900598006880680290049800F00F0001900198EC
:200BA000002811D1FFE79DF81000800600280AD5FFE79DF80C008006002804D5FFE7059882
:200BC00008F08AFFEEE0FFE70198002800F0CA80FFE79DF80800C007002807D1FFE7BDF800
:200BE0000C0010F4907F00F0BD80FFE79DF81000C007002810D0FFE79DF80D00C0070028D8
:200C00000AD0FFE705980068012101620598C16E41F00101C166FFE79DF81000800700282A
:200C200010D5FFE79DF80800C00700280AD0FFE705980068022101620598C16E41F0040110
:200C4000C166FFE79DF810004007002810D5FFE79DF80800C00700280AD0FFE70598006857
:200C6000042101620598C16E41F00201C166FFE79DF810000007002816D5FFE79DF80C0099
:200C80008006002806D4FFE79DF80800C00700280AD0FFE705980068082101620598C16E3D
:200CA00041F00801C166FFE70598C06E002858D0FFE79DF81000800600280AD5FFE79DF83F
:200CC0000C008006002804D5FFE7059808F004FFFFE70598C06E0007002807D4FFE70598C5
:200CE000006880684006002833D5FFE7059808F0CBFE0598006880684006002824D5FFE7B0
:200D000005980068816821F0400181600598406E002814D0FFE70598406E49F66121C0F6B3
:200D2000010101650598406EFAF74AFC002805D0FFE70598406E016D8847FFE703E00598F8
:200D4000FFF7FEFEFFE703E00598FFF7F9FEFFE706E00598FFF7F4FE05980021C166FFE732
:200D6000FFE71FE09DF81000000600280AD5FFE79DF80C000006002804D5FFE7059809F0D2
:200D8000BFF90FE09DF81000400600280AD5FFE79DF80C004006002804D5FFE7059808F071
:200DA00087FEFFE706B080BD81B0009001B0704781B0009001B0704784B0134602900191D2
:200DC000ADF80220029890F86A00202840F08F80FFE70198002805D0FFE7BDF802000028F8
:200DE00004D1FFE701208DF80F0084E0FFE7029890F86800012804D1FFE702208DF80F0015
:200E000079E00298012180F86810FFE7FFE7019802994865BDF802000299A1F85800BDF828
:200E200002000299A1F85A00FFE702988068B0F5805F11D1FFE702980069002806D1FFE786
:200E4000029840F2FF11A0F85C1004E00298FF21A0F85C10FFE72CE002988068002810D193
:200E6000FFE702980069002805D1FFE70298FF21A0F85C1004E002987F21A0F85C10FFE7DF
:200E800016E002988068B0F1805F10D1FFE702980069002805D1FFE702987F21A0F85C106E
:200EA00004E002983F21A0F85C10FFE7FFE7FFE7FFE7FFE702980021C1660298222180F89B
:200EC0006A10FFE70298002180F86810FFE702980068816841F001018160029800680168B7
:200EE00041F49071016000208DF80F0003E002208DF80F00FFE79DF80F0004B07047000019
:200F000080B582B001900198006841F20001C4F20101884203D1FFE704F0DAFE0AE0019819
:200F2000006844F20041C4F20001884201D1FFE7FFE7FFE702B080BD80B588B09446069001
:200F40000591ADF81220039300200190069890F86900202840F08F80FFE70598002805D047
:200F6000FFE7BDF81200002804D1FFE701208DF81F0084E0FFE7069890F86800012804D146
:200F8000FFE702208DF81F0079E00698012180F86810FFE7FFE706980021C166069821210A
:200FA00080F86910FAF7F8FF0190BDF812000699A1F85000BDF812000699A1F85200FFE741
:200FC0000698B0F85200002837D0FFE70698B0F852100139A0F852100698019B03996A4602
:200FE00011608021002209F0DFF8002804D0FFE703208DF81F0042E006988068B0F5805F18
:2010000012D1FFE70698006900280DD1FFE705980290029800886FF35F20069909688862E8
:2010200005980230059007E00598411C05910078069909688862FFE7C2E70698019B0399FE
:201040006A4611604021002209F0AEF8002804D0FFE703208DF81F0011E00698202180F85C
:201060006910FFE70698002180F86810FFE700208DF81F0003E002208DF81F00FFE79DF894
:201080001F0008B080BD000080B582B001900198006841F20001C4F20101884203D1FFE7D3
:2010A00005F086FB0AE00198006844F20041C4F20001884201D1FFE7FFE7FFE702B080BD64
:2010C00080B505F0E9FC80BD86B0134605900491ADF80E2000200290FFE7BDF80E000028B5
:2010E0003FD0FFE70298002816D1FFE7049800780009019001980A2805D3FFE70198373035
:201100000599087004E00198303005990870FFE702980130029018E00498007800F00F0078
:20112000009000980A2805D3FFE7009837300599087004E00098303005990870FFE700208A
:201140000290049801300490FFE7059801300590059800210170BDF80E000138ADF80E0075
:20116000BBE706B07047000081B0009000980068806900F002000021B1EB500F05D0FFE7ED
:201180000098006800218162FFE7009800688069C007002807D1FFE700980068816941F0B4
:2011A00001018161FFE701B0704700000000000080B586B0049003910292049800688069E9
:2011C00000F010000121B1EB101F5AD1FFE7FFE704980068806900F020000021B1EB501F02
:2011E00025D1FFE70398013000281FD0FFE70398002808D0FFE7FAF7CFFE0299401A03997A
:20120000884212D9FFE70498202180F841100498002180F84210FFE70498002180F840109B
:20122000FFE703208DF817002FE0FFE7D0E7049800681021C161049800682021C161049803
:201240000191FFF791FF0498006841684EF60002CFF6006211404160049804214164049868
:20126000019980F841100498002280F84220FFE70498002180F84010FFE701208DF8170065
:2012800003E000208DF81700FFE79DF8170006B080BD000000000000F0B58BB0DDF844C071
:2012A000DDF840E01C4615460E460990ADF82210ADF82020ADF81E300998BDF822109DF8C3
:2012C0001E206B464FF400571F600023CDF818C0CDF814E004940395029600F0D5F8099867
:2012E0001099119A00F090F900280DD0FFE70998406C042804D1FFE701208DF82B0042E00F
:2013000003208DF82B003EE0BDF81E00012806D1FFE79DF820000999096888621FE09DF8DD
:20132000210009990968886209981099119A00F06BF900280DD0FFE70998406C042804D10D
:20134000FFE701208DF82B001DE003208DF82B0019E09DF82000099909688862FFE70998D4
:20136000109B11996A4611604021002200F0BCF8002804D0FFE703208DF82B0003E0002018
:201380008DF82B00FFE79DF82B000BB0F0BD0000F0B58BB0DDF844C0DDF840E01C46154624
:2013A0000E460990ADF82210ADF82020ADF81E300998BDF822109DF81E206B464FF40057EB
:2013C0001F604FF08073CDF818C0CDF814E004940395029600F058F809981099119A00F019
:2013E00013F900280DD0FFE70998406C042804D1FFE701208DF82B0042E003208DF82B00FC
:201400003EE0BDF81E00012806D1FFE79DF820000999096888621FE09DF82100099909687B
:20142000886209981099119A00F0EEF800280DD0FFE70998406C042804D1FFE701208DF832
:201440002B001DE003208DF82B0019E09DF82000099909688862FFE70998109B11996A465A
:2014600011608021002200F03FF8002804D0FFE703208DF82B0003E000208DF82B00FFE7C3
:201480009DF82B000BB0F0BD10B584B0DDF818C096460C460390ADF80A108DF809200193BC
:2014A000002000900398006840680090009849F60001CFF6004108400090BDF80A006FF36A
:2014C0009F209DF8091040EA014001990843069908430099084300900098039909684860A4
:2014E00004B010BD0000000080B586B0DDF820C09646049003918DF80B200193FFE7049881
:201500000068806903990840401AB0FA80F040099DF80B10884225D1FFE701980130002891
:201520001FD0FFE70198002808D0FFE7FAF734FD0899401A0199884212D9FFE70498202128
:2015400080F841100498002180F84210FFE70498002180F84010FFE703208DF8170005E046
:20156000FFE7CCE700208DF81700FFE79DF8170006B080BD0000000080B584B00290019104
:201580000092FFE702980068806900F020000021B1EB501F30D1FFE702980199009AFFF701
:2015A00007FE002804D0FFE701208DF80F0027E00198002808D0FFE7FAF7EEFC0099401A3B
:2015C0000199884217D9FFE70298416C41F0200141640298202180F841100298002180F8BC
:2015E0004210FFE70298002180F84010FFE703208DF80F0004E0C5E700208DF80F00FFE769
:201600009DF80F0004B080BD80B584B0029001910092FFE702980068806900F00200002132
:20162000B1EB500F36D1FFE702980199009AFFF7BFFD002804D0FFE701208DF80F002DE09E
:2016400001980130002824D0FFE70198002808D0FFE7FAF7A1FC0099401A0199884217D96A
:20166000FFE70298416C41F0200141640298202180F841100298002180F84210FFE702989D
:20168000002180F84010FFE703208DF80F0005E0FFE7BFE700208DF80F00FFE79DF80F0015
:2016A00004B080BD0000000080B582B047F20000C2F201000190FAF78FFC0199009008465F
:2016C00000F002F802B080BD80B582B0019047F20000C2F20100FAF7B3FC00281DD1FFE7AF
:2016E00047F20000C2F2010046F20001C4F20001016042F23271C4F29101416000218160E9
:201700000122C26001614161C1610162009000F01BF80098FAF79CFCFFE702B080BD000072
:2017200080B584B00B460390ADF80A1001920398BDF80A10019A4FF47A7C00936346FAF79F
:201740000BFD04B080BD000080B590B00F90FFE743F63000C4F20200016841F00801016071
:20176000006800F0080009900998FFE7FFE743F63000C4F20200016841F04001016000683E
:2017800000F0400008900898FFE74FF480500A9012200B9000210C9103220D9204230E9337
:2017A00040F6004CC4F2020C0DF1280E069060460591714604920393CDF808C0CDF804E0C4
:2017C000FAF7AEF94FF400500A9006980B9005990C91049A0D92039B0E9302980199FAF72F
:2017E0009FF941F60000C4F2020000900399059AFAF7AEFB03980A9001210B9105990C91CF
:20180000049A0D9200980199FAF78AF9FFE743F64000C4F20200016841F08071016000687A
:2018200000F0807007900798FFE743F62000C4F20200016841F080710160016821F0807144
:20184000016010B080BD00002DE9F0438DB0DDF854C0DDF850E01C4615460E460C908DF884
:201860002F10ADF82C20ADF82A30ADF828C000208DF827000C989DF82F10BDF82C20BDF8B2
:201880002A30DDF850C0BDF82870E8464FF47A79C8F80890C8F80470C8F800C0CDF820E087
:2018A000079406950596FAF79FFE8DF827009DF82700002838D0FFE70C98006846F2000106
:2018C000C4F20001884203D1FFE7FFF7EDFE2AE00C98006845F60041C4F20001884221D1E7
:2018E000FFE743F64000C4F20200016821F4000101600020C4F202004FF48071F9F7D0FF26
:2019000040F60000C4F202004FF40071F9F7C8FF46F6B470C2F20100FAF75EFB049007F084
:20192000E7FCFFE7FFE7FFE79DF827000DB0BDE8F0830000000000002DE9F0438DB0DDF826
:2019400054C0DDF850E01C4615460E460C908DF82F10ADF82C20ADF82A30ADF828C0002060
:201960008DF827000C989DF82F10BDF82C20BDF82A30DDF850C0BDF82870E8464FF47A799D
:20198000C8F80890C8F80470C8F800C0CDF820E0079406950596FAF78BFF8DF827009DF8E9
:2019A0002700002838D0FFE70C98006846F20001C4F20001884203D1FFE7FFF775FE2AE0F7
:2019C0000C98006845F60041C4F20001884221D1FFE743F64000C4F20200016821F4000176
:2019E00001600020C4F202004FF48071F9F758FF40F60000C4F202004FF40071F9F750FF52
:201A000046F6B470C2F20100FAF7E6FA049007F06FFCFFE7FFE7FFE79DF827000DB0BDE81A
:201A2000F08300000000000082B001900091032002B070470000000080B5ACB047F2500039
:201A4000C2F201002A90FBF7FBF946F60001C4F201012A9A1160002151609160D1601161A1
:201A600082F8361082F83510802382F83430012353614FF0090CC2F818C04FF02B0CC2F878
:201A80001CC04FF0150CC2F820C040F20B2CC2F824C040F2251CC2F828C040F2132CC2F829
:201AA0002CC040F2291CC2F830C02990104628912793FBF76DFB2A99269008462899FBF7C3
:201AC000BBFD2A9925900846FBF77AFA58210E222490084623911146289B22921A46FBF7A3
:201AE0009BFF2398FBF78CFF5A2021902299289AFBF792FF2198FBF783FF41F20000C4F2D3
:201B000002000421279AFAF723FA28982B90FFE72B98012809DCFFE72B9803210EF014FBC3
:201B2000FFE72B9801302B90F2E744F66C40C0F6030044F63041C0F6030100222092209BA4
:201B40000DF0ECF920991F90084610F083FC002812D0FFE700204FF488714FF4F0721E90CF
:201B60001D911C9210F08CFF1E991B9008461D991C9A10F0AFFF11E000204FF4F0714FF4BC
:201B800088721A901991189210F07AFF1A99179008461999189A10F09DFFFFE70020012104
:201BA0001690159110F0ACFF44F6A041C0F6030143F67062C0F60302149008461146169A9A
:201BC000159B0DF0ABF915991390084610F042FC002812D0FFE701204FF488714FF4F072E5
:201BE00012901191109210F04BFF12990F9008461199109A10F06EFF11E001204FF4F071A6
:201C00004FF488720E900D910C9210F039FF0E990B9008460D990C9A10F05CFFFFE7012037
:201C20000A900A9910F06CFF00212B91FFE72B9801281BDCFFE72B984BF25861C0F60401FC
:201C400051F8201010F032FF2B990990084610F04BFBC0102B9946F66C42C2F2010242F87A
:201C60002100FFE72B9801302B90E0E72B984AF63942C0F60102212110F08EFE2B994AF6DE
:201C8000B942C0F60102232308900846194610F083FE2B994AF6F172C0F601021923079091
:201CA0000846194610F078FE2B994AF68162C0F60102282306900846194610F06DFE2B99A4
:201CC0004AF6D152C0F60102242305900846194610F062FE2B994AF63972C0F6010225234F
:201CE00004900846194610F057FE4AF2D121C0F601014AF6C122C0F6010203900846114654
:201D00000CF0FAFA4AF23130C0F601004AF62131C0F601010CF0FCFA4AF20130C0F601001F
:201D20004AF6F121C0F601010CF0ECFA4AF29130C0F601004AF68131C0F601010CF0F4FA6F
:201D40004AF26130C0F601004AF65131C0F601010CF0E4FA4AF2C130C0F601000EF088FC45
:201D60004BF2D901C0F60101029008460EF088FC4AF2F970C0F601000EF088FC4BF22921CD
:201D8000C0F60101019008460EF088FC2CB080BD80B596B015901491139200201290149839
:201DA000013801460D28069100F2A3800699DFE801F007A00B232F32493D3584A08C94171F
:201DC000159809F0DDF998E013981190159811990A68496805911146059A09F021FB8CE03C
:201DE0001398109010980068159940F26C72C2F2010242F8210080E013980F9015980F99B9
:201E00000A68097904911146049A09F0ADFA74E008F0CAFF71E008F0B3FF6EE013980E90FD
:201E200015980E99096809F027FB66E013980D9015980D990A68496803911146039A09F03D
:201E4000CFFA5AE015980CA90BAA0DF033FD13990A9115990290084610F0FCFA002813D065
:201E6000FFE70A984068159946F67442C2F2010242F821000A980068159946F67C42C2F21A
:201E8000010242F8210012E00A980068159946F67442C2F2010242F821000A98406815993E
:201EA00046F67C42C2F2010242F82100FFE715980C990B9A09F0A4FA1FE0139809901598B2
:201EC0000999096809F07CFA17E01398089015980899096809F02CFA0FE01398079015988A
:201EE00007990A68496801911146019A09F004FA03E04FF0FF301290FFE7129816B080BD1E
:201F000080B547F25000C2F20100FBF791F880BD86B00590049103920020029001900090CE
:201F200004994968059A1268D2680023C0F6FF731A4001EB12410904029105990968039AD0
:201F400001EBC211D1F8882002F47042C1F8882004990968059A1268D2681A4001EB12414E
:201F60000131029A1143059A1268039B02EBC312C2F888100499C968059A1268D2686FF3F1
:201F8000DF2211440904029105990968039A01EBC211D1F88C2002F47042C1F88C200499C1
:201FA0008968059A1268D2686FF3DF2211440131029A1143059A1268039B02EBC312C2F8D0
:201FC0008C1005990968039A01EBC211D1F8942022F00702C1F8942004990969059A1268CD
:201FE000039B02EBC312C2F89410049991F8311009020291049991F832100904019104997A
:2020000089690906009105990968039A01EBC211D1F89C20C1F89C00049991F83010029BE6
:202020001943019B1943009B1943059B1B68DDF80CC003EBCC13C3F89C1005990968039BB0
:2020400001EBC311D1F8983023F0FF03C1F8983004994969059B1B68DDF80CC003EBCC13B9
:20206000C3F8981005990968039B01EBC311D1F8A03040F2077C23EA0C03C1F8A030049900
:20208000CB69096A1943059B1B68DDF80CC003EBCC13C3F8A01005990968039B01EBC311D4
:2020A000D1F8AC30C1F8AC000498406A05990968DDF80CC001EBCC11C1F8AC0004980069ED
:2020C000002803D1FFE70420029023E004980069012803D1FFE7032002901AE004980069C9
:2020E00004280FD0FFE70498006902280AD0FFE704980069032805D0FFE7049800690728E1
:2021000003D1FFE70220029002E001200290FFE7FFE7FFE705980068039900EBC110D0F8E5
:20212000B01001F0E021C0F8B010049801684268806A029B5843511A5943033141EA0040FE
:2021400005990968039A01EBC211C1F8B00005980068039900EBC110D0F8B41040F2FF721F
:202160009143C0F8B4100498C06A05990968039A01EBC211C1F8B40005980068039900EBE5
:20218000C110D0F8841041F00101C0F8841006B0704700000000000080B582B00190019895
:2021A00000F06AFB002804D0FFE7019800F018F903E0019800F04CF9FFE702B080BD0000C8
:2021C00081B000900098807F01B070470000000081B000900098006801B070470000000016
:2021E00080B582B001900198017D009100F080FB009940EA410040F64801C2F2010151F852
:20220000200002B080BD000081B000900098807D01B070470000000081B0009000984068F0
:2022200001B070470000000081B000900098C07D01B070470000000081B0009000988068F7
:2022400001B070470000000081B000900098808901B070470000000080B582B001468DF819
:2022600006009DF80600009100F02AFB00280DD0FFE79DF8060047F2FC31C2F2010101EB89
:20228000401000F035FB8DF8070003E0FE208DF80700FFE79DF8070002B080BD0000000044
:2022A00080B590B00A460F90ADF83A100F98002181740F98C1740F980C30BDF83A1002232B
:2022C0000D921A460C93F7F7CBFC0F991531BDF83A20023292B201230B90084611461A4672
:2022E0000A93F7F7BDFC0F991631BDF83A20033292B20990084611460A9AF7F7B1FC0F99FE
:202300001431BDF83A20043292B20890084611460A9AF7F7A5FC0F991031BDF83A20053250
:2023200092B20790084611460C9AF7F799FC0F991731BDF83A20073292B20690084611463D
:202340000A9AF7F78DFC0F991831BDF83A20083292B20590084611460A9AF7F781FC0F99F3
:202360001931BDF83A20093292B20490084611460A9AF7F775FC0F991A31BDF83A200A320B
:2023800092B20390084611460A9AF7F769FC0F991B31BDF83A200B3292B20290084611460F
:2023A0000A9AF7F75DFC0F991C31BDF83A200C3292B20190084611460A9AF7F751FC0F99EF
:2023C0001D31BDF83A200D3292B20090084611460A9AF7F745FC10B080BD00000000000018
:2023E00080B582B001900198002181740198C07E042806DCFFE70198C07E002104F07CFE05
:2024000005E00198C07E002101F0B6F9FFE7019800F002F802B080BD81B00090009800216D
:20242000416001B07047000080B582B001900198C07D002804D0FFE701980021816003E065
:202440000198FFF7CDFFFFE702B080BD0000000080B582B001900198012181740198C07ECD
:20246000042806DCFFE70198C07E012104F044FE05E00198C07EFF2101F07EF9FFE7019876
:2024800000F042FA00280FD0FFE7F9F785FD00900098002803D1FFE701200090FFE7019877
:2024A000009900F011F9FFE702B080BD0000000081B0009000980021816001B070470000F1
:2024C00080B582B001900198C07D00280FD0FFE7F9F762FD0199886001988068002805D1F1
:2024E000FFE70198816801398160FFE703E00198FFF7AEFFFFE702B080BD0000000000007F
:2025000081B0009000980021817701B07047000081B0009000980021016001B0704700009E
:2025200081B000900098817CC17401B07047000080B590B00A460F90ADF83A100F980C3072
:20254000BDF83A1002230D921A460C93F7F7D0FB0F991531BDF83A20023292B201230B90CC
:20256000084611461A460A93F7F7C2FB0F991631BDF83A20033292B20990084611460A9AB5
:20258000F7F7B6FB0F991431BDF83A20043292B20890084611460A9AF7F7AAFB0F991031C9
:2025A000BDF83A20053292B20790084611460C9AF7F79EFB0F991731BDF83A20073292B2AC
:2025C0000690084611460A9AF7F792FB0F991831BDF83A20083292B20590084611460A9A45
:2025E000F7F786FB0F991931BDF83A20093292B20490084611460A9AF7F77AFB0F991A31B9
:20260000BDF83A200A3292B20390084611460A9AF7F76EFB0F991B31BDF83A200B3292B274
:202620000290084611460A9AF7F762FB0F991C31BDF83A200C3292B20190084611460A9A14
:20264000F7F756FB0F991D31BDF83A200D3292B20090084611460A9AF7F74AFB10B080BDAA
:2026600082B00A4601908DF803109DF80300652804DBFFE70198642181770FE09DF8030028
:20268000B0F1FF3F04DCFFE701980021817704E09DF8030001998877FFE7FFE702B0704799
:2026A00082B00190009100980199086002B0704782B00A4601908DF803109DF803000199E6
:2026C000887502B07047000082B00190009100980199486002B0704782B00A4601908DF865
:2026E00003109DF803000199C87502B07047000082B00A460190ADF80210BDF802000199D4
:20270000888102B07047000080B584B00A4603468DF80F008DF80E109DF80F000292019342
:2027200000F0CEF800281CD0FFE79DF80E0000280BD0FFE79DF80F0047F2FC31C2F201019D
:2027400001EB4010FFF784FE0AE09DF80F0047F2FC31C2F2010101EB4010FFF741FEFFE7C4
:20276000FFE79DF80F0047F2FC31C2F2010101EB401000F0BDF804B080BD000000000000E1
:2027800081B0009000980121417501B07047000081B0009000980021417501B07047000008
:2027A00082B00A4601908DF803109DF803000199C8749DF803000199887402B07047000069
:2027C00080B582B001900198FFF7FAFC002818BF012002B080BD000080B582B001900198DC
:2027E000FFF7F6FC002818BF012002B080BD000080B582B00190F9F7CFFB01994A68801A4A
:2028000000900846FFF700FD4EF6602148430021009A824228BF0121084602B080BD0000D2
:2028200080B582B00190F9F7B7FB01998A68801A00900846FFF7F8FC4EF66021484300219F
:20284000009A824228BF0121084602B080BD000080B582B00190019800F06EF801990090C3
:20286000084600F045F80099081A18BF012002B080BD00000000000081B000900098C07CA6
:20288000002818BF012001B0704700000000000081B000900098807EB0FA80F0400901B045
:2028A000704700000000000081B000900098807E0138B0FA80F0400901B070470000000006
:2028C00082B001468DF807009DF8070000220028009208D4FFE79DF8070000210628B8BF57
:2028E00001210091FFE7009800F0010002B0704781B000900098807C002818BF012001B027
:20290000704700000000000080B582B001900198FFF77AFC002818BF012002B080BD0000F4
:2029200080B582B001900198FFF776FC002818BF012002B080BD000081B000900098C07CFA
:20294000002818BF012001B0704700000000000080B582B001900198FFF76EFC002818BFFF
:20296000012002B080BD000081B000900098807E0238B0FA80F0400901B0704700000000EB
:2029800081B000900098407D002818BF012001B0704700000000000082B001900198007EBF
:2029A00000211728009108DCFFE70198407E00213C28B8BF01210091FFE7009800F00100E7
:2029C00002B070470000000080B584B003900398007E47F26461C2F2010109780290084664
:2029E000EEF782FD0021029A8242019112D1FFE70398407E47F26461C2F201014978009039
:202A00000846EEF771FD0099081AB0FA80F040090190FFE7019800F0010004B080BD000005
:202A200080B500F005F800F05BF880BD0000000080B582B047F2F830C2F2010000210170E5
:202A40008DF80710FFE79DF8070005281DDCFFE79DF8070047F2FC31C2F2010101EB401058
:202A6000FFF7F2FB002808D0FFE747F2F830C2F2010001780131017000E006E0FFE79DF81A
:202A8000070001308DF80700DDE702B080BD000080B582B000208DF80700FFE79DF807002A
:202AA000052819DCFFE79DF8070047F2FC31C2F2010101EB4011C0EBC000CF2202EB400090
:202AC000009008460099FFF7EBFBFFE79DF8070001308DF80700E1E7FFF7A2FF02B080BD16
:202AE00080B500F039F8012101EB900047F2BC41C2F20101087080BD47F2BC40C2F2010057
:202B0000007870470000000080B582B000208DF80700FFE79DF80700052819DCFFE79DF854
:202B2000070047F2FC31C2F2010101EB4011C0EBC000CF2202EB4000009008460099FFF73F
:202B4000F7FCFFE79DF8070001308DF80700E1E7FFF766FF02B080BD47F2F830C2F201001B
:202B6000007870470000000080B58CB0FAF708FF01208DF820000021C2F201010991112154
:202B80008DF8281003218DF82B1000228DF82F208DF82E008DF82D008DF821208DF82A20A4
:202BA0008DF829208DF82C2008AB07901846069105920493FAF79CFE07988DF82000022117
:202BC0008DF821104FF0104109911B228DF82820059A8DF829208DF82A208DF82B208DF87A
:202BE0002C008DF82D008DF82E208DF82F2004980391FAF77DFE07988DF8200006998DF84C
:202C00002110039A099217238DF82830059B8DF829308DF82A308DF82B108DF82C008DF8E1
:202C20002D008DF82E008DF82F300498FAF760FE07988DF8200004218DF821104FF0404205
:202C400009921C238DF82830059B8DF829308DF82A308DF82B308DF82C008DF82D008DF898
:202C60002E308DF82F30049802910192FAF740FE07988DF8200005218DF8211001990991CD
:202C800016228DF82820059A8DF829208DF82A20069B8DF82B308DF82C208DF82D008DF86A
:202CA0002E008DF82F200498FAF722FE0298FAF77BFE4FF0204043F2D20101600CB080BD60
:202CC00080B543F64400C4F20200016821F48061016040F60000C4F202000E21F8F7E0FDE1
:202CE00046F60870C2F20100F7F7E2FF80BD000080B58EB0FFE743F64400C4F20200016868
:202D000041F480610160006800F4806004900498FFE7FFE743F63000C4F20200016841F049
:202D200004010160006800F0040003900398FFE70E200590032006900021079140F6000250
:202D4000C4F2020205AB0290104601911946F8F7E7FE46F60870C2F2010042F20021C4F2E8
:202D6000010101604FF480314160019981600161816101624162C162C160029AC26101632F
:202D800001234361F7F7D4FF002805D0FFE7A4209721F7F75DF9FFE70B200A9001200B90A0
:202DA0000C9000200D9046F60870C2F201000AA9F7F756FE0EB080BD80B543F63000C4F20D
:202DC0000200016821F48051016046F65070C2F20100F8F7B5F980BD80B582B046F6507053
:202DE000C2F2010043F20001C4F2020101600021017141714161816101210162FFE743F661
:202E00003000C4F20200016841F480510160006800F4805001900198FFE746F65070C2F20E
:202E20000100F8F7C5F9002805D0FFE7A4209621F7F70EF9FFE702B080BD000000000000BC
:202E400080B540F20040C4F202004FF48051F8F727FD40F60000C4F202004FF48851F8F7F3
:202E60001FFD40F60040C4F2020040F69401F8F717FD41F60000C4F2020046F20801F8F71B
:202E80000FFD80BD0000000080B594B0FFE743F63000C4F20200016841F002010160006803
:202EA00000F002000E900E98FFE7FFE743F63000C4F20200016841F004010160006800F097
:202EC00004000D900D98FFE7FFE743F63000C4F20200016841F008010160006800F008005B
:202EE0000C900C98FFE7FFE743F63000C4F20200016841F040010160006800F040000B9036
:202F00000B98FFE740F20040C4F202004FF4805101220A9009910892F9F71AF840F60000C1
:202F2000C4F202004FF48071002207900692F9F70FF807980999069AF9F70AF840F6004014
:202F4000C4F2020004210590069AF9F701F810210598069AF8F7FCFF80210598069AF8F751
:202F6000F7FF4FF400610598089AF8F7F1FF41F60000C4F20200082104900391069AF8F7CA
:202F8000E7FF09980F9008991091069A119212920FAB0A9819460293F8F7C2FD4FF4E85069
:202FA0000F900898109006991191129107980299F8F7B6FD0A200F900698109011900221A7
:202FC00012910798029A01911146F8F7A9FD40F694000F900898109006991191129105986B
:202FE0000299F8F79DFD03980F9008991091069A1192129204980299F8F792FD4FF4C04052
:203000000F900698109011900199129104980299F8F786FD14B080BD80B543F64000C4F2E7
:203020000200016821F4000101600020C4F202004FF48071F8F734FC40F60000C4F2020095
:203040004FF40071F8F72CFC46F6B470C2F20100F8F7C2FF80BD000080B543F64000C4F23F
:203060000200016821F08071016040F60040C4F202004FF44051F8F713FC41F60000C4F295
:2030800002000421F8F70CFC47F20000C2F20100F8F7A2FF80BD000080B584B040F6216037
:2030A000C2F201000021017047F2F800C2F201004C22039002911146EDF7CAF847F2806039
:2030C000C2F201003821EDF7C3F847F2B860C2F20100029941610161C1608160416001609A
:2030E00041F20000CAF20000039A10601046FAF71FFF0221039A5160042191601021D16086
:20310000172111614FF480715161029991611162D16101901046FBF7F7F8009002F058F952
:2031200041F2883001F024FE04B080BD0000000080B547F24410C2F20100FCF7E5FE80BD16
:2031400080B588B00020079006900590049003900290019047F24411C2F2010142F6000258
:20316000C4F200020A6048607F228A60FF22CA600861486188610846FDF706F8002805D077
:20318000FFE7A4209321F6F763FFFFE747F24410C2F201000121FCF78FFE43F2F2218842A6
:2031A0002DD0FFE700208DF808008DF809008DF80A000690079047F24410C2F2010002A948
:2031C0000122FDF739F9002805D0FFE7A4209321F6F73EFFFFE703208DF8040001208DF8E9
:2031E00005008DF8060014208DF8070046F67850C2F20100016821F40041016024E047F269
:203200004410C2F2010002210090FCF755FE8DF8060003210098FCF74FFE8DF80500042176
:203220000098FCF749FE8DF8040005210098FCF743FE8DF8070046F67850C2F20100016893
:2032400041F400410160FFE747F24410C2F2010001A90122FDF728F8002805D0FFE7A420E7
:203260009321F6F7F5FEFFE7FFE747F24410C2F201000168CA224A62006853214162FFE746
:2032800047F24410C2F20100FDF7B2F9002805D0FFE7A4209321F6F7DBFEFFE747F24410B9
:2032A000C2F20100012143F2F222FCF719FE08B080BD00000000000080B543F64400C4F287
:2032C0000200016821F48031016041F20000C4F202002021F8F7E4FA47F26410C2F2010001
:2032E000FDF74AFB80BD000080B590B0FFE743F64400C4F20200016841F4803101600068B0
:2033000000F4803003900398FFE7FFE743F63000C4F20200016841F010010160006800F08A
:20332000100002900298FFE747F26410C2F2010044F20001C4F201010160C821416000210E
:2033400081604FF47A72C26001618161FDF748FB002805D0FFE7A4209421F6F779FEFFE71A
:203360006020099050200A9000200B900D9047F26411C2F2010109AA019008461146019AEA
:20338000FDF71EFA002805D0FFE7A4209421F6F75FFEFFE720200490022005900020069054
:2033A00007900321089141F20001C4F2020104AA009008461146F8F7B3FB47F26410C2F2EB
:2033C00001000099FDF748FB10B080BD0000000080B582B043F64400C4F20200016821F009
:2033E0001001016043F64000C4F20200016821F4003101600020C4F202004FF4B051F8F70F
:203400004FFA40F60040C4F202006021F8F748FA2520FAF7E9FA2620FAF7E6FA47F2A41066
:20342000C2F20100FDF750FB47F21421C2F2010101900846FDF748FB02B080BD000000006F
:2034400080B58AB0FFE743F64400C4F20200016841F010010160006800F01000049004983E
:20346000FFE7FFE743F63000C4F20200016841F001010160006800F0010003900398FFE7F5
:203480004FF4B0500590022006900020079003210891072109910021C4F2020105AA02904B
:2034A00008461146F8F73CFB47F2A410C2F2010041F20001C4F2010101604FF4E13141605C
:2034C0000C21416102990161C16081608161C16101624162029A029BFCF77EFC002805D071
:2034E000FFE7A4209221F6F7B3FDFFE72520012100220190FAF790FA0198FAF781FA0AB098
:2035000080BD00000000000080B503F0C5FA80BD704700000000000088B007900691059296
:20352000079800F0070004900498C0F10700052803D3FFE70420019004E00498C0F1070037
:203540000190FFE70198039004980430062803D8FFE70020009003E0049803380090FFE729
:203560000098029006980399012202FA01F10139084002998840059B02FA01F101391940D0
:20358000084308B07047000080B582B000208DF806008DF8070068460F21016047F200005B
:2035A000C2F2010090210DF106020223F8F7F4FE002807D0FFE740F65A00C2F2010000214E
:2035C0000170FFE70520F8F757F901208DF8060068460F21016047F20000C2F201009021A6
:2035E0000DF106020223F8F7D7FE002807D0FFE740F65A00C2F2010000210170FFE7022018
:20360000F8F73AF902B080BD80B596B006208DF8540000208DF85500FFE79DF855000F281E
:203620001CDCFFE79DF8540047F2C641C2F2010100220A549DF8540001308DF854009DF8C5
:2036400054000A549DF8540003308DF85400FFE79DF8550001308DF85500DEE708208DF876
:20366000540000208DF85500FFE79DF855000F2834DCFFE79DF8550047F2C651C2F201010F
:20368000085C0001ADF85600BDF85600B0F57A6F05DDFFE740F6FF70ADF85600FFE7BDF82E
:2036A00056009DF8541047F2C642C2F2010250549DF8540001308DF854009DF857009DF8AB
:2036C000541050549DF8540003308DF85400FFE79DF8550001308DF85500C6E706208DF8BA
:2036E0000E000DF10E00411C47F2C642C2F20102063240230290084611461A46ECF780FDC9
:203700004FF4967101900846F8F7B6F868460C21016047F20000C2F2010090214123029A08
:20372000F8F73AFE002803D0FFE703F0B5F9FFE716B080BD0000000080B582B006208DF8E5
:20374000070068460F21016047F20000C2F2010000210DF107020123F8F71EFE002807D0DF
:20376000FFE740F65A00C2F2010000210170FFE702B080BD0000000080B584B00A460346B5
:203780008DF80F008DF80E109DF80E009DF80F1047F2C65CC2F2010C614401F8010C029240
:2037A0000193FFF731FF04B080BD00000000000080B584B00146ADF80E0000208DF80C004A
:2037C00010208DF80D0068460F22026047F20000C2F20100902203AB4FF0020C0291114661
:2037E0001A466346F8F7D8FD002803D0FFE703F053F9FFE7BDF80E00000347F64001C0F200
:203800007D11B1FBF0F0013847F2C641C2F2010181F8FE00FE208DF80C0091F8FE008DF82D
:203820000D0068460F21016047F20000C2F20100902103AA0223F8F7AFFD002803D0FFE74F
:2038400003F02AF9FFE700208DF80C00A0208DF80D0068460F21016047F20000C2F201003C
:20386000902103AA0223F8F797FD002803D0FFE703F012F9FFE70520F7F7FEFF01208DF8C7
:203880000C0004208DF80D0068460F21016047F20000C2F20100902103AA0223F8F77CFD4E
:2038A000002803D0FFE703F0F7F8FFE704B080BD80B58AB0099000208DF823000998007A83
:2038C000012840F0BE85FFE7099801214172099840683D2869DBFFE709984068C72864DCA0
:2038E000FFE747F2D060C2F201000078032810D0FFE747F2D060C2F201000078042808D0C1
:20390000FFE747F2D060C2F20100007805284CD1FFE701208DF8230046F69640C2F201006B
:203920000021017046F69740C2F20100017046F69840C2F2010001700998006801280CDB69
:20394000FFE7099800689F2807DCFFE746F69640C2F201000121017026E009980068A128B6
:203960000DDBFFE709980068B0F5A07F07DAFFE746F69740C2F201000121017013E00998F6
:203980000068B0F5A07F0DDDFFE709980068B0F5F07F07DAFFE746F69840C2F2010001215C
:2039A0000170FFE7FFE7FFE7FFE709980068B0F5C87F61DDFFE7099840683B285CDCFFE71B
:2039C00047F2D060C2F201000078032818DBFFE747F2D060C2F201000078062810D0FFE7C3
:2039E00047F2D060C2F2010000780F2844DBFFE747F2D060C2F20100007811283CD0FFE734
:203A000001208DF8230047F2D060C2F201000078012807DCFFE747F2D060C2F20100022114
:203A2000017027E047F2D060C2F201000078022818D0FFE747F2D060C2F2010000780628BC
:203A400010D0FFE747F2D060C2F2010000780F280FDBFFE747F2D060C2F201000078112834
:203A600007D0FFE747F2D060C2F2010007210170FFE7FFE700F0BEBC47F2D060C2F201007E
:203A80000078022875D1FFE709980068B0F5C87F48DAFFE70998406887281ADCFFE70998E6
:203AA0000068BD280DDCFFE747F2D060C2F201000F21017040F65B00C2F201000121017052
:203AC00006E047F2D060C2F2010006210170FFE727E009980068BD280FDCFFE747F2D06035
:203AE000C2F2010010210170EDF702FF40F65B00C2F201000121017012E047F2D060C2F2A2
:203B000001001321017047F2E650C2F201000221017040F65B00C2F2010001210170FFE788
:203B2000FFE718E009984068A02813DBFFE740F65B00C2F201000121017047F2C040C2F2FC
:203B400001000021017047F2D060C2F2010012210170FFE7FFE747F2D060C2F201000078AE
:203B6000022804D0FFE701208DF82300FFE700F040BC0998006801282BDBFFE7099800689F
:203B8000772826DCFFE709984068C92821DBFFE709984068B0F5887F1BDAFFE747F2D06049
:203BA000C2F201000078042808D0FFE747F2D060C2F20100007805280BD1FFE701208DF8C3
:203BC000230047F2D060C2F201000321017000F00FBC0998006879282ADBFFE709980068B6
:203BE000EF2825DCFFE709984068C92820DBFFE709984068B0F5887F1ADAFFE747F2D06074
:203C0000C2F201000078032808D0FFE747F2D060C2F20100007805280AD1FFE701208DF864
:203C2000230047F2D060C2F2010004210170DEE309980068F1282BDBFFE709984068C928A4
:203C400026DBFFE709980068B0F5B47F20DAFFE709984068B0F5887F1ADAFFE747F2D06084
:203C6000C2F201000078032808D0FFE747F2D060C2F20100007804280AD1FFE701208DF805
:203C8000230047F2D060C2F2010005210170ADE309980068B0F5B47F33DDFFE7099840689C
:203CA000C9282EDBFFE709980068B0F5F07F28DAFFE709984068B0F5887F22DAFFE747F20F
:203CC000D060C2F201000078032810D0FFE747F2D060C2F201000078042808D0FFE747F2DD
:203CE000D060C2F20100007805280AD1FFE701208DF8230047F2D060C2F2010007210170F9
:203D000073E347F2D060C2F201000078062866D1FFE709980068C9281ADBFFE7099840684E
:203D20005B2815DBFFE709980068B0F5A07F0FDAFFE709984068B0F5867F09DCFFE70120AF
:203D40008DF8230046F68D41C2F20101087045E009980068012819DBFFE7099840685B2886
:203D600014DBFFE70998006877280FDCFFE709984068B0F5867F09DCFFE701208DF823006E
:203D800046F68C41C2F20101087026E009980068B0F5C87F20DDFFE70998406897281BDB10
:203DA000FFE709984068BD2816DCFFE701208DF82300F8F7F1F847F68461C2F20101086036
:203DC0000868002807D1FFE747F68460C2F2010001210160FFE7FFE7FFE7FFE704E347F27C
:203DE000D060C2F2010000780F2840F0BC80FFE740F65800C2F2010006210170FEF77CFE93
:203E000056210128C8BF0A2107914FF000008DF81B008DF81A00FFE79DF81A000290FEF71E
:203E20006BFE0299814280F29D80FFE7FEF794FE8DF81900FEF790FE04281DDBFFE7FEF79F
:203E40008BFE042804D1FFE702208DF8190012E0FEF782FE052809D1FFE79DF81A0003210B
:203E60000028C8BF02218DF8191003E003208DF81900FFE7FFE7FFE79DF8190000EB800152
:203E80004FF4C872A2EB0111013091FBF0F08DF8180000208DF81700FFE79DF817009DF8E9
:203EA000191088424DDAFFE79DF818009DF817109DF81920B1FBF2F303FB12114A1C504320
:203EC00001EB810100EB0110049009980068049988422FDDFFE70998006804995031884291
:203EE00028DAFFE7099840680799884222DDFFE7099840680799783188421BDAFFE70120EA
:203F00008DF823009DF81B009DF81710084440F65801C2F201010870F8F73EF847F2D02135
:203F2000C2F20101086040F61C60C2F201000021016006E0FFE79DF8170001308DF8170035
:203F4000ABE79DF819009DF81B1008448DF81B00079882300790FFE79DF81A0001308DF842
:203F60001A0059E73FE247F2D060C2F201000078102840F09180FFE709980068B0F5C87FDC
:203F800080F28980FFE70998006840F61901C2F201010978C822A2EB5101884234DDFFE7A6
:203FA0000998006840F61901C2F201010978C82202EB5101884227DAFFE7EDF705FD002889
:203FC0000AD0FFE70998406802218828B8BF01210846EDF775FE13E0EDF70AFD00EB4000BE
:203FE00046F6A041C2F2010101EB80000999496802228829B8BF01221146EDF71DFCFFE786
:2040000001208DF8230045E009984068C12840DBFFE709980068B0F5A07F19DDFFE7EDF7F2
:20402000D3FC002804D0FFE70020EDF78DFC06E0EDF7DEFC0130C0B2EDF786FCFFE740F679
:204040005B00C2F20100012101708DF823101FE0099800684F281ADCFFE7EDF7C9FC0028D9
:2040600005D1FFE7EDF7F0FEEDF76EFC06E0EDF7BFFC0138C0B2EDF767FCFFE740F65B0076
:20408000C2F20100012101708DF82310FFE7FFE7FFE7FFE7FFE7A5E147F2D060C2F20100FE
:2040A000007812284AD1FFE709980068B0F5C87F2ADAFFE709984068752824DBFFE7099802
:2040C0004068D7281FDCFFE709980068BD2812DCFFE747F2D060C2F201001321017047F29A
:2040E000E650C2F201000121017040F65B00C2F20100017006E047F2D060C2F201000B215B
:204100000170FFE7FFE718E009984068A02813DBFFE747F2D060C2F201000221017047F29A
:20412000C040C2F201000021017040F65B00C2F2010001210170FFE7FFE752E147F2D060F7
:20414000C2F20100007814284DD1FFE709984068B32819DCFFE740F65800C2F20100007838
:2041600047F2FC31C2F2010101EB401009990A684968019010460EF01FF9019900900846AD
:204180000099FEF78DFA27E040F65800C2F20100007847F2FC31C2F2010101EB401009994E
:2041A0000968143900EE101AB8EEC00A41F61431C0F60501098801EE101AB8EE411A80EE68
:2041C000010A9FEDCF1A20EE010ABDEEC00A10EE101AFEF745FAFFE740F65B00C2F2010049
:2041E00001210170FCE0099800686528C0F2F780FFE7099840686528C0F2F180FFE709982B
:204200000068B0F5C87F80F2EA80FFE709984068B0F5887F80F2E380FFE747F2D060C2F2BB
:2042200001000078002840F0DA80FFE746F68640C2F201000078002813D0FFE746F686404B
:20424000C2F201000078002800F0C880FFE746F67850C2F2010080788007002800F1BE805C
:20426000FFE700208DF80F0001218DF8231047F2D062C2F2010211708DF80E00FFE79DF819
:204280000E00052825DCFFE79DF80E0047F2FC31C2F2010101EB4010FEF772FB002811D096
:2042A000FFE79DF80E0047F2FC31C2F2010101EB4010FEF7E1FA002804D0FFE701208DF8C5
:2042C0000F0006E0FFE79DF80E0001308DF80E00D5E79DF80F00002837D0FFE740F6206071
:2042E000C2F20100007800282FD0FFE740F61C60C2F201000068002827D1FFE747F26460B2
:20430000C2F201000078EDF7EFF807280ADBFFE747F26460C2F201000078EDF7E5F8142884
:2043200013DBFFE7F7F738FE40F61C61C2F2010108600868002807D1FFE740F61C60C2F2F8
:20434000010001210160FFE747E040F61C60C2F20100002101609DF80F00002803D0FFE75E
:2043600005F092FFFFE700208DF80D00FFE79DF80D00052830DCFFE79DF80D0047F2FC3170
:20438000C2F2010101EB4010FEF7FAFA00281CD0FFE79DF80F0000280BD0FFE79DF80D0019
:2043A00047F2FC31C2F2010101EB4010FEF718F80AE09DF80D0047F2FC31C2F2010101EB0C
:2043C0004010FEF745F8FFE7FFE7FFE79DF80D0001308DF80D00CAE7FFE7FFE7FFE7FFE7FB
:2043E000FFE7FFE7FFE7FFE7FFE7FFE7FFE7FFE7FFE7FFE709980068B0F5BE7F17DDFFE7FC
:2044000009984068062812DBFFE709980068B0F5ED7F0CDCFFE709984068632807DCFFE7CD
:2044200046F68E40C2F2010001210170FFE79DF82300002804D0FFE70120F7F71DFAFFE79E
:2044400059E047F2D060C2F201000078012807D1FFE747F2D060C2F201000021017025E0F1
:2044600047F2D060C2F2010000780F281DD1FFE747F2D020C2F201000068002814D0FFE763
:2044800047F2D020C2F201000021016040F65800C2F20100007847F2FC31C2F2010101EBF9
:2044A0004010FDF779FEFFE7FFE7FFE746F68E40C2F201000021017046F68C40C2F2010081
:2044C000017046F68D40C2F20100017046F69640C2F20100017046F69740C2F201000170CB
:2044E00046F69840C2F20100017047F68460C2F201000160FFE7EDF737FD0AB080BD00BF97
:204500000000C8420000000080B5ADF5027D4FF24240C1F6F07000886B90FFE743F644007B
:20452000C4F20200016841F480710160006800F4807066906698FFE746F6C060C2F201009C
:2045400042F20001C4F2010101604FF480314160002181600161816101624162C162C160E8
:204560000122C26101634261F6F7E2FB002805D0FFE7A4209721F5F76BFDFFE71220C1F2A6
:2045800000006790012068900721699146F6C062C2F2010267AB659010466491194663922E
:2045A0006293F6F75DFA42F20431C4F201010A6842F400020A6063990A68936843F00103ED
:2045C000936061900846F6F7A3FC0A21639A609010465F91F6F70CFC63995E900846F6F7A5
:2045E0009FFB71904FF24E40C1F6F07000884FF24C41C1F6F0710A88801A5D91EBF7D8FFF9
:2046000041EC100B51EC100B9FED950B53EC102BEBF75FFF41EC100B51EC100BECF718F881
:204620006E909DED711AB8EEC11A40F2A470C2F2010090ED002A5D98018803EE101AB8EE05
:20464000C33A11EE023A9DED6E1A83EE011AB3EE0E2A31EE021A8DED6D1A11216791659947
:204660006891649A699263986299F6F7F9F963995C900846F6F74CFC63995B9008465F99DB
:20468000F6F7B6FB63995A900846F6F749FBADF8BE016398F6F70CFBBDF8BE1101EE101A27
:2046A000B8EE411A9FED702A82EE011A8DED6C1A5990F7F779FC7090FFE7709842F2117158
:2046C00088420CDBFFE7709846F26761C6F2666150FB01F0811001EBD0707090EDE77098E7
:2046E000F7F7CAF8002058900BF090FF5899579008460BF0A5FF0AF098FB01200BF086FF85
:204700004FF07F41569008460BF098FF0AF08DFB0AF09CFF42F2D031C0F6050172AA5590CB
:2047200010465492EBF7B3FD549953900846EBF79AFD82B247F2A410C2F201002D2152900E
:20474000549B51911946519BFCF7F6FB45F6FC71C0F60301509008460BF080FF6FF07F4130
:204760004F9008460BF06CFF02200BF0D7FF0C214E9008464D910BF0C7FF42F2D531C0F6CB
:204780000501549A4C9010464B91EBF780FD28210A224A900846499111460BF0DBF854992F
:2047A000489008460AF09EFC5498EBF75CFD82B252985499519BFCF7BFFB42F24151C0F6F8
:2047C0000501549A47901046EBF761FD1921499A469010460BF0BEF84D99459008460BF07A
:2047E00093FF5499449008460AF07CFC5498EBF73AFD82B252985499519BFCF79DFB549932
:20480000439008464B99EBF742FD4999429008460BF0A0F84D99419008460BF075FF54997C
:20482000409008460AF05EFC5498EBF71CFD82B252985499519BFCF77FFB6B99B1F5806F22
:2048400014D3FFE76B98800A6B906B9A42F22441C0F6050172A81DF059FE10E000BF00BFBD
:204860000000000000005440002A93456B9A42F21041C0F6050172A81DF048FEFFE72820C1
:2048800037213F900BF066F80C213E9008463D910BF03AFF72A93C9008463B910AF022FC34
:2048A0003B98EBF7E0FC82B247F2A410C2F201002D213A903B9B39911946399BFCF73CFB7C
:2048C0003890FAF7C1FE4DF68361C4F21B31A0FB01018A0C42F26251C0F605013B9B3790C4
:2048E00018461DF013FE46213F9A369010460BF031F83D99359008460BF006FF3B9934903B
:2049000008460AF0EFFB3B98EBF7ADFC82B23A983B99399BFCF710FB6C9933900846EBF763
:2049200084FE41EC100B53EC102B42F25441C0F605013B981DF0EAFD55213F9A3290104680
:204940000BF008F83D99319008460BF0DDFE3B99309008460AF0C6FB3B98EBF784FC82B29B
:204960003A983B99399BFCF7E7FA6D992F900846EBF75BFE41EC100B53EC102B42F238412C
:20498000C0F605013B981DF0C1FD64213F9A2E9010460AF0DFFF3D992D9008460BF0B4FEE5
:2049A0003B992C9008460AF09DFB3B98EBF75BFC82B23A983B99399BFCF7BEFA2B90F7F779
:2049C000E3FA42F2A941C0F605013B9A2A9010462A9A1DF09BFD73213F9A299010460AF05C
:2049E000B9FF3D99289008460BF08EFE3B99279008460AF077FB3B98EBF735FC82B23A986B
:204A00003B99399BFCF798FA2690F7F7CDFA2590F7F7D2FA2490F7F7D7FA6946086042F2D1
:204A20002B51C0F605013B98259A249B1DF06EFD82213F9A239010460AF08CFF3D992290E3
:204A400008460BF061FE3B99219008460AF04AFB3B98EBF708FC82B23A983B99399BFCF742
:204A60006BFA42F20801C0F60001096821F07F4242F28C41C0F605013B9B209018461DF0EC
:204A800045FD91213F9A1F9010460AF063FF3D991E9008460BF038FE3B991D9008460AF01C
:204AA00021FB3B98EBF7DFFB82B23A983B99399BFCF742FA42F20801C0F60101096821F0F7
:204AC0007F4242F27341C0F605013B9B1C9018461DF01CFDA0213F9A1B9010460AF03AFF9D
:204AE0003D991A9008460BF00FFE3B99199008460AF0F8FA3B98EBF7B6FB82B23A983B99E9
:204B0000399BFCF719FA47F68361C2F201010A7842F2B941C0F605013B9B189018461DF08F
:204B2000F5FCAF213F9A179010460AF013FF3D99169008460BF0E8FD3B99159008460AF067
:204B4000D1FA3B98EBF78FFB82B23A983B99399BFCF7F2F947F68161C2F201010A7842F234
:204B6000D741C0F605013B9B149018461DF0CEFCBE213F9A139010460AF0ECFE3D991290A5
:204B800008460BF0C1FD3B99119008460AF0AAFA3B98EBF768FB82B23A983B99399BFCF7F4
:204BA000CBF947F68061C2F201010A7842F2F141C0F605013B9B109018461DF0A7FCCD2147
:204BC0003F9A0F9010460AF0C5FE3D990E9008460BF09AFD3B990D9008460AF083FA3B98ED
:204BE000EBF741FB82B23A983B99399BFCF7A4F947F68261C2F201010A7842F20F51C0F6B7
:204C000005013B9B0C9018461DF080FCDC213F9A0B9010460AF09EFE3D990A9008460BF01F
:204C200073FD3B99099008460AF05CFA3B98EBF71AFB82B23A983B99399BFCF77DF942F2E4
:204C40009831C0F605013B9A08901046EBF71FFBEB213F9A079010460AF07CFE3D9906905E
:204C600008460BF051FD3B99059008460AF03AFA0AF0ECFC3B9904900846EBF7F4FA82B21C
:204C80003A983B99399BFCF757F947F24B61C2F2010101223A9B03901846FCF78DF80290C9
:204CA000EDF762F900207090FFE77098092809DCFFE74FF47A70F6F7DFFDFFE77098013096
:204CC0007090F2E70DF5027D80BD00000000000081B001468DF803009DF8030047F2E75233
:204CE000C2F20102322310FB0320323801B0704780B584B002468DF80F00029102980192A3
:204D000000F02AF8002812D0FFE79DF80F0047F2E751C2F20101322210FB02103238029A4F
:204D200042F28731C0F605011DF0F0FBFFE704B080BD00000000000081B001468DF80300FC
:204D40009DF8030000223228B8BF0122104601B0704700000000000080B582B00190019856
:204D6000EBF781FAC0B2FFF7E7FF02B080BD000080B584B0029047F28060C2F201004FF48D
:204D800080718161052101600021C16101624FF0807242624161C1620163416347F2B8621E
:204DA000C2F201021160012353601161D360102191604FF480015161029B47F2F801C2F234
:204DC0000101019008460199F8F77EFF002804D0FFE701208DF80F0003E000208DF80F00BE
:204DE000FFE79DF80F0004B080BD00000000000080B583B00290019100920198406A0028AF
:204E00000CD0FFE70098B0F1406F07D0FFE70198806A0138029909680861FFE70198806992
:204E2000002800F0AB80FFE70198006A002856D0FFE70198806802990968C8610198C0699A
:204E400000282DD0FFE70198C16A026B1143426B1143426A11430268C368D0F810C0D0F8CC
:204E600014E041EA8E4141EA0C01D0F820C041EA0C011943C3691943806908431043009928
:204E800008430299096848610098B0F1406F06D0FFE701984068029909688861FFE71DE055
:204EA0000198C16A026B1143426B1143426A114302680369D0F814C0D0F818E041EA8C4142
:204EC0001943036A1943C069084340EA0E00104300990843029909684861FFE74DE0019869
:204EE000C06900282BD0FFE70198C16A026B1143426B1143426A11430268C368D0F814C0C9
:204F0000D0F818E041EA8C41D0F820C041EA0C011943C069084340EA0E00104300990843BA
:204F20000299096848610098B0F1406F06D0FFE701984068029909688861FFE71CE0019867
:204F4000C16A026B1143426B1143426A114302684369D0F818C0D0F81CE041EA8341006A91
:204F6000084340EA0E0040EA0C00104300990843029909684861FFE7FFE7A3E00198006A3A
:204F8000002851D0FFE70198806802990968C8610198C069002829D0FFE70198C16A026B32
:204FA0001143426B1143426A1143C2680369D0F814C0D0F818E041EA8C411943036A19438D
:204FC0001143C069084340EA0E00009908430299096848610098B0F1406F06D0FFE70198FB
:204FE0004068029909688861FFE71CE00198C16A026B1143426B1143426A11430269436995
:20500000D0F818C0D0F81CE041EA83411143006A084340EA0E0040EA0C0000990843029947
:2050200009684861FFE74CE00198C069002828D0FFE70198C16A026B1143426B1143426A4A
:205040001143C2684369D0F818C0D0F81CE041EA8341006A0843104340EA0E0040EA0C005D
:20506000009908430299096848610098B0F1406F06D0FFE701984068029909688861FFE7D7
:205080001EE00198406A002819D0FFE70198C16A026B1143426B1143426A114342698369BB
:2050A000D0F81CC0006A41EA8241084340EA0C00184300990843029909684861FFE7FFE7B3
:2050C000FFE7FFE703B080BD80B582B001900198806B00900098002181630098C162009818
:2050E00090F84100082811D1FFE7009800680221C16000980068016841F4003101600098E3
:205100000068016841F00201016007E00098012180F841100098F8F747FFFFE702B080BD1D
:2051200080B588B047F28060C2F201004FF480718161852101600021C16101624FF0807240
:2051400042624161C162016341630121816247F2F801C2F2010141F2883202900846029989
:20516000F8F75AFE002804D0FFE701208DF817006AE047F2F800C2F201000DF10F0141F2D8
:205180008832F9F70DFB002804D0FFE701208DF8170059E000F00CFB002804D0FFE701208B
:2051A0008DF8170050E09DF80F00049047F28060C2F2010081210160049820F0F0004FF03F
:2051C0007061069106990029019004D1FFE720208DF81F0005E00698B0FA80F08DF81F002E
:2051E000FFE79DF81F000A2101FA00F001990843049004988DF80F0047F2F800C2F2010070
:2052000047F28061C2F2010141F28832F8F704FE002804D0FFE701208DF8170014E047F214
:20522000F800C2F201000DF10F0141F28832F9F783FB002804D0FFE701208DF8170003E0D6
:2052400000208DF81700FFE79DF8170008B080BD80B584B002900191BDF80A00000400902B
:20526000FFE70098019988420FD8FFE7009800F017F8002804D0FFE701208DF80F0008E069
:20528000009800F580300090EBE700208DF80F00FFE79DF80F0004B080BD00000000000040
:2052A00080B590B00E904FF480700690D82000904FF4806007904FF4005003900E9820F0F4
:2052C0007040019000200890099005900B900C900D9000F06DFA002804D0FFE701208DF8F4
:2052E0003F001EE047F2F800C2F20100694641F28832F8F791FD002804D0FFE701208DF8EA
:205300003F000EE040F6B830FFF732FD002804D0FFE701208DF83F0003E000208DF83F008F
:20532000FFE79DF83F0010B080BD00000000000080B584B040F62160C2F201000078002841
:205340003ED1FFE7FFF7ECFE002804D0FFE701208DF80F0038E047F28060C2F201004FF4B8
:20536000807181614FF40051C160002101620161C162016341634FF44062C26141604FF0AC
:20538000407242628162EB2202600A224261029147F2F801C2F2010101AA009008460099F9
:2053A000F9F752F8002804D0FFE701208DF80F000AE040F62160C2F2010001210170FFE74D
:2053C00000208DF80F00FFE79DF80F0004B080BDFFE747F2F800C2F20100006880688006FC
:2053E000002801D5FFE7F4E747F2F800C2F20100016842F266124A61016800228A61016869
:20540000CA6100680261BFF34F8FFFE747F2F800C2F20100006880688006002801D5FFE780
:20542000F4E747F2F800C2F20100016842F299124A61016800228A610168CA6100680261E3
:20544000BFF34F8FFFE747F2F800C2F20100006880688006002801D5FFE7F4E747F2F8002A
:20546000C2F20100016842F266224A61016800228A610168CA6100680261BFF34F8FFFE75C
:2054800047F2F800C2F20100006880688006002801D5FFE7F4E747F2F800C2F20100016842
:2054A00042F299224A61016800228A610168CA6100680261BFF34F8FFFE747F2F800C2F222
:2054C0000100006880688006002801D5FFE7F4E747F2F800C2F20100016842F266324A6170
:2054E000016800228A610168CA6100680261BFF34F8FFFE747F2F800C2F20100006880682B
:205500008006002801D5FFE7F4E747F2F800C2F20100016842F299324A61016800228A61D7
:205520000168CA6100680261BFF34F8F7047000080B586B0DDF820C09646049003918DF81C
:205540000B200193FFE704980068806803990840002818BF01209DF80B10884220D0FFE766
:205560000898013000281AD0FFE70898002808D0FFE7F6F711FD0199401A089988420DD99C
:20558000FFE70498042180F841100498416C41F00101416401208DF8170005E0FFE7D2E739
:2055A00000208DF81700FFE79DF8170006B080BD80B58CB00A90099108920020079006901E
:2055C00005900490039002909DF8240005900598C0F5807004900898000A07909DF8200063
:2055E00006900598002847D1FFE7079800280FD1FFE708980290099802990A9A00F034F996
:20560000002804D0FFE701208DF82F00CBE032E0FFE70798411E0791002818D0FFE74FF461
:2056200080700290099802990A9A00F01DF9002804D0FFE701208DF82F00B4E0099800F521
:20564000807009900A9800F580700A90E1E706980290029800280DD0FFE7099802990A9A43
:2056600000F002F9002804D0FFE701208DF82F0099E0FFE7FFE792E0079800283BD1FFE718
:2056800006980499884226D9FFE706980499401A039004980290099802990A9A00F0E4F81E
:2056A0000499099A1144099104990A9A11440A91039902910999029A0A9B01900846114642
:2056C0001A4600F0D1F8002804D0FFE701208DF82F0068E00EE008980290099802990A9AB2
:2056E00000F0C2F8002804D0FFE701208DF82F0059E0FFE752E004980899081A0890089861
:20570000000A07909DF82000069004980290099802990A9A00F0A8F8002804D0FFE70120FC
:205720008DF82F003FE0049809990844099004980A9908440A90FFE70798411E07910028AA
:2057400018D0FFE74FF480700290099802990A9A00F08AF8002804D0FFE701208DF82F00AD
:2057600021E0099800F5807009900A9800F580700A90E1E7069800280FD0FFE70698029065
:20578000099802990A9A00F06FF8002804D0FFE701208DF82F0006E0FFE7FFE7FFE7002063
:2057A0008DF82F00FFE79DF82F000CB080BD000080B584B047F28060C2F201004FF4807127
:2057C0008161062101600021C161016241624161C1620163416347F2F801C2F2010141F22E
:2057E0008832029008460299F8F716FB002804D0FFE701208DF80F0030E047F2B860C2F2C8
:205800000100022101604160002101610121C160102282604FF48002426147F28062C2F251
:205820000102052313604FF080735362916247F2F801C2F2010141F28833019008461146E4
:20584000019AF8F741FA002804D0FFE701208DF80F0003E000208DF80F00FFE79DF80F00CB
:2058600004B080BD0000000080B592B010900F910E924FF480700690122000904FF4406072
:2058800007904FF400500390109820F070400190002008904FF04071099105900F990A9138
:2058A0000B900C900D90FFF783FF002804D0FFE701208DF847002EE047F2F800C2F20100D9
:2058C000694641F28832F8F7A7FA002804D0FFE701208DF847001EE00E9947F2F800C2F243
:2058E000010041F28832F9F727F8002804D0FFE701208DF847000EE041F28830FFF738FADB
:20590000002804D0FFE701208DF8470003E000208DF84700FFE79DF8470012B080BD000028
:2059200080B547F2F800C2F20100F8F745FB80BD80B5A6B00DF1020000219222F4F790F90C
:205940009DF80C1047F2BD42C2F2010211709DF80D1047F24C02C2F2010211709DF80E1002
:2059600047F2D862C2F2010211709DF80F1047F2D362C2F2010211709DF8101047F2D26200
:20598000C2F2010211709DF8111047F2D162C2F2010211709DF81210012909D1FFE746F698
:2059A0007850C2F20100016841F48021016008E046F67850C2F20100016821F480210160A9
:2059C000FFE79DF8130047F25871C2F2010108709DF8220047F68361C2F2010108709DF86E
:2059E000230047F68161C2F2010108709DF8240047F68061C2F2010108709DF8250047F63B
:205A00008261C2F201010870DDF8260000BA47F67C61C2F2010108609DF82A009DF82B10F9
:205A200041EA002047F25A71C2F20101088047F24C00C2F201000078002807D1FFE747F208
:205A40004C00C2F2010001210170FFE747F2BD40C2F20100007847F24C01C2F201010978AC
:205A600088420BDBFFE747F24C00C2F20100007847F2BD41C2F201010870FFE747F2D86022
:205A8000C2F201000078002807D1FFE747F2D860C2F2010001210170FFE747F2D360C2F234
:205AA00001000078182807DBFFE747F2D360C2F2010000210170FFE747F2D260C2F20100AC
:205AC0000078182807DBFFE747F2D260C2F2010000210170FFE747F2D160C2F20100007817
:205AE0001C2807D3FFE747F2D160C2F2010000210170FFE726B080BD80B584B00146ADF8A3
:205B00000E00BDF80E0000EE100AB8EEC00A9FED301A31EE400A81EE000ABFEE001A30EE9F
:205B2000010A9FED2C1A20EE010A8DED010A9DED010A80EE010A10EE100A0091EAF775FDE0
:205B400041EC100B1CF074FD51EC100B9FED180B53EC102BEAF74BFC41EC100B51EC100B37
:205B60009FED150B53EC102BEAF79AFB41EC100B53EC102B9FED120B51EC100BEAF7A9FC40
:205B800041EC100B51EC100B9FED0F0B53EC102BEAF786FB41EC100B51EC100BEAF758FD0D
:205BA00002909DED020A04B080BD00BF00BF00BF000000A099A17240000000000012AF4002
:205BC000000000C007173241000000A0991171C000F07F4500401C4680B547F2A410C2F2CD
:205BE0000100016801220A62016802220A62016804220A62016810220A62006808210162BD
:205C0000FFE747F2A410C2F2010001688A6942F008028A610068816941F010018161FFE71D
:205C200047F2A410C2F201000021C16647F24B61C2F201010122FBF7BFF880BD00000000D6
:205C400080B584B047F21070C2F2010000214160018147F28420C2F201000078C007002830
:205C600029D1FFE747F28C70C2F201000121039002F07EFA47F28421C2F2010108704AF2F3
:205C80009131C0F60001039801F0E2FE49F2C962C0F601022C21039B0290184601F070FFC5
:205CA00049F2F172C0F601022B21039B0190184601F066FFFFE747F2A410C2F2010047F29D
:205CC0004B61C2F201010122FBF776F804B080BD80B582B047F24B60C2F20100017847F23C
:205CE0008C72C2F201020190104601F04DFD47F2A410C2F2010001220199FBF75DF802B075
:205D000080BD00000000000080B59AB047F25460C2F201000078C00700282AD0FFE7F6F7F1
:205D20003BF947F25861C2F20101096841F28832114488421BD9FFE747F28C70C2F2010046
:205D4000022102F089FA47F25461C2F201010A6822F001020A6047F6BC61C2F201010022E4
:205D60000A6046F68841C2F201010A60FFE700F006BDF6F711F946F67C51C2F201010968D4
:205D8000401A3228C0F0FA84FFE746F69540C2F201000078002800F07280FFE746F69540FC
:205DA000C2F201000078A13801463528169100F25E801699DFE801F0395B5B5B5B5B5B5BA5
:205DC0005B5B5B475B5B5B5B5B5B5B5B5B5B5B5B2B1B5B5B5B5B5B285B5B5B5B5B5B5B5B1A
:205DE0005B5B5B5B5B5B5B5B5B5B5B5B5B5A01208DF867000DF1670190221590084611463B
:205E0000159AF3F775FFFFE700F046FE2FE0FDF743F94FF010406FF0DE41FFF719FA149062
:205E2000FDF73AF9FFF784FA21E0FEF76DFB47F2A410C2F2010047F24B61C2F20101012209
:205E4000FAF7BAFF13E047F68860C2F20100C17847F25D72C2F2010211704088507047F291
:205E60007D70C2F201000221017000E0FFE746F69540C2F201000021017000F07EBC05F0AF
:205E80003FFE002808D0FFE747F21070C2F201004068002846D0FFE747F21070C2F2010037
:205EA0004068002810D0FFE747F28C70C2F2010047F21071C2F2010141F62922C0F60102B7
:205EC000322302F081F918E047F25670C2F20100037868463221416041F62921C0F60101FF
:205EE000016047F28C70C2F2010047F22472C2F20102302102F07CF9FFE747F21070C2F2C6
:205F0000010000214160018147F25670C2F20100017047F22470C2F20100322206F070FBE0
:205F200000F02ABC47F68860C2F20100C07DC007002800F0B680FFE747F68860C2F201009F
:205F4000407EC007002800F0AC80FFE747F68860C2F20100817D47F25672C2F20102137877
:205F600003F1010C82F800C047F2247CC2F2010C0CF80310C17D01F00101137803F1010E76
:205F800082F800E00CF803100178137803F1010E82F800E00CF803104178137803F1010ED1
:205FA00082F800E00CF80310C178137803F1010E82F800E00CF803104188137803F1010EE1
:205FC00082F800E00CF80310817A137803F1010E82F800E00CF80310417B137803F1010E0C
:205FE00082F800E00CF80310017B137803F1010E82F800E00CF80310C17A137803F1010EEC
:2060000082F800E00CF80310C17B137803F1010E82F800E00CF80310417C137803F1010E89
:2060200082F800E00CF80310817C137803F1010E82F800E00CF80310017C137803F1010EE8
:2060400082F800E00CF80310817B137803F1010E82F800E00CF80310C17C137803F1010E09
:2060600082F800E00CF80310017D137803F1010E82F800E00CF80310417D137803F1010EE6
:2060800082F800E00CF8031047F21071C2F20101C1F804C012780A812B228A70002141766E
:2060A00069E347F68860C2F20100C07DC00700285CD0FFE747F68860C2F20100007EC0075D
:2060C000002853D0FFE747F68860C2F20100817D47F25672C2F20102137803F1010C82F8F9
:2060E00000C047F2247CC2F2010C0CF80310C17D01F00101137803F1010E82F800E00CF812
:2061000003100178137803F1010E82F800E00CF803104178137803F1010E82F800E00CF84F
:206120000310C178137803F1010E82F800E00CF803104188137803F1010E82F800E00CF85F
:206140000310817A137803F1010E82F800E00CF8031047F21071C2F20101C1F804C01278BB
:206160000A812C228A700021017603E347F27D70C2F201000078002828D0FFE747F27D704F
:20618000C2F201000378694632224A6041F62922C0F601020A6047F28C71C2F2010147F258
:2061A0005D72C2F201024FF0290C13900846614602F01EF81290F5F7EFFE46F67C51C2F20D
:2061C00001010860002013990870D2E247F2CE20C2F201000078002828D0FFE747F2CE20DC
:2061E000C2F201000378694632224A6041F62922C0F601020A6047F28C71C2F2010147F2F8
:20620000AE22C2F201024FF0020C11900846614601F0EEFF1090F5F7BFFE46F67C51C2F230
:2062200001010860002011990870A1E246F67650C2F201000078002828D0FFE746F67650F8
:20624000C2F201000378694632224A6041F62922C0F601020A6047F28C71C2F2010146F694
:206260005652C2F201024FF0090C0F900846614601F0BEFF0E90F5F78FFE46F67C51C2F255
:206280000101086000200F99087070E205F038FC002801D1FFE769E200208DF86600FFE7BD
:2062A0009DF866000E2800F39D80FFE79DF8660000EB400046F6A041C2F2010101EB800052
:2062C00018901898EBF7C0FB002801D1FFE783E01898EBF7A1FB002804D0FFE71898EBF7E4
:2062E0006BFBFFE71898EBF78BFB002873D0FFE70020ADF85E001898EBF7FEFB00280CD136
:20630000FFE71898EBF7ECFB00280BD0FFE71898EBF7CEFB002805D0FFE71898EBF7E4F988
:206320000D9004E01898EBF7D7F90D90FFE70D98ADF85E009DF85F0047F25671C2F20101A5
:206340000A7847F22473C2F201039854BDF85E000A781A4450700878023008701898EBF7D8
:20636000BFFB002803D0FFE700200C9008E01898EBF7C2FB0221002818BF01210C91FFE7C8
:206380000C9847F25671C2F201010A78531C0B7047F22471C2F20101885447F2D060C2F2BA
:2063A00001000078102807D1FFE740F65B00C2F2010001210170FFE71898EBF791FB002869
:2063C00004D0FFE71898EBF783FA03E01898EBF773F9FFE706E0FFE79DF8660001308DF8B0
:2063E00066005DE705F08CFB002812D1FFE747F21070C2F2010047F22471C2F201014160F3
:2064000047F25671C2F201010978018111218170ACE100208DF85D00FFE79DF85D0005280C
:2064200000F3A381FFE79DF85D0047F2FC31C2F2010101EB4010FCF70BFA002800F0BD80C8
:20644000FFE79DF85D0047F2FC31C2F2010101EB40100B91FBF7F8FE000A47F25671C2F2CA
:2064600001010A7847F22473C2F2010398549DF85D000B9A02EB40100A910993FBF7E4FE45
:206480000A990A78099B1A4450700878023008709DF85D000B9A02EB4010FCF7F9F900280A
:2064A0000DD1FFE79DF85D0047F2FC31C2F2010101EB4010FCF758FA002823D0FFE79DF8F3
:2064C0005D0047F2FC31C2F2010101EB4010FCF70FFA02210028084618BF012047F2567279
:2064E000C2F20102137803F1010C82F800C047F22472C2F20102D05447F21070C2F2010007
:20650000817030E09DF85D0047F2FC31C2F2010101EB4010FCF7C8F9002823D0FFE79DF8E6
:206520005D0047F2FC31C2F2010101EB4010FCF7DFF96421002818BF002147F25670C2F283
:206540000100027802F10103037047F22470C2F20100815447F21070C2F201004FF0090148
:206560008170FFE7FFE79DF85D0047F2FC31C2F2010101EB4010FBF7D3FF47F2D060C2F233
:20658000010000780F2807D1FFE740F65B00C2F20100012101700FE047F2D060C2F20100A7
:2065A0000078002807D1FFE747F2D060C2F2010001210170FFE7FFE7BBE09DF85D0047F23A
:2065C000FC31C2F2010101EB4010FCF7F9F8002842D0FFE79DF85D0047F2FC31C2F201018A
:2065E00001EB40100891FBF72FFE000A47F25671C2F201010A7847F22473C2F201039854F1
:206600009DF85D00089A02EB401007910693FBF71BFE07990A78069B1A44507008780230DA
:2066200008709DF85D00089A02EB4010FBF7C8FD07990A78531C0B70069B985447F2107008
:20664000C2F20100092282709DF85D00089A02EB4010FBF755FF6BE09DF85D0047F2FC31AE
:20666000C2F2010101EB4010FCF7B6F800285ED0FFE79DF85D0047F2FC31C2F2010101EB51
:2066800040100591FBF7E0FD000A47F25671C2F201010A7847F22473C2F2010398549DF8FA
:2066A0005D00059A02EB401004910393FBF7CCFD04990A78039B1A445070087802300870B6
:2066C0009DF85D00059A02EB4010FBF781FD04990A78531C0B70039B98549DF85D00059A58
:2066E00002EB4010FBF774FD000A04990A78531C0B70039B98549DF85D00059A02EB40108F
:20670000FBF766FD000C04990A78531C0B70039B985447F21070C2F20100192282709DF855
:206720005D00059A02EB4010FBF7F2FEFFE7FFE7FFE705F0E5F9002810D1FFE747F2107011
:20674000C2F2010047F22471C2F20101416047F25671C2F201010978018106E0FFE79DF845
:206760005D0001308DF85D0057E6FFE7FFE7FFE7FFE7FFE7FFE7FFE7FFE7FFE7FFE71AB0A6
:2067800080BD00000000000080B547F28420C2F201000078C007002807D0FFE747F28C709C
:2067A000C2F2010001F0DCFEFFE780BD00000000704700000000000082B001468DF807007A
:2067C000002000909DF80700000900EB80004000009000989DF8072002F00F021044C0B20C
:2067E00002B070470000000082B001468DF8070000200090FFE79DF807000A2809DBFFE7FD
:206800000098013000909DF807000A388DF80700F1E7009800F00F009DF8071041EA00105F
:2068200002B070470000000080B584B002900020019002980068C068400600281ED4FFE7D3
:20684000029800684FF0FF31C160F5F7A5FB0190FFE702980068C068400600280DD4FFE744
:20686000F5F79AFB0199401AB0F57A7F04D9FFE703208DF80F0005E0EBE7FFE700208DF849
:206880000F00FFE79DF80F0004B080BD0000000080B586B00A460590ADF81210BDF8121080
:2068A0000DF10A00082301921A46F3F7D9F99DF80A10059A11709DF80B10059A11719DF8C1
:2068C0000C10059A11729DF80D10059A11739DF80E10059A11749DF80F10059A11759DF860
:2068E0001010059A11769DF81110059A117705992C31BDF81220083292B202230090084612
:2069000011461A46F3F7ACF906B080BD0000000080B58AB00A460990ADF82210BDF8221028
