:020000040000FA
:20000000FFE79DF80800C007002807D1FFE7BDF80C0010F4907F00F0BD80FFE79DF8100024
:20002000C007002810D0FFE79DF80D00C00700280AD0FFE705980068012101620598C16E64
:2000400041F00101C166FFE79DF810008007002810D5FFE79DF80800C00700280AD0FFE7F5
:2000600005980068022101620598C16E41F00401C166FFE79DF810004007002810D5FFE707
:200080009DF80800C00700280AD0FFE705980068042101620598C16E41F00201C166FFE77A
:2000A0009DF810000007002816D5FFE79DF80C008006002806D4FFE79DF80800C007002800
:2000C0000AD0FFE705980068082101620598C16E41F00801C166FFE70598C06E002858D0A1
:2000E000FFE79DF81000800600280AD5FFE79DF80C008006002804D5FFE7059808F024FC3F
:20010000FFE70598C06E0007002807D4FFE70598006880684006002833D5FFE7059808F060
:20012000EBFB0598006880684006002824D5FFE705980068816821F0400181600598406E33
:20014000002814D0FFE70598406E48F6D101C0F6010101650598406EFAF76AFC002805D095
:20016000FFE70598406E016D8847FFE703E00598FFF7FEFEFFE703E00598FFF7F9FEFFE780
:2001800006E00598FFF7F4FE05980021C166FFE7FFE71FE09DF81000000600280AD5FFE7AC
:2001A0009DF80C000006002804D5FFE7059808F0DFFE0FE09DF81000400600280AD5FFE778
:2001C0009DF80C004006002804D5FFE7059808F0A7FBFFE706B080BD81B0009001B0704718
:2001E00081B0009001B0704784B0134602900191ADF80220029890F86A00202840F08F804B
:20020000FFE70198002805D0FFE7BDF80200002804D1FFE701208DF80F0084E0FFE7029849
:2002200090F86800012804D1FFE702208DF80F0079E00298012180F86810FFE7FFE70198CA
:2002400002994865BDF802000299A1F85800BDF802000299A1F85A00FFE702988068B0F5C1
:20026000805F11D1FFE702980069002806D1FFE7029840F2FF11A0F85C1004E00298FF2171
:20028000A0F85C10FFE72CE002988068002810D1FFE702980069002805D1FFE70298FF2156
:2002A000A0F85C1004E002987F21A0F85C10FFE716E002988068B0F1805F10D1FFE70298D9
:2002C0000069002805D1FFE702987F21A0F85C1004E002983F21A0F85C10FFE7FFE7FFE7FF
:2002E000FFE7FFE702980021C1660298222180F86A10FFE70298002180F86810FFE7029870
:200300000068816841F00101816002980068016841F49071016000208DF80F0003E00220BD
:200320008DF80F00FFE79DF80F0004B07047000080B582B001900198006841F20001C4F251
:200340000101884203D1FFE705F052F80AE00198006844F20041C4F20001884201D1FFE73D
:20036000FFE7FFE702B080BD80B588B0944606900591ADF81220039300200190069890F80B
:200380006900202840F08F80FFE70598002805D0FFE7BDF81200002804D1FFE701208DF8B7
:2003A0001F0084E0FFE7069890F86800012804D1FFE702208DF81F0079E00698012180F80B
:2003C0006810FFE7FFE706980021C1660698212180F86910FBF710F80190BDF81200069931
:2003E000A1F85000BDF812000699A1F85200FFE70698B0F85200002837D0FFE70698B0F8EA
:2004000052100139A0F852100698019B03996A4611608021002208F0FFFD002804D0FFE7B6
:2004200003208DF81F0042E006988068B0F5805F12D1FFE70698006900280DD1FFE7059870
:200440000290029800886FF35F2006990968886205980230059007E00598411C05910078BA
:20046000069909688862FFE7C2E70698019B03996A4611604021002208F0CEFD002804D0BA
:20048000FFE703208DF81F0011E00698202180F86910FFE70698002180F86810FFE7002053
:2004A0008DF81F0003E002208DF81F00FFE79DF81F0008B080BD000080B582B001900198CF
:2004C000006841F20001C4F20101884203D1FFE705F05AF80AE00198006844F20041C4F2E5
:2004E0000001884201D1FFE7FFE7FFE702B080BD80B505F0BDF980BD86B0134605900491E8
:20050000ADF80E2000200290FFE7BDF80E0000283FD0FFE70298002816D1FFE704980078ED
:200520000009019001980A2805D3FFE7019837300599087004E00198303005990870FFE7A9
:2005400002980130029018E00498007800F00F00009000980A2805D3FFE70098373005997E
:20056000087004E00098303005990870FFE700200290049801300490FFE7059801300590CF
:20058000059800210170BDF80E000138ADF80E00BBE706B07047000081B0009000980068AD
:2005A000806900F002000021B1EB500F05D0FFE70098006800218162FFE7009800688069B6
:2005C000C007002807D1FFE700980068816941F001018161FFE701B0704700000000000021
:2005E00080B586B004900391029204980068806900F010000121B1EB101F5AD1FFE7FFE703
:2006000004980068806900F020000021B1EB501F25D1FFE70398013000281FD0FFE7039871
:20062000002808D0FFE7FAF7E7FE0299401A0399884212D9FFE70498202180F84110049890
:20064000002180F84210FFE70498002180F84010FFE703208DF817002FE0FFE7D0E7049857
:2006600000681021C161049800682021C16104980191FFF791FF0498006841684EF60002B1
:20068000CFF60062114041600498042141640498019980F841100498002280F84220FFE75E
:2006A0000498002180F84010FFE701208DF8170003E000208DF81700FFE79DF8170006B02B
:2006C00080BD000000000000F0B58BB0DDF844C0DDF840E01C4615460E460990ADF82210AE
:2006E000ADF82020ADF81E300998BDF822109DF81E206B464FF400571F600023CDF818C03D
:20070000CDF814E004940395029600F0D5F809981099119A00F090F900280DD0FFE70998A1
:20072000406C042804D1FFE701208DF82B0042E003208DF82B003EE0BDF81E00012806D16F
:20074000FFE79DF820000999096888621FE09DF8210009990968886209981099119A00F06A
:200760006BF900280DD0FFE70998406C042804D1FFE701208DF82B001DE003208DF82B0055
:2007800019E09DF82000099909688862FFE70998109B11996A4611604021002200F0BCF88A
:2007A000002804D0FFE703208DF82B0003E000208DF82B00FFE79DF82B000BB0F0BD0000C3
:2007C000F0B58BB0DDF844C0DDF840E01C4615460E460990ADF82210ADF82020ADF81E3012
:2007E0000998BDF822109DF81E206B464FF400571F604FF08073CDF818C0CDF814E00494B4
:200800000395029600F058F809981099119A00F013F900280DD0FFE70998406C042804D13E
:20082000FFE701208DF82B0042E003208DF82B003EE0BDF81E00012806D1FFE79DF8200080
:200840000999096888621FE09DF8210009990968886209981099119A00F0EEF800280DD019
:20086000FFE70998406C042804D1FFE701208DF82B001DE003208DF82B0019E09DF820000F
:20088000099909688862FFE70998109B11996A4611608021002200F03FF8002804D0FFE792
:2008A00003208DF82B0003E000208DF82B00FFE79DF82B000BB0F0BD10B584B0DDF818C0FE
:2008C00096460C460390ADF80A108DF809200193002000900398006840680090009849F694
:2008E0000001CFF6004108400090BDF80A006FF39F209DF8091040EA01400199084306999C
:200900000843009908430090009803990968486004B010BD0000000080B586B0DDF820C02A
:200920009646049003918DF80B200193FFE704980068806903990840401AB0FA80F04009FB
:200940009DF80B10884225D1FFE70198013000281FD0FFE70198002808D0FFE7FAF74CFDC1
:200960000899401A0199884212D9FFE70498202180F841100498002180F84210FFE7049898
:20098000002180F84010FFE703208DF8170005E0FFE7CCE700208DF81700FFE79DF81700FD
:2009A00006B080BD0000000080B584B0029001910092FFE702980068806900F02000002123
:2009C000B1EB501F30D1FFE702980199009AFFF707FE002804D0FFE701208DF80F0027E0BE
:2009E0000198002808D0FFE7FAF706FD0099401A0199884217D9FFE70298416C41F02001BE
:200A000041640298202180F841100298002180F84210FFE70298002180F84010FFE7032096
:200A20008DF80F0004E0C5E700208DF80F00FFE79DF80F0004B080BD80B584B002900191D6
:200A40000092FFE702980068806900F002000021B1EB500F36D1FFE702980199009AFFF774
:200A6000BFFD002804D0FFE701208DF80F002DE001980130002824D0FFE70198002808D0B1
:200A8000FFE7FAF7B9FC0099401A0199884217D9FFE70298416C41F0200141640298202184
:200AA00080F841100298002180F84210FFE70298002180F84010FFE703208DF80F0005E0FD
:200AC000FFE7BFE700208DF80F00FFE79DF80F0004B080BD0000000080B582B047F6B840BF
:200AE000C2F201000190FAF78FFC01990090084600F002F802B080BD80B582B0019047F6AE
:200B0000B840C2F20100FAF7B3FC00281DD1FFE747F6B840C2F2010046F20001C4F20001B2
:200B2000016042F23271C4F291014160002181600122C26001614161C1610162009000F044
:200B40001BF80098FAF79CFCFFE702B080BD000080B584B00B460390ADF80A100192039852
:200B6000BDF80A10019A4FF47A7C00936346FAF70BFD04B080BD000080B590B00F90FFE7B2
:200B800043F63000C4F20200016841F008010160006800F0080009900998FFE7FFE743F691
:200BA0003000C4F20200016841F040010160006800F0400008900898FFE74FF480500A90AE
:200BC00012200B9000210C9103220D9204230E9340F6004CC4F2020C0DF1280E0690604648
:200BE0000591714604920393CDF808C0CDF804E0FAF7CEF94FF400500A9006980B9005998A
:200C00000C91049A0D92039B0E9302980199FAF7BFF941F60000C4F2020000900399059A24
:200C2000FAF7CEFB03980A9001210B9105990C91049A0D9200980199FAF7AAF9FFE743F6AA
:200C40004000C4F20200016841F080710160006800F0807007900798FFE743F62000C4F23D
:200C60000200016841F080710160016821F08071016010B080BD00002DE9F0438DB0DDF862
:200C800054C0DDF850E01C4615460E460C908DF82F10ADF82C20ADF82A30ADF828C000202D
:200CA0008DF827000C989DF82F10BDF82C20BDF82A30DDF850C0BDF82870E8464FF47A796A
:200CC000C8F80890C8F80470C8F800C0CDF820E0079406950596FAF79FFE8DF827009DF8A3
:200CE0002700002838D0FFE70C98006846F20001C4F20001884203D1FFE7FFF7EDFE2AE04C
:200D00000C98006845F60041C4F20001884221D1FFE743F64000C4F20200016821F4000142
:200D200001600020C4F202004FF48071F9F7F0FF40F60000C4F202004FF40071F9F7E8FFEE
:200D400047F66C40C2F20100FAF75EFB049007F017FAFFE7FFE7FFE79DF827000DB0BDE83F
:200D6000F0830000000000002DE9F0438DB0DDF854C0DDF850E01C4615460E460C908DF85A
:200D80002F10ADF82C20ADF82A30ADF828C000208DF827000C989DF82F10BDF82C20BDF89D
:200DA0002A30DDF850C0BDF82870E8464FF47A79C8F80890C8F80470C8F800C0CDF820E072
:200DC000079406950596FAF78BFF8DF827009DF82700002838D0FFE70C98006846F2000104
:200DE000C4F20001884203D1FFE7FFF775FE2AE00C98006845F60041C4F20001884221D14A
:200E0000FFE743F64000C4F20200016821F4000101600020C4F202004FF48071F9F778FF68
:200E200040F60000C4F202004FF40071F9F770FF47F66C40C2F20100FAF7E6FA049007F0B7
:200E40009FF9FFE7FFE7FFE79DF827000DB0BDE8F08300000000000080B586B00590049122
:200E6000049840680178407840EA0120ADF80E000498406880788DF80D0000200290FFE799
:200E800002980190F1F7B0F8019981425BDAFFE7BDF80E00002851D0FFE7029800EB400068
:200EA00047F22451C2F2010101EB80008088002844D0FFE7029800EB400047F22451C2F211
:200EC000010101EB8000C088002837D0FFE7BDF80E00029901EB410147F22452C2F2010255
:200EE00002EB81018988884205D1FFE79DF80D00012814D0FFE7BDF80E00029901EB4101CB
:200F000047F22452C2F2010202EB8101C988884213D1FFE79DF80D0002280ED1FFE70298EC
:200F200000EB400047F22451C2F2010101EB80009DF80D10F0F700FEFFE7FFE7FFE70298D3
:200F4000013002909CE7012006B080BD0000000080B5ACB047F60850C2F201002A90FBF7B0
:200F600087F946F60001C4F201012A9A1160002151609160D160116182F8361082F83510E2
:200F8000802382F83430012353614FF0090CC2F818C04FF02B0CC2F81CC04FF0150CC2F8EC
:200FA00020C040F20B2CC2F824C040F2251CC2F828C040F2132CC2F82CC040F2291CC2F8ED
:200FC00030C02990104628912793FBF7F9FA2A99269008462899FBF747FD2A992590084636
:200FE000FBF706FA58210E222490084623911146289B22921A46FBF727FF2398FBF718FF96
:201000005A2021902299289AFBF71EFF2198FBF70FFF41F20000C4F202000421279AFAF79E
:20102000CFF928982B90FFE72B98012809DCFFE72B9803210DF0B2FFFFE72B9801302B90A6
:20104000F2E743F6E420C0F6030043F6A821C0F6030100222092209B0CF088FE20991F908C
:20106000084610F033F9002812D0FFE700204FF488714FF4F0721E901D911C9210F03CFCC3
:201080001E991B9008461D991C9A10F05FFC11E000204FF4F0714FF488721A9019911892E9
:2010A00010F02AFC1A99179008461999189A10F04DFCFFE7002001211690159110F05CFCE9
:2010C00043F61831C0F6030142F6E842C0F60302149008461146169A159B0CF047FE15991F
:2010E0001390084610F0F2F8002812D0FFE701204FF488714FF4F07212901191109210F03D
:20110000FBFB12990F9008461199109A10F01EFC11E001204FF4F0714FF488720E900D91A4
:201120000C9210F0E9FB0E990B9008460D990C9A10F00CFCFFE701200A900A9910F01CFCED
:2011400000212B91FFE72B9801281BDCFFE72B9848F69071C0F6040151F8201010F0E2FBF0
:201160002B99099008460FF0FBFFC0102B9946F66C42C2F2010242F82100FFE72B98013061
:201180002B90E0E72B9849F65122C0F60102212110F03EFB2B9949F6D122C0F6010223232F
:2011A00008900846194610F033FB2B9949F60962C0F60102192307900846194610F028FBF2
:2011C0002B9949F69942C0F60102282306900846194610F01DFB2B9949F6E932C0F60102FB
:2011E000242305900846194610F012FB2B9949F65152C0F60102252304900846194610F071
:2012000007FB49F2E901C0F6010149F6D902C0F601020390084611460BF096FF49F24910C0
:20122000C0F6010049F63911C0F601010BF098FF49F21910C0F6010049F60911C0F60101F8
:201240000BF088FF49F2A910C0F6010049F69911C0F601010BF090FF49F27910C0F60100BB
:2012600049F66911C0F601010BF080FF49F2D910C0F601000EF038F949F6F161C0F6010130
:20128000029008460EF038F949F21160C0F601000EF038F94AF24101C0F601010190084698
:2012A0000EF038F92CB080BD80B596B0159014911392002012901498013801460D280691C2
:2012C00000F2A3800699DFE801F007A00B232F32493D3584A08C9417159808F05DFE98E0DE
:2012E00013981190159811990A68496805911146059A08F0A1FF8CE013981090109800683D
:20130000159940F26C72C2F2010242F8210080E013980F9015980F990A680979049111461E
:20132000049A08F02DFF74E008F04AFC71E008F033FC6EE013980E9015980E99096808F08D
:20134000A7FF66E013980D9015980D990A68496803911146039A08F04FFF5AE015980CA979
:201360000BAA0DF0D1F913990A911599029008460FF0ACFF002813D0FFE70A984068159989
:2013800046F67442C2F2010242F821000A980068159946F67C42C2F2010242F8210012E093
:2013A0000A980068159946F67442C2F2010242F821000A984068159946F67C42C2F20102C8
:2013C00042F82100FFE715980C990B9A08F024FF1FE01398099015980999096808F0FCFEC5
:2013E00017E01398089015980899096808F0ACFE0FE013980790159807990A68496801911F
:201400001146019A08F084FE03E04FF0FF301290FFE7129816B080BD80B547F60850C2F25C
:201420000100FBF71DF880BD86B0059004910392002002900190009004994968059A126838
:20144000D2680023C0F6FF731A4001EB12410904029105990968039A01EBC211D1F88820F2
:2014600002F47042C1F8882004990968059A1268D2681A4001EB12410131029A1143059AA8
:201480001268039B02EBC312C2F888100499C968059A1268D2686FF3DF22114409040291A7
:2014A00005990968039A01EBC211D1F88C2002F47042C1F88C2004998968059A1268D2685E
:2014C0006FF3DF2211440131029A1143059A1268039B02EBC312C2F88C1005990968039AB7
:2014E00001EBC211D1F8942022F00702C1F8942004990969059A1268039B02EBC312C2F8E6
:201500009410049991F8311009020291049991F8321009040191049989690906009105994E
:201520000968039A01EBC211D1F89C20C1F89C00049991F83010029B1943019B1943009B12
:201540001943059B1B68DDF80CC003EBCC13C3F89C1005990968039B01EBC311D1F8983039
:2015600023F0FF03C1F8983004994969059B1B68DDF80CC003EBCC13C3F898100599096883
:20158000039B01EBC311D1F8A03040F2077C23EA0C03C1F8A0300499CB69096A1943059BBA
:2015A0001B68DDF80CC003EBCC13C3F8A01005990968039B01EBC311D1F8AC30C1F8AC0058
:2015C0000498406A05990968DDF80CC001EBCC11C1F8AC0004980069002803D1FFE70420DC
:2015E000029023E004980069012803D1FFE7032002901AE00498006904280FD0FFE704982D
:20160000006902280AD0FFE704980069032805D0FFE704980069072803D1FFE702200290EA
:2016200002E001200290FFE7FFE7FFE705980068039900EBC110D0F8B01001F0E021C0F8D4
:20164000B010049801684268806A029B5843511A5943033141EA004005990968039A01EBBB
:20166000C211C1F8B00005980068039900EBC110D0F8B41040F2FF729143C0F8B4100498B6
:20168000C06A05990968039A01EBC211C1F8B40005980068039900EBC110D0F8841041F05E
:2016A0000101C0F8841006B0704700000000000080B584B00A4603908DF80B1003989DF853
:2016C0000B10019200F034FF9DF80B00652804DBFFE703986421C17704E09DF80B000399CF
:2016E000C877FFE7039800F077F9039800F0B8FF002811D0FFE7039848F2AC01C2F2010161
:20170000411A89084EF29032C8F638625143CF3189B200F079F9FFE704B080BD000000007B
:2017200080B582B00190019800F082FF002804D0FFE7019800F018F903E0019800F028F99E
:20174000FFE702B080BD000081B000900098C07F01B070470000000081B0009000980068F3
:2017600001B070470000000080B582B001900198017D009100F08CFF009940EA410040F6AC
:201780004801C2F2010151F8200002B080BD000081B000900098007D01B0704700000000B4
:2017A00081B000900098C07D01B070470000000081B000900098406801B0704700000000C2
:2017C00081B000900098007E01B070470000000081B000900098806801B070470000000021
:2017E00081B000900098808901B070470000000080B592B00A461190ADF8421011980021F6
:2018000081741198C1741198016011980C30BDF8421002230F921A460E93F7F7E9FF1199B8
:201820001531BDF84220023292B201230D90084611461A460C93F7F7DBFF11991731BDF8FF
:201840004220033292B20B90084611460C9AF7F7CFFF11991431BDF84220043292B20A90F1
:20186000084611460C9AF7F7C3FF11991031BDF84220053292B20990084611460E9AF7F71C
:20188000B7FF11991831BDF84220073292B20890084611460C9AF7F7ABFF11991931BDF8E7
:2018A0004220083292B20790084611460C9AF7F79FFF11991A31BDF84220093292B20690B9
:2018C000084611460C9AF7F793FF11991B31BDF842200A3292B20590084611460C9AF7F7E2
:2018E00087FF11991C31BDF842200B3292B20490084611460C9AF7F77BFF11991D31BDF8DF
:2019000042200C3292B20390084611460C9AF7F76FFF11991E31BDF842200D3292B2029084
:20192000084611460C9AF7F763FF11991631BDF842200E3292B20190084611460C9AF7F7B6
:2019400057FF11991F31BDF842200F3292B20090084611460C9AF7F74BFF1199CA7F81F81C
:20196000202012B080BD000080B582B001900198002100F06DFD02B080BD0000000000002D
:2019800081B0009000980021416001B07047000080B582B001900198012100F059FD02B019
:2019A00080BD00000000000081B0009000980021816001B07047000082B00A4601908DF88F
:2019C00003109DF8030000F001000199887502B0704700000000000081B000900098C17FD2
:2019E00080F8201001B0704781B0009000980021016001B07047000081B000900098817C3E
:201A0000C17401B07047000080B592B00A461190ADF8421011980C30BDF8421002230F9218
:201A20001A460E93F7F72CFF11991531BDF84220023292B201230D90084611461A460C93A8
:201A4000F7F71EFF11991731BDF84220033292B20B90084611460C9AF7F712FF1199143125
:201A6000BDF84220043292B20A90084611460C9AF7F706FF11991031BDF84220053292B280
:201A80000990084611460E9AF7F7FAFE11991831BDF84220073292B20890084611460C9A10
:201AA000F7F7EEFE11991931BDF84220083292B20790084611460C9AF7F7E2FE11991A311E
:201AC000BDF84220093292B20690084611460C9AF7F7D6FE11991B31BDF842200A3292B240
:201AE0000590084611460C9AF7F7CAFE11991C31BDF842200B3292B20490084611460C9AE2
:201B0000F7F7BEFE11991D31BDF842200C3292B20390084611460C9AF7F7B2FE11991E3115
:201B2000BDF842200D3292B20290084611460C9AF7F7A6FE11991631BDF842200E3292B210
:201B40000190084611460C9AF7F79AFE11991F31BDF842200F3292B20090084611460C9AB2
:201B6000F7F78EFE12B080BD80B59AB047F63D70C2F20100007840F60001C4F2020108223C
:201B8000109008461146F9F703FCB0FA80F04009109981425AD0FFE747F63D70C2F2010093
:201BA0000078002852D1FFE700208DF86700FFE79DF867000F9000F01BFF0F99814235DA6B
:201BC000FFE79DF8670000EBC00048F2AC01C2F2010101EB800018901898807F00281ED101
:201BE000FFE71898807F012804D1FFE71898FFF7CFFE13E01898807F022804D1FFE71898C2
:201C0000FFF7B2FE09E01898807F032804D1FFE71898FFF785FDFFE7FFE7FFE7FFE7FFE7FA
:201C20009DF8670001308DF86700C1E740F60000C4F202000821F9F7ABFBB0FA80F04009D3
:201C400047F63D71C2F201010870FFE700208DF85F00FFE79DF85F0005284BDCFFE79DF8D8
:201C60005F0000EBC00048F2AC01C2F2010101EB800000F03DFD002826D0FFE79DF85F002F
:201C800000EBC00048F2AC01C2F2010101EB800000F0A2FC002817D0FFE79DF85F0000EB2E
:201CA000C00048F2AC01C2F2010101EB80000E91FFF77AFE9DF85F0000EBC0000E9901EB1C
:201CC0008000FFF765FEFFE748F2D070C2F2010000780C2807D1FFE740F65B00C2F2010066
:201CE00001210170FFE7FFE79DF85F0001308DF85F00AFE700208DF85E00FFE79DF85E000A
:201D000005284BDCFFE79DF85E0000EBC00048F2AC01C2F2010101EB800000F0D1FC0028FD
:201D200026D0FFE79DF85E0000EBC00048F2AC01C2F2010101EB800000F036FC002817D0EF
:201D4000FFE79DF85E0000EBC00048F2AC01C2F2010101EB80000D91FFF712FE9DF85E005F
:201D600000EBC0000D9901EB8000FFF7FDFDFFE748F2D070C2F2010000780C2807D1FFE737
:201D800040F65B00C2F2010001210170FFE7FFE79DF85E0001308DF85E00AFE740F61C604F
:201DA000C2F201000068002863D0FFE7F9F724FB40F61C61C2F201010968401A43F6982190
:201DC000884256D3FFE740F61C60C2F20100002101608DF85D10FFE79DF85D00052832DC3C
:201DE000FFE79DF85D0000EBC00048F2AC01C2F2010101EB800000F093FC00281CD0FFE7DE
:201E00009DF85D0000EBC00048F2AC01C2F2010101EB800000F00CFC00280DD0FFE79DF8A4
:201E20005D0000EBC00048F2AC01C2F2010101EB8000FFF799FDFFE7FFE79DF85D00013016
:201E40008DF85D00C8E748F2D070C2F201000078002807D1FFE748F2D070C2F20100012113
:201E60000170FFE740F65B00C2F2010001210170FFE700208DF85C00FFE79DF85C000C90D8
:201E800000F0B6FD0C99814280F21282FFE79DF85C0000EBC00048F2AC01C2F2010101EB26
:201EA000800000F0B1FB002800F04481FFE79DF85C0000EBC00048F2AC01C2F2010101EB1E
:201EC000800000F0C1FB002810D1FFE79DF85C0000EBC00048F2AC01C2F2010101EB800042
:201EE00000F012FC002800F0A180FFE700208DF85A00ADF858009DF85C0000EBC00048F2F3
:201F0000AC01C2F2010101EB80000B91FFF768FC000A8DF858009DF85C0000EBC0000B99D5
:201F200001EB8000FFF75CFC8DF859009DF85C0000EBC0000B9901EB800000F0A9FB0221A6
:201F40000028084618BF01208DF85A0046F68C40C2F2010016AA4FF00303F7F7EDF99DF809
:201F60005C1001EBC1010B9A02EB81010A90084600F0CAFB002858D0FFE700208DF8560065
:201F8000ADF854009DF85C0000EBC00048F2AC01C2F2010101EB80000991FFF721FC000AEC
:201FA0008DF854009DF85C0000EBC000099901EB8000FFF715FC8DF855009DF85C0000EBE1
:201FC000C000099901EB800000F062FB00280ED0FFE79DF85C0000EBC00048F2AC01C2F2C3
:201FE000010101EB8000FFF7AFFB089002E000200890FFE708988DF8560047F2F450C2F20F
:202000006C41040093184287F7F796F99DF85C1001EBC10148F2AC02C2F2010202EB810161
:2020200007900846FFF7D8FCFFE757E000208DF85200ADF850009DF85C0000EBC00048F212
:20204000AC01C2F2010101EB80000691FFF7C8FB000A8DF850009DF85C0000EBC000069947
:2020600001EB8000FFF7BCFB8DF851009DF85C0000EBC000069901EB800000F009FB0028AE
:202080000ED0FFE79DF85C0000EBC00048F2AC01C2F2010101EB8000FFF756FB059002E019
:2020A00000200590FFE705988DF8520047F2F450C2F20100092114AA0323F7F73DF99DF818
:2020C0005C1001EBC10148F2AC02C2F2010202EB810104900846FFF77FFCFFE79DF85C00AE
:2020E00000EBC00048F2AC01C2F2010101EB8000FFF782FC48F2D070C2F2010000780C28DD
:2021000007D1FFE740F65B00C2F20100012101700FE048F2D070C2F201000078002807D192
:20212000FFE748F2D070C2F2010001210170FFE7FFE7B6E09DF85C0000EBC00048F2AC0112
:20214000C2F2010101EB800000F012FA002840D0FFE700208DF84E00ADF84C009DF85C006E
:2021600000EBC00048F2AC01C2F2010101EB80000391FFF735FB000A8DF84C009DF85C0025
:2021800000EBC000039901EB8000FFF729FB8DF84D009DF85C0000EBC000039901EB8000FC
:2021A000FFF7D2FA8DF84E0047F2F450C2F20100092113AA0323F7F7BFF89DF85C1001EBB9
:2021C000C101039A02EB810102900846FFF704FC66E09DF85C0000EBC00048F2AC01C2F2DE
:2021E000010101EB800000F0D3F9002857D0FFE700208DF8480011909DF85C0000EBC00056
:2022000048F2AC01C2F2010101EB80000191FFF7E7FA000A8DF844009DF85C0000EBC000DD
:20222000019901EB8000FFF7DBFA8DF845009DF85C0000EBC000019901EB8000FFF78CFAE5
:202240008DF846009DF85C0000EBC000019901EB8000FFF781FA000A8DF847009DF85C00D9
:2022600000EBC000019901EB8000FFF775FA000C8DF8480048F21330C2F20100192111AA48
:202280000523F7F759F89DF85C1001EBC101019A02EB810100900846FFF7A6FBFFE7FFE7DD
:2022A000FFE7FFE79DF85C0001308DF85C00E4E51AB080BD0000000080B584B00A46039033
:2022C0008DF80B1003989DF80B10019200F030F99DF80B00652804DBFFE703986421C1771D
:2022E0000FE09DF80B00B0F1FF3F04DCFFE703980021C17704E09DF80B000399C877FFE771
:20230000FFE7039800F0ACF9002811D0FFE7039848F2AC01C2F20101411A89084EF2903292
:20232000C8F638625143CF3189B2FFF76DFBFFE704B080BD0000000080B582B001900091B8
:202340000198012100F0F4F800980199086002B080BD00000000000081B0009000980021E3
:2023600081810098C181009881740098C1740098C177009880F82010009801600098017510
:202380000098017700980122C2760098817700980182009801760098C175009841600098E1
:2023A00081600098417600988176009841770098417501B07047000082B00A4601908DF8C0
:2023C00003109DF80300B0F1FF3F04DCFFE70198002101750EE09DF80300022804DBFFE708
:2023E00001980121017504E09DF8030001990875FFE7FFE702B0704782B00A4601908DF84C
:2024000003109DF803000199C87502B07047000082B00190009100980199486002B070473A
:2024200082B00A4601908DF803109DF803000199087602B07047000082B00A460190ADF820
:202440000210BDF802000199888102B07047000080B584B00A4603908DF80B109DF80B001B
:2024600000283BD0FFE7039801218174039800F0EBF800280BD1FFE7039800F0F1F800289D
:2024800005D1FFE703986421FFF716FFFFE70398007F042806DCFFE70398007F012103F032
:2024A00057FC05E00398007FFF2101F0D1F8FFE7039800F0F9F800280FD0FFE7F8F79CFF17
:2024C00001900198002803D1FFE701200190FFE703980199FFF79CFFFFE717E003980021F9
:2024E00081740398007F042806DCFFE70398007F002103F02DFC05E00398007F002101F071
:20250000A7F8FFE70398FFF73BFAFFE704B080BD81B0009000980121417501B07047000000
:2025200081B0009000980021417501B07047000082B00A4601908DF803109DF80300019926
:20254000C8749DF803000199887448F2D070C2F201000078002807D1FFE748F2D070C2F256
:20256000010001210170FFE702B070470000000080B582B001900198FFF7E6F8019991F8F0
:202580002010401A18BF012002B080BD0000000080B582B001900198FFF7DEF8002818BF6E
:2025A000012002B080BD000080B582B00190F8F723FF01994A68801A00900846FFF7F0F860
:2025C0004EF6602148430021009A824228BF0121084602B080BD000080B582B00190F8F7FF
:2025E0000BFF01998A68801A00900846FFF7E8F84EF6602148430021009A824228BF01211F
:20260000084602B080BD000080B582B00190019800F062F801990090084600F039F8009970
:20262000081A18BF012002B080BD00000000000081B000900098C07C002818BF012001B02B
:20264000704700000000000081B000900098C07E0138B0FA80F0400901B070470000000028
:2026600081B000900098807D002818BF012001B0704700000000000081B000900098C07EE5
:202680000238B0FA80F0400901B070470000000081B000900098807C002818BF012001B00F
:2026A000704700000000000080B582B001900198FFF776F8002818BF012002B080BD00005F
:2026C00080B582B001900198FFF772F8002818BF012002B080BD000081B000900098C07C65
:2026E000002818BF012001B0704700000000000080B582B001900198FFF76AF8002818BF6A
:20270000012002B080BD000081B000900098C07E0338B0FA80F0400901B07047000000000C
:2027200081B000900098407D002818BF012001B0704700000000000082B001900198407EE1
:2027400000210028009116D0FFE70198407E0021172800910FDCFFE70198807E00210028DA
:20276000009108D0FFE70198807E00213C28B8BF01210091FFE7009800F0010002B07047EC
:2027800080B584B003900398407E48F26471C2F20101097802900846EEF786FE0021029A98
:2027A0008242019112D1FFE70398807E48F26471C2F20101497800900846EEF775FE00990C
:2027C000081AB0FA80F040090190FFE7019800F0010004B080BD000080B500F005F800F070
:2027E00073F880BD0000000080B582B048F2A900C2F20100002101708DF80710FFE79DF889
:20280000070005281FDCFFE79DF8070000EBC00048F2AC01C2F2010101EB8000FEF7E0FF7F
:20282000002808D0FFE748F2A900C2F2010001780131017000E006E0FFE79DF80700013085
:202840008DF80700DBE702B080BD00000000000080B584B000208DF80F00FFE79DF80F0094
:20286000052819DCFFE79DF80F0000EBC00148F2AC02C2F2010202EB8101CF2202EB001004
:20288000029008460299FEF7B3FFFFE79DF80F0001308DF80F00E1E740F62060C2F2010094
:2028A00040F2C7110122F6F7A3FF0190FFF794FF04B080BD0000000080B5002000F06CF8A8
:2028C00080BD00000000000080B500F091F8012101EB900048F28411C2F20101087080BD35
:2028E00048F28410C2F20100007870470000000080B584B000208DF80F00FFE79DF80F007F
:20290000052819DCFFE79DF80F0000EBC00148F2AC02C2F2010202EB8101CF2202EB001063
:20292000029008460299FFF76FF8FFE79DF80F0001308DF80F00E1E740F62060C2F201003D
:2029400040F2C7110122F6F79BFF0190FFF744FF04B080BD0000000080B582B000208DF8FC
:202960000700FFE79DF80700052813DCFFE79DF8070000EBC00048F2AC01C2F2010101EBFC
:202980008000FFF7E9FCFFE79DF8070001308DF80700E7E702B080BD80B582B001468DF8AD
:2029A000070000208DF80600FFE79DF80600009000F01EF80099814217DAFFE79DF8060080
:2029C00000EBC00048F2AC01C2F2010101EB80009DF8071001F00101FFF73AFDFFE79DF8FC
:2029E000060001308DF80600DFE702B080BD000048F2A900C2F20100007870470000000099
:202A000080B58CB0FAF7D4F901208DF820000021C2F20101099111218DF8281003218DF8B8
:202A20002B1000228DF82F208DF82E008DF82D008DF821208DF82A208DF829208DF82C20CC
:202A400008AB07901846069105920493FAF768F907988DF8200002218DF821104FF010410A
:202A600009911B228DF82820059A8DF829208DF82A208DF82B208DF82C008DF82D008DF8BE
:202A80002E208DF82F2004980391FAF749F907988DF8200006998DF82110039A09921723A6
:202AA0008DF82830059B8DF829308DF82A308DF82B108DF82C008DF82D008DF82E008DF881
:202AC0002F300498FAF72CF907988DF8200004218DF821104FF0404209921C238DF828304E
:202AE000059B8DF829308DF82A308DF82B308DF82C008DF82D008DF82E308DF82F300498D3
:202B000002910192FAF70CF907988DF8200005218DF821100199099116228DF82820059AA1
:202B20008DF829208DF82A20069B8DF82B308DF82C208DF82D008DF82E008DF82F200498D1
:202B4000FAF7EEF80298FAF747F94FF0204043F2D20101600CB080BD80B543F64400C4F26A
:202B60000200016821F48061016040F60000C4F202000E21F8F7CCF847F6C030C2F20100E1
:202B8000F7F7CEFA80BD000080B58CB0FFE743F64400C4F20200016841F48061016000686E
:202BA00000F4806002900298FFE7FFE743F63000C4F20200016841F004010160006800F0D0
:202BC000040001900198FFE702200390032004900020059040F60001C4F2020103AA009093
:202BE00008461146F8F7D4F947F6C030C2F2010042F20021C4F2010101604FF4803141608F
:202C0000009981600161816101624162C162C1600122C26101634261F7F7C2FA002805D0B8
:202C2000FFE7A4209721F6F7DBFFFFE70B200890012009900A9000200B9047F6C030C2F2D2
:202C4000010008A9F7F744F90CB080BD0000000080B543F63000C4F20200016821F48051F9
:202C6000016047F60840C2F20100F7F7A1FC80BD80B582B047F60840C2F2010043F200011A
:202C8000C4F2020101600021017141714161816101210162FFE743F63000C4F2020001685C
:202CA00041F480510160006800F4805001900198FFE747F60840C2F20100F7F7B1FC002874
:202CC00005D0FFE7A4209621F6F78AFFFFE702B080BD00000000000080B540F20040C4F216
:202CE00002004FF48051F8F713F840F60000C4F202004FF48851F8F70BF840F60040C4F29C
:202D0000020040F69401F8F703F841F60000C4F2020046F20801F7F7FBFF80BD00000000A7
:202D200080B594B0FFE743F63000C4F20200016841F002010160006800F002000E900E9877
:202D4000FFE7FFE743F63000C4F20200016841F004010160006800F004000D900D98FFE702
:202D6000FFE743F63000C4F20200016841F008010160006800F008000C900C98FFE7FFE7DC
:202D800043F63000C4F20200016841F040010160006800F040000B900B98FFE740F20040A8
:202DA000C4F202004FF4805101220A9009910892F8F706FB40F60000C4F202004FF4807144
:202DC000002207900692F8F7FBFA07980999069AF8F7F6FA40F60040C4F202000421059016
:202DE000069AF8F7EDFA10210598069AF8F7E8FA80210598069AF8F7E3FA4FF40061059833
:202E0000089AF8F7DDFA41F60000C4F20200082104900391069AF8F7D3FA09980F900899CD
:202E20001091069A119212920FAB0A9819460293F8F7AEF84FF4E8500F900898109006992C
:202E40001191129107980299F8F7A2F803980F9006991091119102221292079802990192B9
:202E6000F8F796F840F694000F900898109006991191129105980299F8F78AF803980F9065
:202E800008991091069A1192129204980299F8F77FF84FF4C0400F90069810901190019911
:202EA000129104980299F8F773F814B080BD000080B543F64000C4F20200016821F40001F8
:202EC00001600020C4F202004FF48071F7F720FF40F60000C4F202004FF40071F7F718FFD1
:202EE00047F66C40C2F20100F8F78EFA80BD000080B543F64000C4F20200016821F08071AF
:202F0000016040F60040C4F202004FF44051F7F7FFFE41F60000C4F202000421F7F7F8FE6B
:202F200047F6B840C2F20100F8F76EFA80BD000080B584B040F62160C2F2010000210170AC
:202F400047F6B050C2F201004C22039002911146EDF782F948F28070C2F201003821EDF719
:202F60007BF948F2B870C2F20100029941610161C16081604160016041F20000CAF2000034
:202F8000039A10601046FAF7EBF90221039A5160042191601021D160172111614FF4807132
:202FA0005161029991611162D16101901046FAF7C3FB009001F0A8FE41F2883001F0E4FBB5
:202FC00004B080BD0000000080B547F6FC50C2F20100FCF7B1F980BD80B588B0002007908F
:202FE00006900590049003900290019047F6FC51C2F2010142F60002C4F200020A60486018
:203000007F228A60FF22CA600861486188610846FCF7D2FA002805D0FFE7A4209321F6F78A
:20302000DFFDFFE747F6FC50C2F201000121FCF75BF943F2F22188422DD0FFE700208DF88D
:2030400008008DF809008DF80A000690079047F6FC50C2F2010002A90122FCF705FC0028F6
:2030600005D0FFE7A4209321F6F7BAFDFFE703208DF8040001208DF805008DF8060014207D
:203080008DF8070047F63820C2F20100016821F40041016024E047F6FC50C2F201000221D5
:2030A0000090FCF721F98DF8060003210098FCF71BF98DF8050004210098FCF715F98DF858
:2030C000040005210098FCF70FF98DF8070047F63820C2F20100016841F400410160FFE737
:2030E00047F6FC50C2F2010001A90122FCF7F4FA002805D0FFE7A4209321F6F771FDFFE748
:20310000FFE747F6FC50C2F201000168CA224A62006853214162FFE747F6FC50C2F20100E7
:20312000FCF77EFC002805D0FFE7A4209321F6F757FDFFE747F6FC50C2F20100012143F20B
:20314000F222FCF7E5F808B080BD00000000000080B543F64400C4F20200016821F48031FD
:20316000016041F20000C4F202002021F7F7D0FD47F61C60C2F20100FCF716FE80BD000055
:2031800080B590B0FFE743F64400C4F20200016841F480310160006800F4803003900398B5
:2031A000FFE7FFE743F63000C4F20200016841F010010160006800F0100002900298FFE79C
:2031C00047F61C60C2F2010044F20001C4F201010160C8214160002181604FF47A72C26054
:2031E00001618161FCF714FE002805D0FFE7A4209421F6F7F5FCFFE76020099050200A9043
:2032000000200B900D9047F61C61C2F2010109AA019008461146019AFCF7EAFC002805D08C
:20322000FFE7A4209421F6F7DBFCFFE720200490022005900020069007900321089141F2BD
:203240000001C4F2020104AA009008461146F7F79FFE47F61C60C2F201000099FCF714FE3A
:2032600010B080BD0000000080B582B043F64400C4F20200016821F01001016043F6400050
:20328000C4F20200016821F4003101600020C4F202004FF4B051F7F73BFD40F60040C4F2F8
:2032A00002006021F7F734FD2520F9F7B5FD2620F9F7B2FD47F65C60C2F20100FCF71CFEE5
:2032C00047F6CC61C2F2010101900846FCF714FE02B080BD0000000080B58AB0FFE743F66D
:2032E0004400C4F20200016841F010010160006800F0100004900498FFE7FFE743F63000F9
:20330000C4F20200016841F001010160006800F0010003900398FFE74FF4B0500590022091
:2033200006900020079003210891072109910021C4F2020105AA029008461146F7F728FEED
:2033400047F65C60C2F2010041F20001C4F2010101604FF4E13141600C21416102990161B0
:20336000C16081608161C16101624162029A029BFBF74AFF002805D0FFE7A4209221F6F786
:203380002FFCFFE72520012100220190F9F75CFD0198F9F74DFD0AB080BD000000000000EF
:2033A00080B502F065FA80BD704700000000000088B0079006910592079800F0070004906C
:2033C0000498C0F10700052803D3FFE70420019004E00498C0F107000190FFE70198039020
:2033E00004980430062803D8FFE70020009003E0049803380090FFE70098029006980399CA
:20340000012202FA01F10139084002998840059B02FA01F101391940084308B070470000DB
:2034200080B584B040F65A00C2F201000078C007002801D1FFE746E000208DF80E008DF861
:203440000F0068460F21016047F6B840C2F2010090210DF10E020223F8F7B6F9002803D0B7
:20346000FFE702F005FAFFE70520F7F73DFC01208DF80E0068460F21016047F6B840C2F267
:20348000010090210DF10E020223F8F79DF9002803D0FFE702F0ECF9FFE70220F7F724FCF4
:2034A00048F28C20C2F2010000212022029107F0D3FF48F28C10C2F201004FF48072029957
:2034C00007F0CAFFFFE704B080BD00000000000080B596B040F65A00C2F201000078C00756
:2034E000002801D1FFE791E006208DF8540000208DF85500FFE79DF855000F281CDCFFE79D
:203500009DF8540048F28C11C2F2010100220A549DF8540001308DF854009DF854000A547B
:203520009DF8540003308DF85400FFE79DF8550001308DF85500DEE708208DF854000020D5
:203540008DF85500FFE79DF855000F2834DCFFE79DF8550048F28C21C2F20101085C0001A8
:20356000ADF85600BDF85600B0F57A6F05DDFFE740F6FF70ADF85600FFE7BDF856009DF8C9
:20358000541048F28C12C2F2010250549DF8540001308DF854009DF857009DF85410505418
:2035A0009DF8540003308DF85400FFE79DF8550001308DF85500C6E706208DF80E000DF1D7
:2035C0000E00411C48F28C12C2F20102063240230290084611461A46ECF716FE4FF496717E
:2035E00001900846F7F780FB68460C21016047F6B840C2F2010090214123029AF8F7E4F8E1
:20360000002803D0FFE702F033F9FFE716B080BD80B582B006208DF8070068460F2101606A
:2036200047F6B840C2F2010000210DF107020123F8F7CAF8002807D0FFE740F65A00C2F27A
:20364000010000210170FFE702B080BD0000000080B582B00A4603468DF807008DF80610DB
:2036600040F65A00C2F201000078C007002801D1FFE70DE09DF806009DF8071048F28C22CA
:20368000C2F20102114401F8010CFFF721FFFFE702B080BD0000000080B582B00146ADF8DA
:2036A000060000208DF8040010208DF8050040F65A00C2F201000078C007002801D1FFE73D
:2036C0006DE068460F21016047F6B840C2F20100902101AA0223F8F777F8002803D0FFE7B4
:2036E00002F0C6F8FFE7BDF80600000347F64001C0F27D11B1FBF0F0013848F28C11C2F268
:20370000010181F8FE00FE208DF8040091F8FE008DF8050068460F21016047F6B840C2F250
:203720000100902101AA0223F8F74EF8002803D0FFE702F09DF8FFE700208DF80400A0201B
:203740008DF8050068460F21016047F6B840C2F20100902101AA0223F8F736F8002803D01D
:20376000FFE702F085F8FFE70520F7F7BDFA01208DF8040004208DF8050068460F210160AD
:2037800047F6B840C2F20100902101AA0223F8F71BF8002803D0FFE702F06AF8FFE702B0EF
:2037A00080BD00000000000080B590B00F9000208DF83B000F98007A012840F07185FFE782
:2037C0000F98012141720F980068B0F5C87F61DDFFE70F9840683B285CDCFFE748F2D07004
:2037E000C2F201000078032818DBFFE748F2D070C2F201000078032810D0FFE748F2D07086
:20380000C2F2010000780C2844DBFFE748F2D070C2F2010000780E283CD0FFE701208DF8CD
:203820003B0048F2D070C2F201000078012807DCFFE748F2D070C2F201000221017027E0EA
:2038400048F2D070C2F201000078022818D0FFE748F2D070C2F201000078032810D0FFE731
:2038600048F2D070C2F2010000780C280FDBFFE748F2D070C2F2010000780E2807D0FFE703
:2038800048F2D070C2F2010004210170FFE7FFE700F0DFBC48F2D070C2F20100007802283B
:2038A00074D1FFE70F980068B0F5C87F47DAFFE70F98406887281ADCFFE70F980068BD280D
:2038C0000DDCFFE748F2D070C2F201000C21017040F65B00C2F201000121017006E048F253
:2038E000D070C2F2010003210170FFE726E00F980068BD280FDCFFE748F2D070C2F201005E
:203900000D210170EDF7E4FF40F65B00C2F201000121017011E0F5F7F3FC002803D0FFE7BB
:20392000F5F7FEFB02E0F5F70BFCFFE747F2D900C2F2010001210170FFE7FFE718E00F9822
:203940004068A02813DBFFE740F65B00C2F201000121017048F28810C2F201000021017031
:2039600048F2D070C2F201000F210170FFE7FFE748F2D070C2F201000078022804D0FFE720
:2039800001208DF83B00FFE700F062BC48F2D070C2F201000078032866D1FFE70F98006854
:2039A000C9281ADBFFE70F9840685B2815DBFFE70F980068B0F5A07F0FDAFFE70F984068A2
:2039C000B0F5867F09DCFFE701208DF83B0047F2D001C2F20101087045E00F9800680128FC
:2039E00019DBFFE70F9840685B2814DBFFE70F98006877280FDCFFE70F984068B0F5867FCE
:203A000009DCFFE701208DF83B0047F2CF01C2F20101087026E00F980068B0F5C87F20DDC5
:203A2000FFE70F98406897281BDBFFE70F984068BD2816DCFFE701208DF83B00F7F7DCFC03
:203A400049F26831C2F2010108600868002807D1FFE749F26830C2F2010001210160FFE72D
:203A6000FFE7FFE7FFE7F2E348F2D070C2F2010000780C2840F0CB80FFE740F65800C2F241
:203A8000010007210170FEF72BFF56210128C8BF0A210D914FF000008DF833008DF83200CF
:203AA000FFE79DF832000590FEF71AFF0599814280F2AC80FFE7FEF79BFF8DF83100FEF797
:203AC00097FF04281DDBFFE7FEF792FF042804D1FFE702208DF8310012E0FEF789FF052865
:203AE00009D1FFE79DF8320003210028C8BF02218DF8311003E003208DF83100FFE7FFE7FB
:203B0000FFE79DF8310000EB80014FF4C872A2EB0111013091FBF0F08DF8300000208DF87A
:203B20002F00FFE79DF82F009DF8311088425CDAFFE79DF830009DF82F109DF83120B1FBC5
:203B4000F2F303FB12114A1C504301EB810100EB01100A900F9800680A9988423EDDFFE7E5
:203B60000F9800680A995031884237DAFFE70F9840680D99884231DDFFE70F9840680D99A9
:203B8000783188422ADAFFE701208DF83B009DF833009DF82F10084440F65801C2F20101BA
:203BA0000870087800EBC00048F2AC01C2F2010101EB8000FEF748FD002808D1FFE7F7F74A
:203BC0001BFC47F66871C2F201010860FFE740F61C60C2F201000021016006E0FFE79DF86A
:203BE0002F0001308DF82F009CE79DF831009DF8331008448DF833000D9882300D90FFE7B2
:203C00009DF8320001308DF832004AE71EE348F2D070C2F2010000780D2840F09680FFE7BB
:203C20000F980068B0F5C87F80F28E80FFE70F98006840F61901C2F201010978C822A2EB16
:203C40005101884234DDFFE70F98006840F61901C2F201010978C82202EB5101884227DAC7
:203C6000FFE7EDF77DFF00280AD0FFE70F98406802218828B8BF01210846EEF7EDF813E050
:203C8000EDF782FF00EB400047F22451C2F2010101EB80000F99496802228829B8BF0122FC
:203CA0001146EDF7D5FDFFE701208DF83B004AE0EEF79AF9022845DBFFE70F984068C12826
:203CC00040DBFFE70F980068B0F5A07F19DDFFE7EDF746FF002804D0FFE70020EDF738FEEF
:203CE00006E0EDF751FF0130C0B2EDF731FEFFE740F65B00C2F20100012101708DF83B1065
:203D00001FE00F9800684F281ADCFFE7EDF73CFF002805D1FFE7EEF767F9EDF719FE06E019
:203D2000EDF732FF0138C0B2EDF712FEFFE740F65B00C2F20100012101708DF83B10FFE75A
:203D4000FFE7FFE7FFE7FFE77FE248F2D070C2F2010000780F2863D1FFE70F980068B0F5BE
:203D6000C87F43DAFFE70F98406875283DDBFFE70F984068D72838DCFFE70F9800687D2813
:203D800007DCFFE748F2D070C2F20100082101702AE00F980068FB2813DCFFE748F2D07006
:203DA000C2F201001021017048F2AC20C2F201000221017040F65B00C2F201000121017084
:203DC00011E048F2D070C2F201001021017048F2AC20C2F201000121017040F65B00C2F28E
:203DE00001000170FFE7FFE7FFE718E00F984068A02813DBFFE748F2D070C2F2010002216A
:203E0000017048F28810C2F201000021017040F65B00C2F2010001210170FFE7FFE713E27E
:203E200048F2D070C2F201000078112840F06581FFE7FF208DF827000020089040F6580095
:203E4000C2F201000078062808D1FFE748F2A800C2F201000078002827D1FFE740F65800A5
:203E6000C2F20100007800EBC00048F2AC01C2F2010101EB8000FEF747FC002819D0FFE732
:203E80000F980068C82814DBFFE70F980068B0F58C7F0EDCFFE70F984068142809DBFFE76A
:203EA0000F980068632804DCFFE76FF07F40089070E00F98006814286BDBFFE70F98006816
:203EC000B0F5E67F65DCFFE70F9840686E2822DBFFE70F984068AA281DDCFFE70F980068DA
:203EE000143800EE100AB8EEC00A4FF21040C0F60400008801EE100AB8EE411A80EE010AA8
:203F00009FEDCA1A20EE010ABDEEC00A10EE100A8DF8270036E040F65800C2F2010000780E
:203F2000062808D1FFE748F2A800C2F201000078002812D1FFE740F65800C2F201000078D9
:203F400000EBC00048F2AC01C2F2010101EB8000FEF7DAFB002814D0FFE70F984068B428C6
:203F60000FDBFFE70F984068F0280ADCFFE70F98016840680490084604990DF059F9089020
:203F8000FFE7FFE740F65B00C2F2010001210170FFE7FFE740F65800C2F2010000780628C7
:203FA0006AD1FFE700208DF81F00FFE79DF81F000390FEF71DFD039981425CDAFFE79DF8D0
:203FC0001F0000EBC00048F2AC01C2F2010101EB8000FEF7A5FB002846D0FFE79DF81F00A1
:203FE00000EBC00048F2AC01C2F2010101EB8000FEF72AFB002837D1FFE79DF82700FF28FA
:204000000FD0FFE79DF81F0000EBC00048F2AC01C2F2010101EB80009DF82710FEF74CF96D
:2040200021E09DF81F0000EBC00048F2AC01C2F2010101EB8000FEF767FB002812D0FFE7D0
:20404000089800280ED0FFE79DF81F0000EBC00048F2AC01C2F2010101EB80000899FEF7D6
:204060006BF9FFE7FFE7FFE7FFE79DF81F0001308DF81F009AE73FE09DF82700FF2812D056
:20408000FFE740F65800C2F20100007800EBC00048F2AC01C2F2010101EB80009DF82710FF
:2040A000FEF70AF927E040F65800C2F20100007800EBC00048F2AC01C2F2010101EB800092
:2040C000FEF722FB002815D0FFE70898002811D0FFE740F65800C2F20100007800EBC000E6
:2040E00048F2AC01C2F2010101EB80000899FEF723F9FFE7FFE7FFE7A5E00F980068652832
:20410000C0F2A080FFE70F9840686528C0F29A80FFE70F980068B0F5C87F80F29380FFE7F3
:204120000F984068B0F5887F80F28C80FFE748F2D070C2F201000078002840F08380FFE738
:2041400046F68740C2F201000078002811D0FFE746F68740C2F201000078002871D0FFE7C1
:2041600047F63820C2F2010080788007002868D4FFE740F65800C2F2010007210170002030
:204180008DF81E00FFE79DF81E000290FEF730FC0299814242DAFFE79DF81E0000EBC00072
:2041A00048F2AC01C2F2010101EB8000FEF7B8FA00282CD0FFE79DF81E0000EBC00048F2AD
:2041C000AC01C2F2010101EB8000FEF73DFA00281DD1FFE740F65800C2F20100062101700D
:2041E0009DF81E0000EBC00048F2AC01C2F2010101EB8000FEF788FA002807D0FFE748F2C2
:20420000A800C2F2010001210170FFE7FFE7FFE79DF81E0001308DF81E00B4E740F658004C
:20422000C2F20100007806280AD101E00000C842F7F7E2F847F66871C2F201010860FFE77B
:20424000FFE7FFE7FFE7FFE7FFE7FFE7FFE7FFE7FFE70F980068B0F5BE7F17DDFFE70F98D6
:204260004068062812DBFFE70F980068B0F5ED7F0CDCFFE70F984068632807DCFFE747F2CB
:20428000D100C2F2010001210170FFE79DF83B00002804D0FFE70120F6F726FDFFE789E1EC
:2042A00048F2D070C2F201000078012807D1FFE748F2D070C2F201000021017055E148F23F
:2042C000D070C2F2010000780C2843D1FFE740F65800C2F20100007800EBC00048F2AC01F6
:2042E000C2F2010101EB8000FEF7AEF900281AD1FFE740F65800C2F20100007800EBC000A1
:2043000048F2AC01C2F2010101EB8000FEF79CF900281ED1FFE747F66870C2F201000068DB
:20432000002816D0FFE747F66870C2F201000021016040F65800C2F20100007800EBC000D7
:2043400048F2AC01C2F2010101EB8000FDF7E8F9FFE709E148F2D070C2F2010000780028E0
:2043600040F00181FFE70F9800686528C0F2FA80FFE70F9840686528C0F2F480FFE70F9868
:204380000068B0F5C87F80F2ED80FFE70F984068B0F5887F80F2E680FFE740F65800C2F209
:2043A00001000078072812D0FFE740F65800C2F201000078062840F0D580FFE747F6687024
:2043C000C2F201000068002800F0CC80FFE700208DF81D0001218DF83B1048F2D072C2F292
:2043E0000102117047F66871C2F2010108608DF81C00FFE79DF81C000190FEF7F9FA0199BA
:20440000814229DAFFE79DF81C0000EBC00048F2AC01C2F2010101EB8000FEF781F90028F4
:2044200013D0FFE79DF81C0000EBC00048F2AC01C2F2010101EB8000FEF7FAF8002804D06B
:20444000FFE701208DF81D0006E0FFE79DF81C0001308DF81C00CDE79DF81D00002837D0CF
:20446000FFE740F62060C2F20100007800282FD0FFE740F61C60C2F201000068002827D177
:20448000FFE748F26470C2F201000078EDF70CF807280ADBFFE748F26470C2F201000078DE
:2044A000EDF702F8142813DBFFE7F6F7A5FF40F61C61C2F2010108600868002807D1FFE756
:2044C00040F61C60C2F2010001210160FFE748E040F61C60C2F20100002101608DF81B104B
:2044E000FFE79DF81B000090FEF782FA0099814236DAFFE79DF81B0000EBC00048F2AC0191
:20450000C2F2010101EB8000FEF70AF9002820D0FFE79DF81D0000280DD0FFE79DF81B0036
:2045200000EBC00048F2AC01C2F2010101EB8000FDF71AFA0CE09DF81B0000EBC00048F23E
:20454000AC01C2F2010101EB8000FDF721FAFFE7FFE7FFE79DF81B0001308DF81B00C0E7A3
:20456000FFE7FFE7FFE7FFE7FFE747F2D100C2F201000021017047F2CF00C2F2010001703E
:2045800047F2D000C2F20100017047F2D900C2F20100017047F2DA00C2F20100017047F242
:2045A000DB00C2F20100017049F26830C2F201000160FFE7EEF72CFB10B080BD0000000022
:2045C00081B001468DF803009DF8030048F2AD22C2F20102322310FB0320323801B070472E
:2045E00080B584B002468DF80F0002910298019200F02AF8002812D0FFE79DF80F0048F2D6
:20460000AD21C2F20101322210FB02103238029A4FF6F941C0F604011CF0B4FEFFE704B00D
:2046200080BD00000000000081B001468DF803009DF8030000223228B8BF0122104601B088
:20464000704700000000000080B582B001900198EBF70DFEC0B2FFF7E7FF02B080BD0000E8
:2046600080B586B0059004914FF6E660ADF80E00049800890338C0B2FFF7D6FF8DF80D0038
:2046800004984068807800210128029109DBFFE704984068807800210328B8BF0121029183
:2046A000FFE7029800F001008DF80C009DF80D00C00700283BD0FFE79DF80C00C0070028E6
:2046C00035D0FFE70498406881780330019008460199FFF785FF48F2D070C2F201000078E5
:2046E000102807D1FFE740F65B00C2F2010001210170FFE704980089033847F63C21C2F257
:20470000010101F8010B04984268033200890338009008461146009AEBF776FD04994968E1
:20472000897848F21132C2F201021170FFE704984068407848F61C71C2F201010978884215
:204740001CD1FFE79DF80D00C00700280AD0FFE79DF80C00C007002804D0FFE706208DF840
:204760000F00FFE704980DF10E0141600498022101810598049902F00BFAFFE7012006B0CB
:2047800080BD00000000000080B584B0029048F28070C2F201004FF4807181610521016065
:2047A0000021C16101624FF0807242624161C1620163416348F2B872C2F201021160012301
:2047C00053601161D360102191604FF480015161029B47F6B051C2F20101019008460199DF
:2047E000F8F78AFC002804D0FFE701208DF80F0003E000208DF80F00FFE79DF80F0004B0D8
:2048000080BD00000000000080B583B00290019100920198406A00280CD0FFE70098B0F1D7
:20482000406F07D0FFE70198806A0138029909680861FFE701988069002800F0AB80FFE74A
:204840000198006A002856D0FFE70198806802990968C8610198C06900282DD0FFE7019805
:20486000C16A026B1143426B1143426A11430268C368D0F810C0D0F814E041EA8E4141EA3D
:204880000C01D0F820C041EA0C011943C36919438069084310430099084302990968486127
:2048A0000098B0F1406F06D0FFE701984068029909688861FFE71DE00198C16A026B1143B6
:2048C000426B1143426A114302680369D0F814C0D0F818E041EA8C411943036A1943C0695F
:2048E000084340EA0E00104300990843029909684861FFE74DE00198C06900282BD0FFE76B
:204900000198C16A026B1143426B1143426A11430268C368D0F814C0D0F818E041EA8C4128
:20492000D0F820C041EA0C011943C069084340EA0E0010430099084302990968486100980B
:20494000B0F1406F06D0FFE701984068029909688861FFE71CE00198C16A026B1143426B01
:204960001143426A114302684369D0F818C0D0F81CE041EA8341006A084340EA0E0040EA63
:204980000C00104300990843029909684861FFE7FFE7A3E00198006A002851D0FFE7019805
:2049A000806802990968C8610198C069002829D0FFE70198C16A026B1143426B1143426ADF
:2049C0001143C2680369D0F814C0D0F818E041EA8C411943036A19431143C069084340EA82
:2049E0000E00009908430299096848610098B0F1406F06D0FFE70198406802990968886136
:204A0000FFE71CE00198C16A026B1143426B1143426A114302694369D0F818C0D0F81CE0B3
:204A200041EA83411143006A084340EA0E0040EA0C0000990843029909684861FFE74CE065
:204A40000198C069002828D0FFE70198C16A026B1143426B1143426A1143C2684369D0F86A
:204A600018C0D0F81CE041EA8341006A0843104340EA0E0040EA0C00009908430299096845
:204A800048610098B0F1406F06D0FFE701984068029909688861FFE71EE00198406A002844
:204AA00019D0FFE70198C16A026B1143426B1143426A114342698369D0F81CC0006A41EAD1
:204AC0008241084340EA0C00184300990843029909684861FFE7FFE7FFE7FFE703B080BD16
:204AE00080B582B001900198806B00900098002181630098C162009890F84100082811D1DF
:204B0000FFE7009800680221C16000980068016841F40031016000980068016841F002019E
:204B2000016007E00098012180F841100098F8F753FCFFE702B080BD80B588B048F2807068
:204B4000C2F201004FF480718161852101600021C16101624FF0807242624161C1620163DF
:204B600041630121816247F6B051C2F2010141F28832029008460299F8F766FB002804D0E4
:204B8000FFE701208DF817006AE047F6B050C2F201000DF10F0141F28832F9F719F8002812
:204BA00004D0FFE701208DF8170059E000F09CF9002804D0FFE701208DF8170050E09DF85C
:204BC0000F00049048F28070C2F2010081210160049820F0F0004FF0706106910699002945
:204BE000019004D1FFE720208DF81F0005E00698B0FA80F08DF81F00FFE79DF81F000A217F
:204C000001FA00F001990843049004988DF80F0047F6B050C2F2010048F28071C2F201012D
:204C200041F28832F8F710FB002804D0FFE701208DF8170014E047F6B050C2F201000DF10A
:204C40000F0141F28832F9F78FF8002804D0FFE701208DF8170003E000208DF81700FFE7BC
:204C60009DF8170008B080BD80B584B040F62160C2F20100007800283ED1FFE7FFF75CFFD8
:204C8000002804D0FFE701208DF80F0038E048F28070C2F201004FF4807181614FF40051DC
:204CA000C160002101620161C162016341634FF44062C26141604FF0407242628162EB2294
:204CC00002600A224261029147F6B051C2F2010101AA009008460099F8F7CEFD002804D044
:204CE000FFE701208DF80F000AE040F62160C2F2010001210170FFE700208DF80F00FFE7B0
:204D00009DF80F0004B080BDFFE747F6B050C2F20100006880688006002801D5FFE7F4E791
:204D200047F6B050C2F20100016842F266124A61016800228A610168CA6100680261BFF33A
:204D40004F8FFFE747F6B050C2F20100006880688006002801D5FFE7F4E747F6B050C2F217
:204D60000100016842F299124A61016800228A610168CA6100680261BFF34F8FFFE747F6B7
:204D8000B050C2F20100006880688006002801D5FFE7F4E747F6B050C2F20100016842F23A
:204DA00066224A61016800228A610168CA6100680261BFF34F8FFFE747F6B050C2F2010083
:204DC000006880688006002801D5FFE7F4E747F6B050C2F20100016842F299224A610168E0
:204DE00000228A610168CA6100680261BFF34F8FFFE747F6B050C2F2010000688068800609
:204E0000002801D5FFE7F4E747F6B050C2F20100016842F266324A61016800228A61016822
:204E2000CA6100680261BFF34F8FFFE747F6B050C2F20100006880688006002801D5FFE75A
:204E4000F4E747F6B050C2F20100016842F299324A61016800228A610168CA61006802619D
:204E6000BFF34F8F7047000080B586B0DDF820C09646049003918DF80B200193FFE7049801
:204E80000068806803990840002818BF01209DF80B10884220D0FFE70898013000281AD08B
:204EA000FFE70898002808D0FFE7F6F7A5FA0199401A089988420DD9FFE70498042180F896
:204EC00041100498416C41F00101416401208DF8170005E0FFE7D2E700208DF81700FFE77D
:204EE0009DF8170006B080BD80B584B048F28070C2F201004FF4807181610621016000210C
:204F0000C161016241624161C1620163416347F6B051C2F2010141F2883202900846029940
:204F2000F8F792F9002804D0FFE701208DF80F0030E048F2B870C2F2010002210160416014
:204F4000002101610121C160102282604FF48002426148F28072C2F20102052313604FF052
:204F600080735362916247F6B051C2F2010141F28833019008461146019AF8F7BDF8002817
:204F800004D0FFE701208DF80F0003E000208DF80F00FFE79DF80F0004B080BD0000000090
:204FA00080B547F6B050C2F20100F8F71DFA80BD80B5A6B00DF1060000219222F4F718FC24
:204FC0009DF8101048F28512C2F2010211709DF8111047F60452C2F2010211709DF81210DB
:204FE00048F2D872C2F2010211709DF8131048F2D372C2F2010211709DF8141048F2D2724F
:20500000C2F2010211709DF8151048F2D172C2F2010211709DF81610012909D1FFE747F607
:205020003820C2F20100016841F48021016008E047F63820C2F20100016821F48021016011
:20504000FFE79DF8170048F62501C2F2010108709DF8260048F61C71C2F2010108709DF8E3
:205060002E009DF82F1041EA002048F62601C2F20101088047F60450C2F20100007800285A
:2050800007D1FFE747F60450C2F2010001210170FFE748F28510C2F20100007847F6045105
:2050A000C2F20101097888420BDBFFE747F60450C2F20100007848F28511C2F20101087067
:2050C000FFE748F2D870C2F201000078002807D1FFE748F2D870C2F2010001210170FFE7A5
:2050E00048F2D370C2F201000078182807DBFFE748F2D370C2F2010000210170FFE748F21A
:20510000D270C2F201000078182807DBFFE748F2D270C2F2010000210170FFE748F2D170F4
:20512000C2F2010000781C2807D3FFE748F2D170C2F2010000210170FFE726B080BD000083
:2051400082B001900091012002B070470000000082B001900091012002B070470000000093
:2051600080B584B00146ADF80E00BDF80E0000EE100AB8EEC00A9FED301A31EE400A81EEE3
:20518000000ABFEE001A30EE010A9FED2C1A20EE010A8DED010A9DED010A80EE010A10EE99
:2051A000100A0091EBF745FA41EC100B1CF07CF951EC100B9FED180B53EC102BEBF71BF9E3
:2051C00041EC100B51EC100B9FED150B53EC102BEBF76AF841EC100B53EC102B9FED120B5A
:2051E00051EC100BEBF779F941EC100B51EC100B9FED0F0B53EC102BEBF756F841EC100BCB
:2052000051EC100BEBF728FA02909DED020A04B080BD00BF00BF00BF000000A099A1724050
:20522000000000000012AF40000000C007173241000000A0991171C000F07F4500401C464B
:2052400080B547F65C60C2F20100016801220A62016802220A62016804220A6201681022E4
:205260000A62006808210162FFE747F65C60C2F2010001688A6942F008028A610068816965
:2052800041F010018161FFE747F65C60C2F201000021C16648F21231C2F201010122FAF7C7
:2052A000A3FF80BD0000000080B58CB048F61000C2F2010000214160018147F63C70C2F2BA
:2052C00001000078C007002840F08580FFE748F62C00C2F2010001210B9001F0F1FB47F655
:2052E0003C71C2F20101087045F25112C0F6010219210B9801F0ECF845F24112C0F601028B
:205300001C210B9B0A90184601F0E2F840F61962C0F6000202210B9B0990184601F0D8F8FD
:2053200042F21122C0F6000209210B9B0890184601F0CEF840F65962C0F6010211210B9B4F
:205340000790184601F0C4F844F26162C0F6010231210B9B0690184601F0BAF847F691128A
:20536000C0F6010234210B9B0590184601F0B0F846F6D962C0F6010228210B9B04901846DC
:2053800001F0A6F847F23922C0F6010229210B9B0390184601F09CF846F69972C0F60102CB
:2053A0002C210B9B0290184601F092F847F23912C0F601022B210B9B0190184601F088F800
:2053C00049F60142C0F6000233210B9B0090184601F07EF8FFE747F65C60C2F2010048F276
:2053E0001231C2F201010122FAF7FEFE0CB080BD80B582B048F21230C2F20100017848F65C
:205400002C02C2F201020190104600F0A5FE47F65C60C2F2010001220199FAF7E5FE02B03C
:2054200080BD00000000000080B582B0F5F7E4FF019047F68520C2F201000078C00700286A
:205440001ED0FFE7019848F25871C2F20101096841F288321144884211D3FFE747F68520FD
:20546000C2F201000021017049F29030C2F20100016046F68840C2F201000160FFE76BE089
:2054800046F68C40C2F2010000F062FA47F2F450C2F2010000F05CFA48F21330C2F2010059
:2054A00000F056FA47F2DE00C2F2010000F050FA48F62570C2F2010000F04AFA48F211306F
:2054C000C2F20100007800281DD0FFE748F21130C2F2010001784FF41072012908BF4FF402
:2054E000007247F63C21C2F201010B7803F101030090084611461A46F4F7C2F94FF00001F4
:20550000009A1170FFE748F62470C2F201000078C007002801D0FFE7FFE748F62070C2F27D
:2055200001000068002817D0FFE7019848F62071C2F201010968401A00280DD3FFE748F6F8
:205540002070C2F201000021016049F26C30C2F2010001210174FFE702B080BD000000008C
:2055600080B547F63C70C2F201000078C007002807D0FFE748F62C00C2F2010001F044FCE4
:20558000FFE780BD00000000704700000000000082B001468DF80700002000909DF80700E0
:2055A000000900EB80004000009000989DF8072002F00F021044C0B202B070470000000021
:2055C00082B001468DF8070000200090FFE79DF807000A2809DBFFE70098013000909DF8AA
:2055E00007000A388DF80700F1E7009800F00F009DF8071041EA001002B070470000000017
:2056000080B584B002900020019002980068C068400600281ED4FFE7029800684FF0FF31FD
:20562000C160F5F7E9FE0190FFE702980068C068400600280DD4FFE7F5F7DEFE0199401AE4
:20564000B0F57A7F04D9FFE703208DF80F0005E0EBE7FFE700208DF80F00FFE79DF80F0057
:2056600004B080BD0000000080B586B00A460590ADF81210BDF812100DF10A000823019285
:205680001A46F4F7B5F89DF80A10059A11709DF80B10059A11719DF80C10059A11729DF80A
:2056A0000D10059A11739DF80E10059A11749DF80F10059A11759DF81010059A11769DF88A
:2056C0001110059A117705992C31BDF81220083292B202230090084611461A46F4F788F8FD
:2056E00006B080BD0000000080B586B00A460590ADF81210BDF8121001A80E2300921A46FD
:20570000F4F776F89DF80410059A11709DF80510059A51709DF80610059A11719DF80710E5
:20572000059A51719DF80810059A91719DF80910059AD1719DF80A10059A11729DF80B10AA
:20574000059A51729DF80C10059A91729DF80D10059AD1729DF80E10059A11739DF80F1076
:20576000059A51739DF81010059A91739DF81110002918BF0121059AD17306B080BD0000C0
:2057800080B582B048F2DC70C2F2010040F24011CAF20001016040F64861C2F2010104220B
:2057A0000A6008234B608A600723CB600A6102234B618B61002343608360C26010220261E2
:2057C000402242614FF480728261C3614FF4006202624FF480524262836201900091194660
:2057E000EBF7CEFB01980099FAF746F9002807D0FFE740F26770C2F201000121017006E080
:2058000040F26770C2F2010000210170FFE740F20360EBF751FB40F26770C2F20100007859
:2058200002B080BD0000000082B0019000910098008946F68641C2F201010978884212DD11
:20584000FFE70098406846F68641C2F201010978405C062807D1FFE740F2A470C2F2010065
:2058600001210170FFE7032002B070470000000080B584B0FDF730FAFDF76EF9FDF718FB3A
:20588000FDF736FBFDF764FCFDF7EEFC47F6B050C2F20100F7F764FD0090FDF795FBFDF768
:2058A000D7F9F9F775F8F5F7F3F9BFF34F8FBFF36F8F4EF61451CEF200010A6822F400327F
:2058C0000A604EF65072CEF2000200231360BFF34F8FBFF36F8F4EF68452CEF20002136071
:2058E000BFF34F8F0A6822F480320A60BFF34F8F4EF68051CEF20001096803910399C1F3B9
:205900004E310291FFE70398C0F3C9000190FFE702980199890760F34D114EF67470CEF2A4
:20592000000001600198411E01910028F0D1FFE70298411E02910028E5D1FFE7BFF34F8FCD
:20594000BFF36F8FF7F7A8FA04B080BD0000000080B588B00790079890F84204002801D1AB
:20596000FFE7A7E0079890F8401401EB011100EB4100069006980078022807D1FFE746F645
:205980008640C2F201000321017033E006980078092807D1FFE746F68640C2F20100032104
:2059A000017026E006980078112807D1FFE746F68640C2F201000321017019E00698007808
:2059C0002C2807D1FFE746F68640C2F20100122101700CE006980078192807D1FFE746F61D
:2059E0008640C2F2010005210170FFE7FFE7FFE7FFE7FFE700200590FFE70598042844DC93
:205A0000FFE740F2A470C2F20100002101700698421C017890F8213068464FF00A0CC0F80A
:205A200004C045F6290EC0F6010EC0F800E048F62C00C2F20100CDF80CC001F06DF8039931
:205A40000491FFE70498411E049100280ED0FFE740F2A470C2F201000078C007002801D01C
:205A6000FFE703E00120F5F73FF9EBE740F2A470C2F201000078C007002801D0FFE704E049
:205A8000FFE7059801300590B7E7079890F84014013101F01F0180F84014079890F8421418
:205AA000013980F8421440F2A470C2F2010000210170FFE708B080BD80B586B00A46059026
:205AC000ADF81210059800788DF80A00059800798DF80B000598007A8DF80C000598007BF5
:205AE0008DF80D000598007C8DF80E000598007D8DF80F000598007E8DF810000598007FEE
:205B00008DF81100BDF812100DF10A00082301921A46F3F7B5FE05992C31BDF81220083239
:205B200092B202230090084611461A46F3F7A8FE06B080BD0000000043F67400C4F202007F
:205B40000068C00F002804D0FFE70120002804D10AE00120002807D1FFE748F25C70C2F263
:205B60000100BE21016083E043F67400C4F2020000680001002804D5FFE70120002804D1AE
:205B80000AE00120002807D1FFE748F25C70C2F20100B92101606AE043F67400C4F202006F
:205BA0000068C000002804D5FFE70120002804D10AE00120002807D1FFE748F25C70C2F20D
:205BC0000100BA21016051E043F67400C4F2020000688000002804D5FFE70120002804D105
:205BE0000AE00120002807D1FFE748F25C70C2F20100BB21016038E043F67400C4F202003F
:205C000000684001002804D5FFE70120002804D10AE00120002807D1FFE748F25C70C2F22B
:205C20000100B82101601FE043F67400C4F2020000684000002804D5FFE70120002804D118
:205C40000AE00120002807D1FFE748F25C70C2F20100BC21016006E048F25C70C2F20100B9
:205C600000210160FFE7FFE7FFE7FFE7FFE7FFE743F67400C4F20200016841F080710160ED
:205C8000704700000000000080B586B00A460590ADF81210059800788DF804000598407843
:205CA0008DF80500059800798DF80600059840798DF80700059880798DF808000598C079DE
:205CC0008DF809000598007A8DF80A000598407A8DF80B000598807A8DF80C000598C07AAA
:205CE0008DF80D000598007B8DF80E000598407B8DF80F000598807B8DF810000598C07B76
:205D000000F001008DF81100BDF8121001A80E2300921A46F3F7B4FD06B080BD00000000CB
:205D200080B502F075FC49F26C30C2F201007021FFF7AAFFFCF710FEFCF7DAFDECF734F934
:205D4000ECF7FEF8F3F7A8FAF3F70AFA80BD000080B582B00A4603468DF807008DF806108C
:205D60009DF80700013801460528009100F29E800099DFE801F0031D354F67819DF80600C1
:205D800000280AD0FFE740F60000C4F202004FF480510122F5F714FB09E040F60000C4F226
:205DA00002004FF480510022F5F70AFBFFE77EE09DF80600002809D0FFE740F60040C4F2C8
:205DC000020004210122F5F7FBFA08E040F60040C4F2020004210022F5F7F2FAFFE766E037
:205DE0009DF8060000280AD0FFE740F60000C4F202004FF480710122F5F7E2FA09E040F6F4
:205E00000000C4F202004FF480710022F5F7D8FAFFE74CE09DF80600002809D0FFE740F6EC
:205E20000040C4F2020010210122F5F7C9FA08E040F60040C4F2020010210022F5F7C0FA58
:205E4000FFE734E09DF8060000280AD0FFE740F60000C4F202004FF400610122F5F7B0FA7A
:205E600009E040F60000C4F202004FF400610022F5F7A6FAFFE71AE09DF8060000280AD07C
:205E8000FFE740F60000C4F202004FF480610122F5F796FA09E040F60000C4F202004FF451
:205EA00080610022F5F78CFAFFE700E0FFE702B080BD00000000000080B582B00090009843
:205EC0000138B0F1807F03D3FFE70120019019E0009801384EF21401CEF2000108604FF0F4
:205EE000FF300F2104F048FA4EF21800CEF20000002101604EF21000CEF2000007220260D8
:205F00000191FFE7019802B080BD00000000000080B5F6F759F840F62460C2F20100016836
:205F200001310160FFF71CFB80BD00000000000080B5B8B02CA83021EAF78EF900202B907F
:205F40002A9029902890279006A88421EAF784F9F7F70AF843F67000C4F20200016821F0E3
:205F600018010160FFE743F64000C4F20200016841F080510160006800F08050059005986A
:205F8000FFE7FFE747F20000C4F20000016841F440410160006800F4404004900498FFE7D4
:205FA0000D202C904FF480302D9001202E903190022032904FF48001339104213491C82169
:205FC0003591369037902CA8F8F7C6FD00281AD0FFE709202C904FF480302D9000202E907D
:205FE0000120319040F61861C2F2010108702CA8F8F7B2FD002805D0FFE7A4209821F3F726
:20600000EFFDFFE7FFE7F6F74BFF002805D0FFE7A4209821F3F7E4FDFFE70F202790022078
:206020002890002029904FF4A0502A904FF480502B9027A80621F8F793FB002805D0FFE7BE
:20604000A4209821F3F7CCFDFFE76820C0F20300069039200B9003200D9002200C900020C5
:206060000E90012010904FF48030119040F61860C2F201000078C007002804D1FFE74FF465
:206080008070129003E04FF400701290FFE70020179018902190229006A8F7F719FF0028A2
:2060A00005D0FFE7A4209821F3F79AFDFFE7F8F7B3FC44F6D351C1F26201A0FB0101890900
:2060C00003900846F9F78CFD042102900846F9F76BFD4FF0FF3000210191019AF6F7B4FEAE
:2060E00038B080BD000000004EF68850CEF20000016841F47001016043F60000C4F202003E
:20610000016841F00101016043F60801C4F2020100220A6001684FF6FF73CFF6F663194064
:20612000016043F60401C4F2020143F21003C2F200430B60016821F48021016043F60C0098
:20614000C4F2020002604EF60850CEF200004FF0006101607047000080B584B00A460390C5
:206160008DF80B100398808932280ADBFFE70398807A002804D0FFE7039800F001FDFFE7D0
:20618000FFE70398002181810398807A01460628019100F243810199DFE811F0070034006C
:2061A000810011005A00D10009019DF80B00012804D1FFE7039805F067F9FFE72EE1FFE7C9
:2061C0000398B0F814049DF80B1000F0C9F90399A1F81404FFE703989DF80B1081730398F5
:2061E000B0F8121401318AB2A0F81214012A08D1FFE703980121817203980021A0F8121491
:20620000FFE70BE1FFE70398B0F814049DF80B1000F0A6F90399A1F81404FFE70398018AD3
:206220009DF80B2042EA012101820398B0F8121401318AB2A0F81214022A08D1FFE70398B2
:206240000421817203980021A0F81214FFE7E5E0FFE70398B0F814049DF80B1000F080F9A7
:206260000399A1F81404FFE703989DF80B1080F818140398B0F8121401318AB2A0F8121467
:20628000012A0BD1FFE703980221817203980021A0F812140398A0F81614FFE7BEE003986A
:2062A000B0F816149DF80B2042EA0121A0F816140398B0F8121401318AB2A0F81214022A7B
:2062C0003CD1FFE7FFE70398B0F8140400F060F90399A1F81404FFE70398B0F81414B0F8FB
:2062E0001604814204D0FFE7039800F049FC95E00398008A002807D1FFE7039800F0DCFA56
:20630000039800F03DFC89E003980521817203980021A0F81214FFE700F042F90399A1F8DC
:206320001404FFE70398008AB0F5806F05DDFFE70398012180F81914FFE7FFE76EE00398C7
:2063400090F81904C007002807D0FFE70398B0F812140131A0F8121416E0FFE70398B0F874
:2063600014049DF80B1000F0FBF80399A1F81404FFE79DF80B000399B1F812248B1801324E
:20638000A1F812249874FFE70398B0F81214008A81420BD1FFE70398062181720398002153
:2063A000A0F812140398A0F81614FFE736E00398B0F816149DF80B2042EA0121A0F8161489
:2063C0000398B0F8121401318AB2A0F81214022A23D1FFE7FFE70398B0F8140400F0D8F821
:2063E0000399A1F81404FFE7039890F81904C00700280ED1FFE70398B0F81414B0F8160449
:20640000814204D1FFE7039800F056FA00E0FFE7FFE7039800F0B4FBFFE7FFE704B080BD80
:2064200086B09C46049003910292ADF8063000208DF80500FFE79DF8050013283EDCFFE748
:2064400004989DF8051001EB810100EB810000F59560009000984068002828D1FFE70298C1
:206460000099486003980078009908700398C0680099C8600398006900990861BDF8060072
:2064800000990881009948819DF80500049991F8EC16884207DBFFE79DF8050001300499BC
:2064A00081F8EC06FFE701208DF817000AE0FFE79DF8050001308DF80500BCE700208DF861
:2064C0001700FFE79DF8170006B070470000000086B00B4604908DF80F10029200208DF8AE
:2064E0000700FFE79DF8070013282EDCFFE704989DF8071000EBC10000F5C76000900098B0
:20650000406800281AD1FFE70298009948609DF80F00009908709DF80700049991F8ED1685
:20652000884207DBFFE79DF807000130049981F8ED06FFE701208DF817000AE0FFE79DF8EB
:20654000070001308DF80700CCE700208DF81700FFE79DF8170006B0704700000000000009
:2065600081B00A460346ADF802008DF80110BDF802009DF801104140C9B24FF2C44CC0F6B4
:20658000040C3CF8111081EA102001B07047000081B00146ADF80200BDF8020001B0704755
:2065A000002070470000000082B00090009890F8A604C007002804D0FFE700208DF8070023
:2065C00006E00098012180F8A6148DF80710FFE79DF8070002B0704781B0009000980021E8
:2065E0000161C16081604160016001B07047000080B586B0944605900491ADF80E200293F6
:206600000020ADF806008DF805000090ADF80600FFE7BDF80600BDF80E1088421EDAFFE7CE
:206620000498BDF80610405C8DF805009DF805000599009A531C00938854FFE70298008815
:206640009DF80510FFF78CFF02990880FFE7FFE7BDF806000130ADF80600DAE7009806B07A
:2066600080BD00000000000080B586B005900491039200208DF80B008DF80A008DF80900E6
:20668000ADF806000090FFE7FFF78AFFADF80600FFE703984078C007002805D0FFE7039831
:2066A00000788DF8090014E00598417A4A1C427201F07F008DF809000598007A002807D05A
:2066C000FFE79DF8090040F080008DF80900FFE7FFE79DF8090003990870FFE7FFF760FF3F
:2066E000ADF80600FFE7049800994A1C009201224254FFE7BDF806000121FFF731FFADF895
:206700000600FFE700208DF80B00FFE79DF90B00002820D4FFE79DF809009DF90B10C9003C
:20672000C8408DF80A009DF80A000499009A531C00938854FFE7BDF806009DF80A10FFF7C8
:206740000FFFADF80600FFE7FFE79DF80B0001388DF80B00DAE701208DF80B00FFE79DF95D
:206760000B00002820D4FFE7039800899DF90B10C900C8408DF80A009DF80A000499009A01
:20678000531C00938854FFE7BDF806009DF80A10FFF7E6FEADF80600FFE7FFE79DF80B00DA
:2067A00001388DF80B00DAE700208DF80B00FFE79DF90B00002820D4FFE7039880789DF9ED
:2067C0000B10C900C8408DF80A009DF80A000499009A531C00938854FFE7BDF806009DF854
:2067E0000A10FFF7BDFEADF80600FFE7FFE79DF80B0001388DF80B00DAE7FFE7BDF806008C
:20680000FFF7C6FEADF80600FFE701208DF80B00FFE79DF90B00002816D4FFE7BDF8060042
:206820009DF90B10C900C8408DF80A009DF80A000499009A531C00938854FFE79DF80B000D
:2068400001388DF80B00E4E7009806B080BD000080B584B00390029100208DF807008DF859
:2068600006000090FFE702980088FFF791FE02990880FFE701208DF80700FFE79DF90700BC
:20688000002816D4FFE7029800889DF90710C900C8408DF806009DF806000399009A531C95
:2068A00000938854FFE79DF8070001388DF80700E4E7009804B080BD80B58EB00D9003A813
:2068C000FFF78AFE0D98807B8DF80C0000208DF80D000D9991F818148DF80E100D99123170
:2068E00004910D99098AADF814108DF83300FFE79DF833000D9991F8EC16884256DAFFE78A
:206900000D989DF8331001EB810100EB810000F595600B900B984068002840D0FFE70B988F
